{
  "abi": [
    {
      "inputs": [],
      "stateMutability": "nonpayable",
      "type": "constructor"
    },
    {
      "anonymous": false,
      "inputs": [
        {
          "indexed": true,
          "internalType": "bytes32",
          "name": "proofHash",
          "type": "bytes32"
        },
        {
          "indexed": false,
          "internalType": "string",
          "name": "reason",
          "type": "string"
        }
      ],
      "name": "ProofRejected",
      "type": "event"
    },
    {
      "anonymous": false,
      "inputs": [
        {
          "indexed": true,
          "internalType": "bytes32",
          "name": "proofHash",
          "type": "bytes32"
        },
        {
          "indexed": true,
          "internalType": "address",
          "name": "userAddress",
          "type": "address"
        },
        {
          "indexed": false,
          "internalType": "uint256",
          "name": "amount",
          "type": "uint256"
        },
        {
          "indexed": false,
          "internalType": "bytes32",
          "name": "commitmentHash",
          "type": "bytes32"
        }
      ],
      "name": "ProofVerified",
      "type": "event"
    },
    {
      "inputs": [
        {
          "components": [
            {
              "internalType": "uint256",
              "name": "amount",
              "type": "uint256"
            },
            {
              "internalType": "bytes32",
              "name": "commitmentHash",
              "type": "bytes32"
            },
            {
              "internalType": "bytes",
              "name": "proofBytes",
              "type": "bytes"
            },
            {
              "internalType": "address",
              "name": "userAddress",
              "type": "address"
            }
          ],
          "internalType": "struct BalanceVerifier.BalanceProof",
          "name": "proof",
          "type": "tuple"
        }
      ],
      "name": "getProofHash",
      "outputs": [
        {
          "internalType": "bytes32",
          "name": "",
          "type": "bytes32"
        }
      ],
      "stateMutability": "pure",
      "type": "function"
    },
    {
      "inputs": [
        {
          "internalType": "bytes32",
          "name": "proofHash",
          "type": "bytes32"
        }
      ],
      "name": "isProofVerified",
      "outputs": [
        {
          "internalType": "bool",
          "name": "",
          "type": "bool"
        }
      ],
      "stateMutability": "view",
      "type": "function"
    },
    {
      "inputs": [],
      "name": "owner",
      "outputs": [
        {
          "internalType": "address",
          "name": "",
          "type": "address"
        }
      ],
      "stateMutability": "view",
      "type": "function"
    },
    {
      "inputs": [
        {
          "internalType": "bytes32",
          "name": "",
          "type": "bytes32"
        }
      ],
      "name": "verifiedProofs",
      "outputs": [
        {
          "internalType": "bool",
          "name": "",
          "type": "bool"
        }
      ],
      "stateMutability": "view",
      "type": "function"
    },
    {
      "inputs": [
        {
          "components": [
            {
              "internalType": "uint256",
              "name": "amount",
              "type": "uint256"
            },
            {
              "internalType": "bytes32",
              "name": "commitmentHash",
              "type": "bytes32"
            },
            {
              "internalType": "bytes",
              "name": "proofBytes",
              "type": "bytes"
            },
            {
              "internalType": "address",
              "name": "userAddress",
              "type": "address"
            }
          ],
          "internalType": "struct BalanceVerifier.BalanceProof",
          "name": "proof",
          "type": "tuple"
        }
      ],
      "name": "verifyProof",
      "outputs": [
        {
          "internalType": "bool",
          "name": "verified",
          "type": "bool"
        }
      ],
      "stateMutability": "nonpayable",
      "type": "function"
    }
  ],
  "devdoc": {
    "details": "Smart contract để verify ZKP proof cho balance > amount  Chức năng: - Verify balance proof từ ZKP prover - Lưu trữ verified proofs - Tích hợp với InterbankTransfer contract",
    "kind": "dev",
    "methods": {
      "getProofHash((uint256,bytes32,bytes,address))": {
        "details": "Get proof hash từ proof data",
        "params": {
          "proof": "Balance proof"
        },
        "returns": {
          "_0": "proofHash Hash của proof"
        }
      },
      "isProofVerified(bytes32)": {
        "details": "Check if proof has been verified",
        "params": {
          "proofHash": "Hash của proof"
        },
        "returns": {
          "_0": "verified True nếu đã được verify"
        }
      },
      "verifyProof((uint256,bytes32,bytes,address))": {
        "details": "Verify balance proof",
        "params": {
          "proof": "Balance proof từ prover"
        },
        "returns": {
          "verified": "True nếu proof hợp lệ"
        }
      }
    },
    "title": "BalanceVerifier",
    "version": 1
  },
  "evm": {
    "assembly": "    /* \"BalanceVerifier.sol\":304:4674  contract BalanceVerifier {... */\n  mstore(0x40, 0x80)\n    /* \"BalanceVerifier.sol\":1212:1261  constructor() {... */\n  callvalue\n  dup1\n  iszero\n  tag_1\n  jumpi\n  0x00\n  dup1\n  revert\ntag_1:\n  pop\n    /* \"BalanceVerifier.sol\":1244:1254  msg.sender */\n  caller\n    /* \"BalanceVerifier.sol\":1236:1241  owner */\n  0x01\n  0x00\n    /* \"BalanceVerifier.sol\":1236:1254  owner = msg.sender */\n  0x0100\n  exp\n  dup2\n  sload\n  dup2\n  0xffffffffffffffffffffffffffffffffffffffff\n  mul\n  not\n  and\n  swap1\n  dup4\n  0xffffffffffffffffffffffffffffffffffffffff\n  and\n  mul\n  or\n  swap1\n  sstore\n  pop\n    /* \"BalanceVerifier.sol\":304:4674  contract BalanceVerifier {... */\n  dataSize(sub_0)\n  dup1\n  dataOffset(sub_0)\n  0x00\n  codecopy\n  0x00\n  return\nstop\n\nsub_0: assembly {\n        /* \"BalanceVerifier.sol\":304:4674  contract BalanceVerifier {... */\n      mstore(0x40, 0x80)\n      callvalue\n      dup1\n      iszero\n      tag_1\n      jumpi\n      0x00\n      dup1\n      revert\n    tag_1:\n      pop\n      jumpi(tag_2, lt(calldatasize, 0x04))\n      shr(0xe0, calldataload(0x00))\n      dup1\n      0x176d80c4\n      eq\n      tag_3\n      jumpi\n      dup1\n      0x42c8fd00\n      eq\n      tag_4\n      jumpi\n      dup1\n      0x64e6867d\n      eq\n      tag_5\n      jumpi\n      dup1\n      0x789eefaf\n      eq\n      tag_6\n      jumpi\n      dup1\n      0x8da5cb5b\n      eq\n      tag_7\n      jumpi\n    tag_2:\n      0x00\n      dup1\n      revert\n        /* \"BalanceVerifier.sol\":398:444  mapping(bytes32 => bool) public verifiedProofs */\n    tag_3:\n      tag_8\n      0x04\n      dup1\n      calldatasize\n      sub\n      dup2\n      add\n      swap1\n      tag_9\n      swap2\n      swap1\n      tag_10\n      jump\t// in\n    tag_9:\n      tag_11\n      jump\t// in\n    tag_8:\n      mload(0x40)\n      tag_12\n      swap2\n      swap1\n      tag_13\n      jump\t// in\n    tag_12:\n      mload(0x40)\n      dup1\n      swap2\n      sub\n      swap1\n      return\n        /* \"BalanceVerifier.sol\":4110:4232  function isProofVerified(bytes32 proofHash) external view returns (bool) {... */\n    tag_4:\n      tag_14\n      0x04\n      dup1\n      calldatasize\n      sub\n      dup2\n      add\n      swap1\n      tag_15\n      swap2\n      swap1\n      tag_10\n      jump\t// in\n    tag_15:\n      tag_16\n      jump\t// in\n    tag_14:\n      mload(0x40)\n      tag_17\n      swap2\n      swap1\n      tag_13\n      jump\t// in\n    tag_17:\n      mload(0x40)\n      dup1\n      swap2\n      sub\n      swap1\n      return\n        /* \"BalanceVerifier.sol\":1418:2856  function verifyProof(BalanceProof memory proof)... */\n    tag_5:\n      tag_18\n      0x04\n      dup1\n      calldatasize\n      sub\n      dup2\n      add\n      swap1\n      tag_19\n      swap2\n      swap1\n      tag_20\n      jump\t// in\n    tag_19:\n      tag_21\n      jump\t// in\n    tag_18:\n      mload(0x40)\n      tag_22\n      swap2\n      swap1\n      tag_13\n      jump\t// in\n    tag_22:\n      mload(0x40)\n      dup1\n      swap2\n      sub\n      swap1\n      return\n        /* \"BalanceVerifier.sol\":4377:4672  function getProofHash(BalanceProof memory proof) ... */\n    tag_6:\n      tag_23\n      0x04\n      dup1\n      calldatasize\n      sub\n      dup2\n      add\n      swap1\n      tag_24\n      swap2\n      swap1\n      tag_20\n      jump\t// in\n    tag_24:\n      tag_25\n      jump\t// in\n    tag_23:\n      mload(0x40)\n      tag_26\n      swap2\n      swap1\n      tag_27\n      jump\t// in\n    tag_26:\n      mload(0x40)\n      dup1\n      swap2\n      sub\n      swap1\n      return\n        /* \"BalanceVerifier.sol\":1080:1100  address public owner */\n    tag_7:\n      tag_28\n      tag_29\n      jump\t// in\n    tag_28:\n      mload(0x40)\n      tag_30\n      swap2\n      swap1\n      tag_31\n      jump\t// in\n    tag_30:\n      mload(0x40)\n      dup1\n      swap2\n      sub\n      swap1\n      return\n        /* \"BalanceVerifier.sol\":398:444  mapping(bytes32 => bool) public verifiedProofs */\n    tag_11:\n      mstore(0x20, 0x00)\n      dup1\n      0x00\n      mstore\n      keccak256(0x00, 0x40)\n      0x00\n      swap2\n      pop\n      sload\n      swap1\n      0x0100\n      exp\n      swap1\n      div\n      0xff\n      and\n      dup2\n      jump\t// out\n        /* \"BalanceVerifier.sol\":4110:4232  function isProofVerified(bytes32 proofHash) external view returns (bool) {... */\n    tag_16:\n        /* \"BalanceVerifier.sol\":4177:4181  bool */\n      0x00\n        /* \"BalanceVerifier.sol\":4200:4214  verifiedProofs */\n      dup1\n        /* \"BalanceVerifier.sol\":4200:4225  verifiedProofs[proofHash] */\n      0x00\n        /* \"BalanceVerifier.sol\":4215:4224  proofHash */\n      dup4\n        /* \"BalanceVerifier.sol\":4200:4225  verifiedProofs[proofHash] */\n      dup2\n      mstore\n      0x20\n      add\n      swap1\n      dup2\n      mstore\n      0x20\n      add\n      0x00\n      keccak256\n      0x00\n      swap1\n      sload\n      swap1\n      0x0100\n      exp\n      swap1\n      div\n      0xff\n      and\n        /* \"BalanceVerifier.sol\":4193:4225  return verifiedProofs[proofHash] */\n      swap1\n      pop\n        /* \"BalanceVerifier.sol\":4110:4232  function isProofVerified(bytes32 proofHash) external view returns (bool) {... */\n      swap2\n      swap1\n      pop\n      jump\t// out\n        /* \"BalanceVerifier.sol\":1418:2856  function verifyProof(BalanceProof memory proof)... */\n    tag_21:\n        /* \"BalanceVerifier.sol\":1500:1513  bool verified */\n      0x00\n        /* \"BalanceVerifier.sol\":1566:1583  bytes32 proofHash */\n      dup1\n        /* \"BalanceVerifier.sol\":1626:1631  proof */\n      dup3\n        /* \"BalanceVerifier.sol\":1626:1638  proof.amount */\n      0x00\n      add\n      mload\n        /* \"BalanceVerifier.sol\":1652:1657  proof */\n      dup4\n        /* \"BalanceVerifier.sol\":1652:1672  proof.commitmentHash */\n      0x20\n      add\n      mload\n        /* \"BalanceVerifier.sol\":1686:1691  proof */\n      dup5\n        /* \"BalanceVerifier.sol\":1686:1702  proof.proofBytes */\n      0x40\n      add\n      mload\n        /* \"BalanceVerifier.sol\":1716:1721  proof */\n      dup6\n        /* \"BalanceVerifier.sol\":1716:1733  proof.userAddress */\n      0x60\n      add\n      mload\n        /* \"BalanceVerifier.sol\":1596:1743  abi.encodePacked(... */\n      add(0x20, mload(0x40))\n      tag_34\n      swap5\n      swap4\n      swap3\n      swap2\n      swap1\n      tag_35\n      jump\t// in\n    tag_34:\n      mload(0x40)\n      0x20\n      dup2\n      dup4\n      sub\n      sub\n      dup2\n      mstore\n      swap1\n      0x40\n      mstore\n        /* \"BalanceVerifier.sol\":1586:1744  keccak256(abi.encodePacked(... */\n      dup1\n      mload\n      swap1\n      0x20\n      add\n      keccak256\n        /* \"BalanceVerifier.sol\":1566:1744  bytes32 proofHash = keccak256(abi.encodePacked(... */\n      swap1\n      pop\n        /* \"BalanceVerifier.sol\":1767:1781  verifiedProofs */\n      0x00\n        /* \"BalanceVerifier.sol\":1767:1792  verifiedProofs[proofHash] */\n      dup1\n        /* \"BalanceVerifier.sol\":1782:1791  proofHash */\n      dup3\n        /* \"BalanceVerifier.sol\":1767:1792  verifiedProofs[proofHash] */\n      dup2\n      mstore\n      0x20\n      add\n      swap1\n      dup2\n      mstore\n      0x20\n      add\n      0x00\n      keccak256\n      0x00\n      swap1\n      sload\n      swap1\n      0x0100\n      exp\n      swap1\n      div\n      0xff\n      and\n        /* \"BalanceVerifier.sol\":1763:1900  if (verifiedProofs[proofHash]) {... */\n      iszero\n      tag_36\n      jumpi\n        /* \"BalanceVerifier.sol\":1827:1836  proofHash */\n      dup1\n        /* \"BalanceVerifier.sol\":1813:1863  ProofRejected(proofHash, \"Proof already verified\") */\n      0x6d00d60149975f22699f47ddb8a115b5ca6a019d7d14102a8da7b14085e70bea\n      mload(0x40)\n      tag_37\n      swap1\n      tag_38\n      jump\t// in\n    tag_37:\n      mload(0x40)\n      dup1\n      swap2\n      sub\n      swap1\n      log2\n        /* \"BalanceVerifier.sol\":1884:1889  false */\n      0x00\n        /* \"BalanceVerifier.sol\":1877:1889  return false */\n      swap2\n      pop\n      pop\n      jump(tag_33)\n        /* \"BalanceVerifier.sol\":1763:1900  if (verifiedProofs[proofHash]) {... */\n    tag_36:\n        /* \"BalanceVerifier.sol\":1969:1970  0 */\n      0x00\n        /* \"BalanceVerifier.sol\":1954:1959  proof */\n      dup4\n        /* \"BalanceVerifier.sol\":1954:1966  proof.amount */\n      0x00\n      add\n      mload\n        /* \"BalanceVerifier.sol\":1954:1970  proof.amount > 0 */\n      gt\n        /* \"BalanceVerifier.sol\":1946:2004  require(proof.amount > 0, \"Amount must be greater than 0\") */\n      tag_39\n      jumpi\n      mload(0x40)\n      0x08c379a000000000000000000000000000000000000000000000000000000000\n      dup2\n      mstore\n      0x04\n      add\n      tag_40\n      swap1\n      tag_41\n      jump\t// in\n    tag_40:\n      mload(0x40)\n      dup1\n      swap2\n      sub\n      swap1\n      revert\n    tag_39:\n        /* \"BalanceVerifier.sol\":2051:2052  0 */\n      0x00\n        /* \"BalanceVerifier.sol\":2022:2053  proof.userAddress != address(0) */\n      0xffffffffffffffffffffffffffffffffffffffff\n      and\n        /* \"BalanceVerifier.sol\":2022:2027  proof */\n      dup4\n        /* \"BalanceVerifier.sol\":2022:2039  proof.userAddress */\n      0x60\n      add\n      mload\n        /* \"BalanceVerifier.sol\":2022:2053  proof.userAddress != address(0) */\n      0xffffffffffffffffffffffffffffffffffffffff\n      and\n      eq\n      iszero\n        /* \"BalanceVerifier.sol\":2014:2078  require(proof.userAddress != address(0), \"Invalid user address\") */\n      tag_42\n      jumpi\n      mload(0x40)\n      0x08c379a000000000000000000000000000000000000000000000000000000000\n      dup2\n      mstore\n      0x04\n      add\n      tag_43\n      swap1\n      tag_44\n      jump\t// in\n    tag_43:\n      mload(0x40)\n      dup1\n      swap2\n      sub\n      swap1\n      revert\n    tag_42:\n        /* \"BalanceVerifier.sol\":2122:2123  0 */\n      0x00\n        /* \"BalanceVerifier.sol\":2096:2101  proof */\n      dup4\n        /* \"BalanceVerifier.sol\":2096:2112  proof.proofBytes */\n      0x40\n      add\n      mload\n        /* \"BalanceVerifier.sol\":2096:2119  proof.proofBytes.length */\n      mload\n        /* \"BalanceVerifier.sol\":2096:2123  proof.proofBytes.length > 0 */\n      gt\n        /* \"BalanceVerifier.sol\":2088:2139  require(proof.proofBytes.length > 0, \"Empty proof\") */\n      tag_45\n      jumpi\n      mload(0x40)\n      0x08c379a000000000000000000000000000000000000000000000000000000000\n      dup2\n      mstore\n      0x04\n      add\n      tag_46\n      swap1\n      tag_47\n      jump\t// in\n    tag_46:\n      mload(0x40)\n      dup1\n      swap2\n      sub\n      swap1\n      revert\n    tag_45:\n        /* \"BalanceVerifier.sol\":2416:2428  bool isValid */\n      0x00\n        /* \"BalanceVerifier.sol\":2431:2457  _verifyBalanceProof(proof) */\n      tag_48\n        /* \"BalanceVerifier.sol\":2451:2456  proof */\n      dup5\n        /* \"BalanceVerifier.sol\":2431:2450  _verifyBalanceProof */\n      tag_49\n        /* \"BalanceVerifier.sol\":2431:2457  _verifyBalanceProof(proof) */\n      jump\t// in\n    tag_48:\n        /* \"BalanceVerifier.sol\":2416:2457  bool isValid = _verifyBalanceProof(proof) */\n      swap1\n      pop\n        /* \"BalanceVerifier.sol\":2480:2487  isValid */\n      dup1\n        /* \"BalanceVerifier.sol\":2476:2850  if (isValid) {... */\n      iszero\n      tag_50\n      jumpi\n        /* \"BalanceVerifier.sol\":2531:2535  true */\n      0x01\n        /* \"BalanceVerifier.sol\":2503:2517  verifiedProofs */\n      0x00\n        /* \"BalanceVerifier.sol\":2503:2528  verifiedProofs[proofHash] */\n      dup1\n        /* \"BalanceVerifier.sol\":2518:2527  proofHash */\n      dup5\n        /* \"BalanceVerifier.sol\":2503:2528  verifiedProofs[proofHash] */\n      dup2\n      mstore\n      0x20\n      add\n      swap1\n      dup2\n      mstore\n      0x20\n      add\n      0x00\n      keccak256\n      0x00\n        /* \"BalanceVerifier.sol\":2503:2535  verifiedProofs[proofHash] = true */\n      0x0100\n      exp\n      dup2\n      sload\n      dup2\n      0xff\n      mul\n      not\n      and\n      swap1\n      dup4\n      iszero\n      iszero\n      mul\n      or\n      swap1\n      sstore\n      pop\n        /* \"BalanceVerifier.sol\":2612:2617  proof */\n      dup4\n        /* \"BalanceVerifier.sol\":2612:2629  proof.userAddress */\n      0x60\n      add\n      mload\n        /* \"BalanceVerifier.sol\":2554:2711  ProofVerified(... */\n      0xffffffffffffffffffffffffffffffffffffffff\n      and\n        /* \"BalanceVerifier.sol\":2585:2594  proofHash */\n      dup3\n        /* \"BalanceVerifier.sol\":2554:2711  ProofVerified(... */\n      0xe73884e97d63919fabc5b496091937beb2440780d29b1f6f545fd55a875effd6\n        /* \"BalanceVerifier.sol\":2647:2652  proof */\n      dup7\n        /* \"BalanceVerifier.sol\":2647:2659  proof.amount */\n      0x00\n      add\n      mload\n        /* \"BalanceVerifier.sol\":2677:2682  proof */\n      dup8\n        /* \"BalanceVerifier.sol\":2677:2697  proof.commitmentHash */\n      0x20\n      add\n      mload\n        /* \"BalanceVerifier.sol\":2554:2711  ProofVerified(... */\n      mload(0x40)\n      tag_51\n      swap3\n      swap2\n      swap1\n      tag_52\n      jump\t// in\n    tag_51:\n      mload(0x40)\n      dup1\n      swap2\n      sub\n      swap1\n      log3\n        /* \"BalanceVerifier.sol\":2732:2736  true */\n      0x01\n        /* \"BalanceVerifier.sol\":2725:2736  return true */\n      swap3\n      pop\n      pop\n      pop\n      jump(tag_33)\n        /* \"BalanceVerifier.sol\":2476:2850  if (isValid) {... */\n    tag_50:\n        /* \"BalanceVerifier.sol\":2786:2795  proofHash */\n      dup2\n        /* \"BalanceVerifier.sol\":2772:2813  ProofRejected(proofHash, \"Invalid proof\") */\n      0x6d00d60149975f22699f47ddb8a115b5ca6a019d7d14102a8da7b14085e70bea\n      mload(0x40)\n      tag_54\n      swap1\n      tag_55\n      jump\t// in\n    tag_54:\n      mload(0x40)\n      dup1\n      swap2\n      sub\n      swap1\n      log2\n        /* \"BalanceVerifier.sol\":2834:2839  false */\n      0x00\n        /* \"BalanceVerifier.sol\":2827:2839  return false */\n      swap3\n      pop\n      pop\n      pop\n        /* \"BalanceVerifier.sol\":1418:2856  function verifyProof(BalanceProof memory proof)... */\n    tag_33:\n      swap2\n      swap1\n      pop\n      jump\t// out\n        /* \"BalanceVerifier.sol\":4377:4672  function getProofHash(BalanceProof memory proof) ... */\n    tag_25:\n        /* \"BalanceVerifier.sol\":4476:4483  bytes32 */\n      0x00\n        /* \"BalanceVerifier.sol\":4547:4552  proof */\n      dup2\n        /* \"BalanceVerifier.sol\":4547:4559  proof.amount */\n      0x00\n      add\n      mload\n        /* \"BalanceVerifier.sol\":4573:4578  proof */\n      dup3\n        /* \"BalanceVerifier.sol\":4573:4593  proof.commitmentHash */\n      0x20\n      add\n      mload\n        /* \"BalanceVerifier.sol\":4607:4612  proof */\n      dup4\n        /* \"BalanceVerifier.sol\":4607:4623  proof.proofBytes */\n      0x40\n      add\n      mload\n        /* \"BalanceVerifier.sol\":4637:4642  proof */\n      dup5\n        /* \"BalanceVerifier.sol\":4637:4654  proof.userAddress */\n      0x60\n      add\n      mload\n        /* \"BalanceVerifier.sol\":4517:4664  abi.encodePacked(... */\n      add(0x20, mload(0x40))\n      tag_57\n      swap5\n      swap4\n      swap3\n      swap2\n      swap1\n      tag_35\n      jump\t// in\n    tag_57:\n      mload(0x40)\n      0x20\n      dup2\n      dup4\n      sub\n      sub\n      dup2\n      mstore\n      swap1\n      0x40\n      mstore\n        /* \"BalanceVerifier.sol\":4507:4665  keccak256(abi.encodePacked(... */\n      dup1\n      mload\n      swap1\n      0x20\n      add\n      keccak256\n        /* \"BalanceVerifier.sol\":4500:4665  return keccak256(abi.encodePacked(... */\n      swap1\n      pop\n        /* \"BalanceVerifier.sol\":4377:4672  function getProofHash(BalanceProof memory proof) ... */\n      swap2\n      swap1\n      pop\n      jump\t// out\n        /* \"BalanceVerifier.sol\":1080:1100  address public owner */\n    tag_29:\n      0x01\n      0x00\n      swap1\n      sload\n      swap1\n      0x0100\n      exp\n      swap1\n      div\n      0xffffffffffffffffffffffffffffffffffffffff\n      and\n      dup2\n      jump\t// out\n        /* \"BalanceVerifier.sol\":3096:3942  function _verifyBalanceProof(BalanceProof memory proof) ... */\n    tag_49:\n        /* \"BalanceVerifier.sol\":3202:3214  bool isValid */\n      0x00\n        /* \"BalanceVerifier.sol\":3343:3345  32 */\n      0x20\n        /* \"BalanceVerifier.sol\":3317:3322  proof */\n      dup3\n        /* \"BalanceVerifier.sol\":3317:3333  proof.proofBytes */\n      0x40\n      add\n      mload\n        /* \"BalanceVerifier.sol\":3317:3340  proof.proofBytes.length */\n      mload\n        /* \"BalanceVerifier.sol\":3317:3345  proof.proofBytes.length < 32 */\n      lt\n        /* \"BalanceVerifier.sol\":3313:3384  if (proof.proofBytes.length < 32) {... */\n      iszero\n      tag_59\n      jumpi\n        /* \"BalanceVerifier.sol\":3368:3373  false */\n      0x00\n        /* \"BalanceVerifier.sol\":3361:3373  return false */\n      swap1\n      pop\n      jump(tag_58)\n        /* \"BalanceVerifier.sol\":3313:3384  if (proof.proofBytes.length < 32) {... */\n    tag_59:\n        /* \"BalanceVerifier.sol\":3482:3483  0 */\n      0x00\n        /* \"BalanceVerifier.sol\":3474:3484  bytes32(0) */\n      dup1\n      shl\n        /* \"BalanceVerifier.sol\":3450:3455  proof */\n      dup3\n        /* \"BalanceVerifier.sol\":3450:3470  proof.commitmentHash */\n      0x20\n      add\n      mload\n        /* \"BalanceVerifier.sol\":3450:3484  proof.commitmentHash == bytes32(0) */\n      eq\n        /* \"BalanceVerifier.sol\":3446:3523  if (proof.commitmentHash == bytes32(0)) {... */\n      iszero\n      tag_60\n      jumpi\n        /* \"BalanceVerifier.sol\":3507:3512  false */\n      0x00\n        /* \"BalanceVerifier.sol\":3500:3512  return false */\n      swap1\n      pop\n      jump(tag_58)\n        /* \"BalanceVerifier.sol\":3446:3523  if (proof.commitmentHash == bytes32(0)) {... */\n    tag_60:\n        /* \"BalanceVerifier.sol\":3931:3935  true */\n      0x01\n        /* \"BalanceVerifier.sol\":3924:3935  return true */\n      swap1\n      pop\n        /* \"BalanceVerifier.sol\":3096:3942  function _verifyBalanceProof(BalanceProof memory proof) ... */\n    tag_58:\n      swap2\n      swap1\n      pop\n      jump\t// out\n        /* \"#utility.yul\":7:82   */\n    tag_61:\n        /* \"#utility.yul\":40:46   */\n      0x00\n        /* \"#utility.yul\":73:75   */\n      0x40\n        /* \"#utility.yul\":67:76   */\n      mload\n        /* \"#utility.yul\":57:76   */\n      swap1\n      pop\n        /* \"#utility.yul\":7:82   */\n      swap1\n      jump\t// out\n        /* \"#utility.yul\":88:205   */\n    tag_62:\n        /* \"#utility.yul\":197:198   */\n      0x00\n        /* \"#utility.yul\":194:195   */\n      dup1\n        /* \"#utility.yul\":187:199   */\n      revert\n        /* \"#utility.yul\":211:328   */\n    tag_63:\n        /* \"#utility.yul\":320:321   */\n      0x00\n        /* \"#utility.yul\":317:318   */\n      dup1\n        /* \"#utility.yul\":310:322   */\n      revert\n        /* \"#utility.yul\":334:411   */\n    tag_64:\n        /* \"#utility.yul\":371:378   */\n      0x00\n        /* \"#utility.yul\":400:405   */\n      dup2\n        /* \"#utility.yul\":389:405   */\n      swap1\n      pop\n        /* \"#utility.yul\":334:411   */\n      swap2\n      swap1\n      pop\n      jump\t// out\n        /* \"#utility.yul\":417:539   */\n    tag_65:\n        /* \"#utility.yul\":490:514   */\n      tag_121\n        /* \"#utility.yul\":508:513   */\n      dup2\n        /* \"#utility.yul\":490:514   */\n      tag_64\n      jump\t// in\n    tag_121:\n        /* \"#utility.yul\":483:488   */\n      dup2\n        /* \"#utility.yul\":480:515   */\n      eq\n        /* \"#utility.yul\":470:533   */\n      tag_122\n      jumpi\n        /* \"#utility.yul\":529:530   */\n      0x00\n        /* \"#utility.yul\":526:527   */\n      dup1\n        /* \"#utility.yul\":519:531   */\n      revert\n        /* \"#utility.yul\":470:533   */\n    tag_122:\n        /* \"#utility.yul\":417:539   */\n      pop\n      jump\t// out\n        /* \"#utility.yul\":545:684   */\n    tag_66:\n        /* \"#utility.yul\":591:596   */\n      0x00\n        /* \"#utility.yul\":629:635   */\n      dup2\n        /* \"#utility.yul\":616:636   */\n      calldataload\n        /* \"#utility.yul\":607:636   */\n      swap1\n      pop\n        /* \"#utility.yul\":645:678   */\n      tag_124\n        /* \"#utility.yul\":672:677   */\n      dup2\n        /* \"#utility.yul\":645:678   */\n      tag_65\n      jump\t// in\n    tag_124:\n        /* \"#utility.yul\":545:684   */\n      swap3\n      swap2\n      pop\n      pop\n      jump\t// out\n        /* \"#utility.yul\":690:1019   */\n    tag_10:\n        /* \"#utility.yul\":749:755   */\n      0x00\n        /* \"#utility.yul\":798:800   */\n      0x20\n        /* \"#utility.yul\":786:795   */\n      dup3\n        /* \"#utility.yul\":777:784   */\n      dup5\n        /* \"#utility.yul\":773:796   */\n      sub\n        /* \"#utility.yul\":769:801   */\n      slt\n        /* \"#utility.yul\":766:885   */\n      iszero\n      tag_126\n      jumpi\n        /* \"#utility.yul\":804:883   */\n      tag_127\n      tag_62\n      jump\t// in\n    tag_127:\n        /* \"#utility.yul\":766:885   */\n    tag_126:\n        /* \"#utility.yul\":924:925   */\n      0x00\n        /* \"#utility.yul\":949:1002   */\n      tag_128\n        /* \"#utility.yul\":994:1001   */\n      dup5\n        /* \"#utility.yul\":985:991   */\n      dup3\n        /* \"#utility.yul\":974:983   */\n      dup6\n        /* \"#utility.yul\":970:992   */\n      add\n        /* \"#utility.yul\":949:1002   */\n      tag_66\n      jump\t// in\n    tag_128:\n        /* \"#utility.yul\":939:1002   */\n      swap2\n      pop\n        /* \"#utility.yul\":895:1012   */\n      pop\n        /* \"#utility.yul\":690:1019   */\n      swap3\n      swap2\n      pop\n      pop\n      jump\t// out\n        /* \"#utility.yul\":1025:1115   */\n    tag_67:\n        /* \"#utility.yul\":1059:1066   */\n      0x00\n        /* \"#utility.yul\":1102:1107   */\n      dup2\n        /* \"#utility.yul\":1095:1108   */\n      iszero\n        /* \"#utility.yul\":1088:1109   */\n      iszero\n        /* \"#utility.yul\":1077:1109   */\n      swap1\n      pop\n        /* \"#utility.yul\":1025:1115   */\n      swap2\n      swap1\n      pop\n      jump\t// out\n        /* \"#utility.yul\":1121:1230   */\n    tag_68:\n        /* \"#utility.yul\":1202:1223   */\n      tag_131\n        /* \"#utility.yul\":1217:1222   */\n      dup2\n        /* \"#utility.yul\":1202:1223   */\n      tag_67\n      jump\t// in\n    tag_131:\n        /* \"#utility.yul\":1197:1200   */\n      dup3\n        /* \"#utility.yul\":1190:1224   */\n      mstore\n        /* \"#utility.yul\":1121:1230   */\n      pop\n      pop\n      jump\t// out\n        /* \"#utility.yul\":1236:1446   */\n    tag_13:\n        /* \"#utility.yul\":1323:1327   */\n      0x00\n        /* \"#utility.yul\":1361:1363   */\n      0x20\n        /* \"#utility.yul\":1350:1359   */\n      dup3\n        /* \"#utility.yul\":1346:1364   */\n      add\n        /* \"#utility.yul\":1338:1364   */\n      swap1\n      pop\n        /* \"#utility.yul\":1374:1439   */\n      tag_133\n        /* \"#utility.yul\":1436:1437   */\n      0x00\n        /* \"#utility.yul\":1425:1434   */\n      dup4\n        /* \"#utility.yul\":1421:1438   */\n      add\n        /* \"#utility.yul\":1412:1418   */\n      dup5\n        /* \"#utility.yul\":1374:1439   */\n      tag_68\n      jump\t// in\n    tag_133:\n        /* \"#utility.yul\":1236:1446   */\n      swap3\n      swap2\n      pop\n      pop\n      jump\t// out\n        /* \"#utility.yul\":1452:1569   */\n    tag_69:\n        /* \"#utility.yul\":1561:1562   */\n      0x00\n        /* \"#utility.yul\":1558:1559   */\n      dup1\n        /* \"#utility.yul\":1551:1563   */\n      revert\n        /* \"#utility.yul\":1575:1677   */\n    tag_70:\n        /* \"#utility.yul\":1616:1622   */\n      0x00\n        /* \"#utility.yul\":1667:1669   */\n      0x1f\n        /* \"#utility.yul\":1663:1670   */\n      not\n        /* \"#utility.yul\":1658:1660   */\n      0x1f\n        /* \"#utility.yul\":1651:1656   */\n      dup4\n        /* \"#utility.yul\":1647:1661   */\n      add\n        /* \"#utility.yul\":1643:1671   */\n      and\n        /* \"#utility.yul\":1633:1671   */\n      swap1\n      pop\n        /* \"#utility.yul\":1575:1677   */\n      swap2\n      swap1\n      pop\n      jump\t// out\n        /* \"#utility.yul\":1683:1863   */\n    tag_71:\n        /* \"#utility.yul\":1731:1808   */\n      0x4e487b7100000000000000000000000000000000000000000000000000000000\n        /* \"#utility.yul\":1728:1729   */\n      0x00\n        /* \"#utility.yul\":1721:1809   */\n      mstore\n        /* \"#utility.yul\":1828:1832   */\n      0x41\n        /* \"#utility.yul\":1825:1826   */\n      0x04\n        /* \"#utility.yul\":1818:1833   */\n      mstore\n        /* \"#utility.yul\":1852:1856   */\n      0x24\n        /* \"#utility.yul\":1849:1850   */\n      0x00\n        /* \"#utility.yul\":1842:1857   */\n      revert\n        /* \"#utility.yul\":1869:2150   */\n    tag_72:\n        /* \"#utility.yul\":1952:1979   */\n      tag_138\n        /* \"#utility.yul\":1974:1978   */\n      dup3\n        /* \"#utility.yul\":1952:1979   */\n      tag_70\n      jump\t// in\n    tag_138:\n        /* \"#utility.yul\":1944:1950   */\n      dup2\n        /* \"#utility.yul\":1940:1980   */\n      add\n        /* \"#utility.yul\":2082:2088   */\n      dup2\n        /* \"#utility.yul\":2070:2080   */\n      dup2\n        /* \"#utility.yul\":2067:2089   */\n      lt\n        /* \"#utility.yul\":2046:2064   */\n      0xffffffffffffffff\n        /* \"#utility.yul\":2034:2044   */\n      dup3\n        /* \"#utility.yul\":2031:2065   */\n      gt\n        /* \"#utility.yul\":2028:2090   */\n      or\n        /* \"#utility.yul\":2025:2113   */\n      iszero\n      tag_139\n      jumpi\n        /* \"#utility.yul\":2093:2111   */\n      tag_140\n      tag_71\n      jump\t// in\n    tag_140:\n        /* \"#utility.yul\":2025:2113   */\n    tag_139:\n        /* \"#utility.yul\":2133:2143   */\n      dup1\n        /* \"#utility.yul\":2129:2131   */\n      0x40\n        /* \"#utility.yul\":2122:2144   */\n      mstore\n        /* \"#utility.yul\":1912:2150   */\n      pop\n        /* \"#utility.yul\":1869:2150   */\n      pop\n      pop\n      jump\t// out\n        /* \"#utility.yul\":2156:2285   */\n    tag_73:\n        /* \"#utility.yul\":2190:2196   */\n      0x00\n        /* \"#utility.yul\":2217:2237   */\n      tag_142\n      tag_61\n      jump\t// in\n    tag_142:\n        /* \"#utility.yul\":2207:2237   */\n      swap1\n      pop\n        /* \"#utility.yul\":2246:2279   */\n      tag_143\n        /* \"#utility.yul\":2274:2278   */\n      dup3\n        /* \"#utility.yul\":2266:2272   */\n      dup3\n        /* \"#utility.yul\":2246:2279   */\n      tag_72\n      jump\t// in\n    tag_143:\n        /* \"#utility.yul\":2156:2285   */\n      swap2\n      swap1\n      pop\n      jump\t// out\n        /* \"#utility.yul\":2291:2408   */\n    tag_74:\n        /* \"#utility.yul\":2400:2401   */\n      0x00\n        /* \"#utility.yul\":2397:2398   */\n      dup1\n        /* \"#utility.yul\":2390:2402   */\n      revert\n        /* \"#utility.yul\":2414:2491   */\n    tag_75:\n        /* \"#utility.yul\":2451:2458   */\n      0x00\n        /* \"#utility.yul\":2480:2485   */\n      dup2\n        /* \"#utility.yul\":2469:2485   */\n      swap1\n      pop\n        /* \"#utility.yul\":2414:2491   */\n      swap2\n      swap1\n      pop\n      jump\t// out\n        /* \"#utility.yul\":2497:2619   */\n    tag_76:\n        /* \"#utility.yul\":2570:2594   */\n      tag_147\n        /* \"#utility.yul\":2588:2593   */\n      dup2\n        /* \"#utility.yul\":2570:2594   */\n      tag_75\n      jump\t// in\n    tag_147:\n        /* \"#utility.yul\":2563:2568   */\n      dup2\n        /* \"#utility.yul\":2560:2595   */\n      eq\n        /* \"#utility.yul\":2550:2613   */\n      tag_148\n      jumpi\n        /* \"#utility.yul\":2609:2610   */\n      0x00\n        /* \"#utility.yul\":2606:2607   */\n      dup1\n        /* \"#utility.yul\":2599:2611   */\n      revert\n        /* \"#utility.yul\":2550:2613   */\n    tag_148:\n        /* \"#utility.yul\":2497:2619   */\n      pop\n      jump\t// out\n        /* \"#utility.yul\":2625:2764   */\n    tag_77:\n        /* \"#utility.yul\":2671:2676   */\n      0x00\n        /* \"#utility.yul\":2709:2715   */\n      dup2\n        /* \"#utility.yul\":2696:2716   */\n      calldataload\n        /* \"#utility.yul\":2687:2716   */\n      swap1\n      pop\n        /* \"#utility.yul\":2725:2758   */\n      tag_150\n        /* \"#utility.yul\":2752:2757   */\n      dup2\n        /* \"#utility.yul\":2725:2758   */\n      tag_76\n      jump\t// in\n    tag_150:\n        /* \"#utility.yul\":2625:2764   */\n      swap3\n      swap2\n      pop\n      pop\n      jump\t// out\n        /* \"#utility.yul\":2770:2887   */\n    tag_78:\n        /* \"#utility.yul\":2879:2880   */\n      0x00\n        /* \"#utility.yul\":2876:2877   */\n      dup1\n        /* \"#utility.yul\":2869:2881   */\n      revert\n        /* \"#utility.yul\":2893:3010   */\n    tag_79:\n        /* \"#utility.yul\":3002:3003   */\n      0x00\n        /* \"#utility.yul\":2999:3000   */\n      dup1\n        /* \"#utility.yul\":2992:3004   */\n      revert\n        /* \"#utility.yul\":3016:3323   */\n    tag_80:\n        /* \"#utility.yul\":3077:3081   */\n      0x00\n        /* \"#utility.yul\":3167:3185   */\n      0xffffffffffffffff\n        /* \"#utility.yul\":3159:3165   */\n      dup3\n        /* \"#utility.yul\":3156:3186   */\n      gt\n        /* \"#utility.yul\":3153:3209   */\n      iszero\n      tag_154\n      jumpi\n        /* \"#utility.yul\":3189:3207   */\n      tag_155\n      tag_71\n      jump\t// in\n    tag_155:\n        /* \"#utility.yul\":3153:3209   */\n    tag_154:\n        /* \"#utility.yul\":3227:3256   */\n      tag_156\n        /* \"#utility.yul\":3249:3255   */\n      dup3\n        /* \"#utility.yul\":3227:3256   */\n      tag_70\n      jump\t// in\n    tag_156:\n        /* \"#utility.yul\":3219:3256   */\n      swap1\n      pop\n        /* \"#utility.yul\":3311:3315   */\n      0x20\n        /* \"#utility.yul\":3305:3309   */\n      dup2\n        /* \"#utility.yul\":3301:3316   */\n      add\n        /* \"#utility.yul\":3293:3316   */\n      swap1\n      pop\n        /* \"#utility.yul\":3016:3323   */\n      swap2\n      swap1\n      pop\n      jump\t// out\n        /* \"#utility.yul\":3329:3483   */\n    tag_81:\n        /* \"#utility.yul\":3413:3419   */\n      dup3\n        /* \"#utility.yul\":3408:3411   */\n      dup2\n        /* \"#utility.yul\":3403:3406   */\n      dup4\n        /* \"#utility.yul\":3390:3420   */\n      calldatacopy\n        /* \"#utility.yul\":3475:3476   */\n      0x00\n        /* \"#utility.yul\":3466:3472   */\n      dup4\n        /* \"#utility.yul\":3461:3464   */\n      dup4\n        /* \"#utility.yul\":3457:3473   */\n      add\n        /* \"#utility.yul\":3450:3477   */\n      mstore\n        /* \"#utility.yul\":3329:3483   */\n      pop\n      pop\n      pop\n      jump\t// out\n        /* \"#utility.yul\":3489:3899   */\n    tag_82:\n        /* \"#utility.yul\":3566:3571   */\n      0x00\n        /* \"#utility.yul\":3591:3656   */\n      tag_159\n        /* \"#utility.yul\":3607:3655   */\n      tag_160\n        /* \"#utility.yul\":3648:3654   */\n      dup5\n        /* \"#utility.yul\":3607:3655   */\n      tag_80\n      jump\t// in\n    tag_160:\n        /* \"#utility.yul\":3591:3656   */\n      tag_73\n      jump\t// in\n    tag_159:\n        /* \"#utility.yul\":3582:3656   */\n      swap1\n      pop\n        /* \"#utility.yul\":3679:3685   */\n      dup3\n        /* \"#utility.yul\":3672:3677   */\n      dup2\n        /* \"#utility.yul\":3665:3686   */\n      mstore\n        /* \"#utility.yul\":3717:3721   */\n      0x20\n        /* \"#utility.yul\":3710:3715   */\n      dup2\n        /* \"#utility.yul\":3706:3722   */\n      add\n        /* \"#utility.yul\":3755:3758   */\n      dup5\n        /* \"#utility.yul\":3746:3752   */\n      dup5\n        /* \"#utility.yul\":3741:3744   */\n      dup5\n        /* \"#utility.yul\":3737:3753   */\n      add\n        /* \"#utility.yul\":3734:3759   */\n      gt\n        /* \"#utility.yul\":3731:3843   */\n      iszero\n      tag_161\n      jumpi\n        /* \"#utility.yul\":3762:3841   */\n      tag_162\n      tag_79\n      jump\t// in\n    tag_162:\n        /* \"#utility.yul\":3731:3843   */\n    tag_161:\n        /* \"#utility.yul\":3852:3893   */\n      tag_163\n        /* \"#utility.yul\":3886:3892   */\n      dup5\n        /* \"#utility.yul\":3881:3884   */\n      dup3\n        /* \"#utility.yul\":3876:3879   */\n      dup6\n        /* \"#utility.yul\":3852:3893   */\n      tag_81\n      jump\t// in\n    tag_163:\n        /* \"#utility.yul\":3572:3899   */\n      pop\n        /* \"#utility.yul\":3489:3899   */\n      swap4\n      swap3\n      pop\n      pop\n      pop\n      jump\t// out\n        /* \"#utility.yul\":3918:4256   */\n    tag_83:\n        /* \"#utility.yul\":3973:3978   */\n      0x00\n        /* \"#utility.yul\":4022:4025   */\n      dup3\n        /* \"#utility.yul\":4015:4019   */\n      0x1f\n        /* \"#utility.yul\":4007:4013   */\n      dup4\n        /* \"#utility.yul\":4003:4020   */\n      add\n        /* \"#utility.yul\":3999:4026   */\n      slt\n        /* \"#utility.yul\":3989:4111   */\n      tag_165\n      jumpi\n        /* \"#utility.yul\":4030:4109   */\n      tag_166\n      tag_78\n      jump\t// in\n    tag_166:\n        /* \"#utility.yul\":3989:4111   */\n    tag_165:\n        /* \"#utility.yul\":4147:4153   */\n      dup2\n        /* \"#utility.yul\":4134:4154   */\n      calldataload\n        /* \"#utility.yul\":4172:4250   */\n      tag_167\n        /* \"#utility.yul\":4246:4249   */\n      dup5\n        /* \"#utility.yul\":4238:4244   */\n      dup3\n        /* \"#utility.yul\":4231:4235   */\n      0x20\n        /* \"#utility.yul\":4223:4229   */\n      dup7\n        /* \"#utility.yul\":4219:4236   */\n      add\n        /* \"#utility.yul\":4172:4250   */\n      tag_82\n      jump\t// in\n    tag_167:\n        /* \"#utility.yul\":4163:4250   */\n      swap2\n      pop\n        /* \"#utility.yul\":3979:4256   */\n      pop\n        /* \"#utility.yul\":3918:4256   */\n      swap3\n      swap2\n      pop\n      pop\n      jump\t// out\n        /* \"#utility.yul\":4262:4388   */\n    tag_84:\n        /* \"#utility.yul\":4299:4306   */\n      0x00\n        /* \"#utility.yul\":4339:4381   */\n      0xffffffffffffffffffffffffffffffffffffffff\n        /* \"#utility.yul\":4332:4337   */\n      dup3\n        /* \"#utility.yul\":4328:4382   */\n      and\n        /* \"#utility.yul\":4317:4382   */\n      swap1\n      pop\n        /* \"#utility.yul\":4262:4388   */\n      swap2\n      swap1\n      pop\n      jump\t// out\n        /* \"#utility.yul\":4394:4490   */\n    tag_85:\n        /* \"#utility.yul\":4431:4438   */\n      0x00\n        /* \"#utility.yul\":4460:4484   */\n      tag_170\n        /* \"#utility.yul\":4478:4483   */\n      dup3\n        /* \"#utility.yul\":4460:4484   */\n      tag_84\n      jump\t// in\n    tag_170:\n        /* \"#utility.yul\":4449:4484   */\n      swap1\n      pop\n        /* \"#utility.yul\":4394:4490   */\n      swap2\n      swap1\n      pop\n      jump\t// out\n        /* \"#utility.yul\":4496:4618   */\n    tag_86:\n        /* \"#utility.yul\":4569:4593   */\n      tag_172\n        /* \"#utility.yul\":4587:4592   */\n      dup2\n        /* \"#utility.yul\":4569:4593   */\n      tag_85\n      jump\t// in\n    tag_172:\n        /* \"#utility.yul\":4562:4567   */\n      dup2\n        /* \"#utility.yul\":4559:4594   */\n      eq\n        /* \"#utility.yul\":4549:4612   */\n      tag_173\n      jumpi\n        /* \"#utility.yul\":4608:4609   */\n      0x00\n        /* \"#utility.yul\":4605:4606   */\n      dup1\n        /* \"#utility.yul\":4598:4610   */\n      revert\n        /* \"#utility.yul\":4549:4612   */\n    tag_173:\n        /* \"#utility.yul\":4496:4618   */\n      pop\n      jump\t// out\n        /* \"#utility.yul\":4624:4763   */\n    tag_87:\n        /* \"#utility.yul\":4670:4675   */\n      0x00\n        /* \"#utility.yul\":4708:4714   */\n      dup2\n        /* \"#utility.yul\":4695:4715   */\n      calldataload\n        /* \"#utility.yul\":4686:4715   */\n      swap1\n      pop\n        /* \"#utility.yul\":4724:4757   */\n      tag_175\n        /* \"#utility.yul\":4751:4756   */\n      dup2\n        /* \"#utility.yul\":4724:4757   */\n      tag_86\n      jump\t// in\n    tag_175:\n        /* \"#utility.yul\":4624:4763   */\n      swap3\n      swap2\n      pop\n      pop\n      jump\t// out\n        /* \"#utility.yul\":4812:5905   */\n    tag_88:\n        /* \"#utility.yul\":4889:4894   */\n      0x00\n        /* \"#utility.yul\":4933:4937   */\n      0x80\n        /* \"#utility.yul\":4921:4930   */\n      dup3\n        /* \"#utility.yul\":4916:4919   */\n      dup5\n        /* \"#utility.yul\":4912:4931   */\n      sub\n        /* \"#utility.yul\":4908:4938   */\n      slt\n        /* \"#utility.yul\":4905:5022   */\n      iszero\n      tag_177\n      jumpi\n        /* \"#utility.yul\":4941:5020   */\n      tag_178\n      tag_69\n      jump\t// in\n    tag_178:\n        /* \"#utility.yul\":4905:5022   */\n    tag_177:\n        /* \"#utility.yul\":5040:5061   */\n      tag_179\n        /* \"#utility.yul\":5056:5060   */\n      0x80\n        /* \"#utility.yul\":5040:5061   */\n      tag_73\n      jump\t// in\n    tag_179:\n        /* \"#utility.yul\":5031:5061   */\n      swap1\n      pop\n        /* \"#utility.yul\":5122:5123   */\n      0x00\n        /* \"#utility.yul\":5162:5211   */\n      tag_180\n        /* \"#utility.yul\":5207:5210   */\n      dup5\n        /* \"#utility.yul\":5198:5204   */\n      dup3\n        /* \"#utility.yul\":5187:5196   */\n      dup6\n        /* \"#utility.yul\":5183:5205   */\n      add\n        /* \"#utility.yul\":5162:5211   */\n      tag_77\n      jump\t// in\n    tag_180:\n        /* \"#utility.yul\":5155:5159   */\n      0x00\n        /* \"#utility.yul\":5148:5153   */\n      dup4\n        /* \"#utility.yul\":5144:5160   */\n      add\n        /* \"#utility.yul\":5137:5212   */\n      mstore\n        /* \"#utility.yul\":5071:5223   */\n      pop\n        /* \"#utility.yul\":5292:5294   */\n      0x20\n        /* \"#utility.yul\":5333:5382   */\n      tag_181\n        /* \"#utility.yul\":5378:5381   */\n      dup5\n        /* \"#utility.yul\":5369:5375   */\n      dup3\n        /* \"#utility.yul\":5358:5367   */\n      dup6\n        /* \"#utility.yul\":5354:5376   */\n      add\n        /* \"#utility.yul\":5333:5382   */\n      tag_66\n      jump\t// in\n    tag_181:\n        /* \"#utility.yul\":5326:5330   */\n      0x20\n        /* \"#utility.yul\":5319:5324   */\n      dup4\n        /* \"#utility.yul\":5315:5331   */\n      add\n        /* \"#utility.yul\":5308:5383   */\n      mstore\n        /* \"#utility.yul\":5233:5394   */\n      pop\n        /* \"#utility.yul\":5487:5489   */\n      0x40\n        /* \"#utility.yul\":5476:5485   */\n      dup3\n        /* \"#utility.yul\":5472:5490   */\n      add\n        /* \"#utility.yul\":5459:5491   */\n      calldataload\n        /* \"#utility.yul\":5518:5536   */\n      0xffffffffffffffff\n        /* \"#utility.yul\":5510:5516   */\n      dup2\n        /* \"#utility.yul\":5507:5537   */\n      gt\n        /* \"#utility.yul\":5504:5621   */\n      iszero\n      tag_182\n      jumpi\n        /* \"#utility.yul\":5540:5619   */\n      tag_183\n      tag_74\n      jump\t// in\n    tag_183:\n        /* \"#utility.yul\":5504:5621   */\n    tag_182:\n        /* \"#utility.yul\":5660:5718   */\n      tag_184\n        /* \"#utility.yul\":5714:5717   */\n      dup5\n        /* \"#utility.yul\":5705:5711   */\n      dup3\n        /* \"#utility.yul\":5694:5703   */\n      dup6\n        /* \"#utility.yul\":5690:5712   */\n      add\n        /* \"#utility.yul\":5660:5718   */\n      tag_83\n      jump\t// in\n    tag_184:\n        /* \"#utility.yul\":5653:5657   */\n      0x40\n        /* \"#utility.yul\":5646:5651   */\n      dup4\n        /* \"#utility.yul\":5642:5658   */\n      add\n        /* \"#utility.yul\":5635:5719   */\n      mstore\n        /* \"#utility.yul\":5404:5730   */\n      pop\n        /* \"#utility.yul\":5796:5798   */\n      0x60\n        /* \"#utility.yul\":5837:5886   */\n      tag_185\n        /* \"#utility.yul\":5882:5885   */\n      dup5\n        /* \"#utility.yul\":5873:5879   */\n      dup3\n        /* \"#utility.yul\":5862:5871   */\n      dup6\n        /* \"#utility.yul\":5858:5880   */\n      add\n        /* \"#utility.yul\":5837:5886   */\n      tag_87\n      jump\t// in\n    tag_185:\n        /* \"#utility.yul\":5830:5834   */\n      0x60\n        /* \"#utility.yul\":5823:5828   */\n      dup4\n        /* \"#utility.yul\":5819:5835   */\n      add\n        /* \"#utility.yul\":5812:5887   */\n      mstore\n        /* \"#utility.yul\":5740:5898   */\n      pop\n        /* \"#utility.yul\":4812:5905   */\n      swap3\n      swap2\n      pop\n      pop\n      jump\t// out\n        /* \"#utility.yul\":5911:6456   */\n    tag_20:\n        /* \"#utility.yul\":5998:6004   */\n      0x00\n        /* \"#utility.yul\":6047:6049   */\n      0x20\n        /* \"#utility.yul\":6035:6044   */\n      dup3\n        /* \"#utility.yul\":6026:6033   */\n      dup5\n        /* \"#utility.yul\":6022:6045   */\n      sub\n        /* \"#utility.yul\":6018:6050   */\n      slt\n        /* \"#utility.yul\":6015:6134   */\n      iszero\n      tag_187\n      jumpi\n        /* \"#utility.yul\":6053:6132   */\n      tag_188\n      tag_62\n      jump\t// in\n    tag_188:\n        /* \"#utility.yul\":6015:6134   */\n    tag_187:\n        /* \"#utility.yul\":6201:6202   */\n      0x00\n        /* \"#utility.yul\":6190:6199   */\n      dup3\n        /* \"#utility.yul\":6186:6203   */\n      add\n        /* \"#utility.yul\":6173:6204   */\n      calldataload\n        /* \"#utility.yul\":6231:6249   */\n      0xffffffffffffffff\n        /* \"#utility.yul\":6223:6229   */\n      dup2\n        /* \"#utility.yul\":6220:6250   */\n      gt\n        /* \"#utility.yul\":6217:6334   */\n      iszero\n      tag_189\n      jumpi\n        /* \"#utility.yul\":6253:6332   */\n      tag_190\n      tag_63\n      jump\t// in\n    tag_190:\n        /* \"#utility.yul\":6217:6334   */\n    tag_189:\n        /* \"#utility.yul\":6358:6439   */\n      tag_191\n        /* \"#utility.yul\":6431:6438   */\n      dup5\n        /* \"#utility.yul\":6422:6428   */\n      dup3\n        /* \"#utility.yul\":6411:6420   */\n      dup6\n        /* \"#utility.yul\":6407:6429   */\n      add\n        /* \"#utility.yul\":6358:6439   */\n      tag_88\n      jump\t// in\n    tag_191:\n        /* \"#utility.yul\":6348:6439   */\n      swap2\n      pop\n        /* \"#utility.yul\":6144:6449   */\n      pop\n        /* \"#utility.yul\":5911:6456   */\n      swap3\n      swap2\n      pop\n      pop\n      jump\t// out\n        /* \"#utility.yul\":6462:6580   */\n    tag_89:\n        /* \"#utility.yul\":6549:6573   */\n      tag_193\n        /* \"#utility.yul\":6567:6572   */\n      dup2\n        /* \"#utility.yul\":6549:6573   */\n      tag_64\n      jump\t// in\n    tag_193:\n        /* \"#utility.yul\":6544:6547   */\n      dup3\n        /* \"#utility.yul\":6537:6574   */\n      mstore\n        /* \"#utility.yul\":6462:6580   */\n      pop\n      pop\n      jump\t// out\n        /* \"#utility.yul\":6586:6808   */\n    tag_27:\n        /* \"#utility.yul\":6679:6683   */\n      0x00\n        /* \"#utility.yul\":6717:6719   */\n      0x20\n        /* \"#utility.yul\":6706:6715   */\n      dup3\n        /* \"#utility.yul\":6702:6720   */\n      add\n        /* \"#utility.yul\":6694:6720   */\n      swap1\n      pop\n        /* \"#utility.yul\":6730:6801   */\n      tag_195\n        /* \"#utility.yul\":6798:6799   */\n      0x00\n        /* \"#utility.yul\":6787:6796   */\n      dup4\n        /* \"#utility.yul\":6783:6800   */\n      add\n        /* \"#utility.yul\":6774:6780   */\n      dup5\n        /* \"#utility.yul\":6730:6801   */\n      tag_89\n      jump\t// in\n    tag_195:\n        /* \"#utility.yul\":6586:6808   */\n      swap3\n      swap2\n      pop\n      pop\n      jump\t// out\n        /* \"#utility.yul\":6814:6932   */\n    tag_90:\n        /* \"#utility.yul\":6901:6925   */\n      tag_197\n        /* \"#utility.yul\":6919:6924   */\n      dup2\n        /* \"#utility.yul\":6901:6925   */\n      tag_85\n      jump\t// in\n    tag_197:\n        /* \"#utility.yul\":6896:6899   */\n      dup3\n        /* \"#utility.yul\":6889:6926   */\n      mstore\n        /* \"#utility.yul\":6814:6932   */\n      pop\n      pop\n      jump\t// out\n        /* \"#utility.yul\":6938:7160   */\n    tag_31:\n        /* \"#utility.yul\":7031:7035   */\n      0x00\n        /* \"#utility.yul\":7069:7071   */\n      0x20\n        /* \"#utility.yul\":7058:7067   */\n      dup3\n        /* \"#utility.yul\":7054:7072   */\n      add\n        /* \"#utility.yul\":7046:7072   */\n      swap1\n      pop\n        /* \"#utility.yul\":7082:7153   */\n      tag_199\n        /* \"#utility.yul\":7150:7151   */\n      0x00\n        /* \"#utility.yul\":7139:7148   */\n      dup4\n        /* \"#utility.yul\":7135:7152   */\n      add\n        /* \"#utility.yul\":7126:7132   */\n      dup5\n        /* \"#utility.yul\":7082:7153   */\n      tag_90\n      jump\t// in\n    tag_199:\n        /* \"#utility.yul\":6938:7160   */\n      swap3\n      swap2\n      pop\n      pop\n      jump\t// out\n        /* \"#utility.yul\":7166:7245   */\n    tag_91:\n        /* \"#utility.yul\":7205:7212   */\n      0x00\n        /* \"#utility.yul\":7234:7239   */\n      dup2\n        /* \"#utility.yul\":7223:7239   */\n      swap1\n      pop\n        /* \"#utility.yul\":7166:7245   */\n      swap2\n      swap1\n      pop\n      jump\t// out\n        /* \"#utility.yul\":7251:7408   */\n    tag_92:\n        /* \"#utility.yul\":7356:7401   */\n      tag_202\n        /* \"#utility.yul\":7376:7400   */\n      tag_203\n        /* \"#utility.yul\":7394:7399   */\n      dup3\n        /* \"#utility.yul\":7376:7400   */\n      tag_75\n      jump\t// in\n    tag_203:\n        /* \"#utility.yul\":7356:7401   */\n      tag_91\n      jump\t// in\n    tag_202:\n        /* \"#utility.yul\":7351:7354   */\n      dup3\n        /* \"#utility.yul\":7344:7402   */\n      mstore\n        /* \"#utility.yul\":7251:7408   */\n      pop\n      pop\n      jump\t// out\n        /* \"#utility.yul\":7414:7493   */\n    tag_93:\n        /* \"#utility.yul\":7453:7460   */\n      0x00\n        /* \"#utility.yul\":7482:7487   */\n      dup2\n        /* \"#utility.yul\":7471:7487   */\n      swap1\n      pop\n        /* \"#utility.yul\":7414:7493   */\n      swap2\n      swap1\n      pop\n      jump\t// out\n        /* \"#utility.yul\":7499:7656   */\n    tag_94:\n        /* \"#utility.yul\":7604:7649   */\n      tag_206\n        /* \"#utility.yul\":7624:7648   */\n      tag_207\n        /* \"#utility.yul\":7642:7647   */\n      dup3\n        /* \"#utility.yul\":7624:7648   */\n      tag_64\n      jump\t// in\n    tag_207:\n        /* \"#utility.yul\":7604:7649   */\n      tag_93\n      jump\t// in\n    tag_206:\n        /* \"#utility.yul\":7599:7602   */\n      dup3\n        /* \"#utility.yul\":7592:7650   */\n      mstore\n        /* \"#utility.yul\":7499:7656   */\n      pop\n      pop\n      jump\t// out\n        /* \"#utility.yul\":7662:7760   */\n    tag_95:\n        /* \"#utility.yul\":7713:7719   */\n      0x00\n        /* \"#utility.yul\":7747:7752   */\n      dup2\n        /* \"#utility.yul\":7741:7753   */\n      mload\n        /* \"#utility.yul\":7731:7753   */\n      swap1\n      pop\n        /* \"#utility.yul\":7662:7760   */\n      swap2\n      swap1\n      pop\n      jump\t// out\n        /* \"#utility.yul\":7766:7913   */\n    tag_96:\n        /* \"#utility.yul\":7867:7878   */\n      0x00\n        /* \"#utility.yul\":7904:7907   */\n      dup2\n        /* \"#utility.yul\":7889:7907   */\n      swap1\n      pop\n        /* \"#utility.yul\":7766:7913   */\n      swap3\n      swap2\n      pop\n      pop\n      jump\t// out\n        /* \"#utility.yul\":7919:8226   */\n    tag_97:\n        /* \"#utility.yul\":7987:7988   */\n      0x00\n        /* \"#utility.yul\":7997:8110   */\n    tag_211:\n        /* \"#utility.yul\":8011:8017   */\n      dup4\n        /* \"#utility.yul\":8008:8009   */\n      dup2\n        /* \"#utility.yul\":8005:8018   */\n      lt\n        /* \"#utility.yul\":7997:8110   */\n      iszero\n      tag_213\n      jumpi\n        /* \"#utility.yul\":8096:8097   */\n      dup1\n        /* \"#utility.yul\":8091:8094   */\n      dup3\n        /* \"#utility.yul\":8087:8098   */\n      add\n        /* \"#utility.yul\":8081:8099   */\n      mload\n        /* \"#utility.yul\":8077:8078   */\n      dup2\n        /* \"#utility.yul\":8072:8075   */\n      dup5\n        /* \"#utility.yul\":8068:8079   */\n      add\n        /* \"#utility.yul\":8061:8100   */\n      mstore\n        /* \"#utility.yul\":8033:8035   */\n      0x20\n        /* \"#utility.yul\":8030:8031   */\n      dup2\n        /* \"#utility.yul\":8026:8036   */\n      add\n        /* \"#utility.yul\":8021:8036   */\n      swap1\n      pop\n        /* \"#utility.yul\":7997:8110   */\n      jump(tag_211)\n    tag_213:\n        /* \"#utility.yul\":8128:8134   */\n      dup4\n        /* \"#utility.yul\":8125:8126   */\n      dup2\n        /* \"#utility.yul\":8122:8135   */\n      gt\n        /* \"#utility.yul\":8119:8220   */\n      iszero\n      tag_214\n      jumpi\n        /* \"#utility.yul\":8208:8209   */\n      0x00\n        /* \"#utility.yul\":8199:8205   */\n      dup5\n        /* \"#utility.yul\":8194:8197   */\n      dup5\n        /* \"#utility.yul\":8190:8206   */\n      add\n        /* \"#utility.yul\":8183:8210   */\n      mstore\n        /* \"#utility.yul\":8119:8220   */\n    tag_214:\n        /* \"#utility.yul\":7968:8226   */\n      pop\n        /* \"#utility.yul\":7919:8226   */\n      pop\n      pop\n      pop\n      jump\t// out\n        /* \"#utility.yul\":8232:8605   */\n    tag_98:\n        /* \"#utility.yul\":8336:8339   */\n      0x00\n        /* \"#utility.yul\":8364:8402   */\n      tag_216\n        /* \"#utility.yul\":8396:8401   */\n      dup3\n        /* \"#utility.yul\":8364:8402   */\n      tag_95\n      jump\t// in\n    tag_216:\n        /* \"#utility.yul\":8418:8506   */\n      tag_217\n        /* \"#utility.yul\":8499:8505   */\n      dup2\n        /* \"#utility.yul\":8494:8497   */\n      dup6\n        /* \"#utility.yul\":8418:8506   */\n      tag_96\n      jump\t// in\n    tag_217:\n        /* \"#utility.yul\":8411:8506   */\n      swap4\n      pop\n        /* \"#utility.yul\":8515:8567   */\n      tag_218\n        /* \"#utility.yul\":8560:8566   */\n      dup2\n        /* \"#utility.yul\":8555:8558   */\n      dup6\n        /* \"#utility.yul\":8548:8552   */\n      0x20\n        /* \"#utility.yul\":8541:8546   */\n      dup7\n        /* \"#utility.yul\":8537:8553   */\n      add\n        /* \"#utility.yul\":8515:8567   */\n      tag_97\n      jump\t// in\n    tag_218:\n        /* \"#utility.yul\":8592:8598   */\n      dup1\n        /* \"#utility.yul\":8587:8590   */\n      dup5\n        /* \"#utility.yul\":8583:8599   */\n      add\n        /* \"#utility.yul\":8576:8599   */\n      swap2\n      pop\n        /* \"#utility.yul\":8340:8605   */\n      pop\n        /* \"#utility.yul\":8232:8605   */\n      swap3\n      swap2\n      pop\n      pop\n      jump\t// out\n        /* \"#utility.yul\":8611:8705   */\n    tag_99:\n        /* \"#utility.yul\":8644:8652   */\n      0x00\n        /* \"#utility.yul\":8692:8697   */\n      dup2\n        /* \"#utility.yul\":8688:8690   */\n      0x60\n        /* \"#utility.yul\":8684:8698   */\n      shl\n        /* \"#utility.yul\":8663:8698   */\n      swap1\n      pop\n        /* \"#utility.yul\":8611:8705   */\n      swap2\n      swap1\n      pop\n      jump\t// out\n        /* \"#utility.yul\":8711:8805   */\n    tag_100:\n        /* \"#utility.yul\":8750:8757   */\n      0x00\n        /* \"#utility.yul\":8779:8799   */\n      tag_221\n        /* \"#utility.yul\":8793:8798   */\n      dup3\n        /* \"#utility.yul\":8779:8799   */\n      tag_99\n      jump\t// in\n    tag_221:\n        /* \"#utility.yul\":8768:8799   */\n      swap1\n      pop\n        /* \"#utility.yul\":8711:8805   */\n      swap2\n      swap1\n      pop\n      jump\t// out\n        /* \"#utility.yul\":8811:8911   */\n    tag_101:\n        /* \"#utility.yul\":8850:8857   */\n      0x00\n        /* \"#utility.yul\":8879:8905   */\n      tag_223\n        /* \"#utility.yul\":8899:8904   */\n      dup3\n        /* \"#utility.yul\":8879:8905   */\n      tag_100\n      jump\t// in\n    tag_223:\n        /* \"#utility.yul\":8868:8905   */\n      swap1\n      pop\n        /* \"#utility.yul\":8811:8911   */\n      swap2\n      swap1\n      pop\n      jump\t// out\n        /* \"#utility.yul\":8917:9074   */\n    tag_102:\n        /* \"#utility.yul\":9022:9067   */\n      tag_225\n        /* \"#utility.yul\":9042:9066   */\n      tag_226\n        /* \"#utility.yul\":9060:9065   */\n      dup3\n        /* \"#utility.yul\":9042:9066   */\n      tag_85\n      jump\t// in\n    tag_226:\n        /* \"#utility.yul\":9022:9067   */\n      tag_101\n      jump\t// in\n    tag_225:\n        /* \"#utility.yul\":9017:9020   */\n      dup3\n        /* \"#utility.yul\":9010:9068   */\n      mstore\n        /* \"#utility.yul\":8917:9074   */\n      pop\n      pop\n      jump\t// out\n        /* \"#utility.yul\":9080:9774   */\n    tag_35:\n        /* \"#utility.yul\":9294:9297   */\n      0x00\n        /* \"#utility.yul\":9309:9384   */\n      tag_228\n        /* \"#utility.yul\":9380:9383   */\n      dup3\n        /* \"#utility.yul\":9371:9377   */\n      dup8\n        /* \"#utility.yul\":9309:9384   */\n      tag_92\n      jump\t// in\n    tag_228:\n        /* \"#utility.yul\":9409:9411   */\n      0x20\n        /* \"#utility.yul\":9404:9407   */\n      dup3\n        /* \"#utility.yul\":9400:9412   */\n      add\n        /* \"#utility.yul\":9393:9412   */\n      swap2\n      pop\n        /* \"#utility.yul\":9422:9497   */\n      tag_229\n        /* \"#utility.yul\":9493:9496   */\n      dup3\n        /* \"#utility.yul\":9484:9490   */\n      dup7\n        /* \"#utility.yul\":9422:9497   */\n      tag_94\n      jump\t// in\n    tag_229:\n        /* \"#utility.yul\":9522:9524   */\n      0x20\n        /* \"#utility.yul\":9517:9520   */\n      dup3\n        /* \"#utility.yul\":9513:9525   */\n      add\n        /* \"#utility.yul\":9506:9525   */\n      swap2\n      pop\n        /* \"#utility.yul\":9542:9635   */\n      tag_230\n        /* \"#utility.yul\":9631:9634   */\n      dup3\n        /* \"#utility.yul\":9622:9628   */\n      dup6\n        /* \"#utility.yul\":9542:9635   */\n      tag_98\n      jump\t// in\n    tag_230:\n        /* \"#utility.yul\":9535:9635   */\n      swap2\n      pop\n        /* \"#utility.yul\":9645:9720   */\n      tag_231\n        /* \"#utility.yul\":9716:9719   */\n      dup3\n        /* \"#utility.yul\":9707:9713   */\n      dup5\n        /* \"#utility.yul\":9645:9720   */\n      tag_102\n      jump\t// in\n    tag_231:\n        /* \"#utility.yul\":9745:9747   */\n      0x14\n        /* \"#utility.yul\":9740:9743   */\n      dup3\n        /* \"#utility.yul\":9736:9748   */\n      add\n        /* \"#utility.yul\":9729:9748   */\n      swap2\n      pop\n        /* \"#utility.yul\":9765:9768   */\n      dup2\n        /* \"#utility.yul\":9758:9768   */\n      swap1\n      pop\n        /* \"#utility.yul\":9080:9774   */\n      swap6\n      swap5\n      pop\n      pop\n      pop\n      pop\n      pop\n      jump\t// out\n        /* \"#utility.yul\":9780:9949   */\n    tag_103:\n        /* \"#utility.yul\":9864:9875   */\n      0x00\n        /* \"#utility.yul\":9898:9904   */\n      dup3\n        /* \"#utility.yul\":9893:9896   */\n      dup3\n        /* \"#utility.yul\":9886:9905   */\n      mstore\n        /* \"#utility.yul\":9938:9942   */\n      0x20\n        /* \"#utility.yul\":9933:9936   */\n      dup3\n        /* \"#utility.yul\":9929:9943   */\n      add\n        /* \"#utility.yul\":9914:9943   */\n      swap1\n      pop\n        /* \"#utility.yul\":9780:9949   */\n      swap3\n      swap2\n      pop\n      pop\n      jump\t// out\n        /* \"#utility.yul\":9955:10127   */\n    tag_104:\n        /* \"#utility.yul\":10095:10119   */\n      0x50726f6f6620616c726561647920766572696669656400000000000000000000\n        /* \"#utility.yul\":10091:10092   */\n      0x00\n        /* \"#utility.yul\":10083:10089   */\n      dup3\n        /* \"#utility.yul\":10079:10093   */\n      add\n        /* \"#utility.yul\":10072:10120   */\n      mstore\n        /* \"#utility.yul\":9955:10127   */\n      pop\n      jump\t// out\n        /* \"#utility.yul\":10133:10499   */\n    tag_105:\n        /* \"#utility.yul\":10275:10278   */\n      0x00\n        /* \"#utility.yul\":10296:10363   */\n      tag_235\n        /* \"#utility.yul\":10360:10362   */\n      0x16\n        /* \"#utility.yul\":10355:10358   */\n      dup4\n        /* \"#utility.yul\":10296:10363   */\n      tag_103\n      jump\t// in\n    tag_235:\n        /* \"#utility.yul\":10289:10363   */\n      swap2\n      pop\n        /* \"#utility.yul\":10372:10465   */\n      tag_236\n        /* \"#utility.yul\":10461:10464   */\n      dup3\n        /* \"#utility.yul\":10372:10465   */\n      tag_104\n      jump\t// in\n    tag_236:\n        /* \"#utility.yul\":10490:10492   */\n      0x20\n        /* \"#utility.yul\":10485:10488   */\n      dup3\n        /* \"#utility.yul\":10481:10493   */\n      add\n        /* \"#utility.yul\":10474:10493   */\n      swap1\n      pop\n        /* \"#utility.yul\":10133:10499   */\n      swap2\n      swap1\n      pop\n      jump\t// out\n        /* \"#utility.yul\":10505:10924   */\n    tag_38:\n        /* \"#utility.yul\":10671:10675   */\n      0x00\n        /* \"#utility.yul\":10709:10711   */\n      0x20\n        /* \"#utility.yul\":10698:10707   */\n      dup3\n        /* \"#utility.yul\":10694:10712   */\n      add\n        /* \"#utility.yul\":10686:10712   */\n      swap1\n      pop\n        /* \"#utility.yul\":10758:10767   */\n      dup2\n        /* \"#utility.yul\":10752:10756   */\n      dup2\n        /* \"#utility.yul\":10748:10768   */\n      sub\n        /* \"#utility.yul\":10744:10745   */\n      0x00\n        /* \"#utility.yul\":10733:10742   */\n      dup4\n        /* \"#utility.yul\":10729:10746   */\n      add\n        /* \"#utility.yul\":10722:10769   */\n      mstore\n        /* \"#utility.yul\":10786:10917   */\n      tag_238\n        /* \"#utility.yul\":10912:10916   */\n      dup2\n        /* \"#utility.yul\":10786:10917   */\n      tag_105\n      jump\t// in\n    tag_238:\n        /* \"#utility.yul\":10778:10917   */\n      swap1\n      pop\n        /* \"#utility.yul\":10505:10924   */\n      swap2\n      swap1\n      pop\n      jump\t// out\n        /* \"#utility.yul\":10930:11109   */\n    tag_106:\n        /* \"#utility.yul\":11070:11101   */\n      0x416d6f756e74206d7573742062652067726561746572207468616e2030000000\n        /* \"#utility.yul\":11066:11067   */\n      0x00\n        /* \"#utility.yul\":11058:11064   */\n      dup3\n        /* \"#utility.yul\":11054:11068   */\n      add\n        /* \"#utility.yul\":11047:11102   */\n      mstore\n        /* \"#utility.yul\":10930:11109   */\n      pop\n      jump\t// out\n        /* \"#utility.yul\":11115:11481   */\n    tag_107:\n        /* \"#utility.yul\":11257:11260   */\n      0x00\n        /* \"#utility.yul\":11278:11345   */\n      tag_241\n        /* \"#utility.yul\":11342:11344   */\n      0x1d\n        /* \"#utility.yul\":11337:11340   */\n      dup4\n        /* \"#utility.yul\":11278:11345   */\n      tag_103\n      jump\t// in\n    tag_241:\n        /* \"#utility.yul\":11271:11345   */\n      swap2\n      pop\n        /* \"#utility.yul\":11354:11447   */\n      tag_242\n        /* \"#utility.yul\":11443:11446   */\n      dup3\n        /* \"#utility.yul\":11354:11447   */\n      tag_106\n      jump\t// in\n    tag_242:\n        /* \"#utility.yul\":11472:11474   */\n      0x20\n        /* \"#utility.yul\":11467:11470   */\n      dup3\n        /* \"#utility.yul\":11463:11475   */\n      add\n        /* \"#utility.yul\":11456:11475   */\n      swap1\n      pop\n        /* \"#utility.yul\":11115:11481   */\n      swap2\n      swap1\n      pop\n      jump\t// out\n        /* \"#utility.yul\":11487:11906   */\n    tag_41:\n        /* \"#utility.yul\":11653:11657   */\n      0x00\n        /* \"#utility.yul\":11691:11693   */\n      0x20\n        /* \"#utility.yul\":11680:11689   */\n      dup3\n        /* \"#utility.yul\":11676:11694   */\n      add\n        /* \"#utility.yul\":11668:11694   */\n      swap1\n      pop\n        /* \"#utility.yul\":11740:11749   */\n      dup2\n        /* \"#utility.yul\":11734:11738   */\n      dup2\n        /* \"#utility.yul\":11730:11750   */\n      sub\n        /* \"#utility.yul\":11726:11727   */\n      0x00\n        /* \"#utility.yul\":11715:11724   */\n      dup4\n        /* \"#utility.yul\":11711:11728   */\n      add\n        /* \"#utility.yul\":11704:11751   */\n      mstore\n        /* \"#utility.yul\":11768:11899   */\n      tag_244\n        /* \"#utility.yul\":11894:11898   */\n      dup2\n        /* \"#utility.yul\":11768:11899   */\n      tag_107\n      jump\t// in\n    tag_244:\n        /* \"#utility.yul\":11760:11899   */\n      swap1\n      pop\n        /* \"#utility.yul\":11487:11906   */\n      swap2\n      swap1\n      pop\n      jump\t// out\n        /* \"#utility.yul\":11912:12082   */\n    tag_108:\n        /* \"#utility.yul\":12052:12074   */\n      0x496e76616c696420757365722061646472657373000000000000000000000000\n        /* \"#utility.yul\":12048:12049   */\n      0x00\n        /* \"#utility.yul\":12040:12046   */\n      dup3\n        /* \"#utility.yul\":12036:12050   */\n      add\n        /* \"#utility.yul\":12029:12075   */\n      mstore\n        /* \"#utility.yul\":11912:12082   */\n      pop\n      jump\t// out\n        /* \"#utility.yul\":12088:12454   */\n    tag_109:\n        /* \"#utility.yul\":12230:12233   */\n      0x00\n        /* \"#utility.yul\":12251:12318   */\n      tag_247\n        /* \"#utility.yul\":12315:12317   */\n      0x14\n        /* \"#utility.yul\":12310:12313   */\n      dup4\n        /* \"#utility.yul\":12251:12318   */\n      tag_103\n      jump\t// in\n    tag_247:\n        /* \"#utility.yul\":12244:12318   */\n      swap2\n      pop\n        /* \"#utility.yul\":12327:12420   */\n      tag_248\n        /* \"#utility.yul\":12416:12419   */\n      dup3\n        /* \"#utility.yul\":12327:12420   */\n      tag_108\n      jump\t// in\n    tag_248:\n        /* \"#utility.yul\":12445:12447   */\n      0x20\n        /* \"#utility.yul\":12440:12443   */\n      dup3\n        /* \"#utility.yul\":12436:12448   */\n      add\n        /* \"#utility.yul\":12429:12448   */\n      swap1\n      pop\n        /* \"#utility.yul\":12088:12454   */\n      swap2\n      swap1\n      pop\n      jump\t// out\n        /* \"#utility.yul\":12460:12879   */\n    tag_44:\n        /* \"#utility.yul\":12626:12630   */\n      0x00\n        /* \"#utility.yul\":12664:12666   */\n      0x20\n        /* \"#utility.yul\":12653:12662   */\n      dup3\n        /* \"#utility.yul\":12649:12667   */\n      add\n        /* \"#utility.yul\":12641:12667   */\n      swap1\n      pop\n        /* \"#utility.yul\":12713:12722   */\n      dup2\n        /* \"#utility.yul\":12707:12711   */\n      dup2\n        /* \"#utility.yul\":12703:12723   */\n      sub\n        /* \"#utility.yul\":12699:12700   */\n      0x00\n        /* \"#utility.yul\":12688:12697   */\n      dup4\n        /* \"#utility.yul\":12684:12701   */\n      add\n        /* \"#utility.yul\":12677:12724   */\n      mstore\n        /* \"#utility.yul\":12741:12872   */\n      tag_250\n        /* \"#utility.yul\":12867:12871   */\n      dup2\n        /* \"#utility.yul\":12741:12872   */\n      tag_109\n      jump\t// in\n    tag_250:\n        /* \"#utility.yul\":12733:12872   */\n      swap1\n      pop\n        /* \"#utility.yul\":12460:12879   */\n      swap2\n      swap1\n      pop\n      jump\t// out\n        /* \"#utility.yul\":12885:13046   */\n    tag_110:\n        /* \"#utility.yul\":13025:13038   */\n      0x456d7074792070726f6f66000000000000000000000000000000000000000000\n        /* \"#utility.yul\":13021:13022   */\n      0x00\n        /* \"#utility.yul\":13013:13019   */\n      dup3\n        /* \"#utility.yul\":13009:13023   */\n      add\n        /* \"#utility.yul\":13002:13039   */\n      mstore\n        /* \"#utility.yul\":12885:13046   */\n      pop\n      jump\t// out\n        /* \"#utility.yul\":13052:13418   */\n    tag_111:\n        /* \"#utility.yul\":13194:13197   */\n      0x00\n        /* \"#utility.yul\":13215:13282   */\n      tag_253\n        /* \"#utility.yul\":13279:13281   */\n      0x0b\n        /* \"#utility.yul\":13274:13277   */\n      dup4\n        /* \"#utility.yul\":13215:13282   */\n      tag_103\n      jump\t// in\n    tag_253:\n        /* \"#utility.yul\":13208:13282   */\n      swap2\n      pop\n        /* \"#utility.yul\":13291:13384   */\n      tag_254\n        /* \"#utility.yul\":13380:13383   */\n      dup3\n        /* \"#utility.yul\":13291:13384   */\n      tag_110\n      jump\t// in\n    tag_254:\n        /* \"#utility.yul\":13409:13411   */\n      0x20\n        /* \"#utility.yul\":13404:13407   */\n      dup3\n        /* \"#utility.yul\":13400:13412   */\n      add\n        /* \"#utility.yul\":13393:13412   */\n      swap1\n      pop\n        /* \"#utility.yul\":13052:13418   */\n      swap2\n      swap1\n      pop\n      jump\t// out\n        /* \"#utility.yul\":13424:13843   */\n    tag_47:\n        /* \"#utility.yul\":13590:13594   */\n      0x00\n        /* \"#utility.yul\":13628:13630   */\n      0x20\n        /* \"#utility.yul\":13617:13626   */\n      dup3\n        /* \"#utility.yul\":13613:13631   */\n      add\n        /* \"#utility.yul\":13605:13631   */\n      swap1\n      pop\n        /* \"#utility.yul\":13677:13686   */\n      dup2\n        /* \"#utility.yul\":13671:13675   */\n      dup2\n        /* \"#utility.yul\":13667:13687   */\n      sub\n        /* \"#utility.yul\":13663:13664   */\n      0x00\n        /* \"#utility.yul\":13652:13661   */\n      dup4\n        /* \"#utility.yul\":13648:13665   */\n      add\n        /* \"#utility.yul\":13641:13688   */\n      mstore\n        /* \"#utility.yul\":13705:13836   */\n      tag_256\n        /* \"#utility.yul\":13831:13835   */\n      dup2\n        /* \"#utility.yul\":13705:13836   */\n      tag_111\n      jump\t// in\n    tag_256:\n        /* \"#utility.yul\":13697:13836   */\n      swap1\n      pop\n        /* \"#utility.yul\":13424:13843   */\n      swap2\n      swap1\n      pop\n      jump\t// out\n        /* \"#utility.yul\":13849:13967   */\n    tag_112:\n        /* \"#utility.yul\":13936:13960   */\n      tag_258\n        /* \"#utility.yul\":13954:13959   */\n      dup2\n        /* \"#utility.yul\":13936:13960   */\n      tag_75\n      jump\t// in\n    tag_258:\n        /* \"#utility.yul\":13931:13934   */\n      dup3\n        /* \"#utility.yul\":13924:13961   */\n      mstore\n        /* \"#utility.yul\":13849:13967   */\n      pop\n      pop\n      jump\t// out\n        /* \"#utility.yul\":13973:14305   */\n    tag_52:\n        /* \"#utility.yul\":14094:14098   */\n      0x00\n        /* \"#utility.yul\":14132:14134   */\n      0x40\n        /* \"#utility.yul\":14121:14130   */\n      dup3\n        /* \"#utility.yul\":14117:14135   */\n      add\n        /* \"#utility.yul\":14109:14135   */\n      swap1\n      pop\n        /* \"#utility.yul\":14145:14216   */\n      tag_260\n        /* \"#utility.yul\":14213:14214   */\n      0x00\n        /* \"#utility.yul\":14202:14211   */\n      dup4\n        /* \"#utility.yul\":14198:14215   */\n      add\n        /* \"#utility.yul\":14189:14195   */\n      dup6\n        /* \"#utility.yul\":14145:14216   */\n      tag_112\n      jump\t// in\n    tag_260:\n        /* \"#utility.yul\":14226:14298   */\n      tag_261\n        /* \"#utility.yul\":14294:14296   */\n      0x20\n        /* \"#utility.yul\":14283:14292   */\n      dup4\n        /* \"#utility.yul\":14279:14297   */\n      add\n        /* \"#utility.yul\":14270:14276   */\n      dup5\n        /* \"#utility.yul\":14226:14298   */\n      tag_89\n      jump\t// in\n    tag_261:\n        /* \"#utility.yul\":13973:14305   */\n      swap4\n      swap3\n      pop\n      pop\n      pop\n      jump\t// out\n        /* \"#utility.yul\":14311:14474   */\n    tag_113:\n        /* \"#utility.yul\":14451:14466   */\n      0x496e76616c69642070726f6f6600000000000000000000000000000000000000\n        /* \"#utility.yul\":14447:14448   */\n      0x00\n        /* \"#utility.yul\":14439:14445   */\n      dup3\n        /* \"#utility.yul\":14435:14449   */\n      add\n        /* \"#utility.yul\":14428:14467   */\n      mstore\n        /* \"#utility.yul\":14311:14474   */\n      pop\n      jump\t// out\n        /* \"#utility.yul\":14480:14846   */\n    tag_114:\n        /* \"#utility.yul\":14622:14625   */\n      0x00\n        /* \"#utility.yul\":14643:14710   */\n      tag_264\n        /* \"#utility.yul\":14707:14709   */\n      0x0d\n        /* \"#utility.yul\":14702:14705   */\n      dup4\n        /* \"#utility.yul\":14643:14710   */\n      tag_103\n      jump\t// in\n    tag_264:\n        /* \"#utility.yul\":14636:14710   */\n      swap2\n      pop\n        /* \"#utility.yul\":14719:14812   */\n      tag_265\n        /* \"#utility.yul\":14808:14811   */\n      dup3\n        /* \"#utility.yul\":14719:14812   */\n      tag_113\n      jump\t// in\n    tag_265:\n        /* \"#utility.yul\":14837:14839   */\n      0x20\n        /* \"#utility.yul\":14832:14835   */\n      dup3\n        /* \"#utility.yul\":14828:14840   */\n      add\n        /* \"#utility.yul\":14821:14840   */\n      swap1\n      pop\n        /* \"#utility.yul\":14480:14846   */\n      swap2\n      swap1\n      pop\n      jump\t// out\n        /* \"#utility.yul\":14852:15271   */\n    tag_55:\n        /* \"#utility.yul\":15018:15022   */\n      0x00\n        /* \"#utility.yul\":15056:15058   */\n      0x20\n        /* \"#utility.yul\":15045:15054   */\n      dup3\n        /* \"#utility.yul\":15041:15059   */\n      add\n        /* \"#utility.yul\":15033:15059   */\n      swap1\n      pop\n        /* \"#utility.yul\":15105:15114   */\n      dup2\n        /* \"#utility.yul\":15099:15103   */\n      dup2\n        /* \"#utility.yul\":15095:15115   */\n      sub\n        /* \"#utility.yul\":15091:15092   */\n      0x00\n        /* \"#utility.yul\":15080:15089   */\n      dup4\n        /* \"#utility.yul\":15076:15093   */\n      add\n        /* \"#utility.yul\":15069:15116   */\n      mstore\n        /* \"#utility.yul\":15133:15264   */\n      tag_267\n        /* \"#utility.yul\":15259:15263   */\n      dup2\n        /* \"#utility.yul\":15133:15264   */\n      tag_114\n      jump\t// in\n    tag_267:\n        /* \"#utility.yul\":15125:15264   */\n      swap1\n      pop\n        /* \"#utility.yul\":14852:15271   */\n      swap2\n      swap1\n      pop\n      jump\t// out\n\n    auxdata: 0xa2646970667358221220e69c8079f5c31ecd73f610d13a47b25a13d09c86875d373d6fe255fcc73056f564736f6c634300080a0033\n}\n",
    "bytecode": {
      "linkReferences": {},
      "object": "608060405234801561001057600080fd5b5033600160006101000a81548173ffffffffffffffffffffffffffffffffffffffff021916908373ffffffffffffffffffffffffffffffffffffffff160217905550610c67806100616000396000f3fe608060405234801561001057600080fd5b50600436106100575760003560e01c8063176d80c41461005c57806342c8fd001461008c57806364e6867d146100bc578063789eefaf146100ec5780638da5cb5b1461011c575b600080fd5b61007660048036038101906100719190610506565b61013a565b604051610083919061054e565b60405180910390f35b6100a660048036038101906100a19190610506565b61015a565b6040516100b3919061054e565b60405180910390f35b6100d660048036038101906100d191906107e1565b610183565b6040516100e3919061054e565b60405180910390f35b610106600480360381019061010191906107e1565b610415565b6040516101139190610839565b60405180910390f35b61012461045b565b6040516101319190610863565b60405180910390f35b60006020528060005260406000206000915054906101000a900460ff1681565b600080600083815260200190815260200160002060009054906101000a900460ff169050919050565b60008082600001518360200151846040015185606001516040516020016101ad9493929190610982565b60405160208183030381529060405280519060200120905060008082815260200190815260200160002060009054906101000a900460ff161561022a57807f6d00d60149975f22699f47ddb8a115b5ca6a019d7d14102a8da7b14085e70bea60405161021890610a29565b60405180910390a26000915050610410565b6000836000015111610271576040517f08c379a000000000000000000000000000000000000000000000000000000000815260040161026890610a95565b60405180910390fd5b600073ffffffffffffffffffffffffffffffffffffffff16836060015173ffffffffffffffffffffffffffffffffffffffff1614156102e5576040517f08c379a00000000000000000000000000000000000000000000000000000000081526004016102dc90610b01565b60405180910390fd5b60008360400151511161032d576040517f08c379a000000000000000000000000000000000000000000000000000000000815260040161032490610b6d565b60405180910390fd5b600061033884610481565b905080156103d357600160008084815260200190815260200160002060006101000a81548160ff021916908315150217905550836060015173ffffffffffffffffffffffffffffffffffffffff16827fe73884e97d63919fabc5b496091937beb2440780d29b1f6f545fd55a875effd6866000015187602001516040516103c0929190610b9c565b60405180910390a3600192505050610410565b817f6d00d60149975f22699f47ddb8a115b5ca6a019d7d14102a8da7b14085e70bea60405161040190610c11565b60405180910390a26000925050505b919050565b6000816000015182602001518360400151846060015160405160200161043e9493929190610982565b604051602081830303815290604052805190602001209050919050565b600160009054906101000a900473ffffffffffffffffffffffffffffffffffffffff1681565b60006020826040015151101561049a57600090506104b7565b6000801b826020015114156104b257600090506104b7565b600190505b919050565b6000604051905090565b600080fd5b600080fd5b6000819050919050565b6104e3816104d0565b81146104ee57600080fd5b50565b600081359050610500816104da565b92915050565b60006020828403121561051c5761051b6104c6565b5b600061052a848285016104f1565b91505092915050565b60008115159050919050565b61054881610533565b82525050565b6000602082019050610563600083018461053f565b92915050565b600080fd5b6000601f19601f8301169050919050565b7f4e487b7100000000000000000000000000000000000000000000000000000000600052604160045260246000fd5b6105b78261056e565b810181811067ffffffffffffffff821117156105d6576105d561057f565b5b80604052505050565b60006105e96104bc565b90506105f582826105ae565b919050565b600080fd5b6000819050919050565b610612816105ff565b811461061d57600080fd5b50565b60008135905061062f81610609565b92915050565b600080fd5b600080fd5b600067ffffffffffffffff82111561065a5761065961057f565b5b6106638261056e565b9050602081019050919050565b82818337600083830152505050565b600061069261068d8461063f565b6105df565b9050828152602081018484840111156106ae576106ad61063a565b5b6106b9848285610670565b509392505050565b600082601f8301126106d6576106d5610635565b5b81356106e684826020860161067f565b91505092915050565b600073ffffffffffffffffffffffffffffffffffffffff82169050919050565b600061071a826106ef565b9050919050565b61072a8161070f565b811461073557600080fd5b50565b60008135905061074781610721565b92915050565b60006080828403121561076357610762610569565b5b61076d60806105df565b9050600061077d84828501610620565b6000830152506020610791848285016104f1565b602083015250604082013567ffffffffffffffff8111156107b5576107b46105fa565b5b6107c1848285016106c1565b60408301525060606107d584828501610738565b60608301525092915050565b6000602082840312156107f7576107f66104c6565b5b600082013567ffffffffffffffff811115610815576108146104cb565b5b6108218482850161074d565b91505092915050565b610833816104d0565b82525050565b600060208201905061084e600083018461082a565b92915050565b61085d8161070f565b82525050565b60006020820190506108786000830184610854565b92915050565b6000819050919050565b610899610894826105ff565b61087e565b82525050565b6000819050919050565b6108ba6108b5826104d0565b61089f565b82525050565b600081519050919050565b600081905092915050565b60005b838110156108f45780820151818401526020810190506108d9565b83811115610903576000848401525b50505050565b6000610914826108c0565b61091e81856108cb565b935061092e8185602086016108d6565b80840191505092915050565b60008160601b9050919050565b60006109528261093a565b9050919050565b600061096482610947565b9050919050565b61097c6109778261070f565b610959565b82525050565b600061098e8287610888565b60208201915061099e82866108a9565b6020820191506109ae8285610909565b91506109ba828461096b565b60148201915081905095945050505050565b600082825260208201905092915050565b7f50726f6f6620616c726561647920766572696669656400000000000000000000600082015250565b6000610a136016836109cc565b9150610a1e826109dd565b602082019050919050565b60006020820190508181036000830152610a4281610a06565b9050919050565b7f416d6f756e74206d7573742062652067726561746572207468616e2030000000600082015250565b6000610a7f601d836109cc565b9150610a8a82610a49565b602082019050919050565b60006020820190508181036000830152610aae81610a72565b9050919050565b7f496e76616c696420757365722061646472657373000000000000000000000000600082015250565b6000610aeb6014836109cc565b9150610af682610ab5565b602082019050919050565b60006020820190508181036000830152610b1a81610ade565b9050919050565b7f456d7074792070726f6f66000000000000000000000000000000000000000000600082015250565b6000610b57600b836109cc565b9150610b6282610b21565b602082019050919050565b60006020820190508181036000830152610b8681610b4a565b9050919050565b610b96816105ff565b82525050565b6000604082019050610bb16000830185610b8d565b610bbe602083018461082a565b9392505050565b7f496e76616c69642070726f6f6600000000000000000000000000000000000000600082015250565b6000610bfb600d836109cc565b9150610c0682610bc5565b602082019050919050565b60006020820190508181036000830152610c2a81610bee565b905091905056fea2646970667358221220e69c8079f5c31ecd73f610d13a47b25a13d09c86875d373d6fe255fcc73056f564736f6c634300080a0033",
      "opcodes": "PUSH1 0x80 PUSH1 0x40 MSTORE CALLVALUE DUP1 ISZERO PUSH2 0x10 JUMPI PUSH1 0x0 DUP1 REVERT JUMPDEST POP CALLER PUSH1 0x1 PUSH1 0x0 PUSH2 0x100 EXP DUP2 SLOAD DUP2 PUSH20 0xFFFFFFFFFFFFFFFFFFFFFFFFFFFFFFFFFFFFFFFF MUL NOT AND SWAP1 DUP4 PUSH20 0xFFFFFFFFFFFFFFFFFFFFFFFFFFFFFFFFFFFFFFFF AND MUL OR SWAP1 SSTORE POP PUSH2 0xC67 DUP1 PUSH2 0x61 PUSH1 0x0 CODECOPY PUSH1 0x0 RETURN INVALID PUSH1 0x80 PUSH1 0x40 MSTORE CALLVALUE DUP1 ISZERO PUSH2 0x10 JUMPI PUSH1 0x0 DUP1 REVERT JUMPDEST POP PUSH1 0x4 CALLDATASIZE LT PUSH2 0x57 JUMPI PUSH1 0x0 CALLDATALOAD PUSH1 0xE0 SHR DUP1 PUSH4 0x176D80C4 EQ PUSH2 0x5C JUMPI DUP1 PUSH4 0x42C8FD00 EQ PUSH2 0x8C JUMPI DUP1 PUSH4 0x64E6867D EQ PUSH2 0xBC JUMPI DUP1 PUSH4 0x789EEFAF EQ PUSH2 0xEC JUMPI DUP1 PUSH4 0x8DA5CB5B EQ PUSH2 0x11C JUMPI JUMPDEST PUSH1 0x0 DUP1 REVERT JUMPDEST PUSH2 0x76 PUSH1 0x4 DUP1 CALLDATASIZE SUB DUP2 ADD SWAP1 PUSH2 0x71 SWAP2 SWAP1 PUSH2 0x506 JUMP JUMPDEST PUSH2 0x13A JUMP JUMPDEST PUSH1 0x40 MLOAD PUSH2 0x83 SWAP2 SWAP1 PUSH2 0x54E JUMP JUMPDEST PUSH1 0x40 MLOAD DUP1 SWAP2 SUB SWAP1 RETURN JUMPDEST PUSH2 0xA6 PUSH1 0x4 DUP1 CALLDATASIZE SUB DUP2 ADD SWAP1 PUSH2 0xA1 SWAP2 SWAP1 PUSH2 0x506 JUMP JUMPDEST PUSH2 0x15A JUMP JUMPDEST PUSH1 0x40 MLOAD PUSH2 0xB3 SWAP2 SWAP1 PUSH2 0x54E JUMP JUMPDEST PUSH1 0x40 MLOAD DUP1 SWAP2 SUB SWAP1 RETURN JUMPDEST PUSH2 0xD6 PUSH1 0x4 DUP1 CALLDATASIZE SUB DUP2 ADD SWAP1 PUSH2 0xD1 SWAP2 SWAP1 PUSH2 0x7E1 JUMP JUMPDEST PUSH2 0x183 JUMP JUMPDEST PUSH1 0x40 MLOAD PUSH2 0xE3 SWAP2 SWAP1 PUSH2 0x54E JUMP JUMPDEST PUSH1 0x40 MLOAD DUP1 SWAP2 SUB SWAP1 RETURN JUMPDEST PUSH2 0x106 PUSH1 0x4 DUP1 CALLDATASIZE SUB DUP2 ADD SWAP1 PUSH2 0x101 SWAP2 SWAP1 PUSH2 0x7E1 JUMP JUMPDEST PUSH2 0x415 JUMP JUMPDEST PUSH1 0x40 MLOAD PUSH2 0x113 SWAP2 SWAP1 PUSH2 0x839 JUMP JUMPDEST PUSH1 0x40 MLOAD DUP1 SWAP2 SUB SWAP1 RETURN JUMPDEST PUSH2 0x124 PUSH2 0x45B JUMP JUMPDEST PUSH1 0x40 MLOAD PUSH2 0x131 SWAP2 SWAP1 PUSH2 0x863 JUMP JUMPDEST PUSH1 0x40 MLOAD DUP1 SWAP2 SUB SWAP1 RETURN JUMPDEST PUSH1 0x0 PUSH1 0x20 MSTORE DUP1 PUSH1 0x0 MSTORE PUSH1 0x40 PUSH1 0x0 KECCAK256 PUSH1 0x0 SWAP2 POP SLOAD SWAP1 PUSH2 0x100 EXP SWAP1 DIV PUSH1 0xFF AND DUP2 JUMP JUMPDEST PUSH1 0x0 DUP1 PUSH1 0x0 DUP4 DUP2 MSTORE PUSH1 0x20 ADD SWAP1 DUP2 MSTORE PUSH1 0x20 ADD PUSH1 0x0 KECCAK256 PUSH1 0x0 SWAP1 SLOAD SWAP1 PUSH2 0x100 EXP SWAP1 DIV PUSH1 0xFF AND SWAP1 POP SWAP2 SWAP1 POP JUMP JUMPDEST PUSH1 0x0 DUP1 DUP3 PUSH1 0x0 ADD MLOAD DUP4 PUSH1 0x20 ADD MLOAD DUP5 PUSH1 0x40 ADD MLOAD DUP6 PUSH1 0x60 ADD MLOAD PUSH1 0x40 MLOAD PUSH1 0x20 ADD PUSH2 0x1AD SWAP5 SWAP4 SWAP3 SWAP2 SWAP1 PUSH2 0x982 JUMP JUMPDEST PUSH1 0x40 MLOAD PUSH1 0x20 DUP2 DUP4 SUB SUB DUP2 MSTORE SWAP1 PUSH1 0x40 MSTORE DUP1 MLOAD SWAP1 PUSH1 0x20 ADD KECCAK256 SWAP1 POP PUSH1 0x0 DUP1 DUP3 DUP2 MSTORE PUSH1 0x20 ADD SWAP1 DUP2 MSTORE PUSH1 0x20 ADD PUSH1 0x0 KECCAK256 PUSH1 0x0 SWAP1 SLOAD SWAP1 PUSH2 0x100 EXP SWAP1 DIV PUSH1 0xFF AND ISZERO PUSH2 0x22A JUMPI DUP1 PUSH32 0x6D00D60149975F22699F47DDB8A115B5CA6A019D7D14102A8DA7B14085E70BEA PUSH1 0x40 MLOAD PUSH2 0x218 SWAP1 PUSH2 0xA29 JUMP JUMPDEST PUSH1 0x40 MLOAD DUP1 SWAP2 SUB SWAP1 LOG2 PUSH1 0x0 SWAP2 POP POP PUSH2 0x410 JUMP JUMPDEST PUSH1 0x0 DUP4 PUSH1 0x0 ADD MLOAD GT PUSH2 0x271 JUMPI PUSH1 0x40 MLOAD PUSH32 0x8C379A000000000000000000000000000000000000000000000000000000000 DUP2 MSTORE PUSH1 0x4 ADD PUSH2 0x268 SWAP1 PUSH2 0xA95 JUMP JUMPDEST PUSH1 0x40 MLOAD DUP1 SWAP2 SUB SWAP1 REVERT JUMPDEST PUSH1 0x0 PUSH20 0xFFFFFFFFFFFFFFFFFFFFFFFFFFFFFFFFFFFFFFFF AND DUP4 PUSH1 0x60 ADD MLOAD PUSH20 0xFFFFFFFFFFFFFFFFFFFFFFFFFFFFFFFFFFFFFFFF AND EQ ISZERO PUSH2 0x2E5 JUMPI PUSH1 0x40 MLOAD PUSH32 0x8C379A000000000000000000000000000000000000000000000000000000000 DUP2 MSTORE PUSH1 0x4 ADD PUSH2 0x2DC SWAP1 PUSH2 0xB01 JUMP JUMPDEST PUSH1 0x40 MLOAD DUP1 SWAP2 SUB SWAP1 REVERT JUMPDEST PUSH1 0x0 DUP4 PUSH1 0x40 ADD MLOAD MLOAD GT PUSH2 0x32D JUMPI PUSH1 0x40 MLOAD PUSH32 0x8C379A000000000000000000000000000000000000000000000000000000000 DUP2 MSTORE PUSH1 0x4 ADD PUSH2 0x324 SWAP1 PUSH2 0xB6D JUMP JUMPDEST PUSH1 0x40 MLOAD DUP1 SWAP2 SUB SWAP1 REVERT JUMPDEST PUSH1 0x0 PUSH2 0x338 DUP5 PUSH2 0x481 JUMP JUMPDEST SWAP1 POP DUP1 ISZERO PUSH2 0x3D3 JUMPI PUSH1 0x1 PUSH1 0x0 DUP1 DUP5 DUP2 MSTORE PUSH1 0x20 ADD SWAP1 DUP2 MSTORE PUSH1 0x20 ADD PUSH1 0x0 KECCAK256 PUSH1 0x0 PUSH2 0x100 EXP DUP2 SLOAD DUP2 PUSH1 0xFF MUL NOT AND SWAP1 DUP4 ISZERO ISZERO MUL OR SWAP1 SSTORE POP DUP4 PUSH1 0x60 ADD MLOAD PUSH20 0xFFFFFFFFFFFFFFFFFFFFFFFFFFFFFFFFFFFFFFFF AND DUP3 PUSH32 0xE73884E97D63919FABC5B496091937BEB2440780D29B1F6F545FD55A875EFFD6 DUP7 PUSH1 0x0 ADD MLOAD DUP8 PUSH1 0x20 ADD MLOAD PUSH1 0x40 MLOAD PUSH2 0x3C0 SWAP3 SWAP2 SWAP1 PUSH2 0xB9C JUMP JUMPDEST PUSH1 0x40 MLOAD DUP1 SWAP2 SUB SWAP1 LOG3 PUSH1 0x1 SWAP3 POP POP POP PUSH2 0x410 JUMP JUMPDEST DUP2 PUSH32 0x6D00D60149975F22699F47DDB8A115B5CA6A019D7D14102A8DA7B14085E70BEA PUSH1 0x40 MLOAD PUSH2 0x401 SWAP1 PUSH2 0xC11 JUMP JUMPDEST PUSH1 0x40 MLOAD DUP1 SWAP2 SUB SWAP1 LOG2 PUSH1 0x0 SWAP3 POP POP POP JUMPDEST SWAP2 SWAP1 POP JUMP JUMPDEST PUSH1 0x0 DUP2 PUSH1 0x0 ADD MLOAD DUP3 PUSH1 0x20 ADD MLOAD DUP4 PUSH1 0x40 ADD MLOAD DUP5 PUSH1 0x60 ADD MLOAD PUSH1 0x40 MLOAD PUSH1 0x20 ADD PUSH2 0x43E SWAP5 SWAP4 SWAP3 SWAP2 SWAP1 PUSH2 0x982 JUMP JUMPDEST PUSH1 0x40 MLOAD PUSH1 0x20 DUP2 DUP4 SUB SUB DUP2 MSTORE SWAP1 PUSH1 0x40 MSTORE DUP1 MLOAD SWAP1 PUSH1 0x20 ADD KECCAK256 SWAP1 POP SWAP2 SWAP1 POP JUMP JUMPDEST PUSH1 0x1 PUSH1 0x0 SWAP1 SLOAD SWAP1 PUSH2 0x100 EXP SWAP1 DIV PUSH20 0xFFFFFFFFFFFFFFFFFFFFFFFFFFFFFFFFFFFFFFFF AND DUP2 JUMP JUMPDEST PUSH1 0x0 PUSH1 0x20 DUP3 PUSH1 0x40 ADD MLOAD MLOAD LT ISZERO PUSH2 0x49A JUMPI PUSH1 0x0 SWAP1 POP PUSH2 0x4B7 JUMP JUMPDEST PUSH1 0x0 DUP1 SHL DUP3 PUSH1 0x20 ADD MLOAD EQ ISZERO PUSH2 0x4B2 JUMPI PUSH1 0x0 SWAP1 POP PUSH2 0x4B7 JUMP JUMPDEST PUSH1 0x1 SWAP1 POP JUMPDEST SWAP2 SWAP1 POP JUMP JUMPDEST PUSH1 0x0 PUSH1 0x40 MLOAD SWAP1 POP SWAP1 JUMP JUMPDEST PUSH1 0x0 DUP1 REVERT JUMPDEST PUSH1 0x0 DUP1 REVERT JUMPDEST PUSH1 0x0 DUP2 SWAP1 POP SWAP2 SWAP1 POP JUMP JUMPDEST PUSH2 0x4E3 DUP2 PUSH2 0x4D0 JUMP JUMPDEST DUP2 EQ PUSH2 0x4EE JUMPI PUSH1 0x0 DUP1 REVERT JUMPDEST POP JUMP JUMPDEST PUSH1 0x0 DUP2 CALLDATALOAD SWAP1 POP PUSH2 0x500 DUP2 PUSH2 0x4DA JUMP JUMPDEST SWAP3 SWAP2 POP POP JUMP JUMPDEST PUSH1 0x0 PUSH1 0x20 DUP3 DUP5 SUB SLT ISZERO PUSH2 0x51C JUMPI PUSH2 0x51B PUSH2 0x4C6 JUMP JUMPDEST JUMPDEST PUSH1 0x0 PUSH2 0x52A DUP5 DUP3 DUP6 ADD PUSH2 0x4F1 JUMP JUMPDEST SWAP2 POP POP SWAP3 SWAP2 POP POP JUMP JUMPDEST PUSH1 0x0 DUP2 ISZERO ISZERO SWAP1 POP SWAP2 SWAP1 POP JUMP JUMPDEST PUSH2 0x548 DUP2 PUSH2 0x533 JUMP JUMPDEST DUP3 MSTORE POP POP JUMP JUMPDEST PUSH1 0x0 PUSH1 0x20 DUP3 ADD SWAP1 POP PUSH2 0x563 PUSH1 0x0 DUP4 ADD DUP5 PUSH2 0x53F JUMP JUMPDEST SWAP3 SWAP2 POP POP JUMP JUMPDEST PUSH1 0x0 DUP1 REVERT JUMPDEST PUSH1 0x0 PUSH1 0x1F NOT PUSH1 0x1F DUP4 ADD AND SWAP1 POP SWAP2 SWAP1 POP JUMP JUMPDEST PUSH32 0x4E487B7100000000000000000000000000000000000000000000000000000000 PUSH1 0x0 MSTORE PUSH1 0x41 PUSH1 0x4 MSTORE PUSH1 0x24 PUSH1 0x0 REVERT JUMPDEST PUSH2 0x5B7 DUP3 PUSH2 0x56E JUMP JUMPDEST DUP2 ADD DUP2 DUP2 LT PUSH8 0xFFFFFFFFFFFFFFFF DUP3 GT OR ISZERO PUSH2 0x5D6 JUMPI PUSH2 0x5D5 PUSH2 0x57F JUMP JUMPDEST JUMPDEST DUP1 PUSH1 0x40 MSTORE POP POP POP JUMP JUMPDEST PUSH1 0x0 PUSH2 0x5E9 PUSH2 0x4BC JUMP JUMPDEST SWAP1 POP PUSH2 0x5F5 DUP3 DUP3 PUSH2 0x5AE JUMP JUMPDEST SWAP2 SWAP1 POP JUMP JUMPDEST PUSH1 0x0 DUP1 REVERT JUMPDEST PUSH1 0x0 DUP2 SWAP1 POP SWAP2 SWAP1 POP JUMP JUMPDEST PUSH2 0x612 DUP2 PUSH2 0x5FF JUMP JUMPDEST DUP2 EQ PUSH2 0x61D JUMPI PUSH1 0x0 DUP1 REVERT JUMPDEST POP JUMP JUMPDEST PUSH1 0x0 DUP2 CALLDATALOAD SWAP1 POP PUSH2 0x62F DUP2 PUSH2 0x609 JUMP JUMPDEST SWAP3 SWAP2 POP POP JUMP JUMPDEST PUSH1 0x0 DUP1 REVERT JUMPDEST PUSH1 0x0 DUP1 REVERT JUMPDEST PUSH1 0x0 PUSH8 0xFFFFFFFFFFFFFFFF DUP3 GT ISZERO PUSH2 0x65A JUMPI PUSH2 0x659 PUSH2 0x57F JUMP JUMPDEST JUMPDEST PUSH2 0x663 DUP3 PUSH2 0x56E JUMP JUMPDEST SWAP1 POP PUSH1 0x20 DUP2 ADD SWAP1 POP SWAP2 SWAP1 POP JUMP JUMPDEST DUP3 DUP2 DUP4 CALLDATACOPY PUSH1 0x0 DUP4 DUP4 ADD MSTORE POP POP POP JUMP JUMPDEST PUSH1 0x0 PUSH2 0x692 PUSH2 0x68D DUP5 PUSH2 0x63F JUMP JUMPDEST PUSH2 0x5DF JUMP JUMPDEST SWAP1 POP DUP3 DUP2 MSTORE PUSH1 0x20 DUP2 ADD DUP5 DUP5 DUP5 ADD GT ISZERO PUSH2 0x6AE JUMPI PUSH2 0x6AD PUSH2 0x63A JUMP JUMPDEST JUMPDEST PUSH2 0x6B9 DUP5 DUP3 DUP6 PUSH2 0x670 JUMP JUMPDEST POP SWAP4 SWAP3 POP POP POP JUMP JUMPDEST PUSH1 0x0 DUP3 PUSH1 0x1F DUP4 ADD SLT PUSH2 0x6D6 JUMPI PUSH2 0x6D5 PUSH2 0x635 JUMP JUMPDEST JUMPDEST DUP2 CALLDATALOAD PUSH2 0x6E6 DUP5 DUP3 PUSH1 0x20 DUP7 ADD PUSH2 0x67F JUMP JUMPDEST SWAP2 POP POP SWAP3 SWAP2 POP POP JUMP JUMPDEST PUSH1 0x0 PUSH20 0xFFFFFFFFFFFFFFFFFFFFFFFFFFFFFFFFFFFFFFFF DUP3 AND SWAP1 POP SWAP2 SWAP1 POP JUMP JUMPDEST PUSH1 0x0 PUSH2 0x71A DUP3 PUSH2 0x6EF JUMP JUMPDEST SWAP1 POP SWAP2 SWAP1 POP JUMP JUMPDEST PUSH2 0x72A DUP2 PUSH2 0x70F JUMP JUMPDEST DUP2 EQ PUSH2 0x735 JUMPI PUSH1 0x0 DUP1 REVERT JUMPDEST POP JUMP JUMPDEST PUSH1 0x0 DUP2 CALLDATALOAD SWAP1 POP PUSH2 0x747 DUP2 PUSH2 0x721 JUMP JUMPDEST SWAP3 SWAP2 POP POP JUMP JUMPDEST PUSH1 0x0 PUSH1 0x80 DUP3 DUP5 SUB SLT ISZERO PUSH2 0x763 JUMPI PUSH2 0x762 PUSH2 0x569 JUMP JUMPDEST JUMPDEST PUSH2 0x76D PUSH1 0x80 PUSH2 0x5DF JUMP JUMPDEST SWAP1 POP PUSH1 0x0 PUSH2 0x77D DUP5 DUP3 DUP6 ADD PUSH2 0x620 JUMP JUMPDEST PUSH1 0x0 DUP4 ADD MSTORE POP PUSH1 0x20 PUSH2 0x791 DUP5 DUP3 DUP6 ADD PUSH2 0x4F1 JUMP JUMPDEST PUSH1 0x20 DUP4 ADD MSTORE POP PUSH1 0x40 DUP3 ADD CALLDATALOAD PUSH8 0xFFFFFFFFFFFFFFFF DUP2 GT ISZERO PUSH2 0x7B5 JUMPI PUSH2 0x7B4 PUSH2 0x5FA JUMP JUMPDEST JUMPDEST PUSH2 0x7C1 DUP5 DUP3 DUP6 ADD PUSH2 0x6C1 JUMP JUMPDEST PUSH1 0x40 DUP4 ADD MSTORE POP PUSH1 0x60 PUSH2 0x7D5 DUP5 DUP3 DUP6 ADD PUSH2 0x738 JUMP JUMPDEST PUSH1 0x60 DUP4 ADD MSTORE POP SWAP3 SWAP2 POP POP JUMP JUMPDEST PUSH1 0x0 PUSH1 0x20 DUP3 DUP5 SUB SLT ISZERO PUSH2 0x7F7 JUMPI PUSH2 0x7F6 PUSH2 0x4C6 JUMP JUMPDEST JUMPDEST PUSH1 0x0 DUP3 ADD CALLDATALOAD PUSH8 0xFFFFFFFFFFFFFFFF DUP2 GT ISZERO PUSH2 0x815 JUMPI PUSH2 0x814 PUSH2 0x4CB JUMP JUMPDEST JUMPDEST PUSH2 0x821 DUP5 DUP3 DUP6 ADD PUSH2 0x74D JUMP JUMPDEST SWAP2 POP POP SWAP3 SWAP2 POP POP JUMP JUMPDEST PUSH2 0x833 DUP2 PUSH2 0x4D0 JUMP JUMPDEST DUP3 MSTORE POP POP JUMP JUMPDEST PUSH1 0x0 PUSH1 0x20 DUP3 ADD SWAP1 POP PUSH2 0x84E PUSH1 0x0 DUP4 ADD DUP5 PUSH2 0x82A JUMP JUMPDEST SWAP3 SWAP2 POP POP JUMP JUMPDEST PUSH2 0x85D DUP2 PUSH2 0x70F JUMP JUMPDEST DUP3 MSTORE POP POP JUMP JUMPDEST PUSH1 0x0 PUSH1 0x20 DUP3 ADD SWAP1 POP PUSH2 0x878 PUSH1 0x0 DUP4 ADD DUP5 PUSH2 0x854 JUMP JUMPDEST SWAP3 SWAP2 POP POP JUMP JUMPDEST PUSH1 0x0 DUP2 SWAP1 POP SWAP2 SWAP1 POP JUMP JUMPDEST PUSH2 0x899 PUSH2 0x894 DUP3 PUSH2 0x5FF JUMP JUMPDEST PUSH2 0x87E JUMP JUMPDEST DUP3 MSTORE POP POP JUMP JUMPDEST PUSH1 0x0 DUP2 SWAP1 POP SWAP2 SWAP1 POP JUMP JUMPDEST PUSH2 0x8BA PUSH2 0x8B5 DUP3 PUSH2 0x4D0 JUMP JUMPDEST PUSH2 0x89F JUMP JUMPDEST DUP3 MSTORE POP POP JUMP JUMPDEST PUSH1 0x0 DUP2 MLOAD SWAP1 POP SWAP2 SWAP1 POP JUMP JUMPDEST PUSH1 0x0 DUP2 SWAP1 POP SWAP3 SWAP2 POP POP JUMP JUMPDEST PUSH1 0x0 JUMPDEST DUP4 DUP2 LT ISZERO PUSH2 0x8F4 JUMPI DUP1 DUP3 ADD MLOAD DUP2 DUP5 ADD MSTORE PUSH1 0x20 DUP2 ADD SWAP1 POP PUSH2 0x8D9 JUMP JUMPDEST DUP4 DUP2 GT ISZERO PUSH2 0x903 JUMPI PUSH1 0x0 DUP5 DUP5 ADD MSTORE JUMPDEST POP POP POP POP JUMP JUMPDEST PUSH1 0x0 PUSH2 0x914 DUP3 PUSH2 0x8C0 JUMP JUMPDEST PUSH2 0x91E DUP2 DUP6 PUSH2 0x8CB JUMP JUMPDEST SWAP4 POP PUSH2 0x92E DUP2 DUP6 PUSH1 0x20 DUP7 ADD PUSH2 0x8D6 JUMP JUMPDEST DUP1 DUP5 ADD SWAP2 POP POP SWAP3 SWAP2 POP POP JUMP JUMPDEST PUSH1 0x0 DUP2 PUSH1 0x60 SHL SWAP1 POP SWAP2 SWAP1 POP JUMP JUMPDEST PUSH1 0x0 PUSH2 0x952 DUP3 PUSH2 0x93A JUMP JUMPDEST SWAP1 POP SWAP2 SWAP1 POP JUMP JUMPDEST PUSH1 0x0 PUSH2 0x964 DUP3 PUSH2 0x947 JUMP JUMPDEST SWAP1 POP SWAP2 SWAP1 POP JUMP JUMPDEST PUSH2 0x97C PUSH2 0x977 DUP3 PUSH2 0x70F JUMP JUMPDEST PUSH2 0x959 JUMP JUMPDEST DUP3 MSTORE POP POP JUMP JUMPDEST PUSH1 0x0 PUSH2 0x98E DUP3 DUP8 PUSH2 0x888 JUMP JUMPDEST PUSH1 0x20 DUP3 ADD SWAP2 POP PUSH2 0x99E DUP3 DUP7 PUSH2 0x8A9 JUMP JUMPDEST PUSH1 0x20 DUP3 ADD SWAP2 POP PUSH2 0x9AE DUP3 DUP6 PUSH2 0x909 JUMP JUMPDEST SWAP2 POP PUSH2 0x9BA DUP3 DUP5 PUSH2 0x96B JUMP JUMPDEST PUSH1 0x14 DUP3 ADD SWAP2 POP DUP2 SWAP1 POP SWAP6 SWAP5 POP POP POP POP POP JUMP JUMPDEST PUSH1 0x0 DUP3 DUP3 MSTORE PUSH1 0x20 DUP3 ADD SWAP1 POP SWAP3 SWAP2 POP POP JUMP JUMPDEST PUSH32 0x50726F6F6620616C726561647920766572696669656400000000000000000000 PUSH1 0x0 DUP3 ADD MSTORE POP JUMP JUMPDEST PUSH1 0x0 PUSH2 0xA13 PUSH1 0x16 DUP4 PUSH2 0x9CC JUMP JUMPDEST SWAP2 POP PUSH2 0xA1E DUP3 PUSH2 0x9DD JUMP JUMPDEST PUSH1 0x20 DUP3 ADD SWAP1 POP SWAP2 SWAP1 POP JUMP JUMPDEST PUSH1 0x0 PUSH1 0x20 DUP3 ADD SWAP1 POP DUP2 DUP2 SUB PUSH1 0x0 DUP4 ADD MSTORE PUSH2 0xA42 DUP2 PUSH2 0xA06 JUMP JUMPDEST SWAP1 POP SWAP2 SWAP1 POP JUMP JUMPDEST PUSH32 0x416D6F756E74206D7573742062652067726561746572207468616E2030000000 PUSH1 0x0 DUP3 ADD MSTORE POP JUMP JUMPDEST PUSH1 0x0 PUSH2 0xA7F PUSH1 0x1D DUP4 PUSH2 0x9CC JUMP JUMPDEST SWAP2 POP PUSH2 0xA8A DUP3 PUSH2 0xA49 JUMP JUMPDEST PUSH1 0x20 DUP3 ADD SWAP1 POP SWAP2 SWAP1 POP JUMP JUMPDEST PUSH1 0x0 PUSH1 0x20 DUP3 ADD SWAP1 POP DUP2 DUP2 SUB PUSH1 0x0 DUP4 ADD MSTORE PUSH2 0xAAE DUP2 PUSH2 0xA72 JUMP JUMPDEST SWAP1 POP SWAP2 SWAP1 POP JUMP JUMPDEST PUSH32 0x496E76616C696420757365722061646472657373000000000000000000000000 PUSH1 0x0 DUP3 ADD MSTORE POP JUMP JUMPDEST PUSH1 0x0 PUSH2 0xAEB PUSH1 0x14 DUP4 PUSH2 0x9CC JUMP JUMPDEST SWAP2 POP PUSH2 0xAF6 DUP3 PUSH2 0xAB5 JUMP JUMPDEST PUSH1 0x20 DUP3 ADD SWAP1 POP SWAP2 SWAP1 POP JUMP JUMPDEST PUSH1 0x0 PUSH1 0x20 DUP3 ADD SWAP1 POP DUP2 DUP2 SUB PUSH1 0x0 DUP4 ADD MSTORE PUSH2 0xB1A DUP2 PUSH2 0xADE JUMP JUMPDEST SWAP1 POP SWAP2 SWAP1 POP JUMP JUMPDEST PUSH32 0x456D7074792070726F6F66000000000000000000000000000000000000000000 PUSH1 0x0 DUP3 ADD MSTORE POP JUMP JUMPDEST PUSH1 0x0 PUSH2 0xB57 PUSH1 0xB DUP4 PUSH2 0x9CC JUMP JUMPDEST SWAP2 POP PUSH2 0xB62 DUP3 PUSH2 0xB21 JUMP JUMPDEST PUSH1 0x20 DUP3 ADD SWAP1 POP SWAP2 SWAP1 POP JUMP JUMPDEST PUSH1 0x0 PUSH1 0x20 DUP3 ADD SWAP1 POP DUP2 DUP2 SUB PUSH1 0x0 DUP4 ADD MSTORE PUSH2 0xB86 DUP2 PUSH2 0xB4A JUMP JUMPDEST SWAP1 POP SWAP2 SWAP1 POP JUMP JUMPDEST PUSH2 0xB96 DUP2 PUSH2 0x5FF JUMP JUMPDEST DUP3 MSTORE POP POP JUMP JUMPDEST PUSH1 0x0 PUSH1 0x40 DUP3 ADD SWAP1 POP PUSH2 0xBB1 PUSH1 0x0 DUP4 ADD DUP6 PUSH2 0xB8D JUMP JUMPDEST PUSH2 0xBBE PUSH1 0x20 DUP4 ADD DUP5 PUSH2 0x82A JUMP JUMPDEST SWAP4 SWAP3 POP POP POP JUMP JUMPDEST PUSH32 0x496E76616C69642070726F6F6600000000000000000000000000000000000000 PUSH1 0x0 DUP3 ADD MSTORE POP JUMP JUMPDEST PUSH1 0x0 PUSH2 0xBFB PUSH1 0xD DUP4 PUSH2 0x9CC JUMP JUMPDEST SWAP2 POP PUSH2 0xC06 DUP3 PUSH2 0xBC5 JUMP JUMPDEST PUSH1 0x20 DUP3 ADD SWAP1 POP SWAP2 SWAP1 POP JUMP JUMPDEST PUSH1 0x0 PUSH1 0x20 DUP3 ADD SWAP1 POP DUP2 DUP2 SUB PUSH1 0x0 DUP4 ADD MSTORE PUSH2 0xC2A DUP2 PUSH2 0xBEE JUMP JUMPDEST SWAP1 POP SWAP2 SWAP1 POP JUMP INVALID LOG2 PUSH5 0x6970667358 0x22 SLT KECCAK256 0xE6 SWAP13 DUP1 PUSH26 0xF5C31ECD73F610D13A47B25A13D09C86875D373D6FE255FCC730 JUMP CREATE2 PUSH5 0x736F6C6343 STOP ADDMOD EXP STOP CALLER "
    },
    "gasEstimates": {
      "creation": {
        "codeDepositCost": "635000",
        "executionCost": "24936",
        "totalCost": "659936"
      },
      "external": {
        "getProofHash((uint256,bytes32,bytes,address))": "infinite",
        "isProofVerified(bytes32)": "2822",
        "owner()": "2580",
        "verifiedProofs(bytes32)": "2774",
        "verifyProof((uint256,bytes32,bytes,address))": "infinite"
      },
      "internal": {
        "_verifyBalanceProof(struct BalanceVerifier.BalanceProof memory)": "infinite"
      }
    },
    "methodIdentifiers": {
      "getProofHash((uint256,bytes32,bytes,address))": "789eefaf",
      "isProofVerified(bytes32)": "42c8fd00",
      "owner()": "8da5cb5b",
      "verifiedProofs(bytes32)": "176d80c4",
      "verifyProof((uint256,bytes32,bytes,address))": "64e6867d"
    }
  },
  "storageLayout": {
    "storage": [
      {
        "astId": 6,
        "contract": "BalanceVerifier.sol:BalanceVerifier",
        "label": "verifiedProofs",
        "offset": 0,
        "slot": "0",
        "type": "t_mapping(t_bytes32,t_bool)"
      },
      {
        "astId": 33,
        "contract": "BalanceVerifier.sol:BalanceVerifier",
        "label": "owner",
        "offset": 0,
        "slot": "1",
        "type": "t_address"
      }
    ],
    "types": {
      "t_address": {
        "encoding": "inplace",
        "label": "address",
        "numberOfBytes": "20"
      },
      "t_bool": {
        "encoding": "inplace",
        "label": "bool",
        "numberOfBytes": "1"
      },
      "t_bytes32": {
        "encoding": "inplace",
        "label": "bytes32",
        "numberOfBytes": "32"
      },
      "t_mapping(t_bytes32,t_bool)": {
        "encoding": "mapping",
        "key": "t_bytes32",
        "label": "mapping(bytes32 => bool)",
        "numberOfBytes": "32",
        "value": "t_bool"
      }
    }
  },
  "userdoc": {
    "kind": "user",
    "methods": {},
    "version": 1
  }
}