{
  "abi": [
    {
      "inputs": [],
      "stateMutability": "nonpayable",
      "type": "constructor"
    },
    {
      "anonymous": false,
      "inputs": [
        {
          "indexed": true,
          "internalType": "address",
          "name": "user",
          "type": "address"
        },
        {
          "indexed": false,
          "internalType": "uint256",
          "name": "newBalance",
          "type": "uint256"
        }
      ],
      "name": "BalanceUpdated",
      "type": "event"
    },
    {
      "anonymous": false,
      "inputs": [
        {
          "indexed": true,
          "internalType": "address",
          "name": "user",
          "type": "address"
        },
        {
          "indexed": false,
          "internalType": "uint256",
          "name": "amount",
          "type": "uint256"
        },
        {
          "indexed": false,
          "internalType": "string",
          "name": "bankCode",
          "type": "string"
        }
      ],
      "name": "Deposit",
      "type": "event"
    },
    {
      "anonymous": false,
      "inputs": [
        {
          "indexed": true,
          "internalType": "uint256",
          "name": "transactionId",
          "type": "uint256"
        },
        {
          "indexed": false,
          "internalType": "enum InterbankTransfer.TransactionStatus",
          "name": "status",
          "type": "uint8"
        }
      ],
      "name": "TransactionStatusChanged",
      "type": "event"
    },
    {
      "anonymous": false,
      "inputs": [
        {
          "indexed": true,
          "internalType": "uint256",
          "name": "transactionId",
          "type": "uint256"
        },
        {
          "indexed": true,
          "internalType": "address",
          "name": "from",
          "type": "address"
        },
        {
          "indexed": true,
          "internalType": "address",
          "name": "to",
          "type": "address"
        },
        {
          "indexed": false,
          "internalType": "uint256",
          "name": "amount",
          "type": "uint256"
        },
        {
          "indexed": false,
          "internalType": "string",
          "name": "fromBank",
          "type": "string"
        },
        {
          "indexed": false,
          "internalType": "string",
          "name": "toBank",
          "type": "string"
        },
        {
          "indexed": false,
          "internalType": "string",
          "name": "description",
          "type": "string"
        },
        {
          "indexed": false,
          "internalType": "uint256",
          "name": "timestamp",
          "type": "uint256"
        }
      ],
      "name": "Transfer",
      "type": "event"
    },
    {
      "inputs": [
        {
          "internalType": "address",
          "name": "bankAddress",
          "type": "address"
        },
        {
          "internalType": "string",
          "name": "bankCode",
          "type": "string"
        }
      ],
      "name": "addAuthorizedBank",
      "outputs": [],
      "stateMutability": "nonpayable",
      "type": "function"
    },
    {
      "inputs": [
        {
          "internalType": "address",
          "name": "",
          "type": "address"
        }
      ],
      "name": "authorizedBanks",
      "outputs": [
        {
          "internalType": "bool",
          "name": "",
          "type": "bool"
        }
      ],
      "stateMutability": "view",
      "type": "function"
    },
    {
      "inputs": [
        {
          "internalType": "address",
          "name": "",
          "type": "address"
        }
      ],
      "name": "balances",
      "outputs": [
        {
          "internalType": "uint256",
          "name": "",
          "type": "uint256"
        }
      ],
      "stateMutability": "view",
      "type": "function"
    },
    {
      "inputs": [
        {
          "internalType": "address",
          "name": "",
          "type": "address"
        }
      ],
      "name": "bankCodes",
      "outputs": [
        {
          "internalType": "string",
          "name": "",
          "type": "string"
        }
      ],
      "stateMutability": "view",
      "type": "function"
    },
    {
      "inputs": [
        {
          "internalType": "address",
          "name": "user",
          "type": "address"
        },
        {
          "internalType": "uint256",
          "name": "amount",
          "type": "uint256"
        }
      ],
      "name": "checkTransferAuthorization",
      "outputs": [
        {
          "internalType": "bool",
          "name": "",
          "type": "bool"
        }
      ],
      "stateMutability": "view",
      "type": "function"
    },
    {
      "inputs": [
        {
          "internalType": "address",
          "name": "user",
          "type": "address"
        },
        {
          "internalType": "string",
          "name": "bankCode",
          "type": "string"
        }
      ],
      "name": "deposit",
      "outputs": [],
      "stateMutability": "payable",
      "type": "function"
    },
    {
      "inputs": [
        {
          "internalType": "address",
          "name": "user",
          "type": "address"
        }
      ],
      "name": "getBalance",
      "outputs": [
        {
          "internalType": "uint256",
          "name": "",
          "type": "uint256"
        }
      ],
      "stateMutability": "view",
      "type": "function"
    },
    {
      "inputs": [
        {
          "internalType": "uint256",
          "name": "txId",
          "type": "uint256"
        }
      ],
      "name": "getTransaction",
      "outputs": [
        {
          "internalType": "uint256",
          "name": "id",
          "type": "uint256"
        },
        {
          "internalType": "address",
          "name": "from",
          "type": "address"
        },
        {
          "internalType": "address",
          "name": "to",
          "type": "address"
        },
        {
          "internalType": "uint256",
          "name": "amount",
          "type": "uint256"
        },
        {
          "internalType": "string",
          "name": "fromBank",
          "type": "string"
        },
        {
          "internalType": "string",
          "name": "toBank",
          "type": "string"
        },
        {
          "internalType": "string",
          "name": "description",
          "type": "string"
        },
        {
          "internalType": "uint256",
          "name": "timestamp",
          "type": "uint256"
        },
        {
          "internalType": "enum InterbankTransfer.TransactionStatus",
          "name": "status",
          "type": "uint8"
        }
      ],
      "stateMutability": "view",
      "type": "function"
    },
    {
      "inputs": [],
      "name": "getTransactionCount",
      "outputs": [
        {
          "internalType": "uint256",
          "name": "",
          "type": "uint256"
        }
      ],
      "stateMutability": "view",
      "type": "function"
    },
    {
      "inputs": [
        {
          "internalType": "address",
          "name": "user",
          "type": "address"
        }
      ],
      "name": "getUserPublicKey",
      "outputs": [
        {
          "internalType": "bytes",
          "name": "",
          "type": "bytes"
        }
      ],
      "stateMutability": "view",
      "type": "function"
    },
    {
      "inputs": [
        {
          "internalType": "address",
          "name": "user",
          "type": "address"
        }
      ],
      "name": "getUserTransactions",
      "outputs": [
        {
          "internalType": "uint256[]",
          "name": "",
          "type": "uint256[]"
        }
      ],
      "stateMutability": "view",
      "type": "function"
    },
    {
      "inputs": [],
      "name": "owner",
      "outputs": [
        {
          "internalType": "address",
          "name": "",
          "type": "address"
        }
      ],
      "stateMutability": "view",
      "type": "function"
    },
    {
      "inputs": [],
      "name": "pkiEnabled",
      "outputs": [
        {
          "internalType": "bool",
          "name": "",
          "type": "bool"
        }
      ],
      "stateMutability": "view",
      "type": "function"
    },
    {
      "inputs": [],
      "name": "pkiRegistry",
      "outputs": [
        {
          "internalType": "contract IPKIRegistry",
          "name": "",
          "type": "address"
        }
      ],
      "stateMutability": "view",
      "type": "function"
    },
    {
      "inputs": [
        {
          "internalType": "address",
          "name": "_pkiRegistry",
          "type": "address"
        }
      ],
      "name": "setPKIRegistry",
      "outputs": [],
      "stateMutability": "nonpayable",
      "type": "function"
    },
    {
      "inputs": [
        {
          "internalType": "bool",
          "name": "_enabled",
          "type": "bool"
        }
      ],
      "name": "togglePKI",
      "outputs": [],
      "stateMutability": "nonpayable",
      "type": "function"
    },
    {
      "inputs": [
        {
          "internalType": "uint256",
          "name": "",
          "type": "uint256"
        }
      ],
      "name": "transactionIndex",
      "outputs": [
        {
          "internalType": "uint256",
          "name": "",
          "type": "uint256"
        }
      ],
      "stateMutability": "view",
      "type": "function"
    },
    {
      "inputs": [
        {
          "internalType": "uint256",
          "name": "",
          "type": "uint256"
        }
      ],
      "name": "transactions",
      "outputs": [
        {
          "internalType": "uint256",
          "name": "id",
          "type": "uint256"
        },
        {
          "internalType": "address",
          "name": "from",
          "type": "address"
        },
        {
          "internalType": "address",
          "name": "to",
          "type": "address"
        },
        {
          "internalType": "uint256",
          "name": "amount",
          "type": "uint256"
        },
        {
          "internalType": "string",
          "name": "fromBank",
          "type": "string"
        },
        {
          "internalType": "string",
          "name": "toBank",
          "type": "string"
        },
        {
          "internalType": "string",
          "name": "description",
          "type": "string"
        },
        {
          "internalType": "uint256",
          "name": "timestamp",
          "type": "uint256"
        },
        {
          "internalType": "enum InterbankTransfer.TransactionStatus",
          "name": "status",
          "type": "uint8"
        }
      ],
      "stateMutability": "view",
      "type": "function"
    },
    {
      "inputs": [
        {
          "internalType": "address",
          "name": "to",
          "type": "address"
        },
        {
          "internalType": "uint256",
          "name": "amount",
          "type": "uint256"
        },
        {
          "internalType": "string",
          "name": "toBankCode",
          "type": "string"
        },
        {
          "internalType": "string",
          "name": "description",
          "type": "string"
        }
      ],
      "name": "transfer",
      "outputs": [
        {
          "internalType": "uint256",
          "name": "",
          "type": "uint256"
        }
      ],
      "stateMutability": "nonpayable",
      "type": "function"
    },
    {
      "inputs": [
        {
          "internalType": "uint256",
          "name": "txId",
          "type": "uint256"
        },
        {
          "internalType": "enum InterbankTransfer.TransactionStatus",
          "name": "status",
          "type": "uint8"
        }
      ],
      "name": "updateTransactionStatus",
      "outputs": [],
      "stateMutability": "nonpayable",
      "type": "function"
    },
    {
      "inputs": [
        {
          "internalType": "uint256",
          "name": "amount",
          "type": "uint256"
        },
        {
          "internalType": "string",
          "name": "description",
          "type": "string"
        }
      ],
      "name": "withdraw",
      "outputs": [
        {
          "internalType": "uint256",
          "name": "",
          "type": "uint256"
        }
      ],
      "stateMutability": "nonpayable",
      "type": "function"
    }
  ],
  "devdoc": {
    "details": "Smart contract quản lý giao dịch liên ngân hàng với PKI integration - Quản lý số dư của từng bank - Xử lý chuyển tiền liên ngân hàng với KYC verification - Phát events để thông báo - Theo dõi trạng thái giao dịch - Tích hợp PKI Registry cho user authentication",
    "kind": "dev",
    "methods": {
      "addAuthorizedBank(address,string)": {
        "details": "Thêm bank được ủy quyền"
      },
      "checkTransferAuthorization(address,uint256)": {
        "details": "Check if user can transfer amount"
      },
      "deposit(address,string)": {
        "details": "Nạp tiền vào tài khoản (chỉ authorized banks)"
      },
      "getBalance(address)": {
        "details": "Lấy số dư của một address"
      },
      "getTransaction(uint256)": {
        "details": "Lấy thông tin giao dịch"
      },
      "getTransactionCount()": {
        "details": "Lấy tổng số giao dịch"
      },
      "getUserPublicKey(address)": {
        "details": "Get user's PQC public key from PKI"
      },
      "getUserTransactions(address)": {
        "details": "Lấy danh sách giao dịch của một user (sender hoặc receiver)"
      },
      "setPKIRegistry(address)": {
        "details": "Set PKI Registry address (only owner)"
      },
      "togglePKI(bool)": {
        "details": "Toggle PKI enforcement"
      },
      "transfer(address,uint256,string,string)": {
        "details": "Chuyển tiền liên ngân hàng",
        "params": {
          "amount": "Số tiền (trong wei)",
          "description": "Mô tả giao dịch",
          "to": "Địa chỉ người nhận",
          "toBankCode": "Mã ngân hàng nhận"
        },
        "returns": {
          "_0": "transactionId ID của giao dịch"
        }
      },
      "updateTransactionStatus(uint256,uint8)": {
        "details": "Cập nhật trạng thái giao dịch (chỉ owner hoặc authorized banks)"
      },
      "withdraw(uint256,string)": {
        "details": "Rút tiền từ contract (withdraw)",
        "params": {
          "amount": "Số tiền cần rút (trong wei)",
          "description": "Mô tả giao dịch rút tiền"
        },
        "returns": {
          "_0": "transactionId ID của giao dịch"
        }
      }
    },
    "title": "InterbankTransfer",
    "version": 1
  },
  "evm": {
    "assembly": "    /* \"InterbankTransfer.sol\":817:12728  contract InterbankTransfer {... */\n  mstore(0x40, 0x80)\n    /* \"InterbankTransfer.sol\":2932:3081  constructor() {... */\n  callvalue\n  dup1\n  iszero\n  tag_1\n  jumpi\n  0x00\n  dup1\n  revert\ntag_1:\n  pop\n    /* \"InterbankTransfer.sol\":2964:2974  msg.sender */\n  caller\n    /* \"InterbankTransfer.sol\":2956:2961  owner */\n  0x05\n  0x00\n    /* \"InterbankTransfer.sol\":2956:2974  owner = msg.sender */\n  0x0100\n  exp\n  dup2\n  sload\n  dup2\n  0xffffffffffffffffffffffffffffffffffffffff\n  mul\n  not\n  and\n  swap1\n  dup4\n  0xffffffffffffffffffffffffffffffffffffffff\n  and\n  mul\n  or\n  swap1\n  sstore\n  pop\n    /* \"InterbankTransfer.sol\":3005:3006  0 */\n  0x00\n    /* \"InterbankTransfer.sol\":2984:3002  transactionCounter */\n  0x07\n    /* \"InterbankTransfer.sol\":2984:3006  transactionCounter = 0 */\n  dup2\n  swap1\n  sstore\n  pop\n    /* \"InterbankTransfer.sol\":3029:3034  false */\n  0x00\n    /* \"InterbankTransfer.sol\":3016:3026  pkiEnabled */\n  dup1\n  0x14\n    /* \"InterbankTransfer.sol\":3016:3034  pkiEnabled = false */\n  0x0100\n  exp\n  dup2\n  sload\n  dup2\n  0xff\n  mul\n  not\n  and\n  swap1\n  dup4\n  iszero\n  iszero\n  mul\n  or\n  swap1\n  sstore\n  pop\n    /* \"InterbankTransfer.sol\":817:12728  contract InterbankTransfer {... */\n  dataSize(sub_0)\n  dup1\n  dataOffset(sub_0)\n  0x00\n  codecopy\n  0x00\n  return\nstop\n\nsub_0: assembly {\n        /* \"InterbankTransfer.sol\":817:12728  contract InterbankTransfer {... */\n      mstore(0x40, 0x80)\n      jumpi(tag_1, lt(calldatasize, 0x04))\n      shr(0xe0, calldataload(0x00))\n      dup1\n      0xa2969820\n      gt\n      tag_23\n      jumpi\n      dup1\n      0xcf048bed\n      gt\n      tag_24\n      jumpi\n      dup1\n      0xcf048bed\n      eq\n      tag_17\n      jumpi\n      dup1\n      0xdc048cf2\n      eq\n      tag_18\n      jumpi\n      dup1\n      0xe9c02815\n      eq\n      tag_19\n      jumpi\n      dup1\n      0xef925399\n      eq\n      tag_20\n      jumpi\n      dup1\n      0xf8b2cb4f\n      eq\n      tag_21\n      jumpi\n      dup1\n      0xf99185c2\n      eq\n      tag_22\n      jumpi\n      jump(tag_1)\n    tag_24:\n      dup1\n      0xa2969820\n      eq\n      tag_12\n      jumpi\n      dup1\n      0xa7b4ce78\n      eq\n      tag_13\n      jumpi\n      dup1\n      0xb7482509\n      eq\n      tag_14\n      jumpi\n      dup1\n      0xbafbf728\n      eq\n      tag_15\n      jumpi\n      dup1\n      0xc559e45d\n      eq\n      tag_16\n      jumpi\n      jump(tag_1)\n    tag_23:\n      dup1\n      0x33ea3dc8\n      gt\n      tag_25\n      jumpi\n      dup1\n      0x33ea3dc8\n      eq\n      tag_7\n      jumpi\n      dup1\n      0x392c5bd8\n      eq\n      tag_8\n      jumpi\n      dup1\n      0x4f480ae2\n      eq\n      tag_9\n      jumpi\n      dup1\n      0x8da5cb5b\n      eq\n      tag_10\n      jumpi\n      dup1\n      0x9ace38c2\n      eq\n      tag_11\n      jumpi\n      jump(tag_1)\n    tag_25:\n      dup1\n      0x11231fe0\n      eq\n      tag_2\n      jumpi\n      dup1\n      0x12715414\n      eq\n      tag_3\n      jumpi\n      dup1\n      0x222e1a44\n      eq\n      tag_4\n      jumpi\n      dup1\n      0x27e235e3\n      eq\n      tag_5\n      jumpi\n      dup1\n      0x2e7700f0\n      eq\n      tag_6\n      jumpi\n    tag_1:\n      0x00\n      dup1\n      revert\n        /* \"InterbankTransfer.sol\":7169:7390  function getUserPublicKey(address user) external view returns (bytes memory) {... */\n    tag_2:\n      callvalue\n      dup1\n      iszero\n      tag_26\n      jumpi\n      0x00\n      dup1\n      revert\n    tag_26:\n      pop\n      tag_27\n      0x04\n      dup1\n      calldatasize\n      sub\n      dup2\n      add\n      swap1\n      tag_28\n      swap2\n      swap1\n      tag_29\n      jump\t// in\n    tag_28:\n      tag_30\n      jump\t// in\n    tag_27:\n      mload(0x40)\n      tag_31\n      swap2\n      swap1\n      tag_32\n      jump\t// in\n    tag_31:\n      mload(0x40)\n      dup1\n      swap2\n      sub\n      swap1\n      return\n        /* \"InterbankTransfer.sol\":917:939  bool public pkiEnabled */\n    tag_3:\n      callvalue\n      dup1\n      iszero\n      tag_33\n      jumpi\n      0x00\n      dup1\n      revert\n    tag_33:\n      pop\n      tag_34\n      tag_35\n      jump\t// in\n    tag_34:\n      mload(0x40)\n      tag_36\n      swap2\n      swap1\n      tag_37\n      jump\t// in\n    tag_36:\n      mload(0x40)\n      dup1\n      swap2\n      sub\n      swap1\n      return\n        /* \"InterbankTransfer.sol\":3157:3374  function setPKIRegistry(address _pkiRegistry) external onlyOwner {... */\n    tag_4:\n      callvalue\n      dup1\n      iszero\n      tag_38\n      jumpi\n      0x00\n      dup1\n      revert\n    tag_38:\n      pop\n      tag_39\n      0x04\n      dup1\n      calldatasize\n      sub\n      dup2\n      add\n      swap1\n      tag_40\n      swap2\n      swap1\n      tag_29\n      jump\t// in\n    tag_40:\n      tag_41\n      jump\t// in\n    tag_39:\n      stop\n        /* \"InterbankTransfer.sol\":1027:1070  mapping(address => uint256) public balances */\n    tag_5:\n      callvalue\n      dup1\n      iszero\n      tag_42\n      jumpi\n      0x00\n      dup1\n      revert\n    tag_42:\n      pop\n      tag_43\n      0x04\n      dup1\n      calldatasize\n      sub\n      dup2\n      add\n      swap1\n      tag_44\n      swap2\n      swap1\n      tag_29\n      jump\t// in\n    tag_44:\n      tag_45\n      jump\t// in\n    tag_43:\n      mload(0x40)\n      tag_46\n      swap2\n      swap1\n      tag_47\n      jump\t// in\n    tag_46:\n      mload(0x40)\n      dup1\n      swap2\n      sub\n      swap1\n      return\n        /* \"InterbankTransfer.sol\":11158:11262  function getTransactionCount() public view returns (uint256) {... */\n    tag_6:\n      callvalue\n      dup1\n      iszero\n      tag_48\n      jumpi\n      0x00\n      dup1\n      revert\n    tag_48:\n      pop\n      tag_49\n      tag_50\n      jump\t// in\n    tag_49:\n      mload(0x40)\n      tag_51\n      swap2\n      swap1\n      tag_47\n      jump\t// in\n    tag_51:\n      mload(0x40)\n      dup1\n      swap2\n      sub\n      swap1\n      return\n        /* \"InterbankTransfer.sol\":10189:11090  function getTransaction(uint256 txId)... */\n    tag_7:\n      callvalue\n      dup1\n      iszero\n      tag_52\n      jumpi\n      0x00\n      dup1\n      revert\n    tag_52:\n      pop\n      tag_53\n      0x04\n      dup1\n      calldatasize\n      sub\n      dup2\n      add\n      swap1\n      tag_54\n      swap2\n      swap1\n      tag_55\n      jump\t// in\n    tag_54:\n      tag_56\n      jump\t// in\n    tag_53:\n      mload(0x40)\n      tag_57\n      swap10\n      swap9\n      swap8\n      swap7\n      swap6\n      swap5\n      swap4\n      swap3\n      swap2\n      swap1\n      tag_58\n      jump\t// in\n    tag_57:\n      mload(0x40)\n      dup1\n      swap2\n      sub\n      swap1\n      return\n        /* \"InterbankTransfer.sol\":1126:1169  mapping(address => string) public bankCodes */\n    tag_8:\n      callvalue\n      dup1\n      iszero\n      tag_59\n      jumpi\n      0x00\n      dup1\n      revert\n    tag_59:\n      pop\n      tag_60\n      0x04\n      dup1\n      calldatasize\n      sub\n      dup2\n      add\n      swap1\n      tag_61\n      swap2\n      swap1\n      tag_29\n      jump\t// in\n    tag_61:\n      tag_62\n      jump\t// in\n    tag_60:\n      mload(0x40)\n      tag_63\n      swap2\n      swap1\n      tag_64\n      jump\t// in\n    tag_63:\n      mload(0x40)\n      dup1\n      swap2\n      sub\n      swap1\n      return\n        /* \"InterbankTransfer.sol\":3435:3526  function togglePKI(bool _enabled) external onlyOwner {... */\n    tag_9:\n      callvalue\n      dup1\n      iszero\n      tag_65\n      jumpi\n      0x00\n      dup1\n      revert\n    tag_65:\n      pop\n      tag_66\n      0x04\n      dup1\n      calldatasize\n      sub\n      dup2\n      add\n      swap1\n      tag_67\n      swap2\n      swap1\n      tag_68\n      jump\t// in\n    tag_67:\n      tag_69\n      jump\t// in\n    tag_66:\n      stop\n        /* \"InterbankTransfer.sol\":2470:2490  address public owner */\n    tag_10:\n      callvalue\n      dup1\n      iszero\n      tag_70\n      jumpi\n      0x00\n      dup1\n      revert\n    tag_70:\n      pop\n      tag_71\n      tag_72\n      jump\t// in\n    tag_71:\n      mload(0x40)\n      tag_73\n      swap2\n      swap1\n      tag_74\n      jump\t// in\n    tag_73:\n      mload(0x40)\n      dup1\n      swap2\n      sub\n      swap1\n      return\n        /* \"InterbankTransfer.sol\":1686:1719  Transaction[] public transactions */\n    tag_11:\n      callvalue\n      dup1\n      iszero\n      tag_75\n      jumpi\n      0x00\n      dup1\n      revert\n    tag_75:\n      pop\n      tag_76\n      0x04\n      dup1\n      calldatasize\n      sub\n      dup2\n      add\n      swap1\n      tag_77\n      swap2\n      swap1\n      tag_55\n      jump\t// in\n    tag_77:\n      tag_78\n      jump\t// in\n    tag_76:\n      mload(0x40)\n      tag_79\n      swap10\n      swap9\n      swap8\n      swap7\n      swap6\n      swap5\n      swap4\n      swap3\n      swap2\n      swap1\n      tag_58\n      jump\t// in\n    tag_79:\n      mload(0x40)\n      dup1\n      swap2\n      sub\n      swap1\n      return\n        /* \"InterbankTransfer.sol\":2496:2543  mapping(address => bool) public authorizedBanks */\n    tag_12:\n      callvalue\n      dup1\n      iszero\n      tag_80\n      jumpi\n      0x00\n      dup1\n      revert\n    tag_80:\n      pop\n      tag_81\n      0x04\n      dup1\n      calldatasize\n      sub\n      dup2\n      add\n      swap1\n      tag_82\n      swap2\n      swap1\n      tag_29\n      jump\t// in\n    tag_82:\n      tag_83\n      jump\t// in\n    tag_81:\n      mload(0x40)\n      tag_84\n      swap2\n      swap1\n      tag_37\n      jump\t// in\n    tag_84:\n      mload(0x40)\n      dup1\n      swap2\n      sub\n      swap1\n      return\n        /* \"InterbankTransfer.sol\":880:911  IPKIRegistry public pkiRegistry */\n    tag_13:\n      callvalue\n      dup1\n      iszero\n      tag_85\n      jumpi\n      0x00\n      dup1\n      revert\n    tag_85:\n      pop\n      tag_86\n      tag_87\n      jump\t// in\n    tag_86:\n      mload(0x40)\n      tag_88\n      swap2\n      swap1\n      tag_89\n      jump\t// in\n    tag_88:\n      mload(0x40)\n      dup1\n      swap2\n      sub\n      swap1\n      return\n        /* \"InterbankTransfer.sol\":3895:4332  function deposit(address user, string memory bankCode)... */\n    tag_14:\n      tag_90\n      0x04\n      dup1\n      calldatasize\n      sub\n      dup2\n      add\n      swap1\n      tag_91\n      swap2\n      swap1\n      tag_92\n      jump\t// in\n    tag_91:\n      tag_93\n      jump\t// in\n    tag_90:\n      stop\n        /* \"InterbankTransfer.sol\":12364:12726  function updateTransactionStatus(... */\n    tag_15:\n      callvalue\n      dup1\n      iszero\n      tag_94\n      jumpi\n      0x00\n      dup1\n      revert\n    tag_94:\n      pop\n      tag_95\n      0x04\n      dup1\n      calldatasize\n      sub\n      dup2\n      add\n      swap1\n      tag_96\n      swap2\n      swap1\n      tag_97\n      jump\t// in\n    tag_96:\n      tag_98\n      jump\t// in\n    tag_95:\n      stop\n        /* \"InterbankTransfer.sol\":3597:3801  function addAuthorizedBank(address bankAddress, string memory bankCode)... */\n    tag_16:\n      callvalue\n      dup1\n      iszero\n      tag_99\n      jumpi\n      0x00\n      dup1\n      revert\n    tag_99:\n      pop\n      tag_100\n      0x04\n      dup1\n      calldatasize\n      sub\n      dup2\n      add\n      swap1\n      tag_101\n      swap2\n      swap1\n      tag_92\n      jump\t// in\n    tag_101:\n      tag_102\n      jump\t// in\n    tag_100:\n      stop\n        /* \"InterbankTransfer.sol\":7462:7774  function checkTransferAuthorization(address user, uint256 amount) external view returns (bool) {... */\n    tag_17:\n      callvalue\n      dup1\n      iszero\n      tag_103\n      jumpi\n      0x00\n      dup1\n      revert\n    tag_103:\n      pop\n      tag_104\n      0x04\n      dup1\n      calldatasize\n      sub\n      dup2\n      add\n      swap1\n      tag_105\n      swap2\n      swap1\n      tag_106\n      jump\t// in\n    tag_105:\n      tag_107\n      jump\t// in\n    tag_104:\n      mload(0x40)\n      tag_108\n      swap2\n      swap1\n      tag_37\n      jump\t// in\n    tag_108:\n      mload(0x40)\n      dup1\n      swap2\n      sub\n      swap1\n      return\n        /* \"InterbankTransfer.sol\":8014:10122  function withdraw(uint256 amount, string memory description) public returns (uint256) {... */\n    tag_18:\n      callvalue\n      dup1\n      iszero\n      tag_109\n      jumpi\n      0x00\n      dup1\n      revert\n    tag_109:\n      pop\n      tag_110\n      0x04\n      dup1\n      calldatasize\n      sub\n      dup2\n      add\n      swap1\n      tag_111\n      swap2\n      swap1\n      tag_112\n      jump\t// in\n    tag_111:\n      tag_113\n      jump\t// in\n    tag_110:\n      mload(0x40)\n      tag_114\n      swap2\n      swap1\n      tag_47\n      jump\t// in\n    tag_114:\n      mload(0x40)\n      dup1\n      swap2\n      sub\n      swap1\n      return\n        /* \"InterbankTransfer.sol\":4815:7096  function transfer(... */\n    tag_19:\n      callvalue\n      dup1\n      iszero\n      tag_115\n      jumpi\n      0x00\n      dup1\n      revert\n    tag_115:\n      pop\n      tag_116\n      0x04\n      dup1\n      calldatasize\n      sub\n      dup2\n      add\n      swap1\n      tag_117\n      swap2\n      swap1\n      tag_118\n      jump\t// in\n    tag_117:\n      tag_119\n      jump\t// in\n    tag_116:\n      mload(0x40)\n      tag_120\n      swap2\n      swap1\n      tag_47\n      jump\t// in\n    tag_120:\n      mload(0x40)\n      dup1\n      swap2\n      sub\n      swap1\n      return\n        /* \"InterbankTransfer.sol\":11371:12249  function getUserTransactions(address user)... */\n    tag_20:\n      callvalue\n      dup1\n      iszero\n      tag_121\n      jumpi\n      0x00\n      dup1\n      revert\n    tag_121:\n      pop\n      tag_122\n      0x04\n      dup1\n      calldatasize\n      sub\n      dup2\n      add\n      swap1\n      tag_123\n      swap2\n      swap1\n      tag_29\n      jump\t// in\n    tag_123:\n      tag_124\n      jump\t// in\n    tag_122:\n      mload(0x40)\n      tag_125\n      swap2\n      swap1\n      tag_126\n      jump\t// in\n    tag_125:\n      mload(0x40)\n      dup1\n      swap2\n      sub\n      swap1\n      return\n        /* \"InterbankTransfer.sol\":4405:4507  function getBalance(address user) public view returns (uint256) {... */\n    tag_21:\n      callvalue\n      dup1\n      iszero\n      tag_127\n      jumpi\n      0x00\n      dup1\n      revert\n    tag_127:\n      pop\n      tag_128\n      0x04\n      dup1\n      calldatasize\n      sub\n      dup2\n      add\n      swap1\n      tag_129\n      swap2\n      swap1\n      tag_29\n      jump\t// in\n    tag_129:\n      tag_130\n      jump\t// in\n    tag_128:\n      mload(0x40)\n      tag_131\n      swap2\n      swap1\n      tag_47\n      jump\t// in\n    tag_131:\n      mload(0x40)\n      dup1\n      swap2\n      sub\n      swap1\n      return\n        /* \"InterbankTransfer.sol\":1791:1842  mapping(uint256 => uint256) public transactionIndex */\n    tag_22:\n      callvalue\n      dup1\n      iszero\n      tag_132\n      jumpi\n      0x00\n      dup1\n      revert\n    tag_132:\n      pop\n      tag_133\n      0x04\n      dup1\n      calldatasize\n      sub\n      dup2\n      add\n      swap1\n      tag_134\n      swap2\n      swap1\n      tag_55\n      jump\t// in\n    tag_134:\n      tag_135\n      jump\t// in\n    tag_133:\n      mload(0x40)\n      tag_136\n      swap2\n      swap1\n      tag_47\n      jump\t// in\n    tag_136:\n      mload(0x40)\n      dup1\n      swap2\n      sub\n      swap1\n      return\n        /* \"InterbankTransfer.sol\":7169:7390  function getUserPublicKey(address user) external view returns (bytes memory) {... */\n    tag_30:\n        /* \"InterbankTransfer.sol\":7232:7244  bytes memory */\n      0x60\n        /* \"InterbankTransfer.sol\":7264:7274  pkiEnabled */\n      0x00\n      0x14\n      swap1\n      sload\n      swap1\n      0x0100\n      exp\n      swap1\n      div\n      0xff\n      and\n        /* \"InterbankTransfer.sol\":7264:7312  pkiEnabled && address(pkiRegistry) != address(0) */\n      dup1\n      iszero\n      tag_138\n      jumpi\n      pop\n        /* \"InterbankTransfer.sol\":7310:7311  0 */\n      0x00\n        /* \"InterbankTransfer.sol\":7278:7312  address(pkiRegistry) != address(0) */\n      0xffffffffffffffffffffffffffffffffffffffff\n      and\n        /* \"InterbankTransfer.sol\":7286:7297  pkiRegistry */\n      0x00\n      dup1\n      sload\n      swap1\n      0x0100\n      exp\n      swap1\n      div\n      0xffffffffffffffffffffffffffffffffffffffff\n      and\n        /* \"InterbankTransfer.sol\":7278:7312  address(pkiRegistry) != address(0) */\n      0xffffffffffffffffffffffffffffffffffffffff\n      and\n      eq\n      iszero\n        /* \"InterbankTransfer.sol\":7264:7312  pkiEnabled && address(pkiRegistry) != address(0) */\n    tag_138:\n        /* \"InterbankTransfer.sol\":7256:7332  require(pkiEnabled && address(pkiRegistry) != address(0), \"PKI not enabled\") */\n      tag_139\n      jumpi\n      mload(0x40)\n      0x08c379a000000000000000000000000000000000000000000000000000000000\n      dup2\n      mstore\n      0x04\n      add\n      tag_140\n      swap1\n      tag_141\n      jump\t// in\n    tag_140:\n      mload(0x40)\n      dup1\n      swap2\n      sub\n      swap1\n      revert\n    tag_139:\n        /* \"InterbankTransfer.sol\":7349:7360  pkiRegistry */\n      0x00\n      dup1\n      sload\n      swap1\n      0x0100\n      exp\n      swap1\n      div\n      0xffffffffffffffffffffffffffffffffffffffff\n      and\n        /* \"InterbankTransfer.sol\":7349:7377  pkiRegistry.getUserPublicKey */\n      0xffffffffffffffffffffffffffffffffffffffff\n      and\n      0x11231fe0\n        /* \"InterbankTransfer.sol\":7378:7382  user */\n      dup4\n        /* \"InterbankTransfer.sol\":7349:7383  pkiRegistry.getUserPublicKey(user) */\n      mload(0x40)\n      dup3\n      0xffffffff\n      and\n      0xe0\n      shl\n      dup2\n      mstore\n      0x04\n      add\n      tag_142\n      swap2\n      swap1\n      tag_74\n      jump\t// in\n    tag_142:\n      0x00\n      mload(0x40)\n      dup1\n      dup4\n      sub\n      dup2\n      dup7\n      gas\n      staticcall\n      iszero\n      dup1\n      iszero\n      tag_144\n      jumpi\n      returndatasize\n      0x00\n      dup1\n      returndatacopy\n      revert(0x00, returndatasize)\n    tag_144:\n      pop\n      pop\n      pop\n      pop\n      mload(0x40)\n      returndatasize\n      0x00\n      dup3\n      returndatacopy\n      returndatasize\n      not(0x1f)\n      0x1f\n      dup3\n      add\n      and\n      dup3\n      add\n      dup1\n      0x40\n      mstore\n      pop\n      dup2\n      add\n      swap1\n      tag_145\n      swap2\n      swap1\n      tag_146\n      jump\t// in\n    tag_145:\n        /* \"InterbankTransfer.sol\":7342:7383  return pkiRegistry.getUserPublicKey(user) */\n      swap1\n      pop\n        /* \"InterbankTransfer.sol\":7169:7390  function getUserPublicKey(address user) external view returns (bytes memory) {... */\n      swap2\n      swap1\n      pop\n      jump\t// out\n        /* \"InterbankTransfer.sol\":917:939  bool public pkiEnabled */\n    tag_35:\n      0x00\n      0x14\n      swap1\n      sload\n      swap1\n      0x0100\n      exp\n      swap1\n      div\n      0xff\n      and\n      dup2\n      jump\t// out\n        /* \"InterbankTransfer.sol\":3157:3374  function setPKIRegistry(address _pkiRegistry) external onlyOwner {... */\n    tag_41:\n        /* \"InterbankTransfer.sol\":2686:2691  owner */\n      0x05\n      0x00\n      swap1\n      sload\n      swap1\n      0x0100\n      exp\n      swap1\n      div\n      0xffffffffffffffffffffffffffffffffffffffff\n      and\n        /* \"InterbankTransfer.sol\":2672:2691  msg.sender == owner */\n      0xffffffffffffffffffffffffffffffffffffffff\n      and\n        /* \"InterbankTransfer.sol\":2672:2682  msg.sender */\n      caller\n        /* \"InterbankTransfer.sol\":2672:2691  msg.sender == owner */\n      0xffffffffffffffffffffffffffffffffffffffff\n      and\n      eq\n        /* \"InterbankTransfer.sol\":2664:2729  require(msg.sender == owner, \"Only owner can call this function\") */\n      tag_148\n      jumpi\n      mload(0x40)\n      0x08c379a000000000000000000000000000000000000000000000000000000000\n      dup2\n      mstore\n      0x04\n      add\n      tag_149\n      swap1\n      tag_150\n      jump\t// in\n    tag_149:\n      mload(0x40)\n      dup1\n      swap2\n      sub\n      swap1\n      revert\n    tag_148:\n        /* \"InterbankTransfer.sol\":3264:3265  0 */\n      0x00\n        /* \"InterbankTransfer.sol\":3240:3266  _pkiRegistry != address(0) */\n      0xffffffffffffffffffffffffffffffffffffffff\n      and\n        /* \"InterbankTransfer.sol\":3240:3252  _pkiRegistry */\n      dup2\n        /* \"InterbankTransfer.sol\":3240:3266  _pkiRegistry != address(0) */\n      0xffffffffffffffffffffffffffffffffffffffff\n      and\n      eq\n      iszero\n        /* \"InterbankTransfer.sol\":3232:3290  require(_pkiRegistry != address(0), \"Invalid PKI address\") */\n      tag_152\n      jumpi\n      mload(0x40)\n      0x08c379a000000000000000000000000000000000000000000000000000000000\n      dup2\n      mstore\n      0x04\n      add\n      tag_153\n      swap1\n      tag_154\n      jump\t// in\n    tag_153:\n      mload(0x40)\n      dup1\n      swap2\n      sub\n      swap1\n      revert\n    tag_152:\n        /* \"InterbankTransfer.sol\":3327:3339  _pkiRegistry */\n      dup1\n        /* \"InterbankTransfer.sol\":3300:3311  pkiRegistry */\n      0x00\n      dup1\n        /* \"InterbankTransfer.sol\":3300:3340  pkiRegistry = IPKIRegistry(_pkiRegistry) */\n      0x0100\n      exp\n      dup2\n      sload\n      dup2\n      0xffffffffffffffffffffffffffffffffffffffff\n      mul\n      not\n      and\n      swap1\n      dup4\n      0xffffffffffffffffffffffffffffffffffffffff\n      and\n      mul\n      or\n      swap1\n      sstore\n      pop\n        /* \"InterbankTransfer.sol\":3363:3367  true */\n      0x01\n        /* \"InterbankTransfer.sol\":3350:3360  pkiEnabled */\n      0x00\n      0x14\n        /* \"InterbankTransfer.sol\":3350:3367  pkiEnabled = true */\n      0x0100\n      exp\n      dup2\n      sload\n      dup2\n      0xff\n      mul\n      not\n      and\n      swap1\n      dup4\n      iszero\n      iszero\n      mul\n      or\n      swap1\n      sstore\n      pop\n        /* \"InterbankTransfer.sol\":3157:3374  function setPKIRegistry(address _pkiRegistry) external onlyOwner {... */\n      pop\n      jump\t// out\n        /* \"InterbankTransfer.sol\":1027:1070  mapping(address => uint256) public balances */\n    tag_45:\n      mstore(0x20, 0x01)\n      dup1\n      0x00\n      mstore\n      keccak256(0x00, 0x40)\n      0x00\n      swap2\n      pop\n      swap1\n      pop\n      sload\n      dup2\n      jump\t// out\n        /* \"InterbankTransfer.sol\":11158:11262  function getTransactionCount() public view returns (uint256) {... */\n    tag_50:\n        /* \"InterbankTransfer.sol\":11210:11217  uint256 */\n      0x00\n        /* \"InterbankTransfer.sol\":11236:11248  transactions */\n      0x03\n        /* \"InterbankTransfer.sol\":11236:11255  transactions.length */\n      dup1\n      sload\n      swap1\n      pop\n        /* \"InterbankTransfer.sol\":11229:11255  return transactions.length */\n      swap1\n      pop\n        /* \"InterbankTransfer.sol\":11158:11262  function getTransactionCount() public view returns (uint256) {... */\n      swap1\n      jump\t// out\n        /* \"InterbankTransfer.sol\":10189:11090  function getTransaction(uint256 txId)... */\n    tag_56:\n        /* \"InterbankTransfer.sol\":10285:10295  uint256 id */\n      0x00\n        /* \"InterbankTransfer.sol\":10309:10321  address from */\n      dup1\n        /* \"InterbankTransfer.sol\":10335:10345  address to */\n      0x00\n        /* \"InterbankTransfer.sol\":10359:10373  uint256 amount */\n      dup1\n        /* \"InterbankTransfer.sol\":10387:10409  string memory fromBank */\n      0x60\n        /* \"InterbankTransfer.sol\":10423:10443  string memory toBank */\n      dup1\n        /* \"InterbankTransfer.sol\":10457:10482  string memory description */\n      0x60\n        /* \"InterbankTransfer.sol\":10496:10513  uint256 timestamp */\n      0x00\n        /* \"InterbankTransfer.sol\":10527:10551  TransactionStatus status */\n      dup1\n        /* \"InterbankTransfer.sol\":10591:10592  0 */\n      0x00\n        /* \"InterbankTransfer.sol\":10584:10588  txId */\n      dup11\n        /* \"InterbankTransfer.sol\":10584:10592  txId > 0 */\n      gt\n        /* \"InterbankTransfer.sol\":10584:10622  txId > 0 && txId <= transactionCounter */\n      dup1\n      iszero\n      tag_157\n      jumpi\n      pop\n        /* \"InterbankTransfer.sol\":10604:10622  transactionCounter */\n      sload(0x07)\n        /* \"InterbankTransfer.sol\":10596:10600  txId */\n      dup11\n        /* \"InterbankTransfer.sol\":10596:10622  txId <= transactionCounter */\n      gt\n      iszero\n        /* \"InterbankTransfer.sol\":10584:10622  txId > 0 && txId <= transactionCounter */\n    tag_157:\n        /* \"InterbankTransfer.sol\":10576:10649  require(txId > 0 && txId <= transactionCounter, \"Invalid transaction ID\") */\n      tag_158\n      jumpi\n      mload(0x40)\n      0x08c379a000000000000000000000000000000000000000000000000000000000\n      dup2\n      mstore\n      0x04\n      add\n      tag_159\n      swap1\n      tag_160\n      jump\t// in\n    tag_159:\n      mload(0x40)\n      dup1\n      swap2\n      sub\n      swap1\n      revert\n    tag_158:\n        /* \"InterbankTransfer.sol\":10659:10672  uint256 index */\n      0x00\n        /* \"InterbankTransfer.sol\":10675:10691  transactionIndex */\n      0x04\n        /* \"InterbankTransfer.sol\":10675:10697  transactionIndex[txId] */\n      0x00\n        /* \"InterbankTransfer.sol\":10692:10696  txId */\n      dup13\n        /* \"InterbankTransfer.sol\":10675:10697  transactionIndex[txId] */\n      dup2\n      mstore\n      0x20\n      add\n      swap1\n      dup2\n      mstore\n      0x20\n      add\n      0x00\n      keccak256\n      sload\n        /* \"InterbankTransfer.sol\":10659:10697  uint256 index = transactionIndex[txId] */\n      swap1\n      pop\n        /* \"InterbankTransfer.sol\":10707:10737  Transaction memory transaction */\n      0x00\n        /* \"InterbankTransfer.sol\":10740:10752  transactions */\n      0x03\n        /* \"InterbankTransfer.sol\":10753:10758  index */\n      dup3\n        /* \"InterbankTransfer.sol\":10740:10759  transactions[index] */\n      dup2\n      sload\n      dup2\n      lt\n      tag_161\n      jumpi\n      tag_162\n      tag_163\n      jump\t// in\n    tag_162:\n    tag_161:\n      swap1\n      0x00\n      mstore\n      keccak256(0x00, 0x20)\n      swap1\n      0x09\n      mul\n      add\n        /* \"InterbankTransfer.sol\":10707:10759  Transaction memory transaction = transactions[index] */\n      mload(0x40)\n      dup1\n      0x0120\n      add\n      0x40\n      mstore\n      swap1\n      dup2\n      0x00\n      dup3\n      add\n      sload\n      dup2\n      mstore\n      0x20\n      add\n      0x01\n      dup3\n      add\n      0x00\n      swap1\n      sload\n      swap1\n      0x0100\n      exp\n      swap1\n      div\n      0xffffffffffffffffffffffffffffffffffffffff\n      and\n      0xffffffffffffffffffffffffffffffffffffffff\n      and\n      0xffffffffffffffffffffffffffffffffffffffff\n      and\n      dup2\n      mstore\n      0x20\n      add\n      0x02\n      dup3\n      add\n      0x00\n      swap1\n      sload\n      swap1\n      0x0100\n      exp\n      swap1\n      div\n      0xffffffffffffffffffffffffffffffffffffffff\n      and\n      0xffffffffffffffffffffffffffffffffffffffff\n      and\n      0xffffffffffffffffffffffffffffffffffffffff\n      and\n      dup2\n      mstore\n      0x20\n      add\n      0x03\n      dup3\n      add\n      sload\n      dup2\n      mstore\n      0x20\n      add\n      0x04\n      dup3\n      add\n      dup1\n      sload\n      tag_165\n      swap1\n      tag_166\n      jump\t// in\n    tag_165:\n      dup1\n      0x1f\n      add\n      0x20\n      dup1\n      swap2\n      div\n      mul\n      0x20\n      add\n      mload(0x40)\n      swap1\n      dup2\n      add\n      0x40\n      mstore\n      dup1\n      swap3\n      swap2\n      swap1\n      dup2\n      dup2\n      mstore\n      0x20\n      add\n      dup3\n      dup1\n      sload\n      tag_167\n      swap1\n      tag_166\n      jump\t// in\n    tag_167:\n      dup1\n      iszero\n      tag_168\n      jumpi\n      dup1\n      0x1f\n      lt\n      tag_169\n      jumpi\n      0x0100\n      dup1\n      dup4\n      sload\n      div\n      mul\n      dup4\n      mstore\n      swap2\n      0x20\n      add\n      swap2\n      jump(tag_168)\n    tag_169:\n      dup3\n      add\n      swap2\n      swap1\n      0x00\n      mstore\n      keccak256(0x00, 0x20)\n      swap1\n    tag_170:\n      dup2\n      sload\n      dup2\n      mstore\n      swap1\n      0x01\n      add\n      swap1\n      0x20\n      add\n      dup1\n      dup4\n      gt\n      tag_170\n      jumpi\n      dup3\n      swap1\n      sub\n      0x1f\n      and\n      dup3\n      add\n      swap2\n    tag_168:\n      pop\n      pop\n      pop\n      pop\n      pop\n      dup2\n      mstore\n      0x20\n      add\n      0x05\n      dup3\n      add\n      dup1\n      sload\n      tag_171\n      swap1\n      tag_166\n      jump\t// in\n    tag_171:\n      dup1\n      0x1f\n      add\n      0x20\n      dup1\n      swap2\n      div\n      mul\n      0x20\n      add\n      mload(0x40)\n      swap1\n      dup2\n      add\n      0x40\n      mstore\n      dup1\n      swap3\n      swap2\n      swap1\n      dup2\n      dup2\n      mstore\n      0x20\n      add\n      dup3\n      dup1\n      sload\n      tag_172\n      swap1\n      tag_166\n      jump\t// in\n    tag_172:\n      dup1\n      iszero\n      tag_173\n      jumpi\n      dup1\n      0x1f\n      lt\n      tag_174\n      jumpi\n      0x0100\n      dup1\n      dup4\n      sload\n      div\n      mul\n      dup4\n      mstore\n      swap2\n      0x20\n      add\n      swap2\n      jump(tag_173)\n    tag_174:\n      dup3\n      add\n      swap2\n      swap1\n      0x00\n      mstore\n      keccak256(0x00, 0x20)\n      swap1\n    tag_175:\n      dup2\n      sload\n      dup2\n      mstore\n      swap1\n      0x01\n      add\n      swap1\n      0x20\n      add\n      dup1\n      dup4\n      gt\n      tag_175\n      jumpi\n      dup3\n      swap1\n      sub\n      0x1f\n      and\n      dup3\n      add\n      swap2\n    tag_173:\n      pop\n      pop\n      pop\n      pop\n      pop\n      dup2\n      mstore\n      0x20\n      add\n      0x06\n      dup3\n      add\n      dup1\n      sload\n      tag_176\n      swap1\n      tag_166\n      jump\t// in\n    tag_176:\n      dup1\n      0x1f\n      add\n      0x20\n      dup1\n      swap2\n      div\n      mul\n      0x20\n      add\n      mload(0x40)\n      swap1\n      dup2\n      add\n      0x40\n      mstore\n      dup1\n      swap3\n      swap2\n      swap1\n      dup2\n      dup2\n      mstore\n      0x20\n      add\n      dup3\n      dup1\n      sload\n      tag_177\n      swap1\n      tag_166\n      jump\t// in\n    tag_177:\n      dup1\n      iszero\n      tag_178\n      jumpi\n      dup1\n      0x1f\n      lt\n      tag_179\n      jumpi\n      0x0100\n      dup1\n      dup4\n      sload\n      div\n      mul\n      dup4\n      mstore\n      swap2\n      0x20\n      add\n      swap2\n      jump(tag_178)\n    tag_179:\n      dup3\n      add\n      swap2\n      swap1\n      0x00\n      mstore\n      keccak256(0x00, 0x20)\n      swap1\n    tag_180:\n      dup2\n      sload\n      dup2\n      mstore\n      swap1\n      0x01\n      add\n      swap1\n      0x20\n      add\n      dup1\n      dup4\n      gt\n      tag_180\n      jumpi\n      dup3\n      swap1\n      sub\n      0x1f\n      and\n      dup3\n      add\n      swap2\n    tag_178:\n      pop\n      pop\n      pop\n      pop\n      pop\n      dup2\n      mstore\n      0x20\n      add\n      0x07\n      dup3\n      add\n      sload\n      dup2\n      mstore\n      0x20\n      add\n      0x08\n      dup3\n      add\n      0x00\n      swap1\n      sload\n      swap1\n      0x0100\n      exp\n      swap1\n      div\n      0xff\n      and\n      0x03\n      dup2\n      gt\n      iszero\n      tag_181\n      jumpi\n      tag_182\n      tag_183\n      jump\t// in\n    tag_182:\n    tag_181:\n      0x03\n      dup2\n      gt\n      iszero\n      tag_184\n      jumpi\n      tag_185\n      tag_183\n      jump\t// in\n    tag_185:\n    tag_184:\n      dup2\n      mstore\n      pop\n      pop\n      swap1\n      pop\n        /* \"InterbankTransfer.sol\":10799:10810  transaction */\n      dup1\n        /* \"InterbankTransfer.sol\":10799:10813  transaction.id */\n      0x00\n      add\n      mload\n        /* \"InterbankTransfer.sol\":10827:10838  transaction */\n      dup2\n        /* \"InterbankTransfer.sol\":10827:10843  transaction.from */\n      0x20\n      add\n      mload\n        /* \"InterbankTransfer.sol\":10857:10868  transaction */\n      dup3\n        /* \"InterbankTransfer.sol\":10857:10871  transaction.to */\n      0x40\n      add\n      mload\n        /* \"InterbankTransfer.sol\":10885:10896  transaction */\n      dup4\n        /* \"InterbankTransfer.sol\":10885:10903  transaction.amount */\n      0x60\n      add\n      mload\n        /* \"InterbankTransfer.sol\":10917:10928  transaction */\n      dup5\n        /* \"InterbankTransfer.sol\":10917:10937  transaction.fromBank */\n      0x80\n      add\n      mload\n        /* \"InterbankTransfer.sol\":10951:10962  transaction */\n      dup6\n        /* \"InterbankTransfer.sol\":10951:10969  transaction.toBank */\n      0xa0\n      add\n      mload\n        /* \"InterbankTransfer.sol\":10983:10994  transaction */\n      dup7\n        /* \"InterbankTransfer.sol\":10983:11006  transaction.description */\n      0xc0\n      add\n      mload\n        /* \"InterbankTransfer.sol\":11020:11031  transaction */\n      dup8\n        /* \"InterbankTransfer.sol\":11020:11041  transaction.timestamp */\n      0xe0\n      add\n      mload\n        /* \"InterbankTransfer.sol\":11055:11066  transaction */\n      dup9\n        /* \"InterbankTransfer.sol\":11055:11073  transaction.status */\n      0x0100\n      add\n      mload\n        /* \"InterbankTransfer.sol\":10778:11083  return (... */\n      swap11\n      pop\n      swap11\n      pop\n      swap11\n      pop\n      swap11\n      pop\n      swap11\n      pop\n      swap11\n      pop\n      swap11\n      pop\n      swap11\n      pop\n      swap11\n      pop\n      pop\n      pop\n        /* \"InterbankTransfer.sol\":10189:11090  function getTransaction(uint256 txId)... */\n      swap2\n      swap4\n      swap6\n      swap8\n      swap10\n      swap1\n      swap3\n      swap5\n      swap7\n      swap9\n      pop\n      jump\t// out\n        /* \"InterbankTransfer.sol\":1126:1169  mapping(address => string) public bankCodes */\n    tag_62:\n      mstore(0x20, 0x02)\n      dup1\n      0x00\n      mstore\n      keccak256(0x00, 0x40)\n      0x00\n      swap2\n      pop\n      swap1\n      pop\n      dup1\n      sload\n      tag_186\n      swap1\n      tag_166\n      jump\t// in\n    tag_186:\n      dup1\n      0x1f\n      add\n      0x20\n      dup1\n      swap2\n      div\n      mul\n      0x20\n      add\n      mload(0x40)\n      swap1\n      dup2\n      add\n      0x40\n      mstore\n      dup1\n      swap3\n      swap2\n      swap1\n      dup2\n      dup2\n      mstore\n      0x20\n      add\n      dup3\n      dup1\n      sload\n      tag_187\n      swap1\n      tag_166\n      jump\t// in\n    tag_187:\n      dup1\n      iszero\n      tag_188\n      jumpi\n      dup1\n      0x1f\n      lt\n      tag_189\n      jumpi\n      0x0100\n      dup1\n      dup4\n      sload\n      div\n      mul\n      dup4\n      mstore\n      swap2\n      0x20\n      add\n      swap2\n      jump(tag_188)\n    tag_189:\n      dup3\n      add\n      swap2\n      swap1\n      0x00\n      mstore\n      keccak256(0x00, 0x20)\n      swap1\n    tag_190:\n      dup2\n      sload\n      dup2\n      mstore\n      swap1\n      0x01\n      add\n      swap1\n      0x20\n      add\n      dup1\n      dup4\n      gt\n      tag_190\n      jumpi\n      dup3\n      swap1\n      sub\n      0x1f\n      and\n      dup3\n      add\n      swap2\n    tag_188:\n      pop\n      pop\n      pop\n      pop\n      pop\n      dup2\n      jump\t// out\n        /* \"InterbankTransfer.sol\":3435:3526  function togglePKI(bool _enabled) external onlyOwner {... */\n    tag_69:\n        /* \"InterbankTransfer.sol\":2686:2691  owner */\n      0x05\n      0x00\n      swap1\n      sload\n      swap1\n      0x0100\n      exp\n      swap1\n      div\n      0xffffffffffffffffffffffffffffffffffffffff\n      and\n        /* \"InterbankTransfer.sol\":2672:2691  msg.sender == owner */\n      0xffffffffffffffffffffffffffffffffffffffff\n      and\n        /* \"InterbankTransfer.sol\":2672:2682  msg.sender */\n      caller\n        /* \"InterbankTransfer.sol\":2672:2691  msg.sender == owner */\n      0xffffffffffffffffffffffffffffffffffffffff\n      and\n      eq\n        /* \"InterbankTransfer.sol\":2664:2729  require(msg.sender == owner, \"Only owner can call this function\") */\n      tag_192\n      jumpi\n      mload(0x40)\n      0x08c379a000000000000000000000000000000000000000000000000000000000\n      dup2\n      mstore\n      0x04\n      add\n      tag_193\n      swap1\n      tag_150\n      jump\t// in\n    tag_193:\n      mload(0x40)\n      dup1\n      swap2\n      sub\n      swap1\n      revert\n    tag_192:\n        /* \"InterbankTransfer.sol\":3511:3519  _enabled */\n      dup1\n        /* \"InterbankTransfer.sol\":3498:3508  pkiEnabled */\n      0x00\n      0x14\n        /* \"InterbankTransfer.sol\":3498:3519  pkiEnabled = _enabled */\n      0x0100\n      exp\n      dup2\n      sload\n      dup2\n      0xff\n      mul\n      not\n      and\n      swap1\n      dup4\n      iszero\n      iszero\n      mul\n      or\n      swap1\n      sstore\n      pop\n        /* \"InterbankTransfer.sol\":3435:3526  function togglePKI(bool _enabled) external onlyOwner {... */\n      pop\n      jump\t// out\n        /* \"InterbankTransfer.sol\":2470:2490  address public owner */\n    tag_72:\n      0x05\n      0x00\n      swap1\n      sload\n      swap1\n      0x0100\n      exp\n      swap1\n      div\n      0xffffffffffffffffffffffffffffffffffffffff\n      and\n      dup2\n      jump\t// out\n        /* \"InterbankTransfer.sol\":1686:1719  Transaction[] public transactions */\n    tag_78:\n      0x03\n      dup2\n      dup2\n      sload\n      dup2\n      lt\n      tag_195\n      jumpi\n      0x00\n      dup1\n      revert\n    tag_195:\n      swap1\n      0x00\n      mstore\n      keccak256(0x00, 0x20)\n      swap1\n      0x09\n      mul\n      add\n      0x00\n      swap2\n      pop\n      swap1\n      pop\n      dup1\n      0x00\n      add\n      sload\n      swap1\n      dup1\n      0x01\n      add\n      0x00\n      swap1\n      sload\n      swap1\n      0x0100\n      exp\n      swap1\n      div\n      0xffffffffffffffffffffffffffffffffffffffff\n      and\n      swap1\n      dup1\n      0x02\n      add\n      0x00\n      swap1\n      sload\n      swap1\n      0x0100\n      exp\n      swap1\n      div\n      0xffffffffffffffffffffffffffffffffffffffff\n      and\n      swap1\n      dup1\n      0x03\n      add\n      sload\n      swap1\n      dup1\n      0x04\n      add\n      dup1\n      sload\n      tag_197\n      swap1\n      tag_166\n      jump\t// in\n    tag_197:\n      dup1\n      0x1f\n      add\n      0x20\n      dup1\n      swap2\n      div\n      mul\n      0x20\n      add\n      mload(0x40)\n      swap1\n      dup2\n      add\n      0x40\n      mstore\n      dup1\n      swap3\n      swap2\n      swap1\n      dup2\n      dup2\n      mstore\n      0x20\n      add\n      dup3\n      dup1\n      sload\n      tag_198\n      swap1\n      tag_166\n      jump\t// in\n    tag_198:\n      dup1\n      iszero\n      tag_199\n      jumpi\n      dup1\n      0x1f\n      lt\n      tag_200\n      jumpi\n      0x0100\n      dup1\n      dup4\n      sload\n      div\n      mul\n      dup4\n      mstore\n      swap2\n      0x20\n      add\n      swap2\n      jump(tag_199)\n    tag_200:\n      dup3\n      add\n      swap2\n      swap1\n      0x00\n      mstore\n      keccak256(0x00, 0x20)\n      swap1\n    tag_201:\n      dup2\n      sload\n      dup2\n      mstore\n      swap1\n      0x01\n      add\n      swap1\n      0x20\n      add\n      dup1\n      dup4\n      gt\n      tag_201\n      jumpi\n      dup3\n      swap1\n      sub\n      0x1f\n      and\n      dup3\n      add\n      swap2\n    tag_199:\n      pop\n      pop\n      pop\n      pop\n      pop\n      swap1\n      dup1\n      0x05\n      add\n      dup1\n      sload\n      tag_202\n      swap1\n      tag_166\n      jump\t// in\n    tag_202:\n      dup1\n      0x1f\n      add\n      0x20\n      dup1\n      swap2\n      div\n      mul\n      0x20\n      add\n      mload(0x40)\n      swap1\n      dup2\n      add\n      0x40\n      mstore\n      dup1\n      swap3\n      swap2\n      swap1\n      dup2\n      dup2\n      mstore\n      0x20\n      add\n      dup3\n      dup1\n      sload\n      tag_203\n      swap1\n      tag_166\n      jump\t// in\n    tag_203:\n      dup1\n      iszero\n      tag_204\n      jumpi\n      dup1\n      0x1f\n      lt\n      tag_205\n      jumpi\n      0x0100\n      dup1\n      dup4\n      sload\n      div\n      mul\n      dup4\n      mstore\n      swap2\n      0x20\n      add\n      swap2\n      jump(tag_204)\n    tag_205:\n      dup3\n      add\n      swap2\n      swap1\n      0x00\n      mstore\n      keccak256(0x00, 0x20)\n      swap1\n    tag_206:\n      dup2\n      sload\n      dup2\n      mstore\n      swap1\n      0x01\n      add\n      swap1\n      0x20\n      add\n      dup1\n      dup4\n      gt\n      tag_206\n      jumpi\n      dup3\n      swap1\n      sub\n      0x1f\n      and\n      dup3\n      add\n      swap2\n    tag_204:\n      pop\n      pop\n      pop\n      pop\n      pop\n      swap1\n      dup1\n      0x06\n      add\n      dup1\n      sload\n      tag_207\n      swap1\n      tag_166\n      jump\t// in\n    tag_207:\n      dup1\n      0x1f\n      add\n      0x20\n      dup1\n      swap2\n      div\n      mul\n      0x20\n      add\n      mload(0x40)\n      swap1\n      dup2\n      add\n      0x40\n      mstore\n      dup1\n      swap3\n      swap2\n      swap1\n      dup2\n      dup2\n      mstore\n      0x20\n      add\n      dup3\n      dup1\n      sload\n      tag_208\n      swap1\n      tag_166\n      jump\t// in\n    tag_208:\n      dup1\n      iszero\n      tag_209\n      jumpi\n      dup1\n      0x1f\n      lt\n      tag_210\n      jumpi\n      0x0100\n      dup1\n      dup4\n      sload\n      div\n      mul\n      dup4\n      mstore\n      swap2\n      0x20\n      add\n      swap2\n      jump(tag_209)\n    tag_210:\n      dup3\n      add\n      swap2\n      swap1\n      0x00\n      mstore\n      keccak256(0x00, 0x20)\n      swap1\n    tag_211:\n      dup2\n      sload\n      dup2\n      mstore\n      swap1\n      0x01\n      add\n      swap1\n      0x20\n      add\n      dup1\n      dup4\n      gt\n      tag_211\n      jumpi\n      dup3\n      swap1\n      sub\n      0x1f\n      and\n      dup3\n      add\n      swap2\n    tag_209:\n      pop\n      pop\n      pop\n      pop\n      pop\n      swap1\n      dup1\n      0x07\n      add\n      sload\n      swap1\n      dup1\n      0x08\n      add\n      0x00\n      swap1\n      sload\n      swap1\n      0x0100\n      exp\n      swap1\n      div\n      0xff\n      and\n      swap1\n      pop\n      dup10\n      jump\t// out\n        /* \"InterbankTransfer.sol\":2496:2543  mapping(address => bool) public authorizedBanks */\n    tag_83:\n      mstore(0x20, 0x06)\n      dup1\n      0x00\n      mstore\n      keccak256(0x00, 0x40)\n      0x00\n      swap2\n      pop\n      sload\n      swap1\n      0x0100\n      exp\n      swap1\n      div\n      0xff\n      and\n      dup2\n      jump\t// out\n        /* \"InterbankTransfer.sol\":880:911  IPKIRegistry public pkiRegistry */\n    tag_87:\n      0x00\n      dup1\n      sload\n      swap1\n      0x0100\n      exp\n      swap1\n      div\n      0xffffffffffffffffffffffffffffffffffffffff\n      and\n      dup2\n      jump\t// out\n        /* \"InterbankTransfer.sol\":3895:4332  function deposit(address user, string memory bankCode)... */\n    tag_93:\n        /* \"InterbankTransfer.sol\":2814:2829  authorizedBanks */\n      0x06\n        /* \"InterbankTransfer.sol\":2814:2841  authorizedBanks[msg.sender] */\n      0x00\n        /* \"InterbankTransfer.sol\":2830:2840  msg.sender */\n      caller\n        /* \"InterbankTransfer.sol\":2814:2841  authorizedBanks[msg.sender] */\n      0xffffffffffffffffffffffffffffffffffffffff\n      and\n      0xffffffffffffffffffffffffffffffffffffffff\n      and\n      dup2\n      mstore\n      0x20\n      add\n      swap1\n      dup2\n      mstore\n      0x20\n      add\n      0x00\n      keccak256\n      0x00\n      swap1\n      sload\n      swap1\n      0x0100\n      exp\n      swap1\n      div\n      0xff\n      and\n        /* \"InterbankTransfer.sol\":2814:2864  authorizedBanks[msg.sender] || msg.sender == owner */\n      dup1\n      tag_213\n      jumpi\n      pop\n        /* \"InterbankTransfer.sol\":2859:2864  owner */\n      0x05\n      0x00\n      swap1\n      sload\n      swap1\n      0x0100\n      exp\n      swap1\n      div\n      0xffffffffffffffffffffffffffffffffffffffff\n      and\n        /* \"InterbankTransfer.sol\":2845:2864  msg.sender == owner */\n      0xffffffffffffffffffffffffffffffffffffffff\n      and\n        /* \"InterbankTransfer.sol\":2845:2855  msg.sender */\n      caller\n        /* \"InterbankTransfer.sol\":2845:2864  msg.sender == owner */\n      0xffffffffffffffffffffffffffffffffffffffff\n      and\n      eq\n        /* \"InterbankTransfer.sol\":2814:2864  authorizedBanks[msg.sender] || msg.sender == owner */\n    tag_213:\n        /* \"InterbankTransfer.sol\":2793:2904  require(... */\n      tag_214\n      jumpi\n      mload(0x40)\n      0x08c379a000000000000000000000000000000000000000000000000000000000\n      dup2\n      mstore\n      0x04\n      add\n      tag_215\n      swap1\n      tag_216\n      jump\t// in\n    tag_215:\n      mload(0x40)\n      dup1\n      swap2\n      sub\n      swap1\n      revert\n    tag_214:\n        /* \"InterbankTransfer.sol\":4042:4043  0 */\n      0x00\n        /* \"InterbankTransfer.sol\":4026:4044  user != address(0) */\n      0xffffffffffffffffffffffffffffffffffffffff\n      and\n        /* \"InterbankTransfer.sol\":4026:4030  user */\n      dup3\n        /* \"InterbankTransfer.sol\":4026:4044  user != address(0) */\n      0xffffffffffffffffffffffffffffffffffffffff\n      and\n      eq\n      iszero\n        /* \"InterbankTransfer.sol\":4018:4069  require(user != address(0), \"Invalid user address\") */\n      tag_218\n      jumpi\n      mload(0x40)\n      0x08c379a000000000000000000000000000000000000000000000000000000000\n      dup2\n      mstore\n      0x04\n      add\n      tag_219\n      swap1\n      tag_220\n      jump\t// in\n    tag_219:\n      mload(0x40)\n      dup1\n      swap2\n      sub\n      swap1\n      revert\n    tag_218:\n        /* \"InterbankTransfer.sol\":4099:4100  0 */\n      0x00\n        /* \"InterbankTransfer.sol\":4087:4096  msg.value */\n      callvalue\n        /* \"InterbankTransfer.sol\":4087:4100  msg.value > 0 */\n      gt\n        /* \"InterbankTransfer.sol\":4079:4134  require(msg.value > 0, \"Amount must be greater than 0\") */\n      tag_221\n      jumpi\n      mload(0x40)\n      0x08c379a000000000000000000000000000000000000000000000000000000000\n      dup2\n      mstore\n      0x04\n      add\n      tag_222\n      swap1\n      tag_223\n      jump\t// in\n    tag_222:\n      mload(0x40)\n      dup1\n      swap2\n      sub\n      swap1\n      revert\n    tag_221:\n        /* \"InterbankTransfer.sol\":4171:4180  msg.value */\n      callvalue\n        /* \"InterbankTransfer.sol\":4153:4161  balances */\n      0x01\n        /* \"InterbankTransfer.sol\":4153:4167  balances[user] */\n      0x00\n        /* \"InterbankTransfer.sol\":4162:4166  user */\n      dup5\n        /* \"InterbankTransfer.sol\":4153:4167  balances[user] */\n      0xffffffffffffffffffffffffffffffffffffffff\n      and\n      0xffffffffffffffffffffffffffffffffffffffff\n      and\n      dup2\n      mstore\n      0x20\n      add\n      swap1\n      dup2\n      mstore\n      0x20\n      add\n      0x00\n      keccak256\n      0x00\n        /* \"InterbankTransfer.sol\":4153:4180  balances[user] += msg.value */\n      dup3\n      dup3\n      sload\n      tag_224\n      swap2\n      swap1\n      tag_225\n      jump\t// in\n    tag_224:\n      swap3\n      pop\n      pop\n      dup2\n      swap1\n      sstore\n      pop\n        /* \"InterbankTransfer.sol\":4208:4216  bankCode */\n      dup1\n        /* \"InterbankTransfer.sol\":4190:4199  bankCodes */\n      0x02\n        /* \"InterbankTransfer.sol\":4190:4205  bankCodes[user] */\n      0x00\n        /* \"InterbankTransfer.sol\":4200:4204  user */\n      dup5\n        /* \"InterbankTransfer.sol\":4190:4205  bankCodes[user] */\n      0xffffffffffffffffffffffffffffffffffffffff\n      and\n      0xffffffffffffffffffffffffffffffffffffffff\n      and\n      dup2\n      mstore\n      0x20\n      add\n      swap1\n      dup2\n      mstore\n      0x20\n      add\n      0x00\n      keccak256\n        /* \"InterbankTransfer.sol\":4190:4216  bankCodes[user] = bankCode */\n      swap1\n      dup1\n      mload\n      swap1\n      0x20\n      add\n      swap1\n      tag_226\n      swap3\n      swap2\n      swap1\n      tag_227\n      jump\t// in\n    tag_226:\n      pop\n        /* \"InterbankTransfer.sol\":4248:4252  user */\n      dup2\n        /* \"InterbankTransfer.sol\":4240:4274  Deposit(user, msg.value, bankCode) */\n      0xffffffffffffffffffffffffffffffffffffffff\n      and\n      0x643e927b32d5bfd08eccd2fcbd97057ad413850f857a2359639114e8e8dd3d7b\n        /* \"InterbankTransfer.sol\":4254:4263  msg.value */\n      callvalue\n        /* \"InterbankTransfer.sol\":4265:4273  bankCode */\n      dup4\n        /* \"InterbankTransfer.sol\":4240:4274  Deposit(user, msg.value, bankCode) */\n      mload(0x40)\n      tag_228\n      swap3\n      swap2\n      swap1\n      tag_229\n      jump\t// in\n    tag_228:\n      mload(0x40)\n      dup1\n      swap2\n      sub\n      swap1\n      log2\n        /* \"InterbankTransfer.sol\":4304:4308  user */\n      dup2\n        /* \"InterbankTransfer.sol\":4289:4325  BalanceUpdated(user, balances[user]) */\n      0xffffffffffffffffffffffffffffffffffffffff\n      and\n      0x8ad64a0ac7700dd8425ab0499f107cb6e2cd1581d803c5b8c1c79dcb8190b1af\n        /* \"InterbankTransfer.sol\":4310:4318  balances */\n      0x01\n        /* \"InterbankTransfer.sol\":4310:4324  balances[user] */\n      0x00\n        /* \"InterbankTransfer.sol\":4319:4323  user */\n      dup6\n        /* \"InterbankTransfer.sol\":4310:4324  balances[user] */\n      0xffffffffffffffffffffffffffffffffffffffff\n      and\n      0xffffffffffffffffffffffffffffffffffffffff\n      and\n      dup2\n      mstore\n      0x20\n      add\n      swap1\n      dup2\n      mstore\n      0x20\n      add\n      0x00\n      keccak256\n      sload\n        /* \"InterbankTransfer.sol\":4289:4325  BalanceUpdated(user, balances[user]) */\n      mload(0x40)\n      tag_230\n      swap2\n      swap1\n      tag_47\n      jump\t// in\n    tag_230:\n      mload(0x40)\n      dup1\n      swap2\n      sub\n      swap1\n      log2\n        /* \"InterbankTransfer.sol\":3895:4332  function deposit(address user, string memory bankCode)... */\n      pop\n      pop\n      jump\t// out\n        /* \"InterbankTransfer.sol\":12364:12726  function updateTransactionStatus(... */\n    tag_98:\n        /* \"InterbankTransfer.sol\":2814:2829  authorizedBanks */\n      0x06\n        /* \"InterbankTransfer.sol\":2814:2841  authorizedBanks[msg.sender] */\n      0x00\n        /* \"InterbankTransfer.sol\":2830:2840  msg.sender */\n      caller\n        /* \"InterbankTransfer.sol\":2814:2841  authorizedBanks[msg.sender] */\n      0xffffffffffffffffffffffffffffffffffffffff\n      and\n      0xffffffffffffffffffffffffffffffffffffffff\n      and\n      dup2\n      mstore\n      0x20\n      add\n      swap1\n      dup2\n      mstore\n      0x20\n      add\n      0x00\n      keccak256\n      0x00\n      swap1\n      sload\n      swap1\n      0x0100\n      exp\n      swap1\n      div\n      0xff\n      and\n        /* \"InterbankTransfer.sol\":2814:2864  authorizedBanks[msg.sender] || msg.sender == owner */\n      dup1\n      tag_232\n      jumpi\n      pop\n        /* \"InterbankTransfer.sol\":2859:2864  owner */\n      0x05\n      0x00\n      swap1\n      sload\n      swap1\n      0x0100\n      exp\n      swap1\n      div\n      0xffffffffffffffffffffffffffffffffffffffff\n      and\n        /* \"InterbankTransfer.sol\":2845:2864  msg.sender == owner */\n      0xffffffffffffffffffffffffffffffffffffffff\n      and\n        /* \"InterbankTransfer.sol\":2845:2855  msg.sender */\n      caller\n        /* \"InterbankTransfer.sol\":2845:2864  msg.sender == owner */\n      0xffffffffffffffffffffffffffffffffffffffff\n      and\n      eq\n        /* \"InterbankTransfer.sol\":2814:2864  authorizedBanks[msg.sender] || msg.sender == owner */\n    tag_232:\n        /* \"InterbankTransfer.sol\":2793:2904  require(... */\n      tag_233\n      jumpi\n      mload(0x40)\n      0x08c379a000000000000000000000000000000000000000000000000000000000\n      dup2\n      mstore\n      0x04\n      add\n      tag_234\n      swap1\n      tag_216\n      jump\t// in\n    tag_234:\n      mload(0x40)\n      dup1\n      swap2\n      sub\n      swap1\n      revert\n    tag_233:\n        /* \"InterbankTransfer.sol\":12506:12507  0 */\n      0x00\n        /* \"InterbankTransfer.sol\":12499:12503  txId */\n      dup3\n        /* \"InterbankTransfer.sol\":12499:12507  txId > 0 */\n      gt\n        /* \"InterbankTransfer.sol\":12499:12537  txId > 0 && txId <= transactionCounter */\n      dup1\n      iszero\n      tag_236\n      jumpi\n      pop\n        /* \"InterbankTransfer.sol\":12519:12537  transactionCounter */\n      sload(0x07)\n        /* \"InterbankTransfer.sol\":12511:12515  txId */\n      dup3\n        /* \"InterbankTransfer.sol\":12511:12537  txId <= transactionCounter */\n      gt\n      iszero\n        /* \"InterbankTransfer.sol\":12499:12537  txId > 0 && txId <= transactionCounter */\n    tag_236:\n        /* \"InterbankTransfer.sol\":12491:12564  require(txId > 0 && txId <= transactionCounter, \"Invalid transaction ID\") */\n      tag_237\n      jumpi\n      mload(0x40)\n      0x08c379a000000000000000000000000000000000000000000000000000000000\n      dup2\n      mstore\n      0x04\n      add\n      tag_238\n      swap1\n      tag_160\n      jump\t// in\n    tag_238:\n      mload(0x40)\n      dup1\n      swap2\n      sub\n      swap1\n      revert\n    tag_237:\n        /* \"InterbankTransfer.sol\":12574:12587  uint256 index */\n      0x00\n        /* \"InterbankTransfer.sol\":12590:12606  transactionIndex */\n      0x04\n        /* \"InterbankTransfer.sol\":12590:12612  transactionIndex[txId] */\n      0x00\n        /* \"InterbankTransfer.sol\":12607:12611  txId */\n      dup5\n        /* \"InterbankTransfer.sol\":12590:12612  transactionIndex[txId] */\n      dup2\n      mstore\n      0x20\n      add\n      swap1\n      dup2\n      mstore\n      0x20\n      add\n      0x00\n      keccak256\n      sload\n        /* \"InterbankTransfer.sol\":12574:12612  uint256 index = transactionIndex[txId] */\n      swap1\n      pop\n        /* \"InterbankTransfer.sol\":12651:12657  status */\n      dup2\n        /* \"InterbankTransfer.sol\":12622:12634  transactions */\n      0x03\n        /* \"InterbankTransfer.sol\":12635:12640  index */\n      dup3\n        /* \"InterbankTransfer.sol\":12622:12641  transactions[index] */\n      dup2\n      sload\n      dup2\n      lt\n      tag_239\n      jumpi\n      tag_240\n      tag_163\n      jump\t// in\n    tag_240:\n    tag_239:\n      swap1\n      0x00\n      mstore\n      keccak256(0x00, 0x20)\n      swap1\n      0x09\n      mul\n      add\n        /* \"InterbankTransfer.sol\":12622:12648  transactions[index].status */\n      0x08\n      add\n      0x00\n        /* \"InterbankTransfer.sol\":12622:12657  transactions[index].status = status */\n      0x0100\n      exp\n      dup2\n      sload\n      dup2\n      0xff\n      mul\n      not\n      and\n      swap1\n      dup4\n      0x03\n      dup2\n      gt\n      iszero\n      tag_242\n      jumpi\n      tag_243\n      tag_183\n      jump\t// in\n    tag_243:\n    tag_242:\n      mul\n      or\n      swap1\n      sstore\n      pop\n        /* \"InterbankTransfer.sol\":12706:12710  txId */\n      dup3\n        /* \"InterbankTransfer.sol\":12681:12719  TransactionStatusChanged(txId, status) */\n      0x3013893708bd175bc8eeedd6ea1e367024bbc9bc7b110e7ed37bc77aceac57\n        /* \"InterbankTransfer.sol\":12712:12718  status */\n      dup4\n        /* \"InterbankTransfer.sol\":12681:12719  TransactionStatusChanged(txId, status) */\n      mload(0x40)\n      tag_244\n      swap2\n      swap1\n      tag_245\n      jump\t// in\n    tag_244:\n      mload(0x40)\n      dup1\n      swap2\n      sub\n      swap1\n      log2\n        /* \"InterbankTransfer.sol\":12481:12726  {... */\n      pop\n        /* \"InterbankTransfer.sol\":12364:12726  function updateTransactionStatus(... */\n      pop\n      pop\n      jump\t// out\n        /* \"InterbankTransfer.sol\":3597:3801  function addAuthorizedBank(address bankAddress, string memory bankCode)... */\n    tag_102:\n        /* \"InterbankTransfer.sol\":2686:2691  owner */\n      0x05\n      0x00\n      swap1\n      sload\n      swap1\n      0x0100\n      exp\n      swap1\n      div\n      0xffffffffffffffffffffffffffffffffffffffff\n      and\n        /* \"InterbankTransfer.sol\":2672:2691  msg.sender == owner */\n      0xffffffffffffffffffffffffffffffffffffffff\n      and\n        /* \"InterbankTransfer.sol\":2672:2682  msg.sender */\n      caller\n        /* \"InterbankTransfer.sol\":2672:2691  msg.sender == owner */\n      0xffffffffffffffffffffffffffffffffffffffff\n      and\n      eq\n        /* \"InterbankTransfer.sol\":2664:2729  require(msg.sender == owner, \"Only owner can call this function\") */\n      tag_247\n      jumpi\n      mload(0x40)\n      0x08c379a000000000000000000000000000000000000000000000000000000000\n      dup2\n      mstore\n      0x04\n      add\n      tag_248\n      swap1\n      tag_150\n      jump\t// in\n    tag_248:\n      mload(0x40)\n      dup1\n      swap2\n      sub\n      swap1\n      revert\n    tag_247:\n        /* \"InterbankTransfer.sol\":3747:3751  true */\n      0x01\n        /* \"InterbankTransfer.sol\":3716:3731  authorizedBanks */\n      0x06\n        /* \"InterbankTransfer.sol\":3716:3744  authorizedBanks[bankAddress] */\n      0x00\n        /* \"InterbankTransfer.sol\":3732:3743  bankAddress */\n      dup5\n        /* \"InterbankTransfer.sol\":3716:3744  authorizedBanks[bankAddress] */\n      0xffffffffffffffffffffffffffffffffffffffff\n      and\n      0xffffffffffffffffffffffffffffffffffffffff\n      and\n      dup2\n      mstore\n      0x20\n      add\n      swap1\n      dup2\n      mstore\n      0x20\n      add\n      0x00\n      keccak256\n      0x00\n        /* \"InterbankTransfer.sol\":3716:3751  authorizedBanks[bankAddress] = true */\n      0x0100\n      exp\n      dup2\n      sload\n      dup2\n      0xff\n      mul\n      not\n      and\n      swap1\n      dup4\n      iszero\n      iszero\n      mul\n      or\n      swap1\n      sstore\n      pop\n        /* \"InterbankTransfer.sol\":3786:3794  bankCode */\n      dup1\n        /* \"InterbankTransfer.sol\":3761:3770  bankCodes */\n      0x02\n        /* \"InterbankTransfer.sol\":3761:3783  bankCodes[bankAddress] */\n      0x00\n        /* \"InterbankTransfer.sol\":3771:3782  bankAddress */\n      dup5\n        /* \"InterbankTransfer.sol\":3761:3783  bankCodes[bankAddress] */\n      0xffffffffffffffffffffffffffffffffffffffff\n      and\n      0xffffffffffffffffffffffffffffffffffffffff\n      and\n      dup2\n      mstore\n      0x20\n      add\n      swap1\n      dup2\n      mstore\n      0x20\n      add\n      0x00\n      keccak256\n        /* \"InterbankTransfer.sol\":3761:3794  bankCodes[bankAddress] = bankCode */\n      swap1\n      dup1\n      mload\n      swap1\n      0x20\n      add\n      swap1\n      tag_250\n      swap3\n      swap2\n      swap1\n      tag_227\n      jump\t// in\n    tag_250:\n      pop\n        /* \"InterbankTransfer.sol\":3597:3801  function addAuthorizedBank(address bankAddress, string memory bankCode)... */\n      pop\n      pop\n      jump\t// out\n        /* \"InterbankTransfer.sol\":7462:7774  function checkTransferAuthorization(address user, uint256 amount) external view returns (bool) {... */\n    tag_107:\n        /* \"InterbankTransfer.sol\":7551:7555  bool */\n      0x00\n        /* \"InterbankTransfer.sol\":7572:7582  pkiEnabled */\n      dup1\n      0x14\n      swap1\n      sload\n      swap1\n      0x0100\n      exp\n      swap1\n      div\n      0xff\n      and\n        /* \"InterbankTransfer.sol\":7571:7582  !pkiEnabled */\n      iszero\n        /* \"InterbankTransfer.sol\":7571:7620  !pkiEnabled || address(pkiRegistry) == address(0) */\n      dup1\n      tag_252\n      jumpi\n      pop\n        /* \"InterbankTransfer.sol\":7618:7619  0 */\n      0x00\n        /* \"InterbankTransfer.sol\":7586:7620  address(pkiRegistry) == address(0) */\n      0xffffffffffffffffffffffffffffffffffffffff\n      and\n        /* \"InterbankTransfer.sol\":7594:7605  pkiRegistry */\n      0x00\n      dup1\n      sload\n      swap1\n      0x0100\n      exp\n      swap1\n      div\n      0xffffffffffffffffffffffffffffffffffffffff\n      and\n        /* \"InterbankTransfer.sol\":7586:7620  address(pkiRegistry) == address(0) */\n      0xffffffffffffffffffffffffffffffffffffffff\n      and\n      eq\n        /* \"InterbankTransfer.sol\":7571:7620  !pkiEnabled || address(pkiRegistry) == address(0) */\n    tag_252:\n        /* \"InterbankTransfer.sol\":7567:7678  if (!pkiEnabled || address(pkiRegistry) == address(0)) {... */\n      iszero\n      tag_253\n      jumpi\n        /* \"InterbankTransfer.sol\":7643:7647  true */\n      0x01\n        /* \"InterbankTransfer.sol\":7636:7647  return true */\n      swap1\n      pop\n      jump(tag_251)\n        /* \"InterbankTransfer.sol\":7567:7678  if (!pkiEnabled || address(pkiRegistry) == address(0)) {... */\n    tag_253:\n        /* \"InterbankTransfer.sol\":7694:7705  pkiRegistry */\n      0x00\n      dup1\n      sload\n      swap1\n      0x0100\n      exp\n      swap1\n      div\n      0xffffffffffffffffffffffffffffffffffffffff\n      and\n        /* \"InterbankTransfer.sol\":7694:7716  pkiRegistry.isKYCValid */\n      0xffffffffffffffffffffffffffffffffffffffff\n      and\n      0xcf0e0f9d\n        /* \"InterbankTransfer.sol\":7717:7721  user */\n      dup5\n        /* \"InterbankTransfer.sol\":7694:7722  pkiRegistry.isKYCValid(user) */\n      mload(0x40)\n      dup3\n      0xffffffff\n      and\n      0xe0\n      shl\n      dup2\n      mstore\n      0x04\n      add\n      tag_254\n      swap2\n      swap1\n      tag_74\n      jump\t// in\n    tag_254:\n      0x20\n      mload(0x40)\n      dup1\n      dup4\n      sub\n      dup2\n      dup7\n      gas\n      staticcall\n      iszero\n      dup1\n      iszero\n      tag_256\n      jumpi\n      returndatasize\n      0x00\n      dup1\n      returndatacopy\n      revert(0x00, returndatasize)\n    tag_256:\n      pop\n      pop\n      pop\n      pop\n      mload(0x40)\n      returndatasize\n      not(0x1f)\n      0x1f\n      dup3\n      add\n      and\n      dup3\n      add\n      dup1\n      0x40\n      mstore\n      pop\n      dup2\n      add\n      swap1\n      tag_257\n      swap2\n      swap1\n      tag_258\n      jump\t// in\n    tag_257:\n        /* \"InterbankTransfer.sol\":7694:7767  pkiRegistry.isKYCValid(user) && pkiRegistry.canUserTransfer(user, amount) */\n      dup1\n      iszero\n      tag_259\n      jumpi\n      pop\n        /* \"InterbankTransfer.sol\":7726:7737  pkiRegistry */\n      0x00\n      dup1\n      sload\n      swap1\n      0x0100\n      exp\n      swap1\n      div\n      0xffffffffffffffffffffffffffffffffffffffff\n      and\n        /* \"InterbankTransfer.sol\":7726:7753  pkiRegistry.canUserTransfer */\n      0xffffffffffffffffffffffffffffffffffffffff\n      and\n      0x76031448\n        /* \"InterbankTransfer.sol\":7754:7758  user */\n      dup5\n        /* \"InterbankTransfer.sol\":7760:7766  amount */\n      dup5\n        /* \"InterbankTransfer.sol\":7726:7767  pkiRegistry.canUserTransfer(user, amount) */\n      mload(0x40)\n      dup4\n      0xffffffff\n      and\n      0xe0\n      shl\n      dup2\n      mstore\n      0x04\n      add\n      tag_260\n      swap3\n      swap2\n      swap1\n      tag_261\n      jump\t// in\n    tag_260:\n      0x20\n      mload(0x40)\n      dup1\n      dup4\n      sub\n      dup2\n      dup7\n      gas\n      staticcall\n      iszero\n      dup1\n      iszero\n      tag_263\n      jumpi\n      returndatasize\n      0x00\n      dup1\n      returndatacopy\n      revert(0x00, returndatasize)\n    tag_263:\n      pop\n      pop\n      pop\n      pop\n      mload(0x40)\n      returndatasize\n      not(0x1f)\n      0x1f\n      dup3\n      add\n      and\n      dup3\n      add\n      dup1\n      0x40\n      mstore\n      pop\n      dup2\n      add\n      swap1\n      tag_264\n      swap2\n      swap1\n      tag_258\n      jump\t// in\n    tag_264:\n        /* \"InterbankTransfer.sol\":7694:7767  pkiRegistry.isKYCValid(user) && pkiRegistry.canUserTransfer(user, amount) */\n    tag_259:\n        /* \"InterbankTransfer.sol\":7687:7767  return pkiRegistry.isKYCValid(user) && pkiRegistry.canUserTransfer(user, amount) */\n      swap1\n      pop\n        /* \"InterbankTransfer.sol\":7462:7774  function checkTransferAuthorization(address user, uint256 amount) external view returns (bool) {... */\n    tag_251:\n      swap3\n      swap2\n      pop\n      pop\n      jump\t// out\n        /* \"InterbankTransfer.sol\":8014:10122  function withdraw(uint256 amount, string memory description) public returns (uint256) {... */\n    tag_113:\n        /* \"InterbankTransfer.sol\":8091:8098  uint256 */\n      0x00\n        /* \"InterbankTransfer.sol\":8127:8128  0 */\n      dup1\n        /* \"InterbankTransfer.sol\":8118:8124  amount */\n      dup4\n        /* \"InterbankTransfer.sol\":8118:8128  amount > 0 */\n      gt\n        /* \"InterbankTransfer.sol\":8110:8162  require(amount > 0, \"Amount must be greater than 0\") */\n      tag_266\n      jumpi\n      mload(0x40)\n      0x08c379a000000000000000000000000000000000000000000000000000000000\n      dup2\n      mstore\n      0x04\n      add\n      tag_267\n      swap1\n      tag_223\n      jump\t// in\n    tag_267:\n      mload(0x40)\n      dup1\n      swap2\n      sub\n      swap1\n      revert\n    tag_266:\n        /* \"InterbankTransfer.sol\":8204:8210  amount */\n      dup3\n        /* \"InterbankTransfer.sol\":8180:8188  balances */\n      0x01\n        /* \"InterbankTransfer.sol\":8180:8200  balances[msg.sender] */\n      0x00\n        /* \"InterbankTransfer.sol\":8189:8199  msg.sender */\n      caller\n        /* \"InterbankTransfer.sol\":8180:8200  balances[msg.sender] */\n      0xffffffffffffffffffffffffffffffffffffffff\n      and\n      0xffffffffffffffffffffffffffffffffffffffff\n      and\n      dup2\n      mstore\n      0x20\n      add\n      swap1\n      dup2\n      mstore\n      0x20\n      add\n      0x00\n      keccak256\n      sload\n        /* \"InterbankTransfer.sol\":8180:8210  balances[msg.sender] >= amount */\n      lt\n      iszero\n        /* \"InterbankTransfer.sol\":8172:8235  require(balances[msg.sender] >= amount, \"Insufficient balance\") */\n      tag_268\n      jumpi\n      mload(0x40)\n      0x08c379a000000000000000000000000000000000000000000000000000000000\n      dup2\n      mstore\n      0x04\n      add\n      tag_269\n      swap1\n      tag_270\n      jump\t// in\n    tag_269:\n      mload(0x40)\n      dup1\n      swap2\n      sub\n      swap1\n      revert\n    tag_268:\n        /* \"InterbankTransfer.sol\":8329:8339  pkiEnabled */\n      0x00\n      0x14\n      swap1\n      sload\n      swap1\n      0x0100\n      exp\n      swap1\n      div\n      0xff\n      and\n        /* \"InterbankTransfer.sol\":8329:8377  pkiEnabled && address(pkiRegistry) != address(0) */\n      dup1\n      iszero\n      tag_271\n      jumpi\n      pop\n        /* \"InterbankTransfer.sol\":8375:8376  0 */\n      0x00\n        /* \"InterbankTransfer.sol\":8343:8377  address(pkiRegistry) != address(0) */\n      0xffffffffffffffffffffffffffffffffffffffff\n      and\n        /* \"InterbankTransfer.sol\":8351:8362  pkiRegistry */\n      0x00\n      dup1\n      sload\n      swap1\n      0x0100\n      exp\n      swap1\n      div\n      0xffffffffffffffffffffffffffffffffffffffff\n      and\n        /* \"InterbankTransfer.sol\":8343:8377  address(pkiRegistry) != address(0) */\n      0xffffffffffffffffffffffffffffffffffffffff\n      and\n      eq\n      iszero\n        /* \"InterbankTransfer.sol\":8329:8377  pkiEnabled && address(pkiRegistry) != address(0) */\n    tag_271:\n        /* \"InterbankTransfer.sol\":8325:8569  if (pkiEnabled && address(pkiRegistry) != address(0)) {... */\n      iszero\n      tag_272\n      jumpi\n        /* \"InterbankTransfer.sol\":8401:8412  pkiRegistry */\n      0x00\n      dup1\n      sload\n      swap1\n      0x0100\n      exp\n      swap1\n      div\n      0xffffffffffffffffffffffffffffffffffffffff\n      and\n        /* \"InterbankTransfer.sol\":8401:8423  pkiRegistry.isKYCValid */\n      0xffffffffffffffffffffffffffffffffffffffff\n      and\n      0xcf0e0f9d\n        /* \"InterbankTransfer.sol\":8424:8434  msg.sender */\n      caller\n        /* \"InterbankTransfer.sol\":8401:8435  pkiRegistry.isKYCValid(msg.sender) */\n      mload(0x40)\n      dup3\n      0xffffffff\n      and\n      0xe0\n      shl\n      dup2\n      mstore\n      0x04\n      add\n      tag_273\n      swap2\n      swap1\n      tag_74\n      jump\t// in\n    tag_273:\n      0x20\n      mload(0x40)\n      dup1\n      dup4\n      sub\n      dup2\n      dup7\n      gas\n      staticcall\n      iszero\n      dup1\n      iszero\n      tag_275\n      jumpi\n      returndatasize\n      0x00\n      dup1\n      returndatacopy\n      revert(0x00, returndatasize)\n    tag_275:\n      pop\n      pop\n      pop\n      pop\n      mload(0x40)\n      returndatasize\n      not(0x1f)\n      0x1f\n      dup3\n      add\n      and\n      dup3\n      add\n      dup1\n      0x40\n      mstore\n      pop\n      dup2\n      add\n      swap1\n      tag_276\n      swap2\n      swap1\n      tag_258\n      jump\t// in\n    tag_276:\n        /* \"InterbankTransfer.sol\":8393:8453  require(pkiRegistry.isKYCValid(msg.sender), \"KYC not valid\") */\n      tag_277\n      jumpi\n      mload(0x40)\n      0x08c379a000000000000000000000000000000000000000000000000000000000\n      dup2\n      mstore\n      0x04\n      add\n      tag_278\n      swap1\n      tag_279\n      jump\t// in\n    tag_278:\n      mload(0x40)\n      dup1\n      swap2\n      sub\n      swap1\n      revert\n    tag_277:\n        /* \"InterbankTransfer.sol\":8325:8569  if (pkiEnabled && address(pkiRegistry) != address(0)) {... */\n    tag_272:\n        /* \"InterbankTransfer.sol\":8622:8640  transactionCounter */\n      0x07\n      0x00\n        /* \"InterbankTransfer.sol\":8622:8642  transactionCounter++ */\n      dup2\n      sload\n      dup1\n      swap3\n      swap2\n      swap1\n      tag_280\n      swap1\n      tag_281\n      jump\t// in\n    tag_280:\n      swap2\n      swap1\n      pop\n      sstore\n      pop\n        /* \"InterbankTransfer.sol\":8652:8664  uint256 txId */\n      0x00\n        /* \"InterbankTransfer.sol\":8667:8685  transactionCounter */\n      sload(0x07)\n        /* \"InterbankTransfer.sol\":8652:8685  uint256 txId = transactionCounter */\n      swap1\n      pop\n        /* \"InterbankTransfer.sol\":8704:8728  Transaction memory newTx */\n      0x00\n        /* \"InterbankTransfer.sol\":8731:9094  Transaction({... */\n      mload(0x40)\n      dup1\n      0x0120\n      add\n      0x40\n      mstore\n      dup1\n        /* \"InterbankTransfer.sol\":8761:8765  txId */\n      dup4\n        /* \"InterbankTransfer.sol\":8731:9094  Transaction({... */\n      dup2\n      mstore\n      0x20\n      add\n        /* \"InterbankTransfer.sol\":8785:8795  msg.sender */\n      caller\n        /* \"InterbankTransfer.sol\":8731:9094  Transaction({... */\n      0xffffffffffffffffffffffffffffffffffffffff\n      and\n      dup2\n      mstore\n      0x20\n      add\n        /* \"InterbankTransfer.sol\":8821:8822  0 */\n      0x00\n        /* \"InterbankTransfer.sol\":8731:9094  Transaction({... */\n      0xffffffffffffffffffffffffffffffffffffffff\n      and\n      dup2\n      mstore\n      0x20\n      add\n        /* \"InterbankTransfer.sol\":8873:8879  amount */\n      dup7\n        /* \"InterbankTransfer.sol\":8731:9094  Transaction({... */\n      dup2\n      mstore\n      0x20\n      add\n        /* \"InterbankTransfer.sol\":8903:8912  bankCodes */\n      0x02\n        /* \"InterbankTransfer.sol\":8903:8924  bankCodes[msg.sender] */\n      0x00\n        /* \"InterbankTransfer.sol\":8913:8923  msg.sender */\n      caller\n        /* \"InterbankTransfer.sol\":8903:8924  bankCodes[msg.sender] */\n      0xffffffffffffffffffffffffffffffffffffffff\n      and\n      0xffffffffffffffffffffffffffffffffffffffff\n      and\n      dup2\n      mstore\n      0x20\n      add\n      swap1\n      dup2\n      mstore\n      0x20\n      add\n      0x00\n      keccak256\n        /* \"InterbankTransfer.sol\":8731:9094  Transaction({... */\n      dup1\n      sload\n      tag_282\n      swap1\n      tag_166\n      jump\t// in\n    tag_282:\n      dup1\n      0x1f\n      add\n      0x20\n      dup1\n      swap2\n      div\n      mul\n      0x20\n      add\n      mload(0x40)\n      swap1\n      dup2\n      add\n      0x40\n      mstore\n      dup1\n      swap3\n      swap2\n      swap1\n      dup2\n      dup2\n      mstore\n      0x20\n      add\n      dup3\n      dup1\n      sload\n      tag_283\n      swap1\n      tag_166\n      jump\t// in\n    tag_283:\n      dup1\n      iszero\n      tag_284\n      jumpi\n      dup1\n      0x1f\n      lt\n      tag_285\n      jumpi\n      0x0100\n      dup1\n      dup4\n      sload\n      div\n      mul\n      dup4\n      mstore\n      swap2\n      0x20\n      add\n      swap2\n      jump(tag_284)\n    tag_285:\n      dup3\n      add\n      swap2\n      swap1\n      0x00\n      mstore\n      keccak256(0x00, 0x20)\n      swap1\n    tag_286:\n      dup2\n      sload\n      dup2\n      mstore\n      swap1\n      0x01\n      add\n      swap1\n      0x20\n      add\n      dup1\n      dup4\n      gt\n      tag_286\n      jumpi\n      dup3\n      swap1\n      sub\n      0x1f\n      and\n      dup3\n      add\n      swap2\n    tag_284:\n      pop\n      pop\n      pop\n      pop\n      pop\n      dup2\n      mstore\n      0x20\n      add\n      mload(0x40)\n      dup1\n      0x40\n      add\n      0x40\n      mstore\n      dup1\n      0x0a\n      dup2\n      mstore\n      0x20\n      add\n      0x5749544844524157414c00000000000000000000000000000000000000000000\n      dup2\n      mstore\n      pop\n      dup2\n      mstore\n      0x20\n      add\n        /* \"InterbankTransfer.sol\":8985:8996  description */\n      dup6\n        /* \"InterbankTransfer.sol\":8731:9094  Transaction({... */\n      dup2\n      mstore\n      0x20\n      add\n        /* \"InterbankTransfer.sol\":9021:9036  block.timestamp */\n      timestamp\n        /* \"InterbankTransfer.sol\":8731:9094  Transaction({... */\n      dup2\n      mstore\n      0x20\n      add\n        /* \"InterbankTransfer.sol\":9058:9083  TransactionStatus.Pending */\n      0x00\n        /* \"InterbankTransfer.sol\":8731:9094  Transaction({... */\n      0x03\n      dup2\n      gt\n      iszero\n      tag_287\n      jumpi\n      tag_288\n      tag_183\n      jump\t// in\n    tag_288:\n    tag_287:\n      dup2\n      mstore\n      pop\n        /* \"InterbankTransfer.sol\":8704:9094  Transaction memory newTx = Transaction({... */\n      swap1\n      pop\n        /* \"InterbankTransfer.sol\":9113:9125  transactions */\n      0x03\n        /* \"InterbankTransfer.sol\":9131:9136  newTx */\n      dup2\n        /* \"InterbankTransfer.sol\":9113:9137  transactions.push(newTx) */\n      swap1\n      dup1\n      0x01\n      dup2\n      sload\n      add\n      dup1\n      dup3\n      sstore\n      dup1\n      swap2\n      pop\n      pop\n      0x01\n      swap1\n      sub\n      swap1\n      0x00\n      mstore\n      keccak256(0x00, 0x20)\n      swap1\n      0x09\n      mul\n      add\n      0x00\n      swap1\n      swap2\n      swap1\n      swap2\n      swap1\n      swap2\n      pop\n      0x00\n      dup3\n      add\n      mload\n      dup2\n      0x00\n      add\n      sstore\n      0x20\n      dup3\n      add\n      mload\n      dup2\n      0x01\n      add\n      exp(0x0100, 0x00)\n      dup2\n      sload\n      dup2\n      0xffffffffffffffffffffffffffffffffffffffff\n      mul\n      not\n      and\n      swap1\n      dup4\n      0xffffffffffffffffffffffffffffffffffffffff\n      and\n      mul\n      or\n      swap1\n      sstore\n      pop\n      0x40\n      dup3\n      add\n      mload\n      dup2\n      0x02\n      add\n      exp(0x0100, 0x00)\n      dup2\n      sload\n      dup2\n      0xffffffffffffffffffffffffffffffffffffffff\n      mul\n      not\n      and\n      swap1\n      dup4\n      0xffffffffffffffffffffffffffffffffffffffff\n      and\n      mul\n      or\n      swap1\n      sstore\n      pop\n      0x60\n      dup3\n      add\n      mload\n      dup2\n      0x03\n      add\n      sstore\n      0x80\n      dup3\n      add\n      mload\n      dup2\n      0x04\n      add\n      swap1\n      dup1\n      mload\n      swap1\n      0x20\n      add\n      swap1\n      tag_290\n      swap3\n      swap2\n      swap1\n      tag_227\n      jump\t// in\n    tag_290:\n      pop\n      0xa0\n      dup3\n      add\n      mload\n      dup2\n      0x05\n      add\n      swap1\n      dup1\n      mload\n      swap1\n      0x20\n      add\n      swap1\n      tag_291\n      swap3\n      swap2\n      swap1\n      tag_227\n      jump\t// in\n    tag_291:\n      pop\n      0xc0\n      dup3\n      add\n      mload\n      dup2\n      0x06\n      add\n      swap1\n      dup1\n      mload\n      swap1\n      0x20\n      add\n      swap1\n      tag_292\n      swap3\n      swap2\n      swap1\n      tag_227\n      jump\t// in\n    tag_292:\n      pop\n      0xe0\n      dup3\n      add\n      mload\n      dup2\n      0x07\n      add\n      sstore\n      0x0100\n      dup3\n      add\n      mload\n      dup2\n      0x08\n      add\n      exp(0x0100, 0x00)\n      dup2\n      sload\n      dup2\n      0xff\n      mul\n      not\n      and\n      swap1\n      dup4\n      0x03\n      dup2\n      gt\n      iszero\n      tag_293\n      jumpi\n      tag_294\n      tag_183\n      jump\t// in\n    tag_294:\n    tag_293:\n      mul\n      or\n      swap1\n      sstore\n      pop\n      pop\n      pop\n        /* \"InterbankTransfer.sol\":9194:9195  1 */\n      0x01\n        /* \"InterbankTransfer.sol\":9172:9184  transactions */\n      0x03\n        /* \"InterbankTransfer.sol\":9172:9191  transactions.length */\n      dup1\n      sload\n      swap1\n      pop\n        /* \"InterbankTransfer.sol\":9172:9195  transactions.length - 1 */\n      tag_295\n      swap2\n      swap1\n      tag_296\n      jump\t// in\n    tag_295:\n        /* \"InterbankTransfer.sol\":9147:9163  transactionIndex */\n      0x04\n        /* \"InterbankTransfer.sol\":9147:9169  transactionIndex[txId] */\n      0x00\n        /* \"InterbankTransfer.sol\":9164:9168  txId */\n      dup5\n        /* \"InterbankTransfer.sol\":9147:9169  transactionIndex[txId] */\n      dup2\n      mstore\n      0x20\n      add\n      swap1\n      dup2\n      mstore\n      0x20\n      add\n      0x00\n      keccak256\n        /* \"InterbankTransfer.sol\":9147:9195  transactionIndex[txId] = transactions.length - 1 */\n      dup2\n      swap1\n      sstore\n      pop\n        /* \"InterbankTransfer.sol\":9278:9284  amount */\n      dup5\n        /* \"InterbankTransfer.sol\":9254:9262  balances */\n      0x01\n        /* \"InterbankTransfer.sol\":9254:9274  balances[msg.sender] */\n      0x00\n        /* \"InterbankTransfer.sol\":9263:9273  msg.sender */\n      caller\n        /* \"InterbankTransfer.sol\":9254:9274  balances[msg.sender] */\n      0xffffffffffffffffffffffffffffffffffffffff\n      and\n      0xffffffffffffffffffffffffffffffffffffffff\n      and\n      dup2\n      mstore\n      0x20\n      add\n      swap1\n      dup2\n      mstore\n      0x20\n      add\n      0x00\n      keccak256\n      0x00\n        /* \"InterbankTransfer.sol\":9254:9284  balances[msg.sender] -= amount */\n      dup3\n      dup3\n      sload\n      tag_297\n      swap2\n      swap1\n      tag_296\n      jump\t// in\n    tag_297:\n      swap3\n      pop\n      pop\n      dup2\n      swap1\n      sstore\n      pop\n        /* \"InterbankTransfer.sol\":9388:9415  TransactionStatus.Completed */\n      0x02\n        /* \"InterbankTransfer.sol\":9341:9353  transactions */\n      0x03\n        /* \"InterbankTransfer.sol\":9376:9377  1 */\n      0x01\n        /* \"InterbankTransfer.sol\":9354:9366  transactions */\n      0x03\n        /* \"InterbankTransfer.sol\":9354:9373  transactions.length */\n      dup1\n      sload\n      swap1\n      pop\n        /* \"InterbankTransfer.sol\":9354:9377  transactions.length - 1 */\n      tag_298\n      swap2\n      swap1\n      tag_296\n      jump\t// in\n    tag_298:\n        /* \"InterbankTransfer.sol\":9341:9378  transactions[transactions.length - 1] */\n      dup2\n      sload\n      dup2\n      lt\n      tag_299\n      jumpi\n      tag_300\n      tag_163\n      jump\t// in\n    tag_300:\n    tag_299:\n      swap1\n      0x00\n      mstore\n      keccak256(0x00, 0x20)\n      swap1\n      0x09\n      mul\n      add\n        /* \"InterbankTransfer.sol\":9341:9385  transactions[transactions.length - 1].status */\n      0x08\n      add\n      0x00\n        /* \"InterbankTransfer.sol\":9341:9415  transactions[transactions.length - 1].status = TransactionStatus.Completed */\n      0x0100\n      exp\n      dup2\n      sload\n      dup2\n      0xff\n      mul\n      not\n      and\n      swap1\n      dup4\n      0x03\n      dup2\n      gt\n      iszero\n      tag_302\n      jumpi\n      tag_303\n      tag_183\n      jump\t// in\n    tag_303:\n    tag_302:\n      mul\n      or\n      swap1\n      sstore\n      pop\n        /* \"InterbankTransfer.sol\":9535:9536  0 */\n      0x00\n        /* \"InterbankTransfer.sol\":9463:9682  Transfer(... */\n      0xffffffffffffffffffffffffffffffffffffffff\n      and\n        /* \"InterbankTransfer.sol\":9503:9513  msg.sender */\n      caller\n        /* \"InterbankTransfer.sol\":9463:9682  Transfer(... */\n      0xffffffffffffffffffffffffffffffffffffffff\n      and\n        /* \"InterbankTransfer.sol\":9485:9489  txId */\n      dup4\n        /* \"InterbankTransfer.sol\":9463:9682  Transfer(... */\n      0x82e8134a6a3a6586eab71827e213b1a1f6c8b261024adbecf466eeb0240bb916\n        /* \"InterbankTransfer.sol\":9551:9557  amount */\n      dup9\n        /* \"InterbankTransfer.sol\":9571:9580  bankCodes */\n      0x02\n        /* \"InterbankTransfer.sol\":9571:9592  bankCodes[msg.sender] */\n      0x00\n        /* \"InterbankTransfer.sol\":9581:9591  msg.sender */\n      caller\n        /* \"InterbankTransfer.sol\":9571:9592  bankCodes[msg.sender] */\n      0xffffffffffffffffffffffffffffffffffffffff\n      and\n      0xffffffffffffffffffffffffffffffffffffffff\n      and\n      dup2\n      mstore\n      0x20\n      add\n      swap1\n      dup2\n      mstore\n      0x20\n      add\n      0x00\n      keccak256\n        /* \"InterbankTransfer.sol\":9632:9643  description */\n      dup10\n        /* \"InterbankTransfer.sol\":9657:9672  block.timestamp */\n      timestamp\n        /* \"InterbankTransfer.sol\":9463:9682  Transfer(... */\n      mload(0x40)\n      tag_304\n      swap5\n      swap4\n      swap3\n      swap2\n      swap1\n      tag_305\n      jump\t// in\n    tag_304:\n      mload(0x40)\n      dup1\n      swap2\n      sub\n      swap1\n      log4\n        /* \"InterbankTransfer.sol\":9722:9726  txId */\n      dup2\n        /* \"InterbankTransfer.sol\":9697:9756  TransactionStatusChanged(txId, TransactionStatus.Completed) */\n      0x3013893708bd175bc8eeedd6ea1e367024bbc9bc7b110e7ed37bc77aceac57\n        /* \"InterbankTransfer.sol\":9728:9755  TransactionStatus.Completed */\n      0x02\n        /* \"InterbankTransfer.sol\":9697:9756  TransactionStatusChanged(txId, TransactionStatus.Completed) */\n      mload(0x40)\n      tag_306\n      swap2\n      swap1\n      tag_245\n      jump\t// in\n    tag_306:\n      mload(0x40)\n      dup1\n      swap2\n      sub\n      swap1\n      log2\n        /* \"InterbankTransfer.sol\":9786:9796  msg.sender */\n      caller\n        /* \"InterbankTransfer.sol\":9771:9819  BalanceUpdated(msg.sender, balances[msg.sender]) */\n      0xffffffffffffffffffffffffffffffffffffffff\n      and\n      0x8ad64a0ac7700dd8425ab0499f107cb6e2cd1581d803c5b8c1c79dcb8190b1af\n        /* \"InterbankTransfer.sol\":9798:9806  balances */\n      0x01\n        /* \"InterbankTransfer.sol\":9798:9818  balances[msg.sender] */\n      0x00\n        /* \"InterbankTransfer.sol\":9807:9817  msg.sender */\n      caller\n        /* \"InterbankTransfer.sol\":9798:9818  balances[msg.sender] */\n      0xffffffffffffffffffffffffffffffffffffffff\n      and\n      0xffffffffffffffffffffffffffffffffffffffff\n      and\n      dup2\n      mstore\n      0x20\n      add\n      swap1\n      dup2\n      mstore\n      0x20\n      add\n      0x00\n      keccak256\n      sload\n        /* \"InterbankTransfer.sol\":9771:9819  BalanceUpdated(msg.sender, balances[msg.sender]) */\n      mload(0x40)\n      tag_307\n      swap2\n      swap1\n      tag_47\n      jump\t// in\n    tag_307:\n      mload(0x40)\n      dup1\n      swap2\n      sub\n      swap1\n      log2\n        /* \"InterbankTransfer.sol\":10111:10115  txId */\n      dup2\n        /* \"InterbankTransfer.sol\":10104:10115  return txId */\n      swap3\n      pop\n      pop\n      pop\n        /* \"InterbankTransfer.sol\":8014:10122  function withdraw(uint256 amount, string memory description) public returns (uint256) {... */\n      swap3\n      swap2\n      pop\n      pop\n      jump\t// out\n        /* \"InterbankTransfer.sol\":4815:7096  function transfer(... */\n    tag_119:\n        /* \"InterbankTransfer.sol\":4968:4975  uint256 */\n      0x00\n        /* \"InterbankTransfer.sol\":5009:5010  0 */\n      dup1\n        /* \"InterbankTransfer.sol\":4995:5011  to != address(0) */\n      0xffffffffffffffffffffffffffffffffffffffff\n      and\n        /* \"InterbankTransfer.sol\":4995:4997  to */\n      dup6\n        /* \"InterbankTransfer.sol\":4995:5011  to != address(0) */\n      0xffffffffffffffffffffffffffffffffffffffff\n      and\n      eq\n      iszero\n        /* \"InterbankTransfer.sol\":4987:5041  require(to != address(0), \"Invalid recipient address\") */\n      tag_309\n      jumpi\n      mload(0x40)\n      0x08c379a000000000000000000000000000000000000000000000000000000000\n      dup2\n      mstore\n      0x04\n      add\n      tag_310\n      swap1\n      tag_311\n      jump\t// in\n    tag_310:\n      mload(0x40)\n      dup1\n      swap2\n      sub\n      swap1\n      revert\n    tag_309:\n        /* \"InterbankTransfer.sol\":5068:5069  0 */\n      0x00\n        /* \"InterbankTransfer.sol\":5059:5065  amount */\n      dup5\n        /* \"InterbankTransfer.sol\":5059:5069  amount > 0 */\n      gt\n        /* \"InterbankTransfer.sol\":5051:5103  require(amount > 0, \"Amount must be greater than 0\") */\n      tag_312\n      jumpi\n      mload(0x40)\n      0x08c379a000000000000000000000000000000000000000000000000000000000\n      dup2\n      mstore\n      0x04\n      add\n      tag_313\n      swap1\n      tag_223\n      jump\t// in\n    tag_313:\n      mload(0x40)\n      dup1\n      swap2\n      sub\n      swap1\n      revert\n    tag_312:\n        /* \"InterbankTransfer.sol\":5158:5164  amount */\n      dup4\n        /* \"InterbankTransfer.sol\":5134:5142  balances */\n      0x01\n        /* \"InterbankTransfer.sol\":5134:5154  balances[msg.sender] */\n      0x00\n        /* \"InterbankTransfer.sol\":5143:5153  msg.sender */\n      caller\n        /* \"InterbankTransfer.sol\":5134:5154  balances[msg.sender] */\n      0xffffffffffffffffffffffffffffffffffffffff\n      and\n      0xffffffffffffffffffffffffffffffffffffffff\n      and\n      dup2\n      mstore\n      0x20\n      add\n      swap1\n      dup2\n      mstore\n      0x20\n      add\n      0x00\n      keccak256\n      sload\n        /* \"InterbankTransfer.sol\":5134:5164  balances[msg.sender] >= amount */\n      lt\n      iszero\n        /* \"InterbankTransfer.sol\":5113:5210  require(... */\n      tag_314\n      jumpi\n      mload(0x40)\n      0x08c379a000000000000000000000000000000000000000000000000000000000\n      dup2\n      mstore\n      0x04\n      add\n      tag_315\n      swap1\n      tag_270\n      jump\t// in\n    tag_315:\n      mload(0x40)\n      dup1\n      swap2\n      sub\n      swap1\n      revert\n    tag_314:\n        /* \"InterbankTransfer.sol\":5242:5244  to */\n      dup5\n        /* \"InterbankTransfer.sol\":5228:5244  msg.sender != to */\n      0xffffffffffffffffffffffffffffffffffffffff\n      and\n        /* \"InterbankTransfer.sol\":5228:5238  msg.sender */\n      caller\n        /* \"InterbankTransfer.sol\":5228:5244  msg.sender != to */\n      0xffffffffffffffffffffffffffffffffffffffff\n      and\n      eq\n      iszero\n        /* \"InterbankTransfer.sol\":5220:5276  require(msg.sender != to, \"Cannot transfer to yourself\") */\n      tag_316\n      jumpi\n      mload(0x40)\n      0x08c379a000000000000000000000000000000000000000000000000000000000\n      dup2\n      mstore\n      0x04\n      add\n      tag_317\n      swap1\n      tag_318\n      jump\t// in\n    tag_317:\n      mload(0x40)\n      dup1\n      swap2\n      sub\n      swap1\n      revert\n    tag_316:\n        /* \"InterbankTransfer.sol\":5340:5350  pkiEnabled */\n      0x00\n      0x14\n      swap1\n      sload\n      swap1\n      0x0100\n      exp\n      swap1\n      div\n      0xff\n      and\n        /* \"InterbankTransfer.sol\":5340:5388  pkiEnabled && address(pkiRegistry) != address(0) */\n      dup1\n      iszero\n      tag_319\n      jumpi\n      pop\n        /* \"InterbankTransfer.sol\":5386:5387  0 */\n      0x00\n        /* \"InterbankTransfer.sol\":5354:5388  address(pkiRegistry) != address(0) */\n      0xffffffffffffffffffffffffffffffffffffffff\n      and\n        /* \"InterbankTransfer.sol\":5362:5373  pkiRegistry */\n      0x00\n      dup1\n      sload\n      swap1\n      0x0100\n      exp\n      swap1\n      div\n      0xffffffffffffffffffffffffffffffffffffffff\n      and\n        /* \"InterbankTransfer.sol\":5354:5388  address(pkiRegistry) != address(0) */\n      0xffffffffffffffffffffffffffffffffffffffff\n      and\n      eq\n      iszero\n        /* \"InterbankTransfer.sol\":5340:5388  pkiEnabled && address(pkiRegistry) != address(0) */\n    tag_319:\n        /* \"InterbankTransfer.sol\":5336:5595  if (pkiEnabled && address(pkiRegistry) != address(0)) {... */\n      iszero\n      tag_320\n      jumpi\n        /* \"InterbankTransfer.sol\":5412:5423  pkiRegistry */\n      0x00\n      dup1\n      sload\n      swap1\n      0x0100\n      exp\n      swap1\n      div\n      0xffffffffffffffffffffffffffffffffffffffff\n      and\n        /* \"InterbankTransfer.sol\":5412:5434  pkiRegistry.isKYCValid */\n      0xffffffffffffffffffffffffffffffffffffffff\n      and\n      0xcf0e0f9d\n        /* \"InterbankTransfer.sol\":5435:5445  msg.sender */\n      caller\n        /* \"InterbankTransfer.sol\":5412:5446  pkiRegistry.isKYCValid(msg.sender) */\n      mload(0x40)\n      dup3\n      0xffffffff\n      and\n      0xe0\n      shl\n      dup2\n      mstore\n      0x04\n      add\n      tag_321\n      swap2\n      swap1\n      tag_74\n      jump\t// in\n    tag_321:\n      0x20\n      mload(0x40)\n      dup1\n      dup4\n      sub\n      dup2\n      dup7\n      gas\n      staticcall\n      iszero\n      dup1\n      iszero\n      tag_323\n      jumpi\n      returndatasize\n      0x00\n      dup1\n      returndatacopy\n      revert(0x00, returndatasize)\n    tag_323:\n      pop\n      pop\n      pop\n      pop\n      mload(0x40)\n      returndatasize\n      not(0x1f)\n      0x1f\n      dup3\n      add\n      and\n      dup3\n      add\n      dup1\n      0x40\n      mstore\n      pop\n      dup2\n      add\n      swap1\n      tag_324\n      swap2\n      swap1\n      tag_258\n      jump\t// in\n    tag_324:\n        /* \"InterbankTransfer.sol\":5404:5464  require(pkiRegistry.isKYCValid(msg.sender), \"KYC not valid\") */\n      tag_325\n      jumpi\n      mload(0x40)\n      0x08c379a000000000000000000000000000000000000000000000000000000000\n      dup2\n      mstore\n      0x04\n      add\n      tag_326\n      swap1\n      tag_279\n      jump\t// in\n    tag_326:\n      mload(0x40)\n      dup1\n      swap2\n      sub\n      swap1\n      revert\n    tag_325:\n        /* \"InterbankTransfer.sol\":5486:5497  pkiRegistry */\n      0x00\n      dup1\n      sload\n      swap1\n      0x0100\n      exp\n      swap1\n      div\n      0xffffffffffffffffffffffffffffffffffffffff\n      and\n        /* \"InterbankTransfer.sol\":5486:5513  pkiRegistry.canUserTransfer */\n      0xffffffffffffffffffffffffffffffffffffffff\n      and\n      0x76031448\n        /* \"InterbankTransfer.sol\":5514:5524  msg.sender */\n      caller\n        /* \"InterbankTransfer.sol\":5526:5532  amount */\n      dup7\n        /* \"InterbankTransfer.sol\":5486:5533  pkiRegistry.canUserTransfer(msg.sender, amount) */\n      mload(0x40)\n      dup4\n      0xffffffff\n      and\n      0xe0\n      shl\n      dup2\n      mstore\n      0x04\n      add\n      tag_327\n      swap3\n      swap2\n      swap1\n      tag_261\n      jump\t// in\n    tag_327:\n      0x20\n      mload(0x40)\n      dup1\n      dup4\n      sub\n      dup2\n      dup7\n      gas\n      staticcall\n      iszero\n      dup1\n      iszero\n      tag_329\n      jumpi\n      returndatasize\n      0x00\n      dup1\n      returndatacopy\n      revert(0x00, returndatasize)\n    tag_329:\n      pop\n      pop\n      pop\n      pop\n      mload(0x40)\n      returndatasize\n      not(0x1f)\n      0x1f\n      dup3\n      add\n      and\n      dup3\n      add\n      dup1\n      0x40\n      mstore\n      pop\n      dup2\n      add\n      swap1\n      tag_330\n      swap2\n      swap1\n      tag_258\n      jump\t// in\n    tag_330:\n        /* \"InterbankTransfer.sol\":5478:5584  require(pkiRegistry.canUserTransfer(msg.sender, amount), \"Transfer not authorized or exceeds daily limit\") */\n      tag_331\n      jumpi\n      mload(0x40)\n      0x08c379a000000000000000000000000000000000000000000000000000000000\n      dup2\n      mstore\n      0x04\n      add\n      tag_332\n      swap1\n      tag_333\n      jump\t// in\n    tag_332:\n      mload(0x40)\n      dup1\n      swap2\n      sub\n      swap1\n      revert\n    tag_331:\n        /* \"InterbankTransfer.sol\":5336:5595  if (pkiEnabled && address(pkiRegistry) != address(0)) {... */\n    tag_320:\n        /* \"InterbankTransfer.sol\":5648:5666  transactionCounter */\n      0x07\n      0x00\n        /* \"InterbankTransfer.sol\":5648:5668  transactionCounter++ */\n      dup2\n      sload\n      dup1\n      swap3\n      swap2\n      swap1\n      tag_334\n      swap1\n      tag_281\n      jump\t// in\n    tag_334:\n      swap2\n      swap1\n      pop\n      sstore\n      pop\n        /* \"InterbankTransfer.sol\":5678:5690  uint256 txId */\n      0x00\n        /* \"InterbankTransfer.sol\":5693:5711  transactionCounter */\n      sload(0x07)\n        /* \"InterbankTransfer.sol\":5678:5711  uint256 txId = transactionCounter */\n      swap1\n      pop\n        /* \"InterbankTransfer.sol\":5730:5754  Transaction memory newTx */\n      0x00\n        /* \"InterbankTransfer.sol\":5757:6082  Transaction({... */\n      mload(0x40)\n      dup1\n      0x0120\n      add\n      0x40\n      mstore\n      dup1\n        /* \"InterbankTransfer.sol\":5787:5791  txId */\n      dup4\n        /* \"InterbankTransfer.sol\":5757:6082  Transaction({... */\n      dup2\n      mstore\n      0x20\n      add\n        /* \"InterbankTransfer.sol\":5811:5821  msg.sender */\n      caller\n        /* \"InterbankTransfer.sol\":5757:6082  Transaction({... */\n      0xffffffffffffffffffffffffffffffffffffffff\n      and\n      dup2\n      mstore\n      0x20\n      add\n        /* \"InterbankTransfer.sol\":5839:5841  to */\n      dup9\n        /* \"InterbankTransfer.sol\":5757:6082  Transaction({... */\n      0xffffffffffffffffffffffffffffffffffffffff\n      and\n      dup2\n      mstore\n      0x20\n      add\n        /* \"InterbankTransfer.sol\":5863:5869  amount */\n      dup8\n        /* \"InterbankTransfer.sol\":5757:6082  Transaction({... */\n      dup2\n      mstore\n      0x20\n      add\n        /* \"InterbankTransfer.sol\":5893:5902  bankCodes */\n      0x02\n        /* \"InterbankTransfer.sol\":5893:5914  bankCodes[msg.sender] */\n      0x00\n        /* \"InterbankTransfer.sol\":5903:5913  msg.sender */\n      caller\n        /* \"InterbankTransfer.sol\":5893:5914  bankCodes[msg.sender] */\n      0xffffffffffffffffffffffffffffffffffffffff\n      and\n      0xffffffffffffffffffffffffffffffffffffffff\n      and\n      dup2\n      mstore\n      0x20\n      add\n      swap1\n      dup2\n      mstore\n      0x20\n      add\n      0x00\n      keccak256\n        /* \"InterbankTransfer.sol\":5757:6082  Transaction({... */\n      dup1\n      sload\n      tag_335\n      swap1\n      tag_166\n      jump\t// in\n    tag_335:\n      dup1\n      0x1f\n      add\n      0x20\n      dup1\n      swap2\n      div\n      mul\n      0x20\n      add\n      mload(0x40)\n      swap1\n      dup2\n      add\n      0x40\n      mstore\n      dup1\n      swap3\n      swap2\n      swap1\n      dup2\n      dup2\n      mstore\n      0x20\n      add\n      dup3\n      dup1\n      sload\n      tag_336\n      swap1\n      tag_166\n      jump\t// in\n    tag_336:\n      dup1\n      iszero\n      tag_337\n      jumpi\n      dup1\n      0x1f\n      lt\n      tag_338\n      jumpi\n      0x0100\n      dup1\n      dup4\n      sload\n      div\n      mul\n      dup4\n      mstore\n      swap2\n      0x20\n      add\n      swap2\n      jump(tag_337)\n    tag_338:\n      dup3\n      add\n      swap2\n      swap1\n      0x00\n      mstore\n      keccak256(0x00, 0x20)\n      swap1\n    tag_339:\n      dup2\n      sload\n      dup2\n      mstore\n      swap1\n      0x01\n      add\n      swap1\n      0x20\n      add\n      dup1\n      dup4\n      gt\n      tag_339\n      jumpi\n      dup3\n      swap1\n      sub\n      0x1f\n      and\n      dup3\n      add\n      swap2\n    tag_337:\n      pop\n      pop\n      pop\n      pop\n      pop\n      dup2\n      mstore\n      0x20\n      add\n        /* \"InterbankTransfer.sol\":5936:5946  toBankCode */\n      dup7\n        /* \"InterbankTransfer.sol\":5757:6082  Transaction({... */\n      dup2\n      mstore\n      0x20\n      add\n        /* \"InterbankTransfer.sol\":5973:5984  description */\n      dup6\n        /* \"InterbankTransfer.sol\":5757:6082  Transaction({... */\n      dup2\n      mstore\n      0x20\n      add\n        /* \"InterbankTransfer.sol\":6009:6024  block.timestamp */\n      timestamp\n        /* \"InterbankTransfer.sol\":5757:6082  Transaction({... */\n      dup2\n      mstore\n      0x20\n      add\n        /* \"InterbankTransfer.sol\":6046:6071  TransactionStatus.Pending */\n      0x00\n        /* \"InterbankTransfer.sol\":5757:6082  Transaction({... */\n      0x03\n      dup2\n      gt\n      iszero\n      tag_340\n      jumpi\n      tag_341\n      tag_183\n      jump\t// in\n    tag_341:\n    tag_340:\n      dup2\n      mstore\n      pop\n        /* \"InterbankTransfer.sol\":5730:6082  Transaction memory newTx = Transaction({... */\n      swap1\n      pop\n        /* \"InterbankTransfer.sol\":6101:6113  transactions */\n      0x03\n        /* \"InterbankTransfer.sol\":6119:6124  newTx */\n      dup2\n        /* \"InterbankTransfer.sol\":6101:6125  transactions.push(newTx) */\n      swap1\n      dup1\n      0x01\n      dup2\n      sload\n      add\n      dup1\n      dup3\n      sstore\n      dup1\n      swap2\n      pop\n      pop\n      0x01\n      swap1\n      sub\n      swap1\n      0x00\n      mstore\n      keccak256(0x00, 0x20)\n      swap1\n      0x09\n      mul\n      add\n      0x00\n      swap1\n      swap2\n      swap1\n      swap2\n      swap1\n      swap2\n      pop\n      0x00\n      dup3\n      add\n      mload\n      dup2\n      0x00\n      add\n      sstore\n      0x20\n      dup3\n      add\n      mload\n      dup2\n      0x01\n      add\n      exp(0x0100, 0x00)\n      dup2\n      sload\n      dup2\n      0xffffffffffffffffffffffffffffffffffffffff\n      mul\n      not\n      and\n      swap1\n      dup4\n      0xffffffffffffffffffffffffffffffffffffffff\n      and\n      mul\n      or\n      swap1\n      sstore\n      pop\n      0x40\n      dup3\n      add\n      mload\n      dup2\n      0x02\n      add\n      exp(0x0100, 0x00)\n      dup2\n      sload\n      dup2\n      0xffffffffffffffffffffffffffffffffffffffff\n      mul\n      not\n      and\n      swap1\n      dup4\n      0xffffffffffffffffffffffffffffffffffffffff\n      and\n      mul\n      or\n      swap1\n      sstore\n      pop\n      0x60\n      dup3\n      add\n      mload\n      dup2\n      0x03\n      add\n      sstore\n      0x80\n      dup3\n      add\n      mload\n      dup2\n      0x04\n      add\n      swap1\n      dup1\n      mload\n      swap1\n      0x20\n      add\n      swap1\n      tag_343\n      swap3\n      swap2\n      swap1\n      tag_227\n      jump\t// in\n    tag_343:\n      pop\n      0xa0\n      dup3\n      add\n      mload\n      dup2\n      0x05\n      add\n      swap1\n      dup1\n      mload\n      swap1\n      0x20\n      add\n      swap1\n      tag_344\n      swap3\n      swap2\n      swap1\n      tag_227\n      jump\t// in\n    tag_344:\n      pop\n      0xc0\n      dup3\n      add\n      mload\n      dup2\n      0x06\n      add\n      swap1\n      dup1\n      mload\n      swap1\n      0x20\n      add\n      swap1\n      tag_345\n      swap3\n      swap2\n      swap1\n      tag_227\n      jump\t// in\n    tag_345:\n      pop\n      0xe0\n      dup3\n      add\n      mload\n      dup2\n      0x07\n      add\n      sstore\n      0x0100\n      dup3\n      add\n      mload\n      dup2\n      0x08\n      add\n      exp(0x0100, 0x00)\n      dup2\n      sload\n      dup2\n      0xff\n      mul\n      not\n      and\n      swap1\n      dup4\n      0x03\n      dup2\n      gt\n      iszero\n      tag_346\n      jumpi\n      tag_347\n      tag_183\n      jump\t// in\n    tag_347:\n    tag_346:\n      mul\n      or\n      swap1\n      sstore\n      pop\n      pop\n      pop\n        /* \"InterbankTransfer.sol\":6182:6183  1 */\n      0x01\n        /* \"InterbankTransfer.sol\":6160:6172  transactions */\n      0x03\n        /* \"InterbankTransfer.sol\":6160:6179  transactions.length */\n      dup1\n      sload\n      swap1\n      pop\n        /* \"InterbankTransfer.sol\":6160:6183  transactions.length - 1 */\n      tag_348\n      swap2\n      swap1\n      tag_296\n      jump\t// in\n    tag_348:\n        /* \"InterbankTransfer.sol\":6135:6151  transactionIndex */\n      0x04\n        /* \"InterbankTransfer.sol\":6135:6157  transactionIndex[txId] */\n      0x00\n        /* \"InterbankTransfer.sol\":6152:6156  txId */\n      dup5\n        /* \"InterbankTransfer.sol\":6135:6157  transactionIndex[txId] */\n      dup2\n      mstore\n      0x20\n      add\n      swap1\n      dup2\n      mstore\n      0x20\n      add\n      0x00\n      keccak256\n        /* \"InterbankTransfer.sol\":6135:6183  transactionIndex[txId] = transactions.length - 1 */\n      dup2\n      swap1\n      sstore\n      pop\n        /* \"InterbankTransfer.sol\":6259:6265  amount */\n      dup6\n        /* \"InterbankTransfer.sol\":6235:6243  balances */\n      0x01\n        /* \"InterbankTransfer.sol\":6235:6255  balances[msg.sender] */\n      0x00\n        /* \"InterbankTransfer.sol\":6244:6254  msg.sender */\n      caller\n        /* \"InterbankTransfer.sol\":6235:6255  balances[msg.sender] */\n      0xffffffffffffffffffffffffffffffffffffffff\n      and\n      0xffffffffffffffffffffffffffffffffffffffff\n      and\n      dup2\n      mstore\n      0x20\n      add\n      swap1\n      dup2\n      mstore\n      0x20\n      add\n      0x00\n      keccak256\n      0x00\n        /* \"InterbankTransfer.sol\":6235:6265  balances[msg.sender] -= amount */\n      dup3\n      dup3\n      sload\n      tag_349\n      swap2\n      swap1\n      tag_296\n      jump\t// in\n    tag_349:\n      swap3\n      pop\n      pop\n      dup2\n      swap1\n      sstore\n      pop\n        /* \"InterbankTransfer.sol\":6291:6297  amount */\n      dup6\n        /* \"InterbankTransfer.sol\":6275:6283  balances */\n      0x01\n        /* \"InterbankTransfer.sol\":6275:6287  balances[to] */\n      0x00\n        /* \"InterbankTransfer.sol\":6284:6286  to */\n      dup10\n        /* \"InterbankTransfer.sol\":6275:6287  balances[to] */\n      0xffffffffffffffffffffffffffffffffffffffff\n      and\n      0xffffffffffffffffffffffffffffffffffffffff\n      and\n      dup2\n      mstore\n      0x20\n      add\n      swap1\n      dup2\n      mstore\n      0x20\n      add\n      0x00\n      keccak256\n      0x00\n        /* \"InterbankTransfer.sol\":6275:6297  balances[to] += amount */\n      dup3\n      dup3\n      sload\n      tag_350\n      swap2\n      swap1\n      tag_225\n      jump\t// in\n    tag_350:\n      swap3\n      pop\n      pop\n      dup2\n      swap1\n      sstore\n      pop\n        /* \"InterbankTransfer.sol\":6401:6428  TransactionStatus.Completed */\n      0x02\n        /* \"InterbankTransfer.sol\":6354:6366  transactions */\n      0x03\n        /* \"InterbankTransfer.sol\":6389:6390  1 */\n      0x01\n        /* \"InterbankTransfer.sol\":6367:6379  transactions */\n      0x03\n        /* \"InterbankTransfer.sol\":6367:6386  transactions.length */\n      dup1\n      sload\n      swap1\n      pop\n        /* \"InterbankTransfer.sol\":6367:6390  transactions.length - 1 */\n      tag_351\n      swap2\n      swap1\n      tag_296\n      jump\t// in\n    tag_351:\n        /* \"InterbankTransfer.sol\":6354:6391  transactions[transactions.length - 1] */\n      dup2\n      sload\n      dup2\n      lt\n      tag_352\n      jumpi\n      tag_353\n      tag_163\n      jump\t// in\n    tag_353:\n    tag_352:\n      swap1\n      0x00\n      mstore\n      keccak256(0x00, 0x20)\n      swap1\n      0x09\n      mul\n      add\n        /* \"InterbankTransfer.sol\":6354:6398  transactions[transactions.length - 1].status */\n      0x08\n      add\n      0x00\n        /* \"InterbankTransfer.sol\":6354:6428  transactions[transactions.length - 1].status = TransactionStatus.Completed */\n      0x0100\n      exp\n      dup2\n      sload\n      dup2\n      0xff\n      mul\n      not\n      and\n      swap1\n      dup4\n      0x03\n      dup2\n      gt\n      iszero\n      tag_355\n      jumpi\n      tag_356\n      tag_183\n      jump\t// in\n    tag_356:\n    tag_355:\n      mul\n      or\n      swap1\n      sstore\n      pop\n        /* \"InterbankTransfer.sol\":6540:6542  to */\n      dup7\n        /* \"InterbankTransfer.sol\":6476:6685  Transfer(... */\n      0xffffffffffffffffffffffffffffffffffffffff\n      and\n        /* \"InterbankTransfer.sol\":6516:6526  msg.sender */\n      caller\n        /* \"InterbankTransfer.sol\":6476:6685  Transfer(... */\n      0xffffffffffffffffffffffffffffffffffffffff\n      and\n        /* \"InterbankTransfer.sol\":6498:6502  txId */\n      dup4\n        /* \"InterbankTransfer.sol\":6476:6685  Transfer(... */\n      0x82e8134a6a3a6586eab71827e213b1a1f6c8b261024adbecf466eeb0240bb916\n        /* \"InterbankTransfer.sol\":6556:6562  amount */\n      dup10\n        /* \"InterbankTransfer.sol\":6576:6585  bankCodes */\n      0x02\n        /* \"InterbankTransfer.sol\":6576:6597  bankCodes[msg.sender] */\n      0x00\n        /* \"InterbankTransfer.sol\":6586:6596  msg.sender */\n      caller\n        /* \"InterbankTransfer.sol\":6576:6597  bankCodes[msg.sender] */\n      0xffffffffffffffffffffffffffffffffffffffff\n      and\n      0xffffffffffffffffffffffffffffffffffffffff\n      and\n      dup2\n      mstore\n      0x20\n      add\n      swap1\n      dup2\n      mstore\n      0x20\n      add\n      0x00\n      keccak256\n        /* \"InterbankTransfer.sol\":6611:6621  toBankCode */\n      dup11\n        /* \"InterbankTransfer.sol\":6635:6646  description */\n      dup11\n        /* \"InterbankTransfer.sol\":6660:6675  block.timestamp */\n      timestamp\n        /* \"InterbankTransfer.sol\":6476:6685  Transfer(... */\n      mload(0x40)\n      tag_357\n      swap6\n      swap5\n      swap4\n      swap3\n      swap2\n      swap1\n      tag_358\n      jump\t// in\n    tag_357:\n      mload(0x40)\n      dup1\n      swap2\n      sub\n      swap1\n      log4\n        /* \"InterbankTransfer.sol\":6725:6729  txId */\n      dup2\n        /* \"InterbankTransfer.sol\":6700:6759  TransactionStatusChanged(txId, TransactionStatus.Completed) */\n      0x3013893708bd175bc8eeedd6ea1e367024bbc9bc7b110e7ed37bc77aceac57\n        /* \"InterbankTransfer.sol\":6731:6758  TransactionStatus.Completed */\n      0x02\n        /* \"InterbankTransfer.sol\":6700:6759  TransactionStatusChanged(txId, TransactionStatus.Completed) */\n      mload(0x40)\n      tag_359\n      swap2\n      swap1\n      tag_245\n      jump\t// in\n    tag_359:\n      mload(0x40)\n      dup1\n      swap2\n      sub\n      swap1\n      log2\n        /* \"InterbankTransfer.sol\":6789:6799  msg.sender */\n      caller\n        /* \"InterbankTransfer.sol\":6774:6822  BalanceUpdated(msg.sender, balances[msg.sender]) */\n      0xffffffffffffffffffffffffffffffffffffffff\n      and\n      0x8ad64a0ac7700dd8425ab0499f107cb6e2cd1581d803c5b8c1c79dcb8190b1af\n        /* \"InterbankTransfer.sol\":6801:6809  balances */\n      0x01\n        /* \"InterbankTransfer.sol\":6801:6821  balances[msg.sender] */\n      0x00\n        /* \"InterbankTransfer.sol\":6810:6820  msg.sender */\n      caller\n        /* \"InterbankTransfer.sol\":6801:6821  balances[msg.sender] */\n      0xffffffffffffffffffffffffffffffffffffffff\n      and\n      0xffffffffffffffffffffffffffffffffffffffff\n      and\n      dup2\n      mstore\n      0x20\n      add\n      swap1\n      dup2\n      mstore\n      0x20\n      add\n      0x00\n      keccak256\n      sload\n        /* \"InterbankTransfer.sol\":6774:6822  BalanceUpdated(msg.sender, balances[msg.sender]) */\n      mload(0x40)\n      tag_360\n      swap2\n      swap1\n      tag_47\n      jump\t// in\n    tag_360:\n      mload(0x40)\n      dup1\n      swap2\n      sub\n      swap1\n      log2\n        /* \"InterbankTransfer.sol\":6852:6854  to */\n      dup7\n        /* \"InterbankTransfer.sol\":6837:6869  BalanceUpdated(to, balances[to]) */\n      0xffffffffffffffffffffffffffffffffffffffff\n      and\n      0x8ad64a0ac7700dd8425ab0499f107cb6e2cd1581d803c5b8c1c79dcb8190b1af\n        /* \"InterbankTransfer.sol\":6856:6864  balances */\n      0x01\n        /* \"InterbankTransfer.sol\":6856:6868  balances[to] */\n      0x00\n        /* \"InterbankTransfer.sol\":6865:6867  to */\n      dup11\n        /* \"InterbankTransfer.sol\":6856:6868  balances[to] */\n      0xffffffffffffffffffffffffffffffffffffffff\n      and\n      0xffffffffffffffffffffffffffffffffffffffff\n      and\n      dup2\n      mstore\n      0x20\n      add\n      swap1\n      dup2\n      mstore\n      0x20\n      add\n      0x00\n      keccak256\n      sload\n        /* \"InterbankTransfer.sol\":6837:6869  BalanceUpdated(to, balances[to]) */\n      mload(0x40)\n      tag_361\n      swap2\n      swap1\n      tag_47\n      jump\t// in\n    tag_361:\n      mload(0x40)\n      dup1\n      swap2\n      sub\n      swap1\n      log2\n        /* \"InterbankTransfer.sol\":6939:6949  pkiEnabled */\n      0x00\n      0x14\n      swap1\n      sload\n      swap1\n      0x0100\n      exp\n      swap1\n      div\n      0xff\n      and\n        /* \"InterbankTransfer.sol\":6939:6987  pkiEnabled && address(pkiRegistry) != address(0) */\n      dup1\n      iszero\n      tag_362\n      jumpi\n      pop\n        /* \"InterbankTransfer.sol\":6985:6986  0 */\n      0x00\n        /* \"InterbankTransfer.sol\":6953:6987  address(pkiRegistry) != address(0) */\n      0xffffffffffffffffffffffffffffffffffffffff\n      and\n        /* \"InterbankTransfer.sol\":6961:6972  pkiRegistry */\n      0x00\n      dup1\n      sload\n      swap1\n      0x0100\n      exp\n      swap1\n      div\n      0xffffffffffffffffffffffffffffffffffffffff\n      and\n        /* \"InterbankTransfer.sol\":6953:6987  address(pkiRegistry) != address(0) */\n      0xffffffffffffffffffffffffffffffffffffffff\n      and\n      eq\n      iszero\n        /* \"InterbankTransfer.sol\":6939:6987  pkiEnabled && address(pkiRegistry) != address(0) */\n    tag_362:\n        /* \"InterbankTransfer.sol\":6935:7060  if (pkiEnabled && address(pkiRegistry) != address(0)) {... */\n      iszero\n      tag_363\n      jumpi\n        /* \"InterbankTransfer.sol\":7003:7014  pkiRegistry */\n      0x00\n      dup1\n      sload\n      swap1\n      0x0100\n      exp\n      swap1\n      div\n      0xffffffffffffffffffffffffffffffffffffffff\n      and\n        /* \"InterbankTransfer.sol\":7003:7029  pkiRegistry.recordTransfer */\n      0xffffffffffffffffffffffffffffffffffffffff\n      and\n      0x73ac83ef\n        /* \"InterbankTransfer.sol\":7030:7040  msg.sender */\n      caller\n        /* \"InterbankTransfer.sol\":7042:7048  amount */\n      dup9\n        /* \"InterbankTransfer.sol\":7003:7049  pkiRegistry.recordTransfer(msg.sender, amount) */\n      mload(0x40)\n      dup4\n      0xffffffff\n      and\n      0xe0\n      shl\n      dup2\n      mstore\n      0x04\n      add\n      tag_364\n      swap3\n      swap2\n      swap1\n      tag_261\n      jump\t// in\n    tag_364:\n      0x00\n      mload(0x40)\n      dup1\n      dup4\n      sub\n      dup2\n      0x00\n      dup8\n      dup1\n      extcodesize\n      iszero\n      dup1\n      iszero\n      tag_365\n      jumpi\n      0x00\n      dup1\n      revert\n    tag_365:\n      pop\n      gas\n      call\n      iszero\n      dup1\n      iszero\n      tag_367\n      jumpi\n      returndatasize\n      0x00\n      dup1\n      returndatacopy\n      revert(0x00, returndatasize)\n    tag_367:\n      pop\n      pop\n      pop\n      pop\n        /* \"InterbankTransfer.sol\":6935:7060  if (pkiEnabled && address(pkiRegistry) != address(0)) {... */\n    tag_363:\n        /* \"InterbankTransfer.sol\":7085:7089  txId */\n      dup2\n        /* \"InterbankTransfer.sol\":7078:7089  return txId */\n      swap3\n      pop\n      pop\n      pop\n        /* \"InterbankTransfer.sol\":4815:7096  function transfer(... */\n      swap5\n      swap4\n      pop\n      pop\n      pop\n      pop\n      jump\t// out\n        /* \"InterbankTransfer.sol\":11371:12249  function getUserTransactions(address user)... */\n    tag_124:\n        /* \"InterbankTransfer.sol\":11459:11475  uint256[] memory */\n      0x60\n        /* \"InterbankTransfer.sol\":11491:11504  uint256 count */\n      0x00\n        /* \"InterbankTransfer.sol\":11567:11576  uint256 i */\n      dup1\n        /* \"InterbankTransfer.sol\":11562:11786  for (uint256 i = 0; i < transactions.length; i++) {... */\n    tag_369:\n        /* \"InterbankTransfer.sol\":11586:11598  transactions */\n      0x03\n        /* \"InterbankTransfer.sol\":11586:11605  transactions.length */\n      dup1\n      sload\n      swap1\n      pop\n        /* \"InterbankTransfer.sol\":11582:11583  i */\n      dup2\n        /* \"InterbankTransfer.sol\":11582:11605  i < transactions.length */\n      lt\n        /* \"InterbankTransfer.sol\":11562:11786  for (uint256 i = 0; i < transactions.length; i++) {... */\n      iszero\n      tag_370\n      jumpi\n        /* \"InterbankTransfer.sol\":11671:11675  user */\n      dup4\n        /* \"InterbankTransfer.sol\":11647:11675  transactions[i].from == user */\n      0xffffffffffffffffffffffffffffffffffffffff\n      and\n        /* \"InterbankTransfer.sol\":11647:11659  transactions */\n      0x03\n        /* \"InterbankTransfer.sol\":11660:11661  i */\n      dup3\n        /* \"InterbankTransfer.sol\":11647:11662  transactions[i] */\n      dup2\n      sload\n      dup2\n      lt\n      tag_372\n      jumpi\n      tag_373\n      tag_163\n      jump\t// in\n    tag_373:\n    tag_372:\n      swap1\n      0x00\n      mstore\n      keccak256(0x00, 0x20)\n      swap1\n      0x09\n      mul\n      add\n        /* \"InterbankTransfer.sol\":11647:11667  transactions[i].from */\n      0x01\n      add\n      0x00\n      swap1\n      sload\n      swap1\n      0x0100\n      exp\n      swap1\n      div\n      0xffffffffffffffffffffffffffffffffffffffff\n      and\n        /* \"InterbankTransfer.sol\":11647:11675  transactions[i].from == user */\n      0xffffffffffffffffffffffffffffffffffffffff\n      and\n      eq\n        /* \"InterbankTransfer.sol\":11647:11721  transactions[i].from == user ||... */\n      dup1\n      tag_375\n      jumpi\n      pop\n        /* \"InterbankTransfer.sol\":11717:11721  user */\n      dup4\n        /* \"InterbankTransfer.sol\":11695:11721  transactions[i].to == user */\n      0xffffffffffffffffffffffffffffffffffffffff\n      and\n        /* \"InterbankTransfer.sol\":11695:11707  transactions */\n      0x03\n        /* \"InterbankTransfer.sol\":11708:11709  i */\n      dup3\n        /* \"InterbankTransfer.sol\":11695:11710  transactions[i] */\n      dup2\n      sload\n      dup2\n      lt\n      tag_376\n      jumpi\n      tag_377\n      tag_163\n      jump\t// in\n    tag_377:\n    tag_376:\n      swap1\n      0x00\n      mstore\n      keccak256(0x00, 0x20)\n      swap1\n      0x09\n      mul\n      add\n        /* \"InterbankTransfer.sol\":11695:11713  transactions[i].to */\n      0x02\n      add\n      0x00\n      swap1\n      sload\n      swap1\n      0x0100\n      exp\n      swap1\n      div\n      0xffffffffffffffffffffffffffffffffffffffff\n      and\n        /* \"InterbankTransfer.sol\":11695:11721  transactions[i].to == user */\n      0xffffffffffffffffffffffffffffffffffffffff\n      and\n      eq\n        /* \"InterbankTransfer.sol\":11647:11721  transactions[i].from == user ||... */\n    tag_375:\n        /* \"InterbankTransfer.sol\":11626:11776  if (... */\n      iszero\n      tag_379\n      jumpi\n        /* \"InterbankTransfer.sol\":11754:11761  count++ */\n      dup2\n      dup1\n      tag_380\n      swap1\n      tag_281\n      jump\t// in\n    tag_380:\n      swap3\n      pop\n      pop\n        /* \"InterbankTransfer.sol\":11626:11776  if (... */\n    tag_379:\n        /* \"InterbankTransfer.sol\":11607:11610  i++ */\n      dup1\n      dup1\n      tag_381\n      swap1\n      tag_281\n      jump\t// in\n    tag_381:\n      swap2\n      pop\n      pop\n        /* \"InterbankTransfer.sol\":11562:11786  for (uint256 i = 0; i < transactions.length; i++) {... */\n      jump(tag_369)\n    tag_370:\n      pop\n        /* \"InterbankTransfer.sol\":11840:11864  uint256[] memory userTxs */\n      0x00\n        /* \"InterbankTransfer.sol\":11881:11886  count */\n      dup2\n        /* \"InterbankTransfer.sol\":11867:11887  new uint256[](count) */\n      0xffffffffffffffff\n      dup2\n      gt\n      iszero\n      tag_382\n      jumpi\n      tag_383\n      tag_384\n      jump\t// in\n    tag_383:\n    tag_382:\n      mload(0x40)\n      swap1\n      dup1\n      dup3\n      mstore\n      dup1\n      0x20\n      mul\n      0x20\n      add\n      dup3\n      add\n      0x40\n      mstore\n      dup1\n      iszero\n      tag_385\n      jumpi\n      dup2\n      0x20\n      add\n      0x20\n      dup3\n      mul\n      dup1\n      calldatasize\n      dup4\n      calldatacopy\n      dup1\n      dup3\n      add\n      swap2\n      pop\n      pop\n      swap1\n      pop\n    tag_385:\n      pop\n        /* \"InterbankTransfer.sol\":11840:11887  uint256[] memory userTxs = new uint256[](count) */\n      swap1\n      pop\n        /* \"InterbankTransfer.sol\":11897:11910  uint256 index */\n      0x00\n        /* \"InterbankTransfer.sol\":11938:11947  uint256 i */\n      dup1\n        /* \"InterbankTransfer.sol\":11933:12210  for (uint256 i = 0; i < transactions.length; i++) {... */\n    tag_386:\n        /* \"InterbankTransfer.sol\":11957:11969  transactions */\n      0x03\n        /* \"InterbankTransfer.sol\":11957:11976  transactions.length */\n      dup1\n      sload\n      swap1\n      pop\n        /* \"InterbankTransfer.sol\":11953:11954  i */\n      dup2\n        /* \"InterbankTransfer.sol\":11953:11976  i < transactions.length */\n      lt\n        /* \"InterbankTransfer.sol\":11933:12210  for (uint256 i = 0; i < transactions.length; i++) {... */\n      iszero\n      tag_387\n      jumpi\n        /* \"InterbankTransfer.sol\":12042:12046  user */\n      dup6\n        /* \"InterbankTransfer.sol\":12018:12046  transactions[i].from == user */\n      0xffffffffffffffffffffffffffffffffffffffff\n      and\n        /* \"InterbankTransfer.sol\":12018:12030  transactions */\n      0x03\n        /* \"InterbankTransfer.sol\":12031:12032  i */\n      dup3\n        /* \"InterbankTransfer.sol\":12018:12033  transactions[i] */\n      dup2\n      sload\n      dup2\n      lt\n      tag_389\n      jumpi\n      tag_390\n      tag_163\n      jump\t// in\n    tag_390:\n    tag_389:\n      swap1\n      0x00\n      mstore\n      keccak256(0x00, 0x20)\n      swap1\n      0x09\n      mul\n      add\n        /* \"InterbankTransfer.sol\":12018:12038  transactions[i].from */\n      0x01\n      add\n      0x00\n      swap1\n      sload\n      swap1\n      0x0100\n      exp\n      swap1\n      div\n      0xffffffffffffffffffffffffffffffffffffffff\n      and\n        /* \"InterbankTransfer.sol\":12018:12046  transactions[i].from == user */\n      0xffffffffffffffffffffffffffffffffffffffff\n      and\n      eq\n        /* \"InterbankTransfer.sol\":12018:12092  transactions[i].from == user ||... */\n      dup1\n      tag_392\n      jumpi\n      pop\n        /* \"InterbankTransfer.sol\":12088:12092  user */\n      dup6\n        /* \"InterbankTransfer.sol\":12066:12092  transactions[i].to == user */\n      0xffffffffffffffffffffffffffffffffffffffff\n      and\n        /* \"InterbankTransfer.sol\":12066:12078  transactions */\n      0x03\n        /* \"InterbankTransfer.sol\":12079:12080  i */\n      dup3\n        /* \"InterbankTransfer.sol\":12066:12081  transactions[i] */\n      dup2\n      sload\n      dup2\n      lt\n      tag_393\n      jumpi\n      tag_394\n      tag_163\n      jump\t// in\n    tag_394:\n    tag_393:\n      swap1\n      0x00\n      mstore\n      keccak256(0x00, 0x20)\n      swap1\n      0x09\n      mul\n      add\n        /* \"InterbankTransfer.sol\":12066:12084  transactions[i].to */\n      0x02\n      add\n      0x00\n      swap1\n      sload\n      swap1\n      0x0100\n      exp\n      swap1\n      div\n      0xffffffffffffffffffffffffffffffffffffffff\n      and\n        /* \"InterbankTransfer.sol\":12066:12092  transactions[i].to == user */\n      0xffffffffffffffffffffffffffffffffffffffff\n      and\n      eq\n        /* \"InterbankTransfer.sol\":12018:12092  transactions[i].from == user ||... */\n    tag_392:\n        /* \"InterbankTransfer.sol\":11997:12200  if (... */\n      iszero\n      tag_396\n      jumpi\n        /* \"InterbankTransfer.sol\":12142:12154  transactions */\n      0x03\n        /* \"InterbankTransfer.sol\":12155:12156  i */\n      dup2\n        /* \"InterbankTransfer.sol\":12142:12157  transactions[i] */\n      dup2\n      sload\n      dup2\n      lt\n      tag_397\n      jumpi\n      tag_398\n      tag_163\n      jump\t// in\n    tag_398:\n    tag_397:\n      swap1\n      0x00\n      mstore\n      keccak256(0x00, 0x20)\n      swap1\n      0x09\n      mul\n      add\n        /* \"InterbankTransfer.sol\":12142:12160  transactions[i].id */\n      0x00\n      add\n      sload\n        /* \"InterbankTransfer.sol\":12125:12132  userTxs */\n      dup4\n        /* \"InterbankTransfer.sol\":12133:12138  index */\n      dup4\n        /* \"InterbankTransfer.sol\":12125:12139  userTxs[index] */\n      dup2\n      mload\n      dup2\n      lt\n      tag_400\n      jumpi\n      tag_401\n      tag_163\n      jump\t// in\n    tag_401:\n    tag_400:\n      0x20\n      mul\n      0x20\n      add\n      add\n        /* \"InterbankTransfer.sol\":12125:12160  userTxs[index] = transactions[i].id */\n      dup2\n      dup2\n      mstore\n      pop\n      pop\n        /* \"InterbankTransfer.sol\":12178:12185  index++ */\n      dup2\n      dup1\n      tag_402\n      swap1\n      tag_281\n      jump\t// in\n    tag_402:\n      swap3\n      pop\n      pop\n        /* \"InterbankTransfer.sol\":11997:12200  if (... */\n    tag_396:\n        /* \"InterbankTransfer.sol\":11978:11981  i++ */\n      dup1\n      dup1\n      tag_403\n      swap1\n      tag_281\n      jump\t// in\n    tag_403:\n      swap2\n      pop\n      pop\n        /* \"InterbankTransfer.sol\":11933:12210  for (uint256 i = 0; i < transactions.length; i++) {... */\n      jump(tag_386)\n    tag_387:\n      pop\n        /* \"InterbankTransfer.sol\":12235:12242  userTxs */\n      dup2\n        /* \"InterbankTransfer.sol\":12228:12242  return userTxs */\n      swap4\n      pop\n      pop\n      pop\n      pop\n        /* \"InterbankTransfer.sol\":11371:12249  function getUserTransactions(address user)... */\n      swap2\n      swap1\n      pop\n      jump\t// out\n        /* \"InterbankTransfer.sol\":4405:4507  function getBalance(address user) public view returns (uint256) {... */\n    tag_130:\n        /* \"InterbankTransfer.sol\":4460:4467  uint256 */\n      0x00\n        /* \"InterbankTransfer.sol\":4486:4494  balances */\n      0x01\n        /* \"InterbankTransfer.sol\":4486:4500  balances[user] */\n      0x00\n        /* \"InterbankTransfer.sol\":4495:4499  user */\n      dup4\n        /* \"InterbankTransfer.sol\":4486:4500  balances[user] */\n      0xffffffffffffffffffffffffffffffffffffffff\n      and\n      0xffffffffffffffffffffffffffffffffffffffff\n      and\n      dup2\n      mstore\n      0x20\n      add\n      swap1\n      dup2\n      mstore\n      0x20\n      add\n      0x00\n      keccak256\n      sload\n        /* \"InterbankTransfer.sol\":4479:4500  return balances[user] */\n      swap1\n      pop\n        /* \"InterbankTransfer.sol\":4405:4507  function getBalance(address user) public view returns (uint256) {... */\n      swap2\n      swap1\n      pop\n      jump\t// out\n        /* \"InterbankTransfer.sol\":1791:1842  mapping(uint256 => uint256) public transactionIndex */\n    tag_135:\n      mstore(0x20, 0x04)\n      dup1\n      0x00\n      mstore\n      keccak256(0x00, 0x40)\n      0x00\n      swap2\n      pop\n      swap1\n      pop\n      sload\n      dup2\n      jump\t// out\n    tag_227:\n      dup3\n      dup1\n      sload\n      tag_405\n      swap1\n      tag_166\n      jump\t// in\n    tag_405:\n      swap1\n      0x00\n      mstore\n      keccak256(0x00, 0x20)\n      swap1\n      0x1f\n      add\n      0x20\n      swap1\n      div\n      dup2\n      add\n      swap3\n      dup3\n      tag_407\n      jumpi\n      0x00\n      dup6\n      sstore\n      jump(tag_406)\n    tag_407:\n      dup3\n      0x1f\n      lt\n      tag_408\n      jumpi\n      dup1\n      mload\n      not(0xff)\n      and\n      dup4\n      dup1\n      add\n      or\n      dup6\n      sstore\n      jump(tag_406)\n    tag_408:\n      dup3\n      dup1\n      add\n      0x01\n      add\n      dup6\n      sstore\n      dup3\n      iszero\n      tag_406\n      jumpi\n      swap2\n      dup3\n      add\n    tag_409:\n      dup3\n      dup2\n      gt\n      iszero\n      tag_410\n      jumpi\n      dup3\n      mload\n      dup3\n      sstore\n      swap2\n      0x20\n      add\n      swap2\n      swap1\n      0x01\n      add\n      swap1\n      jump(tag_409)\n    tag_410:\n    tag_406:\n      pop\n      swap1\n      pop\n      tag_411\n      swap2\n      swap1\n      tag_412\n      jump\t// in\n    tag_411:\n      pop\n      swap1\n      jump\t// out\n    tag_412:\n    tag_413:\n      dup1\n      dup3\n      gt\n      iszero\n      tag_414\n      jumpi\n      0x00\n      dup2\n      0x00\n      swap1\n      sstore\n      pop\n      0x01\n      add\n      jump(tag_413)\n    tag_414:\n      pop\n      swap1\n      jump\t// out\n        /* \"#utility.yul\":7:82   */\n    tag_415:\n        /* \"#utility.yul\":40:46   */\n      0x00\n        /* \"#utility.yul\":73:75   */\n      0x40\n        /* \"#utility.yul\":67:76   */\n      mload\n        /* \"#utility.yul\":57:76   */\n      swap1\n      pop\n        /* \"#utility.yul\":7:82   */\n      swap1\n      jump\t// out\n        /* \"#utility.yul\":88:205   */\n    tag_416:\n        /* \"#utility.yul\":197:198   */\n      0x00\n        /* \"#utility.yul\":194:195   */\n      dup1\n        /* \"#utility.yul\":187:199   */\n      revert\n        /* \"#utility.yul\":211:328   */\n    tag_417:\n        /* \"#utility.yul\":320:321   */\n      0x00\n        /* \"#utility.yul\":317:318   */\n      dup1\n        /* \"#utility.yul\":310:322   */\n      revert\n        /* \"#utility.yul\":334:460   */\n    tag_418:\n        /* \"#utility.yul\":371:378   */\n      0x00\n        /* \"#utility.yul\":411:453   */\n      0xffffffffffffffffffffffffffffffffffffffff\n        /* \"#utility.yul\":404:409   */\n      dup3\n        /* \"#utility.yul\":400:454   */\n      and\n        /* \"#utility.yul\":389:454   */\n      swap1\n      pop\n        /* \"#utility.yul\":334:460   */\n      swap2\n      swap1\n      pop\n      jump\t// out\n        /* \"#utility.yul\":466:562   */\n    tag_419:\n        /* \"#utility.yul\":503:510   */\n      0x00\n        /* \"#utility.yul\":532:556   */\n      tag_505\n        /* \"#utility.yul\":550:555   */\n      dup3\n        /* \"#utility.yul\":532:556   */\n      tag_418\n      jump\t// in\n    tag_505:\n        /* \"#utility.yul\":521:556   */\n      swap1\n      pop\n        /* \"#utility.yul\":466:562   */\n      swap2\n      swap1\n      pop\n      jump\t// out\n        /* \"#utility.yul\":568:690   */\n    tag_420:\n        /* \"#utility.yul\":641:665   */\n      tag_507\n        /* \"#utility.yul\":659:664   */\n      dup2\n        /* \"#utility.yul\":641:665   */\n      tag_419\n      jump\t// in\n    tag_507:\n        /* \"#utility.yul\":634:639   */\n      dup2\n        /* \"#utility.yul\":631:666   */\n      eq\n        /* \"#utility.yul\":621:684   */\n      tag_508\n      jumpi\n        /* \"#utility.yul\":680:681   */\n      0x00\n        /* \"#utility.yul\":677:678   */\n      dup1\n        /* \"#utility.yul\":670:682   */\n      revert\n        /* \"#utility.yul\":621:684   */\n    tag_508:\n        /* \"#utility.yul\":568:690   */\n      pop\n      jump\t// out\n        /* \"#utility.yul\":696:835   */\n    tag_421:\n        /* \"#utility.yul\":742:747   */\n      0x00\n        /* \"#utility.yul\":780:786   */\n      dup2\n        /* \"#utility.yul\":767:787   */\n      calldataload\n        /* \"#utility.yul\":758:787   */\n      swap1\n      pop\n        /* \"#utility.yul\":796:829   */\n      tag_510\n        /* \"#utility.yul\":823:828   */\n      dup2\n        /* \"#utility.yul\":796:829   */\n      tag_420\n      jump\t// in\n    tag_510:\n        /* \"#utility.yul\":696:835   */\n      swap3\n      swap2\n      pop\n      pop\n      jump\t// out\n        /* \"#utility.yul\":841:1170   */\n    tag_29:\n        /* \"#utility.yul\":900:906   */\n      0x00\n        /* \"#utility.yul\":949:951   */\n      0x20\n        /* \"#utility.yul\":937:946   */\n      dup3\n        /* \"#utility.yul\":928:935   */\n      dup5\n        /* \"#utility.yul\":924:947   */\n      sub\n        /* \"#utility.yul\":920:952   */\n      slt\n        /* \"#utility.yul\":917:1036   */\n      iszero\n      tag_512\n      jumpi\n        /* \"#utility.yul\":955:1034   */\n      tag_513\n      tag_416\n      jump\t// in\n    tag_513:\n        /* \"#utility.yul\":917:1036   */\n    tag_512:\n        /* \"#utility.yul\":1075:1076   */\n      0x00\n        /* \"#utility.yul\":1100:1153   */\n      tag_514\n        /* \"#utility.yul\":1145:1152   */\n      dup5\n        /* \"#utility.yul\":1136:1142   */\n      dup3\n        /* \"#utility.yul\":1125:1134   */\n      dup6\n        /* \"#utility.yul\":1121:1143   */\n      add\n        /* \"#utility.yul\":1100:1153   */\n      tag_421\n      jump\t// in\n    tag_514:\n        /* \"#utility.yul\":1090:1153   */\n      swap2\n      pop\n        /* \"#utility.yul\":1046:1163   */\n      pop\n        /* \"#utility.yul\":841:1170   */\n      swap3\n      swap2\n      pop\n      pop\n      jump\t// out\n        /* \"#utility.yul\":1176:1274   */\n    tag_422:\n        /* \"#utility.yul\":1227:1233   */\n      0x00\n        /* \"#utility.yul\":1261:1266   */\n      dup2\n        /* \"#utility.yul\":1255:1267   */\n      mload\n        /* \"#utility.yul\":1245:1267   */\n      swap1\n      pop\n        /* \"#utility.yul\":1176:1274   */\n      swap2\n      swap1\n      pop\n      jump\t// out\n        /* \"#utility.yul\":1280:1448   */\n    tag_423:\n        /* \"#utility.yul\":1363:1374   */\n      0x00\n        /* \"#utility.yul\":1397:1403   */\n      dup3\n        /* \"#utility.yul\":1392:1395   */\n      dup3\n        /* \"#utility.yul\":1385:1404   */\n      mstore\n        /* \"#utility.yul\":1437:1441   */\n      0x20\n        /* \"#utility.yul\":1432:1435   */\n      dup3\n        /* \"#utility.yul\":1428:1442   */\n      add\n        /* \"#utility.yul\":1413:1442   */\n      swap1\n      pop\n        /* \"#utility.yul\":1280:1448   */\n      swap3\n      swap2\n      pop\n      pop\n      jump\t// out\n        /* \"#utility.yul\":1454:1761   */\n    tag_424:\n        /* \"#utility.yul\":1522:1523   */\n      0x00\n        /* \"#utility.yul\":1532:1645   */\n    tag_518:\n        /* \"#utility.yul\":1546:1552   */\n      dup4\n        /* \"#utility.yul\":1543:1544   */\n      dup2\n        /* \"#utility.yul\":1540:1553   */\n      lt\n        /* \"#utility.yul\":1532:1645   */\n      iszero\n      tag_520\n      jumpi\n        /* \"#utility.yul\":1631:1632   */\n      dup1\n        /* \"#utility.yul\":1626:1629   */\n      dup3\n        /* \"#utility.yul\":1622:1633   */\n      add\n        /* \"#utility.yul\":1616:1634   */\n      mload\n        /* \"#utility.yul\":1612:1613   */\n      dup2\n        /* \"#utility.yul\":1607:1610   */\n      dup5\n        /* \"#utility.yul\":1603:1614   */\n      add\n        /* \"#utility.yul\":1596:1635   */\n      mstore\n        /* \"#utility.yul\":1568:1570   */\n      0x20\n        /* \"#utility.yul\":1565:1566   */\n      dup2\n        /* \"#utility.yul\":1561:1571   */\n      add\n        /* \"#utility.yul\":1556:1571   */\n      swap1\n      pop\n        /* \"#utility.yul\":1532:1645   */\n      jump(tag_518)\n    tag_520:\n        /* \"#utility.yul\":1663:1669   */\n      dup4\n        /* \"#utility.yul\":1660:1661   */\n      dup2\n        /* \"#utility.yul\":1657:1670   */\n      gt\n        /* \"#utility.yul\":1654:1755   */\n      iszero\n      tag_521\n      jumpi\n        /* \"#utility.yul\":1743:1744   */\n      0x00\n        /* \"#utility.yul\":1734:1740   */\n      dup5\n        /* \"#utility.yul\":1729:1732   */\n      dup5\n        /* \"#utility.yul\":1725:1741   */\n      add\n        /* \"#utility.yul\":1718:1745   */\n      mstore\n        /* \"#utility.yul\":1654:1755   */\n    tag_521:\n        /* \"#utility.yul\":1503:1761   */\n      pop\n        /* \"#utility.yul\":1454:1761   */\n      pop\n      pop\n      pop\n      jump\t// out\n        /* \"#utility.yul\":1767:1869   */\n    tag_425:\n        /* \"#utility.yul\":1808:1814   */\n      0x00\n        /* \"#utility.yul\":1859:1861   */\n      0x1f\n        /* \"#utility.yul\":1855:1862   */\n      not\n        /* \"#utility.yul\":1850:1852   */\n      0x1f\n        /* \"#utility.yul\":1843:1848   */\n      dup4\n        /* \"#utility.yul\":1839:1853   */\n      add\n        /* \"#utility.yul\":1835:1863   */\n      and\n        /* \"#utility.yul\":1825:1863   */\n      swap1\n      pop\n        /* \"#utility.yul\":1767:1869   */\n      swap2\n      swap1\n      pop\n      jump\t// out\n        /* \"#utility.yul\":1875:2235   */\n    tag_426:\n        /* \"#utility.yul\":1961:1964   */\n      0x00\n        /* \"#utility.yul\":1989:2027   */\n      tag_524\n        /* \"#utility.yul\":2021:2026   */\n      dup3\n        /* \"#utility.yul\":1989:2027   */\n      tag_422\n      jump\t// in\n    tag_524:\n        /* \"#utility.yul\":2043:2113   */\n      tag_525\n        /* \"#utility.yul\":2106:2112   */\n      dup2\n        /* \"#utility.yul\":2101:2104   */\n      dup6\n        /* \"#utility.yul\":2043:2113   */\n      tag_423\n      jump\t// in\n    tag_525:\n        /* \"#utility.yul\":2036:2113   */\n      swap4\n      pop\n        /* \"#utility.yul\":2122:2174   */\n      tag_526\n        /* \"#utility.yul\":2167:2173   */\n      dup2\n        /* \"#utility.yul\":2162:2165   */\n      dup6\n        /* \"#utility.yul\":2155:2159   */\n      0x20\n        /* \"#utility.yul\":2148:2153   */\n      dup7\n        /* \"#utility.yul\":2144:2160   */\n      add\n        /* \"#utility.yul\":2122:2174   */\n      tag_424\n      jump\t// in\n    tag_526:\n        /* \"#utility.yul\":2199:2228   */\n      tag_527\n        /* \"#utility.yul\":2221:2227   */\n      dup2\n        /* \"#utility.yul\":2199:2228   */\n      tag_425\n      jump\t// in\n    tag_527:\n        /* \"#utility.yul\":2194:2197   */\n      dup5\n        /* \"#utility.yul\":2190:2229   */\n      add\n        /* \"#utility.yul\":2183:2229   */\n      swap2\n      pop\n        /* \"#utility.yul\":1965:2235   */\n      pop\n        /* \"#utility.yul\":1875:2235   */\n      swap3\n      swap2\n      pop\n      pop\n      jump\t// out\n        /* \"#utility.yul\":2241:2550   */\n    tag_32:\n        /* \"#utility.yul\":2352:2356   */\n      0x00\n        /* \"#utility.yul\":2390:2392   */\n      0x20\n        /* \"#utility.yul\":2379:2388   */\n      dup3\n        /* \"#utility.yul\":2375:2393   */\n      add\n        /* \"#utility.yul\":2367:2393   */\n      swap1\n      pop\n        /* \"#utility.yul\":2439:2448   */\n      dup2\n        /* \"#utility.yul\":2433:2437   */\n      dup2\n        /* \"#utility.yul\":2429:2449   */\n      sub\n        /* \"#utility.yul\":2425:2426   */\n      0x00\n        /* \"#utility.yul\":2414:2423   */\n      dup4\n        /* \"#utility.yul\":2410:2427   */\n      add\n        /* \"#utility.yul\":2403:2450   */\n      mstore\n        /* \"#utility.yul\":2467:2543   */\n      tag_529\n        /* \"#utility.yul\":2538:2542   */\n      dup2\n        /* \"#utility.yul\":2529:2535   */\n      dup5\n        /* \"#utility.yul\":2467:2543   */\n      tag_426\n      jump\t// in\n    tag_529:\n        /* \"#utility.yul\":2459:2543   */\n      swap1\n      pop\n        /* \"#utility.yul\":2241:2550   */\n      swap3\n      swap2\n      pop\n      pop\n      jump\t// out\n        /* \"#utility.yul\":2556:2646   */\n    tag_427:\n        /* \"#utility.yul\":2590:2597   */\n      0x00\n        /* \"#utility.yul\":2633:2638   */\n      dup2\n        /* \"#utility.yul\":2626:2639   */\n      iszero\n        /* \"#utility.yul\":2619:2640   */\n      iszero\n        /* \"#utility.yul\":2608:2640   */\n      swap1\n      pop\n        /* \"#utility.yul\":2556:2646   */\n      swap2\n      swap1\n      pop\n      jump\t// out\n        /* \"#utility.yul\":2652:2761   */\n    tag_428:\n        /* \"#utility.yul\":2733:2754   */\n      tag_532\n        /* \"#utility.yul\":2748:2753   */\n      dup2\n        /* \"#utility.yul\":2733:2754   */\n      tag_427\n      jump\t// in\n    tag_532:\n        /* \"#utility.yul\":2728:2731   */\n      dup3\n        /* \"#utility.yul\":2721:2755   */\n      mstore\n        /* \"#utility.yul\":2652:2761   */\n      pop\n      pop\n      jump\t// out\n        /* \"#utility.yul\":2767:2977   */\n    tag_37:\n        /* \"#utility.yul\":2854:2858   */\n      0x00\n        /* \"#utility.yul\":2892:2894   */\n      0x20\n        /* \"#utility.yul\":2881:2890   */\n      dup3\n        /* \"#utility.yul\":2877:2895   */\n      add\n        /* \"#utility.yul\":2869:2895   */\n      swap1\n      pop\n        /* \"#utility.yul\":2905:2970   */\n      tag_534\n        /* \"#utility.yul\":2967:2968   */\n      0x00\n        /* \"#utility.yul\":2956:2965   */\n      dup4\n        /* \"#utility.yul\":2952:2969   */\n      add\n        /* \"#utility.yul\":2943:2949   */\n      dup5\n        /* \"#utility.yul\":2905:2970   */\n      tag_428\n      jump\t// in\n    tag_534:\n        /* \"#utility.yul\":2767:2977   */\n      swap3\n      swap2\n      pop\n      pop\n      jump\t// out\n        /* \"#utility.yul\":2983:3060   */\n    tag_429:\n        /* \"#utility.yul\":3020:3027   */\n      0x00\n        /* \"#utility.yul\":3049:3054   */\n      dup2\n        /* \"#utility.yul\":3038:3054   */\n      swap1\n      pop\n        /* \"#utility.yul\":2983:3060   */\n      swap2\n      swap1\n      pop\n      jump\t// out\n        /* \"#utility.yul\":3066:3184   */\n    tag_430:\n        /* \"#utility.yul\":3153:3177   */\n      tag_537\n        /* \"#utility.yul\":3171:3176   */\n      dup2\n        /* \"#utility.yul\":3153:3177   */\n      tag_429\n      jump\t// in\n    tag_537:\n        /* \"#utility.yul\":3148:3151   */\n      dup3\n        /* \"#utility.yul\":3141:3178   */\n      mstore\n        /* \"#utility.yul\":3066:3184   */\n      pop\n      pop\n      jump\t// out\n        /* \"#utility.yul\":3190:3412   */\n    tag_47:\n        /* \"#utility.yul\":3283:3287   */\n      0x00\n        /* \"#utility.yul\":3321:3323   */\n      0x20\n        /* \"#utility.yul\":3310:3319   */\n      dup3\n        /* \"#utility.yul\":3306:3324   */\n      add\n        /* \"#utility.yul\":3298:3324   */\n      swap1\n      pop\n        /* \"#utility.yul\":3334:3405   */\n      tag_539\n        /* \"#utility.yul\":3402:3403   */\n      0x00\n        /* \"#utility.yul\":3391:3400   */\n      dup4\n        /* \"#utility.yul\":3387:3404   */\n      add\n        /* \"#utility.yul\":3378:3384   */\n      dup5\n        /* \"#utility.yul\":3334:3405   */\n      tag_430\n      jump\t// in\n    tag_539:\n        /* \"#utility.yul\":3190:3412   */\n      swap3\n      swap2\n      pop\n      pop\n      jump\t// out\n        /* \"#utility.yul\":3418:3540   */\n    tag_431:\n        /* \"#utility.yul\":3491:3515   */\n      tag_541\n        /* \"#utility.yul\":3509:3514   */\n      dup2\n        /* \"#utility.yul\":3491:3515   */\n      tag_429\n      jump\t// in\n    tag_541:\n        /* \"#utility.yul\":3484:3489   */\n      dup2\n        /* \"#utility.yul\":3481:3516   */\n      eq\n        /* \"#utility.yul\":3471:3534   */\n      tag_542\n      jumpi\n        /* \"#utility.yul\":3530:3531   */\n      0x00\n        /* \"#utility.yul\":3527:3528   */\n      dup1\n        /* \"#utility.yul\":3520:3532   */\n      revert\n        /* \"#utility.yul\":3471:3534   */\n    tag_542:\n        /* \"#utility.yul\":3418:3540   */\n      pop\n      jump\t// out\n        /* \"#utility.yul\":3546:3685   */\n    tag_432:\n        /* \"#utility.yul\":3592:3597   */\n      0x00\n        /* \"#utility.yul\":3630:3636   */\n      dup2\n        /* \"#utility.yul\":3617:3637   */\n      calldataload\n        /* \"#utility.yul\":3608:3637   */\n      swap1\n      pop\n        /* \"#utility.yul\":3646:3679   */\n      tag_544\n        /* \"#utility.yul\":3673:3678   */\n      dup2\n        /* \"#utility.yul\":3646:3679   */\n      tag_431\n      jump\t// in\n    tag_544:\n        /* \"#utility.yul\":3546:3685   */\n      swap3\n      swap2\n      pop\n      pop\n      jump\t// out\n        /* \"#utility.yul\":3691:4020   */\n    tag_55:\n        /* \"#utility.yul\":3750:3756   */\n      0x00\n        /* \"#utility.yul\":3799:3801   */\n      0x20\n        /* \"#utility.yul\":3787:3796   */\n      dup3\n        /* \"#utility.yul\":3778:3785   */\n      dup5\n        /* \"#utility.yul\":3774:3797   */\n      sub\n        /* \"#utility.yul\":3770:3802   */\n      slt\n        /* \"#utility.yul\":3767:3886   */\n      iszero\n      tag_546\n      jumpi\n        /* \"#utility.yul\":3805:3884   */\n      tag_547\n      tag_416\n      jump\t// in\n    tag_547:\n        /* \"#utility.yul\":3767:3886   */\n    tag_546:\n        /* \"#utility.yul\":3925:3926   */\n      0x00\n        /* \"#utility.yul\":3950:4003   */\n      tag_548\n        /* \"#utility.yul\":3995:4002   */\n      dup5\n        /* \"#utility.yul\":3986:3992   */\n      dup3\n        /* \"#utility.yul\":3975:3984   */\n      dup6\n        /* \"#utility.yul\":3971:3993   */\n      add\n        /* \"#utility.yul\":3950:4003   */\n      tag_432\n      jump\t// in\n    tag_548:\n        /* \"#utility.yul\":3940:4003   */\n      swap2\n      pop\n        /* \"#utility.yul\":3896:4013   */\n      pop\n        /* \"#utility.yul\":3691:4020   */\n      swap3\n      swap2\n      pop\n      pop\n      jump\t// out\n        /* \"#utility.yul\":4026:4144   */\n    tag_433:\n        /* \"#utility.yul\":4113:4137   */\n      tag_550\n        /* \"#utility.yul\":4131:4136   */\n      dup2\n        /* \"#utility.yul\":4113:4137   */\n      tag_419\n      jump\t// in\n    tag_550:\n        /* \"#utility.yul\":4108:4111   */\n      dup3\n        /* \"#utility.yul\":4101:4138   */\n      mstore\n        /* \"#utility.yul\":4026:4144   */\n      pop\n      pop\n      jump\t// out\n        /* \"#utility.yul\":4150:4249   */\n    tag_434:\n        /* \"#utility.yul\":4202:4208   */\n      0x00\n        /* \"#utility.yul\":4236:4241   */\n      dup2\n        /* \"#utility.yul\":4230:4242   */\n      mload\n        /* \"#utility.yul\":4220:4242   */\n      swap1\n      pop\n        /* \"#utility.yul\":4150:4249   */\n      swap2\n      swap1\n      pop\n      jump\t// out\n        /* \"#utility.yul\":4255:4424   */\n    tag_435:\n        /* \"#utility.yul\":4339:4350   */\n      0x00\n        /* \"#utility.yul\":4373:4379   */\n      dup3\n        /* \"#utility.yul\":4368:4371   */\n      dup3\n        /* \"#utility.yul\":4361:4380   */\n      mstore\n        /* \"#utility.yul\":4413:4417   */\n      0x20\n        /* \"#utility.yul\":4408:4411   */\n      dup3\n        /* \"#utility.yul\":4404:4418   */\n      add\n        /* \"#utility.yul\":4389:4418   */\n      swap1\n      pop\n        /* \"#utility.yul\":4255:4424   */\n      swap3\n      swap2\n      pop\n      pop\n      jump\t// out\n        /* \"#utility.yul\":4430:4794   */\n    tag_436:\n        /* \"#utility.yul\":4518:4521   */\n      0x00\n        /* \"#utility.yul\":4546:4585   */\n      tag_554\n        /* \"#utility.yul\":4579:4584   */\n      dup3\n        /* \"#utility.yul\":4546:4585   */\n      tag_434\n      jump\t// in\n    tag_554:\n        /* \"#utility.yul\":4601:4672   */\n      tag_555\n        /* \"#utility.yul\":4665:4671   */\n      dup2\n        /* \"#utility.yul\":4660:4663   */\n      dup6\n        /* \"#utility.yul\":4601:4672   */\n      tag_435\n      jump\t// in\n    tag_555:\n        /* \"#utility.yul\":4594:4672   */\n      swap4\n      pop\n        /* \"#utility.yul\":4681:4733   */\n      tag_556\n        /* \"#utility.yul\":4726:4732   */\n      dup2\n        /* \"#utility.yul\":4721:4724   */\n      dup6\n        /* \"#utility.yul\":4714:4718   */\n      0x20\n        /* \"#utility.yul\":4707:4712   */\n      dup7\n        /* \"#utility.yul\":4703:4719   */\n      add\n        /* \"#utility.yul\":4681:4733   */\n      tag_424\n      jump\t// in\n    tag_556:\n        /* \"#utility.yul\":4758:4787   */\n      tag_557\n        /* \"#utility.yul\":4780:4786   */\n      dup2\n        /* \"#utility.yul\":4758:4787   */\n      tag_425\n      jump\t// in\n    tag_557:\n        /* \"#utility.yul\":4753:4756   */\n      dup5\n        /* \"#utility.yul\":4749:4788   */\n      add\n        /* \"#utility.yul\":4742:4788   */\n      swap2\n      pop\n        /* \"#utility.yul\":4522:4794   */\n      pop\n        /* \"#utility.yul\":4430:4794   */\n      swap3\n      swap2\n      pop\n      pop\n      jump\t// out\n        /* \"#utility.yul\":4800:4980   */\n    tag_183:\n        /* \"#utility.yul\":4848:4925   */\n      0x4e487b7100000000000000000000000000000000000000000000000000000000\n        /* \"#utility.yul\":4845:4846   */\n      0x00\n        /* \"#utility.yul\":4838:4926   */\n      mstore\n        /* \"#utility.yul\":4945:4949   */\n      0x21\n        /* \"#utility.yul\":4942:4943   */\n      0x04\n        /* \"#utility.yul\":4935:4950   */\n      mstore\n        /* \"#utility.yul\":4969:4973   */\n      0x24\n        /* \"#utility.yul\":4966:4967   */\n      0x00\n        /* \"#utility.yul\":4959:4974   */\n      revert\n        /* \"#utility.yul\":4986:5112   */\n    tag_437:\n        /* \"#utility.yul\":5080:5081   */\n      0x04\n        /* \"#utility.yul\":5073:5078   */\n      dup2\n        /* \"#utility.yul\":5070:5082   */\n      lt\n        /* \"#utility.yul\":5060:5106   */\n      tag_560\n      jumpi\n        /* \"#utility.yul\":5086:5104   */\n      tag_561\n      tag_183\n      jump\t// in\n    tag_561:\n        /* \"#utility.yul\":5060:5106   */\n    tag_560:\n        /* \"#utility.yul\":4986:5112   */\n      pop\n      jump\t// out\n        /* \"#utility.yul\":5118:5271   */\n    tag_438:\n        /* \"#utility.yul\":5176:5183   */\n      0x00\n        /* \"#utility.yul\":5205:5210   */\n      dup2\n        /* \"#utility.yul\":5194:5210   */\n      swap1\n      pop\n        /* \"#utility.yul\":5211:5265   */\n      tag_563\n        /* \"#utility.yul\":5259:5264   */\n      dup3\n        /* \"#utility.yul\":5211:5265   */\n      tag_437\n      jump\t// in\n    tag_563:\n        /* \"#utility.yul\":5118:5271   */\n      swap2\n      swap1\n      pop\n      jump\t// out\n        /* \"#utility.yul\":5277:5430   */\n    tag_439:\n        /* \"#utility.yul\":5346:5355   */\n      0x00\n        /* \"#utility.yul\":5379:5424   */\n      tag_565\n        /* \"#utility.yul\":5418:5423   */\n      dup3\n        /* \"#utility.yul\":5379:5424   */\n      tag_438\n      jump\t// in\n    tag_565:\n        /* \"#utility.yul\":5366:5424   */\n      swap1\n      pop\n        /* \"#utility.yul\":5277:5430   */\n      swap2\n      swap1\n      pop\n      jump\t// out\n        /* \"#utility.yul\":5436:5605   */\n    tag_440:\n        /* \"#utility.yul\":5542:5598   */\n      tag_567\n        /* \"#utility.yul\":5592:5597   */\n      dup2\n        /* \"#utility.yul\":5542:5598   */\n      tag_439\n      jump\t// in\n    tag_567:\n        /* \"#utility.yul\":5537:5540   */\n      dup3\n        /* \"#utility.yul\":5530:5599   */\n      mstore\n        /* \"#utility.yul\":5436:5605   */\n      pop\n      pop\n      jump\t// out\n        /* \"#utility.yul\":5611:7030   */\n    tag_58:\n        /* \"#utility.yul\":6007:6011   */\n      0x00\n        /* \"#utility.yul\":6045:6048   */\n      0x0120\n        /* \"#utility.yul\":6034:6043   */\n      dup3\n        /* \"#utility.yul\":6030:6049   */\n      add\n        /* \"#utility.yul\":6022:6049   */\n      swap1\n      pop\n        /* \"#utility.yul\":6059:6130   */\n      tag_569\n        /* \"#utility.yul\":6127:6128   */\n      0x00\n        /* \"#utility.yul\":6116:6125   */\n      dup4\n        /* \"#utility.yul\":6112:6129   */\n      add\n        /* \"#utility.yul\":6103:6109   */\n      dup13\n        /* \"#utility.yul\":6059:6130   */\n      tag_430\n      jump\t// in\n    tag_569:\n        /* \"#utility.yul\":6140:6212   */\n      tag_570\n        /* \"#utility.yul\":6208:6210   */\n      0x20\n        /* \"#utility.yul\":6197:6206   */\n      dup4\n        /* \"#utility.yul\":6193:6211   */\n      add\n        /* \"#utility.yul\":6184:6190   */\n      dup12\n        /* \"#utility.yul\":6140:6212   */\n      tag_433\n      jump\t// in\n    tag_570:\n        /* \"#utility.yul\":6222:6294   */\n      tag_571\n        /* \"#utility.yul\":6290:6292   */\n      0x40\n        /* \"#utility.yul\":6279:6288   */\n      dup4\n        /* \"#utility.yul\":6275:6293   */\n      add\n        /* \"#utility.yul\":6266:6272   */\n      dup11\n        /* \"#utility.yul\":6222:6294   */\n      tag_433\n      jump\t// in\n    tag_571:\n        /* \"#utility.yul\":6304:6376   */\n      tag_572\n        /* \"#utility.yul\":6372:6374   */\n      0x60\n        /* \"#utility.yul\":6361:6370   */\n      dup4\n        /* \"#utility.yul\":6357:6375   */\n      add\n        /* \"#utility.yul\":6348:6354   */\n      dup10\n        /* \"#utility.yul\":6304:6376   */\n      tag_430\n      jump\t// in\n    tag_572:\n        /* \"#utility.yul\":6424:6433   */\n      dup2\n        /* \"#utility.yul\":6418:6422   */\n      dup2\n        /* \"#utility.yul\":6414:6434   */\n      sub\n        /* \"#utility.yul\":6408:6411   */\n      0x80\n        /* \"#utility.yul\":6397:6406   */\n      dup4\n        /* \"#utility.yul\":6393:6412   */\n      add\n        /* \"#utility.yul\":6386:6435   */\n      mstore\n        /* \"#utility.yul\":6452:6530   */\n      tag_573\n        /* \"#utility.yul\":6525:6529   */\n      dup2\n        /* \"#utility.yul\":6516:6522   */\n      dup9\n        /* \"#utility.yul\":6452:6530   */\n      tag_436\n      jump\t// in\n    tag_573:\n        /* \"#utility.yul\":6444:6530   */\n      swap1\n      pop\n        /* \"#utility.yul\":6578:6587   */\n      dup2\n        /* \"#utility.yul\":6572:6576   */\n      dup2\n        /* \"#utility.yul\":6568:6588   */\n      sub\n        /* \"#utility.yul\":6562:6565   */\n      0xa0\n        /* \"#utility.yul\":6551:6560   */\n      dup4\n        /* \"#utility.yul\":6547:6566   */\n      add\n        /* \"#utility.yul\":6540:6589   */\n      mstore\n        /* \"#utility.yul\":6606:6684   */\n      tag_574\n        /* \"#utility.yul\":6679:6683   */\n      dup2\n        /* \"#utility.yul\":6670:6676   */\n      dup8\n        /* \"#utility.yul\":6606:6684   */\n      tag_436\n      jump\t// in\n    tag_574:\n        /* \"#utility.yul\":6598:6684   */\n      swap1\n      pop\n        /* \"#utility.yul\":6732:6741   */\n      dup2\n        /* \"#utility.yul\":6726:6730   */\n      dup2\n        /* \"#utility.yul\":6722:6742   */\n      sub\n        /* \"#utility.yul\":6716:6719   */\n      0xc0\n        /* \"#utility.yul\":6705:6714   */\n      dup4\n        /* \"#utility.yul\":6701:6720   */\n      add\n        /* \"#utility.yul\":6694:6743   */\n      mstore\n        /* \"#utility.yul\":6760:6838   */\n      tag_575\n        /* \"#utility.yul\":6833:6837   */\n      dup2\n        /* \"#utility.yul\":6824:6830   */\n      dup7\n        /* \"#utility.yul\":6760:6838   */\n      tag_436\n      jump\t// in\n    tag_575:\n        /* \"#utility.yul\":6752:6838   */\n      swap1\n      pop\n        /* \"#utility.yul\":6848:6921   */\n      tag_576\n        /* \"#utility.yul\":6916:6919   */\n      0xe0\n        /* \"#utility.yul\":6905:6914   */\n      dup4\n        /* \"#utility.yul\":6901:6920   */\n      add\n        /* \"#utility.yul\":6892:6898   */\n      dup6\n        /* \"#utility.yul\":6848:6921   */\n      tag_430\n      jump\t// in\n    tag_576:\n        /* \"#utility.yul\":6931:7023   */\n      tag_577\n        /* \"#utility.yul\":7018:7021   */\n      0x0100\n        /* \"#utility.yul\":7007:7016   */\n      dup4\n        /* \"#utility.yul\":7003:7022   */\n      add\n        /* \"#utility.yul\":6994:7000   */\n      dup5\n        /* \"#utility.yul\":6931:7023   */\n      tag_440\n      jump\t// in\n    tag_577:\n        /* \"#utility.yul\":5611:7030   */\n      swap11\n      swap10\n      pop\n      pop\n      pop\n      pop\n      pop\n      pop\n      pop\n      pop\n      pop\n      pop\n      jump\t// out\n        /* \"#utility.yul\":7036:7349   */\n    tag_64:\n        /* \"#utility.yul\":7149:7153   */\n      0x00\n        /* \"#utility.yul\":7187:7189   */\n      0x20\n        /* \"#utility.yul\":7176:7185   */\n      dup3\n        /* \"#utility.yul\":7172:7190   */\n      add\n        /* \"#utility.yul\":7164:7190   */\n      swap1\n      pop\n        /* \"#utility.yul\":7236:7245   */\n      dup2\n        /* \"#utility.yul\":7230:7234   */\n      dup2\n        /* \"#utility.yul\":7226:7246   */\n      sub\n        /* \"#utility.yul\":7222:7223   */\n      0x00\n        /* \"#utility.yul\":7211:7220   */\n      dup4\n        /* \"#utility.yul\":7207:7224   */\n      add\n        /* \"#utility.yul\":7200:7247   */\n      mstore\n        /* \"#utility.yul\":7264:7342   */\n      tag_579\n        /* \"#utility.yul\":7337:7341   */\n      dup2\n        /* \"#utility.yul\":7328:7334   */\n      dup5\n        /* \"#utility.yul\":7264:7342   */\n      tag_436\n      jump\t// in\n    tag_579:\n        /* \"#utility.yul\":7256:7342   */\n      swap1\n      pop\n        /* \"#utility.yul\":7036:7349   */\n      swap3\n      swap2\n      pop\n      pop\n      jump\t// out\n        /* \"#utility.yul\":7355:7471   */\n    tag_441:\n        /* \"#utility.yul\":7425:7446   */\n      tag_581\n        /* \"#utility.yul\":7440:7445   */\n      dup2\n        /* \"#utility.yul\":7425:7446   */\n      tag_427\n      jump\t// in\n    tag_581:\n        /* \"#utility.yul\":7418:7423   */\n      dup2\n        /* \"#utility.yul\":7415:7447   */\n      eq\n        /* \"#utility.yul\":7405:7465   */\n      tag_582\n      jumpi\n        /* \"#utility.yul\":7461:7462   */\n      0x00\n        /* \"#utility.yul\":7458:7459   */\n      dup1\n        /* \"#utility.yul\":7451:7463   */\n      revert\n        /* \"#utility.yul\":7405:7465   */\n    tag_582:\n        /* \"#utility.yul\":7355:7471   */\n      pop\n      jump\t// out\n        /* \"#utility.yul\":7477:7610   */\n    tag_442:\n        /* \"#utility.yul\":7520:7525   */\n      0x00\n        /* \"#utility.yul\":7558:7564   */\n      dup2\n        /* \"#utility.yul\":7545:7565   */\n      calldataload\n        /* \"#utility.yul\":7536:7565   */\n      swap1\n      pop\n        /* \"#utility.yul\":7574:7604   */\n      tag_584\n        /* \"#utility.yul\":7598:7603   */\n      dup2\n        /* \"#utility.yul\":7574:7604   */\n      tag_441\n      jump\t// in\n    tag_584:\n        /* \"#utility.yul\":7477:7610   */\n      swap3\n      swap2\n      pop\n      pop\n      jump\t// out\n        /* \"#utility.yul\":7616:7939   */\n    tag_68:\n        /* \"#utility.yul\":7672:7678   */\n      0x00\n        /* \"#utility.yul\":7721:7723   */\n      0x20\n        /* \"#utility.yul\":7709:7718   */\n      dup3\n        /* \"#utility.yul\":7700:7707   */\n      dup5\n        /* \"#utility.yul\":7696:7719   */\n      sub\n        /* \"#utility.yul\":7692:7724   */\n      slt\n        /* \"#utility.yul\":7689:7808   */\n      iszero\n      tag_586\n      jumpi\n        /* \"#utility.yul\":7727:7806   */\n      tag_587\n      tag_416\n      jump\t// in\n    tag_587:\n        /* \"#utility.yul\":7689:7808   */\n    tag_586:\n        /* \"#utility.yul\":7847:7848   */\n      0x00\n        /* \"#utility.yul\":7872:7922   */\n      tag_588\n        /* \"#utility.yul\":7914:7921   */\n      dup5\n        /* \"#utility.yul\":7905:7911   */\n      dup3\n        /* \"#utility.yul\":7894:7903   */\n      dup6\n        /* \"#utility.yul\":7890:7912   */\n      add\n        /* \"#utility.yul\":7872:7922   */\n      tag_442\n      jump\t// in\n    tag_588:\n        /* \"#utility.yul\":7862:7922   */\n      swap2\n      pop\n        /* \"#utility.yul\":7818:7932   */\n      pop\n        /* \"#utility.yul\":7616:7939   */\n      swap3\n      swap2\n      pop\n      pop\n      jump\t// out\n        /* \"#utility.yul\":7945:8167   */\n    tag_74:\n        /* \"#utility.yul\":8038:8042   */\n      0x00\n        /* \"#utility.yul\":8076:8078   */\n      0x20\n        /* \"#utility.yul\":8065:8074   */\n      dup3\n        /* \"#utility.yul\":8061:8079   */\n      add\n        /* \"#utility.yul\":8053:8079   */\n      swap1\n      pop\n        /* \"#utility.yul\":8089:8160   */\n      tag_590\n        /* \"#utility.yul\":8157:8158   */\n      0x00\n        /* \"#utility.yul\":8146:8155   */\n      dup4\n        /* \"#utility.yul\":8142:8159   */\n      add\n        /* \"#utility.yul\":8133:8139   */\n      dup5\n        /* \"#utility.yul\":8089:8160   */\n      tag_433\n      jump\t// in\n    tag_590:\n        /* \"#utility.yul\":7945:8167   */\n      swap3\n      swap2\n      pop\n      pop\n      jump\t// out\n        /* \"#utility.yul\":8173:8233   */\n    tag_443:\n        /* \"#utility.yul\":8201:8204   */\n      0x00\n        /* \"#utility.yul\":8222:8227   */\n      dup2\n        /* \"#utility.yul\":8215:8227   */\n      swap1\n      pop\n        /* \"#utility.yul\":8173:8233   */\n      swap2\n      swap1\n      pop\n      jump\t// out\n        /* \"#utility.yul\":8239:8381   */\n    tag_444:\n        /* \"#utility.yul\":8289:8298   */\n      0x00\n        /* \"#utility.yul\":8322:8375   */\n      tag_593\n        /* \"#utility.yul\":8340:8374   */\n      tag_594\n        /* \"#utility.yul\":8349:8373   */\n      tag_595\n        /* \"#utility.yul\":8367:8372   */\n      dup5\n        /* \"#utility.yul\":8349:8373   */\n      tag_418\n      jump\t// in\n    tag_595:\n        /* \"#utility.yul\":8340:8374   */\n      tag_443\n      jump\t// in\n    tag_594:\n        /* \"#utility.yul\":8322:8375   */\n      tag_418\n      jump\t// in\n    tag_593:\n        /* \"#utility.yul\":8309:8375   */\n      swap1\n      pop\n        /* \"#utility.yul\":8239:8381   */\n      swap2\n      swap1\n      pop\n      jump\t// out\n        /* \"#utility.yul\":8387:8513   */\n    tag_445:\n        /* \"#utility.yul\":8437:8446   */\n      0x00\n        /* \"#utility.yul\":8470:8507   */\n      tag_597\n        /* \"#utility.yul\":8501:8506   */\n      dup3\n        /* \"#utility.yul\":8470:8507   */\n      tag_444\n      jump\t// in\n    tag_597:\n        /* \"#utility.yul\":8457:8507   */\n      swap1\n      pop\n        /* \"#utility.yul\":8387:8513   */\n      swap2\n      swap1\n      pop\n      jump\t// out\n        /* \"#utility.yul\":8519:8664   */\n    tag_446:\n        /* \"#utility.yul\":8588:8597   */\n      0x00\n        /* \"#utility.yul\":8621:8658   */\n      tag_599\n        /* \"#utility.yul\":8652:8657   */\n      dup3\n        /* \"#utility.yul\":8621:8658   */\n      tag_445\n      jump\t// in\n    tag_599:\n        /* \"#utility.yul\":8608:8658   */\n      swap1\n      pop\n        /* \"#utility.yul\":8519:8664   */\n      swap2\n      swap1\n      pop\n      jump\t// out\n        /* \"#utility.yul\":8670:8839   */\n    tag_447:\n        /* \"#utility.yul\":8776:8832   */\n      tag_601\n        /* \"#utility.yul\":8826:8831   */\n      dup2\n        /* \"#utility.yul\":8776:8832   */\n      tag_446\n      jump\t// in\n    tag_601:\n        /* \"#utility.yul\":8771:8774   */\n      dup3\n        /* \"#utility.yul\":8764:8833   */\n      mstore\n        /* \"#utility.yul\":8670:8839   */\n      pop\n      pop\n      jump\t// out\n        /* \"#utility.yul\":8845:9105   */\n    tag_89:\n        /* \"#utility.yul\":8957:8961   */\n      0x00\n        /* \"#utility.yul\":8995:8997   */\n      0x20\n        /* \"#utility.yul\":8984:8993   */\n      dup3\n        /* \"#utility.yul\":8980:8998   */\n      add\n        /* \"#utility.yul\":8972:8998   */\n      swap1\n      pop\n        /* \"#utility.yul\":9008:9098   */\n      tag_603\n        /* \"#utility.yul\":9095:9096   */\n      0x00\n        /* \"#utility.yul\":9084:9093   */\n      dup4\n        /* \"#utility.yul\":9080:9097   */\n      add\n        /* \"#utility.yul\":9071:9077   */\n      dup5\n        /* \"#utility.yul\":9008:9098   */\n      tag_447\n      jump\t// in\n    tag_603:\n        /* \"#utility.yul\":8845:9105   */\n      swap3\n      swap2\n      pop\n      pop\n      jump\t// out\n        /* \"#utility.yul\":9111:9228   */\n    tag_448:\n        /* \"#utility.yul\":9220:9221   */\n      0x00\n        /* \"#utility.yul\":9217:9218   */\n      dup1\n        /* \"#utility.yul\":9210:9222   */\n      revert\n        /* \"#utility.yul\":9234:9351   */\n    tag_449:\n        /* \"#utility.yul\":9343:9344   */\n      0x00\n        /* \"#utility.yul\":9340:9341   */\n      dup1\n        /* \"#utility.yul\":9333:9345   */\n      revert\n        /* \"#utility.yul\":9357:9537   */\n    tag_384:\n        /* \"#utility.yul\":9405:9482   */\n      0x4e487b7100000000000000000000000000000000000000000000000000000000\n        /* \"#utility.yul\":9402:9403   */\n      0x00\n        /* \"#utility.yul\":9395:9483   */\n      mstore\n        /* \"#utility.yul\":9502:9506   */\n      0x41\n        /* \"#utility.yul\":9499:9500   */\n      0x04\n        /* \"#utility.yul\":9492:9507   */\n      mstore\n        /* \"#utility.yul\":9526:9530   */\n      0x24\n        /* \"#utility.yul\":9523:9524   */\n      0x00\n        /* \"#utility.yul\":9516:9531   */\n      revert\n        /* \"#utility.yul\":9543:9824   */\n    tag_450:\n        /* \"#utility.yul\":9626:9653   */\n      tag_608\n        /* \"#utility.yul\":9648:9652   */\n      dup3\n        /* \"#utility.yul\":9626:9653   */\n      tag_425\n      jump\t// in\n    tag_608:\n        /* \"#utility.yul\":9618:9624   */\n      dup2\n        /* \"#utility.yul\":9614:9654   */\n      add\n        /* \"#utility.yul\":9756:9762   */\n      dup2\n        /* \"#utility.yul\":9744:9754   */\n      dup2\n        /* \"#utility.yul\":9741:9763   */\n      lt\n        /* \"#utility.yul\":9720:9738   */\n      0xffffffffffffffff\n        /* \"#utility.yul\":9708:9718   */\n      dup3\n        /* \"#utility.yul\":9705:9739   */\n      gt\n        /* \"#utility.yul\":9702:9764   */\n      or\n        /* \"#utility.yul\":9699:9787   */\n      iszero\n      tag_609\n      jumpi\n        /* \"#utility.yul\":9767:9785   */\n      tag_610\n      tag_384\n      jump\t// in\n    tag_610:\n        /* \"#utility.yul\":9699:9787   */\n    tag_609:\n        /* \"#utility.yul\":9807:9817   */\n      dup1\n        /* \"#utility.yul\":9803:9805   */\n      0x40\n        /* \"#utility.yul\":9796:9818   */\n      mstore\n        /* \"#utility.yul\":9586:9824   */\n      pop\n        /* \"#utility.yul\":9543:9824   */\n      pop\n      pop\n      jump\t// out\n        /* \"#utility.yul\":9830:9959   */\n    tag_451:\n        /* \"#utility.yul\":9864:9870   */\n      0x00\n        /* \"#utility.yul\":9891:9911   */\n      tag_612\n      tag_415\n      jump\t// in\n    tag_612:\n        /* \"#utility.yul\":9881:9911   */\n      swap1\n      pop\n        /* \"#utility.yul\":9920:9953   */\n      tag_613\n        /* \"#utility.yul\":9948:9952   */\n      dup3\n        /* \"#utility.yul\":9940:9946   */\n      dup3\n        /* \"#utility.yul\":9920:9953   */\n      tag_450\n      jump\t// in\n    tag_613:\n        /* \"#utility.yul\":9830:9959   */\n      swap2\n      swap1\n      pop\n      jump\t// out\n        /* \"#utility.yul\":9965:10273   */\n    tag_452:\n        /* \"#utility.yul\":10027:10031   */\n      0x00\n        /* \"#utility.yul\":10117:10135   */\n      0xffffffffffffffff\n        /* \"#utility.yul\":10109:10115   */\n      dup3\n        /* \"#utility.yul\":10106:10136   */\n      gt\n        /* \"#utility.yul\":10103:10159   */\n      iszero\n      tag_615\n      jumpi\n        /* \"#utility.yul\":10139:10157   */\n      tag_616\n      tag_384\n      jump\t// in\n    tag_616:\n        /* \"#utility.yul\":10103:10159   */\n    tag_615:\n        /* \"#utility.yul\":10177:10206   */\n      tag_617\n        /* \"#utility.yul\":10199:10205   */\n      dup3\n        /* \"#utility.yul\":10177:10206   */\n      tag_425\n      jump\t// in\n    tag_617:\n        /* \"#utility.yul\":10169:10206   */\n      swap1\n      pop\n        /* \"#utility.yul\":10261:10265   */\n      0x20\n        /* \"#utility.yul\":10255:10259   */\n      dup2\n        /* \"#utility.yul\":10251:10266   */\n      add\n        /* \"#utility.yul\":10243:10266   */\n      swap1\n      pop\n        /* \"#utility.yul\":9965:10273   */\n      swap2\n      swap1\n      pop\n      jump\t// out\n        /* \"#utility.yul\":10279:10433   */\n    tag_453:\n        /* \"#utility.yul\":10363:10369   */\n      dup3\n        /* \"#utility.yul\":10358:10361   */\n      dup2\n        /* \"#utility.yul\":10353:10356   */\n      dup4\n        /* \"#utility.yul\":10340:10370   */\n      calldatacopy\n        /* \"#utility.yul\":10425:10426   */\n      0x00\n        /* \"#utility.yul\":10416:10422   */\n      dup4\n        /* \"#utility.yul\":10411:10414   */\n      dup4\n        /* \"#utility.yul\":10407:10423   */\n      add\n        /* \"#utility.yul\":10400:10427   */\n      mstore\n        /* \"#utility.yul\":10279:10433   */\n      pop\n      pop\n      pop\n      jump\t// out\n        /* \"#utility.yul\":10439:10851   */\n    tag_454:\n        /* \"#utility.yul\":10517:10522   */\n      0x00\n        /* \"#utility.yul\":10542:10608   */\n      tag_620\n        /* \"#utility.yul\":10558:10607   */\n      tag_621\n        /* \"#utility.yul\":10600:10606   */\n      dup5\n        /* \"#utility.yul\":10558:10607   */\n      tag_452\n      jump\t// in\n    tag_621:\n        /* \"#utility.yul\":10542:10608   */\n      tag_451\n      jump\t// in\n    tag_620:\n        /* \"#utility.yul\":10533:10608   */\n      swap1\n      pop\n        /* \"#utility.yul\":10631:10637   */\n      dup3\n        /* \"#utility.yul\":10624:10629   */\n      dup2\n        /* \"#utility.yul\":10617:10638   */\n      mstore\n        /* \"#utility.yul\":10669:10673   */\n      0x20\n        /* \"#utility.yul\":10662:10667   */\n      dup2\n        /* \"#utility.yul\":10658:10674   */\n      add\n        /* \"#utility.yul\":10707:10710   */\n      dup5\n        /* \"#utility.yul\":10698:10704   */\n      dup5\n        /* \"#utility.yul\":10693:10696   */\n      dup5\n        /* \"#utility.yul\":10689:10705   */\n      add\n        /* \"#utility.yul\":10686:10711   */\n      gt\n        /* \"#utility.yul\":10683:10795   */\n      iszero\n      tag_622\n      jumpi\n        /* \"#utility.yul\":10714:10793   */\n      tag_623\n      tag_449\n      jump\t// in\n    tag_623:\n        /* \"#utility.yul\":10683:10795   */\n    tag_622:\n        /* \"#utility.yul\":10804:10845   */\n      tag_624\n        /* \"#utility.yul\":10838:10844   */\n      dup5\n        /* \"#utility.yul\":10833:10836   */\n      dup3\n        /* \"#utility.yul\":10828:10831   */\n      dup6\n        /* \"#utility.yul\":10804:10845   */\n      tag_453\n      jump\t// in\n    tag_624:\n        /* \"#utility.yul\":10523:10851   */\n      pop\n        /* \"#utility.yul\":10439:10851   */\n      swap4\n      swap3\n      pop\n      pop\n      pop\n      jump\t// out\n        /* \"#utility.yul\":10871:11211   */\n    tag_455:\n        /* \"#utility.yul\":10927:10932   */\n      0x00\n        /* \"#utility.yul\":10976:10979   */\n      dup3\n        /* \"#utility.yul\":10969:10973   */\n      0x1f\n        /* \"#utility.yul\":10961:10967   */\n      dup4\n        /* \"#utility.yul\":10957:10974   */\n      add\n        /* \"#utility.yul\":10953:10980   */\n      slt\n        /* \"#utility.yul\":10943:11065   */\n      tag_626\n      jumpi\n        /* \"#utility.yul\":10984:11063   */\n      tag_627\n      tag_448\n      jump\t// in\n    tag_627:\n        /* \"#utility.yul\":10943:11065   */\n    tag_626:\n        /* \"#utility.yul\":11101:11107   */\n      dup2\n        /* \"#utility.yul\":11088:11108   */\n      calldataload\n        /* \"#utility.yul\":11126:11205   */\n      tag_628\n        /* \"#utility.yul\":11201:11204   */\n      dup5\n        /* \"#utility.yul\":11193:11199   */\n      dup3\n        /* \"#utility.yul\":11186:11190   */\n      0x20\n        /* \"#utility.yul\":11178:11184   */\n      dup7\n        /* \"#utility.yul\":11174:11191   */\n      add\n        /* \"#utility.yul\":11126:11205   */\n      tag_454\n      jump\t// in\n    tag_628:\n        /* \"#utility.yul\":11117:11205   */\n      swap2\n      pop\n        /* \"#utility.yul\":10933:11211   */\n      pop\n        /* \"#utility.yul\":10871:11211   */\n      swap3\n      swap2\n      pop\n      pop\n      jump\t// out\n        /* \"#utility.yul\":11217:11871   */\n    tag_92:\n        /* \"#utility.yul\":11295:11301   */\n      0x00\n        /* \"#utility.yul\":11303:11309   */\n      dup1\n        /* \"#utility.yul\":11352:11354   */\n      0x40\n        /* \"#utility.yul\":11340:11349   */\n      dup4\n        /* \"#utility.yul\":11331:11338   */\n      dup6\n        /* \"#utility.yul\":11327:11350   */\n      sub\n        /* \"#utility.yul\":11323:11355   */\n      slt\n        /* \"#utility.yul\":11320:11439   */\n      iszero\n      tag_630\n      jumpi\n        /* \"#utility.yul\":11358:11437   */\n      tag_631\n      tag_416\n      jump\t// in\n    tag_631:\n        /* \"#utility.yul\":11320:11439   */\n    tag_630:\n        /* \"#utility.yul\":11478:11479   */\n      0x00\n        /* \"#utility.yul\":11503:11556   */\n      tag_632\n        /* \"#utility.yul\":11548:11555   */\n      dup6\n        /* \"#utility.yul\":11539:11545   */\n      dup3\n        /* \"#utility.yul\":11528:11537   */\n      dup7\n        /* \"#utility.yul\":11524:11546   */\n      add\n        /* \"#utility.yul\":11503:11556   */\n      tag_421\n      jump\t// in\n    tag_632:\n        /* \"#utility.yul\":11493:11556   */\n      swap3\n      pop\n        /* \"#utility.yul\":11449:11566   */\n      pop\n        /* \"#utility.yul\":11633:11635   */\n      0x20\n        /* \"#utility.yul\":11622:11631   */\n      dup4\n        /* \"#utility.yul\":11618:11636   */\n      add\n        /* \"#utility.yul\":11605:11637   */\n      calldataload\n        /* \"#utility.yul\":11664:11682   */\n      0xffffffffffffffff\n        /* \"#utility.yul\":11656:11662   */\n      dup2\n        /* \"#utility.yul\":11653:11683   */\n      gt\n        /* \"#utility.yul\":11650:11767   */\n      iszero\n      tag_633\n      jumpi\n        /* \"#utility.yul\":11686:11765   */\n      tag_634\n      tag_417\n      jump\t// in\n    tag_634:\n        /* \"#utility.yul\":11650:11767   */\n    tag_633:\n        /* \"#utility.yul\":11791:11854   */\n      tag_635\n        /* \"#utility.yul\":11846:11853   */\n      dup6\n        /* \"#utility.yul\":11837:11843   */\n      dup3\n        /* \"#utility.yul\":11826:11835   */\n      dup7\n        /* \"#utility.yul\":11822:11844   */\n      add\n        /* \"#utility.yul\":11791:11854   */\n      tag_455\n      jump\t// in\n    tag_635:\n        /* \"#utility.yul\":11781:11854   */\n      swap2\n      pop\n        /* \"#utility.yul\":11576:11864   */\n      pop\n        /* \"#utility.yul\":11217:11871   */\n      swap3\n      pop\n      swap3\n      swap1\n      pop\n      jump\t// out\n        /* \"#utility.yul\":11877:11997   */\n    tag_456:\n        /* \"#utility.yul\":11971:11972   */\n      0x04\n        /* \"#utility.yul\":11964:11969   */\n      dup2\n        /* \"#utility.yul\":11961:11973   */\n      lt\n        /* \"#utility.yul\":11951:11991   */\n      tag_637\n      jumpi\n        /* \"#utility.yul\":11987:11988   */\n      0x00\n        /* \"#utility.yul\":11984:11985   */\n      dup1\n        /* \"#utility.yul\":11977:11989   */\n      revert\n        /* \"#utility.yul\":11951:11991   */\n    tag_637:\n        /* \"#utility.yul\":11877:11997   */\n      pop\n      jump\t// out\n        /* \"#utility.yul\":12003:12184   */\n    tag_457:\n        /* \"#utility.yul\":12070:12075   */\n      0x00\n        /* \"#utility.yul\":12108:12114   */\n      dup2\n        /* \"#utility.yul\":12095:12115   */\n      calldataload\n        /* \"#utility.yul\":12086:12115   */\n      swap1\n      pop\n        /* \"#utility.yul\":12124:12178   */\n      tag_639\n        /* \"#utility.yul\":12172:12177   */\n      dup2\n        /* \"#utility.yul\":12124:12178   */\n      tag_456\n      jump\t// in\n    tag_639:\n        /* \"#utility.yul\":12003:12184   */\n      swap3\n      swap2\n      pop\n      pop\n      jump\t// out\n        /* \"#utility.yul\":12190:12706   */\n    tag_97:\n        /* \"#utility.yul\":12279:12285   */\n      0x00\n        /* \"#utility.yul\":12287:12293   */\n      dup1\n        /* \"#utility.yul\":12336:12338   */\n      0x40\n        /* \"#utility.yul\":12324:12333   */\n      dup4\n        /* \"#utility.yul\":12315:12322   */\n      dup6\n        /* \"#utility.yul\":12311:12334   */\n      sub\n        /* \"#utility.yul\":12307:12339   */\n      slt\n        /* \"#utility.yul\":12304:12423   */\n      iszero\n      tag_641\n      jumpi\n        /* \"#utility.yul\":12342:12421   */\n      tag_642\n      tag_416\n      jump\t// in\n    tag_642:\n        /* \"#utility.yul\":12304:12423   */\n    tag_641:\n        /* \"#utility.yul\":12462:12463   */\n      0x00\n        /* \"#utility.yul\":12487:12540   */\n      tag_643\n        /* \"#utility.yul\":12532:12539   */\n      dup6\n        /* \"#utility.yul\":12523:12529   */\n      dup3\n        /* \"#utility.yul\":12512:12521   */\n      dup7\n        /* \"#utility.yul\":12508:12530   */\n      add\n        /* \"#utility.yul\":12487:12540   */\n      tag_432\n      jump\t// in\n    tag_643:\n        /* \"#utility.yul\":12477:12540   */\n      swap3\n      pop\n        /* \"#utility.yul\":12433:12550   */\n      pop\n        /* \"#utility.yul\":12589:12591   */\n      0x20\n        /* \"#utility.yul\":12615:12689   */\n      tag_644\n        /* \"#utility.yul\":12681:12688   */\n      dup6\n        /* \"#utility.yul\":12672:12678   */\n      dup3\n        /* \"#utility.yul\":12661:12670   */\n      dup7\n        /* \"#utility.yul\":12657:12679   */\n      add\n        /* \"#utility.yul\":12615:12689   */\n      tag_457\n      jump\t// in\n    tag_644:\n        /* \"#utility.yul\":12605:12689   */\n      swap2\n      pop\n        /* \"#utility.yul\":12560:12699   */\n      pop\n        /* \"#utility.yul\":12190:12706   */\n      swap3\n      pop\n      swap3\n      swap1\n      pop\n      jump\t// out\n        /* \"#utility.yul\":12712:13186   */\n    tag_106:\n        /* \"#utility.yul\":12780:12786   */\n      0x00\n        /* \"#utility.yul\":12788:12794   */\n      dup1\n        /* \"#utility.yul\":12837:12839   */\n      0x40\n        /* \"#utility.yul\":12825:12834   */\n      dup4\n        /* \"#utility.yul\":12816:12823   */\n      dup6\n        /* \"#utility.yul\":12812:12835   */\n      sub\n        /* \"#utility.yul\":12808:12840   */\n      slt\n        /* \"#utility.yul\":12805:12924   */\n      iszero\n      tag_646\n      jumpi\n        /* \"#utility.yul\":12843:12922   */\n      tag_647\n      tag_416\n      jump\t// in\n    tag_647:\n        /* \"#utility.yul\":12805:12924   */\n    tag_646:\n        /* \"#utility.yul\":12963:12964   */\n      0x00\n        /* \"#utility.yul\":12988:13041   */\n      tag_648\n        /* \"#utility.yul\":13033:13040   */\n      dup6\n        /* \"#utility.yul\":13024:13030   */\n      dup3\n        /* \"#utility.yul\":13013:13022   */\n      dup7\n        /* \"#utility.yul\":13009:13031   */\n      add\n        /* \"#utility.yul\":12988:13041   */\n      tag_421\n      jump\t// in\n    tag_648:\n        /* \"#utility.yul\":12978:13041   */\n      swap3\n      pop\n        /* \"#utility.yul\":12934:13051   */\n      pop\n        /* \"#utility.yul\":13090:13092   */\n      0x20\n        /* \"#utility.yul\":13116:13169   */\n      tag_649\n        /* \"#utility.yul\":13161:13168   */\n      dup6\n        /* \"#utility.yul\":13152:13158   */\n      dup3\n        /* \"#utility.yul\":13141:13150   */\n      dup7\n        /* \"#utility.yul\":13137:13159   */\n      add\n        /* \"#utility.yul\":13116:13169   */\n      tag_432\n      jump\t// in\n    tag_649:\n        /* \"#utility.yul\":13106:13169   */\n      swap2\n      pop\n        /* \"#utility.yul\":13061:13179   */\n      pop\n        /* \"#utility.yul\":12712:13186   */\n      swap3\n      pop\n      swap3\n      swap1\n      pop\n      jump\t// out\n        /* \"#utility.yul\":13192:13846   */\n    tag_112:\n        /* \"#utility.yul\":13270:13276   */\n      0x00\n        /* \"#utility.yul\":13278:13284   */\n      dup1\n        /* \"#utility.yul\":13327:13329   */\n      0x40\n        /* \"#utility.yul\":13315:13324   */\n      dup4\n        /* \"#utility.yul\":13306:13313   */\n      dup6\n        /* \"#utility.yul\":13302:13325   */\n      sub\n        /* \"#utility.yul\":13298:13330   */\n      slt\n        /* \"#utility.yul\":13295:13414   */\n      iszero\n      tag_651\n      jumpi\n        /* \"#utility.yul\":13333:13412   */\n      tag_652\n      tag_416\n      jump\t// in\n    tag_652:\n        /* \"#utility.yul\":13295:13414   */\n    tag_651:\n        /* \"#utility.yul\":13453:13454   */\n      0x00\n        /* \"#utility.yul\":13478:13531   */\n      tag_653\n        /* \"#utility.yul\":13523:13530   */\n      dup6\n        /* \"#utility.yul\":13514:13520   */\n      dup3\n        /* \"#utility.yul\":13503:13512   */\n      dup7\n        /* \"#utility.yul\":13499:13521   */\n      add\n        /* \"#utility.yul\":13478:13531   */\n      tag_432\n      jump\t// in\n    tag_653:\n        /* \"#utility.yul\":13468:13531   */\n      swap3\n      pop\n        /* \"#utility.yul\":13424:13541   */\n      pop\n        /* \"#utility.yul\":13608:13610   */\n      0x20\n        /* \"#utility.yul\":13597:13606   */\n      dup4\n        /* \"#utility.yul\":13593:13611   */\n      add\n        /* \"#utility.yul\":13580:13612   */\n      calldataload\n        /* \"#utility.yul\":13639:13657   */\n      0xffffffffffffffff\n        /* \"#utility.yul\":13631:13637   */\n      dup2\n        /* \"#utility.yul\":13628:13658   */\n      gt\n        /* \"#utility.yul\":13625:13742   */\n      iszero\n      tag_654\n      jumpi\n        /* \"#utility.yul\":13661:13740   */\n      tag_655\n      tag_417\n      jump\t// in\n    tag_655:\n        /* \"#utility.yul\":13625:13742   */\n    tag_654:\n        /* \"#utility.yul\":13766:13829   */\n      tag_656\n        /* \"#utility.yul\":13821:13828   */\n      dup6\n        /* \"#utility.yul\":13812:13818   */\n      dup3\n        /* \"#utility.yul\":13801:13810   */\n      dup7\n        /* \"#utility.yul\":13797:13819   */\n      add\n        /* \"#utility.yul\":13766:13829   */\n      tag_455\n      jump\t// in\n    tag_656:\n        /* \"#utility.yul\":13756:13829   */\n      swap2\n      pop\n        /* \"#utility.yul\":13551:13839   */\n      pop\n        /* \"#utility.yul\":13192:13846   */\n      swap3\n      pop\n      swap3\n      swap1\n      pop\n      jump\t// out\n        /* \"#utility.yul\":13852:14977   */\n    tag_118:\n        /* \"#utility.yul\":13958:13964   */\n      0x00\n        /* \"#utility.yul\":13966:13972   */\n      dup1\n        /* \"#utility.yul\":13974:13980   */\n      0x00\n        /* \"#utility.yul\":13982:13988   */\n      dup1\n        /* \"#utility.yul\":14031:14034   */\n      0x80\n        /* \"#utility.yul\":14019:14028   */\n      dup6\n        /* \"#utility.yul\":14010:14017   */\n      dup8\n        /* \"#utility.yul\":14006:14029   */\n      sub\n        /* \"#utility.yul\":14002:14035   */\n      slt\n        /* \"#utility.yul\":13999:14119   */\n      iszero\n      tag_658\n      jumpi\n        /* \"#utility.yul\":14038:14117   */\n      tag_659\n      tag_416\n      jump\t// in\n    tag_659:\n        /* \"#utility.yul\":13999:14119   */\n    tag_658:\n        /* \"#utility.yul\":14158:14159   */\n      0x00\n        /* \"#utility.yul\":14183:14236   */\n      tag_660\n        /* \"#utility.yul\":14228:14235   */\n      dup8\n        /* \"#utility.yul\":14219:14225   */\n      dup3\n        /* \"#utility.yul\":14208:14217   */\n      dup9\n        /* \"#utility.yul\":14204:14226   */\n      add\n        /* \"#utility.yul\":14183:14236   */\n      tag_421\n      jump\t// in\n    tag_660:\n        /* \"#utility.yul\":14173:14236   */\n      swap5\n      pop\n        /* \"#utility.yul\":14129:14246   */\n      pop\n        /* \"#utility.yul\":14285:14287   */\n      0x20\n        /* \"#utility.yul\":14311:14364   */\n      tag_661\n        /* \"#utility.yul\":14356:14363   */\n      dup8\n        /* \"#utility.yul\":14347:14353   */\n      dup3\n        /* \"#utility.yul\":14336:14345   */\n      dup9\n        /* \"#utility.yul\":14332:14354   */\n      add\n        /* \"#utility.yul\":14311:14364   */\n      tag_432\n      jump\t// in\n    tag_661:\n        /* \"#utility.yul\":14301:14364   */\n      swap4\n      pop\n        /* \"#utility.yul\":14256:14374   */\n      pop\n        /* \"#utility.yul\":14441:14443   */\n      0x40\n        /* \"#utility.yul\":14430:14439   */\n      dup6\n        /* \"#utility.yul\":14426:14444   */\n      add\n        /* \"#utility.yul\":14413:14445   */\n      calldataload\n        /* \"#utility.yul\":14472:14490   */\n      0xffffffffffffffff\n        /* \"#utility.yul\":14464:14470   */\n      dup2\n        /* \"#utility.yul\":14461:14491   */\n      gt\n        /* \"#utility.yul\":14458:14575   */\n      iszero\n      tag_662\n      jumpi\n        /* \"#utility.yul\":14494:14573   */\n      tag_663\n      tag_417\n      jump\t// in\n    tag_663:\n        /* \"#utility.yul\":14458:14575   */\n    tag_662:\n        /* \"#utility.yul\":14599:14662   */\n      tag_664\n        /* \"#utility.yul\":14654:14661   */\n      dup8\n        /* \"#utility.yul\":14645:14651   */\n      dup3\n        /* \"#utility.yul\":14634:14643   */\n      dup9\n        /* \"#utility.yul\":14630:14652   */\n      add\n        /* \"#utility.yul\":14599:14662   */\n      tag_455\n      jump\t// in\n    tag_664:\n        /* \"#utility.yul\":14589:14662   */\n      swap3\n      pop\n        /* \"#utility.yul\":14384:14672   */\n      pop\n        /* \"#utility.yul\":14739:14741   */\n      0x60\n        /* \"#utility.yul\":14728:14737   */\n      dup6\n        /* \"#utility.yul\":14724:14742   */\n      add\n        /* \"#utility.yul\":14711:14743   */\n      calldataload\n        /* \"#utility.yul\":14770:14788   */\n      0xffffffffffffffff\n        /* \"#utility.yul\":14762:14768   */\n      dup2\n        /* \"#utility.yul\":14759:14789   */\n      gt\n        /* \"#utility.yul\":14756:14873   */\n      iszero\n      tag_665\n      jumpi\n        /* \"#utility.yul\":14792:14871   */\n      tag_666\n      tag_417\n      jump\t// in\n    tag_666:\n        /* \"#utility.yul\":14756:14873   */\n    tag_665:\n        /* \"#utility.yul\":14897:14960   */\n      tag_667\n        /* \"#utility.yul\":14952:14959   */\n      dup8\n        /* \"#utility.yul\":14943:14949   */\n      dup3\n        /* \"#utility.yul\":14932:14941   */\n      dup9\n        /* \"#utility.yul\":14928:14950   */\n      add\n        /* \"#utility.yul\":14897:14960   */\n      tag_455\n      jump\t// in\n    tag_667:\n        /* \"#utility.yul\":14887:14960   */\n      swap2\n      pop\n        /* \"#utility.yul\":14682:14970   */\n      pop\n        /* \"#utility.yul\":13852:14977   */\n      swap3\n      swap6\n      swap2\n      swap5\n      pop\n      swap3\n      pop\n      jump\t// out\n        /* \"#utility.yul\":14983:15097   */\n    tag_458:\n        /* \"#utility.yul\":15050:15056   */\n      0x00\n        /* \"#utility.yul\":15084:15089   */\n      dup2\n        /* \"#utility.yul\":15078:15090   */\n      mload\n        /* \"#utility.yul\":15068:15090   */\n      swap1\n      pop\n        /* \"#utility.yul\":14983:15097   */\n      swap2\n      swap1\n      pop\n      jump\t// out\n        /* \"#utility.yul\":15103:15287   */\n    tag_459:\n        /* \"#utility.yul\":15202:15213   */\n      0x00\n        /* \"#utility.yul\":15236:15242   */\n      dup3\n        /* \"#utility.yul\":15231:15234   */\n      dup3\n        /* \"#utility.yul\":15224:15243   */\n      mstore\n        /* \"#utility.yul\":15276:15280   */\n      0x20\n        /* \"#utility.yul\":15271:15274   */\n      dup3\n        /* \"#utility.yul\":15267:15281   */\n      add\n        /* \"#utility.yul\":15252:15281   */\n      swap1\n      pop\n        /* \"#utility.yul\":15103:15287   */\n      swap3\n      swap2\n      pop\n      pop\n      jump\t// out\n        /* \"#utility.yul\":15293:15425   */\n    tag_460:\n        /* \"#utility.yul\":15360:15364   */\n      0x00\n        /* \"#utility.yul\":15383:15386   */\n      dup2\n        /* \"#utility.yul\":15375:15386   */\n      swap1\n      pop\n        /* \"#utility.yul\":15413:15417   */\n      0x20\n        /* \"#utility.yul\":15408:15411   */\n      dup3\n        /* \"#utility.yul\":15404:15418   */\n      add\n        /* \"#utility.yul\":15396:15418   */\n      swap1\n      pop\n        /* \"#utility.yul\":15293:15425   */\n      swap2\n      swap1\n      pop\n      jump\t// out\n        /* \"#utility.yul\":15431:15539   */\n    tag_461:\n        /* \"#utility.yul\":15508:15532   */\n      tag_672\n        /* \"#utility.yul\":15526:15531   */\n      dup2\n        /* \"#utility.yul\":15508:15532   */\n      tag_429\n      jump\t// in\n    tag_672:\n        /* \"#utility.yul\":15503:15506   */\n      dup3\n        /* \"#utility.yul\":15496:15533   */\n      mstore\n        /* \"#utility.yul\":15431:15539   */\n      pop\n      pop\n      jump\t// out\n        /* \"#utility.yul\":15545:15724   */\n    tag_462:\n        /* \"#utility.yul\":15614:15624   */\n      0x00\n        /* \"#utility.yul\":15635:15681   */\n      tag_674\n        /* \"#utility.yul\":15677:15680   */\n      dup4\n        /* \"#utility.yul\":15669:15675   */\n      dup4\n        /* \"#utility.yul\":15635:15681   */\n      tag_461\n      jump\t// in\n    tag_674:\n        /* \"#utility.yul\":15713:15717   */\n      0x20\n        /* \"#utility.yul\":15708:15711   */\n      dup4\n        /* \"#utility.yul\":15704:15718   */\n      add\n        /* \"#utility.yul\":15690:15718   */\n      swap1\n      pop\n        /* \"#utility.yul\":15545:15724   */\n      swap3\n      swap2\n      pop\n      pop\n      jump\t// out\n        /* \"#utility.yul\":15730:15843   */\n    tag_463:\n        /* \"#utility.yul\":15800:15804   */\n      0x00\n        /* \"#utility.yul\":15832:15836   */\n      0x20\n        /* \"#utility.yul\":15827:15830   */\n      dup3\n        /* \"#utility.yul\":15823:15837   */\n      add\n        /* \"#utility.yul\":15815:15837   */\n      swap1\n      pop\n        /* \"#utility.yul\":15730:15843   */\n      swap2\n      swap1\n      pop\n      jump\t// out\n        /* \"#utility.yul\":15879:16611   */\n    tag_464:\n        /* \"#utility.yul\":15998:16001   */\n      0x00\n        /* \"#utility.yul\":16027:16081   */\n      tag_677\n        /* \"#utility.yul\":16075:16080   */\n      dup3\n        /* \"#utility.yul\":16027:16081   */\n      tag_458\n      jump\t// in\n    tag_677:\n        /* \"#utility.yul\":16097:16183   */\n      tag_678\n        /* \"#utility.yul\":16176:16182   */\n      dup2\n        /* \"#utility.yul\":16171:16174   */\n      dup6\n        /* \"#utility.yul\":16097:16183   */\n      tag_459\n      jump\t// in\n    tag_678:\n        /* \"#utility.yul\":16090:16183   */\n      swap4\n      pop\n        /* \"#utility.yul\":16207:16263   */\n      tag_679\n        /* \"#utility.yul\":16257:16262   */\n      dup4\n        /* \"#utility.yul\":16207:16263   */\n      tag_460\n      jump\t// in\n    tag_679:\n        /* \"#utility.yul\":16286:16293   */\n      dup1\n        /* \"#utility.yul\":16317:16318   */\n      0x00\n        /* \"#utility.yul\":16302:16586   */\n    tag_680:\n        /* \"#utility.yul\":16327:16333   */\n      dup4\n        /* \"#utility.yul\":16324:16325   */\n      dup2\n        /* \"#utility.yul\":16321:16334   */\n      lt\n        /* \"#utility.yul\":16302:16586   */\n      iszero\n      tag_682\n      jumpi\n        /* \"#utility.yul\":16403:16409   */\n      dup2\n        /* \"#utility.yul\":16397:16410   */\n      mload\n        /* \"#utility.yul\":16430:16493   */\n      tag_683\n        /* \"#utility.yul\":16489:16492   */\n      dup9\n        /* \"#utility.yul\":16474:16487   */\n      dup3\n        /* \"#utility.yul\":16430:16493   */\n      tag_462\n      jump\t// in\n    tag_683:\n        /* \"#utility.yul\":16423:16493   */\n      swap8\n      pop\n        /* \"#utility.yul\":16516:16576   */\n      tag_684\n        /* \"#utility.yul\":16569:16575   */\n      dup4\n        /* \"#utility.yul\":16516:16576   */\n      tag_463\n      jump\t// in\n    tag_684:\n        /* \"#utility.yul\":16506:16576   */\n      swap3\n      pop\n        /* \"#utility.yul\":16362:16586   */\n      pop\n        /* \"#utility.yul\":16349:16350   */\n      0x01\n        /* \"#utility.yul\":16346:16347   */\n      dup2\n        /* \"#utility.yul\":16342:16351   */\n      add\n        /* \"#utility.yul\":16337:16351   */\n      swap1\n      pop\n        /* \"#utility.yul\":16302:16586   */\n      jump(tag_680)\n    tag_682:\n        /* \"#utility.yul\":16306:16320   */\n      pop\n        /* \"#utility.yul\":16602:16605   */\n      dup6\n        /* \"#utility.yul\":16595:16605   */\n      swap4\n      pop\n        /* \"#utility.yul\":16003:16611   */\n      pop\n      pop\n      pop\n        /* \"#utility.yul\":15879:16611   */\n      swap3\n      swap2\n      pop\n      pop\n      jump\t// out\n        /* \"#utility.yul\":16617:16990   */\n    tag_126:\n        /* \"#utility.yul\":16760:16764   */\n      0x00\n        /* \"#utility.yul\":16798:16800   */\n      0x20\n        /* \"#utility.yul\":16787:16796   */\n      dup3\n        /* \"#utility.yul\":16783:16801   */\n      add\n        /* \"#utility.yul\":16775:16801   */\n      swap1\n      pop\n        /* \"#utility.yul\":16847:16856   */\n      dup2\n        /* \"#utility.yul\":16841:16845   */\n      dup2\n        /* \"#utility.yul\":16837:16857   */\n      sub\n        /* \"#utility.yul\":16833:16834   */\n      0x00\n        /* \"#utility.yul\":16822:16831   */\n      dup4\n        /* \"#utility.yul\":16818:16835   */\n      add\n        /* \"#utility.yul\":16811:16858   */\n      mstore\n        /* \"#utility.yul\":16875:16983   */\n      tag_686\n        /* \"#utility.yul\":16978:16982   */\n      dup2\n        /* \"#utility.yul\":16969:16975   */\n      dup5\n        /* \"#utility.yul\":16875:16983   */\n      tag_464\n      jump\t// in\n    tag_686:\n        /* \"#utility.yul\":16867:16983   */\n      swap1\n      pop\n        /* \"#utility.yul\":16617:16990   */\n      swap3\n      swap2\n      pop\n      pop\n      jump\t// out\n        /* \"#utility.yul\":16996:17161   */\n    tag_465:\n        /* \"#utility.yul\":17136:17153   */\n      0x504b49206e6f7420656e61626c65640000000000000000000000000000000000\n        /* \"#utility.yul\":17132:17133   */\n      0x00\n        /* \"#utility.yul\":17124:17130   */\n      dup3\n        /* \"#utility.yul\":17120:17134   */\n      add\n        /* \"#utility.yul\":17113:17154   */\n      mstore\n        /* \"#utility.yul\":16996:17161   */\n      pop\n      jump\t// out\n        /* \"#utility.yul\":17167:17533   */\n    tag_466:\n        /* \"#utility.yul\":17309:17312   */\n      0x00\n        /* \"#utility.yul\":17330:17397   */\n      tag_689\n        /* \"#utility.yul\":17394:17396   */\n      0x0f\n        /* \"#utility.yul\":17389:17392   */\n      dup4\n        /* \"#utility.yul\":17330:17397   */\n      tag_435\n      jump\t// in\n    tag_689:\n        /* \"#utility.yul\":17323:17397   */\n      swap2\n      pop\n        /* \"#utility.yul\":17406:17499   */\n      tag_690\n        /* \"#utility.yul\":17495:17498   */\n      dup3\n        /* \"#utility.yul\":17406:17499   */\n      tag_465\n      jump\t// in\n    tag_690:\n        /* \"#utility.yul\":17524:17526   */\n      0x20\n        /* \"#utility.yul\":17519:17522   */\n      dup3\n        /* \"#utility.yul\":17515:17527   */\n      add\n        /* \"#utility.yul\":17508:17527   */\n      swap1\n      pop\n        /* \"#utility.yul\":17167:17533   */\n      swap2\n      swap1\n      pop\n      jump\t// out\n        /* \"#utility.yul\":17539:17958   */\n    tag_141:\n        /* \"#utility.yul\":17705:17709   */\n      0x00\n        /* \"#utility.yul\":17743:17745   */\n      0x20\n        /* \"#utility.yul\":17732:17741   */\n      dup3\n        /* \"#utility.yul\":17728:17746   */\n      add\n        /* \"#utility.yul\":17720:17746   */\n      swap1\n      pop\n        /* \"#utility.yul\":17792:17801   */\n      dup2\n        /* \"#utility.yul\":17786:17790   */\n      dup2\n        /* \"#utility.yul\":17782:17802   */\n      sub\n        /* \"#utility.yul\":17778:17779   */\n      0x00\n        /* \"#utility.yul\":17767:17776   */\n      dup4\n        /* \"#utility.yul\":17763:17780   */\n      add\n        /* \"#utility.yul\":17756:17803   */\n      mstore\n        /* \"#utility.yul\":17820:17951   */\n      tag_692\n        /* \"#utility.yul\":17946:17950   */\n      dup2\n        /* \"#utility.yul\":17820:17951   */\n      tag_466\n      jump\t// in\n    tag_692:\n        /* \"#utility.yul\":17812:17951   */\n      swap1\n      pop\n        /* \"#utility.yul\":17539:17958   */\n      swap2\n      swap1\n      pop\n      jump\t// out\n        /* \"#utility.yul\":17964:18271   */\n    tag_467:\n        /* \"#utility.yul\":18025:18029   */\n      0x00\n        /* \"#utility.yul\":18115:18133   */\n      0xffffffffffffffff\n        /* \"#utility.yul\":18107:18113   */\n      dup3\n        /* \"#utility.yul\":18104:18134   */\n      gt\n        /* \"#utility.yul\":18101:18157   */\n      iszero\n      tag_694\n      jumpi\n        /* \"#utility.yul\":18137:18155   */\n      tag_695\n      tag_384\n      jump\t// in\n    tag_695:\n        /* \"#utility.yul\":18101:18157   */\n    tag_694:\n        /* \"#utility.yul\":18175:18204   */\n      tag_696\n        /* \"#utility.yul\":18197:18203   */\n      dup3\n        /* \"#utility.yul\":18175:18204   */\n      tag_425\n      jump\t// in\n    tag_696:\n        /* \"#utility.yul\":18167:18204   */\n      swap1\n      pop\n        /* \"#utility.yul\":18259:18263   */\n      0x20\n        /* \"#utility.yul\":18253:18257   */\n      dup2\n        /* \"#utility.yul\":18249:18264   */\n      add\n        /* \"#utility.yul\":18241:18264   */\n      swap1\n      pop\n        /* \"#utility.yul\":17964:18271   */\n      swap2\n      swap1\n      pop\n      jump\t// out\n        /* \"#utility.yul\":18277:18696   */\n    tag_468:\n        /* \"#utility.yul\":18365:18370   */\n      0x00\n        /* \"#utility.yul\":18390:18455   */\n      tag_698\n        /* \"#utility.yul\":18406:18454   */\n      tag_699\n        /* \"#utility.yul\":18447:18453   */\n      dup5\n        /* \"#utility.yul\":18406:18454   */\n      tag_467\n      jump\t// in\n    tag_699:\n        /* \"#utility.yul\":18390:18455   */\n      tag_451\n      jump\t// in\n    tag_698:\n        /* \"#utility.yul\":18381:18455   */\n      swap1\n      pop\n        /* \"#utility.yul\":18478:18484   */\n      dup3\n        /* \"#utility.yul\":18471:18476   */\n      dup2\n        /* \"#utility.yul\":18464:18485   */\n      mstore\n        /* \"#utility.yul\":18516:18520   */\n      0x20\n        /* \"#utility.yul\":18509:18514   */\n      dup2\n        /* \"#utility.yul\":18505:18521   */\n      add\n        /* \"#utility.yul\":18554:18557   */\n      dup5\n        /* \"#utility.yul\":18545:18551   */\n      dup5\n        /* \"#utility.yul\":18540:18543   */\n      dup5\n        /* \"#utility.yul\":18536:18552   */\n      add\n        /* \"#utility.yul\":18533:18558   */\n      gt\n        /* \"#utility.yul\":18530:18642   */\n      iszero\n      tag_700\n      jumpi\n        /* \"#utility.yul\":18561:18640   */\n      tag_701\n      tag_449\n      jump\t// in\n    tag_701:\n        /* \"#utility.yul\":18530:18642   */\n    tag_700:\n        /* \"#utility.yul\":18651:18690   */\n      tag_702\n        /* \"#utility.yul\":18683:18689   */\n      dup5\n        /* \"#utility.yul\":18678:18681   */\n      dup3\n        /* \"#utility.yul\":18673:18676   */\n      dup6\n        /* \"#utility.yul\":18651:18690   */\n      tag_424\n      jump\t// in\n    tag_702:\n        /* \"#utility.yul\":18371:18696   */\n      pop\n        /* \"#utility.yul\":18277:18696   */\n      swap4\n      swap3\n      pop\n      pop\n      pop\n      jump\t// out\n        /* \"#utility.yul\":18715:19068   */\n    tag_469:\n        /* \"#utility.yul\":18781:18786   */\n      0x00\n        /* \"#utility.yul\":18830:18833   */\n      dup3\n        /* \"#utility.yul\":18823:18827   */\n      0x1f\n        /* \"#utility.yul\":18815:18821   */\n      dup4\n        /* \"#utility.yul\":18811:18828   */\n      add\n        /* \"#utility.yul\":18807:18834   */\n      slt\n        /* \"#utility.yul\":18797:18919   */\n      tag_704\n      jumpi\n        /* \"#utility.yul\":18838:18917   */\n      tag_705\n      tag_448\n      jump\t// in\n    tag_705:\n        /* \"#utility.yul\":18797:18919   */\n    tag_704:\n        /* \"#utility.yul\":18948:18954   */\n      dup2\n        /* \"#utility.yul\":18942:18955   */\n      mload\n        /* \"#utility.yul\":18973:19062   */\n      tag_706\n        /* \"#utility.yul\":19058:19061   */\n      dup5\n        /* \"#utility.yul\":19050:19056   */\n      dup3\n        /* \"#utility.yul\":19043:19047   */\n      0x20\n        /* \"#utility.yul\":19035:19041   */\n      dup7\n        /* \"#utility.yul\":19031:19048   */\n      add\n        /* \"#utility.yul\":18973:19062   */\n      tag_468\n      jump\t// in\n    tag_706:\n        /* \"#utility.yul\":18964:19062   */\n      swap2\n      pop\n        /* \"#utility.yul\":18787:19068   */\n      pop\n        /* \"#utility.yul\":18715:19068   */\n      swap3\n      swap2\n      pop\n      pop\n      jump\t// out\n        /* \"#utility.yul\":19074:19596   */\n    tag_146:\n        /* \"#utility.yul\":19153:19159   */\n      0x00\n        /* \"#utility.yul\":19202:19204   */\n      0x20\n        /* \"#utility.yul\":19190:19199   */\n      dup3\n        /* \"#utility.yul\":19181:19188   */\n      dup5\n        /* \"#utility.yul\":19177:19200   */\n      sub\n        /* \"#utility.yul\":19173:19205   */\n      slt\n        /* \"#utility.yul\":19170:19289   */\n      iszero\n      tag_708\n      jumpi\n        /* \"#utility.yul\":19208:19287   */\n      tag_709\n      tag_416\n      jump\t// in\n    tag_709:\n        /* \"#utility.yul\":19170:19289   */\n    tag_708:\n        /* \"#utility.yul\":19349:19350   */\n      0x00\n        /* \"#utility.yul\":19338:19347   */\n      dup3\n        /* \"#utility.yul\":19334:19351   */\n      add\n        /* \"#utility.yul\":19328:19352   */\n      mload\n        /* \"#utility.yul\":19379:19397   */\n      0xffffffffffffffff\n        /* \"#utility.yul\":19371:19377   */\n      dup2\n        /* \"#utility.yul\":19368:19398   */\n      gt\n        /* \"#utility.yul\":19365:19482   */\n      iszero\n      tag_710\n      jumpi\n        /* \"#utility.yul\":19401:19480   */\n      tag_711\n      tag_417\n      jump\t// in\n    tag_711:\n        /* \"#utility.yul\":19365:19482   */\n    tag_710:\n        /* \"#utility.yul\":19506:19579   */\n      tag_712\n        /* \"#utility.yul\":19571:19578   */\n      dup5\n        /* \"#utility.yul\":19562:19568   */\n      dup3\n        /* \"#utility.yul\":19551:19560   */\n      dup6\n        /* \"#utility.yul\":19547:19569   */\n      add\n        /* \"#utility.yul\":19506:19579   */\n      tag_469\n      jump\t// in\n    tag_712:\n        /* \"#utility.yul\":19496:19579   */\n      swap2\n      pop\n        /* \"#utility.yul\":19299:19589   */\n      pop\n        /* \"#utility.yul\":19074:19596   */\n      swap3\n      swap2\n      pop\n      pop\n      jump\t// out\n        /* \"#utility.yul\":19602:19822   */\n    tag_470:\n        /* \"#utility.yul\":19742:19776   */\n      0x4f6e6c79206f776e65722063616e2063616c6c20746869732066756e6374696f\n        /* \"#utility.yul\":19738:19739   */\n      0x00\n        /* \"#utility.yul\":19730:19736   */\n      dup3\n        /* \"#utility.yul\":19726:19740   */\n      add\n        /* \"#utility.yul\":19719:19777   */\n      mstore\n        /* \"#utility.yul\":19811:19814   */\n      0x6e00000000000000000000000000000000000000000000000000000000000000\n        /* \"#utility.yul\":19806:19808   */\n      0x20\n        /* \"#utility.yul\":19798:19804   */\n      dup3\n        /* \"#utility.yul\":19794:19809   */\n      add\n        /* \"#utility.yul\":19787:19815   */\n      mstore\n        /* \"#utility.yul\":19602:19822   */\n      pop\n      jump\t// out\n        /* \"#utility.yul\":19828:20194   */\n    tag_471:\n        /* \"#utility.yul\":19970:19973   */\n      0x00\n        /* \"#utility.yul\":19991:20058   */\n      tag_715\n        /* \"#utility.yul\":20055:20057   */\n      0x21\n        /* \"#utility.yul\":20050:20053   */\n      dup4\n        /* \"#utility.yul\":19991:20058   */\n      tag_435\n      jump\t// in\n    tag_715:\n        /* \"#utility.yul\":19984:20058   */\n      swap2\n      pop\n        /* \"#utility.yul\":20067:20160   */\n      tag_716\n        /* \"#utility.yul\":20156:20159   */\n      dup3\n        /* \"#utility.yul\":20067:20160   */\n      tag_470\n      jump\t// in\n    tag_716:\n        /* \"#utility.yul\":20185:20187   */\n      0x40\n        /* \"#utility.yul\":20180:20183   */\n      dup3\n        /* \"#utility.yul\":20176:20188   */\n      add\n        /* \"#utility.yul\":20169:20188   */\n      swap1\n      pop\n        /* \"#utility.yul\":19828:20194   */\n      swap2\n      swap1\n      pop\n      jump\t// out\n        /* \"#utility.yul\":20200:20619   */\n    tag_150:\n        /* \"#utility.yul\":20366:20370   */\n      0x00\n        /* \"#utility.yul\":20404:20406   */\n      0x20\n        /* \"#utility.yul\":20393:20402   */\n      dup3\n        /* \"#utility.yul\":20389:20407   */\n      add\n        /* \"#utility.yul\":20381:20407   */\n      swap1\n      pop\n        /* \"#utility.yul\":20453:20462   */\n      dup2\n        /* \"#utility.yul\":20447:20451   */\n      dup2\n        /* \"#utility.yul\":20443:20463   */\n      sub\n        /* \"#utility.yul\":20439:20440   */\n      0x00\n        /* \"#utility.yul\":20428:20437   */\n      dup4\n        /* \"#utility.yul\":20424:20441   */\n      add\n        /* \"#utility.yul\":20417:20464   */\n      mstore\n        /* \"#utility.yul\":20481:20612   */\n      tag_718\n        /* \"#utility.yul\":20607:20611   */\n      dup2\n        /* \"#utility.yul\":20481:20612   */\n      tag_471\n      jump\t// in\n    tag_718:\n        /* \"#utility.yul\":20473:20612   */\n      swap1\n      pop\n        /* \"#utility.yul\":20200:20619   */\n      swap2\n      swap1\n      pop\n      jump\t// out\n        /* \"#utility.yul\":20625:20794   */\n    tag_472:\n        /* \"#utility.yul\":20765:20786   */\n      0x496e76616c696420504b49206164647265737300000000000000000000000000\n        /* \"#utility.yul\":20761:20762   */\n      0x00\n        /* \"#utility.yul\":20753:20759   */\n      dup3\n        /* \"#utility.yul\":20749:20763   */\n      add\n        /* \"#utility.yul\":20742:20787   */\n      mstore\n        /* \"#utility.yul\":20625:20794   */\n      pop\n      jump\t// out\n        /* \"#utility.yul\":20800:21166   */\n    tag_473:\n        /* \"#utility.yul\":20942:20945   */\n      0x00\n        /* \"#utility.yul\":20963:21030   */\n      tag_721\n        /* \"#utility.yul\":21027:21029   */\n      0x13\n        /* \"#utility.yul\":21022:21025   */\n      dup4\n        /* \"#utility.yul\":20963:21030   */\n      tag_435\n      jump\t// in\n    tag_721:\n        /* \"#utility.yul\":20956:21030   */\n      swap2\n      pop\n        /* \"#utility.yul\":21039:21132   */\n      tag_722\n        /* \"#utility.yul\":21128:21131   */\n      dup3\n        /* \"#utility.yul\":21039:21132   */\n      tag_472\n      jump\t// in\n    tag_722:\n        /* \"#utility.yul\":21157:21159   */\n      0x20\n        /* \"#utility.yul\":21152:21155   */\n      dup3\n        /* \"#utility.yul\":21148:21160   */\n      add\n        /* \"#utility.yul\":21141:21160   */\n      swap1\n      pop\n        /* \"#utility.yul\":20800:21166   */\n      swap2\n      swap1\n      pop\n      jump\t// out\n        /* \"#utility.yul\":21172:21591   */\n    tag_154:\n        /* \"#utility.yul\":21338:21342   */\n      0x00\n        /* \"#utility.yul\":21376:21378   */\n      0x20\n        /* \"#utility.yul\":21365:21374   */\n      dup3\n        /* \"#utility.yul\":21361:21379   */\n      add\n        /* \"#utility.yul\":21353:21379   */\n      swap1\n      pop\n        /* \"#utility.yul\":21425:21434   */\n      dup2\n        /* \"#utility.yul\":21419:21423   */\n      dup2\n        /* \"#utility.yul\":21415:21435   */\n      sub\n        /* \"#utility.yul\":21411:21412   */\n      0x00\n        /* \"#utility.yul\":21400:21409   */\n      dup4\n        /* \"#utility.yul\":21396:21413   */\n      add\n        /* \"#utility.yul\":21389:21436   */\n      mstore\n        /* \"#utility.yul\":21453:21584   */\n      tag_724\n        /* \"#utility.yul\":21579:21583   */\n      dup2\n        /* \"#utility.yul\":21453:21584   */\n      tag_473\n      jump\t// in\n    tag_724:\n        /* \"#utility.yul\":21445:21584   */\n      swap1\n      pop\n        /* \"#utility.yul\":21172:21591   */\n      swap2\n      swap1\n      pop\n      jump\t// out\n        /* \"#utility.yul\":21597:21769   */\n    tag_474:\n        /* \"#utility.yul\":21737:21761   */\n      0x496e76616c6964207472616e73616374696f6e20494400000000000000000000\n        /* \"#utility.yul\":21733:21734   */\n      0x00\n        /* \"#utility.yul\":21725:21731   */\n      dup3\n        /* \"#utility.yul\":21721:21735   */\n      add\n        /* \"#utility.yul\":21714:21762   */\n      mstore\n        /* \"#utility.yul\":21597:21769   */\n      pop\n      jump\t// out\n        /* \"#utility.yul\":21775:22141   */\n    tag_475:\n        /* \"#utility.yul\":21917:21920   */\n      0x00\n        /* \"#utility.yul\":21938:22005   */\n      tag_727\n        /* \"#utility.yul\":22002:22004   */\n      0x16\n        /* \"#utility.yul\":21997:22000   */\n      dup4\n        /* \"#utility.yul\":21938:22005   */\n      tag_435\n      jump\t// in\n    tag_727:\n        /* \"#utility.yul\":21931:22005   */\n      swap2\n      pop\n        /* \"#utility.yul\":22014:22107   */\n      tag_728\n        /* \"#utility.yul\":22103:22106   */\n      dup3\n        /* \"#utility.yul\":22014:22107   */\n      tag_474\n      jump\t// in\n    tag_728:\n        /* \"#utility.yul\":22132:22134   */\n      0x20\n        /* \"#utility.yul\":22127:22130   */\n      dup3\n        /* \"#utility.yul\":22123:22135   */\n      add\n        /* \"#utility.yul\":22116:22135   */\n      swap1\n      pop\n        /* \"#utility.yul\":21775:22141   */\n      swap2\n      swap1\n      pop\n      jump\t// out\n        /* \"#utility.yul\":22147:22566   */\n    tag_160:\n        /* \"#utility.yul\":22313:22317   */\n      0x00\n        /* \"#utility.yul\":22351:22353   */\n      0x20\n        /* \"#utility.yul\":22340:22349   */\n      dup3\n        /* \"#utility.yul\":22336:22354   */\n      add\n        /* \"#utility.yul\":22328:22354   */\n      swap1\n      pop\n        /* \"#utility.yul\":22400:22409   */\n      dup2\n        /* \"#utility.yul\":22394:22398   */\n      dup2\n        /* \"#utility.yul\":22390:22410   */\n      sub\n        /* \"#utility.yul\":22386:22387   */\n      0x00\n        /* \"#utility.yul\":22375:22384   */\n      dup4\n        /* \"#utility.yul\":22371:22388   */\n      add\n        /* \"#utility.yul\":22364:22411   */\n      mstore\n        /* \"#utility.yul\":22428:22559   */\n      tag_730\n        /* \"#utility.yul\":22554:22558   */\n      dup2\n        /* \"#utility.yul\":22428:22559   */\n      tag_475\n      jump\t// in\n    tag_730:\n        /* \"#utility.yul\":22420:22559   */\n      swap1\n      pop\n        /* \"#utility.yul\":22147:22566   */\n      swap2\n      swap1\n      pop\n      jump\t// out\n        /* \"#utility.yul\":22572:22752   */\n    tag_163:\n        /* \"#utility.yul\":22620:22697   */\n      0x4e487b7100000000000000000000000000000000000000000000000000000000\n        /* \"#utility.yul\":22617:22618   */\n      0x00\n        /* \"#utility.yul\":22610:22698   */\n      mstore\n        /* \"#utility.yul\":22717:22721   */\n      0x32\n        /* \"#utility.yul\":22714:22715   */\n      0x04\n        /* \"#utility.yul\":22707:22722   */\n      mstore\n        /* \"#utility.yul\":22741:22745   */\n      0x24\n        /* \"#utility.yul\":22738:22739   */\n      0x00\n        /* \"#utility.yul\":22731:22746   */\n      revert\n        /* \"#utility.yul\":22758:22938   */\n    tag_476:\n        /* \"#utility.yul\":22806:22883   */\n      0x4e487b7100000000000000000000000000000000000000000000000000000000\n        /* \"#utility.yul\":22803:22804   */\n      0x00\n        /* \"#utility.yul\":22796:22884   */\n      mstore\n        /* \"#utility.yul\":22903:22907   */\n      0x22\n        /* \"#utility.yul\":22900:22901   */\n      0x04\n        /* \"#utility.yul\":22893:22908   */\n      mstore\n        /* \"#utility.yul\":22927:22931   */\n      0x24\n        /* \"#utility.yul\":22924:22925   */\n      0x00\n        /* \"#utility.yul\":22917:22932   */\n      revert\n        /* \"#utility.yul\":22944:23264   */\n    tag_166:\n        /* \"#utility.yul\":22988:22994   */\n      0x00\n        /* \"#utility.yul\":23025:23026   */\n      0x02\n        /* \"#utility.yul\":23019:23023   */\n      dup3\n        /* \"#utility.yul\":23015:23027   */\n      div\n        /* \"#utility.yul\":23005:23027   */\n      swap1\n      pop\n        /* \"#utility.yul\":23072:23073   */\n      0x01\n        /* \"#utility.yul\":23066:23070   */\n      dup3\n        /* \"#utility.yul\":23062:23074   */\n      and\n        /* \"#utility.yul\":23093:23111   */\n      dup1\n        /* \"#utility.yul\":23083:23164   */\n      tag_734\n      jumpi\n        /* \"#utility.yul\":23149:23153   */\n      0x7f\n        /* \"#utility.yul\":23141:23147   */\n      dup3\n        /* \"#utility.yul\":23137:23154   */\n      and\n        /* \"#utility.yul\":23127:23154   */\n      swap2\n      pop\n        /* \"#utility.yul\":23083:23164   */\n    tag_734:\n        /* \"#utility.yul\":23211:23213   */\n      0x20\n        /* \"#utility.yul\":23203:23209   */\n      dup3\n        /* \"#utility.yul\":23200:23214   */\n      lt\n        /* \"#utility.yul\":23180:23198   */\n      dup2\n        /* \"#utility.yul\":23177:23215   */\n      eq\n        /* \"#utility.yul\":23174:23258   */\n      iszero\n      tag_735\n      jumpi\n        /* \"#utility.yul\":23230:23248   */\n      tag_736\n      tag_476\n      jump\t// in\n    tag_736:\n        /* \"#utility.yul\":23174:23258   */\n    tag_735:\n        /* \"#utility.yul\":22995:23264   */\n      pop\n        /* \"#utility.yul\":22944:23264   */\n      swap2\n      swap1\n      pop\n      jump\t// out\n        /* \"#utility.yul\":23270:23434   */\n    tag_477:\n        /* \"#utility.yul\":23410:23426   */\n      0x4e6f7420617574686f72697a6564000000000000000000000000000000000000\n        /* \"#utility.yul\":23406:23407   */\n      0x00\n        /* \"#utility.yul\":23398:23404   */\n      dup3\n        /* \"#utility.yul\":23394:23408   */\n      add\n        /* \"#utility.yul\":23387:23427   */\n      mstore\n        /* \"#utility.yul\":23270:23434   */\n      pop\n      jump\t// out\n        /* \"#utility.yul\":23440:23806   */\n    tag_478:\n        /* \"#utility.yul\":23582:23585   */\n      0x00\n        /* \"#utility.yul\":23603:23670   */\n      tag_739\n        /* \"#utility.yul\":23667:23669   */\n      0x0e\n        /* \"#utility.yul\":23662:23665   */\n      dup4\n        /* \"#utility.yul\":23603:23670   */\n      tag_435\n      jump\t// in\n    tag_739:\n        /* \"#utility.yul\":23596:23670   */\n      swap2\n      pop\n        /* \"#utility.yul\":23679:23772   */\n      tag_740\n        /* \"#utility.yul\":23768:23771   */\n      dup3\n        /* \"#utility.yul\":23679:23772   */\n      tag_477\n      jump\t// in\n    tag_740:\n        /* \"#utility.yul\":23797:23799   */\n      0x20\n        /* \"#utility.yul\":23792:23795   */\n      dup3\n        /* \"#utility.yul\":23788:23800   */\n      add\n        /* \"#utility.yul\":23781:23800   */\n      swap1\n      pop\n        /* \"#utility.yul\":23440:23806   */\n      swap2\n      swap1\n      pop\n      jump\t// out\n        /* \"#utility.yul\":23812:24231   */\n    tag_216:\n        /* \"#utility.yul\":23978:23982   */\n      0x00\n        /* \"#utility.yul\":24016:24018   */\n      0x20\n        /* \"#utility.yul\":24005:24014   */\n      dup3\n        /* \"#utility.yul\":24001:24019   */\n      add\n        /* \"#utility.yul\":23993:24019   */\n      swap1\n      pop\n        /* \"#utility.yul\":24065:24074   */\n      dup2\n        /* \"#utility.yul\":24059:24063   */\n      dup2\n        /* \"#utility.yul\":24055:24075   */\n      sub\n        /* \"#utility.yul\":24051:24052   */\n      0x00\n        /* \"#utility.yul\":24040:24049   */\n      dup4\n        /* \"#utility.yul\":24036:24053   */\n      add\n        /* \"#utility.yul\":24029:24076   */\n      mstore\n        /* \"#utility.yul\":24093:24224   */\n      tag_742\n        /* \"#utility.yul\":24219:24223   */\n      dup2\n        /* \"#utility.yul\":24093:24224   */\n      tag_478\n      jump\t// in\n    tag_742:\n        /* \"#utility.yul\":24085:24224   */\n      swap1\n      pop\n        /* \"#utility.yul\":23812:24231   */\n      swap2\n      swap1\n      pop\n      jump\t// out\n        /* \"#utility.yul\":24237:24407   */\n    tag_479:\n        /* \"#utility.yul\":24377:24399   */\n      0x496e76616c696420757365722061646472657373000000000000000000000000\n        /* \"#utility.yul\":24373:24374   */\n      0x00\n        /* \"#utility.yul\":24365:24371   */\n      dup3\n        /* \"#utility.yul\":24361:24375   */\n      add\n        /* \"#utility.yul\":24354:24400   */\n      mstore\n        /* \"#utility.yul\":24237:24407   */\n      pop\n      jump\t// out\n        /* \"#utility.yul\":24413:24779   */\n    tag_480:\n        /* \"#utility.yul\":24555:24558   */\n      0x00\n        /* \"#utility.yul\":24576:24643   */\n      tag_745\n        /* \"#utility.yul\":24640:24642   */\n      0x14\n        /* \"#utility.yul\":24635:24638   */\n      dup4\n        /* \"#utility.yul\":24576:24643   */\n      tag_435\n      jump\t// in\n    tag_745:\n        /* \"#utility.yul\":24569:24643   */\n      swap2\n      pop\n        /* \"#utility.yul\":24652:24745   */\n      tag_746\n        /* \"#utility.yul\":24741:24744   */\n      dup3\n        /* \"#utility.yul\":24652:24745   */\n      tag_479\n      jump\t// in\n    tag_746:\n        /* \"#utility.yul\":24770:24772   */\n      0x20\n        /* \"#utility.yul\":24765:24768   */\n      dup3\n        /* \"#utility.yul\":24761:24773   */\n      add\n        /* \"#utility.yul\":24754:24773   */\n      swap1\n      pop\n        /* \"#utility.yul\":24413:24779   */\n      swap2\n      swap1\n      pop\n      jump\t// out\n        /* \"#utility.yul\":24785:25204   */\n    tag_220:\n        /* \"#utility.yul\":24951:24955   */\n      0x00\n        /* \"#utility.yul\":24989:24991   */\n      0x20\n        /* \"#utility.yul\":24978:24987   */\n      dup3\n        /* \"#utility.yul\":24974:24992   */\n      add\n        /* \"#utility.yul\":24966:24992   */\n      swap1\n      pop\n        /* \"#utility.yul\":25038:25047   */\n      dup2\n        /* \"#utility.yul\":25032:25036   */\n      dup2\n        /* \"#utility.yul\":25028:25048   */\n      sub\n        /* \"#utility.yul\":25024:25025   */\n      0x00\n        /* \"#utility.yul\":25013:25022   */\n      dup4\n        /* \"#utility.yul\":25009:25026   */\n      add\n        /* \"#utility.yul\":25002:25049   */\n      mstore\n        /* \"#utility.yul\":25066:25197   */\n      tag_748\n        /* \"#utility.yul\":25192:25196   */\n      dup2\n        /* \"#utility.yul\":25066:25197   */\n      tag_480\n      jump\t// in\n    tag_748:\n        /* \"#utility.yul\":25058:25197   */\n      swap1\n      pop\n        /* \"#utility.yul\":24785:25204   */\n      swap2\n      swap1\n      pop\n      jump\t// out\n        /* \"#utility.yul\":25210:25389   */\n    tag_481:\n        /* \"#utility.yul\":25350:25381   */\n      0x416d6f756e74206d7573742062652067726561746572207468616e2030000000\n        /* \"#utility.yul\":25346:25347   */\n      0x00\n        /* \"#utility.yul\":25338:25344   */\n      dup3\n        /* \"#utility.yul\":25334:25348   */\n      add\n        /* \"#utility.yul\":25327:25382   */\n      mstore\n        /* \"#utility.yul\":25210:25389   */\n      pop\n      jump\t// out\n        /* \"#utility.yul\":25395:25761   */\n    tag_482:\n        /* \"#utility.yul\":25537:25540   */\n      0x00\n        /* \"#utility.yul\":25558:25625   */\n      tag_751\n        /* \"#utility.yul\":25622:25624   */\n      0x1d\n        /* \"#utility.yul\":25617:25620   */\n      dup4\n        /* \"#utility.yul\":25558:25625   */\n      tag_435\n      jump\t// in\n    tag_751:\n        /* \"#utility.yul\":25551:25625   */\n      swap2\n      pop\n        /* \"#utility.yul\":25634:25727   */\n      tag_752\n        /* \"#utility.yul\":25723:25726   */\n      dup3\n        /* \"#utility.yul\":25634:25727   */\n      tag_481\n      jump\t// in\n    tag_752:\n        /* \"#utility.yul\":25752:25754   */\n      0x20\n        /* \"#utility.yul\":25747:25750   */\n      dup3\n        /* \"#utility.yul\":25743:25755   */\n      add\n        /* \"#utility.yul\":25736:25755   */\n      swap1\n      pop\n        /* \"#utility.yul\":25395:25761   */\n      swap2\n      swap1\n      pop\n      jump\t// out\n        /* \"#utility.yul\":25767:26186   */\n    tag_223:\n        /* \"#utility.yul\":25933:25937   */\n      0x00\n        /* \"#utility.yul\":25971:25973   */\n      0x20\n        /* \"#utility.yul\":25960:25969   */\n      dup3\n        /* \"#utility.yul\":25956:25974   */\n      add\n        /* \"#utility.yul\":25948:25974   */\n      swap1\n      pop\n        /* \"#utility.yul\":26020:26029   */\n      dup2\n        /* \"#utility.yul\":26014:26018   */\n      dup2\n        /* \"#utility.yul\":26010:26030   */\n      sub\n        /* \"#utility.yul\":26006:26007   */\n      0x00\n        /* \"#utility.yul\":25995:26004   */\n      dup4\n        /* \"#utility.yul\":25991:26008   */\n      add\n        /* \"#utility.yul\":25984:26031   */\n      mstore\n        /* \"#utility.yul\":26048:26179   */\n      tag_754\n        /* \"#utility.yul\":26174:26178   */\n      dup2\n        /* \"#utility.yul\":26048:26179   */\n      tag_482\n      jump\t// in\n    tag_754:\n        /* \"#utility.yul\":26040:26179   */\n      swap1\n      pop\n        /* \"#utility.yul\":25767:26186   */\n      swap2\n      swap1\n      pop\n      jump\t// out\n        /* \"#utility.yul\":26192:26372   */\n    tag_483:\n        /* \"#utility.yul\":26240:26317   */\n      0x4e487b7100000000000000000000000000000000000000000000000000000000\n        /* \"#utility.yul\":26237:26238   */\n      0x00\n        /* \"#utility.yul\":26230:26318   */\n      mstore\n        /* \"#utility.yul\":26337:26341   */\n      0x11\n        /* \"#utility.yul\":26334:26335   */\n      0x04\n        /* \"#utility.yul\":26327:26342   */\n      mstore\n        /* \"#utility.yul\":26361:26365   */\n      0x24\n        /* \"#utility.yul\":26358:26359   */\n      0x00\n        /* \"#utility.yul\":26351:26366   */\n      revert\n        /* \"#utility.yul\":26378:26683   */\n    tag_225:\n        /* \"#utility.yul\":26418:26421   */\n      0x00\n        /* \"#utility.yul\":26437:26457   */\n      tag_757\n        /* \"#utility.yul\":26455:26456   */\n      dup3\n        /* \"#utility.yul\":26437:26457   */\n      tag_429\n      jump\t// in\n    tag_757:\n        /* \"#utility.yul\":26432:26457   */\n      swap2\n      pop\n        /* \"#utility.yul\":26471:26491   */\n      tag_758\n        /* \"#utility.yul\":26489:26490   */\n      dup4\n        /* \"#utility.yul\":26471:26491   */\n      tag_429\n      jump\t// in\n    tag_758:\n        /* \"#utility.yul\":26466:26491   */\n      swap3\n      pop\n        /* \"#utility.yul\":26625:26626   */\n      dup3\n        /* \"#utility.yul\":26557:26623   */\n      0xffffffffffffffffffffffffffffffffffffffffffffffffffffffffffffffff\n        /* \"#utility.yul\":26553:26627   */\n      sub\n        /* \"#utility.yul\":26550:26551   */\n      dup3\n        /* \"#utility.yul\":26547:26628   */\n      gt\n        /* \"#utility.yul\":26544:26651   */\n      iszero\n      tag_759\n      jumpi\n        /* \"#utility.yul\":26631:26649   */\n      tag_760\n      tag_483\n      jump\t// in\n    tag_760:\n        /* \"#utility.yul\":26544:26651   */\n    tag_759:\n        /* \"#utility.yul\":26675:26676   */\n      dup3\n        /* \"#utility.yul\":26672:26673   */\n      dup3\n        /* \"#utility.yul\":26668:26677   */\n      add\n        /* \"#utility.yul\":26661:26677   */\n      swap1\n      pop\n        /* \"#utility.yul\":26378:26683   */\n      swap3\n      swap2\n      pop\n      pop\n      jump\t// out\n        /* \"#utility.yul\":26689:27112   */\n    tag_229:\n        /* \"#utility.yul\":26830:26834   */\n      0x00\n        /* \"#utility.yul\":26868:26870   */\n      0x40\n        /* \"#utility.yul\":26857:26866   */\n      dup3\n        /* \"#utility.yul\":26853:26871   */\n      add\n        /* \"#utility.yul\":26845:26871   */\n      swap1\n      pop\n        /* \"#utility.yul\":26881:26952   */\n      tag_762\n        /* \"#utility.yul\":26949:26950   */\n      0x00\n        /* \"#utility.yul\":26938:26947   */\n      dup4\n        /* \"#utility.yul\":26934:26951   */\n      add\n        /* \"#utility.yul\":26925:26931   */\n      dup6\n        /* \"#utility.yul\":26881:26952   */\n      tag_430\n      jump\t// in\n    tag_762:\n        /* \"#utility.yul\":26999:27008   */\n      dup2\n        /* \"#utility.yul\":26993:26997   */\n      dup2\n        /* \"#utility.yul\":26989:27009   */\n      sub\n        /* \"#utility.yul\":26984:26986   */\n      0x20\n        /* \"#utility.yul\":26973:26982   */\n      dup4\n        /* \"#utility.yul\":26969:26987   */\n      add\n        /* \"#utility.yul\":26962:27010   */\n      mstore\n        /* \"#utility.yul\":27027:27105   */\n      tag_763\n        /* \"#utility.yul\":27100:27104   */\n      dup2\n        /* \"#utility.yul\":27091:27097   */\n      dup5\n        /* \"#utility.yul\":27027:27105   */\n      tag_436\n      jump\t// in\n    tag_763:\n        /* \"#utility.yul\":27019:27105   */\n      swap1\n      pop\n        /* \"#utility.yul\":26689:27112   */\n      swap4\n      swap3\n      pop\n      pop\n      pop\n      jump\t// out\n        /* \"#utility.yul\":27118:27378   */\n    tag_245:\n        /* \"#utility.yul\":27230:27234   */\n      0x00\n        /* \"#utility.yul\":27268:27270   */\n      0x20\n        /* \"#utility.yul\":27257:27266   */\n      dup3\n        /* \"#utility.yul\":27253:27271   */\n      add\n        /* \"#utility.yul\":27245:27271   */\n      swap1\n      pop\n        /* \"#utility.yul\":27281:27371   */\n      tag_765\n        /* \"#utility.yul\":27368:27369   */\n      0x00\n        /* \"#utility.yul\":27357:27366   */\n      dup4\n        /* \"#utility.yul\":27353:27370   */\n      add\n        /* \"#utility.yul\":27344:27350   */\n      dup5\n        /* \"#utility.yul\":27281:27371   */\n      tag_440\n      jump\t// in\n    tag_765:\n        /* \"#utility.yul\":27118:27378   */\n      swap3\n      swap2\n      pop\n      pop\n      jump\t// out\n        /* \"#utility.yul\":27384:27521   */\n    tag_484:\n        /* \"#utility.yul\":27438:27443   */\n      0x00\n        /* \"#utility.yul\":27469:27475   */\n      dup2\n        /* \"#utility.yul\":27463:27476   */\n      mload\n        /* \"#utility.yul\":27454:27476   */\n      swap1\n      pop\n        /* \"#utility.yul\":27485:27515   */\n      tag_767\n        /* \"#utility.yul\":27509:27514   */\n      dup2\n        /* \"#utility.yul\":27485:27515   */\n      tag_441\n      jump\t// in\n    tag_767:\n        /* \"#utility.yul\":27384:27521   */\n      swap3\n      swap2\n      pop\n      pop\n      jump\t// out\n        /* \"#utility.yul\":27527:27872   */\n    tag_258:\n        /* \"#utility.yul\":27594:27600   */\n      0x00\n        /* \"#utility.yul\":27643:27645   */\n      0x20\n        /* \"#utility.yul\":27631:27640   */\n      dup3\n        /* \"#utility.yul\":27622:27629   */\n      dup5\n        /* \"#utility.yul\":27618:27641   */\n      sub\n        /* \"#utility.yul\":27614:27646   */\n      slt\n        /* \"#utility.yul\":27611:27730   */\n      iszero\n      tag_769\n      jumpi\n        /* \"#utility.yul\":27649:27728   */\n      tag_770\n      tag_416\n      jump\t// in\n    tag_770:\n        /* \"#utility.yul\":27611:27730   */\n    tag_769:\n        /* \"#utility.yul\":27769:27770   */\n      0x00\n        /* \"#utility.yul\":27794:27855   */\n      tag_771\n        /* \"#utility.yul\":27847:27854   */\n      dup5\n        /* \"#utility.yul\":27838:27844   */\n      dup3\n        /* \"#utility.yul\":27827:27836   */\n      dup6\n        /* \"#utility.yul\":27823:27845   */\n      add\n        /* \"#utility.yul\":27794:27855   */\n      tag_484\n      jump\t// in\n    tag_771:\n        /* \"#utility.yul\":27784:27855   */\n      swap2\n      pop\n        /* \"#utility.yul\":27740:27865   */\n      pop\n        /* \"#utility.yul\":27527:27872   */\n      swap3\n      swap2\n      pop\n      pop\n      jump\t// out\n        /* \"#utility.yul\":27878:28210   */\n    tag_261:\n        /* \"#utility.yul\":27999:28003   */\n      0x00\n        /* \"#utility.yul\":28037:28039   */\n      0x40\n        /* \"#utility.yul\":28026:28035   */\n      dup3\n        /* \"#utility.yul\":28022:28040   */\n      add\n        /* \"#utility.yul\":28014:28040   */\n      swap1\n      pop\n        /* \"#utility.yul\":28050:28121   */\n      tag_773\n        /* \"#utility.yul\":28118:28119   */\n      0x00\n        /* \"#utility.yul\":28107:28116   */\n      dup4\n        /* \"#utility.yul\":28103:28120   */\n      add\n        /* \"#utility.yul\":28094:28100   */\n      dup6\n        /* \"#utility.yul\":28050:28121   */\n      tag_433\n      jump\t// in\n    tag_773:\n        /* \"#utility.yul\":28131:28203   */\n      tag_774\n        /* \"#utility.yul\":28199:28201   */\n      0x20\n        /* \"#utility.yul\":28188:28197   */\n      dup4\n        /* \"#utility.yul\":28184:28202   */\n      add\n        /* \"#utility.yul\":28175:28181   */\n      dup5\n        /* \"#utility.yul\":28131:28203   */\n      tag_430\n      jump\t// in\n    tag_774:\n        /* \"#utility.yul\":27878:28210   */\n      swap4\n      swap3\n      pop\n      pop\n      pop\n      jump\t// out\n        /* \"#utility.yul\":28216:28386   */\n    tag_485:\n        /* \"#utility.yul\":28356:28378   */\n      0x496e73756666696369656e742062616c616e6365000000000000000000000000\n        /* \"#utility.yul\":28352:28353   */\n      0x00\n        /* \"#utility.yul\":28344:28350   */\n      dup3\n        /* \"#utility.yul\":28340:28354   */\n      add\n        /* \"#utility.yul\":28333:28379   */\n      mstore\n        /* \"#utility.yul\":28216:28386   */\n      pop\n      jump\t// out\n        /* \"#utility.yul\":28392:28758   */\n    tag_486:\n        /* \"#utility.yul\":28534:28537   */\n      0x00\n        /* \"#utility.yul\":28555:28622   */\n      tag_777\n        /* \"#utility.yul\":28619:28621   */\n      0x14\n        /* \"#utility.yul\":28614:28617   */\n      dup4\n        /* \"#utility.yul\":28555:28622   */\n      tag_435\n      jump\t// in\n    tag_777:\n        /* \"#utility.yul\":28548:28622   */\n      swap2\n      pop\n        /* \"#utility.yul\":28631:28724   */\n      tag_778\n        /* \"#utility.yul\":28720:28723   */\n      dup3\n        /* \"#utility.yul\":28631:28724   */\n      tag_485\n      jump\t// in\n    tag_778:\n        /* \"#utility.yul\":28749:28751   */\n      0x20\n        /* \"#utility.yul\":28744:28747   */\n      dup3\n        /* \"#utility.yul\":28740:28752   */\n      add\n        /* \"#utility.yul\":28733:28752   */\n      swap1\n      pop\n        /* \"#utility.yul\":28392:28758   */\n      swap2\n      swap1\n      pop\n      jump\t// out\n        /* \"#utility.yul\":28764:29183   */\n    tag_270:\n        /* \"#utility.yul\":28930:28934   */\n      0x00\n        /* \"#utility.yul\":28968:28970   */\n      0x20\n        /* \"#utility.yul\":28957:28966   */\n      dup3\n        /* \"#utility.yul\":28953:28971   */\n      add\n        /* \"#utility.yul\":28945:28971   */\n      swap1\n      pop\n        /* \"#utility.yul\":29017:29026   */\n      dup2\n        /* \"#utility.yul\":29011:29015   */\n      dup2\n        /* \"#utility.yul\":29007:29027   */\n      sub\n        /* \"#utility.yul\":29003:29004   */\n      0x00\n        /* \"#utility.yul\":28992:29001   */\n      dup4\n        /* \"#utility.yul\":28988:29005   */\n      add\n        /* \"#utility.yul\":28981:29028   */\n      mstore\n        /* \"#utility.yul\":29045:29176   */\n      tag_780\n        /* \"#utility.yul\":29171:29175   */\n      dup2\n        /* \"#utility.yul\":29045:29176   */\n      tag_486\n      jump\t// in\n    tag_780:\n        /* \"#utility.yul\":29037:29176   */\n      swap1\n      pop\n        /* \"#utility.yul\":28764:29183   */\n      swap2\n      swap1\n      pop\n      jump\t// out\n        /* \"#utility.yul\":29189:29352   */\n    tag_487:\n        /* \"#utility.yul\":29329:29344   */\n      0x4b5943206e6f742076616c696400000000000000000000000000000000000000\n        /* \"#utility.yul\":29325:29326   */\n      0x00\n        /* \"#utility.yul\":29317:29323   */\n      dup3\n        /* \"#utility.yul\":29313:29327   */\n      add\n        /* \"#utility.yul\":29306:29345   */\n      mstore\n        /* \"#utility.yul\":29189:29352   */\n      pop\n      jump\t// out\n        /* \"#utility.yul\":29358:29724   */\n    tag_488:\n        /* \"#utility.yul\":29500:29503   */\n      0x00\n        /* \"#utility.yul\":29521:29588   */\n      tag_783\n        /* \"#utility.yul\":29585:29587   */\n      0x0d\n        /* \"#utility.yul\":29580:29583   */\n      dup4\n        /* \"#utility.yul\":29521:29588   */\n      tag_435\n      jump\t// in\n    tag_783:\n        /* \"#utility.yul\":29514:29588   */\n      swap2\n      pop\n        /* \"#utility.yul\":29597:29690   */\n      tag_784\n        /* \"#utility.yul\":29686:29689   */\n      dup3\n        /* \"#utility.yul\":29597:29690   */\n      tag_487\n      jump\t// in\n    tag_784:\n        /* \"#utility.yul\":29715:29717   */\n      0x20\n        /* \"#utility.yul\":29710:29713   */\n      dup3\n        /* \"#utility.yul\":29706:29718   */\n      add\n        /* \"#utility.yul\":29699:29718   */\n      swap1\n      pop\n        /* \"#utility.yul\":29358:29724   */\n      swap2\n      swap1\n      pop\n      jump\t// out\n        /* \"#utility.yul\":29730:30149   */\n    tag_279:\n        /* \"#utility.yul\":29896:29900   */\n      0x00\n        /* \"#utility.yul\":29934:29936   */\n      0x20\n        /* \"#utility.yul\":29923:29932   */\n      dup3\n        /* \"#utility.yul\":29919:29937   */\n      add\n        /* \"#utility.yul\":29911:29937   */\n      swap1\n      pop\n        /* \"#utility.yul\":29983:29992   */\n      dup2\n        /* \"#utility.yul\":29977:29981   */\n      dup2\n        /* \"#utility.yul\":29973:29993   */\n      sub\n        /* \"#utility.yul\":29969:29970   */\n      0x00\n        /* \"#utility.yul\":29958:29967   */\n      dup4\n        /* \"#utility.yul\":29954:29971   */\n      add\n        /* \"#utility.yul\":29947:29994   */\n      mstore\n        /* \"#utility.yul\":30011:30142   */\n      tag_786\n        /* \"#utility.yul\":30137:30141   */\n      dup2\n        /* \"#utility.yul\":30011:30142   */\n      tag_488\n      jump\t// in\n    tag_786:\n        /* \"#utility.yul\":30003:30142   */\n      swap1\n      pop\n        /* \"#utility.yul\":29730:30149   */\n      swap2\n      swap1\n      pop\n      jump\t// out\n        /* \"#utility.yul\":30155:30388   */\n    tag_281:\n        /* \"#utility.yul\":30194:30197   */\n      0x00\n        /* \"#utility.yul\":30217:30241   */\n      tag_788\n        /* \"#utility.yul\":30235:30240   */\n      dup3\n        /* \"#utility.yul\":30217:30241   */\n      tag_429\n      jump\t// in\n    tag_788:\n        /* \"#utility.yul\":30208:30241   */\n      swap2\n      pop\n        /* \"#utility.yul\":30263:30329   */\n      0xffffffffffffffffffffffffffffffffffffffffffffffffffffffffffffffff\n        /* \"#utility.yul\":30256:30261   */\n      dup3\n        /* \"#utility.yul\":30253:30330   */\n      eq\n        /* \"#utility.yul\":30250:30353   */\n      iszero\n      tag_789\n      jumpi\n        /* \"#utility.yul\":30333:30351   */\n      tag_790\n      tag_483\n      jump\t// in\n    tag_790:\n        /* \"#utility.yul\":30250:30353   */\n    tag_789:\n        /* \"#utility.yul\":30380:30381   */\n      0x01\n        /* \"#utility.yul\":30373:30378   */\n      dup3\n        /* \"#utility.yul\":30369:30382   */\n      add\n        /* \"#utility.yul\":30362:30382   */\n      swap1\n      pop\n        /* \"#utility.yul\":30155:30388   */\n      swap2\n      swap1\n      pop\n      jump\t// out\n        /* \"#utility.yul\":30394:30585   */\n    tag_296:\n        /* \"#utility.yul\":30434:30438   */\n      0x00\n        /* \"#utility.yul\":30454:30474   */\n      tag_792\n        /* \"#utility.yul\":30472:30473   */\n      dup3\n        /* \"#utility.yul\":30454:30474   */\n      tag_429\n      jump\t// in\n    tag_792:\n        /* \"#utility.yul\":30449:30474   */\n      swap2\n      pop\n        /* \"#utility.yul\":30488:30508   */\n      tag_793\n        /* \"#utility.yul\":30506:30507   */\n      dup4\n        /* \"#utility.yul\":30488:30508   */\n      tag_429\n      jump\t// in\n    tag_793:\n        /* \"#utility.yul\":30483:30508   */\n      swap3\n      pop\n        /* \"#utility.yul\":30527:30528   */\n      dup3\n        /* \"#utility.yul\":30524:30525   */\n      dup3\n        /* \"#utility.yul\":30521:30529   */\n      lt\n        /* \"#utility.yul\":30518:30552   */\n      iszero\n      tag_794\n      jumpi\n        /* \"#utility.yul\":30532:30550   */\n      tag_795\n      tag_483\n      jump\t// in\n    tag_795:\n        /* \"#utility.yul\":30518:30552   */\n    tag_794:\n        /* \"#utility.yul\":30577:30578   */\n      dup3\n        /* \"#utility.yul\":30574:30575   */\n      dup3\n        /* \"#utility.yul\":30570:30579   */\n      sub\n        /* \"#utility.yul\":30562:30579   */\n      swap1\n      pop\n        /* \"#utility.yul\":30394:30585   */\n      swap3\n      swap2\n      pop\n      pop\n      jump\t// out\n        /* \"#utility.yul\":30591:30732   */\n    tag_489:\n        /* \"#utility.yul\":30640:30644   */\n      0x00\n        /* \"#utility.yul\":30663:30666   */\n      dup2\n        /* \"#utility.yul\":30655:30666   */\n      swap1\n      pop\n        /* \"#utility.yul\":30686:30689   */\n      dup2\n        /* \"#utility.yul\":30683:30684   */\n      0x00\n        /* \"#utility.yul\":30676:30690   */\n      mstore\n        /* \"#utility.yul\":30720:30724   */\n      0x20\n        /* \"#utility.yul\":30717:30718   */\n      0x00\n        /* \"#utility.yul\":30707:30725   */\n      keccak256\n        /* \"#utility.yul\":30699:30725   */\n      swap1\n      pop\n        /* \"#utility.yul\":30591:30732   */\n      swap2\n      swap1\n      pop\n      jump\t// out\n        /* \"#utility.yul\":30762:31564   */\n    tag_490:\n        /* \"#utility.yul\":30847:30850   */\n      0x00\n        /* \"#utility.yul\":30884:30889   */\n      dup2\n        /* \"#utility.yul\":30878:30890   */\n      sload\n        /* \"#utility.yul\":30913:30949   */\n      tag_798\n        /* \"#utility.yul\":30939:30948   */\n      dup2\n        /* \"#utility.yul\":30913:30949   */\n      tag_166\n      jump\t// in\n    tag_798:\n        /* \"#utility.yul\":30965:31036   */\n      tag_799\n        /* \"#utility.yul\":31029:31035   */\n      dup2\n        /* \"#utility.yul\":31024:31027   */\n      dup7\n        /* \"#utility.yul\":30965:31036   */\n      tag_435\n      jump\t// in\n    tag_799:\n        /* \"#utility.yul\":30958:31036   */\n      swap5\n      pop\n        /* \"#utility.yul\":31067:31068   */\n      0x01\n        /* \"#utility.yul\":31056:31065   */\n      dup3\n        /* \"#utility.yul\":31052:31069   */\n      and\n        /* \"#utility.yul\":31083:31084   */\n      0x00\n        /* \"#utility.yul\":31078:31213   */\n      dup2\n      eq\n      tag_801\n      jumpi\n        /* \"#utility.yul\":31227:31228   */\n      0x01\n        /* \"#utility.yul\":31222:31558   */\n      dup2\n      eq\n      tag_802\n      jumpi\n        /* \"#utility.yul\":31045:31558   */\n      jump(tag_800)\n        /* \"#utility.yul\":31078:31213   */\n    tag_801:\n        /* \"#utility.yul\":31162:31166   */\n      0xff\n        /* \"#utility.yul\":31158:31167   */\n      not\n        /* \"#utility.yul\":31147:31156   */\n      dup4\n        /* \"#utility.yul\":31143:31168   */\n      and\n        /* \"#utility.yul\":31138:31141   */\n      dup7\n        /* \"#utility.yul\":31131:31169   */\n      mstore\n        /* \"#utility.yul\":31198:31202   */\n      0x20\n        /* \"#utility.yul\":31193:31196   */\n      dup7\n        /* \"#utility.yul\":31189:31203   */\n      add\n        /* \"#utility.yul\":31182:31203   */\n      swap4\n      pop\n        /* \"#utility.yul\":31078:31213   */\n      jump(tag_800)\n        /* \"#utility.yul\":31222:31558   */\n    tag_802:\n        /* \"#utility.yul\":31289:31327   */\n      tag_803\n        /* \"#utility.yul\":31321:31326   */\n      dup6\n        /* \"#utility.yul\":31289:31327   */\n      tag_489\n      jump\t// in\n    tag_803:\n        /* \"#utility.yul\":31349:31350   */\n      0x00\n        /* \"#utility.yul\":31363:31517   */\n    tag_804:\n        /* \"#utility.yul\":31377:31383   */\n      dup4\n        /* \"#utility.yul\":31374:31375   */\n      dup2\n        /* \"#utility.yul\":31371:31384   */\n      lt\n        /* \"#utility.yul\":31363:31517   */\n      iszero\n      tag_806\n      jumpi\n        /* \"#utility.yul\":31451:31458   */\n      dup2\n        /* \"#utility.yul\":31445:31459   */\n      sload\n        /* \"#utility.yul\":31441:31442   */\n      dup2\n        /* \"#utility.yul\":31436:31439   */\n      dup10\n        /* \"#utility.yul\":31432:31443   */\n      add\n        /* \"#utility.yul\":31425:31460   */\n      mstore\n        /* \"#utility.yul\":31501:31502   */\n      0x01\n        /* \"#utility.yul\":31492:31499   */\n      dup3\n        /* \"#utility.yul\":31488:31503   */\n      add\n        /* \"#utility.yul\":31477:31503   */\n      swap2\n      pop\n        /* \"#utility.yul\":31399:31403   */\n      0x20\n        /* \"#utility.yul\":31396:31397   */\n      dup2\n        /* \"#utility.yul\":31392:31404   */\n      add\n        /* \"#utility.yul\":31387:31404   */\n      swap1\n      pop\n        /* \"#utility.yul\":31363:31517   */\n      jump(tag_804)\n    tag_806:\n        /* \"#utility.yul\":31546:31547   */\n      dup1\n        /* \"#utility.yul\":31541:31544   */\n      dup9\n        /* \"#utility.yul\":31537:31548   */\n      add\n        /* \"#utility.yul\":31530:31548   */\n      swap6\n      pop\n        /* \"#utility.yul\":31229:31558   */\n      pop\n      pop\n        /* \"#utility.yul\":31045:31558   */\n    tag_800:\n      pop\n        /* \"#utility.yul\":30851:31564   */\n      pop\n      pop\n        /* \"#utility.yul\":30762:31564   */\n      swap3\n      swap2\n      pop\n      pop\n      jump\t// out\n        /* \"#utility.yul\":31570:31730   */\n    tag_491:\n        /* \"#utility.yul\":31710:31722   */\n      0x5749544844524157414c00000000000000000000000000000000000000000000\n        /* \"#utility.yul\":31706:31707   */\n      0x00\n        /* \"#utility.yul\":31698:31704   */\n      dup3\n        /* \"#utility.yul\":31694:31708   */\n      add\n        /* \"#utility.yul\":31687:31723   */\n      mstore\n        /* \"#utility.yul\":31570:31730   */\n      pop\n      jump\t// out\n        /* \"#utility.yul\":31736:32102   */\n    tag_492:\n        /* \"#utility.yul\":31878:31881   */\n      0x00\n        /* \"#utility.yul\":31899:31966   */\n      tag_809\n        /* \"#utility.yul\":31963:31965   */\n      0x0a\n        /* \"#utility.yul\":31958:31961   */\n      dup4\n        /* \"#utility.yul\":31899:31966   */\n      tag_435\n      jump\t// in\n    tag_809:\n        /* \"#utility.yul\":31892:31966   */\n      swap2\n      pop\n        /* \"#utility.yul\":31975:32068   */\n      tag_810\n        /* \"#utility.yul\":32064:32067   */\n      dup3\n        /* \"#utility.yul\":31975:32068   */\n      tag_491\n      jump\t// in\n    tag_810:\n        /* \"#utility.yul\":32093:32095   */\n      0x20\n        /* \"#utility.yul\":32088:32091   */\n      dup3\n        /* \"#utility.yul\":32084:32096   */\n      add\n        /* \"#utility.yul\":32077:32096   */\n      swap1\n      pop\n        /* \"#utility.yul\":31736:32102   */\n      swap2\n      swap1\n      pop\n      jump\t// out\n        /* \"#utility.yul\":32108:33145   */\n    tag_305:\n        /* \"#utility.yul\":32423:32427   */\n      0x00\n        /* \"#utility.yul\":32461:32464   */\n      0xa0\n        /* \"#utility.yul\":32450:32459   */\n      dup3\n        /* \"#utility.yul\":32446:32465   */\n      add\n        /* \"#utility.yul\":32438:32465   */\n      swap1\n      pop\n        /* \"#utility.yul\":32475:32546   */\n      tag_812\n        /* \"#utility.yul\":32543:32544   */\n      0x00\n        /* \"#utility.yul\":32532:32541   */\n      dup4\n        /* \"#utility.yul\":32528:32545   */\n      add\n        /* \"#utility.yul\":32519:32525   */\n      dup8\n        /* \"#utility.yul\":32475:32546   */\n      tag_430\n      jump\t// in\n    tag_812:\n        /* \"#utility.yul\":32593:32602   */\n      dup2\n        /* \"#utility.yul\":32587:32591   */\n      dup2\n        /* \"#utility.yul\":32583:32603   */\n      sub\n        /* \"#utility.yul\":32578:32580   */\n      0x20\n        /* \"#utility.yul\":32567:32576   */\n      dup4\n        /* \"#utility.yul\":32563:32581   */\n      add\n        /* \"#utility.yul\":32556:32604   */\n      mstore\n        /* \"#utility.yul\":32621:32696   */\n      tag_813\n        /* \"#utility.yul\":32691:32695   */\n      dup2\n        /* \"#utility.yul\":32682:32688   */\n      dup7\n        /* \"#utility.yul\":32621:32696   */\n      tag_490\n      jump\t// in\n    tag_813:\n        /* \"#utility.yul\":32613:32696   */\n      swap1\n      pop\n        /* \"#utility.yul\":32743:32752   */\n      dup2\n        /* \"#utility.yul\":32737:32741   */\n      dup2\n        /* \"#utility.yul\":32733:32753   */\n      sub\n        /* \"#utility.yul\":32728:32730   */\n      0x40\n        /* \"#utility.yul\":32717:32726   */\n      dup4\n        /* \"#utility.yul\":32713:32731   */\n      add\n        /* \"#utility.yul\":32706:32754   */\n      mstore\n        /* \"#utility.yul\":32771:32902   */\n      tag_814\n        /* \"#utility.yul\":32897:32901   */\n      dup2\n        /* \"#utility.yul\":32771:32902   */\n      tag_492\n      jump\t// in\n    tag_814:\n        /* \"#utility.yul\":32763:32902   */\n      swap1\n      pop\n        /* \"#utility.yul\":32949:32958   */\n      dup2\n        /* \"#utility.yul\":32943:32947   */\n      dup2\n        /* \"#utility.yul\":32939:32959   */\n      sub\n        /* \"#utility.yul\":32934:32936   */\n      0x60\n        /* \"#utility.yul\":32923:32932   */\n      dup4\n        /* \"#utility.yul\":32919:32937   */\n      add\n        /* \"#utility.yul\":32912:32960   */\n      mstore\n        /* \"#utility.yul\":32977:33055   */\n      tag_815\n        /* \"#utility.yul\":33050:33054   */\n      dup2\n        /* \"#utility.yul\":33041:33047   */\n      dup6\n        /* \"#utility.yul\":32977:33055   */\n      tag_436\n      jump\t// in\n    tag_815:\n        /* \"#utility.yul\":32969:33055   */\n      swap1\n      pop\n        /* \"#utility.yul\":33065:33138   */\n      tag_816\n        /* \"#utility.yul\":33133:33136   */\n      0x80\n        /* \"#utility.yul\":33122:33131   */\n      dup4\n        /* \"#utility.yul\":33118:33137   */\n      add\n        /* \"#utility.yul\":33109:33115   */\n      dup5\n        /* \"#utility.yul\":33065:33138   */\n      tag_430\n      jump\t// in\n    tag_816:\n        /* \"#utility.yul\":32108:33145   */\n      swap6\n      swap5\n      pop\n      pop\n      pop\n      pop\n      pop\n      jump\t// out\n        /* \"#utility.yul\":33151:33326   */\n    tag_493:\n        /* \"#utility.yul\":33291:33318   */\n      0x496e76616c696420726563697069656e74206164647265737300000000000000\n        /* \"#utility.yul\":33287:33288   */\n      0x00\n        /* \"#utility.yul\":33279:33285   */\n      dup3\n        /* \"#utility.yul\":33275:33289   */\n      add\n        /* \"#utility.yul\":33268:33319   */\n      mstore\n        /* \"#utility.yul\":33151:33326   */\n      pop\n      jump\t// out\n        /* \"#utility.yul\":33332:33698   */\n    tag_494:\n        /* \"#utility.yul\":33474:33477   */\n      0x00\n        /* \"#utility.yul\":33495:33562   */\n      tag_819\n        /* \"#utility.yul\":33559:33561   */\n      0x19\n        /* \"#utility.yul\":33554:33557   */\n      dup4\n        /* \"#utility.yul\":33495:33562   */\n      tag_435\n      jump\t// in\n    tag_819:\n        /* \"#utility.yul\":33488:33562   */\n      swap2\n      pop\n        /* \"#utility.yul\":33571:33664   */\n      tag_820\n        /* \"#utility.yul\":33660:33663   */\n      dup3\n        /* \"#utility.yul\":33571:33664   */\n      tag_493\n      jump\t// in\n    tag_820:\n        /* \"#utility.yul\":33689:33691   */\n      0x20\n        /* \"#utility.yul\":33684:33687   */\n      dup3\n        /* \"#utility.yul\":33680:33692   */\n      add\n        /* \"#utility.yul\":33673:33692   */\n      swap1\n      pop\n        /* \"#utility.yul\":33332:33698   */\n      swap2\n      swap1\n      pop\n      jump\t// out\n        /* \"#utility.yul\":33704:34123   */\n    tag_311:\n        /* \"#utility.yul\":33870:33874   */\n      0x00\n        /* \"#utility.yul\":33908:33910   */\n      0x20\n        /* \"#utility.yul\":33897:33906   */\n      dup3\n        /* \"#utility.yul\":33893:33911   */\n      add\n        /* \"#utility.yul\":33885:33911   */\n      swap1\n      pop\n        /* \"#utility.yul\":33957:33966   */\n      dup2\n        /* \"#utility.yul\":33951:33955   */\n      dup2\n        /* \"#utility.yul\":33947:33967   */\n      sub\n        /* \"#utility.yul\":33943:33944   */\n      0x00\n        /* \"#utility.yul\":33932:33941   */\n      dup4\n        /* \"#utility.yul\":33928:33945   */\n      add\n        /* \"#utility.yul\":33921:33968   */\n      mstore\n        /* \"#utility.yul\":33985:34116   */\n      tag_822\n        /* \"#utility.yul\":34111:34115   */\n      dup2\n        /* \"#utility.yul\":33985:34116   */\n      tag_494\n      jump\t// in\n    tag_822:\n        /* \"#utility.yul\":33977:34116   */\n      swap1\n      pop\n        /* \"#utility.yul\":33704:34123   */\n      swap2\n      swap1\n      pop\n      jump\t// out\n        /* \"#utility.yul\":34129:34306   */\n    tag_495:\n        /* \"#utility.yul\":34269:34298   */\n      0x43616e6e6f74207472616e7366657220746f20796f757273656c660000000000\n        /* \"#utility.yul\":34265:34266   */\n      0x00\n        /* \"#utility.yul\":34257:34263   */\n      dup3\n        /* \"#utility.yul\":34253:34267   */\n      add\n        /* \"#utility.yul\":34246:34299   */\n      mstore\n        /* \"#utility.yul\":34129:34306   */\n      pop\n      jump\t// out\n        /* \"#utility.yul\":34312:34678   */\n    tag_496:\n        /* \"#utility.yul\":34454:34457   */\n      0x00\n        /* \"#utility.yul\":34475:34542   */\n      tag_825\n        /* \"#utility.yul\":34539:34541   */\n      0x1b\n        /* \"#utility.yul\":34534:34537   */\n      dup4\n        /* \"#utility.yul\":34475:34542   */\n      tag_435\n      jump\t// in\n    tag_825:\n        /* \"#utility.yul\":34468:34542   */\n      swap2\n      pop\n        /* \"#utility.yul\":34551:34644   */\n      tag_826\n        /* \"#utility.yul\":34640:34643   */\n      dup3\n        /* \"#utility.yul\":34551:34644   */\n      tag_495\n      jump\t// in\n    tag_826:\n        /* \"#utility.yul\":34669:34671   */\n      0x20\n        /* \"#utility.yul\":34664:34667   */\n      dup3\n        /* \"#utility.yul\":34660:34672   */\n      add\n        /* \"#utility.yul\":34653:34672   */\n      swap1\n      pop\n        /* \"#utility.yul\":34312:34678   */\n      swap2\n      swap1\n      pop\n      jump\t// out\n        /* \"#utility.yul\":34684:35103   */\n    tag_318:\n        /* \"#utility.yul\":34850:34854   */\n      0x00\n        /* \"#utility.yul\":34888:34890   */\n      0x20\n        /* \"#utility.yul\":34877:34886   */\n      dup3\n        /* \"#utility.yul\":34873:34891   */\n      add\n        /* \"#utility.yul\":34865:34891   */\n      swap1\n      pop\n        /* \"#utility.yul\":34937:34946   */\n      dup2\n        /* \"#utility.yul\":34931:34935   */\n      dup2\n        /* \"#utility.yul\":34927:34947   */\n      sub\n        /* \"#utility.yul\":34923:34924   */\n      0x00\n        /* \"#utility.yul\":34912:34921   */\n      dup4\n        /* \"#utility.yul\":34908:34925   */\n      add\n        /* \"#utility.yul\":34901:34948   */\n      mstore\n        /* \"#utility.yul\":34965:35096   */\n      tag_828\n        /* \"#utility.yul\":35091:35095   */\n      dup2\n        /* \"#utility.yul\":34965:35096   */\n      tag_496\n      jump\t// in\n    tag_828:\n        /* \"#utility.yul\":34957:35096   */\n      swap1\n      pop\n        /* \"#utility.yul\":34684:35103   */\n      swap2\n      swap1\n      pop\n      jump\t// out\n        /* \"#utility.yul\":35109:35342   */\n    tag_497:\n        /* \"#utility.yul\":35249:35283   */\n      0x5472616e73666572206e6f7420617574686f72697a6564206f72206578636565\n        /* \"#utility.yul\":35245:35246   */\n      0x00\n        /* \"#utility.yul\":35237:35243   */\n      dup3\n        /* \"#utility.yul\":35233:35247   */\n      add\n        /* \"#utility.yul\":35226:35284   */\n      mstore\n        /* \"#utility.yul\":35318:35334   */\n      0x6473206461696c79206c696d6974000000000000000000000000000000000000\n        /* \"#utility.yul\":35313:35315   */\n      0x20\n        /* \"#utility.yul\":35305:35311   */\n      dup3\n        /* \"#utility.yul\":35301:35316   */\n      add\n        /* \"#utility.yul\":35294:35335   */\n      mstore\n        /* \"#utility.yul\":35109:35342   */\n      pop\n      jump\t// out\n        /* \"#utility.yul\":35348:35714   */\n    tag_498:\n        /* \"#utility.yul\":35490:35493   */\n      0x00\n        /* \"#utility.yul\":35511:35578   */\n      tag_831\n        /* \"#utility.yul\":35575:35577   */\n      0x2e\n        /* \"#utility.yul\":35570:35573   */\n      dup4\n        /* \"#utility.yul\":35511:35578   */\n      tag_435\n      jump\t// in\n    tag_831:\n        /* \"#utility.yul\":35504:35578   */\n      swap2\n      pop\n        /* \"#utility.yul\":35587:35680   */\n      tag_832\n        /* \"#utility.yul\":35676:35679   */\n      dup3\n        /* \"#utility.yul\":35587:35680   */\n      tag_497\n      jump\t// in\n    tag_832:\n        /* \"#utility.yul\":35705:35707   */\n      0x40\n        /* \"#utility.yul\":35700:35703   */\n      dup3\n        /* \"#utility.yul\":35696:35708   */\n      add\n        /* \"#utility.yul\":35689:35708   */\n      swap1\n      pop\n        /* \"#utility.yul\":35348:35714   */\n      swap2\n      swap1\n      pop\n      jump\t// out\n        /* \"#utility.yul\":35720:36139   */\n    tag_333:\n        /* \"#utility.yul\":35886:35890   */\n      0x00\n        /* \"#utility.yul\":35924:35926   */\n      0x20\n        /* \"#utility.yul\":35913:35922   */\n      dup3\n        /* \"#utility.yul\":35909:35927   */\n      add\n        /* \"#utility.yul\":35901:35927   */\n      swap1\n      pop\n        /* \"#utility.yul\":35973:35982   */\n      dup2\n        /* \"#utility.yul\":35967:35971   */\n      dup2\n        /* \"#utility.yul\":35963:35983   */\n      sub\n        /* \"#utility.yul\":35959:35960   */\n      0x00\n        /* \"#utility.yul\":35948:35957   */\n      dup4\n        /* \"#utility.yul\":35944:35961   */\n      add\n        /* \"#utility.yul\":35937:35984   */\n      mstore\n        /* \"#utility.yul\":36001:36132   */\n      tag_834\n        /* \"#utility.yul\":36127:36131   */\n      dup2\n        /* \"#utility.yul\":36001:36132   */\n      tag_498\n      jump\t// in\n    tag_834:\n        /* \"#utility.yul\":35993:36132   */\n      swap1\n      pop\n        /* \"#utility.yul\":35720:36139   */\n      swap2\n      swap1\n      pop\n      jump\t// out\n        /* \"#utility.yul\":36145:37076   */\n    tag_358:\n        /* \"#utility.yul\":36407:36411   */\n      0x00\n        /* \"#utility.yul\":36445:36448   */\n      0xa0\n        /* \"#utility.yul\":36434:36443   */\n      dup3\n        /* \"#utility.yul\":36430:36449   */\n      add\n        /* \"#utility.yul\":36422:36449   */\n      swap1\n      pop\n        /* \"#utility.yul\":36459:36530   */\n      tag_836\n        /* \"#utility.yul\":36527:36528   */\n      0x00\n        /* \"#utility.yul\":36516:36525   */\n      dup4\n        /* \"#utility.yul\":36512:36529   */\n      add\n        /* \"#utility.yul\":36503:36509   */\n      dup9\n        /* \"#utility.yul\":36459:36530   */\n      tag_430\n      jump\t// in\n    tag_836:\n        /* \"#utility.yul\":36577:36586   */\n      dup2\n        /* \"#utility.yul\":36571:36575   */\n      dup2\n        /* \"#utility.yul\":36567:36587   */\n      sub\n        /* \"#utility.yul\":36562:36564   */\n      0x20\n        /* \"#utility.yul\":36551:36560   */\n      dup4\n        /* \"#utility.yul\":36547:36565   */\n      add\n        /* \"#utility.yul\":36540:36588   */\n      mstore\n        /* \"#utility.yul\":36605:36680   */\n      tag_837\n        /* \"#utility.yul\":36675:36679   */\n      dup2\n        /* \"#utility.yul\":36666:36672   */\n      dup8\n        /* \"#utility.yul\":36605:36680   */\n      tag_490\n      jump\t// in\n    tag_837:\n        /* \"#utility.yul\":36597:36680   */\n      swap1\n      pop\n        /* \"#utility.yul\":36727:36736   */\n      dup2\n        /* \"#utility.yul\":36721:36725   */\n      dup2\n        /* \"#utility.yul\":36717:36737   */\n      sub\n        /* \"#utility.yul\":36712:36714   */\n      0x40\n        /* \"#utility.yul\":36701:36710   */\n      dup4\n        /* \"#utility.yul\":36697:36715   */\n      add\n        /* \"#utility.yul\":36690:36738   */\n      mstore\n        /* \"#utility.yul\":36755:36833   */\n      tag_838\n        /* \"#utility.yul\":36828:36832   */\n      dup2\n        /* \"#utility.yul\":36819:36825   */\n      dup7\n        /* \"#utility.yul\":36755:36833   */\n      tag_436\n      jump\t// in\n    tag_838:\n        /* \"#utility.yul\":36747:36833   */\n      swap1\n      pop\n        /* \"#utility.yul\":36880:36889   */\n      dup2\n        /* \"#utility.yul\":36874:36878   */\n      dup2\n        /* \"#utility.yul\":36870:36890   */\n      sub\n        /* \"#utility.yul\":36865:36867   */\n      0x60\n        /* \"#utility.yul\":36854:36863   */\n      dup4\n        /* \"#utility.yul\":36850:36868   */\n      add\n        /* \"#utility.yul\":36843:36891   */\n      mstore\n        /* \"#utility.yul\":36908:36986   */\n      tag_839\n        /* \"#utility.yul\":36981:36985   */\n      dup2\n        /* \"#utility.yul\":36972:36978   */\n      dup6\n        /* \"#utility.yul\":36908:36986   */\n      tag_436\n      jump\t// in\n    tag_839:\n        /* \"#utility.yul\":36900:36986   */\n      swap1\n      pop\n        /* \"#utility.yul\":36996:37069   */\n      tag_840\n        /* \"#utility.yul\":37064:37067   */\n      0x80\n        /* \"#utility.yul\":37053:37062   */\n      dup4\n        /* \"#utility.yul\":37049:37068   */\n      add\n        /* \"#utility.yul\":37040:37046   */\n      dup5\n        /* \"#utility.yul\":36996:37069   */\n      tag_430\n      jump\t// in\n    tag_840:\n        /* \"#utility.yul\":36145:37076   */\n      swap7\n      swap6\n      pop\n      pop\n      pop\n      pop\n      pop\n      pop\n      jump\t// out\n\n    auxdata: 0xa264697066735822122090e9e6186dde5cef3cb98c16f05e367e5992d076e56d3be726d57b5a377887de64736f6c634300080a0033\n}\n",
    "bytecode": {
      "linkReferences": {},
      "object": "608060405234801561001057600080fd5b5033600560006101000a81548173ffffffffffffffffffffffffffffffffffffffff021916908373ffffffffffffffffffffffffffffffffffffffff160217905550600060078190555060008060146101000a81548160ff021916908315150217905550614167806100836000396000f3fe60806040526004361061012a5760003560e01c8063a2969820116100ab578063cf048bed1161006f578063cf048bed14610419578063dc048cf214610456578063e9c0281514610493578063ef925399146104d0578063f8b2cb4f1461050d578063f99185c21461054a5761012a565b8063a296982014610343578063a7b4ce7814610380578063b7482509146103ab578063bafbf728146103c7578063c559e45d146103f05761012a565b806333ea3dc8116100f257806333ea3dc814610228578063392c5bd81461026d5780634f480ae2146102aa5780638da5cb5b146102d35780639ace38c2146102fe5761012a565b806311231fe01461012f578063127154141461016c578063222e1a441461019757806327e235e3146101c05780632e7700f0146101fd575b600080fd5b34801561013b57600080fd5b5061015660048036038101906101519190612eab565b610587565b6040516101639190612f71565b60405180910390f35b34801561017857600080fd5b506101816106d7565b60405161018e9190612fae565b60405180910390f35b3480156101a357600080fd5b506101be60048036038101906101b99190612eab565b6106ea565b005b3480156101cc57600080fd5b506101e760048036038101906101e29190612eab565b610848565b6040516101f49190612fe2565b60405180910390f35b34801561020957600080fd5b50610212610860565b60405161021f9190612fe2565b60405180910390f35b34801561023457600080fd5b5061024f600480360381019061024a9190613029565b61086d565b60405161026499989796959493929190613131565b60405180910390f35b34801561027957600080fd5b50610294600480360381019061028f9190612eab565b610c20565b6040516102a191906131d3565b60405180910390f35b3480156102b657600080fd5b506102d160048036038101906102cc9190613221565b610cc0565b005b3480156102df57600080fd5b506102e8610d6d565b6040516102f5919061324e565b60405180910390f35b34801561030a57600080fd5b5061032560048036038101906103209190613029565b610d93565b60405161033a99989796959493929190613131565b60405180910390f35b34801561034f57600080fd5b5061036a60048036038101906103659190612eab565b610fd6565b6040516103779190612fae565b60405180910390f35b34801561038c57600080fd5b50610395610ff6565b6040516103a291906132c8565b60405180910390f35b6103c560048036038101906103c09190613418565b61101a565b005b3480156103d357600080fd5b506103ee60048036038101906103e99190613499565b61133c565b005b3480156103fc57600080fd5b5061041760048036038101906104129190613418565b611512565b005b34801561042557600080fd5b50610440600480360381019061043b91906134d9565b611652565b60405161044d9190612fae565b60405180910390f35b34801561046257600080fd5b5061047d60048036038101906104789190613519565b611810565b60405161048a9190612fe2565b60405180910390f35b34801561049f57600080fd5b506104ba60048036038101906104b59190613575565b611f78565b6040516104c79190612fe2565b60405180910390f35b3480156104dc57600080fd5b506104f760048036038101906104f29190612eab565b612a46565b60405161050491906136d2565b60405180910390f35b34801561051957600080fd5b50610534600480360381019061052f9190612eab565b612d35565b6040516105419190612fe2565b60405180910390f35b34801561055657600080fd5b50610571600480360381019061056c9190613029565b612d7e565b60405161057e9190612fe2565b60405180910390f35b6060600060149054906101000a900460ff1680156105f25750600073ffffffffffffffffffffffffffffffffffffffff1660008054906101000a900473ffffffffffffffffffffffffffffffffffffffff1673ffffffffffffffffffffffffffffffffffffffff1614155b610631576040517f08c379a000000000000000000000000000000000000000000000000000000000815260040161062890613740565b60405180910390fd5b60008054906101000a900473ffffffffffffffffffffffffffffffffffffffff1673ffffffffffffffffffffffffffffffffffffffff166311231fe0836040518263ffffffff1660e01b815260040161068a919061324e565b600060405180830381865afa1580156106a7573d6000803e3d6000fd5b505050506040513d6000823e3d601f19601f820116820180604052508101906106d09190613801565b9050919050565b600060149054906101000a900460ff1681565b600560009054906101000a900473ffffffffffffffffffffffffffffffffffffffff1673ffffffffffffffffffffffffffffffffffffffff163373ffffffffffffffffffffffffffffffffffffffff161461077a576040517f08c379a0000000000000000000000000000000000000000000000000000000008152600401610771906138bc565b60405180910390fd5b600073ffffffffffffffffffffffffffffffffffffffff168173ffffffffffffffffffffffffffffffffffffffff1614156107ea576040517f08c379a00000000000000000000000000000000000000000000000000000000081526004016107e190613928565b60405180910390fd5b806000806101000a81548173ffffffffffffffffffffffffffffffffffffffff021916908373ffffffffffffffffffffffffffffffffffffffff1602179055506001600060146101000a81548160ff02191690831515021790555050565b60016020528060005260406000206000915090505481565b6000600380549050905090565b600080600080606080606060008060008a11801561088d57506007548a11155b6108cc576040517f08c379a00000000000000000000000000000000000000000000000000000000081526004016108c390613994565b60405180910390fd5b6000600460008c81526020019081526020016000205490506000600382815481106108fa576108f96139b4565b5b906000526020600020906009020160405180610120016040529081600082015481526020016001820160009054906101000a900473ffffffffffffffffffffffffffffffffffffffff1673ffffffffffffffffffffffffffffffffffffffff1673ffffffffffffffffffffffffffffffffffffffff1681526020016002820160009054906101000a900473ffffffffffffffffffffffffffffffffffffffff1673ffffffffffffffffffffffffffffffffffffffff1673ffffffffffffffffffffffffffffffffffffffff168152602001600382015481526020016004820180546109e490613a12565b80601f0160208091040260200160405190810160405280929190818152602001828054610a1090613a12565b8015610a5d5780601f10610a3257610100808354040283529160200191610a5d565b820191906000526020600020905b815481529060010190602001808311610a4057829003601f168201915b50505050508152602001600582018054610a7690613a12565b80601f0160208091040260200160405190810160405280929190818152602001828054610aa290613a12565b8015610aef5780601f10610ac457610100808354040283529160200191610aef565b820191906000526020600020905b815481529060010190602001808311610ad257829003601f168201915b50505050508152602001600682018054610b0890613a12565b80601f0160208091040260200160405190810160405280929190818152602001828054610b3490613a12565b8015610b815780601f10610b5657610100808354040283529160200191610b81565b820191906000526020600020905b815481529060010190602001808311610b6457829003601f168201915b50505050508152602001600782015481526020016008820160009054906101000a900460ff166003811115610bb957610bb86130ba565b5b6003811115610bcb57610bca6130ba565b5b815250509050806000015181602001518260400151836060015184608001518560a001518660c001518760e001518861010001519a509a509a509a509a509a509a509a509a5050509193959799909294969850565b60026020528060005260406000206000915090508054610c3f90613a12565b80601f0160208091040260200160405190810160405280929190818152602001828054610c6b90613a12565b8015610cb85780601f10610c8d57610100808354040283529160200191610cb8565b820191906000526020600020905b815481529060010190602001808311610c9b57829003601f168201915b505050505081565b600560009054906101000a900473ffffffffffffffffffffffffffffffffffffffff1673ffffffffffffffffffffffffffffffffffffffff163373ffffffffffffffffffffffffffffffffffffffff1614610d50576040517f08c379a0000000000000000000000000000000000000000000000000000000008152600401610d47906138bc565b60405180910390fd5b80600060146101000a81548160ff02191690831515021790555050565b600560009054906101000a900473ffffffffffffffffffffffffffffffffffffffff1681565b60038181548110610da357600080fd5b90600052602060002090600902016000915090508060000154908060010160009054906101000a900473ffffffffffffffffffffffffffffffffffffffff16908060020160009054906101000a900473ffffffffffffffffffffffffffffffffffffffff1690806003015490806004018054610e1e90613a12565b80601f0160208091040260200160405190810160405280929190818152602001828054610e4a90613a12565b8015610e975780601f10610e6c57610100808354040283529160200191610e97565b820191906000526020600020905b815481529060010190602001808311610e7a57829003601f168201915b505050505090806005018054610eac90613a12565b80601f0160208091040260200160405190810160405280929190818152602001828054610ed890613a12565b8015610f255780601f10610efa57610100808354040283529160200191610f25565b820191906000526020600020905b815481529060010190602001808311610f0857829003601f168201915b505050505090806006018054610f3a90613a12565b80601f0160208091040260200160405190810160405280929190818152602001828054610f6690613a12565b8015610fb35780601f10610f8857610100808354040283529160200191610fb3565b820191906000526020600020905b815481529060010190602001808311610f9657829003601f168201915b5050505050908060070154908060080160009054906101000a900460ff16905089565b60066020528060005260406000206000915054906101000a900460ff1681565b60008054906101000a900473ffffffffffffffffffffffffffffffffffffffff1681565b600660003373ffffffffffffffffffffffffffffffffffffffff1673ffffffffffffffffffffffffffffffffffffffff16815260200190815260200160002060009054906101000a900460ff16806110bf5750600560009054906101000a900473ffffffffffffffffffffffffffffffffffffffff1673ffffffffffffffffffffffffffffffffffffffff163373ffffffffffffffffffffffffffffffffffffffff16145b6110fe576040517f08c379a00000000000000000000000000000000000000000000000000000000081526004016110f590613a90565b60405180910390fd5b600073ffffffffffffffffffffffffffffffffffffffff168273ffffffffffffffffffffffffffffffffffffffff16141561116e576040517f08c379a000000000000000000000000000000000000000000000000000000000815260040161116590613afc565b60405180910390fd5b600034116111b1576040517f08c379a00000000000000000000000000000000000000000000000000000000081526004016111a890613b68565b60405180910390fd5b34600160008473ffffffffffffffffffffffffffffffffffffffff1673ffffffffffffffffffffffffffffffffffffffff16815260200190815260200160002060008282546112009190613bb7565b9250508190555080600260008473ffffffffffffffffffffffffffffffffffffffff1673ffffffffffffffffffffffffffffffffffffffff168152602001908152602001600020908051906020019061125a929190612d96565b508173ffffffffffffffffffffffffffffffffffffffff167f643e927b32d5bfd08eccd2fcbd97057ad413850f857a2359639114e8e8dd3d7b34836040516112a3929190613c0d565b60405180910390a28173ffffffffffffffffffffffffffffffffffffffff167f8ad64a0ac7700dd8425ab0499f107cb6e2cd1581d803c5b8c1c79dcb8190b1af600160008573ffffffffffffffffffffffffffffffffffffffff1673ffffffffffffffffffffffffffffffffffffffff168152602001908152602001600020546040516113309190612fe2565b60405180910390a25050565b600660003373ffffffffffffffffffffffffffffffffffffffff1673ffffffffffffffffffffffffffffffffffffffff16815260200190815260200160002060009054906101000a900460ff16806113e15750600560009054906101000a900473ffffffffffffffffffffffffffffffffffffffff1673ffffffffffffffffffffffffffffffffffffffff163373ffffffffffffffffffffffffffffffffffffffff16145b611420576040517f08c379a000000000000000000000000000000000000000000000000000000000815260040161141790613a90565b60405180910390fd5b60008211801561143257506007548211155b611471576040517f08c379a000000000000000000000000000000000000000000000000000000000815260040161146890613994565b60405180910390fd5b600060046000848152602001908152602001600020549050816003828154811061149e5761149d6139b4565b5b906000526020600020906009020160080160006101000a81548160ff021916908360038111156114d1576114d06130ba565b5b0217905550827e3013893708bd175bc8eeedd6ea1e367024bbc9bc7b110e7ed37bc77aceac57836040516115059190613c3d565b60405180910390a2505050565b600560009054906101000a900473ffffffffffffffffffffffffffffffffffffffff1673ffffffffffffffffffffffffffffffffffffffff163373ffffffffffffffffffffffffffffffffffffffff16146115a2576040517f08c379a0000000000000000000000000000000000000000000000000000000008152600401611599906138bc565b60405180910390fd5b6001600660008473ffffffffffffffffffffffffffffffffffffffff1673ffffffffffffffffffffffffffffffffffffffff16815260200190815260200160002060006101000a81548160ff02191690831515021790555080600260008473ffffffffffffffffffffffffffffffffffffffff1673ffffffffffffffffffffffffffffffffffffffff168152602001908152602001600020908051906020019061164d929190612d96565b505050565b60008060149054906101000a900460ff1615806116bb5750600073ffffffffffffffffffffffffffffffffffffffff1660008054906101000a900473ffffffffffffffffffffffffffffffffffffffff1673ffffffffffffffffffffffffffffffffffffffff16145b156116c9576001905061180a565b60008054906101000a900473ffffffffffffffffffffffffffffffffffffffff1673ffffffffffffffffffffffffffffffffffffffff1663cf0e0f9d846040518263ffffffff1660e01b8152600401611722919061324e565b602060405180830381865afa15801561173f573d6000803e3d6000fd5b505050506040513d601f19601f820116820180604052508101906117639190613c6d565b8015611807575060008054906101000a900473ffffffffffffffffffffffffffffffffffffffff1673ffffffffffffffffffffffffffffffffffffffff16637603144884846040518363ffffffff1660e01b81526004016117c5929190613c9a565b602060405180830381865afa1580156117e2573d6000803e3d6000fd5b505050506040513d601f19601f820116820180604052508101906118069190613c6d565b5b90505b92915050565b6000808311611854576040517f08c379a000000000000000000000000000000000000000000000000000000000815260040161184b90613b68565b60405180910390fd5b82600160003373ffffffffffffffffffffffffffffffffffffffff1673ffffffffffffffffffffffffffffffffffffffff1681526020019081526020016000205410156118d6576040517f08c379a00000000000000000000000000000000000000000000000000000000081526004016118cd90613d0f565b60405180910390fd5b600060149054906101000a900460ff16801561193f5750600073ffffffffffffffffffffffffffffffffffffffff1660008054906101000a900473ffffffffffffffffffffffffffffffffffffffff1673ffffffffffffffffffffffffffffffffffffffff1614155b15611a1e5760008054906101000a900473ffffffffffffffffffffffffffffffffffffffff1673ffffffffffffffffffffffffffffffffffffffff1663cf0e0f9d336040518263ffffffff1660e01b815260040161199d919061324e565b602060405180830381865afa1580156119ba573d6000803e3d6000fd5b505050506040513d601f19601f820116820180604052508101906119de9190613c6d565b611a1d576040517f08c379a0000000000000000000000000000000000000000000000000000000008152600401611a1490613d7b565b60405180910390fd5b5b60076000815480929190611a3190613d9b565b91905055506000600754905060006040518061012001604052808381526020013373ffffffffffffffffffffffffffffffffffffffff168152602001600073ffffffffffffffffffffffffffffffffffffffff168152602001868152602001600260003373ffffffffffffffffffffffffffffffffffffffff1673ffffffffffffffffffffffffffffffffffffffff1681526020019081526020016000208054611ada90613a12565b80601f0160208091040260200160405190810160405280929190818152602001828054611b0690613a12565b8015611b535780601f10611b2857610100808354040283529160200191611b53565b820191906000526020600020905b815481529060010190602001808311611b3657829003601f168201915b505050505081526020016040518060400160405280600a81526020017f5749544844524157414c00000000000000000000000000000000000000000000815250815260200185815260200142815260200160006003811115611bb857611bb76130ba565b5b815250905060038190806001815401808255809150506001900390600052602060002090600902016000909190919091506000820151816000015560208201518160010160006101000a81548173ffffffffffffffffffffffffffffffffffffffff021916908373ffffffffffffffffffffffffffffffffffffffff16021790555060408201518160020160006101000a81548173ffffffffffffffffffffffffffffffffffffffff021916908373ffffffffffffffffffffffffffffffffffffffff160217905550606082015181600301556080820151816004019080519060200190611ca7929190612d96565b5060a0820151816005019080519060200190611cc4929190612d96565b5060c0820151816006019080519060200190611ce1929190612d96565b5060e082015181600701556101008201518160080160006101000a81548160ff02191690836003811115611d1857611d176130ba565b5b021790555050506001600380549050611d319190613de4565b600460008481526020019081526020016000208190555084600160003373ffffffffffffffffffffffffffffffffffffffff1673ffffffffffffffffffffffffffffffffffffffff1681526020019081526020016000206000828254611d979190613de4565b92505081905550600260036001600380549050611db49190613de4565b81548110611dc557611dc46139b4565b5b906000526020600020906009020160080160006101000a81548160ff02191690836003811115611df857611df76130ba565b5b0217905550600073ffffffffffffffffffffffffffffffffffffffff163373ffffffffffffffffffffffffffffffffffffffff16837f82e8134a6a3a6586eab71827e213b1a1f6c8b261024adbecf466eeb0240bb91688600260003373ffffffffffffffffffffffffffffffffffffffff1673ffffffffffffffffffffffffffffffffffffffff1681526020019081526020016000208942604051611ea09493929190613ef9565b60405180910390a4817e3013893708bd175bc8eeedd6ea1e367024bbc9bc7b110e7ed37bc77aceac576002604051611ed89190613c3d565b60405180910390a23373ffffffffffffffffffffffffffffffffffffffff167f8ad64a0ac7700dd8425ab0499f107cb6e2cd1581d803c5b8c1c79dcb8190b1af600160003373ffffffffffffffffffffffffffffffffffffffff1673ffffffffffffffffffffffffffffffffffffffff16815260200190815260200160002054604051611f659190612fe2565b60405180910390a2819250505092915050565b60008073ffffffffffffffffffffffffffffffffffffffff168573ffffffffffffffffffffffffffffffffffffffff161415611fe9576040517f08c379a0000000000000000000000000000000000000000000000000000000008152600401611fe090613fab565b60405180910390fd5b6000841161202c576040517f08c379a000000000000000000000000000000000000000000000000000000000815260040161202390613b68565b60405180910390fd5b83600160003373ffffffffffffffffffffffffffffffffffffffff1673ffffffffffffffffffffffffffffffffffffffff1681526020019081526020016000205410156120ae576040517f08c379a00000000000000000000000000000000000000000000000000000000081526004016120a590613d0f565b60405180910390fd5b8473ffffffffffffffffffffffffffffffffffffffff163373ffffffffffffffffffffffffffffffffffffffff16141561211d576040517f08c379a000000000000000000000000000000000000000000000000000000000815260040161211490614017565b60405180910390fd5b600060149054906101000a900460ff1680156121865750600073ffffffffffffffffffffffffffffffffffffffff1660008054906101000a900473ffffffffffffffffffffffffffffffffffffffff1673ffffffffffffffffffffffffffffffffffffffff1614155b156123405760008054906101000a900473ffffffffffffffffffffffffffffffffffffffff1673ffffffffffffffffffffffffffffffffffffffff1663cf0e0f9d336040518263ffffffff1660e01b81526004016121e4919061324e565b602060405180830381865afa158015612201573d6000803e3d6000fd5b505050506040513d601f19601f820116820180604052508101906122259190613c6d565b612264576040517f08c379a000000000000000000000000000000000000000000000000000000000815260040161225b90613d7b565b60405180910390fd5b60008054906101000a900473ffffffffffffffffffffffffffffffffffffffff1673ffffffffffffffffffffffffffffffffffffffff16637603144833866040518363ffffffff1660e01b81526004016122bf929190613c9a565b602060405180830381865afa1580156122dc573d6000803e3d6000fd5b505050506040513d601f19601f820116820180604052508101906123009190613c6d565b61233f576040517f08c379a0000000000000000000000000000000000000000000000000000000008152600401612336906140a9565b60405180910390fd5b5b6007600081548092919061235390613d9b565b91905055506000600754905060006040518061012001604052808381526020013373ffffffffffffffffffffffffffffffffffffffff1681526020018873ffffffffffffffffffffffffffffffffffffffff168152602001878152602001600260003373ffffffffffffffffffffffffffffffffffffffff1673ffffffffffffffffffffffffffffffffffffffff16815260200190815260200160002080546123fb90613a12565b80601f016020809104026020016040519081016040528092919081815260200182805461242790613a12565b80156124745780601f1061244957610100808354040283529160200191612474565b820191906000526020600020905b81548152906001019060200180831161245757829003601f168201915b50505050508152602001868152602001858152602001428152602001600060038111156124a4576124a36130ba565b5b815250905060038190806001815401808255809150506001900390600052602060002090600902016000909190919091506000820151816000015560208201518160010160006101000a81548173ffffffffffffffffffffffffffffffffffffffff021916908373ffffffffffffffffffffffffffffffffffffffff16021790555060408201518160020160006101000a81548173ffffffffffffffffffffffffffffffffffffffff021916908373ffffffffffffffffffffffffffffffffffffffff160217905550606082015181600301556080820151816004019080519060200190612593929190612d96565b5060a08201518160050190805190602001906125b0929190612d96565b5060c08201518160060190805190602001906125cd929190612d96565b5060e082015181600701556101008201518160080160006101000a81548160ff02191690836003811115612604576126036130ba565b5b02179055505050600160038054905061261d9190613de4565b600460008481526020019081526020016000208190555085600160003373ffffffffffffffffffffffffffffffffffffffff1673ffffffffffffffffffffffffffffffffffffffff16815260200190815260200160002060008282546126839190613de4565b9250508190555085600160008973ffffffffffffffffffffffffffffffffffffffff1673ffffffffffffffffffffffffffffffffffffffff16815260200190815260200160002060008282546126d99190613bb7565b925050819055506002600360016003805490506126f69190613de4565b81548110612707576127066139b4565b5b906000526020600020906009020160080160006101000a81548160ff0219169083600381111561273a576127396130ba565b5b02179055508673ffffffffffffffffffffffffffffffffffffffff163373ffffffffffffffffffffffffffffffffffffffff16837f82e8134a6a3a6586eab71827e213b1a1f6c8b261024adbecf466eeb0240bb91689600260003373ffffffffffffffffffffffffffffffffffffffff1673ffffffffffffffffffffffffffffffffffffffff1681526020019081526020016000208a8a426040516127e39594939291906140c9565b60405180910390a4817e3013893708bd175bc8eeedd6ea1e367024bbc9bc7b110e7ed37bc77aceac57600260405161281b9190613c3d565b60405180910390a23373ffffffffffffffffffffffffffffffffffffffff167f8ad64a0ac7700dd8425ab0499f107cb6e2cd1581d803c5b8c1c79dcb8190b1af600160003373ffffffffffffffffffffffffffffffffffffffff1673ffffffffffffffffffffffffffffffffffffffff168152602001908152602001600020546040516128a89190612fe2565b60405180910390a28673ffffffffffffffffffffffffffffffffffffffff167f8ad64a0ac7700dd8425ab0499f107cb6e2cd1581d803c5b8c1c79dcb8190b1af600160008a73ffffffffffffffffffffffffffffffffffffffff1673ffffffffffffffffffffffffffffffffffffffff168152602001908152602001600020546040516129359190612fe2565b60405180910390a2600060149054906101000a900460ff1680156129a65750600073ffffffffffffffffffffffffffffffffffffffff1660008054906101000a900473ffffffffffffffffffffffffffffffffffffffff1673ffffffffffffffffffffffffffffffffffffffff1614155b15612a395760008054906101000a900473ffffffffffffffffffffffffffffffffffffffff1673ffffffffffffffffffffffffffffffffffffffff166373ac83ef33886040518363ffffffff1660e01b8152600401612a06929190613c9a565b600060405180830381600087803b158015612a2057600080fd5b505af1158015612a34573d6000803e3d6000fd5b505050505b8192505050949350505050565b60606000805b600380549050811015612b6f578373ffffffffffffffffffffffffffffffffffffffff1660038281548110612a8457612a836139b4565b5b906000526020600020906009020160010160009054906101000a900473ffffffffffffffffffffffffffffffffffffffff1673ffffffffffffffffffffffffffffffffffffffff161480612b4857508373ffffffffffffffffffffffffffffffffffffffff1660038281548110612afe57612afd6139b4565b5b906000526020600020906009020160020160009054906101000a900473ffffffffffffffffffffffffffffffffffffffff1673ffffffffffffffffffffffffffffffffffffffff16145b15612b5c578180612b5890613d9b565b9250505b8080612b6790613d9b565b915050612a4c565b5060008167ffffffffffffffff811115612b8c57612b8b6132ed565b5b604051908082528060200260200182016040528015612bba5781602001602082028036833780820191505090505b5090506000805b600380549050811015612d29578573ffffffffffffffffffffffffffffffffffffffff1660038281548110612bf957612bf86139b4565b5b906000526020600020906009020160010160009054906101000a900473ffffffffffffffffffffffffffffffffffffffff1673ffffffffffffffffffffffffffffffffffffffff161480612cbd57508573ffffffffffffffffffffffffffffffffffffffff1660038281548110612c7357612c726139b4565b5b906000526020600020906009020160020160009054906101000a900473ffffffffffffffffffffffffffffffffffffffff1673ffffffffffffffffffffffffffffffffffffffff16145b15612d165760038181548110612cd657612cd56139b4565b5b906000526020600020906009020160000154838381518110612cfb57612cfa6139b4565b5b6020026020010181815250508180612d1290613d9b565b9250505b8080612d2190613d9b565b915050612bc1565b50819350505050919050565b6000600160008373ffffffffffffffffffffffffffffffffffffffff1673ffffffffffffffffffffffffffffffffffffffff168152602001908152602001600020549050919050565b60046020528060005260406000206000915090505481565b828054612da290613a12565b90600052602060002090601f016020900481019282612dc45760008555612e0b565b82601f10612ddd57805160ff1916838001178555612e0b565b82800160010185558215612e0b579182015b82811115612e0a578251825591602001919060010190612def565b5b509050612e189190612e1c565b5090565b5b80821115612e35576000816000905550600101612e1d565b5090565b6000604051905090565b600080fd5b600080fd5b600073ffffffffffffffffffffffffffffffffffffffff82169050919050565b6000612e7882612e4d565b9050919050565b612e8881612e6d565b8114612e9357600080fd5b50565b600081359050612ea581612e7f565b92915050565b600060208284031215612ec157612ec0612e43565b5b6000612ecf84828501612e96565b91505092915050565b600081519050919050565b600082825260208201905092915050565b60005b83811015612f12578082015181840152602081019050612ef7565b83811115612f21576000848401525b50505050565b6000601f19601f8301169050919050565b6000612f4382612ed8565b612f4d8185612ee3565b9350612f5d818560208601612ef4565b612f6681612f27565b840191505092915050565b60006020820190508181036000830152612f8b8184612f38565b905092915050565b60008115159050919050565b612fa881612f93565b82525050565b6000602082019050612fc36000830184612f9f565b92915050565b6000819050919050565b612fdc81612fc9565b82525050565b6000602082019050612ff76000830184612fd3565b92915050565b61300681612fc9565b811461301157600080fd5b50565b60008135905061302381612ffd565b92915050565b60006020828403121561303f5761303e612e43565b5b600061304d84828501613014565b91505092915050565b61305f81612e6d565b82525050565b600081519050919050565b600082825260208201905092915050565b600061308c82613065565b6130968185613070565b93506130a6818560208601612ef4565b6130af81612f27565b840191505092915050565b7f4e487b7100000000000000000000000000000000000000000000000000000000600052602160045260246000fd5b600481106130fa576130f96130ba565b5b50565b600081905061310b826130e9565b919050565b600061311b826130fd565b9050919050565b61312b81613110565b82525050565b600061012082019050613147600083018c612fd3565b613154602083018b613056565b613161604083018a613056565b61316e6060830189612fd3565b81810360808301526131808188613081565b905081810360a08301526131948187613081565b905081810360c08301526131a88186613081565b90506131b760e0830185612fd3565b6131c5610100830184613122565b9a9950505050505050505050565b600060208201905081810360008301526131ed8184613081565b905092915050565b6131fe81612f93565b811461320957600080fd5b50565b60008135905061321b816131f5565b92915050565b60006020828403121561323757613236612e43565b5b60006132458482850161320c565b91505092915050565b60006020820190506132636000830184613056565b92915050565b6000819050919050565b600061328e61328961328484612e4d565b613269565b612e4d565b9050919050565b60006132a082613273565b9050919050565b60006132b282613295565b9050919050565b6132c2816132a7565b82525050565b60006020820190506132dd60008301846132b9565b92915050565b600080fd5b600080fd5b7f4e487b7100000000000000000000000000000000000000000000000000000000600052604160045260246000fd5b61332582612f27565b810181811067ffffffffffffffff82111715613344576133436132ed565b5b80604052505050565b6000613357612e39565b9050613363828261331c565b919050565b600067ffffffffffffffff821115613383576133826132ed565b5b61338c82612f27565b9050602081019050919050565b82818337600083830152505050565b60006133bb6133b684613368565b61334d565b9050828152602081018484840111156133d7576133d66132e8565b5b6133e2848285613399565b509392505050565b600082601f8301126133ff576133fe6132e3565b5b813561340f8482602086016133a8565b91505092915050565b6000806040838503121561342f5761342e612e43565b5b600061343d85828601612e96565b925050602083013567ffffffffffffffff81111561345e5761345d612e48565b5b61346a858286016133ea565b9150509250929050565b6004811061348157600080fd5b50565b60008135905061349381613474565b92915050565b600080604083850312156134b0576134af612e43565b5b60006134be85828601613014565b92505060206134cf85828601613484565b9150509250929050565b600080604083850312156134f0576134ef612e43565b5b60006134fe85828601612e96565b925050602061350f85828601613014565b9150509250929050565b600080604083850312156135305761352f612e43565b5b600061353e85828601613014565b925050602083013567ffffffffffffffff81111561355f5761355e612e48565b5b61356b858286016133ea565b9150509250929050565b6000806000806080858703121561358f5761358e612e43565b5b600061359d87828801612e96565b94505060206135ae87828801613014565b935050604085013567ffffffffffffffff8111156135cf576135ce612e48565b5b6135db878288016133ea565b925050606085013567ffffffffffffffff8111156135fc576135fb612e48565b5b613608878288016133ea565b91505092959194509250565b600081519050919050565b600082825260208201905092915050565b6000819050602082019050919050565b61364981612fc9565b82525050565b600061365b8383613640565b60208301905092915050565b6000602082019050919050565b600061367f82613614565b613689818561361f565b935061369483613630565b8060005b838110156136c55781516136ac888261364f565b97506136b783613667565b925050600181019050613698565b5085935050505092915050565b600060208201905081810360008301526136ec8184613674565b905092915050565b7f504b49206e6f7420656e61626c65640000000000000000000000000000000000600082015250565b600061372a600f83613070565b9150613735826136f4565b602082019050919050565b600060208201905081810360008301526137598161371d565b9050919050565b600067ffffffffffffffff82111561377b5761377a6132ed565b5b61378482612f27565b9050602081019050919050565b60006137a461379f84613760565b61334d565b9050828152602081018484840111156137c0576137bf6132e8565b5b6137cb848285612ef4565b509392505050565b600082601f8301126137e8576137e76132e3565b5b81516137f8848260208601613791565b91505092915050565b60006020828403121561381757613816612e43565b5b600082015167ffffffffffffffff81111561383557613834612e48565b5b613841848285016137d3565b91505092915050565b7f4f6e6c79206f776e65722063616e2063616c6c20746869732066756e6374696f60008201527f6e00000000000000000000000000000000000000000000000000000000000000602082015250565b60006138a6602183613070565b91506138b18261384a565b604082019050919050565b600060208201905081810360008301526138d581613899565b9050919050565b7f496e76616c696420504b49206164647265737300000000000000000000000000600082015250565b6000613912601383613070565b915061391d826138dc565b602082019050919050565b6000602082019050818103600083015261394181613905565b9050919050565b7f496e76616c6964207472616e73616374696f6e20494400000000000000000000600082015250565b600061397e601683613070565b915061398982613948565b602082019050919050565b600060208201905081810360008301526139ad81613971565b9050919050565b7f4e487b7100000000000000000000000000000000000000000000000000000000600052603260045260246000fd5b7f4e487b7100000000000000000000000000000000000000000000000000000000600052602260045260246000fd5b60006002820490506001821680613a2a57607f821691505b60208210811415613a3e57613a3d6139e3565b5b50919050565b7f4e6f7420617574686f72697a6564000000000000000000000000000000000000600082015250565b6000613a7a600e83613070565b9150613a8582613a44565b602082019050919050565b60006020820190508181036000830152613aa981613a6d565b9050919050565b7f496e76616c696420757365722061646472657373000000000000000000000000600082015250565b6000613ae6601483613070565b9150613af182613ab0565b602082019050919050565b60006020820190508181036000830152613b1581613ad9565b9050919050565b7f416d6f756e74206d7573742062652067726561746572207468616e2030000000600082015250565b6000613b52601d83613070565b9150613b5d82613b1c565b602082019050919050565b60006020820190508181036000830152613b8181613b45565b9050919050565b7f4e487b7100000000000000000000000000000000000000000000000000000000600052601160045260246000fd5b6000613bc282612fc9565b9150613bcd83612fc9565b9250827fffffffffffffffffffffffffffffffffffffffffffffffffffffffffffffffff03821115613c0257613c01613b88565b5b828201905092915050565b6000604082019050613c226000830185612fd3565b8181036020830152613c348184613081565b90509392505050565b6000602082019050613c526000830184613122565b92915050565b600081519050613c67816131f5565b92915050565b600060208284031215613c8357613c82612e43565b5b6000613c9184828501613c58565b91505092915050565b6000604082019050613caf6000830185613056565b613cbc6020830184612fd3565b9392505050565b7f496e73756666696369656e742062616c616e6365000000000000000000000000600082015250565b6000613cf9601483613070565b9150613d0482613cc3565b602082019050919050565b60006020820190508181036000830152613d2881613cec565b9050919050565b7f4b5943206e6f742076616c696400000000000000000000000000000000000000600082015250565b6000613d65600d83613070565b9150613d7082613d2f565b602082019050919050565b60006020820190508181036000830152613d9481613d58565b9050919050565b6000613da682612fc9565b91507fffffffffffffffffffffffffffffffffffffffffffffffffffffffffffffffff821415613dd957613dd8613b88565b5b600182019050919050565b6000613def82612fc9565b9150613dfa83612fc9565b925082821015613e0d57613e0c613b88565b5b828203905092915050565b60008190508160005260206000209050919050565b60008154613e3a81613a12565b613e448186613070565b94506001821660008114613e5f5760018114613e7157613ea4565b60ff1983168652602086019350613ea4565b613e7a85613e18565b60005b83811015613e9c57815481890152600182019150602081019050613e7d565b808801955050505b50505092915050565b7f5749544844524157414c00000000000000000000000000000000000000000000600082015250565b6000613ee3600a83613070565b9150613eee82613ead565b602082019050919050565b600060a082019050613f0e6000830187612fd3565b8181036020830152613f208186613e2d565b90508181036040830152613f3381613ed6565b90508181036060830152613f478185613081565b9050613f566080830184612fd3565b95945050505050565b7f496e76616c696420726563697069656e74206164647265737300000000000000600082015250565b6000613f95601983613070565b9150613fa082613f5f565b602082019050919050565b60006020820190508181036000830152613fc481613f88565b9050919050565b7f43616e6e6f74207472616e7366657220746f20796f757273656c660000000000600082015250565b6000614001601b83613070565b915061400c82613fcb565b602082019050919050565b6000602082019050818103600083015261403081613ff4565b9050919050565b7f5472616e73666572206e6f7420617574686f72697a6564206f7220657863656560008201527f6473206461696c79206c696d6974000000000000000000000000000000000000602082015250565b6000614093602e83613070565b915061409e82614037565b604082019050919050565b600060208201905081810360008301526140c281614086565b9050919050565b600060a0820190506140de6000830188612fd3565b81810360208301526140f08187613e2d565b905081810360408301526141048186613081565b905081810360608301526141188185613081565b90506141276080830184612fd3565b969550505050505056fea264697066735822122090e9e6186dde5cef3cb98c16f05e367e5992d076e56d3be726d57b5a377887de64736f6c634300080a0033",
      "opcodes": "PUSH1 0x80 PUSH1 0x40 MSTORE CALLVALUE DUP1 ISZERO PUSH2 0x10 JUMPI PUSH1 0x0 DUP1 REVERT JUMPDEST POP CALLER PUSH1 0x5 PUSH1 0x0 PUSH2 0x100 EXP DUP2 SLOAD DUP2 PUSH20 0xFFFFFFFFFFFFFFFFFFFFFFFFFFFFFFFFFFFFFFFF MUL NOT AND SWAP1 DUP4 PUSH20 0xFFFFFFFFFFFFFFFFFFFFFFFFFFFFFFFFFFFFFFFF AND MUL OR SWAP1 SSTORE POP PUSH1 0x0 PUSH1 0x7 DUP2 SWAP1 SSTORE POP PUSH1 0x0 DUP1 PUSH1 0x14 PUSH2 0x100 EXP DUP2 SLOAD DUP2 PUSH1 0xFF MUL NOT AND SWAP1 DUP4 ISZERO ISZERO MUL OR SWAP1 SSTORE POP PUSH2 0x4167 DUP1 PUSH2 0x83 PUSH1 0x0 CODECOPY PUSH1 0x0 RETURN INVALID PUSH1 0x80 PUSH1 0x40 MSTORE PUSH1 0x4 CALLDATASIZE LT PUSH2 0x12A JUMPI PUSH1 0x0 CALLDATALOAD PUSH1 0xE0 SHR DUP1 PUSH4 0xA2969820 GT PUSH2 0xAB JUMPI DUP1 PUSH4 0xCF048BED GT PUSH2 0x6F JUMPI DUP1 PUSH4 0xCF048BED EQ PUSH2 0x419 JUMPI DUP1 PUSH4 0xDC048CF2 EQ PUSH2 0x456 JUMPI DUP1 PUSH4 0xE9C02815 EQ PUSH2 0x493 JUMPI DUP1 PUSH4 0xEF925399 EQ PUSH2 0x4D0 JUMPI DUP1 PUSH4 0xF8B2CB4F EQ PUSH2 0x50D JUMPI DUP1 PUSH4 0xF99185C2 EQ PUSH2 0x54A JUMPI PUSH2 0x12A JUMP JUMPDEST DUP1 PUSH4 0xA2969820 EQ PUSH2 0x343 JUMPI DUP1 PUSH4 0xA7B4CE78 EQ PUSH2 0x380 JUMPI DUP1 PUSH4 0xB7482509 EQ PUSH2 0x3AB JUMPI DUP1 PUSH4 0xBAFBF728 EQ PUSH2 0x3C7 JUMPI DUP1 PUSH4 0xC559E45D EQ PUSH2 0x3F0 JUMPI PUSH2 0x12A JUMP JUMPDEST DUP1 PUSH4 0x33EA3DC8 GT PUSH2 0xF2 JUMPI DUP1 PUSH4 0x33EA3DC8 EQ PUSH2 0x228 JUMPI DUP1 PUSH4 0x392C5BD8 EQ PUSH2 0x26D JUMPI DUP1 PUSH4 0x4F480AE2 EQ PUSH2 0x2AA JUMPI DUP1 PUSH4 0x8DA5CB5B EQ PUSH2 0x2D3 JUMPI DUP1 PUSH4 0x9ACE38C2 EQ PUSH2 0x2FE JUMPI PUSH2 0x12A JUMP JUMPDEST DUP1 PUSH4 0x11231FE0 EQ PUSH2 0x12F JUMPI DUP1 PUSH4 0x12715414 EQ PUSH2 0x16C JUMPI DUP1 PUSH4 0x222E1A44 EQ PUSH2 0x197 JUMPI DUP1 PUSH4 0x27E235E3 EQ PUSH2 0x1C0 JUMPI DUP1 PUSH4 0x2E7700F0 EQ PUSH2 0x1FD JUMPI JUMPDEST PUSH1 0x0 DUP1 REVERT JUMPDEST CALLVALUE DUP1 ISZERO PUSH2 0x13B JUMPI PUSH1 0x0 DUP1 REVERT JUMPDEST POP PUSH2 0x156 PUSH1 0x4 DUP1 CALLDATASIZE SUB DUP2 ADD SWAP1 PUSH2 0x151 SWAP2 SWAP1 PUSH2 0x2EAB JUMP JUMPDEST PUSH2 0x587 JUMP JUMPDEST PUSH1 0x40 MLOAD PUSH2 0x163 SWAP2 SWAP1 PUSH2 0x2F71 JUMP JUMPDEST PUSH1 0x40 MLOAD DUP1 SWAP2 SUB SWAP1 RETURN JUMPDEST CALLVALUE DUP1 ISZERO PUSH2 0x178 JUMPI PUSH1 0x0 DUP1 REVERT JUMPDEST POP PUSH2 0x181 PUSH2 0x6D7 JUMP JUMPDEST PUSH1 0x40 MLOAD PUSH2 0x18E SWAP2 SWAP1 PUSH2 0x2FAE JUMP JUMPDEST PUSH1 0x40 MLOAD DUP1 SWAP2 SUB SWAP1 RETURN JUMPDEST CALLVALUE DUP1 ISZERO PUSH2 0x1A3 JUMPI PUSH1 0x0 DUP1 REVERT JUMPDEST POP PUSH2 0x1BE PUSH1 0x4 DUP1 CALLDATASIZE SUB DUP2 ADD SWAP1 PUSH2 0x1B9 SWAP2 SWAP1 PUSH2 0x2EAB JUMP JUMPDEST PUSH2 0x6EA JUMP JUMPDEST STOP JUMPDEST CALLVALUE DUP1 ISZERO PUSH2 0x1CC JUMPI PUSH1 0x0 DUP1 REVERT JUMPDEST POP PUSH2 0x1E7 PUSH1 0x4 DUP1 CALLDATASIZE SUB DUP2 ADD SWAP1 PUSH2 0x1E2 SWAP2 SWAP1 PUSH2 0x2EAB JUMP JUMPDEST PUSH2 0x848 JUMP JUMPDEST PUSH1 0x40 MLOAD PUSH2 0x1F4 SWAP2 SWAP1 PUSH2 0x2FE2 JUMP JUMPDEST PUSH1 0x40 MLOAD DUP1 SWAP2 SUB SWAP1 RETURN JUMPDEST CALLVALUE DUP1 ISZERO PUSH2 0x209 JUMPI PUSH1 0x0 DUP1 REVERT JUMPDEST POP PUSH2 0x212 PUSH2 0x860 JUMP JUMPDEST PUSH1 0x40 MLOAD PUSH2 0x21F SWAP2 SWAP1 PUSH2 0x2FE2 JUMP JUMPDEST PUSH1 0x40 MLOAD DUP1 SWAP2 SUB SWAP1 RETURN JUMPDEST CALLVALUE DUP1 ISZERO PUSH2 0x234 JUMPI PUSH1 0x0 DUP1 REVERT JUMPDEST POP PUSH2 0x24F PUSH1 0x4 DUP1 CALLDATASIZE SUB DUP2 ADD SWAP1 PUSH2 0x24A SWAP2 SWAP1 PUSH2 0x3029 JUMP JUMPDEST PUSH2 0x86D JUMP JUMPDEST PUSH1 0x40 MLOAD PUSH2 0x264 SWAP10 SWAP9 SWAP8 SWAP7 SWAP6 SWAP5 SWAP4 SWAP3 SWAP2 SWAP1 PUSH2 0x3131 JUMP JUMPDEST PUSH1 0x40 MLOAD DUP1 SWAP2 SUB SWAP1 RETURN JUMPDEST CALLVALUE DUP1 ISZERO PUSH2 0x279 JUMPI PUSH1 0x0 DUP1 REVERT JUMPDEST POP PUSH2 0x294 PUSH1 0x4 DUP1 CALLDATASIZE SUB DUP2 ADD SWAP1 PUSH2 0x28F SWAP2 SWAP1 PUSH2 0x2EAB JUMP JUMPDEST PUSH2 0xC20 JUMP JUMPDEST PUSH1 0x40 MLOAD PUSH2 0x2A1 SWAP2 SWAP1 PUSH2 0x31D3 JUMP JUMPDEST PUSH1 0x40 MLOAD DUP1 SWAP2 SUB SWAP1 RETURN JUMPDEST CALLVALUE DUP1 ISZERO PUSH2 0x2B6 JUMPI PUSH1 0x0 DUP1 REVERT JUMPDEST POP PUSH2 0x2D1 PUSH1 0x4 DUP1 CALLDATASIZE SUB DUP2 ADD SWAP1 PUSH2 0x2CC SWAP2 SWAP1 PUSH2 0x3221 JUMP JUMPDEST PUSH2 0xCC0 JUMP JUMPDEST STOP JUMPDEST CALLVALUE DUP1 ISZERO PUSH2 0x2DF JUMPI PUSH1 0x0 DUP1 REVERT JUMPDEST POP PUSH2 0x2E8 PUSH2 0xD6D JUMP JUMPDEST PUSH1 0x40 MLOAD PUSH2 0x2F5 SWAP2 SWAP1 PUSH2 0x324E JUMP JUMPDEST PUSH1 0x40 MLOAD DUP1 SWAP2 SUB SWAP1 RETURN JUMPDEST CALLVALUE DUP1 ISZERO PUSH2 0x30A JUMPI PUSH1 0x0 DUP1 REVERT JUMPDEST POP PUSH2 0x325 PUSH1 0x4 DUP1 CALLDATASIZE SUB DUP2 ADD SWAP1 PUSH2 0x320 SWAP2 SWAP1 PUSH2 0x3029 JUMP JUMPDEST PUSH2 0xD93 JUMP JUMPDEST PUSH1 0x40 MLOAD PUSH2 0x33A SWAP10 SWAP9 SWAP8 SWAP7 SWAP6 SWAP5 SWAP4 SWAP3 SWAP2 SWAP1 PUSH2 0x3131 JUMP JUMPDEST PUSH1 0x40 MLOAD DUP1 SWAP2 SUB SWAP1 RETURN JUMPDEST CALLVALUE DUP1 ISZERO PUSH2 0x34F JUMPI PUSH1 0x0 DUP1 REVERT JUMPDEST POP PUSH2 0x36A PUSH1 0x4 DUP1 CALLDATASIZE SUB DUP2 ADD SWAP1 PUSH2 0x365 SWAP2 SWAP1 PUSH2 0x2EAB JUMP JUMPDEST PUSH2 0xFD6 JUMP JUMPDEST PUSH1 0x40 MLOAD PUSH2 0x377 SWAP2 SWAP1 PUSH2 0x2FAE JUMP JUMPDEST PUSH1 0x40 MLOAD DUP1 SWAP2 SUB SWAP1 RETURN JUMPDEST CALLVALUE DUP1 ISZERO PUSH2 0x38C JUMPI PUSH1 0x0 DUP1 REVERT JUMPDEST POP PUSH2 0x395 PUSH2 0xFF6 JUMP JUMPDEST PUSH1 0x40 MLOAD PUSH2 0x3A2 SWAP2 SWAP1 PUSH2 0x32C8 JUMP JUMPDEST PUSH1 0x40 MLOAD DUP1 SWAP2 SUB SWAP1 RETURN JUMPDEST PUSH2 0x3C5 PUSH1 0x4 DUP1 CALLDATASIZE SUB DUP2 ADD SWAP1 PUSH2 0x3C0 SWAP2 SWAP1 PUSH2 0x3418 JUMP JUMPDEST PUSH2 0x101A JUMP JUMPDEST STOP JUMPDEST CALLVALUE DUP1 ISZERO PUSH2 0x3D3 JUMPI PUSH1 0x0 DUP1 REVERT JUMPDEST POP PUSH2 0x3EE PUSH1 0x4 DUP1 CALLDATASIZE SUB DUP2 ADD SWAP1 PUSH2 0x3E9 SWAP2 SWAP1 PUSH2 0x3499 JUMP JUMPDEST PUSH2 0x133C JUMP JUMPDEST STOP JUMPDEST CALLVALUE DUP1 ISZERO PUSH2 0x3FC JUMPI PUSH1 0x0 DUP1 REVERT JUMPDEST POP PUSH2 0x417 PUSH1 0x4 DUP1 CALLDATASIZE SUB DUP2 ADD SWAP1 PUSH2 0x412 SWAP2 SWAP1 PUSH2 0x3418 JUMP JUMPDEST PUSH2 0x1512 JUMP JUMPDEST STOP JUMPDEST CALLVALUE DUP1 ISZERO PUSH2 0x425 JUMPI PUSH1 0x0 DUP1 REVERT JUMPDEST POP PUSH2 0x440 PUSH1 0x4 DUP1 CALLDATASIZE SUB DUP2 ADD SWAP1 PUSH2 0x43B SWAP2 SWAP1 PUSH2 0x34D9 JUMP JUMPDEST PUSH2 0x1652 JUMP JUMPDEST PUSH1 0x40 MLOAD PUSH2 0x44D SWAP2 SWAP1 PUSH2 0x2FAE JUMP JUMPDEST PUSH1 0x40 MLOAD DUP1 SWAP2 SUB SWAP1 RETURN JUMPDEST CALLVALUE DUP1 ISZERO PUSH2 0x462 JUMPI PUSH1 0x0 DUP1 REVERT JUMPDEST POP PUSH2 0x47D PUSH1 0x4 DUP1 CALLDATASIZE SUB DUP2 ADD SWAP1 PUSH2 0x478 SWAP2 SWAP1 PUSH2 0x3519 JUMP JUMPDEST PUSH2 0x1810 JUMP JUMPDEST PUSH1 0x40 MLOAD PUSH2 0x48A SWAP2 SWAP1 PUSH2 0x2FE2 JUMP JUMPDEST PUSH1 0x40 MLOAD DUP1 SWAP2 SUB SWAP1 RETURN JUMPDEST CALLVALUE DUP1 ISZERO PUSH2 0x49F JUMPI PUSH1 0x0 DUP1 REVERT JUMPDEST POP PUSH2 0x4BA PUSH1 0x4 DUP1 CALLDATASIZE SUB DUP2 ADD SWAP1 PUSH2 0x4B5 SWAP2 SWAP1 PUSH2 0x3575 JUMP JUMPDEST PUSH2 0x1F78 JUMP JUMPDEST PUSH1 0x40 MLOAD PUSH2 0x4C7 SWAP2 SWAP1 PUSH2 0x2FE2 JUMP JUMPDEST PUSH1 0x40 MLOAD DUP1 SWAP2 SUB SWAP1 RETURN JUMPDEST CALLVALUE DUP1 ISZERO PUSH2 0x4DC JUMPI PUSH1 0x0 DUP1 REVERT JUMPDEST POP PUSH2 0x4F7 PUSH1 0x4 DUP1 CALLDATASIZE SUB DUP2 ADD SWAP1 PUSH2 0x4F2 SWAP2 SWAP1 PUSH2 0x2EAB JUMP JUMPDEST PUSH2 0x2A46 JUMP JUMPDEST PUSH1 0x40 MLOAD PUSH2 0x504 SWAP2 SWAP1 PUSH2 0x36D2 JUMP JUMPDEST PUSH1 0x40 MLOAD DUP1 SWAP2 SUB SWAP1 RETURN JUMPDEST CALLVALUE DUP1 ISZERO PUSH2 0x519 JUMPI PUSH1 0x0 DUP1 REVERT JUMPDEST POP PUSH2 0x534 PUSH1 0x4 DUP1 CALLDATASIZE SUB DUP2 ADD SWAP1 PUSH2 0x52F SWAP2 SWAP1 PUSH2 0x2EAB JUMP JUMPDEST PUSH2 0x2D35 JUMP JUMPDEST PUSH1 0x40 MLOAD PUSH2 0x541 SWAP2 SWAP1 PUSH2 0x2FE2 JUMP JUMPDEST PUSH1 0x40 MLOAD DUP1 SWAP2 SUB SWAP1 RETURN JUMPDEST CALLVALUE DUP1 ISZERO PUSH2 0x556 JUMPI PUSH1 0x0 DUP1 REVERT JUMPDEST POP PUSH2 0x571 PUSH1 0x4 DUP1 CALLDATASIZE SUB DUP2 ADD SWAP1 PUSH2 0x56C SWAP2 SWAP1 PUSH2 0x3029 JUMP JUMPDEST PUSH2 0x2D7E JUMP JUMPDEST PUSH1 0x40 MLOAD PUSH2 0x57E SWAP2 SWAP1 PUSH2 0x2FE2 JUMP JUMPDEST PUSH1 0x40 MLOAD DUP1 SWAP2 SUB SWAP1 RETURN JUMPDEST PUSH1 0x60 PUSH1 0x0 PUSH1 0x14 SWAP1 SLOAD SWAP1 PUSH2 0x100 EXP SWAP1 DIV PUSH1 0xFF AND DUP1 ISZERO PUSH2 0x5F2 JUMPI POP PUSH1 0x0 PUSH20 0xFFFFFFFFFFFFFFFFFFFFFFFFFFFFFFFFFFFFFFFF AND PUSH1 0x0 DUP1 SLOAD SWAP1 PUSH2 0x100 EXP SWAP1 DIV PUSH20 0xFFFFFFFFFFFFFFFFFFFFFFFFFFFFFFFFFFFFFFFF AND PUSH20 0xFFFFFFFFFFFFFFFFFFFFFFFFFFFFFFFFFFFFFFFF AND EQ ISZERO JUMPDEST PUSH2 0x631 JUMPI PUSH1 0x40 MLOAD PUSH32 0x8C379A000000000000000000000000000000000000000000000000000000000 DUP2 MSTORE PUSH1 0x4 ADD PUSH2 0x628 SWAP1 PUSH2 0x3740 JUMP JUMPDEST PUSH1 0x40 MLOAD DUP1 SWAP2 SUB SWAP1 REVERT JUMPDEST PUSH1 0x0 DUP1 SLOAD SWAP1 PUSH2 0x100 EXP SWAP1 DIV PUSH20 0xFFFFFFFFFFFFFFFFFFFFFFFFFFFFFFFFFFFFFFFF AND PUSH20 0xFFFFFFFFFFFFFFFFFFFFFFFFFFFFFFFFFFFFFFFF AND PUSH4 0x11231FE0 DUP4 PUSH1 0x40 MLOAD DUP3 PUSH4 0xFFFFFFFF AND PUSH1 0xE0 SHL DUP2 MSTORE PUSH1 0x4 ADD PUSH2 0x68A SWAP2 SWAP1 PUSH2 0x324E JUMP JUMPDEST PUSH1 0x0 PUSH1 0x40 MLOAD DUP1 DUP4 SUB DUP2 DUP7 GAS STATICCALL ISZERO DUP1 ISZERO PUSH2 0x6A7 JUMPI RETURNDATASIZE PUSH1 0x0 DUP1 RETURNDATACOPY RETURNDATASIZE PUSH1 0x0 REVERT JUMPDEST POP POP POP POP PUSH1 0x40 MLOAD RETURNDATASIZE PUSH1 0x0 DUP3 RETURNDATACOPY RETURNDATASIZE PUSH1 0x1F NOT PUSH1 0x1F DUP3 ADD AND DUP3 ADD DUP1 PUSH1 0x40 MSTORE POP DUP2 ADD SWAP1 PUSH2 0x6D0 SWAP2 SWAP1 PUSH2 0x3801 JUMP JUMPDEST SWAP1 POP SWAP2 SWAP1 POP JUMP JUMPDEST PUSH1 0x0 PUSH1 0x14 SWAP1 SLOAD SWAP1 PUSH2 0x100 EXP SWAP1 DIV PUSH1 0xFF AND DUP2 JUMP JUMPDEST PUSH1 0x5 PUSH1 0x0 SWAP1 SLOAD SWAP1 PUSH2 0x100 EXP SWAP1 DIV PUSH20 0xFFFFFFFFFFFFFFFFFFFFFFFFFFFFFFFFFFFFFFFF AND PUSH20 0xFFFFFFFFFFFFFFFFFFFFFFFFFFFFFFFFFFFFFFFF AND CALLER PUSH20 0xFFFFFFFFFFFFFFFFFFFFFFFFFFFFFFFFFFFFFFFF AND EQ PUSH2 0x77A JUMPI PUSH1 0x40 MLOAD PUSH32 0x8C379A000000000000000000000000000000000000000000000000000000000 DUP2 MSTORE PUSH1 0x4 ADD PUSH2 0x771 SWAP1 PUSH2 0x38BC JUMP JUMPDEST PUSH1 0x40 MLOAD DUP1 SWAP2 SUB SWAP1 REVERT JUMPDEST PUSH1 0x0 PUSH20 0xFFFFFFFFFFFFFFFFFFFFFFFFFFFFFFFFFFFFFFFF AND DUP2 PUSH20 0xFFFFFFFFFFFFFFFFFFFFFFFFFFFFFFFFFFFFFFFF AND EQ ISZERO PUSH2 0x7EA JUMPI PUSH1 0x40 MLOAD PUSH32 0x8C379A000000000000000000000000000000000000000000000000000000000 DUP2 MSTORE PUSH1 0x4 ADD PUSH2 0x7E1 SWAP1 PUSH2 0x3928 JUMP JUMPDEST PUSH1 0x40 MLOAD DUP1 SWAP2 SUB SWAP1 REVERT JUMPDEST DUP1 PUSH1 0x0 DUP1 PUSH2 0x100 EXP DUP2 SLOAD DUP2 PUSH20 0xFFFFFFFFFFFFFFFFFFFFFFFFFFFFFFFFFFFFFFFF MUL NOT AND SWAP1 DUP4 PUSH20 0xFFFFFFFFFFFFFFFFFFFFFFFFFFFFFFFFFFFFFFFF AND MUL OR SWAP1 SSTORE POP PUSH1 0x1 PUSH1 0x0 PUSH1 0x14 PUSH2 0x100 EXP DUP2 SLOAD DUP2 PUSH1 0xFF MUL NOT AND SWAP1 DUP4 ISZERO ISZERO MUL OR SWAP1 SSTORE POP POP JUMP JUMPDEST PUSH1 0x1 PUSH1 0x20 MSTORE DUP1 PUSH1 0x0 MSTORE PUSH1 0x40 PUSH1 0x0 KECCAK256 PUSH1 0x0 SWAP2 POP SWAP1 POP SLOAD DUP2 JUMP JUMPDEST PUSH1 0x0 PUSH1 0x3 DUP1 SLOAD SWAP1 POP SWAP1 POP SWAP1 JUMP JUMPDEST PUSH1 0x0 DUP1 PUSH1 0x0 DUP1 PUSH1 0x60 DUP1 PUSH1 0x60 PUSH1 0x0 DUP1 PUSH1 0x0 DUP11 GT DUP1 ISZERO PUSH2 0x88D JUMPI POP PUSH1 0x7 SLOAD DUP11 GT ISZERO JUMPDEST PUSH2 0x8CC JUMPI PUSH1 0x40 MLOAD PUSH32 0x8C379A000000000000000000000000000000000000000000000000000000000 DUP2 MSTORE PUSH1 0x4 ADD PUSH2 0x8C3 SWAP1 PUSH2 0x3994 JUMP JUMPDEST PUSH1 0x40 MLOAD DUP1 SWAP2 SUB SWAP1 REVERT JUMPDEST PUSH1 0x0 PUSH1 0x4 PUSH1 0x0 DUP13 DUP2 MSTORE PUSH1 0x20 ADD SWAP1 DUP2 MSTORE PUSH1 0x20 ADD PUSH1 0x0 KECCAK256 SLOAD SWAP1 POP PUSH1 0x0 PUSH1 0x3 DUP3 DUP2 SLOAD DUP2 LT PUSH2 0x8FA JUMPI PUSH2 0x8F9 PUSH2 0x39B4 JUMP JUMPDEST JUMPDEST SWAP1 PUSH1 0x0 MSTORE PUSH1 0x20 PUSH1 0x0 KECCAK256 SWAP1 PUSH1 0x9 MUL ADD PUSH1 0x40 MLOAD DUP1 PUSH2 0x120 ADD PUSH1 0x40 MSTORE SWAP1 DUP2 PUSH1 0x0 DUP3 ADD SLOAD DUP2 MSTORE PUSH1 0x20 ADD PUSH1 0x1 DUP3 ADD PUSH1 0x0 SWAP1 SLOAD SWAP1 PUSH2 0x100 EXP SWAP1 DIV PUSH20 0xFFFFFFFFFFFFFFFFFFFFFFFFFFFFFFFFFFFFFFFF AND PUSH20 0xFFFFFFFFFFFFFFFFFFFFFFFFFFFFFFFFFFFFFFFF AND PUSH20 0xFFFFFFFFFFFFFFFFFFFFFFFFFFFFFFFFFFFFFFFF AND DUP2 MSTORE PUSH1 0x20 ADD PUSH1 0x2 DUP3 ADD PUSH1 0x0 SWAP1 SLOAD SWAP1 PUSH2 0x100 EXP SWAP1 DIV PUSH20 0xFFFFFFFFFFFFFFFFFFFFFFFFFFFFFFFFFFFFFFFF AND PUSH20 0xFFFFFFFFFFFFFFFFFFFFFFFFFFFFFFFFFFFFFFFF AND PUSH20 0xFFFFFFFFFFFFFFFFFFFFFFFFFFFFFFFFFFFFFFFF AND DUP2 MSTORE PUSH1 0x20 ADD PUSH1 0x3 DUP3 ADD SLOAD DUP2 MSTORE PUSH1 0x20 ADD PUSH1 0x4 DUP3 ADD DUP1 SLOAD PUSH2 0x9E4 SWAP1 PUSH2 0x3A12 JUMP JUMPDEST DUP1 PUSH1 0x1F ADD PUSH1 0x20 DUP1 SWAP2 DIV MUL PUSH1 0x20 ADD PUSH1 0x40 MLOAD SWAP1 DUP2 ADD PUSH1 0x40 MSTORE DUP1 SWAP3 SWAP2 SWAP1 DUP2 DUP2 MSTORE PUSH1 0x20 ADD DUP3 DUP1 SLOAD PUSH2 0xA10 SWAP1 PUSH2 0x3A12 JUMP JUMPDEST DUP1 ISZERO PUSH2 0xA5D JUMPI DUP1 PUSH1 0x1F LT PUSH2 0xA32 JUMPI PUSH2 0x100 DUP1 DUP4 SLOAD DIV MUL DUP4 MSTORE SWAP2 PUSH1 0x20 ADD SWAP2 PUSH2 0xA5D JUMP JUMPDEST DUP3 ADD SWAP2 SWAP1 PUSH1 0x0 MSTORE PUSH1 0x20 PUSH1 0x0 KECCAK256 SWAP1 JUMPDEST DUP2 SLOAD DUP2 MSTORE SWAP1 PUSH1 0x1 ADD SWAP1 PUSH1 0x20 ADD DUP1 DUP4 GT PUSH2 0xA40 JUMPI DUP3 SWAP1 SUB PUSH1 0x1F AND DUP3 ADD SWAP2 JUMPDEST POP POP POP POP POP DUP2 MSTORE PUSH1 0x20 ADD PUSH1 0x5 DUP3 ADD DUP1 SLOAD PUSH2 0xA76 SWAP1 PUSH2 0x3A12 JUMP JUMPDEST DUP1 PUSH1 0x1F ADD PUSH1 0x20 DUP1 SWAP2 DIV MUL PUSH1 0x20 ADD PUSH1 0x40 MLOAD SWAP1 DUP2 ADD PUSH1 0x40 MSTORE DUP1 SWAP3 SWAP2 SWAP1 DUP2 DUP2 MSTORE PUSH1 0x20 ADD DUP3 DUP1 SLOAD PUSH2 0xAA2 SWAP1 PUSH2 0x3A12 JUMP JUMPDEST DUP1 ISZERO PUSH2 0xAEF JUMPI DUP1 PUSH1 0x1F LT PUSH2 0xAC4 JUMPI PUSH2 0x100 DUP1 DUP4 SLOAD DIV MUL DUP4 MSTORE SWAP2 PUSH1 0x20 ADD SWAP2 PUSH2 0xAEF JUMP JUMPDEST DUP3 ADD SWAP2 SWAP1 PUSH1 0x0 MSTORE PUSH1 0x20 PUSH1 0x0 KECCAK256 SWAP1 JUMPDEST DUP2 SLOAD DUP2 MSTORE SWAP1 PUSH1 0x1 ADD SWAP1 PUSH1 0x20 ADD DUP1 DUP4 GT PUSH2 0xAD2 JUMPI DUP3 SWAP1 SUB PUSH1 0x1F AND DUP3 ADD SWAP2 JUMPDEST POP POP POP POP POP DUP2 MSTORE PUSH1 0x20 ADD PUSH1 0x6 DUP3 ADD DUP1 SLOAD PUSH2 0xB08 SWAP1 PUSH2 0x3A12 JUMP JUMPDEST DUP1 PUSH1 0x1F ADD PUSH1 0x20 DUP1 SWAP2 DIV MUL PUSH1 0x20 ADD PUSH1 0x40 MLOAD SWAP1 DUP2 ADD PUSH1 0x40 MSTORE DUP1 SWAP3 SWAP2 SWAP1 DUP2 DUP2 MSTORE PUSH1 0x20 ADD DUP3 DUP1 SLOAD PUSH2 0xB34 SWAP1 PUSH2 0x3A12 JUMP JUMPDEST DUP1 ISZERO PUSH2 0xB81 JUMPI DUP1 PUSH1 0x1F LT PUSH2 0xB56 JUMPI PUSH2 0x100 DUP1 DUP4 SLOAD DIV MUL DUP4 MSTORE SWAP2 PUSH1 0x20 ADD SWAP2 PUSH2 0xB81 JUMP JUMPDEST DUP3 ADD SWAP2 SWAP1 PUSH1 0x0 MSTORE PUSH1 0x20 PUSH1 0x0 KECCAK256 SWAP1 JUMPDEST DUP2 SLOAD DUP2 MSTORE SWAP1 PUSH1 0x1 ADD SWAP1 PUSH1 0x20 ADD DUP1 DUP4 GT PUSH2 0xB64 JUMPI DUP3 SWAP1 SUB PUSH1 0x1F AND DUP3 ADD SWAP2 JUMPDEST POP POP POP POP POP DUP2 MSTORE PUSH1 0x20 ADD PUSH1 0x7 DUP3 ADD SLOAD DUP2 MSTORE PUSH1 0x20 ADD PUSH1 0x8 DUP3 ADD PUSH1 0x0 SWAP1 SLOAD SWAP1 PUSH2 0x100 EXP SWAP1 DIV PUSH1 0xFF AND PUSH1 0x3 DUP2 GT ISZERO PUSH2 0xBB9 JUMPI PUSH2 0xBB8 PUSH2 0x30BA JUMP JUMPDEST JUMPDEST PUSH1 0x3 DUP2 GT ISZERO PUSH2 0xBCB JUMPI PUSH2 0xBCA PUSH2 0x30BA JUMP JUMPDEST JUMPDEST DUP2 MSTORE POP POP SWAP1 POP DUP1 PUSH1 0x0 ADD MLOAD DUP2 PUSH1 0x20 ADD MLOAD DUP3 PUSH1 0x40 ADD MLOAD DUP4 PUSH1 0x60 ADD MLOAD DUP5 PUSH1 0x80 ADD MLOAD DUP6 PUSH1 0xA0 ADD MLOAD DUP7 PUSH1 0xC0 ADD MLOAD DUP8 PUSH1 0xE0 ADD MLOAD DUP9 PUSH2 0x100 ADD MLOAD SWAP11 POP SWAP11 POP SWAP11 POP SWAP11 POP SWAP11 POP SWAP11 POP SWAP11 POP SWAP11 POP SWAP11 POP POP POP SWAP2 SWAP4 SWAP6 SWAP8 SWAP10 SWAP1 SWAP3 SWAP5 SWAP7 SWAP9 POP JUMP JUMPDEST PUSH1 0x2 PUSH1 0x20 MSTORE DUP1 PUSH1 0x0 MSTORE PUSH1 0x40 PUSH1 0x0 KECCAK256 PUSH1 0x0 SWAP2 POP SWAP1 POP DUP1 SLOAD PUSH2 0xC3F SWAP1 PUSH2 0x3A12 JUMP JUMPDEST DUP1 PUSH1 0x1F ADD PUSH1 0x20 DUP1 SWAP2 DIV MUL PUSH1 0x20 ADD PUSH1 0x40 MLOAD SWAP1 DUP2 ADD PUSH1 0x40 MSTORE DUP1 SWAP3 SWAP2 SWAP1 DUP2 DUP2 MSTORE PUSH1 0x20 ADD DUP3 DUP1 SLOAD PUSH2 0xC6B SWAP1 PUSH2 0x3A12 JUMP JUMPDEST DUP1 ISZERO PUSH2 0xCB8 JUMPI DUP1 PUSH1 0x1F LT PUSH2 0xC8D JUMPI PUSH2 0x100 DUP1 DUP4 SLOAD DIV MUL DUP4 MSTORE SWAP2 PUSH1 0x20 ADD SWAP2 PUSH2 0xCB8 JUMP JUMPDEST DUP3 ADD SWAP2 SWAP1 PUSH1 0x0 MSTORE PUSH1 0x20 PUSH1 0x0 KECCAK256 SWAP1 JUMPDEST DUP2 SLOAD DUP2 MSTORE SWAP1 PUSH1 0x1 ADD SWAP1 PUSH1 0x20 ADD DUP1 DUP4 GT PUSH2 0xC9B JUMPI DUP3 SWAP1 SUB PUSH1 0x1F AND DUP3 ADD SWAP2 JUMPDEST POP POP POP POP POP DUP2 JUMP JUMPDEST PUSH1 0x5 PUSH1 0x0 SWAP1 SLOAD SWAP1 PUSH2 0x100 EXP SWAP1 DIV PUSH20 0xFFFFFFFFFFFFFFFFFFFFFFFFFFFFFFFFFFFFFFFF AND PUSH20 0xFFFFFFFFFFFFFFFFFFFFFFFFFFFFFFFFFFFFFFFF AND CALLER PUSH20 0xFFFFFFFFFFFFFFFFFFFFFFFFFFFFFFFFFFFFFFFF AND EQ PUSH2 0xD50 JUMPI PUSH1 0x40 MLOAD PUSH32 0x8C379A000000000000000000000000000000000000000000000000000000000 DUP2 MSTORE PUSH1 0x4 ADD PUSH2 0xD47 SWAP1 PUSH2 0x38BC JUMP JUMPDEST PUSH1 0x40 MLOAD DUP1 SWAP2 SUB SWAP1 REVERT JUMPDEST DUP1 PUSH1 0x0 PUSH1 0x14 PUSH2 0x100 EXP DUP2 SLOAD DUP2 PUSH1 0xFF MUL NOT AND SWAP1 DUP4 ISZERO ISZERO MUL OR SWAP1 SSTORE POP POP JUMP JUMPDEST PUSH1 0x5 PUSH1 0x0 SWAP1 SLOAD SWAP1 PUSH2 0x100 EXP SWAP1 DIV PUSH20 0xFFFFFFFFFFFFFFFFFFFFFFFFFFFFFFFFFFFFFFFF AND DUP2 JUMP JUMPDEST PUSH1 0x3 DUP2 DUP2 SLOAD DUP2 LT PUSH2 0xDA3 JUMPI PUSH1 0x0 DUP1 REVERT JUMPDEST SWAP1 PUSH1 0x0 MSTORE PUSH1 0x20 PUSH1 0x0 KECCAK256 SWAP1 PUSH1 0x9 MUL ADD PUSH1 0x0 SWAP2 POP SWAP1 POP DUP1 PUSH1 0x0 ADD SLOAD SWAP1 DUP1 PUSH1 0x1 ADD PUSH1 0x0 SWAP1 SLOAD SWAP1 PUSH2 0x100 EXP SWAP1 DIV PUSH20 0xFFFFFFFFFFFFFFFFFFFFFFFFFFFFFFFFFFFFFFFF AND SWAP1 DUP1 PUSH1 0x2 ADD PUSH1 0x0 SWAP1 SLOAD SWAP1 PUSH2 0x100 EXP SWAP1 DIV PUSH20 0xFFFFFFFFFFFFFFFFFFFFFFFFFFFFFFFFFFFFFFFF AND SWAP1 DUP1 PUSH1 0x3 ADD SLOAD SWAP1 DUP1 PUSH1 0x4 ADD DUP1 SLOAD PUSH2 0xE1E SWAP1 PUSH2 0x3A12 JUMP JUMPDEST DUP1 PUSH1 0x1F ADD PUSH1 0x20 DUP1 SWAP2 DIV MUL PUSH1 0x20 ADD PUSH1 0x40 MLOAD SWAP1 DUP2 ADD PUSH1 0x40 MSTORE DUP1 SWAP3 SWAP2 SWAP1 DUP2 DUP2 MSTORE PUSH1 0x20 ADD DUP3 DUP1 SLOAD PUSH2 0xE4A SWAP1 PUSH2 0x3A12 JUMP JUMPDEST DUP1 ISZERO PUSH2 0xE97 JUMPI DUP1 PUSH1 0x1F LT PUSH2 0xE6C JUMPI PUSH2 0x100 DUP1 DUP4 SLOAD DIV MUL DUP4 MSTORE SWAP2 PUSH1 0x20 ADD SWAP2 PUSH2 0xE97 JUMP JUMPDEST DUP3 ADD SWAP2 SWAP1 PUSH1 0x0 MSTORE PUSH1 0x20 PUSH1 0x0 KECCAK256 SWAP1 JUMPDEST DUP2 SLOAD DUP2 MSTORE SWAP1 PUSH1 0x1 ADD SWAP1 PUSH1 0x20 ADD DUP1 DUP4 GT PUSH2 0xE7A JUMPI DUP3 SWAP1 SUB PUSH1 0x1F AND DUP3 ADD SWAP2 JUMPDEST POP POP POP POP POP SWAP1 DUP1 PUSH1 0x5 ADD DUP1 SLOAD PUSH2 0xEAC SWAP1 PUSH2 0x3A12 JUMP JUMPDEST DUP1 PUSH1 0x1F ADD PUSH1 0x20 DUP1 SWAP2 DIV MUL PUSH1 0x20 ADD PUSH1 0x40 MLOAD SWAP1 DUP2 ADD PUSH1 0x40 MSTORE DUP1 SWAP3 SWAP2 SWAP1 DUP2 DUP2 MSTORE PUSH1 0x20 ADD DUP3 DUP1 SLOAD PUSH2 0xED8 SWAP1 PUSH2 0x3A12 JUMP JUMPDEST DUP1 ISZERO PUSH2 0xF25 JUMPI DUP1 PUSH1 0x1F LT PUSH2 0xEFA JUMPI PUSH2 0x100 DUP1 DUP4 SLOAD DIV MUL DUP4 MSTORE SWAP2 PUSH1 0x20 ADD SWAP2 PUSH2 0xF25 JUMP JUMPDEST DUP3 ADD SWAP2 SWAP1 PUSH1 0x0 MSTORE PUSH1 0x20 PUSH1 0x0 KECCAK256 SWAP1 JUMPDEST DUP2 SLOAD DUP2 MSTORE SWAP1 PUSH1 0x1 ADD SWAP1 PUSH1 0x20 ADD DUP1 DUP4 GT PUSH2 0xF08 JUMPI DUP3 SWAP1 SUB PUSH1 0x1F AND DUP3 ADD SWAP2 JUMPDEST POP POP POP POP POP SWAP1 DUP1 PUSH1 0x6 ADD DUP1 SLOAD PUSH2 0xF3A SWAP1 PUSH2 0x3A12 JUMP JUMPDEST DUP1 PUSH1 0x1F ADD PUSH1 0x20 DUP1 SWAP2 DIV MUL PUSH1 0x20 ADD PUSH1 0x40 MLOAD SWAP1 DUP2 ADD PUSH1 0x40 MSTORE DUP1 SWAP3 SWAP2 SWAP1 DUP2 DUP2 MSTORE PUSH1 0x20 ADD DUP3 DUP1 SLOAD PUSH2 0xF66 SWAP1 PUSH2 0x3A12 JUMP JUMPDEST DUP1 ISZERO PUSH2 0xFB3 JUMPI DUP1 PUSH1 0x1F LT PUSH2 0xF88 JUMPI PUSH2 0x100 DUP1 DUP4 SLOAD DIV MUL DUP4 MSTORE SWAP2 PUSH1 0x20 ADD SWAP2 PUSH2 0xFB3 JUMP JUMPDEST DUP3 ADD SWAP2 SWAP1 PUSH1 0x0 MSTORE PUSH1 0x20 PUSH1 0x0 KECCAK256 SWAP1 JUMPDEST DUP2 SLOAD DUP2 MSTORE SWAP1 PUSH1 0x1 ADD SWAP1 PUSH1 0x20 ADD DUP1 DUP4 GT PUSH2 0xF96 JUMPI DUP3 SWAP1 SUB PUSH1 0x1F AND DUP3 ADD SWAP2 JUMPDEST POP POP POP POP POP SWAP1 DUP1 PUSH1 0x7 ADD SLOAD SWAP1 DUP1 PUSH1 0x8 ADD PUSH1 0x0 SWAP1 SLOAD SWAP1 PUSH2 0x100 EXP SWAP1 DIV PUSH1 0xFF AND SWAP1 POP DUP10 JUMP JUMPDEST PUSH1 0x6 PUSH1 0x20 MSTORE DUP1 PUSH1 0x0 MSTORE PUSH1 0x40 PUSH1 0x0 KECCAK256 PUSH1 0x0 SWAP2 POP SLOAD SWAP1 PUSH2 0x100 EXP SWAP1 DIV PUSH1 0xFF AND DUP2 JUMP JUMPDEST PUSH1 0x0 DUP1 SLOAD SWAP1 PUSH2 0x100 EXP SWAP1 DIV PUSH20 0xFFFFFFFFFFFFFFFFFFFFFFFFFFFFFFFFFFFFFFFF AND DUP2 JUMP JUMPDEST PUSH1 0x6 PUSH1 0x0 CALLER PUSH20 0xFFFFFFFFFFFFFFFFFFFFFFFFFFFFFFFFFFFFFFFF AND PUSH20 0xFFFFFFFFFFFFFFFFFFFFFFFFFFFFFFFFFFFFFFFF AND DUP2 MSTORE PUSH1 0x20 ADD SWAP1 DUP2 MSTORE PUSH1 0x20 ADD PUSH1 0x0 KECCAK256 PUSH1 0x0 SWAP1 SLOAD SWAP1 PUSH2 0x100 EXP SWAP1 DIV PUSH1 0xFF AND DUP1 PUSH2 0x10BF JUMPI POP PUSH1 0x5 PUSH1 0x0 SWAP1 SLOAD SWAP1 PUSH2 0x100 EXP SWAP1 DIV PUSH20 0xFFFFFFFFFFFFFFFFFFFFFFFFFFFFFFFFFFFFFFFF AND PUSH20 0xFFFFFFFFFFFFFFFFFFFFFFFFFFFFFFFFFFFFFFFF AND CALLER PUSH20 0xFFFFFFFFFFFFFFFFFFFFFFFFFFFFFFFFFFFFFFFF AND EQ JUMPDEST PUSH2 0x10FE JUMPI PUSH1 0x40 MLOAD PUSH32 0x8C379A000000000000000000000000000000000000000000000000000000000 DUP2 MSTORE PUSH1 0x4 ADD PUSH2 0x10F5 SWAP1 PUSH2 0x3A90 JUMP JUMPDEST PUSH1 0x40 MLOAD DUP1 SWAP2 SUB SWAP1 REVERT JUMPDEST PUSH1 0x0 PUSH20 0xFFFFFFFFFFFFFFFFFFFFFFFFFFFFFFFFFFFFFFFF AND DUP3 PUSH20 0xFFFFFFFFFFFFFFFFFFFFFFFFFFFFFFFFFFFFFFFF AND EQ ISZERO PUSH2 0x116E JUMPI PUSH1 0x40 MLOAD PUSH32 0x8C379A000000000000000000000000000000000000000000000000000000000 DUP2 MSTORE PUSH1 0x4 ADD PUSH2 0x1165 SWAP1 PUSH2 0x3AFC JUMP JUMPDEST PUSH1 0x40 MLOAD DUP1 SWAP2 SUB SWAP1 REVERT JUMPDEST PUSH1 0x0 CALLVALUE GT PUSH2 0x11B1 JUMPI PUSH1 0x40 MLOAD PUSH32 0x8C379A000000000000000000000000000000000000000000000000000000000 DUP2 MSTORE PUSH1 0x4 ADD PUSH2 0x11A8 SWAP1 PUSH2 0x3B68 JUMP JUMPDEST PUSH1 0x40 MLOAD DUP1 SWAP2 SUB SWAP1 REVERT JUMPDEST CALLVALUE PUSH1 0x1 PUSH1 0x0 DUP5 PUSH20 0xFFFFFFFFFFFFFFFFFFFFFFFFFFFFFFFFFFFFFFFF AND PUSH20 0xFFFFFFFFFFFFFFFFFFFFFFFFFFFFFFFFFFFFFFFF AND DUP2 MSTORE PUSH1 0x20 ADD SWAP1 DUP2 MSTORE PUSH1 0x20 ADD PUSH1 0x0 KECCAK256 PUSH1 0x0 DUP3 DUP3 SLOAD PUSH2 0x1200 SWAP2 SWAP1 PUSH2 0x3BB7 JUMP JUMPDEST SWAP3 POP POP DUP2 SWAP1 SSTORE POP DUP1 PUSH1 0x2 PUSH1 0x0 DUP5 PUSH20 0xFFFFFFFFFFFFFFFFFFFFFFFFFFFFFFFFFFFFFFFF AND PUSH20 0xFFFFFFFFFFFFFFFFFFFFFFFFFFFFFFFFFFFFFFFF AND DUP2 MSTORE PUSH1 0x20 ADD SWAP1 DUP2 MSTORE PUSH1 0x20 ADD PUSH1 0x0 KECCAK256 SWAP1 DUP1 MLOAD SWAP1 PUSH1 0x20 ADD SWAP1 PUSH2 0x125A SWAP3 SWAP2 SWAP1 PUSH2 0x2D96 JUMP JUMPDEST POP DUP2 PUSH20 0xFFFFFFFFFFFFFFFFFFFFFFFFFFFFFFFFFFFFFFFF AND PUSH32 0x643E927B32D5BFD08ECCD2FCBD97057AD413850F857A2359639114E8E8DD3D7B CALLVALUE DUP4 PUSH1 0x40 MLOAD PUSH2 0x12A3 SWAP3 SWAP2 SWAP1 PUSH2 0x3C0D JUMP JUMPDEST PUSH1 0x40 MLOAD DUP1 SWAP2 SUB SWAP1 LOG2 DUP2 PUSH20 0xFFFFFFFFFFFFFFFFFFFFFFFFFFFFFFFFFFFFFFFF AND PUSH32 0x8AD64A0AC7700DD8425AB0499F107CB6E2CD1581D803C5B8C1C79DCB8190B1AF PUSH1 0x1 PUSH1 0x0 DUP6 PUSH20 0xFFFFFFFFFFFFFFFFFFFFFFFFFFFFFFFFFFFFFFFF AND PUSH20 0xFFFFFFFFFFFFFFFFFFFFFFFFFFFFFFFFFFFFFFFF AND DUP2 MSTORE PUSH1 0x20 ADD SWAP1 DUP2 MSTORE PUSH1 0x20 ADD PUSH1 0x0 KECCAK256 SLOAD PUSH1 0x40 MLOAD PUSH2 0x1330 SWAP2 SWAP1 PUSH2 0x2FE2 JUMP JUMPDEST PUSH1 0x40 MLOAD DUP1 SWAP2 SUB SWAP1 LOG2 POP POP JUMP JUMPDEST PUSH1 0x6 PUSH1 0x0 CALLER PUSH20 0xFFFFFFFFFFFFFFFFFFFFFFFFFFFFFFFFFFFFFFFF AND PUSH20 0xFFFFFFFFFFFFFFFFFFFFFFFFFFFFFFFFFFFFFFFF AND DUP2 MSTORE PUSH1 0x20 ADD SWAP1 DUP2 MSTORE PUSH1 0x20 ADD PUSH1 0x0 KECCAK256 PUSH1 0x0 SWAP1 SLOAD SWAP1 PUSH2 0x100 EXP SWAP1 DIV PUSH1 0xFF AND DUP1 PUSH2 0x13E1 JUMPI POP PUSH1 0x5 PUSH1 0x0 SWAP1 SLOAD SWAP1 PUSH2 0x100 EXP SWAP1 DIV PUSH20 0xFFFFFFFFFFFFFFFFFFFFFFFFFFFFFFFFFFFFFFFF AND PUSH20 0xFFFFFFFFFFFFFFFFFFFFFFFFFFFFFFFFFFFFFFFF AND CALLER PUSH20 0xFFFFFFFFFFFFFFFFFFFFFFFFFFFFFFFFFFFFFFFF AND EQ JUMPDEST PUSH2 0x1420 JUMPI PUSH1 0x40 MLOAD PUSH32 0x8C379A000000000000000000000000000000000000000000000000000000000 DUP2 MSTORE PUSH1 0x4 ADD PUSH2 0x1417 SWAP1 PUSH2 0x3A90 JUMP JUMPDEST PUSH1 0x40 MLOAD DUP1 SWAP2 SUB SWAP1 REVERT JUMPDEST PUSH1 0x0 DUP3 GT DUP1 ISZERO PUSH2 0x1432 JUMPI POP PUSH1 0x7 SLOAD DUP3 GT ISZERO JUMPDEST PUSH2 0x1471 JUMPI PUSH1 0x40 MLOAD PUSH32 0x8C379A000000000000000000000000000000000000000000000000000000000 DUP2 MSTORE PUSH1 0x4 ADD PUSH2 0x1468 SWAP1 PUSH2 0x3994 JUMP JUMPDEST PUSH1 0x40 MLOAD DUP1 SWAP2 SUB SWAP1 REVERT JUMPDEST PUSH1 0x0 PUSH1 0x4 PUSH1 0x0 DUP5 DUP2 MSTORE PUSH1 0x20 ADD SWAP1 DUP2 MSTORE PUSH1 0x20 ADD PUSH1 0x0 KECCAK256 SLOAD SWAP1 POP DUP2 PUSH1 0x3 DUP3 DUP2 SLOAD DUP2 LT PUSH2 0x149E JUMPI PUSH2 0x149D PUSH2 0x39B4 JUMP JUMPDEST JUMPDEST SWAP1 PUSH1 0x0 MSTORE PUSH1 0x20 PUSH1 0x0 KECCAK256 SWAP1 PUSH1 0x9 MUL ADD PUSH1 0x8 ADD PUSH1 0x0 PUSH2 0x100 EXP DUP2 SLOAD DUP2 PUSH1 0xFF MUL NOT AND SWAP1 DUP4 PUSH1 0x3 DUP2 GT ISZERO PUSH2 0x14D1 JUMPI PUSH2 0x14D0 PUSH2 0x30BA JUMP JUMPDEST JUMPDEST MUL OR SWAP1 SSTORE POP DUP3 PUSH31 0x3013893708BD175BC8EEEDD6EA1E367024BBC9BC7B110E7ED37BC77ACEAC57 DUP4 PUSH1 0x40 MLOAD PUSH2 0x1505 SWAP2 SWAP1 PUSH2 0x3C3D JUMP JUMPDEST PUSH1 0x40 MLOAD DUP1 SWAP2 SUB SWAP1 LOG2 POP POP POP JUMP JUMPDEST PUSH1 0x5 PUSH1 0x0 SWAP1 SLOAD SWAP1 PUSH2 0x100 EXP SWAP1 DIV PUSH20 0xFFFFFFFFFFFFFFFFFFFFFFFFFFFFFFFFFFFFFFFF AND PUSH20 0xFFFFFFFFFFFFFFFFFFFFFFFFFFFFFFFFFFFFFFFF AND CALLER PUSH20 0xFFFFFFFFFFFFFFFFFFFFFFFFFFFFFFFFFFFFFFFF AND EQ PUSH2 0x15A2 JUMPI PUSH1 0x40 MLOAD PUSH32 0x8C379A000000000000000000000000000000000000000000000000000000000 DUP2 MSTORE PUSH1 0x4 ADD PUSH2 0x1599 SWAP1 PUSH2 0x38BC JUMP JUMPDEST PUSH1 0x40 MLOAD DUP1 SWAP2 SUB SWAP1 REVERT JUMPDEST PUSH1 0x1 PUSH1 0x6 PUSH1 0x0 DUP5 PUSH20 0xFFFFFFFFFFFFFFFFFFFFFFFFFFFFFFFFFFFFFFFF AND PUSH20 0xFFFFFFFFFFFFFFFFFFFFFFFFFFFFFFFFFFFFFFFF AND DUP2 MSTORE PUSH1 0x20 ADD SWAP1 DUP2 MSTORE PUSH1 0x20 ADD PUSH1 0x0 KECCAK256 PUSH1 0x0 PUSH2 0x100 EXP DUP2 SLOAD DUP2 PUSH1 0xFF MUL NOT AND SWAP1 DUP4 ISZERO ISZERO MUL OR SWAP1 SSTORE POP DUP1 PUSH1 0x2 PUSH1 0x0 DUP5 PUSH20 0xFFFFFFFFFFFFFFFFFFFFFFFFFFFFFFFFFFFFFFFF AND PUSH20 0xFFFFFFFFFFFFFFFFFFFFFFFFFFFFFFFFFFFFFFFF AND DUP2 MSTORE PUSH1 0x20 ADD SWAP1 DUP2 MSTORE PUSH1 0x20 ADD PUSH1 0x0 KECCAK256 SWAP1 DUP1 MLOAD SWAP1 PUSH1 0x20 ADD SWAP1 PUSH2 0x164D SWAP3 SWAP2 SWAP1 PUSH2 0x2D96 JUMP JUMPDEST POP POP POP JUMP JUMPDEST PUSH1 0x0 DUP1 PUSH1 0x14 SWAP1 SLOAD SWAP1 PUSH2 0x100 EXP SWAP1 DIV PUSH1 0xFF AND ISZERO DUP1 PUSH2 0x16BB JUMPI POP PUSH1 0x0 PUSH20 0xFFFFFFFFFFFFFFFFFFFFFFFFFFFFFFFFFFFFFFFF AND PUSH1 0x0 DUP1 SLOAD SWAP1 PUSH2 0x100 EXP SWAP1 DIV PUSH20 0xFFFFFFFFFFFFFFFFFFFFFFFFFFFFFFFFFFFFFFFF AND PUSH20 0xFFFFFFFFFFFFFFFFFFFFFFFFFFFFFFFFFFFFFFFF AND EQ JUMPDEST ISZERO PUSH2 0x16C9 JUMPI PUSH1 0x1 SWAP1 POP PUSH2 0x180A JUMP JUMPDEST PUSH1 0x0 DUP1 SLOAD SWAP1 PUSH2 0x100 EXP SWAP1 DIV PUSH20 0xFFFFFFFFFFFFFFFFFFFFFFFFFFFFFFFFFFFFFFFF AND PUSH20 0xFFFFFFFFFFFFFFFFFFFFFFFFFFFFFFFFFFFFFFFF AND PUSH4 0xCF0E0F9D DUP5 PUSH1 0x40 MLOAD DUP3 PUSH4 0xFFFFFFFF AND PUSH1 0xE0 SHL DUP2 MSTORE PUSH1 0x4 ADD PUSH2 0x1722 SWAP2 SWAP1 PUSH2 0x324E JUMP JUMPDEST PUSH1 0x20 PUSH1 0x40 MLOAD DUP1 DUP4 SUB DUP2 DUP7 GAS STATICCALL ISZERO DUP1 ISZERO PUSH2 0x173F JUMPI RETURNDATASIZE PUSH1 0x0 DUP1 RETURNDATACOPY RETURNDATASIZE PUSH1 0x0 REVERT JUMPDEST POP POP POP POP PUSH1 0x40 MLOAD RETURNDATASIZE PUSH1 0x1F NOT PUSH1 0x1F DUP3 ADD AND DUP3 ADD DUP1 PUSH1 0x40 MSTORE POP DUP2 ADD SWAP1 PUSH2 0x1763 SWAP2 SWAP1 PUSH2 0x3C6D JUMP JUMPDEST DUP1 ISZERO PUSH2 0x1807 JUMPI POP PUSH1 0x0 DUP1 SLOAD SWAP1 PUSH2 0x100 EXP SWAP1 DIV PUSH20 0xFFFFFFFFFFFFFFFFFFFFFFFFFFFFFFFFFFFFFFFF AND PUSH20 0xFFFFFFFFFFFFFFFFFFFFFFFFFFFFFFFFFFFFFFFF AND PUSH4 0x76031448 DUP5 DUP5 PUSH1 0x40 MLOAD DUP4 PUSH4 0xFFFFFFFF AND PUSH1 0xE0 SHL DUP2 MSTORE PUSH1 0x4 ADD PUSH2 0x17C5 SWAP3 SWAP2 SWAP1 PUSH2 0x3C9A JUMP JUMPDEST PUSH1 0x20 PUSH1 0x40 MLOAD DUP1 DUP4 SUB DUP2 DUP7 GAS STATICCALL ISZERO DUP1 ISZERO PUSH2 0x17E2 JUMPI RETURNDATASIZE PUSH1 0x0 DUP1 RETURNDATACOPY RETURNDATASIZE PUSH1 0x0 REVERT JUMPDEST POP POP POP POP PUSH1 0x40 MLOAD RETURNDATASIZE PUSH1 0x1F NOT PUSH1 0x1F DUP3 ADD AND DUP3 ADD DUP1 PUSH1 0x40 MSTORE POP DUP2 ADD SWAP1 PUSH2 0x1806 SWAP2 SWAP1 PUSH2 0x3C6D JUMP JUMPDEST JUMPDEST SWAP1 POP JUMPDEST SWAP3 SWAP2 POP POP JUMP JUMPDEST PUSH1 0x0 DUP1 DUP4 GT PUSH2 0x1854 JUMPI PUSH1 0x40 MLOAD PUSH32 0x8C379A000000000000000000000000000000000000000000000000000000000 DUP2 MSTORE PUSH1 0x4 ADD PUSH2 0x184B SWAP1 PUSH2 0x3B68 JUMP JUMPDEST PUSH1 0x40 MLOAD DUP1 SWAP2 SUB SWAP1 REVERT JUMPDEST DUP3 PUSH1 0x1 PUSH1 0x0 CALLER PUSH20 0xFFFFFFFFFFFFFFFFFFFFFFFFFFFFFFFFFFFFFFFF AND PUSH20 0xFFFFFFFFFFFFFFFFFFFFFFFFFFFFFFFFFFFFFFFF AND DUP2 MSTORE PUSH1 0x20 ADD SWAP1 DUP2 MSTORE PUSH1 0x20 ADD PUSH1 0x0 KECCAK256 SLOAD LT ISZERO PUSH2 0x18D6 JUMPI PUSH1 0x40 MLOAD PUSH32 0x8C379A000000000000000000000000000000000000000000000000000000000 DUP2 MSTORE PUSH1 0x4 ADD PUSH2 0x18CD SWAP1 PUSH2 0x3D0F JUMP JUMPDEST PUSH1 0x40 MLOAD DUP1 SWAP2 SUB SWAP1 REVERT JUMPDEST PUSH1 0x0 PUSH1 0x14 SWAP1 SLOAD SWAP1 PUSH2 0x100 EXP SWAP1 DIV PUSH1 0xFF AND DUP1 ISZERO PUSH2 0x193F JUMPI POP PUSH1 0x0 PUSH20 0xFFFFFFFFFFFFFFFFFFFFFFFFFFFFFFFFFFFFFFFF AND PUSH1 0x0 DUP1 SLOAD SWAP1 PUSH2 0x100 EXP SWAP1 DIV PUSH20 0xFFFFFFFFFFFFFFFFFFFFFFFFFFFFFFFFFFFFFFFF AND PUSH20 0xFFFFFFFFFFFFFFFFFFFFFFFFFFFFFFFFFFFFFFFF AND EQ ISZERO JUMPDEST ISZERO PUSH2 0x1A1E JUMPI PUSH1 0x0 DUP1 SLOAD SWAP1 PUSH2 0x100 EXP SWAP1 DIV PUSH20 0xFFFFFFFFFFFFFFFFFFFFFFFFFFFFFFFFFFFFFFFF AND PUSH20 0xFFFFFFFFFFFFFFFFFFFFFFFFFFFFFFFFFFFFFFFF AND PUSH4 0xCF0E0F9D CALLER PUSH1 0x40 MLOAD DUP3 PUSH4 0xFFFFFFFF AND PUSH1 0xE0 SHL DUP2 MSTORE PUSH1 0x4 ADD PUSH2 0x199D SWAP2 SWAP1 PUSH2 0x324E JUMP JUMPDEST PUSH1 0x20 PUSH1 0x40 MLOAD DUP1 DUP4 SUB DUP2 DUP7 GAS STATICCALL ISZERO DUP1 ISZERO PUSH2 0x19BA JUMPI RETURNDATASIZE PUSH1 0x0 DUP1 RETURNDATACOPY RETURNDATASIZE PUSH1 0x0 REVERT JUMPDEST POP POP POP POP PUSH1 0x40 MLOAD RETURNDATASIZE PUSH1 0x1F NOT PUSH1 0x1F DUP3 ADD AND DUP3 ADD DUP1 PUSH1 0x40 MSTORE POP DUP2 ADD SWAP1 PUSH2 0x19DE SWAP2 SWAP1 PUSH2 0x3C6D JUMP JUMPDEST PUSH2 0x1A1D JUMPI PUSH1 0x40 MLOAD PUSH32 0x8C379A000000000000000000000000000000000000000000000000000000000 DUP2 MSTORE PUSH1 0x4 ADD PUSH2 0x1A14 SWAP1 PUSH2 0x3D7B JUMP JUMPDEST PUSH1 0x40 MLOAD DUP1 SWAP2 SUB SWAP1 REVERT JUMPDEST JUMPDEST PUSH1 0x7 PUSH1 0x0 DUP2 SLOAD DUP1 SWAP3 SWAP2 SWAP1 PUSH2 0x1A31 SWAP1 PUSH2 0x3D9B JUMP JUMPDEST SWAP2 SWAP1 POP SSTORE POP PUSH1 0x0 PUSH1 0x7 SLOAD SWAP1 POP PUSH1 0x0 PUSH1 0x40 MLOAD DUP1 PUSH2 0x120 ADD PUSH1 0x40 MSTORE DUP1 DUP4 DUP2 MSTORE PUSH1 0x20 ADD CALLER PUSH20 0xFFFFFFFFFFFFFFFFFFFFFFFFFFFFFFFFFFFFFFFF AND DUP2 MSTORE PUSH1 0x20 ADD PUSH1 0x0 PUSH20 0xFFFFFFFFFFFFFFFFFFFFFFFFFFFFFFFFFFFFFFFF AND DUP2 MSTORE PUSH1 0x20 ADD DUP7 DUP2 MSTORE PUSH1 0x20 ADD PUSH1 0x2 PUSH1 0x0 CALLER PUSH20 0xFFFFFFFFFFFFFFFFFFFFFFFFFFFFFFFFFFFFFFFF AND PUSH20 0xFFFFFFFFFFFFFFFFFFFFFFFFFFFFFFFFFFFFFFFF AND DUP2 MSTORE PUSH1 0x20 ADD SWAP1 DUP2 MSTORE PUSH1 0x20 ADD PUSH1 0x0 KECCAK256 DUP1 SLOAD PUSH2 0x1ADA SWAP1 PUSH2 0x3A12 JUMP JUMPDEST DUP1 PUSH1 0x1F ADD PUSH1 0x20 DUP1 SWAP2 DIV MUL PUSH1 0x20 ADD PUSH1 0x40 MLOAD SWAP1 DUP2 ADD PUSH1 0x40 MSTORE DUP1 SWAP3 SWAP2 SWAP1 DUP2 DUP2 MSTORE PUSH1 0x20 ADD DUP3 DUP1 SLOAD PUSH2 0x1B06 SWAP1 PUSH2 0x3A12 JUMP JUMPDEST DUP1 ISZERO PUSH2 0x1B53 JUMPI DUP1 PUSH1 0x1F LT PUSH2 0x1B28 JUMPI PUSH2 0x100 DUP1 DUP4 SLOAD DIV MUL DUP4 MSTORE SWAP2 PUSH1 0x20 ADD SWAP2 PUSH2 0x1B53 JUMP JUMPDEST DUP3 ADD SWAP2 SWAP1 PUSH1 0x0 MSTORE PUSH1 0x20 PUSH1 0x0 KECCAK256 SWAP1 JUMPDEST DUP2 SLOAD DUP2 MSTORE SWAP1 PUSH1 0x1 ADD SWAP1 PUSH1 0x20 ADD DUP1 DUP4 GT PUSH2 0x1B36 JUMPI DUP3 SWAP1 SUB PUSH1 0x1F AND DUP3 ADD SWAP2 JUMPDEST POP POP POP POP POP DUP2 MSTORE PUSH1 0x20 ADD PUSH1 0x40 MLOAD DUP1 PUSH1 0x40 ADD PUSH1 0x40 MSTORE DUP1 PUSH1 0xA DUP2 MSTORE PUSH1 0x20 ADD PUSH32 0x5749544844524157414C00000000000000000000000000000000000000000000 DUP2 MSTORE POP DUP2 MSTORE PUSH1 0x20 ADD DUP6 DUP2 MSTORE PUSH1 0x20 ADD TIMESTAMP DUP2 MSTORE PUSH1 0x20 ADD PUSH1 0x0 PUSH1 0x3 DUP2 GT ISZERO PUSH2 0x1BB8 JUMPI PUSH2 0x1BB7 PUSH2 0x30BA JUMP JUMPDEST JUMPDEST DUP2 MSTORE POP SWAP1 POP PUSH1 0x3 DUP2 SWAP1 DUP1 PUSH1 0x1 DUP2 SLOAD ADD DUP1 DUP3 SSTORE DUP1 SWAP2 POP POP PUSH1 0x1 SWAP1 SUB SWAP1 PUSH1 0x0 MSTORE PUSH1 0x20 PUSH1 0x0 KECCAK256 SWAP1 PUSH1 0x9 MUL ADD PUSH1 0x0 SWAP1 SWAP2 SWAP1 SWAP2 SWAP1 SWAP2 POP PUSH1 0x0 DUP3 ADD MLOAD DUP2 PUSH1 0x0 ADD SSTORE PUSH1 0x20 DUP3 ADD MLOAD DUP2 PUSH1 0x1 ADD PUSH1 0x0 PUSH2 0x100 EXP DUP2 SLOAD DUP2 PUSH20 0xFFFFFFFFFFFFFFFFFFFFFFFFFFFFFFFFFFFFFFFF MUL NOT AND SWAP1 DUP4 PUSH20 0xFFFFFFFFFFFFFFFFFFFFFFFFFFFFFFFFFFFFFFFF AND MUL OR SWAP1 SSTORE POP PUSH1 0x40 DUP3 ADD MLOAD DUP2 PUSH1 0x2 ADD PUSH1 0x0 PUSH2 0x100 EXP DUP2 SLOAD DUP2 PUSH20 0xFFFFFFFFFFFFFFFFFFFFFFFFFFFFFFFFFFFFFFFF MUL NOT AND SWAP1 DUP4 PUSH20 0xFFFFFFFFFFFFFFFFFFFFFFFFFFFFFFFFFFFFFFFF AND MUL OR SWAP1 SSTORE POP PUSH1 0x60 DUP3 ADD MLOAD DUP2 PUSH1 0x3 ADD SSTORE PUSH1 0x80 DUP3 ADD MLOAD DUP2 PUSH1 0x4 ADD SWAP1 DUP1 MLOAD SWAP1 PUSH1 0x20 ADD SWAP1 PUSH2 0x1CA7 SWAP3 SWAP2 SWAP1 PUSH2 0x2D96 JUMP JUMPDEST POP PUSH1 0xA0 DUP3 ADD MLOAD DUP2 PUSH1 0x5 ADD SWAP1 DUP1 MLOAD SWAP1 PUSH1 0x20 ADD SWAP1 PUSH2 0x1CC4 SWAP3 SWAP2 SWAP1 PUSH2 0x2D96 JUMP JUMPDEST POP PUSH1 0xC0 DUP3 ADD MLOAD DUP2 PUSH1 0x6 ADD SWAP1 DUP1 MLOAD SWAP1 PUSH1 0x20 ADD SWAP1 PUSH2 0x1CE1 SWAP3 SWAP2 SWAP1 PUSH2 0x2D96 JUMP JUMPDEST POP PUSH1 0xE0 DUP3 ADD MLOAD DUP2 PUSH1 0x7 ADD SSTORE PUSH2 0x100 DUP3 ADD MLOAD DUP2 PUSH1 0x8 ADD PUSH1 0x0 PUSH2 0x100 EXP DUP2 SLOAD DUP2 PUSH1 0xFF MUL NOT AND SWAP1 DUP4 PUSH1 0x3 DUP2 GT ISZERO PUSH2 0x1D18 JUMPI PUSH2 0x1D17 PUSH2 0x30BA JUMP JUMPDEST JUMPDEST MUL OR SWAP1 SSTORE POP POP POP PUSH1 0x1 PUSH1 0x3 DUP1 SLOAD SWAP1 POP PUSH2 0x1D31 SWAP2 SWAP1 PUSH2 0x3DE4 JUMP JUMPDEST PUSH1 0x4 PUSH1 0x0 DUP5 DUP2 MSTORE PUSH1 0x20 ADD SWAP1 DUP2 MSTORE PUSH1 0x20 ADD PUSH1 0x0 KECCAK256 DUP2 SWAP1 SSTORE POP DUP5 PUSH1 0x1 PUSH1 0x0 CALLER PUSH20 0xFFFFFFFFFFFFFFFFFFFFFFFFFFFFFFFFFFFFFFFF AND PUSH20 0xFFFFFFFFFFFFFFFFFFFFFFFFFFFFFFFFFFFFFFFF AND DUP2 MSTORE PUSH1 0x20 ADD SWAP1 DUP2 MSTORE PUSH1 0x20 ADD PUSH1 0x0 KECCAK256 PUSH1 0x0 DUP3 DUP3 SLOAD PUSH2 0x1D97 SWAP2 SWAP1 PUSH2 0x3DE4 JUMP JUMPDEST SWAP3 POP POP DUP2 SWAP1 SSTORE POP PUSH1 0x2 PUSH1 0x3 PUSH1 0x1 PUSH1 0x3 DUP1 SLOAD SWAP1 POP PUSH2 0x1DB4 SWAP2 SWAP1 PUSH2 0x3DE4 JUMP JUMPDEST DUP2 SLOAD DUP2 LT PUSH2 0x1DC5 JUMPI PUSH2 0x1DC4 PUSH2 0x39B4 JUMP JUMPDEST JUMPDEST SWAP1 PUSH1 0x0 MSTORE PUSH1 0x20 PUSH1 0x0 KECCAK256 SWAP1 PUSH1 0x9 MUL ADD PUSH1 0x8 ADD PUSH1 0x0 PUSH2 0x100 EXP DUP2 SLOAD DUP2 PUSH1 0xFF MUL NOT AND SWAP1 DUP4 PUSH1 0x3 DUP2 GT ISZERO PUSH2 0x1DF8 JUMPI PUSH2 0x1DF7 PUSH2 0x30BA JUMP JUMPDEST JUMPDEST MUL OR SWAP1 SSTORE POP PUSH1 0x0 PUSH20 0xFFFFFFFFFFFFFFFFFFFFFFFFFFFFFFFFFFFFFFFF AND CALLER PUSH20 0xFFFFFFFFFFFFFFFFFFFFFFFFFFFFFFFFFFFFFFFF AND DUP4 PUSH32 0x82E8134A6A3A6586EAB71827E213B1A1F6C8B261024ADBECF466EEB0240BB916 DUP9 PUSH1 0x2 PUSH1 0x0 CALLER PUSH20 0xFFFFFFFFFFFFFFFFFFFFFFFFFFFFFFFFFFFFFFFF AND PUSH20 0xFFFFFFFFFFFFFFFFFFFFFFFFFFFFFFFFFFFFFFFF AND DUP2 MSTORE PUSH1 0x20 ADD SWAP1 DUP2 MSTORE PUSH1 0x20 ADD PUSH1 0x0 KECCAK256 DUP10 TIMESTAMP PUSH1 0x40 MLOAD PUSH2 0x1EA0 SWAP5 SWAP4 SWAP3 SWAP2 SWAP1 PUSH2 0x3EF9 JUMP JUMPDEST PUSH1 0x40 MLOAD DUP1 SWAP2 SUB SWAP1 LOG4 DUP2 PUSH31 0x3013893708BD175BC8EEEDD6EA1E367024BBC9BC7B110E7ED37BC77ACEAC57 PUSH1 0x2 PUSH1 0x40 MLOAD PUSH2 0x1ED8 SWAP2 SWAP1 PUSH2 0x3C3D JUMP JUMPDEST PUSH1 0x40 MLOAD DUP1 SWAP2 SUB SWAP1 LOG2 CALLER PUSH20 0xFFFFFFFFFFFFFFFFFFFFFFFFFFFFFFFFFFFFFFFF AND PUSH32 0x8AD64A0AC7700DD8425AB0499F107CB6E2CD1581D803C5B8C1C79DCB8190B1AF PUSH1 0x1 PUSH1 0x0 CALLER PUSH20 0xFFFFFFFFFFFFFFFFFFFFFFFFFFFFFFFFFFFFFFFF AND PUSH20 0xFFFFFFFFFFFFFFFFFFFFFFFFFFFFFFFFFFFFFFFF AND DUP2 MSTORE PUSH1 0x20 ADD SWAP1 DUP2 MSTORE PUSH1 0x20 ADD PUSH1 0x0 KECCAK256 SLOAD PUSH1 0x40 MLOAD PUSH2 0x1F65 SWAP2 SWAP1 PUSH2 0x2FE2 JUMP JUMPDEST PUSH1 0x40 MLOAD DUP1 SWAP2 SUB SWAP1 LOG2 DUP2 SWAP3 POP POP POP SWAP3 SWAP2 POP POP JUMP JUMPDEST PUSH1 0x0 DUP1 PUSH20 0xFFFFFFFFFFFFFFFFFFFFFFFFFFFFFFFFFFFFFFFF AND DUP6 PUSH20 0xFFFFFFFFFFFFFFFFFFFFFFFFFFFFFFFFFFFFFFFF AND EQ ISZERO PUSH2 0x1FE9 JUMPI PUSH1 0x40 MLOAD PUSH32 0x8C379A000000000000000000000000000000000000000000000000000000000 DUP2 MSTORE PUSH1 0x4 ADD PUSH2 0x1FE0 SWAP1 PUSH2 0x3FAB JUMP JUMPDEST PUSH1 0x40 MLOAD DUP1 SWAP2 SUB SWAP1 REVERT JUMPDEST PUSH1 0x0 DUP5 GT PUSH2 0x202C JUMPI PUSH1 0x40 MLOAD PUSH32 0x8C379A000000000000000000000000000000000000000000000000000000000 DUP2 MSTORE PUSH1 0x4 ADD PUSH2 0x2023 SWAP1 PUSH2 0x3B68 JUMP JUMPDEST PUSH1 0x40 MLOAD DUP1 SWAP2 SUB SWAP1 REVERT JUMPDEST DUP4 PUSH1 0x1 PUSH1 0x0 CALLER PUSH20 0xFFFFFFFFFFFFFFFFFFFFFFFFFFFFFFFFFFFFFFFF AND PUSH20 0xFFFFFFFFFFFFFFFFFFFFFFFFFFFFFFFFFFFFFFFF AND DUP2 MSTORE PUSH1 0x20 ADD SWAP1 DUP2 MSTORE PUSH1 0x20 ADD PUSH1 0x0 KECCAK256 SLOAD LT ISZERO PUSH2 0x20AE JUMPI PUSH1 0x40 MLOAD PUSH32 0x8C379A000000000000000000000000000000000000000000000000000000000 DUP2 MSTORE PUSH1 0x4 ADD PUSH2 0x20A5 SWAP1 PUSH2 0x3D0F JUMP JUMPDEST PUSH1 0x40 MLOAD DUP1 SWAP2 SUB SWAP1 REVERT JUMPDEST DUP5 PUSH20 0xFFFFFFFFFFFFFFFFFFFFFFFFFFFFFFFFFFFFFFFF AND CALLER PUSH20 0xFFFFFFFFFFFFFFFFFFFFFFFFFFFFFFFFFFFFFFFF AND EQ ISZERO PUSH2 0x211D JUMPI PUSH1 0x40 MLOAD PUSH32 0x8C379A000000000000000000000000000000000000000000000000000000000 DUP2 MSTORE PUSH1 0x4 ADD PUSH2 0x2114 SWAP1 PUSH2 0x4017 JUMP JUMPDEST PUSH1 0x40 MLOAD DUP1 SWAP2 SUB SWAP1 REVERT JUMPDEST PUSH1 0x0 PUSH1 0x14 SWAP1 SLOAD SWAP1 PUSH2 0x100 EXP SWAP1 DIV PUSH1 0xFF AND DUP1 ISZERO PUSH2 0x2186 JUMPI POP PUSH1 0x0 PUSH20 0xFFFFFFFFFFFFFFFFFFFFFFFFFFFFFFFFFFFFFFFF AND PUSH1 0x0 DUP1 SLOAD SWAP1 PUSH2 0x100 EXP SWAP1 DIV PUSH20 0xFFFFFFFFFFFFFFFFFFFFFFFFFFFFFFFFFFFFFFFF AND PUSH20 0xFFFFFFFFFFFFFFFFFFFFFFFFFFFFFFFFFFFFFFFF AND EQ ISZERO JUMPDEST ISZERO PUSH2 0x2340 JUMPI PUSH1 0x0 DUP1 SLOAD SWAP1 PUSH2 0x100 EXP SWAP1 DIV PUSH20 0xFFFFFFFFFFFFFFFFFFFFFFFFFFFFFFFFFFFFFFFF AND PUSH20 0xFFFFFFFFFFFFFFFFFFFFFFFFFFFFFFFFFFFFFFFF AND PUSH4 0xCF0E0F9D CALLER PUSH1 0x40 MLOAD DUP3 PUSH4 0xFFFFFFFF AND PUSH1 0xE0 SHL DUP2 MSTORE PUSH1 0x4 ADD PUSH2 0x21E4 SWAP2 SWAP1 PUSH2 0x324E JUMP JUMPDEST PUSH1 0x20 PUSH1 0x40 MLOAD DUP1 DUP4 SUB DUP2 DUP7 GAS STATICCALL ISZERO DUP1 ISZERO PUSH2 0x2201 JUMPI RETURNDATASIZE PUSH1 0x0 DUP1 RETURNDATACOPY RETURNDATASIZE PUSH1 0x0 REVERT JUMPDEST POP POP POP POP PUSH1 0x40 MLOAD RETURNDATASIZE PUSH1 0x1F NOT PUSH1 0x1F DUP3 ADD AND DUP3 ADD DUP1 PUSH1 0x40 MSTORE POP DUP2 ADD SWAP1 PUSH2 0x2225 SWAP2 SWAP1 PUSH2 0x3C6D JUMP JUMPDEST PUSH2 0x2264 JUMPI PUSH1 0x40 MLOAD PUSH32 0x8C379A000000000000000000000000000000000000000000000000000000000 DUP2 MSTORE PUSH1 0x4 ADD PUSH2 0x225B SWAP1 PUSH2 0x3D7B JUMP JUMPDEST PUSH1 0x40 MLOAD DUP1 SWAP2 SUB SWAP1 REVERT JUMPDEST PUSH1 0x0 DUP1 SLOAD SWAP1 PUSH2 0x100 EXP SWAP1 DIV PUSH20 0xFFFFFFFFFFFFFFFFFFFFFFFFFFFFFFFFFFFFFFFF AND PUSH20 0xFFFFFFFFFFFFFFFFFFFFFFFFFFFFFFFFFFFFFFFF AND PUSH4 0x76031448 CALLER DUP7 PUSH1 0x40 MLOAD DUP4 PUSH4 0xFFFFFFFF AND PUSH1 0xE0 SHL DUP2 MSTORE PUSH1 0x4 ADD PUSH2 0x22BF SWAP3 SWAP2 SWAP1 PUSH2 0x3C9A JUMP JUMPDEST PUSH1 0x20 PUSH1 0x40 MLOAD DUP1 DUP4 SUB DUP2 DUP7 GAS STATICCALL ISZERO DUP1 ISZERO PUSH2 0x22DC JUMPI RETURNDATASIZE PUSH1 0x0 DUP1 RETURNDATACOPY RETURNDATASIZE PUSH1 0x0 REVERT JUMPDEST POP POP POP POP PUSH1 0x40 MLOAD RETURNDATASIZE PUSH1 0x1F NOT PUSH1 0x1F DUP3 ADD AND DUP3 ADD DUP1 PUSH1 0x40 MSTORE POP DUP2 ADD SWAP1 PUSH2 0x2300 SWAP2 SWAP1 PUSH2 0x3C6D JUMP JUMPDEST PUSH2 0x233F JUMPI PUSH1 0x40 MLOAD PUSH32 0x8C379A000000000000000000000000000000000000000000000000000000000 DUP2 MSTORE PUSH1 0x4 ADD PUSH2 0x2336 SWAP1 PUSH2 0x40A9 JUMP JUMPDEST PUSH1 0x40 MLOAD DUP1 SWAP2 SUB SWAP1 REVERT JUMPDEST JUMPDEST PUSH1 0x7 PUSH1 0x0 DUP2 SLOAD DUP1 SWAP3 SWAP2 SWAP1 PUSH2 0x2353 SWAP1 PUSH2 0x3D9B JUMP JUMPDEST SWAP2 SWAP1 POP SSTORE POP PUSH1 0x0 PUSH1 0x7 SLOAD SWAP1 POP PUSH1 0x0 PUSH1 0x40 MLOAD DUP1 PUSH2 0x120 ADD PUSH1 0x40 MSTORE DUP1 DUP4 DUP2 MSTORE PUSH1 0x20 ADD CALLER PUSH20 0xFFFFFFFFFFFFFFFFFFFFFFFFFFFFFFFFFFFFFFFF AND DUP2 MSTORE PUSH1 0x20 ADD DUP9 PUSH20 0xFFFFFFFFFFFFFFFFFFFFFFFFFFFFFFFFFFFFFFFF AND DUP2 MSTORE PUSH1 0x20 ADD DUP8 DUP2 MSTORE PUSH1 0x20 ADD PUSH1 0x2 PUSH1 0x0 CALLER PUSH20 0xFFFFFFFFFFFFFFFFFFFFFFFFFFFFFFFFFFFFFFFF AND PUSH20 0xFFFFFFFFFFFFFFFFFFFFFFFFFFFFFFFFFFFFFFFF AND DUP2 MSTORE PUSH1 0x20 ADD SWAP1 DUP2 MSTORE PUSH1 0x20 ADD PUSH1 0x0 KECCAK256 DUP1 SLOAD PUSH2 0x23FB SWAP1 PUSH2 0x3A12 JUMP JUMPDEST DUP1 PUSH1 0x1F ADD PUSH1 0x20 DUP1 SWAP2 DIV MUL PUSH1 0x20 ADD PUSH1 0x40 MLOAD SWAP1 DUP2 ADD PUSH1 0x40 MSTORE DUP1 SWAP3 SWAP2 SWAP1 DUP2 DUP2 MSTORE PUSH1 0x20 ADD DUP3 DUP1 SLOAD PUSH2 0x2427 SWAP1 PUSH2 0x3A12 JUMP JUMPDEST DUP1 ISZERO PUSH2 0x2474 JUMPI DUP1 PUSH1 0x1F LT PUSH2 0x2449 JUMPI PUSH2 0x100 DUP1 DUP4 SLOAD DIV MUL DUP4 MSTORE SWAP2 PUSH1 0x20 ADD SWAP2 PUSH2 0x2474 JUMP JUMPDEST DUP3 ADD SWAP2 SWAP1 PUSH1 0x0 MSTORE PUSH1 0x20 PUSH1 0x0 KECCAK256 SWAP1 JUMPDEST DUP2 SLOAD DUP2 MSTORE SWAP1 PUSH1 0x1 ADD SWAP1 PUSH1 0x20 ADD DUP1 DUP4 GT PUSH2 0x2457 JUMPI DUP3 SWAP1 SUB PUSH1 0x1F AND DUP3 ADD SWAP2 JUMPDEST POP POP POP POP POP DUP2 MSTORE PUSH1 0x20 ADD DUP7 DUP2 MSTORE PUSH1 0x20 ADD DUP6 DUP2 MSTORE PUSH1 0x20 ADD TIMESTAMP DUP2 MSTORE PUSH1 0x20 ADD PUSH1 0x0 PUSH1 0x3 DUP2 GT ISZERO PUSH2 0x24A4 JUMPI PUSH2 0x24A3 PUSH2 0x30BA JUMP JUMPDEST JUMPDEST DUP2 MSTORE POP SWAP1 POP PUSH1 0x3 DUP2 SWAP1 DUP1 PUSH1 0x1 DUP2 SLOAD ADD DUP1 DUP3 SSTORE DUP1 SWAP2 POP POP PUSH1 0x1 SWAP1 SUB SWAP1 PUSH1 0x0 MSTORE PUSH1 0x20 PUSH1 0x0 KECCAK256 SWAP1 PUSH1 0x9 MUL ADD PUSH1 0x0 SWAP1 SWAP2 SWAP1 SWAP2 SWAP1 SWAP2 POP PUSH1 0x0 DUP3 ADD MLOAD DUP2 PUSH1 0x0 ADD SSTORE PUSH1 0x20 DUP3 ADD MLOAD DUP2 PUSH1 0x1 ADD PUSH1 0x0 PUSH2 0x100 EXP DUP2 SLOAD DUP2 PUSH20 0xFFFFFFFFFFFFFFFFFFFFFFFFFFFFFFFFFFFFFFFF MUL NOT AND SWAP1 DUP4 PUSH20 0xFFFFFFFFFFFFFFFFFFFFFFFFFFFFFFFFFFFFFFFF AND MUL OR SWAP1 SSTORE POP PUSH1 0x40 DUP3 ADD MLOAD DUP2 PUSH1 0x2 ADD PUSH1 0x0 PUSH2 0x100 EXP DUP2 SLOAD DUP2 PUSH20 0xFFFFFFFFFFFFFFFFFFFFFFFFFFFFFFFFFFFFFFFF MUL NOT AND SWAP1 DUP4 PUSH20 0xFFFFFFFFFFFFFFFFFFFFFFFFFFFFFFFFFFFFFFFF AND MUL OR SWAP1 SSTORE POP PUSH1 0x60 DUP3 ADD MLOAD DUP2 PUSH1 0x3 ADD SSTORE PUSH1 0x80 DUP3 ADD MLOAD DUP2 PUSH1 0x4 ADD SWAP1 DUP1 MLOAD SWAP1 PUSH1 0x20 ADD SWAP1 PUSH2 0x2593 SWAP3 SWAP2 SWAP1 PUSH2 0x2D96 JUMP JUMPDEST POP PUSH1 0xA0 DUP3 ADD MLOAD DUP2 PUSH1 0x5 ADD SWAP1 DUP1 MLOAD SWAP1 PUSH1 0x20 ADD SWAP1 PUSH2 0x25B0 SWAP3 SWAP2 SWAP1 PUSH2 0x2D96 JUMP JUMPDEST POP PUSH1 0xC0 DUP3 ADD MLOAD DUP2 PUSH1 0x6 ADD SWAP1 DUP1 MLOAD SWAP1 PUSH1 0x20 ADD SWAP1 PUSH2 0x25CD SWAP3 SWAP2 SWAP1 PUSH2 0x2D96 JUMP JUMPDEST POP PUSH1 0xE0 DUP3 ADD MLOAD DUP2 PUSH1 0x7 ADD SSTORE PUSH2 0x100 DUP3 ADD MLOAD DUP2 PUSH1 0x8 ADD PUSH1 0x0 PUSH2 0x100 EXP DUP2 SLOAD DUP2 PUSH1 0xFF MUL NOT AND SWAP1 DUP4 PUSH1 0x3 DUP2 GT ISZERO PUSH2 0x2604 JUMPI PUSH2 0x2603 PUSH2 0x30BA JUMP JUMPDEST JUMPDEST MUL OR SWAP1 SSTORE POP POP POP PUSH1 0x1 PUSH1 0x3 DUP1 SLOAD SWAP1 POP PUSH2 0x261D SWAP2 SWAP1 PUSH2 0x3DE4 JUMP JUMPDEST PUSH1 0x4 PUSH1 0x0 DUP5 DUP2 MSTORE PUSH1 0x20 ADD SWAP1 DUP2 MSTORE PUSH1 0x20 ADD PUSH1 0x0 KECCAK256 DUP2 SWAP1 SSTORE POP DUP6 PUSH1 0x1 PUSH1 0x0 CALLER PUSH20 0xFFFFFFFFFFFFFFFFFFFFFFFFFFFFFFFFFFFFFFFF AND PUSH20 0xFFFFFFFFFFFFFFFFFFFFFFFFFFFFFFFFFFFFFFFF AND DUP2 MSTORE PUSH1 0x20 ADD SWAP1 DUP2 MSTORE PUSH1 0x20 ADD PUSH1 0x0 KECCAK256 PUSH1 0x0 DUP3 DUP3 SLOAD PUSH2 0x2683 SWAP2 SWAP1 PUSH2 0x3DE4 JUMP JUMPDEST SWAP3 POP POP DUP2 SWAP1 SSTORE POP DUP6 PUSH1 0x1 PUSH1 0x0 DUP10 PUSH20 0xFFFFFFFFFFFFFFFFFFFFFFFFFFFFFFFFFFFFFFFF AND PUSH20 0xFFFFFFFFFFFFFFFFFFFFFFFFFFFFFFFFFFFFFFFF AND DUP2 MSTORE PUSH1 0x20 ADD SWAP1 DUP2 MSTORE PUSH1 0x20 ADD PUSH1 0x0 KECCAK256 PUSH1 0x0 DUP3 DUP3 SLOAD PUSH2 0x26D9 SWAP2 SWAP1 PUSH2 0x3BB7 JUMP JUMPDEST SWAP3 POP POP DUP2 SWAP1 SSTORE POP PUSH1 0x2 PUSH1 0x3 PUSH1 0x1 PUSH1 0x3 DUP1 SLOAD SWAP1 POP PUSH2 0x26F6 SWAP2 SWAP1 PUSH2 0x3DE4 JUMP JUMPDEST DUP2 SLOAD DUP2 LT PUSH2 0x2707 JUMPI PUSH2 0x2706 PUSH2 0x39B4 JUMP JUMPDEST JUMPDEST SWAP1 PUSH1 0x0 MSTORE PUSH1 0x20 PUSH1 0x0 KECCAK256 SWAP1 PUSH1 0x9 MUL ADD PUSH1 0x8 ADD PUSH1 0x0 PUSH2 0x100 EXP DUP2 SLOAD DUP2 PUSH1 0xFF MUL NOT AND SWAP1 DUP4 PUSH1 0x3 DUP2 GT ISZERO PUSH2 0x273A JUMPI PUSH2 0x2739 PUSH2 0x30BA JUMP JUMPDEST JUMPDEST MUL OR SWAP1 SSTORE POP DUP7 PUSH20 0xFFFFFFFFFFFFFFFFFFFFFFFFFFFFFFFFFFFFFFFF AND CALLER PUSH20 0xFFFFFFFFFFFFFFFFFFFFFFFFFFFFFFFFFFFFFFFF AND DUP4 PUSH32 0x82E8134A6A3A6586EAB71827E213B1A1F6C8B261024ADBECF466EEB0240BB916 DUP10 PUSH1 0x2 PUSH1 0x0 CALLER PUSH20 0xFFFFFFFFFFFFFFFFFFFFFFFFFFFFFFFFFFFFFFFF AND PUSH20 0xFFFFFFFFFFFFFFFFFFFFFFFFFFFFFFFFFFFFFFFF AND DUP2 MSTORE PUSH1 0x20 ADD SWAP1 DUP2 MSTORE PUSH1 0x20 ADD PUSH1 0x0 KECCAK256 DUP11 DUP11 TIMESTAMP PUSH1 0x40 MLOAD PUSH2 0x27E3 SWAP6 SWAP5 SWAP4 SWAP3 SWAP2 SWAP1 PUSH2 0x40C9 JUMP JUMPDEST PUSH1 0x40 MLOAD DUP1 SWAP2 SUB SWAP1 LOG4 DUP2 PUSH31 0x3013893708BD175BC8EEEDD6EA1E367024BBC9BC7B110E7ED37BC77ACEAC57 PUSH1 0x2 PUSH1 0x40 MLOAD PUSH2 0x281B SWAP2 SWAP1 PUSH2 0x3C3D JUMP JUMPDEST PUSH1 0x40 MLOAD DUP1 SWAP2 SUB SWAP1 LOG2 CALLER PUSH20 0xFFFFFFFFFFFFFFFFFFFFFFFFFFFFFFFFFFFFFFFF AND PUSH32 0x8AD64A0AC7700DD8425AB0499F107CB6E2CD1581D803C5B8C1C79DCB8190B1AF PUSH1 0x1 PUSH1 0x0 CALLER PUSH20 0xFFFFFFFFFFFFFFFFFFFFFFFFFFFFFFFFFFFFFFFF AND PUSH20 0xFFFFFFFFFFFFFFFFFFFFFFFFFFFFFFFFFFFFFFFF AND DUP2 MSTORE PUSH1 0x20 ADD SWAP1 DUP2 MSTORE PUSH1 0x20 ADD PUSH1 0x0 KECCAK256 SLOAD PUSH1 0x40 MLOAD PUSH2 0x28A8 SWAP2 SWAP1 PUSH2 0x2FE2 JUMP JUMPDEST PUSH1 0x40 MLOAD DUP1 SWAP2 SUB SWAP1 LOG2 DUP7 PUSH20 0xFFFFFFFFFFFFFFFFFFFFFFFFFFFFFFFFFFFFFFFF AND PUSH32 0x8AD64A0AC7700DD8425AB0499F107CB6E2CD1581D803C5B8C1C79DCB8190B1AF PUSH1 0x1 PUSH1 0x0 DUP11 PUSH20 0xFFFFFFFFFFFFFFFFFFFFFFFFFFFFFFFFFFFFFFFF AND PUSH20 0xFFFFFFFFFFFFFFFFFFFFFFFFFFFFFFFFFFFFFFFF AND DUP2 MSTORE PUSH1 0x20 ADD SWAP1 DUP2 MSTORE PUSH1 0x20 ADD PUSH1 0x0 KECCAK256 SLOAD PUSH1 0x40 MLOAD PUSH2 0x2935 SWAP2 SWAP1 PUSH2 0x2FE2 JUMP JUMPDEST PUSH1 0x40 MLOAD DUP1 SWAP2 SUB SWAP1 LOG2 PUSH1 0x0 PUSH1 0x14 SWAP1 SLOAD SWAP1 PUSH2 0x100 EXP SWAP1 DIV PUSH1 0xFF AND DUP1 ISZERO PUSH2 0x29A6 JUMPI POP PUSH1 0x0 PUSH20 0xFFFFFFFFFFFFFFFFFFFFFFFFFFFFFFFFFFFFFFFF AND PUSH1 0x0 DUP1 SLOAD SWAP1 PUSH2 0x100 EXP SWAP1 DIV PUSH20 0xFFFFFFFFFFFFFFFFFFFFFFFFFFFFFFFFFFFFFFFF AND PUSH20 0xFFFFFFFFFFFFFFFFFFFFFFFFFFFFFFFFFFFFFFFF AND EQ ISZERO JUMPDEST ISZERO PUSH2 0x2A39 JUMPI PUSH1 0x0 DUP1 SLOAD SWAP1 PUSH2 0x100 EXP SWAP1 DIV PUSH20 0xFFFFFFFFFFFFFFFFFFFFFFFFFFFFFFFFFFFFFFFF AND PUSH20 0xFFFFFFFFFFFFFFFFFFFFFFFFFFFFFFFFFFFFFFFF AND PUSH4 0x73AC83EF CALLER DUP9 PUSH1 0x40 MLOAD DUP4 PUSH4 0xFFFFFFFF AND PUSH1 0xE0 SHL DUP2 MSTORE PUSH1 0x4 ADD PUSH2 0x2A06 SWAP3 SWAP2 SWAP1 PUSH2 0x3C9A JUMP JUMPDEST PUSH1 0x0 PUSH1 0x40 MLOAD DUP1 DUP4 SUB DUP2 PUSH1 0x0 DUP8 DUP1 EXTCODESIZE ISZERO DUP1 ISZERO PUSH2 0x2A20 JUMPI PUSH1 0x0 DUP1 REVERT JUMPDEST POP GAS CALL ISZERO DUP1 ISZERO PUSH2 0x2A34 JUMPI RETURNDATASIZE PUSH1 0x0 DUP1 RETURNDATACOPY RETURNDATASIZE PUSH1 0x0 REVERT JUMPDEST POP POP POP POP JUMPDEST DUP2 SWAP3 POP POP POP SWAP5 SWAP4 POP POP POP POP JUMP JUMPDEST PUSH1 0x60 PUSH1 0x0 DUP1 JUMPDEST PUSH1 0x3 DUP1 SLOAD SWAP1 POP DUP2 LT ISZERO PUSH2 0x2B6F JUMPI DUP4 PUSH20 0xFFFFFFFFFFFFFFFFFFFFFFFFFFFFFFFFFFFFFFFF AND PUSH1 0x3 DUP3 DUP2 SLOAD DUP2 LT PUSH2 0x2A84 JUMPI PUSH2 0x2A83 PUSH2 0x39B4 JUMP JUMPDEST JUMPDEST SWAP1 PUSH1 0x0 MSTORE PUSH1 0x20 PUSH1 0x0 KECCAK256 SWAP1 PUSH1 0x9 MUL ADD PUSH1 0x1 ADD PUSH1 0x0 SWAP1 SLOAD SWAP1 PUSH2 0x100 EXP SWAP1 DIV PUSH20 0xFFFFFFFFFFFFFFFFFFFFFFFFFFFFFFFFFFFFFFFF AND PUSH20 0xFFFFFFFFFFFFFFFFFFFFFFFFFFFFFFFFFFFFFFFF AND EQ DUP1 PUSH2 0x2B48 JUMPI POP DUP4 PUSH20 0xFFFFFFFFFFFFFFFFFFFFFFFFFFFFFFFFFFFFFFFF AND PUSH1 0x3 DUP3 DUP2 SLOAD DUP2 LT PUSH2 0x2AFE JUMPI PUSH2 0x2AFD PUSH2 0x39B4 JUMP JUMPDEST JUMPDEST SWAP1 PUSH1 0x0 MSTORE PUSH1 0x20 PUSH1 0x0 KECCAK256 SWAP1 PUSH1 0x9 MUL ADD PUSH1 0x2 ADD PUSH1 0x0 SWAP1 SLOAD SWAP1 PUSH2 0x100 EXP SWAP1 DIV PUSH20 0xFFFFFFFFFFFFFFFFFFFFFFFFFFFFFFFFFFFFFFFF AND PUSH20 0xFFFFFFFFFFFFFFFFFFFFFFFFFFFFFFFFFFFFFFFF AND EQ JUMPDEST ISZERO PUSH2 0x2B5C JUMPI DUP2 DUP1 PUSH2 0x2B58 SWAP1 PUSH2 0x3D9B JUMP JUMPDEST SWAP3 POP POP JUMPDEST DUP1 DUP1 PUSH2 0x2B67 SWAP1 PUSH2 0x3D9B JUMP JUMPDEST SWAP2 POP POP PUSH2 0x2A4C JUMP JUMPDEST POP PUSH1 0x0 DUP2 PUSH8 0xFFFFFFFFFFFFFFFF DUP2 GT ISZERO PUSH2 0x2B8C JUMPI PUSH2 0x2B8B PUSH2 0x32ED JUMP JUMPDEST JUMPDEST PUSH1 0x40 MLOAD SWAP1 DUP1 DUP3 MSTORE DUP1 PUSH1 0x20 MUL PUSH1 0x20 ADD DUP3 ADD PUSH1 0x40 MSTORE DUP1 ISZERO PUSH2 0x2BBA JUMPI DUP2 PUSH1 0x20 ADD PUSH1 0x20 DUP3 MUL DUP1 CALLDATASIZE DUP4 CALLDATACOPY DUP1 DUP3 ADD SWAP2 POP POP SWAP1 POP JUMPDEST POP SWAP1 POP PUSH1 0x0 DUP1 JUMPDEST PUSH1 0x3 DUP1 SLOAD SWAP1 POP DUP2 LT ISZERO PUSH2 0x2D29 JUMPI DUP6 PUSH20 0xFFFFFFFFFFFFFFFFFFFFFFFFFFFFFFFFFFFFFFFF AND PUSH1 0x3 DUP3 DUP2 SLOAD DUP2 LT PUSH2 0x2BF9 JUMPI PUSH2 0x2BF8 PUSH2 0x39B4 JUMP JUMPDEST JUMPDEST SWAP1 PUSH1 0x0 MSTORE PUSH1 0x20 PUSH1 0x0 KECCAK256 SWAP1 PUSH1 0x9 MUL ADD PUSH1 0x1 ADD PUSH1 0x0 SWAP1 SLOAD SWAP1 PUSH2 0x100 EXP SWAP1 DIV PUSH20 0xFFFFFFFFFFFFFFFFFFFFFFFFFFFFFFFFFFFFFFFF AND PUSH20 0xFFFFFFFFFFFFFFFFFFFFFFFFFFFFFFFFFFFFFFFF AND EQ DUP1 PUSH2 0x2CBD JUMPI POP DUP6 PUSH20 0xFFFFFFFFFFFFFFFFFFFFFFFFFFFFFFFFFFFFFFFF AND PUSH1 0x3 DUP3 DUP2 SLOAD DUP2 LT PUSH2 0x2C73 JUMPI PUSH2 0x2C72 PUSH2 0x39B4 JUMP JUMPDEST JUMPDEST SWAP1 PUSH1 0x0 MSTORE PUSH1 0x20 PUSH1 0x0 KECCAK256 SWAP1 PUSH1 0x9 MUL ADD PUSH1 0x2 ADD PUSH1 0x0 SWAP1 SLOAD SWAP1 PUSH2 0x100 EXP SWAP1 DIV PUSH20 0xFFFFFFFFFFFFFFFFFFFFFFFFFFFFFFFFFFFFFFFF AND PUSH20 0xFFFFFFFFFFFFFFFFFFFFFFFFFFFFFFFFFFFFFFFF AND EQ JUMPDEST ISZERO PUSH2 0x2D16 JUMPI PUSH1 0x3 DUP2 DUP2 SLOAD DUP2 LT PUSH2 0x2CD6 JUMPI PUSH2 0x2CD5 PUSH2 0x39B4 JUMP JUMPDEST JUMPDEST SWAP1 PUSH1 0x0 MSTORE PUSH1 0x20 PUSH1 0x0 KECCAK256 SWAP1 PUSH1 0x9 MUL ADD PUSH1 0x0 ADD SLOAD DUP4 DUP4 DUP2 MLOAD DUP2 LT PUSH2 0x2CFB JUMPI PUSH2 0x2CFA PUSH2 0x39B4 JUMP JUMPDEST JUMPDEST PUSH1 0x20 MUL PUSH1 0x20 ADD ADD DUP2 DUP2 MSTORE POP POP DUP2 DUP1 PUSH2 0x2D12 SWAP1 PUSH2 0x3D9B JUMP JUMPDEST SWAP3 POP POP JUMPDEST DUP1 DUP1 PUSH2 0x2D21 SWAP1 PUSH2 0x3D9B JUMP JUMPDEST SWAP2 POP POP PUSH2 0x2BC1 JUMP JUMPDEST POP DUP2 SWAP4 POP POP POP POP SWAP2 SWAP1 POP JUMP JUMPDEST PUSH1 0x0 PUSH1 0x1 PUSH1 0x0 DUP4 PUSH20 0xFFFFFFFFFFFFFFFFFFFFFFFFFFFFFFFFFFFFFFFF AND PUSH20 0xFFFFFFFFFFFFFFFFFFFFFFFFFFFFFFFFFFFFFFFF AND DUP2 MSTORE PUSH1 0x20 ADD SWAP1 DUP2 MSTORE PUSH1 0x20 ADD PUSH1 0x0 KECCAK256 SLOAD SWAP1 POP SWAP2 SWAP1 POP JUMP JUMPDEST PUSH1 0x4 PUSH1 0x20 MSTORE DUP1 PUSH1 0x0 MSTORE PUSH1 0x40 PUSH1 0x0 KECCAK256 PUSH1 0x0 SWAP2 POP SWAP1 POP SLOAD DUP2 JUMP JUMPDEST DUP3 DUP1 SLOAD PUSH2 0x2DA2 SWAP1 PUSH2 0x3A12 JUMP JUMPDEST SWAP1 PUSH1 0x0 MSTORE PUSH1 0x20 PUSH1 0x0 KECCAK256 SWAP1 PUSH1 0x1F ADD PUSH1 0x20 SWAP1 DIV DUP2 ADD SWAP3 DUP3 PUSH2 0x2DC4 JUMPI PUSH1 0x0 DUP6 SSTORE PUSH2 0x2E0B JUMP JUMPDEST DUP3 PUSH1 0x1F LT PUSH2 0x2DDD JUMPI DUP1 MLOAD PUSH1 0xFF NOT AND DUP4 DUP1 ADD OR DUP6 SSTORE PUSH2 0x2E0B JUMP JUMPDEST DUP3 DUP1 ADD PUSH1 0x1 ADD DUP6 SSTORE DUP3 ISZERO PUSH2 0x2E0B JUMPI SWAP2 DUP3 ADD JUMPDEST DUP3 DUP2 GT ISZERO PUSH2 0x2E0A JUMPI DUP3 MLOAD DUP3 SSTORE SWAP2 PUSH1 0x20 ADD SWAP2 SWAP1 PUSH1 0x1 ADD SWAP1 PUSH2 0x2DEF JUMP JUMPDEST JUMPDEST POP SWAP1 POP PUSH2 0x2E18 SWAP2 SWAP1 PUSH2 0x2E1C JUMP JUMPDEST POP SWAP1 JUMP JUMPDEST JUMPDEST DUP1 DUP3 GT ISZERO PUSH2 0x2E35 JUMPI PUSH1 0x0 DUP2 PUSH1 0x0 SWAP1 SSTORE POP PUSH1 0x1 ADD PUSH2 0x2E1D JUMP JUMPDEST POP SWAP1 JUMP JUMPDEST PUSH1 0x0 PUSH1 0x40 MLOAD SWAP1 POP SWAP1 JUMP JUMPDEST PUSH1 0x0 DUP1 REVERT JUMPDEST PUSH1 0x0 DUP1 REVERT JUMPDEST PUSH1 0x0 PUSH20 0xFFFFFFFFFFFFFFFFFFFFFFFFFFFFFFFFFFFFFFFF DUP3 AND SWAP1 POP SWAP2 SWAP1 POP JUMP JUMPDEST PUSH1 0x0 PUSH2 0x2E78 DUP3 PUSH2 0x2E4D JUMP JUMPDEST SWAP1 POP SWAP2 SWAP1 POP JUMP JUMPDEST PUSH2 0x2E88 DUP2 PUSH2 0x2E6D JUMP JUMPDEST DUP2 EQ PUSH2 0x2E93 JUMPI PUSH1 0x0 DUP1 REVERT JUMPDEST POP JUMP JUMPDEST PUSH1 0x0 DUP2 CALLDATALOAD SWAP1 POP PUSH2 0x2EA5 DUP2 PUSH2 0x2E7F JUMP JUMPDEST SWAP3 SWAP2 POP POP JUMP JUMPDEST PUSH1 0x0 PUSH1 0x20 DUP3 DUP5 SUB SLT ISZERO PUSH2 0x2EC1 JUMPI PUSH2 0x2EC0 PUSH2 0x2E43 JUMP JUMPDEST JUMPDEST PUSH1 0x0 PUSH2 0x2ECF DUP5 DUP3 DUP6 ADD PUSH2 0x2E96 JUMP JUMPDEST SWAP2 POP POP SWAP3 SWAP2 POP POP JUMP JUMPDEST PUSH1 0x0 DUP2 MLOAD SWAP1 POP SWAP2 SWAP1 POP JUMP JUMPDEST PUSH1 0x0 DUP3 DUP3 MSTORE PUSH1 0x20 DUP3 ADD SWAP1 POP SWAP3 SWAP2 POP POP JUMP JUMPDEST PUSH1 0x0 JUMPDEST DUP4 DUP2 LT ISZERO PUSH2 0x2F12 JUMPI DUP1 DUP3 ADD MLOAD DUP2 DUP5 ADD MSTORE PUSH1 0x20 DUP2 ADD SWAP1 POP PUSH2 0x2EF7 JUMP JUMPDEST DUP4 DUP2 GT ISZERO PUSH2 0x2F21 JUMPI PUSH1 0x0 DUP5 DUP5 ADD MSTORE JUMPDEST POP POP POP POP JUMP JUMPDEST PUSH1 0x0 PUSH1 0x1F NOT PUSH1 0x1F DUP4 ADD AND SWAP1 POP SWAP2 SWAP1 POP JUMP JUMPDEST PUSH1 0x0 PUSH2 0x2F43 DUP3 PUSH2 0x2ED8 JUMP JUMPDEST PUSH2 0x2F4D DUP2 DUP6 PUSH2 0x2EE3 JUMP JUMPDEST SWAP4 POP PUSH2 0x2F5D DUP2 DUP6 PUSH1 0x20 DUP7 ADD PUSH2 0x2EF4 JUMP JUMPDEST PUSH2 0x2F66 DUP2 PUSH2 0x2F27 JUMP JUMPDEST DUP5 ADD SWAP2 POP POP SWAP3 SWAP2 POP POP JUMP JUMPDEST PUSH1 0x0 PUSH1 0x20 DUP3 ADD SWAP1 POP DUP2 DUP2 SUB PUSH1 0x0 DUP4 ADD MSTORE PUSH2 0x2F8B DUP2 DUP5 PUSH2 0x2F38 JUMP JUMPDEST SWAP1 POP SWAP3 SWAP2 POP POP JUMP JUMPDEST PUSH1 0x0 DUP2 ISZERO ISZERO SWAP1 POP SWAP2 SWAP1 POP JUMP JUMPDEST PUSH2 0x2FA8 DUP2 PUSH2 0x2F93 JUMP JUMPDEST DUP3 MSTORE POP POP JUMP JUMPDEST PUSH1 0x0 PUSH1 0x20 DUP3 ADD SWAP1 POP PUSH2 0x2FC3 PUSH1 0x0 DUP4 ADD DUP5 PUSH2 0x2F9F JUMP JUMPDEST SWAP3 SWAP2 POP POP JUMP JUMPDEST PUSH1 0x0 DUP2 SWAP1 POP SWAP2 SWAP1 POP JUMP JUMPDEST PUSH2 0x2FDC DUP2 PUSH2 0x2FC9 JUMP JUMPDEST DUP3 MSTORE POP POP JUMP JUMPDEST PUSH1 0x0 PUSH1 0x20 DUP3 ADD SWAP1 POP PUSH2 0x2FF7 PUSH1 0x0 DUP4 ADD DUP5 PUSH2 0x2FD3 JUMP JUMPDEST SWAP3 SWAP2 POP POP JUMP JUMPDEST PUSH2 0x3006 DUP2 PUSH2 0x2FC9 JUMP JUMPDEST DUP2 EQ PUSH2 0x3011 JUMPI PUSH1 0x0 DUP1 REVERT JUMPDEST POP JUMP JUMPDEST PUSH1 0x0 DUP2 CALLDATALOAD SWAP1 POP PUSH2 0x3023 DUP2 PUSH2 0x2FFD JUMP JUMPDEST SWAP3 SWAP2 POP POP JUMP JUMPDEST PUSH1 0x0 PUSH1 0x20 DUP3 DUP5 SUB SLT ISZERO PUSH2 0x303F JUMPI PUSH2 0x303E PUSH2 0x2E43 JUMP JUMPDEST JUMPDEST PUSH1 0x0 PUSH2 0x304D DUP5 DUP3 DUP6 ADD PUSH2 0x3014 JUMP JUMPDEST SWAP2 POP POP SWAP3 SWAP2 POP POP JUMP JUMPDEST PUSH2 0x305F DUP2 PUSH2 0x2E6D JUMP JUMPDEST DUP3 MSTORE POP POP JUMP JUMPDEST PUSH1 0x0 DUP2 MLOAD SWAP1 POP SWAP2 SWAP1 POP JUMP JUMPDEST PUSH1 0x0 DUP3 DUP3 MSTORE PUSH1 0x20 DUP3 ADD SWAP1 POP SWAP3 SWAP2 POP POP JUMP JUMPDEST PUSH1 0x0 PUSH2 0x308C DUP3 PUSH2 0x3065 JUMP JUMPDEST PUSH2 0x3096 DUP2 DUP6 PUSH2 0x3070 JUMP JUMPDEST SWAP4 POP PUSH2 0x30A6 DUP2 DUP6 PUSH1 0x20 DUP7 ADD PUSH2 0x2EF4 JUMP JUMPDEST PUSH2 0x30AF DUP2 PUSH2 0x2F27 JUMP JUMPDEST DUP5 ADD SWAP2 POP POP SWAP3 SWAP2 POP POP JUMP JUMPDEST PUSH32 0x4E487B7100000000000000000000000000000000000000000000000000000000 PUSH1 0x0 MSTORE PUSH1 0x21 PUSH1 0x4 MSTORE PUSH1 0x24 PUSH1 0x0 REVERT JUMPDEST PUSH1 0x4 DUP2 LT PUSH2 0x30FA JUMPI PUSH2 0x30F9 PUSH2 0x30BA JUMP JUMPDEST JUMPDEST POP JUMP JUMPDEST PUSH1 0x0 DUP2 SWAP1 POP PUSH2 0x310B DUP3 PUSH2 0x30E9 JUMP JUMPDEST SWAP2 SWAP1 POP JUMP JUMPDEST PUSH1 0x0 PUSH2 0x311B DUP3 PUSH2 0x30FD JUMP JUMPDEST SWAP1 POP SWAP2 SWAP1 POP JUMP JUMPDEST PUSH2 0x312B DUP2 PUSH2 0x3110 JUMP JUMPDEST DUP3 MSTORE POP POP JUMP JUMPDEST PUSH1 0x0 PUSH2 0x120 DUP3 ADD SWAP1 POP PUSH2 0x3147 PUSH1 0x0 DUP4 ADD DUP13 PUSH2 0x2FD3 JUMP JUMPDEST PUSH2 0x3154 PUSH1 0x20 DUP4 ADD DUP12 PUSH2 0x3056 JUMP JUMPDEST PUSH2 0x3161 PUSH1 0x40 DUP4 ADD DUP11 PUSH2 0x3056 JUMP JUMPDEST PUSH2 0x316E PUSH1 0x60 DUP4 ADD DUP10 PUSH2 0x2FD3 JUMP JUMPDEST DUP2 DUP2 SUB PUSH1 0x80 DUP4 ADD MSTORE PUSH2 0x3180 DUP2 DUP9 PUSH2 0x3081 JUMP JUMPDEST SWAP1 POP DUP2 DUP2 SUB PUSH1 0xA0 DUP4 ADD MSTORE PUSH2 0x3194 DUP2 DUP8 PUSH2 0x3081 JUMP JUMPDEST SWAP1 POP DUP2 DUP2 SUB PUSH1 0xC0 DUP4 ADD MSTORE PUSH2 0x31A8 DUP2 DUP7 PUSH2 0x3081 JUMP JUMPDEST SWAP1 POP PUSH2 0x31B7 PUSH1 0xE0 DUP4 ADD DUP6 PUSH2 0x2FD3 JUMP JUMPDEST PUSH2 0x31C5 PUSH2 0x100 DUP4 ADD DUP5 PUSH2 0x3122 JUMP JUMPDEST SWAP11 SWAP10 POP POP POP POP POP POP POP POP POP POP JUMP JUMPDEST PUSH1 0x0 PUSH1 0x20 DUP3 ADD SWAP1 POP DUP2 DUP2 SUB PUSH1 0x0 DUP4 ADD MSTORE PUSH2 0x31ED DUP2 DUP5 PUSH2 0x3081 JUMP JUMPDEST SWAP1 POP SWAP3 SWAP2 POP POP JUMP JUMPDEST PUSH2 0x31FE DUP2 PUSH2 0x2F93 JUMP JUMPDEST DUP2 EQ PUSH2 0x3209 JUMPI PUSH1 0x0 DUP1 REVERT JUMPDEST POP JUMP JUMPDEST PUSH1 0x0 DUP2 CALLDATALOAD SWAP1 POP PUSH2 0x321B DUP2 PUSH2 0x31F5 JUMP JUMPDEST SWAP3 SWAP2 POP POP JUMP JUMPDEST PUSH1 0x0 PUSH1 0x20 DUP3 DUP5 SUB SLT ISZERO PUSH2 0x3237 JUMPI PUSH2 0x3236 PUSH2 0x2E43 JUMP JUMPDEST JUMPDEST PUSH1 0x0 PUSH2 0x3245 DUP5 DUP3 DUP6 ADD PUSH2 0x320C JUMP JUMPDEST SWAP2 POP POP SWAP3 SWAP2 POP POP JUMP JUMPDEST PUSH1 0x0 PUSH1 0x20 DUP3 ADD SWAP1 POP PUSH2 0x3263 PUSH1 0x0 DUP4 ADD DUP5 PUSH2 0x3056 JUMP JUMPDEST SWAP3 SWAP2 POP POP JUMP JUMPDEST PUSH1 0x0 DUP2 SWAP1 POP SWAP2 SWAP1 POP JUMP JUMPDEST PUSH1 0x0 PUSH2 0x328E PUSH2 0x3289 PUSH2 0x3284 DUP5 PUSH2 0x2E4D JUMP JUMPDEST PUSH2 0x3269 JUMP JUMPDEST PUSH2 0x2E4D JUMP JUMPDEST SWAP1 POP SWAP2 SWAP1 POP JUMP JUMPDEST PUSH1 0x0 PUSH2 0x32A0 DUP3 PUSH2 0x3273 JUMP JUMPDEST SWAP1 POP SWAP2 SWAP1 POP JUMP JUMPDEST PUSH1 0x0 PUSH2 0x32B2 DUP3 PUSH2 0x3295 JUMP JUMPDEST SWAP1 POP SWAP2 SWAP1 POP JUMP JUMPDEST PUSH2 0x32C2 DUP2 PUSH2 0x32A7 JUMP JUMPDEST DUP3 MSTORE POP POP JUMP JUMPDEST PUSH1 0x0 PUSH1 0x20 DUP3 ADD SWAP1 POP PUSH2 0x32DD PUSH1 0x0 DUP4 ADD DUP5 PUSH2 0x32B9 JUMP JUMPDEST SWAP3 SWAP2 POP POP JUMP JUMPDEST PUSH1 0x0 DUP1 REVERT JUMPDEST PUSH1 0x0 DUP1 REVERT JUMPDEST PUSH32 0x4E487B7100000000000000000000000000000000000000000000000000000000 PUSH1 0x0 MSTORE PUSH1 0x41 PUSH1 0x4 MSTORE PUSH1 0x24 PUSH1 0x0 REVERT JUMPDEST PUSH2 0x3325 DUP3 PUSH2 0x2F27 JUMP JUMPDEST DUP2 ADD DUP2 DUP2 LT PUSH8 0xFFFFFFFFFFFFFFFF DUP3 GT OR ISZERO PUSH2 0x3344 JUMPI PUSH2 0x3343 PUSH2 0x32ED JUMP JUMPDEST JUMPDEST DUP1 PUSH1 0x40 MSTORE POP POP POP JUMP JUMPDEST PUSH1 0x0 PUSH2 0x3357 PUSH2 0x2E39 JUMP JUMPDEST SWAP1 POP PUSH2 0x3363 DUP3 DUP3 PUSH2 0x331C JUMP JUMPDEST SWAP2 SWAP1 POP JUMP JUMPDEST PUSH1 0x0 PUSH8 0xFFFFFFFFFFFFFFFF DUP3 GT ISZERO PUSH2 0x3383 JUMPI PUSH2 0x3382 PUSH2 0x32ED JUMP JUMPDEST JUMPDEST PUSH2 0x338C DUP3 PUSH2 0x2F27 JUMP JUMPDEST SWAP1 POP PUSH1 0x20 DUP2 ADD SWAP1 POP SWAP2 SWAP1 POP JUMP JUMPDEST DUP3 DUP2 DUP4 CALLDATACOPY PUSH1 0x0 DUP4 DUP4 ADD MSTORE POP POP POP JUMP JUMPDEST PUSH1 0x0 PUSH2 0x33BB PUSH2 0x33B6 DUP5 PUSH2 0x3368 JUMP JUMPDEST PUSH2 0x334D JUMP JUMPDEST SWAP1 POP DUP3 DUP2 MSTORE PUSH1 0x20 DUP2 ADD DUP5 DUP5 DUP5 ADD GT ISZERO PUSH2 0x33D7 JUMPI PUSH2 0x33D6 PUSH2 0x32E8 JUMP JUMPDEST JUMPDEST PUSH2 0x33E2 DUP5 DUP3 DUP6 PUSH2 0x3399 JUMP JUMPDEST POP SWAP4 SWAP3 POP POP POP JUMP JUMPDEST PUSH1 0x0 DUP3 PUSH1 0x1F DUP4 ADD SLT PUSH2 0x33FF JUMPI PUSH2 0x33FE PUSH2 0x32E3 JUMP JUMPDEST JUMPDEST DUP2 CALLDATALOAD PUSH2 0x340F DUP5 DUP3 PUSH1 0x20 DUP7 ADD PUSH2 0x33A8 JUMP JUMPDEST SWAP2 POP POP SWAP3 SWAP2 POP POP JUMP JUMPDEST PUSH1 0x0 DUP1 PUSH1 0x40 DUP4 DUP6 SUB SLT ISZERO PUSH2 0x342F JUMPI PUSH2 0x342E PUSH2 0x2E43 JUMP JUMPDEST JUMPDEST PUSH1 0x0 PUSH2 0x343D DUP6 DUP3 DUP7 ADD PUSH2 0x2E96 JUMP JUMPDEST SWAP3 POP POP PUSH1 0x20 DUP4 ADD CALLDATALOAD PUSH8 0xFFFFFFFFFFFFFFFF DUP2 GT ISZERO PUSH2 0x345E JUMPI PUSH2 0x345D PUSH2 0x2E48 JUMP JUMPDEST JUMPDEST PUSH2 0x346A DUP6 DUP3 DUP7 ADD PUSH2 0x33EA JUMP JUMPDEST SWAP2 POP POP SWAP3 POP SWAP3 SWAP1 POP JUMP JUMPDEST PUSH1 0x4 DUP2 LT PUSH2 0x3481 JUMPI PUSH1 0x0 DUP1 REVERT JUMPDEST POP JUMP JUMPDEST PUSH1 0x0 DUP2 CALLDATALOAD SWAP1 POP PUSH2 0x3493 DUP2 PUSH2 0x3474 JUMP JUMPDEST SWAP3 SWAP2 POP POP JUMP JUMPDEST PUSH1 0x0 DUP1 PUSH1 0x40 DUP4 DUP6 SUB SLT ISZERO PUSH2 0x34B0 JUMPI PUSH2 0x34AF PUSH2 0x2E43 JUMP JUMPDEST JUMPDEST PUSH1 0x0 PUSH2 0x34BE DUP6 DUP3 DUP7 ADD PUSH2 0x3014 JUMP JUMPDEST SWAP3 POP POP PUSH1 0x20 PUSH2 0x34CF DUP6 DUP3 DUP7 ADD PUSH2 0x3484 JUMP JUMPDEST SWAP2 POP POP SWAP3 POP SWAP3 SWAP1 POP JUMP JUMPDEST PUSH1 0x0 DUP1 PUSH1 0x40 DUP4 DUP6 SUB SLT ISZERO PUSH2 0x34F0 JUMPI PUSH2 0x34EF PUSH2 0x2E43 JUMP JUMPDEST JUMPDEST PUSH1 0x0 PUSH2 0x34FE DUP6 DUP3 DUP7 ADD PUSH2 0x2E96 JUMP JUMPDEST SWAP3 POP POP PUSH1 0x20 PUSH2 0x350F DUP6 DUP3 DUP7 ADD PUSH2 0x3014 JUMP JUMPDEST SWAP2 POP POP SWAP3 POP SWAP3 SWAP1 POP JUMP JUMPDEST PUSH1 0x0 DUP1 PUSH1 0x40 DUP4 DUP6 SUB SLT ISZERO PUSH2 0x3530 JUMPI PUSH2 0x352F PUSH2 0x2E43 JUMP JUMPDEST JUMPDEST PUSH1 0x0 PUSH2 0x353E DUP6 DUP3 DUP7 ADD PUSH2 0x3014 JUMP JUMPDEST SWAP3 POP POP PUSH1 0x20 DUP4 ADD CALLDATALOAD PUSH8 0xFFFFFFFFFFFFFFFF DUP2 GT ISZERO PUSH2 0x355F JUMPI PUSH2 0x355E PUSH2 0x2E48 JUMP JUMPDEST JUMPDEST PUSH2 0x356B DUP6 DUP3 DUP7 ADD PUSH2 0x33EA JUMP JUMPDEST SWAP2 POP POP SWAP3 POP SWAP3 SWAP1 POP JUMP JUMPDEST PUSH1 0x0 DUP1 PUSH1 0x0 DUP1 PUSH1 0x80 DUP6 DUP8 SUB SLT ISZERO PUSH2 0x358F JUMPI PUSH2 0x358E PUSH2 0x2E43 JUMP JUMPDEST JUMPDEST PUSH1 0x0 PUSH2 0x359D DUP8 DUP3 DUP9 ADD PUSH2 0x2E96 JUMP JUMPDEST SWAP5 POP POP PUSH1 0x20 PUSH2 0x35AE DUP8 DUP3 DUP9 ADD PUSH2 0x3014 JUMP JUMPDEST SWAP4 POP POP PUSH1 0x40 DUP6 ADD CALLDATALOAD PUSH8 0xFFFFFFFFFFFFFFFF DUP2 GT ISZERO PUSH2 0x35CF JUMPI PUSH2 0x35CE PUSH2 0x2E48 JUMP JUMPDEST JUMPDEST PUSH2 0x35DB DUP8 DUP3 DUP9 ADD PUSH2 0x33EA JUMP JUMPDEST SWAP3 POP POP PUSH1 0x60 DUP6 ADD CALLDATALOAD PUSH8 0xFFFFFFFFFFFFFFFF DUP2 GT ISZERO PUSH2 0x35FC JUMPI PUSH2 0x35FB PUSH2 0x2E48 JUMP JUMPDEST JUMPDEST PUSH2 0x3608 DUP8 DUP3 DUP9 ADD PUSH2 0x33EA JUMP JUMPDEST SWAP2 POP POP SWAP3 SWAP6 SWAP2 SWAP5 POP SWAP3 POP JUMP JUMPDEST PUSH1 0x0 DUP2 MLOAD SWAP1 POP SWAP2 SWAP1 POP JUMP JUMPDEST PUSH1 0x0 DUP3 DUP3 MSTORE PUSH1 0x20 DUP3 ADD SWAP1 POP SWAP3 SWAP2 POP POP JUMP JUMPDEST PUSH1 0x0 DUP2 SWAP1 POP PUSH1 0x20 DUP3 ADD SWAP1 POP SWAP2 SWAP1 POP JUMP JUMPDEST PUSH2 0x3649 DUP2 PUSH2 0x2FC9 JUMP JUMPDEST DUP3 MSTORE POP POP JUMP JUMPDEST PUSH1 0x0 PUSH2 0x365B DUP4 DUP4 PUSH2 0x3640 JUMP JUMPDEST PUSH1 0x20 DUP4 ADD SWAP1 POP SWAP3 SWAP2 POP POP JUMP JUMPDEST PUSH1 0x0 PUSH1 0x20 DUP3 ADD SWAP1 POP SWAP2 SWAP1 POP JUMP JUMPDEST PUSH1 0x0 PUSH2 0x367F DUP3 PUSH2 0x3614 JUMP JUMPDEST PUSH2 0x3689 DUP2 DUP6 PUSH2 0x361F JUMP JUMPDEST SWAP4 POP PUSH2 0x3694 DUP4 PUSH2 0x3630 JUMP JUMPDEST DUP1 PUSH1 0x0 JUMPDEST DUP4 DUP2 LT ISZERO PUSH2 0x36C5 JUMPI DUP2 MLOAD PUSH2 0x36AC DUP9 DUP3 PUSH2 0x364F JUMP JUMPDEST SWAP8 POP PUSH2 0x36B7 DUP4 PUSH2 0x3667 JUMP JUMPDEST SWAP3 POP POP PUSH1 0x1 DUP2 ADD SWAP1 POP PUSH2 0x3698 JUMP JUMPDEST POP DUP6 SWAP4 POP POP POP POP SWAP3 SWAP2 POP POP JUMP JUMPDEST PUSH1 0x0 PUSH1 0x20 DUP3 ADD SWAP1 POP DUP2 DUP2 SUB PUSH1 0x0 DUP4 ADD MSTORE PUSH2 0x36EC DUP2 DUP5 PUSH2 0x3674 JUMP JUMPDEST SWAP1 POP SWAP3 SWAP2 POP POP JUMP JUMPDEST PUSH32 0x504B49206E6F7420656E61626C65640000000000000000000000000000000000 PUSH1 0x0 DUP3 ADD MSTORE POP JUMP JUMPDEST PUSH1 0x0 PUSH2 0x372A PUSH1 0xF DUP4 PUSH2 0x3070 JUMP JUMPDEST SWAP2 POP PUSH2 0x3735 DUP3 PUSH2 0x36F4 JUMP JUMPDEST PUSH1 0x20 DUP3 ADD SWAP1 POP SWAP2 SWAP1 POP JUMP JUMPDEST PUSH1 0x0 PUSH1 0x20 DUP3 ADD SWAP1 POP DUP2 DUP2 SUB PUSH1 0x0 DUP4 ADD MSTORE PUSH2 0x3759 DUP2 PUSH2 0x371D JUMP JUMPDEST SWAP1 POP SWAP2 SWAP1 POP JUMP JUMPDEST PUSH1 0x0 PUSH8 0xFFFFFFFFFFFFFFFF DUP3 GT ISZERO PUSH2 0x377B JUMPI PUSH2 0x377A PUSH2 0x32ED JUMP JUMPDEST JUMPDEST PUSH2 0x3784 DUP3 PUSH2 0x2F27 JUMP JUMPDEST SWAP1 POP PUSH1 0x20 DUP2 ADD SWAP1 POP SWAP2 SWAP1 POP JUMP JUMPDEST PUSH1 0x0 PUSH2 0x37A4 PUSH2 0x379F DUP5 PUSH2 0x3760 JUMP JUMPDEST PUSH2 0x334D JUMP JUMPDEST SWAP1 POP DUP3 DUP2 MSTORE PUSH1 0x20 DUP2 ADD DUP5 DUP5 DUP5 ADD GT ISZERO PUSH2 0x37C0 JUMPI PUSH2 0x37BF PUSH2 0x32E8 JUMP JUMPDEST JUMPDEST PUSH2 0x37CB DUP5 DUP3 DUP6 PUSH2 0x2EF4 JUMP JUMPDEST POP SWAP4 SWAP3 POP POP POP JUMP JUMPDEST PUSH1 0x0 DUP3 PUSH1 0x1F DUP4 ADD SLT PUSH2 0x37E8 JUMPI PUSH2 0x37E7 PUSH2 0x32E3 JUMP JUMPDEST JUMPDEST DUP2 MLOAD PUSH2 0x37F8 DUP5 DUP3 PUSH1 0x20 DUP7 ADD PUSH2 0x3791 JUMP JUMPDEST SWAP2 POP POP SWAP3 SWAP2 POP POP JUMP JUMPDEST PUSH1 0x0 PUSH1 0x20 DUP3 DUP5 SUB SLT ISZERO PUSH2 0x3817 JUMPI PUSH2 0x3816 PUSH2 0x2E43 JUMP JUMPDEST JUMPDEST PUSH1 0x0 DUP3 ADD MLOAD PUSH8 0xFFFFFFFFFFFFFFFF DUP2 GT ISZERO PUSH2 0x3835 JUMPI PUSH2 0x3834 PUSH2 0x2E48 JUMP JUMPDEST JUMPDEST PUSH2 0x3841 DUP5 DUP3 DUP6 ADD PUSH2 0x37D3 JUMP JUMPDEST SWAP2 POP POP SWAP3 SWAP2 POP POP JUMP JUMPDEST PUSH32 0x4F6E6C79206F776E65722063616E2063616C6C20746869732066756E6374696F PUSH1 0x0 DUP3 ADD MSTORE PUSH32 0x6E00000000000000000000000000000000000000000000000000000000000000 PUSH1 0x20 DUP3 ADD MSTORE POP JUMP JUMPDEST PUSH1 0x0 PUSH2 0x38A6 PUSH1 0x21 DUP4 PUSH2 0x3070 JUMP JUMPDEST SWAP2 POP PUSH2 0x38B1 DUP3 PUSH2 0x384A JUMP JUMPDEST PUSH1 0x40 DUP3 ADD SWAP1 POP SWAP2 SWAP1 POP JUMP JUMPDEST PUSH1 0x0 PUSH1 0x20 DUP3 ADD SWAP1 POP DUP2 DUP2 SUB PUSH1 0x0 DUP4 ADD MSTORE PUSH2 0x38D5 DUP2 PUSH2 0x3899 JUMP JUMPDEST SWAP1 POP SWAP2 SWAP1 POP JUMP JUMPDEST PUSH32 0x496E76616C696420504B49206164647265737300000000000000000000000000 PUSH1 0x0 DUP3 ADD MSTORE POP JUMP JUMPDEST PUSH1 0x0 PUSH2 0x3912 PUSH1 0x13 DUP4 PUSH2 0x3070 JUMP JUMPDEST SWAP2 POP PUSH2 0x391D DUP3 PUSH2 0x38DC JUMP JUMPDEST PUSH1 0x20 DUP3 ADD SWAP1 POP SWAP2 SWAP1 POP JUMP JUMPDEST PUSH1 0x0 PUSH1 0x20 DUP3 ADD SWAP1 POP DUP2 DUP2 SUB PUSH1 0x0 DUP4 ADD MSTORE PUSH2 0x3941 DUP2 PUSH2 0x3905 JUMP JUMPDEST SWAP1 POP SWAP2 SWAP1 POP JUMP JUMPDEST PUSH32 0x496E76616C6964207472616E73616374696F6E20494400000000000000000000 PUSH1 0x0 DUP3 ADD MSTORE POP JUMP JUMPDEST PUSH1 0x0 PUSH2 0x397E PUSH1 0x16 DUP4 PUSH2 0x3070 JUMP JUMPDEST SWAP2 POP PUSH2 0x3989 DUP3 PUSH2 0x3948 JUMP JUMPDEST PUSH1 0x20 DUP3 ADD SWAP1 POP SWAP2 SWAP1 POP JUMP JUMPDEST PUSH1 0x0 PUSH1 0x20 DUP3 ADD SWAP1 POP DUP2 DUP2 SUB PUSH1 0x0 DUP4 ADD MSTORE PUSH2 0x39AD DUP2 PUSH2 0x3971 JUMP JUMPDEST SWAP1 POP SWAP2 SWAP1 POP JUMP JUMPDEST PUSH32 0x4E487B7100000000000000000000000000000000000000000000000000000000 PUSH1 0x0 MSTORE PUSH1 0x32 PUSH1 0x4 MSTORE PUSH1 0x24 PUSH1 0x0 REVERT JUMPDEST PUSH32 0x4E487B7100000000000000000000000000000000000000000000000000000000 PUSH1 0x0 MSTORE PUSH1 0x22 PUSH1 0x4 MSTORE PUSH1 0x24 PUSH1 0x0 REVERT JUMPDEST PUSH1 0x0 PUSH1 0x2 DUP3 DIV SWAP1 POP PUSH1 0x1 DUP3 AND DUP1 PUSH2 0x3A2A JUMPI PUSH1 0x7F DUP3 AND SWAP2 POP JUMPDEST PUSH1 0x20 DUP3 LT DUP2 EQ ISZERO PUSH2 0x3A3E JUMPI PUSH2 0x3A3D PUSH2 0x39E3 JUMP JUMPDEST JUMPDEST POP SWAP2 SWAP1 POP JUMP JUMPDEST PUSH32 0x4E6F7420617574686F72697A6564000000000000000000000000000000000000 PUSH1 0x0 DUP3 ADD MSTORE POP JUMP JUMPDEST PUSH1 0x0 PUSH2 0x3A7A PUSH1 0xE DUP4 PUSH2 0x3070 JUMP JUMPDEST SWAP2 POP PUSH2 0x3A85 DUP3 PUSH2 0x3A44 JUMP JUMPDEST PUSH1 0x20 DUP3 ADD SWAP1 POP SWAP2 SWAP1 POP JUMP JUMPDEST PUSH1 0x0 PUSH1 0x20 DUP3 ADD SWAP1 POP DUP2 DUP2 SUB PUSH1 0x0 DUP4 ADD MSTORE PUSH2 0x3AA9 DUP2 PUSH2 0x3A6D JUMP JUMPDEST SWAP1 POP SWAP2 SWAP1 POP JUMP JUMPDEST PUSH32 0x496E76616C696420757365722061646472657373000000000000000000000000 PUSH1 0x0 DUP3 ADD MSTORE POP JUMP JUMPDEST PUSH1 0x0 PUSH2 0x3AE6 PUSH1 0x14 DUP4 PUSH2 0x3070 JUMP JUMPDEST SWAP2 POP PUSH2 0x3AF1 DUP3 PUSH2 0x3AB0 JUMP JUMPDEST PUSH1 0x20 DUP3 ADD SWAP1 POP SWAP2 SWAP1 POP JUMP JUMPDEST PUSH1 0x0 PUSH1 0x20 DUP3 ADD SWAP1 POP DUP2 DUP2 SUB PUSH1 0x0 DUP4 ADD MSTORE PUSH2 0x3B15 DUP2 PUSH2 0x3AD9 JUMP JUMPDEST SWAP1 POP SWAP2 SWAP1 POP JUMP JUMPDEST PUSH32 0x416D6F756E74206D7573742062652067726561746572207468616E2030000000 PUSH1 0x0 DUP3 ADD MSTORE POP JUMP JUMPDEST PUSH1 0x0 PUSH2 0x3B52 PUSH1 0x1D DUP4 PUSH2 0x3070 JUMP JUMPDEST SWAP2 POP PUSH2 0x3B5D DUP3 PUSH2 0x3B1C JUMP JUMPDEST PUSH1 0x20 DUP3 ADD SWAP1 POP SWAP2 SWAP1 POP JUMP JUMPDEST PUSH1 0x0 PUSH1 0x20 DUP3 ADD SWAP1 POP DUP2 DUP2 SUB PUSH1 0x0 DUP4 ADD MSTORE PUSH2 0x3B81 DUP2 PUSH2 0x3B45 JUMP JUMPDEST SWAP1 POP SWAP2 SWAP1 POP JUMP JUMPDEST PUSH32 0x4E487B7100000000000000000000000000000000000000000000000000000000 PUSH1 0x0 MSTORE PUSH1 0x11 PUSH1 0x4 MSTORE PUSH1 0x24 PUSH1 0x0 REVERT JUMPDEST PUSH1 0x0 PUSH2 0x3BC2 DUP3 PUSH2 0x2FC9 JUMP JUMPDEST SWAP2 POP PUSH2 0x3BCD DUP4 PUSH2 0x2FC9 JUMP JUMPDEST SWAP3 POP DUP3 PUSH32 0xFFFFFFFFFFFFFFFFFFFFFFFFFFFFFFFFFFFFFFFFFFFFFFFFFFFFFFFFFFFFFFFF SUB DUP3 GT ISZERO PUSH2 0x3C02 JUMPI PUSH2 0x3C01 PUSH2 0x3B88 JUMP JUMPDEST JUMPDEST DUP3 DUP3 ADD SWAP1 POP SWAP3 SWAP2 POP POP JUMP JUMPDEST PUSH1 0x0 PUSH1 0x40 DUP3 ADD SWAP1 POP PUSH2 0x3C22 PUSH1 0x0 DUP4 ADD DUP6 PUSH2 0x2FD3 JUMP JUMPDEST DUP2 DUP2 SUB PUSH1 0x20 DUP4 ADD MSTORE PUSH2 0x3C34 DUP2 DUP5 PUSH2 0x3081 JUMP JUMPDEST SWAP1 POP SWAP4 SWAP3 POP POP POP JUMP JUMPDEST PUSH1 0x0 PUSH1 0x20 DUP3 ADD SWAP1 POP PUSH2 0x3C52 PUSH1 0x0 DUP4 ADD DUP5 PUSH2 0x3122 JUMP JUMPDEST SWAP3 SWAP2 POP POP JUMP JUMPDEST PUSH1 0x0 DUP2 MLOAD SWAP1 POP PUSH2 0x3C67 DUP2 PUSH2 0x31F5 JUMP JUMPDEST SWAP3 SWAP2 POP POP JUMP JUMPDEST PUSH1 0x0 PUSH1 0x20 DUP3 DUP5 SUB SLT ISZERO PUSH2 0x3C83 JUMPI PUSH2 0x3C82 PUSH2 0x2E43 JUMP JUMPDEST JUMPDEST PUSH1 0x0 PUSH2 0x3C91 DUP5 DUP3 DUP6 ADD PUSH2 0x3C58 JUMP JUMPDEST SWAP2 POP POP SWAP3 SWAP2 POP POP JUMP JUMPDEST PUSH1 0x0 PUSH1 0x40 DUP3 ADD SWAP1 POP PUSH2 0x3CAF PUSH1 0x0 DUP4 ADD DUP6 PUSH2 0x3056 JUMP JUMPDEST PUSH2 0x3CBC PUSH1 0x20 DUP4 ADD DUP5 PUSH2 0x2FD3 JUMP JUMPDEST SWAP4 SWAP3 POP POP POP JUMP JUMPDEST PUSH32 0x496E73756666696369656E742062616C616E6365000000000000000000000000 PUSH1 0x0 DUP3 ADD MSTORE POP JUMP JUMPDEST PUSH1 0x0 PUSH2 0x3CF9 PUSH1 0x14 DUP4 PUSH2 0x3070 JUMP JUMPDEST SWAP2 POP PUSH2 0x3D04 DUP3 PUSH2 0x3CC3 JUMP JUMPDEST PUSH1 0x20 DUP3 ADD SWAP1 POP SWAP2 SWAP1 POP JUMP JUMPDEST PUSH1 0x0 PUSH1 0x20 DUP3 ADD SWAP1 POP DUP2 DUP2 SUB PUSH1 0x0 DUP4 ADD MSTORE PUSH2 0x3D28 DUP2 PUSH2 0x3CEC JUMP JUMPDEST SWAP1 POP SWAP2 SWAP1 POP JUMP JUMPDEST PUSH32 0x4B5943206E6F742076616C696400000000000000000000000000000000000000 PUSH1 0x0 DUP3 ADD MSTORE POP JUMP JUMPDEST PUSH1 0x0 PUSH2 0x3D65 PUSH1 0xD DUP4 PUSH2 0x3070 JUMP JUMPDEST SWAP2 POP PUSH2 0x3D70 DUP3 PUSH2 0x3D2F JUMP JUMPDEST PUSH1 0x20 DUP3 ADD SWAP1 POP SWAP2 SWAP1 POP JUMP JUMPDEST PUSH1 0x0 PUSH1 0x20 DUP3 ADD SWAP1 POP DUP2 DUP2 SUB PUSH1 0x0 DUP4 ADD MSTORE PUSH2 0x3D94 DUP2 PUSH2 0x3D58 JUMP JUMPDEST SWAP1 POP SWAP2 SWAP1 POP JUMP JUMPDEST PUSH1 0x0 PUSH2 0x3DA6 DUP3 PUSH2 0x2FC9 JUMP JUMPDEST SWAP2 POP PUSH32 0xFFFFFFFFFFFFFFFFFFFFFFFFFFFFFFFFFFFFFFFFFFFFFFFFFFFFFFFFFFFFFFFF DUP3 EQ ISZERO PUSH2 0x3DD9 JUMPI PUSH2 0x3DD8 PUSH2 0x3B88 JUMP JUMPDEST JUMPDEST PUSH1 0x1 DUP3 ADD SWAP1 POP SWAP2 SWAP1 POP JUMP JUMPDEST PUSH1 0x0 PUSH2 0x3DEF DUP3 PUSH2 0x2FC9 JUMP JUMPDEST SWAP2 POP PUSH2 0x3DFA DUP4 PUSH2 0x2FC9 JUMP JUMPDEST SWAP3 POP DUP3 DUP3 LT ISZERO PUSH2 0x3E0D JUMPI PUSH2 0x3E0C PUSH2 0x3B88 JUMP JUMPDEST JUMPDEST DUP3 DUP3 SUB SWAP1 POP SWAP3 SWAP2 POP POP JUMP JUMPDEST PUSH1 0x0 DUP2 SWAP1 POP DUP2 PUSH1 0x0 MSTORE PUSH1 0x20 PUSH1 0x0 KECCAK256 SWAP1 POP SWAP2 SWAP1 POP JUMP JUMPDEST PUSH1 0x0 DUP2 SLOAD PUSH2 0x3E3A DUP2 PUSH2 0x3A12 JUMP JUMPDEST PUSH2 0x3E44 DUP2 DUP7 PUSH2 0x3070 JUMP JUMPDEST SWAP5 POP PUSH1 0x1 DUP3 AND PUSH1 0x0 DUP2 EQ PUSH2 0x3E5F JUMPI PUSH1 0x1 DUP2 EQ PUSH2 0x3E71 JUMPI PUSH2 0x3EA4 JUMP JUMPDEST PUSH1 0xFF NOT DUP4 AND DUP7 MSTORE PUSH1 0x20 DUP7 ADD SWAP4 POP PUSH2 0x3EA4 JUMP JUMPDEST PUSH2 0x3E7A DUP6 PUSH2 0x3E18 JUMP JUMPDEST PUSH1 0x0 JUMPDEST DUP4 DUP2 LT ISZERO PUSH2 0x3E9C JUMPI DUP2 SLOAD DUP2 DUP10 ADD MSTORE PUSH1 0x1 DUP3 ADD SWAP2 POP PUSH1 0x20 DUP2 ADD SWAP1 POP PUSH2 0x3E7D JUMP JUMPDEST DUP1 DUP9 ADD SWAP6 POP POP POP JUMPDEST POP POP POP SWAP3 SWAP2 POP POP JUMP JUMPDEST PUSH32 0x5749544844524157414C00000000000000000000000000000000000000000000 PUSH1 0x0 DUP3 ADD MSTORE POP JUMP JUMPDEST PUSH1 0x0 PUSH2 0x3EE3 PUSH1 0xA DUP4 PUSH2 0x3070 JUMP JUMPDEST SWAP2 POP PUSH2 0x3EEE DUP3 PUSH2 0x3EAD JUMP JUMPDEST PUSH1 0x20 DUP3 ADD SWAP1 POP SWAP2 SWAP1 POP JUMP JUMPDEST PUSH1 0x0 PUSH1 0xA0 DUP3 ADD SWAP1 POP PUSH2 0x3F0E PUSH1 0x0 DUP4 ADD DUP8 PUSH2 0x2FD3 JUMP JUMPDEST DUP2 DUP2 SUB PUSH1 0x20 DUP4 ADD MSTORE PUSH2 0x3F20 DUP2 DUP7 PUSH2 0x3E2D JUMP JUMPDEST SWAP1 POP DUP2 DUP2 SUB PUSH1 0x40 DUP4 ADD MSTORE PUSH2 0x3F33 DUP2 PUSH2 0x3ED6 JUMP JUMPDEST SWAP1 POP DUP2 DUP2 SUB PUSH1 0x60 DUP4 ADD MSTORE PUSH2 0x3F47 DUP2 DUP6 PUSH2 0x3081 JUMP JUMPDEST SWAP1 POP PUSH2 0x3F56 PUSH1 0x80 DUP4 ADD DUP5 PUSH2 0x2FD3 JUMP JUMPDEST SWAP6 SWAP5 POP POP POP POP POP JUMP JUMPDEST PUSH32 0x496E76616C696420726563697069656E74206164647265737300000000000000 PUSH1 0x0 DUP3 ADD MSTORE POP JUMP JUMPDEST PUSH1 0x0 PUSH2 0x3F95 PUSH1 0x19 DUP4 PUSH2 0x3070 JUMP JUMPDEST SWAP2 POP PUSH2 0x3FA0 DUP3 PUSH2 0x3F5F JUMP JUMPDEST PUSH1 0x20 DUP3 ADD SWAP1 POP SWAP2 SWAP1 POP JUMP JUMPDEST PUSH1 0x0 PUSH1 0x20 DUP3 ADD SWAP1 POP DUP2 DUP2 SUB PUSH1 0x0 DUP4 ADD MSTORE PUSH2 0x3FC4 DUP2 PUSH2 0x3F88 JUMP JUMPDEST SWAP1 POP SWAP2 SWAP1 POP JUMP JUMPDEST PUSH32 0x43616E6E6F74207472616E7366657220746F20796F757273656C660000000000 PUSH1 0x0 DUP3 ADD MSTORE POP JUMP JUMPDEST PUSH1 0x0 PUSH2 0x4001 PUSH1 0x1B DUP4 PUSH2 0x3070 JUMP JUMPDEST SWAP2 POP PUSH2 0x400C DUP3 PUSH2 0x3FCB JUMP JUMPDEST PUSH1 0x20 DUP3 ADD SWAP1 POP SWAP2 SWAP1 POP JUMP JUMPDEST PUSH1 0x0 PUSH1 0x20 DUP3 ADD SWAP1 POP DUP2 DUP2 SUB PUSH1 0x0 DUP4 ADD MSTORE PUSH2 0x4030 DUP2 PUSH2 0x3FF4 JUMP JUMPDEST SWAP1 POP SWAP2 SWAP1 POP JUMP JUMPDEST PUSH32 0x5472616E73666572206E6F7420617574686F72697A6564206F72206578636565 PUSH1 0x0 DUP3 ADD MSTORE PUSH32 0x6473206461696C79206C696D6974000000000000000000000000000000000000 PUSH1 0x20 DUP3 ADD MSTORE POP JUMP JUMPDEST PUSH1 0x0 PUSH2 0x4093 PUSH1 0x2E DUP4 PUSH2 0x3070 JUMP JUMPDEST SWAP2 POP PUSH2 0x409E DUP3 PUSH2 0x4037 JUMP JUMPDEST PUSH1 0x40 DUP3 ADD SWAP1 POP SWAP2 SWAP1 POP JUMP JUMPDEST PUSH1 0x0 PUSH1 0x20 DUP3 ADD SWAP1 POP DUP2 DUP2 SUB PUSH1 0x0 DUP4 ADD MSTORE PUSH2 0x40C2 DUP2 PUSH2 0x4086 JUMP JUMPDEST SWAP1 POP SWAP2 SWAP1 POP JUMP JUMPDEST PUSH1 0x0 PUSH1 0xA0 DUP3 ADD SWAP1 POP PUSH2 0x40DE PUSH1 0x0 DUP4 ADD DUP9 PUSH2 0x2FD3 JUMP JUMPDEST DUP2 DUP2 SUB PUSH1 0x20 DUP4 ADD MSTORE PUSH2 0x40F0 DUP2 DUP8 PUSH2 0x3E2D JUMP JUMPDEST SWAP1 POP DUP2 DUP2 SUB PUSH1 0x40 DUP4 ADD MSTORE PUSH2 0x4104 DUP2 DUP7 PUSH2 0x3081 JUMP JUMPDEST SWAP1 POP DUP2 DUP2 SUB PUSH1 0x60 DUP4 ADD MSTORE PUSH2 0x4118 DUP2 DUP6 PUSH2 0x3081 JUMP JUMPDEST SWAP1 POP PUSH2 0x4127 PUSH1 0x80 DUP4 ADD DUP5 PUSH2 0x2FD3 JUMP JUMPDEST SWAP7 SWAP6 POP POP POP POP POP POP JUMP INVALID LOG2 PUSH5 0x6970667358 0x22 SLT KECCAK256 SWAP1 0xE9 0xE6 XOR PUSH14 0xDE5CEF3CB98C16F05E367E5992D0 PUSH23 0xE56D3BE726D57B5A377887DE64736F6C634300080A0033 "
    },
    "gasEstimates": {
      "creation": {
        "codeDepositCost": "3348600",
        "executionCost": "57328",
        "totalCost": "3405928"
      },
      "external": {
        "addAuthorizedBank(address,string)": "infinite",
        "authorizedBanks(address)": "2868",
        "balances(address)": "2904",
        "bankCodes(address)": "infinite",
        "checkTransferAuthorization(address,uint256)": "infinite",
        "deposit(address,string)": "infinite",
        "getBalance(address)": "2951",
        "getTransaction(uint256)": "infinite",
        "getTransactionCount()": "2557",
        "getUserPublicKey(address)": "infinite",
        "getUserTransactions(address)": "infinite",
        "owner()": "2603",
        "pkiEnabled()": "2567",
        "pkiRegistry()": "infinite",
        "setPKIRegistry(address)": "51315",
        "togglePKI(bool)": "26966",
        "transactionIndex(uint256)": "infinite",
        "transactions(uint256)": "infinite",
        "transfer(address,uint256,string,string)": "infinite",
        "updateTransactionStatus(uint256,uint8)": "37538",
        "withdraw(uint256,string)": "infinite"
      }
    },
    "methodIdentifiers": {
      "addAuthorizedBank(address,string)": "c559e45d",
      "authorizedBanks(address)": "a2969820",
      "balances(address)": "27e235e3",
      "bankCodes(address)": "392c5bd8",
      "checkTransferAuthorization(address,uint256)": "cf048bed",
      "deposit(address,string)": "b7482509",
      "getBalance(address)": "f8b2cb4f",
      "getTransaction(uint256)": "33ea3dc8",
      "getTransactionCount()": "2e7700f0",
      "getUserPublicKey(address)": "11231fe0",
      "getUserTransactions(address)": "ef925399",
      "owner()": "8da5cb5b",
      "pkiEnabled()": "12715414",
      "pkiRegistry()": "a7b4ce78",
      "setPKIRegistry(address)": "222e1a44",
      "togglePKI(bool)": "4f480ae2",
      "transactionIndex(uint256)": "f99185c2",
      "transactions(uint256)": "9ace38c2",
      "transfer(address,uint256,string,string)": "e9c02815",
      "updateTransactionStatus(uint256,uint8)": "bafbf728",
      "withdraw(uint256,string)": "dc048cf2"
    }
  },
  "storageLayout": {
    "storage": [
      {
        "astId": 67,
        "contract": "InterbankTransfer.sol:InterbankTransfer",
        "label": "pkiRegistry",
        "offset": 0,
        "slot": "0",
        "type": "t_contract(IPKIRegistry)63"
      },
      {
        "astId": 69,
        "contract": "InterbankTransfer.sol:InterbankTransfer",
        "label": "pkiEnabled",
        "offset": 20,
        "slot": "0",
        "type": "t_bool"
      },
      {
        "astId": 73,
        "contract": "InterbankTransfer.sol:InterbankTransfer",
        "label": "balances",
        "offset": 0,
        "slot": "1",
        "type": "t_mapping(t_address,t_uint256)"
      },
      {
        "astId": 77,
        "contract": "InterbankTransfer.sol:InterbankTransfer",
        "label": "bankCodes",
        "offset": 0,
        "slot": "2",
        "type": "t_mapping(t_address,t_string_storage)"
      },
      {
        "astId": 106,
        "contract": "InterbankTransfer.sol:InterbankTransfer",
        "label": "transactions",
        "offset": 0,
        "slot": "3",
        "type": "t_array(t_struct(Transaction)97_storage)dyn_storage"
      },
      {
        "astId": 110,
        "contract": "InterbankTransfer.sol:InterbankTransfer",
        "label": "transactionIndex",
        "offset": 0,
        "slot": "4",
        "type": "t_mapping(t_uint256,t_uint256)"
      },
      {
        "astId": 151,
        "contract": "InterbankTransfer.sol:InterbankTransfer",
        "label": "owner",
        "offset": 0,
        "slot": "5",
        "type": "t_address"
      },
      {
        "astId": 155,
        "contract": "InterbankTransfer.sol:InterbankTransfer",
        "label": "authorizedBanks",
        "offset": 0,
        "slot": "6",
        "type": "t_mapping(t_address,t_bool)"
      },
      {
        "astId": 157,
        "contract": "InterbankTransfer.sol:InterbankTransfer",
        "label": "transactionCounter",
        "offset": 0,
        "slot": "7",
        "type": "t_uint256"
      }
    ],
    "types": {
      "t_address": {
        "encoding": "inplace",
        "label": "address",
        "numberOfBytes": "20"
      },
      "t_array(t_struct(Transaction)97_storage)dyn_storage": {
        "base": "t_struct(Transaction)97_storage",
        "encoding": "dynamic_array",
        "label": "struct InterbankTransfer.Transaction[]",
        "numberOfBytes": "32"
      },
      "t_bool": {
        "encoding": "inplace",
        "label": "bool",
        "numberOfBytes": "1"
      },
      "t_contract(IPKIRegistry)63": {
        "encoding": "inplace",
        "label": "contract IPKIRegistry",
        "numberOfBytes": "20"
      },
      "t_enum(TransactionStatus)102": {
        "encoding": "inplace",
        "label": "enum InterbankTransfer.TransactionStatus",
        "numberOfBytes": "1"
      },
      "t_mapping(t_address,t_bool)": {
        "encoding": "mapping",
        "key": "t_address",
        "label": "mapping(address => bool)",
        "numberOfBytes": "32",
        "value": "t_bool"
      },
      "t_mapping(t_address,t_string_storage)": {
        "encoding": "mapping",
        "key": "t_address",
        "label": "mapping(address => string)",
        "numberOfBytes": "32",
        "value": "t_string_storage"
      },
      "t_mapping(t_address,t_uint256)": {
        "encoding": "mapping",
        "key": "t_address",
        "label": "mapping(address => uint256)",
        "numberOfBytes": "32",
        "value": "t_uint256"
      },
      "t_mapping(t_uint256,t_uint256)": {
        "encoding": "mapping",
        "key": "t_uint256",
        "label": "mapping(uint256 => uint256)",
        "numberOfBytes": "32",
        "value": "t_uint256"
      },
      "t_string_storage": {
        "encoding": "bytes",
        "label": "string",
        "numberOfBytes": "32"
      },
      "t_struct(Transaction)97_storage": {
        "encoding": "inplace",
        "label": "struct InterbankTransfer.Transaction",
        "members": [
          {
            "astId": 79,
            "contract": "InterbankTransfer.sol:InterbankTransfer",
            "label": "id",
            "offset": 0,
            "slot": "0",
            "type": "t_uint256"
          },
          {
            "astId": 81,
            "contract": "InterbankTransfer.sol:InterbankTransfer",
            "label": "from",
            "offset": 0,
            "slot": "1",
            "type": "t_address"
          },
          {
            "astId": 83,
            "contract": "InterbankTransfer.sol:InterbankTransfer",
            "label": "to",
            "offset": 0,
            "slot": "2",
            "type": "t_address"
          },
          {
            "astId": 85,
            "contract": "InterbankTransfer.sol:InterbankTransfer",
            "label": "amount",
            "offset": 0,
            "slot": "3",
            "type": "t_uint256"
          },
          {
            "astId": 87,
            "contract": "InterbankTransfer.sol:InterbankTransfer",
            "label": "fromBank",
            "offset": 0,
            "slot": "4",
            "type": "t_string_storage"
          },
          {
            "astId": 89,
            "contract": "InterbankTransfer.sol:InterbankTransfer",
            "label": "toBank",
            "offset": 0,
            "slot": "5",
            "type": "t_string_storage"
          },
          {
            "astId": 91,
            "contract": "InterbankTransfer.sol:InterbankTransfer",
            "label": "description",
            "offset": 0,
            "slot": "6",
            "type": "t_string_storage"
          },
          {
            "astId": 93,
            "contract": "InterbankTransfer.sol:InterbankTransfer",
            "label": "timestamp",
            "offset": 0,
            "slot": "7",
            "type": "t_uint256"
          },
          {
            "astId": 96,
            "contract": "InterbankTransfer.sol:InterbankTransfer",
            "label": "status",
            "offset": 0,
            "slot": "8",
            "type": "t_enum(TransactionStatus)102"
          }
        ],
        "numberOfBytes": "288"
      },
      "t_uint256": {
        "encoding": "inplace",
        "label": "uint256",
        "numberOfBytes": "32"
      }
    }
  },
  "userdoc": {
    "kind": "user",
    "methods": {},
    "version": 1
  }
}