{
  "abi": [
    {
      "inputs": [],
      "stateMutability": "nonpayable",
      "type": "constructor"
    },
    {
      "anonymous": false,
      "inputs": [
        {
          "indexed": true,
          "internalType": "address",
          "name": "userAddress",
          "type": "address"
        },
        {
          "indexed": false,
          "internalType": "bool",
          "name": "canTransfer",
          "type": "bool"
        },
        {
          "indexed": false,
          "internalType": "bool",
          "name": "canReceive",
          "type": "bool"
        },
        {
          "indexed": false,
          "internalType": "uint256",
          "name": "dailyLimit",
          "type": "uint256"
        }
      ],
      "name": "AuthorizationUpdated",
      "type": "event"
    },
    {
      "anonymous": false,
      "inputs": [
        {
          "indexed": true,
          "internalType": "address",
          "name": "bankAddress",
          "type": "address"
        },
        {
          "indexed": false,
          "internalType": "bool",
          "name": "authorized",
          "type": "bool"
        }
      ],
      "name": "BankAuthorized",
      "type": "event"
    },
    {
      "anonymous": false,
      "inputs": [
        {
          "indexed": true,
          "internalType": "address",
          "name": "userAddress",
          "type": "address"
        },
        {
          "indexed": true,
          "internalType": "address",
          "name": "revoker",
          "type": "address"
        }
      ],
      "name": "KYCRevoked",
      "type": "event"
    },
    {
      "anonymous": false,
      "inputs": [
        {
          "indexed": true,
          "internalType": "address",
          "name": "userAddress",
          "type": "address"
        },
        {
          "indexed": true,
          "internalType": "address",
          "name": "verifier",
          "type": "address"
        },
        {
          "indexed": false,
          "internalType": "uint256",
          "name": "expiresAt",
          "type": "uint256"
        }
      ],
      "name": "KYCVerified",
      "type": "event"
    },
    {
      "anonymous": false,
      "inputs": [
        {
          "indexed": true,
          "internalType": "address",
          "name": "userAddress",
          "type": "address"
        },
        {
          "indexed": false,
          "internalType": "bytes32",
          "name": "oldKeyHash",
          "type": "bytes32"
        },
        {
          "indexed": false,
          "internalType": "bytes32",
          "name": "newKeyHash",
          "type": "bytes32"
        },
        {
          "indexed": false,
          "internalType": "uint256",
          "name": "timestamp",
          "type": "uint256"
        }
      ],
      "name": "PublicKeyUpdated",
      "type": "event"
    },
    {
      "anonymous": false,
      "inputs": [
        {
          "indexed": true,
          "internalType": "address",
          "name": "userAddress",
          "type": "address"
        },
        {
          "indexed": false,
          "internalType": "bytes32",
          "name": "keyHash",
          "type": "bytes32"
        },
        {
          "indexed": false,
          "internalType": "uint256",
          "name": "timestamp",
          "type": "uint256"
        }
      ],
      "name": "UserRegistered",
      "type": "event"
    },
    {
      "inputs": [
        {
          "internalType": "address",
          "name": "",
          "type": "address"
        }
      ],
      "name": "authorizations",
      "outputs": [
        {
          "internalType": "bool",
          "name": "canTransfer",
          "type": "bool"
        },
        {
          "internalType": "bool",
          "name": "canReceive",
          "type": "bool"
        },
        {
          "internalType": "uint256",
          "name": "dailyLimit",
          "type": "uint256"
        },
        {
          "internalType": "uint256",
          "name": "usedToday",
          "type": "uint256"
        },
        {
          "internalType": "uint256",
          "name": "lastResetDate",
          "type": "uint256"
        }
      ],
      "stateMutability": "view",
      "type": "function"
    },
    {
      "inputs": [
        {
          "internalType": "address",
          "name": "_bank",
          "type": "address"
        },
        {
          "internalType": "bool",
          "name": "_authorized",
          "type": "bool"
        }
      ],
      "name": "authorizeBankAddress",
      "outputs": [],
      "stateMutability": "nonpayable",
      "type": "function"
    },
    {
      "inputs": [
        {
          "internalType": "address",
          "name": "",
          "type": "address"
        }
      ],
      "name": "authorizedBanks",
      "outputs": [
        {
          "internalType": "bool",
          "name": "",
          "type": "bool"
        }
      ],
      "stateMutability": "view",
      "type": "function"
    },
    {
      "inputs": [
        {
          "internalType": "address[]",
          "name": "_banks",
          "type": "address[]"
        }
      ],
      "name": "batchAuthorizeBanks",
      "outputs": [],
      "stateMutability": "nonpayable",
      "type": "function"
    },
    {
      "inputs": [
        {
          "internalType": "address",
          "name": "_user",
          "type": "address"
        },
        {
          "internalType": "uint256",
          "name": "_amount",
          "type": "uint256"
        }
      ],
      "name": "canUserTransfer",
      "outputs": [
        {
          "internalType": "bool",
          "name": "",
          "type": "bool"
        }
      ],
      "stateMutability": "view",
      "type": "function"
    },
    {
      "inputs": [
        {
          "internalType": "address",
          "name": "_user",
          "type": "address"
        }
      ],
      "name": "deactivateUser",
      "outputs": [],
      "stateMutability": "nonpayable",
      "type": "function"
    },
    {
      "inputs": [
        {
          "internalType": "bytes32",
          "name": "_keyHash",
          "type": "bytes32"
        }
      ],
      "name": "getUserByKeyHash",
      "outputs": [
        {
          "internalType": "address",
          "name": "",
          "type": "address"
        }
      ],
      "stateMutability": "view",
      "type": "function"
    },
    {
      "inputs": [
        {
          "internalType": "address",
          "name": "_user",
          "type": "address"
        }
      ],
      "name": "getUserInfo",
      "outputs": [
        {
          "components": [
            {
              "internalType": "address",
              "name": "userAddress",
              "type": "address"
            },
            {
              "internalType": "bytes",
              "name": "pqcPublicKey",
              "type": "bytes"
            },
            {
              "internalType": "bytes32",
              "name": "keyHash",
              "type": "bytes32"
            },
            {
              "internalType": "bool",
              "name": "isActive",
              "type": "bool"
            },
            {
              "internalType": "uint256",
              "name": "registeredAt",
              "type": "uint256"
            },
            {
              "internalType": "uint256",
              "name": "lastUpdated",
              "type": "uint256"
            }
          ],
          "internalType": "struct PKIRegistry.UserIdentity",
          "name": "identity",
          "type": "tuple"
        },
        {
          "components": [
            {
              "internalType": "bool",
              "name": "isVerified",
              "type": "bool"
            },
            {
              "internalType": "uint256",
              "name": "verifiedAt",
              "type": "uint256"
            },
            {
              "internalType": "uint256",
              "name": "expiresAt",
              "type": "uint256"
            },
            {
              "internalType": "bytes32",
              "name": "kycHash",
              "type": "bytes32"
            },
            {
              "internalType": "address",
              "name": "verifier",
              "type": "address"
            }
          ],
          "internalType": "struct PKIRegistry.KYCInfo",
          "name": "kyc",
          "type": "tuple"
        },
        {
          "components": [
            {
              "internalType": "bool",
              "name": "canTransfer",
              "type": "bool"
            },
            {
              "internalType": "bool",
              "name": "canReceive",
              "type": "bool"
            },
            {
              "internalType": "uint256",
              "name": "dailyLimit",
              "type": "uint256"
            },
            {
              "internalType": "uint256",
              "name": "usedToday",
              "type": "uint256"
            },
            {
              "internalType": "uint256",
              "name": "lastResetDate",
              "type": "uint256"
            }
          ],
          "internalType": "struct PKIRegistry.Authorization",
          "name": "auth",
          "type": "tuple"
        }
      ],
      "stateMutability": "view",
      "type": "function"
    },
    {
      "inputs": [
        {
          "internalType": "address",
          "name": "_user",
          "type": "address"
        }
      ],
      "name": "getUserPublicKey",
      "outputs": [
        {
          "internalType": "bytes",
          "name": "",
          "type": "bytes"
        }
      ],
      "stateMutability": "view",
      "type": "function"
    },
    {
      "inputs": [],
      "name": "getUserStats",
      "outputs": [
        {
          "internalType": "uint256",
          "name": "total",
          "type": "uint256"
        },
        {
          "internalType": "uint256",
          "name": "verified",
          "type": "uint256"
        },
        {
          "internalType": "uint256",
          "name": "authorized",
          "type": "uint256"
        }
      ],
      "stateMutability": "view",
      "type": "function"
    },
    {
      "inputs": [
        {
          "internalType": "address",
          "name": "_user",
          "type": "address"
        }
      ],
      "name": "isKYCValid",
      "outputs": [
        {
          "internalType": "bool",
          "name": "",
          "type": "bool"
        }
      ],
      "stateMutability": "view",
      "type": "function"
    },
    {
      "inputs": [
        {
          "internalType": "bytes32",
          "name": "",
          "type": "bytes32"
        }
      ],
      "name": "keyHashToAddress",
      "outputs": [
        {
          "internalType": "address",
          "name": "",
          "type": "address"
        }
      ],
      "stateMutability": "view",
      "type": "function"
    },
    {
      "inputs": [
        {
          "internalType": "address",
          "name": "",
          "type": "address"
        }
      ],
      "name": "kycRecords",
      "outputs": [
        {
          "internalType": "bool",
          "name": "isVerified",
          "type": "bool"
        },
        {
          "internalType": "uint256",
          "name": "verifiedAt",
          "type": "uint256"
        },
        {
          "internalType": "uint256",
          "name": "expiresAt",
          "type": "uint256"
        },
        {
          "internalType": "bytes32",
          "name": "kycHash",
          "type": "bytes32"
        },
        {
          "internalType": "address",
          "name": "verifier",
          "type": "address"
        }
      ],
      "stateMutability": "view",
      "type": "function"
    },
    {
      "inputs": [],
      "name": "owner",
      "outputs": [
        {
          "internalType": "address",
          "name": "",
          "type": "address"
        }
      ],
      "stateMutability": "view",
      "type": "function"
    },
    {
      "inputs": [
        {
          "internalType": "address",
          "name": "_user",
          "type": "address"
        },
        {
          "internalType": "uint256",
          "name": "_amount",
          "type": "uint256"
        }
      ],
      "name": "recordTransfer",
      "outputs": [],
      "stateMutability": "nonpayable",
      "type": "function"
    },
    {
      "inputs": [
        {
          "internalType": "bytes",
          "name": "_pqcPublicKey",
          "type": "bytes"
        }
      ],
      "name": "registerUser",
      "outputs": [],
      "stateMutability": "nonpayable",
      "type": "function"
    },
    {
      "inputs": [
        {
          "internalType": "address",
          "name": "_user",
          "type": "address"
        }
      ],
      "name": "revokeKYC",
      "outputs": [],
      "stateMutability": "nonpayable",
      "type": "function"
    },
    {
      "inputs": [
        {
          "internalType": "address",
          "name": "_user",
          "type": "address"
        },
        {
          "internalType": "bool",
          "name": "_canTransfer",
          "type": "bool"
        },
        {
          "internalType": "bool",
          "name": "_canReceive",
          "type": "bool"
        },
        {
          "internalType": "uint256",
          "name": "_dailyLimit",
          "type": "uint256"
        }
      ],
      "name": "setAuthorization",
      "outputs": [],
      "stateMutability": "nonpayable",
      "type": "function"
    },
    {
      "inputs": [],
      "name": "totalUsers",
      "outputs": [
        {
          "internalType": "uint256",
          "name": "",
          "type": "uint256"
        }
      ],
      "stateMutability": "view",
      "type": "function"
    },
    {
      "inputs": [
        {
          "internalType": "address",
          "name": "_newOwner",
          "type": "address"
        }
      ],
      "name": "transferOwnership",
      "outputs": [],
      "stateMutability": "nonpayable",
      "type": "function"
    },
    {
      "inputs": [
        {
          "internalType": "bytes",
          "name": "_newPqcPublicKey",
          "type": "bytes"
        }
      ],
      "name": "updatePublicKey",
      "outputs": [],
      "stateMutability": "nonpayable",
      "type": "function"
    },
    {
      "inputs": [
        {
          "internalType": "address",
          "name": "",
          "type": "address"
        }
      ],
      "name": "users",
      "outputs": [
        {
          "internalType": "address",
          "name": "userAddress",
          "type": "address"
        },
        {
          "internalType": "bytes",
          "name": "pqcPublicKey",
          "type": "bytes"
        },
        {
          "internalType": "bytes32",
          "name": "keyHash",
          "type": "bytes32"
        },
        {
          "internalType": "bool",
          "name": "isActive",
          "type": "bool"
        },
        {
          "internalType": "uint256",
          "name": "registeredAt",
          "type": "uint256"
        },
        {
          "internalType": "uint256",
          "name": "lastUpdated",
          "type": "uint256"
        }
      ],
      "stateMutability": "view",
      "type": "function"
    },
    {
      "inputs": [
        {
          "internalType": "address",
          "name": "_user",
          "type": "address"
        },
        {
          "internalType": "bytes32",
          "name": "_kycHash",
          "type": "bytes32"
        },
        {
          "internalType": "uint256",
          "name": "_validityDays",
          "type": "uint256"
        }
      ],
      "name": "verifyKYC",
      "outputs": [],
      "stateMutability": "nonpayable",
      "type": "function"
    },
    {
      "inputs": [
        {
          "internalType": "address",
          "name": "_user",
          "type": "address"
        },
        {
          "internalType": "bytes",
          "name": "_message",
          "type": "bytes"
        },
        {
          "internalType": "bytes",
          "name": "_signature",
          "type": "bytes"
        }
      ],
      "name": "verifyPQCSignature",
      "outputs": [
        {
          "internalType": "bool",
          "name": "",
          "type": "bool"
        }
      ],
      "stateMutability": "view",
      "type": "function"
    }
  ],
  "devdoc": {
    "details": "Public Key Infrastructure Registry for Interbank Blockchain",
    "kind": "dev",
    "methods": {
      "authorizeBankAddress(address,bool)": {
        "details": "Authorize a bank (only owner)",
        "params": {
          "_authorized": "Authorization status",
          "_bank": "Bank address"
        }
      },
      "batchAuthorizeBanks(address[])": {
        "details": "Batch authorize banks",
        "params": {
          "_banks": "Array of bank addresses"
        }
      },
      "canUserTransfer(address,uint256)": {
        "details": "Check if user can transfer",
        "params": {
          "_amount": "Amount to transfer (wei)",
          "_user": "User address"
        },
        "returns": {
          "_0": "canTransfer True if authorized and within limit"
        }
      },
      "deactivateUser(address)": {
        "details": "Deactivate user account (emergency only)",
        "params": {
          "_user": "User address"
        }
      },
      "getUserByKeyHash(bytes32)": {
        "details": "Get user by key hash",
        "params": {
          "_keyHash": "Hash of public key"
        },
        "returns": {
          "_0": "userAddress User's address"
        }
      },
      "getUserInfo(address)": {
        "details": "Get full user info",
        "params": {
          "_user": "User address"
        },
        "returns": {
          "auth": "Authorization information",
          "identity": "User identity information",
          "kyc": "KYC information"
        }
      },
      "getUserPublicKey(address)": {
        "details": "Get user's PQC public key",
        "params": {
          "_user": "User address"
        },
        "returns": {
          "_0": "publicKey PQC public key bytes"
        }
      },
      "getUserStats()": {
        "details": "Get user statistics",
        "returns": {
          "authorized": "Total users with transfer permission",
          "total": "Total registered users",
          "verified": "Total KYC verified users"
        }
      },
      "isKYCValid(address)": {
        "details": "Check if user's KYC is valid",
        "params": {
          "_user": "User address"
        },
        "returns": {
          "_0": "isValid True if KYC is verified and not expired"
        }
      },
      "recordTransfer(address,uint256)": {
        "details": "Record transfer usage (call from transfer contract)",
        "params": {
          "_amount": "Amount transferred",
          "_user": "User address"
        }
      },
      "registerUser(bytes)": {
        "details": "Register new user with PQC public key",
        "params": {
          "_pqcPublicKey": "Dilithium3 public key (bytes)"
        }
      },
      "revokeKYC(address)": {
        "details": "Revoke user's KYC",
        "params": {
          "_user": "User address"
        }
      },
      "setAuthorization(address,bool,bool,uint256)": {
        "details": "Set user authorization (only authorized banks)",
        "params": {
          "_canReceive": "Can receive transfers",
          "_canTransfer": "Can initiate transfers",
          "_dailyLimit": "Daily transfer limit (wei)",
          "_user": "User address"
        }
      },
      "transferOwnership(address)": {
        "details": "Transfer ownership",
        "params": {
          "_newOwner": "New owner address"
        }
      },
      "updatePublicKey(bytes)": {
        "details": "Update user's PQC public key (key rotation)",
        "params": {
          "_newPqcPublicKey": "New Dilithium3 public key"
        }
      },
      "verifyKYC(address,bytes32,uint256)": {
        "details": "Verify user's KYC (only authorized banks)",
        "params": {
          "_kycHash": "Hash of KYC data (privacy-preserving)",
          "_user": "User address",
          "_validityDays": "Validity period in days"
        }
      },
      "verifyPQCSignature(address,bytes,bytes)": {
        "details": "Verify PQC signature (placeholder - actual verification off-chain via KSM)",
        "params": {
          "_message": "Message that was signed",
          "_signature": "PQC signature",
          "_user": "User address"
        },
        "returns": {
          "_0": "isValid True if signature is valid"
        }
      }
    },
    "title": "PKIRegistry",
    "version": 1
  },
  "evm": {
    "assembly": "    /* \"PKIRegistry.sol\":398:14692  contract PKIRegistry {... */\n  mstore(0x40, 0x80)\n    /* \"PKIRegistry.sol\":3846:3895  constructor() {... */\n  callvalue\n  dup1\n  iszero\n  tag_1\n  jumpi\n  0x00\n  dup1\n  revert\ntag_1:\n  pop\n    /* \"PKIRegistry.sol\":3878:3888  msg.sender */\n  caller\n    /* \"PKIRegistry.sol\":3870:3875  owner */\n  0x05\n  0x00\n    /* \"PKIRegistry.sol\":3870:3888  owner = msg.sender */\n  0x0100\n  exp\n  dup2\n  sload\n  dup2\n  0xffffffffffffffffffffffffffffffffffffffff\n  mul\n  not\n  and\n  swap1\n  dup4\n  0xffffffffffffffffffffffffffffffffffffffff\n  and\n  mul\n  or\n  swap1\n  sstore\n  pop\n    /* \"PKIRegistry.sol\":398:14692  contract PKIRegistry {... */\n  dataSize(sub_0)\n  dup1\n  dataOffset(sub_0)\n  0x00\n  codecopy\n  0x00\n  return\nstop\n\nsub_0: assembly {\n        /* \"PKIRegistry.sol\":398:14692  contract PKIRegistry {... */\n      mstore(0x40, 0x80)\n      callvalue\n      dup1\n      iszero\n      tag_1\n      jumpi\n      0x00\n      dup1\n      revert\n    tag_1:\n      pop\n      jumpi(tag_2, lt(calldatasize, 0x04))\n      shr(0xe0, calldataload(0x00))\n      dup1\n      0x76031448\n      gt\n      tag_27\n      jumpi\n      dup1\n      0xcf0e0f9d\n      gt\n      tag_28\n      jumpi\n      dup1\n      0xcf0e0f9d\n      eq\n      tag_21\n      jumpi\n      dup1\n      0xcfe5e1bb\n      eq\n      tag_22\n      jumpi\n      dup1\n      0xd1f33aa4\n      eq\n      tag_23\n      jumpi\n      dup1\n      0xe7c53764\n      eq\n      tag_24\n      jumpi\n      dup1\n      0xf2fde38b\n      eq\n      tag_25\n      jumpi\n      dup1\n      0xf8505f7b\n      eq\n      tag_26\n      jumpi\n      jump(tag_2)\n    tag_28:\n      dup1\n      0x76031448\n      eq\n      tag_15\n      jumpi\n      dup1\n      0x7eb606e8\n      eq\n      tag_16\n      jumpi\n      dup1\n      0x8da5cb5b\n      eq\n      tag_17\n      jumpi\n      dup1\n      0xa2969820\n      eq\n      tag_18\n      jumpi\n      dup1\n      0xa87430ba\n      eq\n      tag_19\n      jumpi\n      dup1\n      0xbff1f9e1\n      eq\n      tag_20\n      jumpi\n      jump(tag_2)\n    tag_27:\n      dup1\n      0x53f6ad37\n      gt\n      tag_29\n      jumpi\n      dup1\n      0x53f6ad37\n      eq\n      tag_9\n      jumpi\n      dup1\n      0x5b1eab6c\n      eq\n      tag_10\n      jumpi\n      dup1\n      0x6386c1c7\n      eq\n      tag_11\n      jumpi\n      dup1\n      0x648b8765\n      eq\n      tag_12\n      jumpi\n      dup1\n      0x73ac83ef\n      eq\n      tag_13\n      jumpi\n      dup1\n      0x74e66d10\n      eq\n      tag_14\n      jumpi\n      jump(tag_2)\n    tag_29:\n      dup1\n      0x0a38178c\n      eq\n      tag_3\n      jumpi\n      dup1\n      0x11231fe0\n      eq\n      tag_4\n      jumpi\n      dup1\n      0x1a47767b\n      eq\n      tag_5\n      jumpi\n      dup1\n      0x20dd0213\n      eq\n      tag_6\n      jumpi\n      dup1\n      0x39ba645b\n      eq\n      tag_7\n      jumpi\n      dup1\n      0x3a13e1af\n      eq\n      tag_8\n      jumpi\n    tag_2:\n      0x00\n      dup1\n      revert\n        /* \"PKIRegistry.sol\":4081:5325  function registerUser(bytes memory _pqcPublicKey) external userNotExists(msg.sender) {... */\n    tag_3:\n      tag_30\n      0x04\n      dup1\n      calldatasize\n      sub\n      dup2\n      add\n      swap1\n      tag_31\n      swap2\n      swap1\n      tag_32\n      jump\t// in\n    tag_31:\n      tag_33\n      jump\t// in\n    tag_30:\n      stop\n        /* \"PKIRegistry.sol\":11632:11777  function getUserPublicKey(address _user) external view userExists(_user) returns (bytes memory) {... */\n    tag_4:\n      tag_34\n      0x04\n      dup1\n      calldatasize\n      sub\n      dup2\n      add\n      swap1\n      tag_35\n      swap2\n      swap1\n      tag_36\n      jump\t// in\n    tag_35:\n      tag_37\n      jump\t// in\n    tag_34:\n      mload(0x40)\n      tag_38\n      swap2\n      swap1\n      tag_39\n      jump\t// in\n    tag_38:\n      mload(0x40)\n      dup1\n      swap2\n      sub\n      swap1\n      return\n        /* \"PKIRegistry.sol\":14206:14429  function deactivateUser(address _user) external onlyOwner userExists(_user) {... */\n    tag_5:\n      tag_40\n      0x04\n      dup1\n      calldatasize\n      sub\n      dup2\n      add\n      swap1\n      tag_41\n      swap2\n      swap1\n      tag_36\n      jump\t// in\n    tag_41:\n      tag_42\n      jump\t// in\n    tag_40:\n      stop\n        /* \"PKIRegistry.sol\":12859:13493  function verifyPQCSignature(... */\n    tag_6:\n      tag_43\n      0x04\n      dup1\n      calldatasize\n      sub\n      dup2\n      add\n      swap1\n      tag_44\n      swap2\n      swap1\n      tag_45\n      jump\t// in\n    tag_44:\n      tag_46\n      jump\t// in\n    tag_43:\n      mload(0x40)\n      tag_47\n      swap2\n      swap1\n      tag_48\n      jump\t// in\n    tag_47:\n      mload(0x40)\n      dup1\n      swap2\n      sub\n      swap1\n      return\n        /* \"PKIRegistry.sol\":7444:7809  function revokeKYC(address _user) external onlyAuthorizedBank userExists(_user) {... */\n    tag_7:\n      tag_49\n      0x04\n      dup1\n      calldatasize\n      sub\n      dup2\n      add\n      swap1\n      tag_50\n      swap2\n      swap1\n      tag_36\n      jump\t// in\n    tag_50:\n      tag_51\n      jump\t// in\n    tag_49:\n      stop\n        /* \"PKIRegistry.sol\":2046:2101  mapping(address => Authorization) public authorizations */\n    tag_8:\n      tag_52\n      0x04\n      dup1\n      calldatasize\n      sub\n      dup2\n      add\n      swap1\n      tag_53\n      swap2\n      swap1\n      tag_36\n      jump\t// in\n    tag_53:\n      tag_54\n      jump\t// in\n    tag_52:\n      mload(0x40)\n      tag_55\n      swap6\n      swap5\n      swap4\n      swap3\n      swap2\n      swap1\n      tag_56\n      jump\t// in\n    tag_55:\n      mload(0x40)\n      dup1\n      swap2\n      sub\n      swap1\n      return\n        /* \"PKIRegistry.sol\":13707:14044  function getUserStats() external view returns (... */\n    tag_9:\n      tag_57\n      tag_58\n      jump\t// in\n    tag_57:\n      mload(0x40)\n      tag_59\n      swap4\n      swap3\n      swap2\n      swap1\n      tag_60\n      jump\t// in\n    tag_59:\n      mload(0x40)\n      dup1\n      swap2\n      sub\n      swap1\n      return\n        /* \"PKIRegistry.sol\":11201:11439  function batchAuthorizeBanks(address[] memory _banks) external onlyOwner {... */\n    tag_10:\n      tag_61\n      0x04\n      dup1\n      calldatasize\n      sub\n      dup2\n      add\n      swap1\n      tag_62\n      swap2\n      swap1\n      tag_63\n      jump\t// in\n    tag_62:\n      tag_64\n      jump\t// in\n    tag_61:\n      stop\n        /* \"PKIRegistry.sol\":12267:12577  function getUserInfo(address _user) external view userExists(_user) returns (... */\n    tag_11:\n      tag_65\n      0x04\n      dup1\n      calldatasize\n      sub\n      dup2\n      add\n      swap1\n      tag_66\n      swap2\n      swap1\n      tag_36\n      jump\t// in\n    tag_66:\n      tag_67\n      jump\t// in\n    tag_65:\n      mload(0x40)\n      tag_68\n      swap4\n      swap3\n      swap2\n      swap1\n      tag_69\n      jump\t// in\n    tag_68:\n      mload(0x40)\n      dup1\n      swap2\n      sub\n      swap1\n      return\n        /* \"PKIRegistry.sol\":11920:12046  function getUserByKeyHash(bytes32 _keyHash) external view returns (address) {... */\n    tag_12:\n      tag_70\n      0x04\n      dup1\n      calldatasize\n      sub\n      dup2\n      add\n      swap1\n      tag_71\n      swap2\n      swap1\n      tag_72\n      jump\t// in\n    tag_71:\n      tag_73\n      jump\t// in\n    tag_70:\n      mload(0x40)\n      tag_74\n      swap2\n      swap1\n      tag_75\n      jump\t// in\n    tag_74:\n      mload(0x40)\n      dup1\n      swap2\n      sub\n      swap1\n      return\n        /* \"PKIRegistry.sol\":10125:10652  function recordTransfer(address _user, uint256 _amount) external {... */\n    tag_13:\n      tag_76\n      0x04\n      dup1\n      calldatasize\n      sub\n      dup2\n      add\n      swap1\n      tag_77\n      swap2\n      swap1\n      tag_78\n      jump\t// in\n    tag_77:\n      tag_79\n      jump\t// in\n    tag_76:\n      stop\n        /* \"PKIRegistry.sol\":5464:6400  function updatePublicKey(bytes memory _newPqcPublicKey) external userExists(msg.sender) {... */\n    tag_14:\n      tag_80\n      0x04\n      dup1\n      calldatasize\n      sub\n      dup2\n      add\n      swap1\n      tag_81\n      swap2\n      swap1\n      tag_32\n      jump\t// in\n    tag_81:\n      tag_82\n      jump\t// in\n    tag_80:\n      stop\n        /* \"PKIRegistry.sol\":9307:9961  function canUserTransfer(address _user, uint256 _amount) public view returns (bool) {... */\n    tag_15:\n      tag_83\n      0x04\n      dup1\n      calldatasize\n      sub\n      dup2\n      add\n      swap1\n      tag_84\n      swap2\n      swap1\n      tag_78\n      jump\t// in\n    tag_84:\n      tag_85\n      jump\t// in\n    tag_83:\n      mload(0x40)\n      tag_86\n      swap2\n      swap1\n      tag_48\n      jump\t// in\n    tag_86:\n      mload(0x40)\n      dup1\n      swap2\n      sub\n      swap1\n      return\n        /* \"PKIRegistry.sol\":1949:1994  mapping(address => KYCInfo) public kycRecords */\n    tag_16:\n      tag_87\n      0x04\n      dup1\n      calldatasize\n      sub\n      dup2\n      add\n      swap1\n      tag_88\n      swap2\n      swap1\n      tag_36\n      jump\t// in\n    tag_88:\n      tag_89\n      jump\t// in\n    tag_87:\n      mload(0x40)\n      tag_90\n      swap6\n      swap5\n      swap4\n      swap3\n      swap2\n      swap1\n      tag_91\n      jump\t// in\n    tag_90:\n      mload(0x40)\n      dup1\n      swap2\n      sub\n      swap1\n      return\n        /* \"PKIRegistry.sol\":2351:2371  address public owner */\n    tag_17:\n      tag_92\n      tag_93\n      jump\t// in\n    tag_92:\n      mload(0x40)\n      tag_94\n      swap2\n      swap1\n      tag_75\n      jump\t// in\n    tag_94:\n      mload(0x40)\n      dup1\n      swap2\n      sub\n      swap1\n      return\n        /* \"PKIRegistry.sol\":2271:2318  mapping(address => bool) public authorizedBanks */\n    tag_18:\n      tag_95\n      0x04\n      dup1\n      calldatasize\n      sub\n      dup2\n      add\n      swap1\n      tag_96\n      swap2\n      swap1\n      tag_36\n      jump\t// in\n    tag_96:\n      tag_97\n      jump\t// in\n    tag_95:\n      mload(0x40)\n      tag_98\n      swap2\n      swap1\n      tag_48\n      jump\t// in\n    tag_98:\n      mload(0x40)\n      dup1\n      swap2\n      sub\n      swap1\n      return\n        /* \"PKIRegistry.sol\":1858:1903  mapping(address => UserIdentity) public users */\n    tag_19:\n      tag_99\n      0x04\n      dup1\n      calldatasize\n      sub\n      dup2\n      add\n      swap1\n      tag_100\n      swap2\n      swap1\n      tag_36\n      jump\t// in\n    tag_100:\n      tag_101\n      jump\t// in\n    tag_99:\n      mload(0x40)\n      tag_102\n      swap7\n      swap6\n      swap5\n      swap4\n      swap3\n      swap2\n      swap1\n      tag_103\n      jump\t// in\n    tag_102:\n      mload(0x40)\n      dup1\n      swap2\n      sub\n      swap1\n      return\n        /* \"PKIRegistry.sol\":2412:2437  uint256 public totalUsers */\n    tag_20:\n      tag_104\n      tag_105\n      jump\t// in\n    tag_104:\n      mload(0x40)\n      tag_106\n      swap2\n      swap1\n      tag_107\n      jump\t// in\n    tag_106:\n      mload(0x40)\n      dup1\n      swap2\n      sub\n      swap1\n      return\n        /* \"PKIRegistry.sol\":7972:8155  function isKYCValid(address _user) public view returns (bool) {... */\n    tag_21:\n      tag_108\n      0x04\n      dup1\n      calldatasize\n      sub\n      dup2\n      add\n      swap1\n      tag_109\n      swap2\n      swap1\n      tag_36\n      jump\t// in\n    tag_109:\n      tag_110\n      jump\t// in\n    tag_108:\n      mload(0x40)\n      tag_111\n      swap2\n      swap1\n      tag_48\n      jump\t// in\n    tag_111:\n      mload(0x40)\n      dup1\n      swap2\n      sub\n      swap1\n      return\n        /* \"PKIRegistry.sol\":2168:2219  mapping(bytes32 => address) public keyHashToAddress */\n    tag_22:\n      tag_112\n      0x04\n      dup1\n      calldatasize\n      sub\n      dup2\n      add\n      swap1\n      tag_113\n      swap2\n      swap1\n      tag_72\n      jump\t// in\n    tag_113:\n      tag_114\n      jump\t// in\n    tag_112:\n      mload(0x40)\n      tag_115\n      swap2\n      swap1\n      tag_75\n      jump\t// in\n    tag_115:\n      mload(0x40)\n      dup1\n      swap2\n      sub\n      swap1\n      return\n        /* \"PKIRegistry.sol\":10850:11096  function authorizeBankAddress(address _bank, bool _authorized) external onlyOwner {... */\n    tag_23:\n      tag_116\n      0x04\n      dup1\n      calldatasize\n      sub\n      dup2\n      add\n      swap1\n      tag_117\n      swap2\n      swap1\n      tag_118\n      jump\t// in\n    tag_117:\n      tag_119\n      jump\t// in\n    tag_116:\n      stop\n        /* \"PKIRegistry.sol\":6675:7355  function verifyKYC(... */\n    tag_24:\n      tag_120\n      0x04\n      dup1\n      calldatasize\n      sub\n      dup2\n      add\n      swap1\n      tag_121\n      swap2\n      swap1\n      tag_122\n      jump\t// in\n    tag_121:\n      tag_123\n      jump\t// in\n    tag_120:\n      stop\n        /* \"PKIRegistry.sol\":14528:14690  function transferOwnership(address _newOwner) external onlyOwner {... */\n    tag_25:\n      tag_124\n      0x04\n      dup1\n      calldatasize\n      sub\n      dup2\n      add\n      swap1\n      tag_125\n      swap2\n      swap1\n      tag_36\n      jump\t// in\n    tag_125:\n      tag_126\n      jump\t// in\n    tag_124:\n      stop\n        /* \"PKIRegistry.sol\":8483:9099  function setAuthorization(... */\n    tag_26:\n      tag_127\n      0x04\n      dup1\n      calldatasize\n      sub\n      dup2\n      add\n      swap1\n      tag_128\n      swap2\n      swap1\n      tag_129\n      jump\t// in\n    tag_128:\n      tag_130\n      jump\t// in\n    tag_127:\n      stop\n        /* \"PKIRegistry.sol\":4081:5325  function registerUser(bytes memory _pqcPublicKey) external userNotExists(msg.sender) {... */\n    tag_33:\n        /* \"PKIRegistry.sol\":4154:4164  msg.sender */\n      caller\n        /* \"PKIRegistry.sol\":3723:3728  users */\n      0x00\n        /* \"PKIRegistry.sol\":3723:3735  users[_user] */\n      dup1\n        /* \"PKIRegistry.sol\":3729:3734  _user */\n      dup3\n        /* \"PKIRegistry.sol\":3723:3735  users[_user] */\n      0xffffffffffffffffffffffffffffffffffffffff\n      and\n      0xffffffffffffffffffffffffffffffffffffffff\n      and\n      dup2\n      mstore\n      0x20\n      add\n      swap1\n      dup2\n      mstore\n      0x20\n      add\n      0x00\n      keccak256\n        /* \"PKIRegistry.sol\":3723:3744  users[_user].isActive */\n      0x03\n      add\n      0x00\n      swap1\n      sload\n      swap1\n      0x0100\n      exp\n      swap1\n      div\n      0xff\n      and\n        /* \"PKIRegistry.sol\":3722:3744  !users[_user].isActive */\n      iszero\n        /* \"PKIRegistry.sol\":3714:3772  require(!users[_user].isActive, \"User already registered\") */\n      tag_132\n      jumpi\n      mload(0x40)\n      0x08c379a000000000000000000000000000000000000000000000000000000000\n      dup2\n      mstore\n      0x04\n      add\n      tag_133\n      swap1\n      tag_134\n      jump\t// in\n    tag_133:\n      mload(0x40)\n      dup1\n      swap2\n      sub\n      swap1\n      revert\n    tag_132:\n        /* \"PKIRegistry.sol\":4207:4208  0 */\n      0x00\n        /* \"PKIRegistry.sol\":4184:4197  _pqcPublicKey */\n      dup3\n        /* \"PKIRegistry.sol\":4184:4204  _pqcPublicKey.length */\n      mload\n        /* \"PKIRegistry.sol\":4184:4208  _pqcPublicKey.length > 0 */\n      gt\n        /* \"PKIRegistry.sol\":4176:4229  require(_pqcPublicKey.length > 0, \"Empty public key\") */\n      tag_136\n      jumpi\n      mload(0x40)\n      0x08c379a000000000000000000000000000000000000000000000000000000000\n      dup2\n      mstore\n      0x04\n      add\n      tag_137\n      swap1\n      tag_138\n      jump\t// in\n    tag_137:\n      mload(0x40)\n      dup1\n      swap2\n      sub\n      swap1\n      revert\n    tag_136:\n        /* \"PKIRegistry.sol\":4271:4275  3000 */\n      0x0bb8\n        /* \"PKIRegistry.sol\":4247:4260  _pqcPublicKey */\n      dup3\n        /* \"PKIRegistry.sol\":4247:4267  _pqcPublicKey.length */\n      mload\n        /* \"PKIRegistry.sol\":4247:4275  _pqcPublicKey.length <= 3000 */\n      gt\n      iszero\n        /* \"PKIRegistry.sol\":4239:4300  require(_pqcPublicKey.length <= 3000, \"Public key too large\") */\n      tag_139\n      jumpi\n      mload(0x40)\n      0x08c379a000000000000000000000000000000000000000000000000000000000\n      dup2\n      mstore\n      0x04\n      add\n      tag_140\n      swap1\n      tag_141\n      jump\t// in\n    tag_140:\n      mload(0x40)\n      dup1\n      swap2\n      sub\n      swap1\n      revert\n    tag_139:\n        /* \"PKIRegistry.sol\":4345:4360  bytes32 keyHash */\n      0x00\n        /* \"PKIRegistry.sol\":4373:4386  _pqcPublicKey */\n      dup3\n        /* \"PKIRegistry.sol\":4363:4387  keccak256(_pqcPublicKey) */\n      dup1\n      mload\n      swap1\n      0x20\n      add\n      keccak256\n        /* \"PKIRegistry.sol\":4345:4387  bytes32 keyHash = keccak256(_pqcPublicKey) */\n      swap1\n      pop\n        /* \"PKIRegistry.sol\":4442:4443  0 */\n      0x00\n        /* \"PKIRegistry.sol\":4405:4444  keyHashToAddress[keyHash] == address(0) */\n      0xffffffffffffffffffffffffffffffffffffffff\n      and\n        /* \"PKIRegistry.sol\":4405:4421  keyHashToAddress */\n      0x03\n        /* \"PKIRegistry.sol\":4405:4430  keyHashToAddress[keyHash] */\n      0x00\n        /* \"PKIRegistry.sol\":4422:4429  keyHash */\n      dup4\n        /* \"PKIRegistry.sol\":4405:4430  keyHashToAddress[keyHash] */\n      dup2\n      mstore\n      0x20\n      add\n      swap1\n      dup2\n      mstore\n      0x20\n      add\n      0x00\n      keccak256\n      0x00\n      swap1\n      sload\n      swap1\n      0x0100\n      exp\n      swap1\n      div\n      0xffffffffffffffffffffffffffffffffffffffff\n      and\n        /* \"PKIRegistry.sol\":4405:4444  keyHashToAddress[keyHash] == address(0) */\n      0xffffffffffffffffffffffffffffffffffffffff\n      and\n      eq\n        /* \"PKIRegistry.sol\":4397:4478  require(keyHashToAddress[keyHash] == address(0), \"Public key already registered\") */\n      tag_142\n      jumpi\n      mload(0x40)\n      0x08c379a000000000000000000000000000000000000000000000000000000000\n      dup2\n      mstore\n      0x04\n      add\n      tag_143\n      swap1\n      tag_144\n      jump\t// in\n    tag_143:\n      mload(0x40)\n      dup1\n      swap2\n      sub\n      swap1\n      revert\n    tag_142:\n        /* \"PKIRegistry.sol\":4548:4793  UserIdentity({... */\n      mload(0x40)\n      dup1\n      0xc0\n      add\n      0x40\n      mstore\n      dup1\n        /* \"PKIRegistry.sol\":4588:4598  msg.sender */\n      caller\n        /* \"PKIRegistry.sol\":4548:4793  UserIdentity({... */\n      0xffffffffffffffffffffffffffffffffffffffff\n      and\n      dup2\n      mstore\n      0x20\n      add\n        /* \"PKIRegistry.sol\":4626:4639  _pqcPublicKey */\n      dup5\n        /* \"PKIRegistry.sol\":4548:4793  UserIdentity({... */\n      dup2\n      mstore\n      0x20\n      add\n        /* \"PKIRegistry.sol\":4662:4669  keyHash */\n      dup3\n        /* \"PKIRegistry.sol\":4548:4793  UserIdentity({... */\n      dup2\n      mstore\n      0x20\n      add\n        /* \"PKIRegistry.sol\":4693:4697  true */\n      0x01\n        /* \"PKIRegistry.sol\":4548:4793  UserIdentity({... */\n      iszero\n      iszero\n      dup2\n      mstore\n      0x20\n      add\n        /* \"PKIRegistry.sol\":4725:4740  block.timestamp */\n      timestamp\n        /* \"PKIRegistry.sol\":4548:4793  UserIdentity({... */\n      dup2\n      mstore\n      0x20\n      add\n        /* \"PKIRegistry.sol\":4767:4782  block.timestamp */\n      timestamp\n        /* \"PKIRegistry.sol\":4548:4793  UserIdentity({... */\n      dup2\n      mstore\n      pop\n        /* \"PKIRegistry.sol\":4528:4533  users */\n      0x00\n        /* \"PKIRegistry.sol\":4528:4545  users[msg.sender] */\n      dup1\n        /* \"PKIRegistry.sol\":4534:4544  msg.sender */\n      caller\n        /* \"PKIRegistry.sol\":4528:4545  users[msg.sender] */\n      0xffffffffffffffffffffffffffffffffffffffff\n      and\n      0xffffffffffffffffffffffffffffffffffffffff\n      and\n      dup2\n      mstore\n      0x20\n      add\n      swap1\n      dup2\n      mstore\n      0x20\n      add\n      0x00\n      keccak256\n        /* \"PKIRegistry.sol\":4528:4793  users[msg.sender] = UserIdentity({... */\n      0x00\n      dup3\n      add\n      mload\n      dup2\n      0x00\n      add\n      exp(0x0100, 0x00)\n      dup2\n      sload\n      dup2\n      0xffffffffffffffffffffffffffffffffffffffff\n      mul\n      not\n      and\n      swap1\n      dup4\n      0xffffffffffffffffffffffffffffffffffffffff\n      and\n      mul\n      or\n      swap1\n      sstore\n      pop\n      0x20\n      dup3\n      add\n      mload\n      dup2\n      0x01\n      add\n      swap1\n      dup1\n      mload\n      swap1\n      0x20\n      add\n      swap1\n      tag_145\n      swap3\n      swap2\n      swap1\n      tag_146\n      jump\t// in\n    tag_145:\n      pop\n      0x40\n      dup3\n      add\n      mload\n      dup2\n      0x02\n      add\n      sstore\n      0x60\n      dup3\n      add\n      mload\n      dup2\n      0x03\n      add\n      exp(0x0100, 0x00)\n      dup2\n      sload\n      dup2\n      0xff\n      mul\n      not\n      and\n      swap1\n      dup4\n      iszero\n      iszero\n      mul\n      or\n      swap1\n      sstore\n      pop\n      0x80\n      dup3\n      add\n      mload\n      dup2\n      0x04\n      add\n      sstore\n      0xa0\n      dup3\n      add\n      mload\n      dup2\n      0x05\n      add\n      sstore\n      swap1\n      pop\n      pop\n        /* \"PKIRegistry.sol\":4875:4885  msg.sender */\n      caller\n        /* \"PKIRegistry.sol\":4847:4863  keyHashToAddress */\n      0x03\n        /* \"PKIRegistry.sol\":4847:4872  keyHashToAddress[keyHash] */\n      0x00\n        /* \"PKIRegistry.sol\":4864:4871  keyHash */\n      dup4\n        /* \"PKIRegistry.sol\":4847:4872  keyHashToAddress[keyHash] */\n      dup2\n      mstore\n      0x20\n      add\n      swap1\n      dup2\n      mstore\n      0x20\n      add\n      0x00\n      keccak256\n      0x00\n        /* \"PKIRegistry.sol\":4847:4885  keyHashToAddress[keyHash] = msg.sender */\n      0x0100\n      exp\n      dup2\n      sload\n      dup2\n      0xffffffffffffffffffffffffffffffffffffffff\n      mul\n      not\n      and\n      swap1\n      dup4\n      0xffffffffffffffffffffffffffffffffffffffff\n      and\n      mul\n      or\n      swap1\n      sstore\n      pop\n        /* \"PKIRegistry.sol\":4991:5211  Authorization({... */\n      mload(0x40)\n      dup1\n      0xa0\n      add\n      0x40\n      mstore\n      dup1\n        /* \"PKIRegistry.sol\":5032:5037  false */\n      0x00\n        /* \"PKIRegistry.sol\":4991:5211  Authorization({... */\n      iszero\n      iszero\n      dup2\n      mstore\n      0x20\n      add\n        /* \"PKIRegistry.sol\":5063:5067  true */\n      0x01\n        /* \"PKIRegistry.sol\":4991:5211  Authorization({... */\n      iszero\n      iszero\n      dup2\n      mstore\n      0x20\n      add\n        /* \"PKIRegistry.sol\":5120:5121  0 */\n      0x00\n        /* \"PKIRegistry.sol\":4991:5211  Authorization({... */\n      dup2\n      mstore\n      0x20\n      add\n        /* \"PKIRegistry.sol\":5146:5147  0 */\n      0x00\n        /* \"PKIRegistry.sol\":4991:5211  Authorization({... */\n      dup2\n      mstore\n      0x20\n      add\n        /* \"PKIRegistry.sol\":5194:5200  1 days */\n      0x015180\n        /* \"PKIRegistry.sol\":5176:5191  block.timestamp */\n      timestamp\n        /* \"PKIRegistry.sol\":5176:5200  block.timestamp / 1 days */\n      tag_147\n      swap2\n      swap1\n      tag_148\n      jump\t// in\n    tag_147:\n        /* \"PKIRegistry.sol\":4991:5211  Authorization({... */\n      dup2\n      mstore\n      pop\n        /* \"PKIRegistry.sol\":4962:4976  authorizations */\n      0x02\n        /* \"PKIRegistry.sol\":4962:4988  authorizations[msg.sender] */\n      0x00\n        /* \"PKIRegistry.sol\":4977:4987  msg.sender */\n      caller\n        /* \"PKIRegistry.sol\":4962:4988  authorizations[msg.sender] */\n      0xffffffffffffffffffffffffffffffffffffffff\n      and\n      0xffffffffffffffffffffffffffffffffffffffff\n      and\n      dup2\n      mstore\n      0x20\n      add\n      swap1\n      dup2\n      mstore\n      0x20\n      add\n      0x00\n      keccak256\n        /* \"PKIRegistry.sol\":4962:5211  authorizations[msg.sender] = Authorization({... */\n      0x00\n      dup3\n      add\n      mload\n      dup2\n      0x00\n      add\n      exp(0x0100, 0x00)\n      dup2\n      sload\n      dup2\n      0xff\n      mul\n      not\n      and\n      swap1\n      dup4\n      iszero\n      iszero\n      mul\n      or\n      swap1\n      sstore\n      pop\n      0x20\n      dup3\n      add\n      mload\n      dup2\n      0x00\n      add\n      exp(0x0100, 0x01)\n      dup2\n      sload\n      dup2\n      0xff\n      mul\n      not\n      and\n      swap1\n      dup4\n      iszero\n      iszero\n      mul\n      or\n      swap1\n      sstore\n      pop\n      0x40\n      dup3\n      add\n      mload\n      dup2\n      0x01\n      add\n      sstore\n      0x60\n      dup3\n      add\n      mload\n      dup2\n      0x02\n      add\n      sstore\n      0x80\n      dup3\n      add\n      mload\n      dup2\n      0x03\n      add\n      sstore\n      swap1\n      pop\n      pop\n        /* \"PKIRegistry.sol\":5230:5240  totalUsers */\n      0x06\n      0x00\n        /* \"PKIRegistry.sol\":5230:5242  totalUsers++ */\n      dup2\n      sload\n      dup1\n      swap3\n      swap2\n      swap1\n      tag_149\n      swap1\n      tag_150\n      jump\t// in\n    tag_149:\n      swap2\n      swap1\n      pop\n      sstore\n      pop\n        /* \"PKIRegistry.sol\":5281:5291  msg.sender */\n      caller\n        /* \"PKIRegistry.sol\":5266:5318  UserRegistered(msg.sender, keyHash, block.timestamp) */\n      0xffffffffffffffffffffffffffffffffffffffff\n      and\n      0xe932b8f225535323212b28055402c985d3c06bca70a0c4aaa52ee2bf155dc2ac\n        /* \"PKIRegistry.sol\":5293:5300  keyHash */\n      dup3\n        /* \"PKIRegistry.sol\":5302:5317  block.timestamp */\n      timestamp\n        /* \"PKIRegistry.sol\":5266:5318  UserRegistered(msg.sender, keyHash, block.timestamp) */\n      mload(0x40)\n      tag_151\n      swap3\n      swap2\n      swap1\n      tag_152\n      jump\t// in\n    tag_151:\n      mload(0x40)\n      dup1\n      swap2\n      sub\n      swap1\n      log2\n        /* \"PKIRegistry.sol\":4166:5325  {... */\n      pop\n        /* \"PKIRegistry.sol\":4081:5325  function registerUser(bytes memory _pqcPublicKey) external userNotExists(msg.sender) {... */\n      pop\n      pop\n      jump\t// out\n        /* \"PKIRegistry.sol\":11632:11777  function getUserPublicKey(address _user) external view userExists(_user) returns (bytes memory) {... */\n    tag_37:\n        /* \"PKIRegistry.sol\":11714:11726  bytes memory */\n      0x60\n        /* \"PKIRegistry.sol\":11698:11703  _user */\n      dup2\n        /* \"PKIRegistry.sol\":3593:3598  users */\n      0x00\n        /* \"PKIRegistry.sol\":3593:3605  users[_user] */\n      dup1\n        /* \"PKIRegistry.sol\":3599:3604  _user */\n      dup3\n        /* \"PKIRegistry.sol\":3593:3605  users[_user] */\n      0xffffffffffffffffffffffffffffffffffffffff\n      and\n      0xffffffffffffffffffffffffffffffffffffffff\n      and\n      dup2\n      mstore\n      0x20\n      add\n      swap1\n      dup2\n      mstore\n      0x20\n      add\n      0x00\n      keccak256\n        /* \"PKIRegistry.sol\":3593:3614  users[_user].isActive */\n      0x03\n      add\n      0x00\n      swap1\n      sload\n      swap1\n      0x0100\n      exp\n      swap1\n      div\n      0xff\n      and\n        /* \"PKIRegistry.sol\":3585:3638  require(users[_user].isActive, \"User not registered\") */\n      tag_154\n      jumpi\n      mload(0x40)\n      0x08c379a000000000000000000000000000000000000000000000000000000000\n      dup2\n      mstore\n      0x04\n      add\n      tag_155\n      swap1\n      tag_156\n      jump\t// in\n    tag_155:\n      mload(0x40)\n      dup1\n      swap2\n      sub\n      swap1\n      revert\n    tag_154:\n        /* \"PKIRegistry.sol\":11745:11750  users */\n      0x00\n        /* \"PKIRegistry.sol\":11745:11757  users[_user] */\n      dup1\n        /* \"PKIRegistry.sol\":11751:11756  _user */\n      dup5\n        /* \"PKIRegistry.sol\":11745:11757  users[_user] */\n      0xffffffffffffffffffffffffffffffffffffffff\n      and\n      0xffffffffffffffffffffffffffffffffffffffff\n      and\n      dup2\n      mstore\n      0x20\n      add\n      swap1\n      dup2\n      mstore\n      0x20\n      add\n      0x00\n      keccak256\n        /* \"PKIRegistry.sol\":11745:11770  users[_user].pqcPublicKey */\n      0x01\n      add\n        /* \"PKIRegistry.sol\":11738:11770  return users[_user].pqcPublicKey */\n      dup1\n      sload\n      tag_158\n      swap1\n      tag_159\n      jump\t// in\n    tag_158:\n      dup1\n      0x1f\n      add\n      0x20\n      dup1\n      swap2\n      div\n      mul\n      0x20\n      add\n      mload(0x40)\n      swap1\n      dup2\n      add\n      0x40\n      mstore\n      dup1\n      swap3\n      swap2\n      swap1\n      dup2\n      dup2\n      mstore\n      0x20\n      add\n      dup3\n      dup1\n      sload\n      tag_160\n      swap1\n      tag_159\n      jump\t// in\n    tag_160:\n      dup1\n      iszero\n      tag_161\n      jumpi\n      dup1\n      0x1f\n      lt\n      tag_162\n      jumpi\n      0x0100\n      dup1\n      dup4\n      sload\n      div\n      mul\n      dup4\n      mstore\n      swap2\n      0x20\n      add\n      swap2\n      jump(tag_161)\n    tag_162:\n      dup3\n      add\n      swap2\n      swap1\n      0x00\n      mstore\n      keccak256(0x00, 0x20)\n      swap1\n    tag_163:\n      dup2\n      sload\n      dup2\n      mstore\n      swap1\n      0x01\n      add\n      swap1\n      0x20\n      add\n      dup1\n      dup4\n      gt\n      tag_163\n      jumpi\n      dup3\n      swap1\n      sub\n      0x1f\n      and\n      dup3\n      add\n      swap2\n    tag_161:\n      pop\n      pop\n      pop\n      pop\n      pop\n      swap2\n      pop\n        /* \"PKIRegistry.sol\":11632:11777  function getUserPublicKey(address _user) external view userExists(_user) returns (bytes memory) {... */\n      pop\n      swap2\n      swap1\n      pop\n      jump\t// out\n        /* \"PKIRegistry.sol\":14206:14429  function deactivateUser(address _user) external onlyOwner userExists(_user) {... */\n    tag_42:\n        /* \"PKIRegistry.sol\":3364:3369  owner */\n      0x05\n      0x00\n      swap1\n      sload\n      swap1\n      0x0100\n      exp\n      swap1\n      div\n      0xffffffffffffffffffffffffffffffffffffffff\n      and\n        /* \"PKIRegistry.sol\":3350:3369  msg.sender == owner */\n      0xffffffffffffffffffffffffffffffffffffffff\n      and\n        /* \"PKIRegistry.sol\":3350:3360  msg.sender */\n      caller\n        /* \"PKIRegistry.sol\":3350:3369  msg.sender == owner */\n      0xffffffffffffffffffffffffffffffffffffffff\n      and\n      eq\n        /* \"PKIRegistry.sol\":3342:3384  require(msg.sender == owner, \"Only owner\") */\n      tag_165\n      jumpi\n      mload(0x40)\n      0x08c379a000000000000000000000000000000000000000000000000000000000\n      dup2\n      mstore\n      0x04\n      add\n      tag_166\n      swap1\n      tag_167\n      jump\t// in\n    tag_166:\n      mload(0x40)\n      dup1\n      swap2\n      sub\n      swap1\n      revert\n    tag_165:\n        /* \"PKIRegistry.sol\":14275:14280  _user */\n      dup1\n        /* \"PKIRegistry.sol\":3593:3598  users */\n      0x00\n        /* \"PKIRegistry.sol\":3593:3605  users[_user] */\n      dup1\n        /* \"PKIRegistry.sol\":3599:3604  _user */\n      dup3\n        /* \"PKIRegistry.sol\":3593:3605  users[_user] */\n      0xffffffffffffffffffffffffffffffffffffffff\n      and\n      0xffffffffffffffffffffffffffffffffffffffff\n      and\n      dup2\n      mstore\n      0x20\n      add\n      swap1\n      dup2\n      mstore\n      0x20\n      add\n      0x00\n      keccak256\n        /* \"PKIRegistry.sol\":3593:3614  users[_user].isActive */\n      0x03\n      add\n      0x00\n      swap1\n      sload\n      swap1\n      0x0100\n      exp\n      swap1\n      div\n      0xff\n      and\n        /* \"PKIRegistry.sol\":3585:3638  require(users[_user].isActive, \"User not registered\") */\n      tag_169\n      jumpi\n      mload(0x40)\n      0x08c379a000000000000000000000000000000000000000000000000000000000\n      dup2\n      mstore\n      0x04\n      add\n      tag_170\n      swap1\n      tag_156\n      jump\t// in\n    tag_170:\n      mload(0x40)\n      dup1\n      swap2\n      sub\n      swap1\n      revert\n    tag_169:\n        /* \"PKIRegistry.sol\":14316:14321  false */\n      0x00\n        /* \"PKIRegistry.sol\":14292:14297  users */\n      dup1\n        /* \"PKIRegistry.sol\":14292:14304  users[_user] */\n      0x00\n        /* \"PKIRegistry.sol\":14298:14303  _user */\n      dup5\n        /* \"PKIRegistry.sol\":14292:14304  users[_user] */\n      0xffffffffffffffffffffffffffffffffffffffff\n      and\n      0xffffffffffffffffffffffffffffffffffffffff\n      and\n      dup2\n      mstore\n      0x20\n      add\n      swap1\n      dup2\n      mstore\n      0x20\n      add\n      0x00\n      keccak256\n        /* \"PKIRegistry.sol\":14292:14313  users[_user].isActive */\n      0x03\n      add\n      0x00\n        /* \"PKIRegistry.sol\":14292:14321  users[_user].isActive = false */\n      0x0100\n      exp\n      dup2\n      sload\n      dup2\n      0xff\n      mul\n      not\n      and\n      swap1\n      dup4\n      iszero\n      iszero\n      mul\n      or\n      swap1\n      sstore\n      pop\n        /* \"PKIRegistry.sol\":14367:14372  false */\n      0x00\n        /* \"PKIRegistry.sol\":14331:14345  authorizations */\n      0x02\n        /* \"PKIRegistry.sol\":14331:14352  authorizations[_user] */\n      0x00\n        /* \"PKIRegistry.sol\":14346:14351  _user */\n      dup5\n        /* \"PKIRegistry.sol\":14331:14352  authorizations[_user] */\n      0xffffffffffffffffffffffffffffffffffffffff\n      and\n      0xffffffffffffffffffffffffffffffffffffffff\n      and\n      dup2\n      mstore\n      0x20\n      add\n      swap1\n      dup2\n      mstore\n      0x20\n      add\n      0x00\n      keccak256\n        /* \"PKIRegistry.sol\":14331:14364  authorizations[_user].canTransfer */\n      0x00\n      add\n      0x00\n        /* \"PKIRegistry.sol\":14331:14372  authorizations[_user].canTransfer = false */\n      0x0100\n      exp\n      dup2\n      sload\n      dup2\n      0xff\n      mul\n      not\n      and\n      swap1\n      dup4\n      iszero\n      iszero\n      mul\n      or\n      swap1\n      sstore\n      pop\n        /* \"PKIRegistry.sol\":14417:14422  false */\n      0x00\n        /* \"PKIRegistry.sol\":14382:14396  authorizations */\n      0x02\n        /* \"PKIRegistry.sol\":14382:14403  authorizations[_user] */\n      0x00\n        /* \"PKIRegistry.sol\":14397:14402  _user */\n      dup5\n        /* \"PKIRegistry.sol\":14382:14403  authorizations[_user] */\n      0xffffffffffffffffffffffffffffffffffffffff\n      and\n      0xffffffffffffffffffffffffffffffffffffffff\n      and\n      dup2\n      mstore\n      0x20\n      add\n      swap1\n      dup2\n      mstore\n      0x20\n      add\n      0x00\n      keccak256\n        /* \"PKIRegistry.sol\":14382:14414  authorizations[_user].canReceive */\n      0x00\n      add\n      0x01\n        /* \"PKIRegistry.sol\":14382:14422  authorizations[_user].canReceive = false */\n      0x0100\n      exp\n      dup2\n      sload\n      dup2\n      0xff\n      mul\n      not\n      and\n      swap1\n      dup4\n      iszero\n      iszero\n      mul\n      or\n      swap1\n      sstore\n      pop\n        /* \"PKIRegistry.sol\":3394:3395  _ */\n      pop\n        /* \"PKIRegistry.sol\":14206:14429  function deactivateUser(address _user) external onlyOwner userExists(_user) {... */\n      pop\n      jump\t// out\n        /* \"PKIRegistry.sol\":12859:13493  function verifyPQCSignature(... */\n    tag_46:\n        /* \"PKIRegistry.sol\":13021:13025  bool */\n      0x00\n        /* \"PKIRegistry.sol\":13005:13010  _user */\n      dup4\n        /* \"PKIRegistry.sol\":3593:3598  users */\n      0x00\n        /* \"PKIRegistry.sol\":3593:3605  users[_user] */\n      dup1\n        /* \"PKIRegistry.sol\":3599:3604  _user */\n      dup3\n        /* \"PKIRegistry.sol\":3593:3605  users[_user] */\n      0xffffffffffffffffffffffffffffffffffffffff\n      and\n      0xffffffffffffffffffffffffffffffffffffffff\n      and\n      dup2\n      mstore\n      0x20\n      add\n      swap1\n      dup2\n      mstore\n      0x20\n      add\n      0x00\n      keccak256\n        /* \"PKIRegistry.sol\":3593:3614  users[_user].isActive */\n      0x03\n      add\n      0x00\n      swap1\n      sload\n      swap1\n      0x0100\n      exp\n      swap1\n      div\n      0xff\n      and\n        /* \"PKIRegistry.sol\":3585:3638  require(users[_user].isActive, \"User not registered\") */\n      tag_173\n      jumpi\n      mload(0x40)\n      0x08c379a000000000000000000000000000000000000000000000000000000000\n      dup2\n      mstore\n      0x04\n      add\n      tag_174\n      swap1\n      tag_156\n      jump\t// in\n    tag_174:\n      mload(0x40)\n      dup1\n      swap2\n      sub\n      swap1\n      revert\n    tag_173:\n        /* \"PKIRegistry.sol\":13299:13300  0 */\n      0x00\n        /* \"PKIRegistry.sol\":13281:13289  _message */\n      dup5\n        /* \"PKIRegistry.sol\":13281:13296  _message.length */\n      mload\n        /* \"PKIRegistry.sol\":13281:13300  _message.length > 0 */\n      gt\n        /* \"PKIRegistry.sol\":13273:13318  require(_message.length > 0, \"Empty message\") */\n      tag_176\n      jumpi\n      mload(0x40)\n      0x08c379a000000000000000000000000000000000000000000000000000000000\n      dup2\n      mstore\n      0x04\n      add\n      tag_177\n      swap1\n      tag_178\n      jump\t// in\n    tag_177:\n      mload(0x40)\n      dup1\n      swap2\n      sub\n      swap1\n      revert\n    tag_176:\n        /* \"PKIRegistry.sol\":13356:13357  0 */\n      0x00\n        /* \"PKIRegistry.sol\":13336:13346  _signature */\n      dup4\n        /* \"PKIRegistry.sol\":13336:13353  _signature.length */\n      mload\n        /* \"PKIRegistry.sol\":13336:13357  _signature.length > 0 */\n      gt\n        /* \"PKIRegistry.sol\":13328:13377  require(_signature.length > 0, \"Empty signature\") */\n      tag_179\n      jumpi\n      mload(0x40)\n      0x08c379a000000000000000000000000000000000000000000000000000000000\n      dup2\n      mstore\n      0x04\n      add\n      tag_180\n      swap1\n      tag_181\n      jump\t// in\n    tag_180:\n      mload(0x40)\n      dup1\n      swap2\n      sub\n      swap1\n      revert\n    tag_179:\n        /* \"PKIRegistry.sol\":13453:13457  2420 */\n      0x0974\n        /* \"PKIRegistry.sol\":13432:13442  _signature */\n      dup4\n        /* \"PKIRegistry.sol\":13432:13449  _signature.length */\n      mload\n        /* \"PKIRegistry.sol\":13432:13457  _signature.length >= 2420 */\n      lt\n      iszero\n        /* \"PKIRegistry.sol\":13425:13457  return _signature.length >= 2420 */\n      swap2\n      pop\n        /* \"PKIRegistry.sol\":12859:13493  function verifyPQCSignature(... */\n      pop\n      swap4\n      swap3\n      pop\n      pop\n      pop\n      jump\t// out\n        /* \"PKIRegistry.sol\":7444:7809  function revokeKYC(address _user) external onlyAuthorizedBank userExists(_user) {... */\n    tag_51:\n        /* \"PKIRegistry.sol\":3460:3475  authorizedBanks */\n      0x04\n        /* \"PKIRegistry.sol\":3460:3487  authorizedBanks[msg.sender] */\n      0x00\n        /* \"PKIRegistry.sol\":3476:3486  msg.sender */\n      caller\n        /* \"PKIRegistry.sol\":3460:3487  authorizedBanks[msg.sender] */\n      0xffffffffffffffffffffffffffffffffffffffff\n      and\n      0xffffffffffffffffffffffffffffffffffffffff\n      and\n      dup2\n      mstore\n      0x20\n      add\n      swap1\n      dup2\n      mstore\n      0x20\n      add\n      0x00\n      keccak256\n      0x00\n      swap1\n      sload\n      swap1\n      0x0100\n      exp\n      swap1\n      div\n      0xff\n      and\n        /* \"PKIRegistry.sol\":3452:3512  require(authorizedBanks[msg.sender], \"Only authorized bank\") */\n      tag_183\n      jumpi\n      mload(0x40)\n      0x08c379a000000000000000000000000000000000000000000000000000000000\n      dup2\n      mstore\n      0x04\n      add\n      tag_184\n      swap1\n      tag_185\n      jump\t// in\n    tag_184:\n      mload(0x40)\n      dup1\n      swap2\n      sub\n      swap1\n      revert\n    tag_183:\n        /* \"PKIRegistry.sol\":7517:7522  _user */\n      dup1\n        /* \"PKIRegistry.sol\":3593:3598  users */\n      0x00\n        /* \"PKIRegistry.sol\":3593:3605  users[_user] */\n      dup1\n        /* \"PKIRegistry.sol\":3599:3604  _user */\n      dup3\n        /* \"PKIRegistry.sol\":3593:3605  users[_user] */\n      0xffffffffffffffffffffffffffffffffffffffff\n      and\n      0xffffffffffffffffffffffffffffffffffffffff\n      and\n      dup2\n      mstore\n      0x20\n      add\n      swap1\n      dup2\n      mstore\n      0x20\n      add\n      0x00\n      keccak256\n        /* \"PKIRegistry.sol\":3593:3614  users[_user].isActive */\n      0x03\n      add\n      0x00\n      swap1\n      sload\n      swap1\n      0x0100\n      exp\n      swap1\n      div\n      0xff\n      and\n        /* \"PKIRegistry.sol\":3585:3638  require(users[_user].isActive, \"User not registered\") */\n      tag_187\n      jumpi\n      mload(0x40)\n      0x08c379a000000000000000000000000000000000000000000000000000000000\n      dup2\n      mstore\n      0x04\n      add\n      tag_188\n      swap1\n      tag_156\n      jump\t// in\n    tag_188:\n      mload(0x40)\n      dup1\n      swap2\n      sub\n      swap1\n      revert\n    tag_187:\n        /* \"PKIRegistry.sol\":7542:7552  kycRecords */\n      0x01\n        /* \"PKIRegistry.sol\":7542:7559  kycRecords[_user] */\n      0x00\n        /* \"PKIRegistry.sol\":7553:7558  _user */\n      dup4\n        /* \"PKIRegistry.sol\":7542:7559  kycRecords[_user] */\n      0xffffffffffffffffffffffffffffffffffffffff\n      and\n      0xffffffffffffffffffffffffffffffffffffffff\n      and\n      dup2\n      mstore\n      0x20\n      add\n      swap1\n      dup2\n      mstore\n      0x20\n      add\n      0x00\n      keccak256\n        /* \"PKIRegistry.sol\":7542:7570  kycRecords[_user].isVerified */\n      0x00\n      add\n      0x00\n      swap1\n      sload\n      swap1\n      0x0100\n      exp\n      swap1\n      div\n      0xff\n      and\n        /* \"PKIRegistry.sol\":7534:7591  require(kycRecords[_user].isVerified, \"KYC not verified\") */\n      tag_190\n      jumpi\n      mload(0x40)\n      0x08c379a000000000000000000000000000000000000000000000000000000000\n      dup2\n      mstore\n      0x04\n      add\n      tag_191\n      swap1\n      tag_192\n      jump\t// in\n    tag_191:\n      mload(0x40)\n      dup1\n      swap2\n      sub\n      swap1\n      revert\n    tag_190:\n        /* \"PKIRegistry.sol\":7641:7646  false */\n      0x00\n        /* \"PKIRegistry.sol\":7610:7620  kycRecords */\n      0x01\n        /* \"PKIRegistry.sol\":7610:7627  kycRecords[_user] */\n      0x00\n        /* \"PKIRegistry.sol\":7621:7626  _user */\n      dup5\n        /* \"PKIRegistry.sol\":7610:7627  kycRecords[_user] */\n      0xffffffffffffffffffffffffffffffffffffffff\n      and\n      0xffffffffffffffffffffffffffffffffffffffff\n      and\n      dup2\n      mstore\n      0x20\n      add\n      swap1\n      dup2\n      mstore\n      0x20\n      add\n      0x00\n      keccak256\n        /* \"PKIRegistry.sol\":7610:7638  kycRecords[_user].isVerified */\n      0x00\n      add\n      0x00\n        /* \"PKIRegistry.sol\":7610:7646  kycRecords[_user].isVerified = false */\n      0x0100\n      exp\n      dup2\n      sload\n      dup2\n      0xff\n      mul\n      not\n      and\n      swap1\n      dup4\n      iszero\n      iszero\n      mul\n      or\n      swap1\n      sstore\n      pop\n        /* \"PKIRegistry.sol\":7744:7749  false */\n      0x00\n        /* \"PKIRegistry.sol\":7708:7722  authorizations */\n      0x02\n        /* \"PKIRegistry.sol\":7708:7729  authorizations[_user] */\n      0x00\n        /* \"PKIRegistry.sol\":7723:7728  _user */\n      dup5\n        /* \"PKIRegistry.sol\":7708:7729  authorizations[_user] */\n      0xffffffffffffffffffffffffffffffffffffffff\n      and\n      0xffffffffffffffffffffffffffffffffffffffff\n      and\n      dup2\n      mstore\n      0x20\n      add\n      swap1\n      dup2\n      mstore\n      0x20\n      add\n      0x00\n      keccak256\n        /* \"PKIRegistry.sol\":7708:7741  authorizations[_user].canTransfer */\n      0x00\n      add\n      0x00\n        /* \"PKIRegistry.sol\":7708:7749  authorizations[_user].canTransfer = false */\n      0x0100\n      exp\n      dup2\n      sload\n      dup2\n      0xff\n      mul\n      not\n      and\n      swap1\n      dup4\n      iszero\n      iszero\n      mul\n      or\n      swap1\n      sstore\n      pop\n        /* \"PKIRegistry.sol\":7791:7801  msg.sender */\n      caller\n        /* \"PKIRegistry.sol\":7773:7802  KYCRevoked(_user, msg.sender) */\n      0xffffffffffffffffffffffffffffffffffffffff\n      and\n        /* \"PKIRegistry.sol\":7784:7789  _user */\n      dup3\n        /* \"PKIRegistry.sol\":7773:7802  KYCRevoked(_user, msg.sender) */\n      0xffffffffffffffffffffffffffffffffffffffff\n      and\n      0x78bb145ee492fe6a233227a728eed873e98371bcf51d46ce3a6827a300183552\n      mload(0x40)\n      mload(0x40)\n      dup1\n      swap2\n      sub\n      swap1\n      log3\n        /* \"PKIRegistry.sol\":3522:3523  _ */\n      pop\n        /* \"PKIRegistry.sol\":7444:7809  function revokeKYC(address _user) external onlyAuthorizedBank userExists(_user) {... */\n      pop\n      jump\t// out\n        /* \"PKIRegistry.sol\":2046:2101  mapping(address => Authorization) public authorizations */\n    tag_54:\n      mstore(0x20, 0x02)\n      dup1\n      0x00\n      mstore\n      keccak256(0x00, 0x40)\n      0x00\n      swap2\n      pop\n      swap1\n      pop\n      dup1\n      0x00\n      add\n      0x00\n      swap1\n      sload\n      swap1\n      0x0100\n      exp\n      swap1\n      div\n      0xff\n      and\n      swap1\n      dup1\n      0x00\n      add\n      0x01\n      swap1\n      sload\n      swap1\n      0x0100\n      exp\n      swap1\n      div\n      0xff\n      and\n      swap1\n      dup1\n      0x01\n      add\n      sload\n      swap1\n      dup1\n      0x02\n      add\n      sload\n      swap1\n      dup1\n      0x03\n      add\n      sload\n      swap1\n      pop\n      dup6\n      jump\t// out\n        /* \"PKIRegistry.sol\":13707:14044  function getUserStats() external view returns (... */\n    tag_58:\n        /* \"PKIRegistry.sol\":13763:13776  uint256 total */\n      0x00\n        /* \"PKIRegistry.sol\":13786:13802  uint256 verified */\n      dup1\n        /* \"PKIRegistry.sol\":13812:13830  uint256 authorized */\n      0x00\n        /* \"PKIRegistry.sol\":13855:13865  totalUsers */\n      sload(0x06)\n        /* \"PKIRegistry.sol\":13847:13865  total = totalUsers */\n      swap3\n      pop\n        /* \"PKIRegistry.sol\":13886:13887  0 */\n      0x00\n        /* \"PKIRegistry.sol\":13875:13887  verified = 0 */\n      swap2\n      pop\n        /* \"PKIRegistry.sol\":13910:13911  0 */\n      0x00\n        /* \"PKIRegistry.sol\":13897:13911  authorized = 0 */\n      swap1\n      pop\n        /* \"PKIRegistry.sol\":13707:14044  function getUserStats() external view returns (... */\n      swap1\n      swap2\n      swap3\n      jump\t// out\n        /* \"PKIRegistry.sol\":11201:11439  function batchAuthorizeBanks(address[] memory _banks) external onlyOwner {... */\n    tag_64:\n        /* \"PKIRegistry.sol\":3364:3369  owner */\n      0x05\n      0x00\n      swap1\n      sload\n      swap1\n      0x0100\n      exp\n      swap1\n      div\n      0xffffffffffffffffffffffffffffffffffffffff\n      and\n        /* \"PKIRegistry.sol\":3350:3369  msg.sender == owner */\n      0xffffffffffffffffffffffffffffffffffffffff\n      and\n        /* \"PKIRegistry.sol\":3350:3360  msg.sender */\n      caller\n        /* \"PKIRegistry.sol\":3350:3369  msg.sender == owner */\n      0xffffffffffffffffffffffffffffffffffffffff\n      and\n      eq\n        /* \"PKIRegistry.sol\":3342:3384  require(msg.sender == owner, \"Only owner\") */\n      tag_195\n      jumpi\n      mload(0x40)\n      0x08c379a000000000000000000000000000000000000000000000000000000000\n      dup2\n      mstore\n      0x04\n      add\n      tag_196\n      swap1\n      tag_167\n      jump\t// in\n    tag_196:\n      mload(0x40)\n      dup1\n      swap2\n      sub\n      swap1\n      revert\n    tag_195:\n        /* \"PKIRegistry.sol\":11289:11295  uint i */\n      0x00\n        /* \"PKIRegistry.sol\":11284:11433  for (uint i = 0; i < _banks.length; i++) {... */\n    tag_198:\n        /* \"PKIRegistry.sol\":11305:11311  _banks */\n      dup2\n        /* \"PKIRegistry.sol\":11305:11318  _banks.length */\n      mload\n        /* \"PKIRegistry.sol\":11301:11302  i */\n      dup2\n        /* \"PKIRegistry.sol\":11301:11318  i < _banks.length */\n      lt\n        /* \"PKIRegistry.sol\":11284:11433  for (uint i = 0; i < _banks.length; i++) {... */\n      iszero\n      tag_199\n      jumpi\n        /* \"PKIRegistry.sol\":11368:11372  true */\n      0x01\n        /* \"PKIRegistry.sol\":11339:11354  authorizedBanks */\n      0x04\n        /* \"PKIRegistry.sol\":11339:11365  authorizedBanks[_banks[i]] */\n      0x00\n        /* \"PKIRegistry.sol\":11355:11361  _banks */\n      dup5\n        /* \"PKIRegistry.sol\":11362:11363  i */\n      dup5\n        /* \"PKIRegistry.sol\":11355:11364  _banks[i] */\n      dup2\n      mload\n      dup2\n      lt\n      tag_201\n      jumpi\n      tag_202\n      tag_203\n      jump\t// in\n    tag_202:\n    tag_201:\n      0x20\n      mul\n      0x20\n      add\n      add\n      mload\n        /* \"PKIRegistry.sol\":11339:11365  authorizedBanks[_banks[i]] */\n      0xffffffffffffffffffffffffffffffffffffffff\n      and\n      0xffffffffffffffffffffffffffffffffffffffff\n      and\n      dup2\n      mstore\n      0x20\n      add\n      swap1\n      dup2\n      mstore\n      0x20\n      add\n      0x00\n      keccak256\n      0x00\n        /* \"PKIRegistry.sol\":11339:11372  authorizedBanks[_banks[i]] = true */\n      0x0100\n      exp\n      dup2\n      sload\n      dup2\n      0xff\n      mul\n      not\n      and\n      swap1\n      dup4\n      iszero\n      iszero\n      mul\n      or\n      swap1\n      sstore\n      pop\n        /* \"PKIRegistry.sol\":11406:11412  _banks */\n      dup2\n        /* \"PKIRegistry.sol\":11413:11414  i */\n      dup2\n        /* \"PKIRegistry.sol\":11406:11415  _banks[i] */\n      dup2\n      mload\n      dup2\n      lt\n      tag_204\n      jumpi\n      tag_205\n      tag_203\n      jump\t// in\n    tag_205:\n    tag_204:\n      0x20\n      mul\n      0x20\n      add\n      add\n      mload\n        /* \"PKIRegistry.sol\":11391:11422  BankAuthorized(_banks[i], true) */\n      0xffffffffffffffffffffffffffffffffffffffff\n      and\n      0x8e3f06f96eeafbda3e9da0de573d78b3aeb414abbda7cc39f04dcb9e9ee926b4\n        /* \"PKIRegistry.sol\":11417:11421  true */\n      0x01\n        /* \"PKIRegistry.sol\":11391:11422  BankAuthorized(_banks[i], true) */\n      mload(0x40)\n      tag_206\n      swap2\n      swap1\n      tag_48\n      jump\t// in\n    tag_206:\n      mload(0x40)\n      dup1\n      swap2\n      sub\n      swap1\n      log2\n        /* \"PKIRegistry.sol\":11320:11323  i++ */\n      dup1\n      dup1\n      tag_207\n      swap1\n      tag_150\n      jump\t// in\n    tag_207:\n      swap2\n      pop\n      pop\n        /* \"PKIRegistry.sol\":11284:11433  for (uint i = 0; i < _banks.length; i++) {... */\n      jump(tag_198)\n    tag_199:\n      pop\n        /* \"PKIRegistry.sol\":11201:11439  function batchAuthorizeBanks(address[] memory _banks) external onlyOwner {... */\n      pop\n      jump\t// out\n        /* \"PKIRegistry.sol\":12267:12577  function getUserInfo(address _user) external view userExists(_user) returns (... */\n    tag_67:\n        /* \"PKIRegistry.sol\":12353:12381  UserIdentity memory identity */\n      tag_208\n      tag_209\n      jump\t// in\n    tag_208:\n        /* \"PKIRegistry.sol\":12391:12409  KYCInfo memory kyc */\n      tag_210\n      tag_211\n      jump\t// in\n    tag_210:\n        /* \"PKIRegistry.sol\":12419:12444  Authorization memory auth */\n      tag_212\n      tag_213\n      jump\t// in\n    tag_212:\n        /* \"PKIRegistry.sol\":12328:12333  _user */\n      dup4\n        /* \"PKIRegistry.sol\":3593:3598  users */\n      0x00\n        /* \"PKIRegistry.sol\":3593:3605  users[_user] */\n      dup1\n        /* \"PKIRegistry.sol\":3599:3604  _user */\n      dup3\n        /* \"PKIRegistry.sol\":3593:3605  users[_user] */\n      0xffffffffffffffffffffffffffffffffffffffff\n      and\n      0xffffffffffffffffffffffffffffffffffffffff\n      and\n      dup2\n      mstore\n      0x20\n      add\n      swap1\n      dup2\n      mstore\n      0x20\n      add\n      0x00\n      keccak256\n        /* \"PKIRegistry.sol\":3593:3614  users[_user].isActive */\n      0x03\n      add\n      0x00\n      swap1\n      sload\n      swap1\n      0x0100\n      exp\n      swap1\n      div\n      0xff\n      and\n        /* \"PKIRegistry.sol\":3585:3638  require(users[_user].isActive, \"User not registered\") */\n      tag_215\n      jumpi\n      mload(0x40)\n      0x08c379a000000000000000000000000000000000000000000000000000000000\n      dup2\n      mstore\n      0x04\n      add\n      tag_216\n      swap1\n      tag_156\n      jump\t// in\n    tag_216:\n      mload(0x40)\n      dup1\n      swap2\n      sub\n      swap1\n      revert\n    tag_215:\n        /* \"PKIRegistry.sol\":12482:12487  users */\n      0x00\n        /* \"PKIRegistry.sol\":12482:12494  users[_user] */\n      dup1\n        /* \"PKIRegistry.sol\":12488:12493  _user */\n      dup7\n        /* \"PKIRegistry.sol\":12482:12494  users[_user] */\n      0xffffffffffffffffffffffffffffffffffffffff\n      and\n      0xffffffffffffffffffffffffffffffffffffffff\n      and\n      dup2\n      mstore\n      0x20\n      add\n      swap1\n      dup2\n      mstore\n      0x20\n      add\n      0x00\n      keccak256\n        /* \"PKIRegistry.sol\":12508:12518  kycRecords */\n      0x01\n        /* \"PKIRegistry.sol\":12508:12525  kycRecords[_user] */\n      0x00\n        /* \"PKIRegistry.sol\":12519:12524  _user */\n      dup8\n        /* \"PKIRegistry.sol\":12508:12525  kycRecords[_user] */\n      0xffffffffffffffffffffffffffffffffffffffff\n      and\n      0xffffffffffffffffffffffffffffffffffffffff\n      and\n      dup2\n      mstore\n      0x20\n      add\n      swap1\n      dup2\n      mstore\n      0x20\n      add\n      0x00\n      keccak256\n        /* \"PKIRegistry.sol\":12539:12553  authorizations */\n      0x02\n        /* \"PKIRegistry.sol\":12539:12560  authorizations[_user] */\n      0x00\n        /* \"PKIRegistry.sol\":12554:12559  _user */\n      dup9\n        /* \"PKIRegistry.sol\":12539:12560  authorizations[_user] */\n      0xffffffffffffffffffffffffffffffffffffffff\n      and\n      0xffffffffffffffffffffffffffffffffffffffff\n      and\n      dup2\n      mstore\n      0x20\n      add\n      swap1\n      dup2\n      mstore\n      0x20\n      add\n      0x00\n      keccak256\n        /* \"PKIRegistry.sol\":12461:12570  return (... */\n      dup3\n      mload(0x40)\n      dup1\n      0xc0\n      add\n      0x40\n      mstore\n      swap1\n      dup2\n      0x00\n      dup3\n      add\n      0x00\n      swap1\n      sload\n      swap1\n      0x0100\n      exp\n      swap1\n      div\n      0xffffffffffffffffffffffffffffffffffffffff\n      and\n      0xffffffffffffffffffffffffffffffffffffffff\n      and\n      0xffffffffffffffffffffffffffffffffffffffff\n      and\n      dup2\n      mstore\n      0x20\n      add\n      0x01\n      dup3\n      add\n      dup1\n      sload\n      tag_218\n      swap1\n      tag_159\n      jump\t// in\n    tag_218:\n      dup1\n      0x1f\n      add\n      0x20\n      dup1\n      swap2\n      div\n      mul\n      0x20\n      add\n      mload(0x40)\n      swap1\n      dup2\n      add\n      0x40\n      mstore\n      dup1\n      swap3\n      swap2\n      swap1\n      dup2\n      dup2\n      mstore\n      0x20\n      add\n      dup3\n      dup1\n      sload\n      tag_219\n      swap1\n      tag_159\n      jump\t// in\n    tag_219:\n      dup1\n      iszero\n      tag_220\n      jumpi\n      dup1\n      0x1f\n      lt\n      tag_221\n      jumpi\n      0x0100\n      dup1\n      dup4\n      sload\n      div\n      mul\n      dup4\n      mstore\n      swap2\n      0x20\n      add\n      swap2\n      jump(tag_220)\n    tag_221:\n      dup3\n      add\n      swap2\n      swap1\n      0x00\n      mstore\n      keccak256(0x00, 0x20)\n      swap1\n    tag_222:\n      dup2\n      sload\n      dup2\n      mstore\n      swap1\n      0x01\n      add\n      swap1\n      0x20\n      add\n      dup1\n      dup4\n      gt\n      tag_222\n      jumpi\n      dup3\n      swap1\n      sub\n      0x1f\n      and\n      dup3\n      add\n      swap2\n    tag_220:\n      pop\n      pop\n      pop\n      pop\n      pop\n      dup2\n      mstore\n      0x20\n      add\n      0x02\n      dup3\n      add\n      sload\n      dup2\n      mstore\n      0x20\n      add\n      0x03\n      dup3\n      add\n      0x00\n      swap1\n      sload\n      swap1\n      0x0100\n      exp\n      swap1\n      div\n      0xff\n      and\n      iszero\n      iszero\n      iszero\n      iszero\n      dup2\n      mstore\n      0x20\n      add\n      0x04\n      dup3\n      add\n      sload\n      dup2\n      mstore\n      0x20\n      add\n      0x05\n      dup3\n      add\n      sload\n      dup2\n      mstore\n      pop\n      pop\n      swap3\n      pop\n      dup2\n      mload(0x40)\n      dup1\n      0xa0\n      add\n      0x40\n      mstore\n      swap1\n      dup2\n      0x00\n      dup3\n      add\n      0x00\n      swap1\n      sload\n      swap1\n      0x0100\n      exp\n      swap1\n      div\n      0xff\n      and\n      iszero\n      iszero\n      iszero\n      iszero\n      dup2\n      mstore\n      0x20\n      add\n      0x01\n      dup3\n      add\n      sload\n      dup2\n      mstore\n      0x20\n      add\n      0x02\n      dup3\n      add\n      sload\n      dup2\n      mstore\n      0x20\n      add\n      0x03\n      dup3\n      add\n      sload\n      dup2\n      mstore\n      0x20\n      add\n      0x04\n      dup3\n      add\n      0x00\n      swap1\n      sload\n      swap1\n      0x0100\n      exp\n      swap1\n      div\n      0xffffffffffffffffffffffffffffffffffffffff\n      and\n      0xffffffffffffffffffffffffffffffffffffffff\n      and\n      0xffffffffffffffffffffffffffffffffffffffff\n      and\n      dup2\n      mstore\n      pop\n      pop\n      swap2\n      pop\n      dup1\n      mload(0x40)\n      dup1\n      0xa0\n      add\n      0x40\n      mstore\n      swap1\n      dup2\n      0x00\n      dup3\n      add\n      0x00\n      swap1\n      sload\n      swap1\n      0x0100\n      exp\n      swap1\n      div\n      0xff\n      and\n      iszero\n      iszero\n      iszero\n      iszero\n      dup2\n      mstore\n      0x20\n      add\n      0x00\n      dup3\n      add\n      0x01\n      swap1\n      sload\n      swap1\n      0x0100\n      exp\n      swap1\n      div\n      0xff\n      and\n      iszero\n      iszero\n      iszero\n      iszero\n      dup2\n      mstore\n      0x20\n      add\n      0x01\n      dup3\n      add\n      sload\n      dup2\n      mstore\n      0x20\n      add\n      0x02\n      dup3\n      add\n      sload\n      dup2\n      mstore\n      0x20\n      add\n      0x03\n      dup3\n      add\n      sload\n      dup2\n      mstore\n      pop\n      pop\n      swap1\n      pop\n      swap4\n      pop\n      swap4\n      pop\n      swap4\n      pop\n        /* \"PKIRegistry.sol\":12267:12577  function getUserInfo(address _user) external view userExists(_user) returns (... */\n      pop\n      swap2\n      swap4\n      swap1\n      swap3\n      pop\n      jump\t// out\n        /* \"PKIRegistry.sol\":11920:12046  function getUserByKeyHash(bytes32 _keyHash) external view returns (address) {... */\n    tag_73:\n        /* \"PKIRegistry.sol\":11987:11994  address */\n      0x00\n        /* \"PKIRegistry.sol\":12013:12029  keyHashToAddress */\n      0x03\n        /* \"PKIRegistry.sol\":12013:12039  keyHashToAddress[_keyHash] */\n      0x00\n        /* \"PKIRegistry.sol\":12030:12038  _keyHash */\n      dup4\n        /* \"PKIRegistry.sol\":12013:12039  keyHashToAddress[_keyHash] */\n      dup2\n      mstore\n      0x20\n      add\n      swap1\n      dup2\n      mstore\n      0x20\n      add\n      0x00\n      keccak256\n      0x00\n      swap1\n      sload\n      swap1\n      0x0100\n      exp\n      swap1\n      div\n      0xffffffffffffffffffffffffffffffffffffffff\n      and\n        /* \"PKIRegistry.sol\":12006:12039  return keyHashToAddress[_keyHash] */\n      swap1\n      pop\n        /* \"PKIRegistry.sol\":11920:12046  function getUserByKeyHash(bytes32 _keyHash) external view returns (address) {... */\n      swap2\n      swap1\n      pop\n      jump\t// out\n        /* \"PKIRegistry.sol\":10125:10652  function recordTransfer(address _user, uint256 _amount) external {... */\n    tag_79:\n        /* \"PKIRegistry.sol\":10208:10213  users */\n      0x00\n        /* \"PKIRegistry.sol\":10208:10220  users[_user] */\n      dup1\n        /* \"PKIRegistry.sol\":10214:10219  _user */\n      dup4\n        /* \"PKIRegistry.sol\":10208:10220  users[_user] */\n      0xffffffffffffffffffffffffffffffffffffffff\n      and\n      0xffffffffffffffffffffffffffffffffffffffff\n      and\n      dup2\n      mstore\n      0x20\n      add\n      swap1\n      dup2\n      mstore\n      0x20\n      add\n      0x00\n      keccak256\n        /* \"PKIRegistry.sol\":10208:10229  users[_user].isActive */\n      0x03\n      add\n      0x00\n      swap1\n      sload\n      swap1\n      0x0100\n      exp\n      swap1\n      div\n      0xff\n      and\n        /* \"PKIRegistry.sol\":10200:10253  require(users[_user].isActive, \"User not registered\") */\n      tag_225\n      jumpi\n      mload(0x40)\n      0x08c379a000000000000000000000000000000000000000000000000000000000\n      dup2\n      mstore\n      0x04\n      add\n      tag_226\n      swap1\n      tag_156\n      jump\t// in\n    tag_226:\n      mload(0x40)\n      dup1\n      swap2\n      sub\n      swap1\n      revert\n    tag_225:\n        /* \"PKIRegistry.sol\":10272:10298  Authorization storage auth */\n      0x00\n        /* \"PKIRegistry.sol\":10301:10315  authorizations */\n      0x02\n        /* \"PKIRegistry.sol\":10301:10322  authorizations[_user] */\n      0x00\n        /* \"PKIRegistry.sol\":10316:10321  _user */\n      dup5\n        /* \"PKIRegistry.sol\":10301:10322  authorizations[_user] */\n      0xffffffffffffffffffffffffffffffffffffffff\n      and\n      0xffffffffffffffffffffffffffffffffffffffff\n      and\n      dup2\n      mstore\n      0x20\n      add\n      swap1\n      dup2\n      mstore\n      0x20\n      add\n      0x00\n      keccak256\n        /* \"PKIRegistry.sol\":10272:10322  Authorization storage auth = authorizations[_user] */\n      swap1\n      pop\n        /* \"PKIRegistry.sol\":10341:10354  uint256 today */\n      0x00\n        /* \"PKIRegistry.sol\":10375:10381  1 days */\n      0x015180\n        /* \"PKIRegistry.sol\":10357:10372  block.timestamp */\n      timestamp\n        /* \"PKIRegistry.sol\":10357:10381  block.timestamp / 1 days */\n      tag_227\n      swap2\n      swap1\n      tag_148\n      jump\t// in\n    tag_227:\n        /* \"PKIRegistry.sol\":10341:10381  uint256 today = block.timestamp / 1 days */\n      swap1\n      pop\n        /* \"PKIRegistry.sol\":10403:10407  auth */\n      dup2\n        /* \"PKIRegistry.sol\":10403:10421  auth.lastResetDate */\n      0x03\n      add\n      sload\n        /* \"PKIRegistry.sol\":10395:10400  today */\n      dup2\n        /* \"PKIRegistry.sol\":10395:10421  today > auth.lastResetDate */\n      gt\n        /* \"PKIRegistry.sol\":10391:10646  if (today > auth.lastResetDate) {... */\n      iszero\n      tag_228\n      jumpi\n        /* \"PKIRegistry.sol\":10492:10499  _amount */\n      dup3\n        /* \"PKIRegistry.sol\":10475:10479  auth */\n      dup3\n        /* \"PKIRegistry.sol\":10475:10489  auth.usedToday */\n      0x02\n      add\n        /* \"PKIRegistry.sol\":10475:10499  auth.usedToday = _amount */\n      dup2\n      swap1\n      sstore\n      pop\n        /* \"PKIRegistry.sol\":10534:10539  today */\n      dup1\n        /* \"PKIRegistry.sol\":10513:10517  auth */\n      dup3\n        /* \"PKIRegistry.sol\":10513:10531  auth.lastResetDate */\n      0x03\n      add\n        /* \"PKIRegistry.sol\":10513:10539  auth.lastResetDate = today */\n      dup2\n      swap1\n      sstore\n      pop\n        /* \"PKIRegistry.sol\":10391:10646  if (today > auth.lastResetDate) {... */\n      jump(tag_229)\n    tag_228:\n        /* \"PKIRegistry.sol\":10628:10635  _amount */\n      dup3\n        /* \"PKIRegistry.sol\":10610:10614  auth */\n      dup3\n        /* \"PKIRegistry.sol\":10610:10624  auth.usedToday */\n      0x02\n      add\n      0x00\n        /* \"PKIRegistry.sol\":10610:10635  auth.usedToday += _amount */\n      dup3\n      dup3\n      sload\n      tag_230\n      swap2\n      swap1\n      tag_231\n      jump\t// in\n    tag_230:\n      swap3\n      pop\n      pop\n      dup2\n      swap1\n      sstore\n      pop\n        /* \"PKIRegistry.sol\":10391:10646  if (today > auth.lastResetDate) {... */\n    tag_229:\n        /* \"PKIRegistry.sol\":10190:10652  {... */\n      pop\n      pop\n        /* \"PKIRegistry.sol\":10125:10652  function recordTransfer(address _user, uint256 _amount) external {... */\n      pop\n      pop\n      jump\t// out\n        /* \"PKIRegistry.sol\":5464:6400  function updatePublicKey(bytes memory _newPqcPublicKey) external userExists(msg.sender) {... */\n    tag_82:\n        /* \"PKIRegistry.sol\":5540:5550  msg.sender */\n      caller\n        /* \"PKIRegistry.sol\":3593:3598  users */\n      0x00\n        /* \"PKIRegistry.sol\":3593:3605  users[_user] */\n      dup1\n        /* \"PKIRegistry.sol\":3599:3604  _user */\n      dup3\n        /* \"PKIRegistry.sol\":3593:3605  users[_user] */\n      0xffffffffffffffffffffffffffffffffffffffff\n      and\n      0xffffffffffffffffffffffffffffffffffffffff\n      and\n      dup2\n      mstore\n      0x20\n      add\n      swap1\n      dup2\n      mstore\n      0x20\n      add\n      0x00\n      keccak256\n        /* \"PKIRegistry.sol\":3593:3614  users[_user].isActive */\n      0x03\n      add\n      0x00\n      swap1\n      sload\n      swap1\n      0x0100\n      exp\n      swap1\n      div\n      0xff\n      and\n        /* \"PKIRegistry.sol\":3585:3638  require(users[_user].isActive, \"User not registered\") */\n      tag_233\n      jumpi\n      mload(0x40)\n      0x08c379a000000000000000000000000000000000000000000000000000000000\n      dup2\n      mstore\n      0x04\n      add\n      tag_234\n      swap1\n      tag_156\n      jump\t// in\n    tag_234:\n      mload(0x40)\n      dup1\n      swap2\n      sub\n      swap1\n      revert\n    tag_233:\n        /* \"PKIRegistry.sol\":5596:5597  0 */\n      0x00\n        /* \"PKIRegistry.sol\":5570:5586  _newPqcPublicKey */\n      dup3\n        /* \"PKIRegistry.sol\":5570:5593  _newPqcPublicKey.length */\n      mload\n        /* \"PKIRegistry.sol\":5570:5597  _newPqcPublicKey.length > 0 */\n      gt\n        /* \"PKIRegistry.sol\":5562:5618  require(_newPqcPublicKey.length > 0, \"Empty public key\") */\n      tag_236\n      jumpi\n      mload(0x40)\n      0x08c379a000000000000000000000000000000000000000000000000000000000\n      dup2\n      mstore\n      0x04\n      add\n      tag_237\n      swap1\n      tag_138\n      jump\t// in\n    tag_237:\n      mload(0x40)\n      dup1\n      swap2\n      sub\n      swap1\n      revert\n    tag_236:\n        /* \"PKIRegistry.sol\":5663:5667  3000 */\n      0x0bb8\n        /* \"PKIRegistry.sol\":5636:5652  _newPqcPublicKey */\n      dup3\n        /* \"PKIRegistry.sol\":5636:5659  _newPqcPublicKey.length */\n      mload\n        /* \"PKIRegistry.sol\":5636:5667  _newPqcPublicKey.length <= 3000 */\n      gt\n      iszero\n        /* \"PKIRegistry.sol\":5628:5692  require(_newPqcPublicKey.length <= 3000, \"Public key too large\") */\n      tag_238\n      jumpi\n      mload(0x40)\n      0x08c379a000000000000000000000000000000000000000000000000000000000\n      dup2\n      mstore\n      0x04\n      add\n      tag_239\n      swap1\n      tag_141\n      jump\t// in\n    tag_239:\n      mload(0x40)\n      dup1\n      swap2\n      sub\n      swap1\n      revert\n    tag_238:\n        /* \"PKIRegistry.sol\":5711:5729  bytes32 newKeyHash */\n      0x00\n        /* \"PKIRegistry.sol\":5742:5758  _newPqcPublicKey */\n      dup3\n        /* \"PKIRegistry.sol\":5732:5759  keccak256(_newPqcPublicKey) */\n      dup1\n      mload\n      swap1\n      0x20\n      add\n      keccak256\n        /* \"PKIRegistry.sol\":5711:5759  bytes32 newKeyHash = keccak256(_newPqcPublicKey) */\n      swap1\n      pop\n        /* \"PKIRegistry.sol\":5817:5818  0 */\n      0x00\n        /* \"PKIRegistry.sol\":5777:5819  keyHashToAddress[newKeyHash] == address(0) */\n      0xffffffffffffffffffffffffffffffffffffffff\n      and\n        /* \"PKIRegistry.sol\":5777:5793  keyHashToAddress */\n      0x03\n        /* \"PKIRegistry.sol\":5777:5805  keyHashToAddress[newKeyHash] */\n      0x00\n        /* \"PKIRegistry.sol\":5794:5804  newKeyHash */\n      dup4\n        /* \"PKIRegistry.sol\":5777:5805  keyHashToAddress[newKeyHash] */\n      dup2\n      mstore\n      0x20\n      add\n      swap1\n      dup2\n      mstore\n      0x20\n      add\n      0x00\n      keccak256\n      0x00\n      swap1\n      sload\n      swap1\n      0x0100\n      exp\n      swap1\n      div\n      0xffffffffffffffffffffffffffffffffffffffff\n      and\n        /* \"PKIRegistry.sol\":5777:5819  keyHashToAddress[newKeyHash] == address(0) */\n      0xffffffffffffffffffffffffffffffffffffffff\n      and\n      eq\n        /* \"PKIRegistry.sol\":5769:5849  require(keyHashToAddress[newKeyHash] == address(0), \"Public key already in use\") */\n      tag_240\n      jumpi\n      mload(0x40)\n      0x08c379a000000000000000000000000000000000000000000000000000000000\n      dup2\n      mstore\n      0x04\n      add\n      tag_241\n      swap1\n      tag_242\n      jump\t// in\n    tag_241:\n      mload(0x40)\n      dup1\n      swap2\n      sub\n      swap1\n      revert\n    tag_240:\n        /* \"PKIRegistry.sol\":5868:5893  UserIdentity storage user */\n      0x00\n        /* \"PKIRegistry.sol\":5896:5901  users */\n      dup1\n        /* \"PKIRegistry.sol\":5896:5913  users[msg.sender] */\n      0x00\n        /* \"PKIRegistry.sol\":5902:5912  msg.sender */\n      caller\n        /* \"PKIRegistry.sol\":5896:5913  users[msg.sender] */\n      0xffffffffffffffffffffffffffffffffffffffff\n      and\n      0xffffffffffffffffffffffffffffffffffffffff\n      and\n      dup2\n      mstore\n      0x20\n      add\n      swap1\n      dup2\n      mstore\n      0x20\n      add\n      0x00\n      keccak256\n        /* \"PKIRegistry.sol\":5868:5913  UserIdentity storage user = users[msg.sender] */\n      swap1\n      pop\n        /* \"PKIRegistry.sol\":5923:5941  bytes32 oldKeyHash */\n      0x00\n        /* \"PKIRegistry.sol\":5944:5948  user */\n      dup2\n        /* \"PKIRegistry.sol\":5944:5956  user.keyHash */\n      0x02\n      add\n      sload\n        /* \"PKIRegistry.sol\":5923:5956  bytes32 oldKeyHash = user.keyHash */\n      swap1\n      pop\n        /* \"PKIRegistry.sol\":6021:6037  keyHashToAddress */\n      0x03\n        /* \"PKIRegistry.sol\":6021:6049  keyHashToAddress[oldKeyHash] */\n      0x00\n        /* \"PKIRegistry.sol\":6038:6048  oldKeyHash */\n      dup3\n        /* \"PKIRegistry.sol\":6021:6049  keyHashToAddress[oldKeyHash] */\n      dup2\n      mstore\n      0x20\n      add\n      swap1\n      dup2\n      mstore\n      0x20\n      add\n      0x00\n      keccak256\n      0x00\n        /* \"PKIRegistry.sol\":6014:6049  delete keyHashToAddress[oldKeyHash] */\n      0x0100\n      exp\n      dup2\n      sload\n      swap1\n      0xffffffffffffffffffffffffffffffffffffffff\n      mul\n      not\n      and\n      swap1\n      sstore\n        /* \"PKIRegistry.sol\":6117:6133  _newPqcPublicKey */\n      dup5\n        /* \"PKIRegistry.sol\":6097:6101  user */\n      dup3\n        /* \"PKIRegistry.sol\":6097:6114  user.pqcPublicKey */\n      0x01\n      add\n        /* \"PKIRegistry.sol\":6097:6133  user.pqcPublicKey = _newPqcPublicKey */\n      swap1\n      dup1\n      mload\n      swap1\n      0x20\n      add\n      swap1\n      tag_243\n      swap3\n      swap2\n      swap1\n      tag_146\n      jump\t// in\n    tag_243:\n      pop\n        /* \"PKIRegistry.sol\":6158:6168  newKeyHash */\n      dup3\n        /* \"PKIRegistry.sol\":6143:6147  user */\n      dup3\n        /* \"PKIRegistry.sol\":6143:6155  user.keyHash */\n      0x02\n      add\n        /* \"PKIRegistry.sol\":6143:6168  user.keyHash = newKeyHash */\n      dup2\n      swap1\n      sstore\n      pop\n        /* \"PKIRegistry.sol\":6197:6212  block.timestamp */\n      timestamp\n        /* \"PKIRegistry.sol\":6178:6182  user */\n      dup3\n        /* \"PKIRegistry.sol\":6178:6194  user.lastUpdated */\n      0x05\n      add\n        /* \"PKIRegistry.sol\":6178:6212  user.lastUpdated = block.timestamp */\n      dup2\n      swap1\n      sstore\n      pop\n        /* \"PKIRegistry.sol\":6290:6300  msg.sender */\n      caller\n        /* \"PKIRegistry.sol\":6259:6275  keyHashToAddress */\n      0x03\n        /* \"PKIRegistry.sol\":6259:6287  keyHashToAddress[newKeyHash] */\n      0x00\n        /* \"PKIRegistry.sol\":6276:6286  newKeyHash */\n      dup6\n        /* \"PKIRegistry.sol\":6259:6287  keyHashToAddress[newKeyHash] */\n      dup2\n      mstore\n      0x20\n      add\n      swap1\n      dup2\n      mstore\n      0x20\n      add\n      0x00\n      keccak256\n      0x00\n        /* \"PKIRegistry.sol\":6259:6300  keyHashToAddress[newKeyHash] = msg.sender */\n      0x0100\n      exp\n      dup2\n      sload\n      dup2\n      0xffffffffffffffffffffffffffffffffffffffff\n      mul\n      not\n      and\n      swap1\n      dup4\n      0xffffffffffffffffffffffffffffffffffffffff\n      and\n      mul\n      or\n      swap1\n      sstore\n      pop\n        /* \"PKIRegistry.sol\":6341:6351  msg.sender */\n      caller\n        /* \"PKIRegistry.sol\":6324:6393  PublicKeyUpdated(msg.sender, oldKeyHash, newKeyHash, block.timestamp) */\n      0xffffffffffffffffffffffffffffffffffffffff\n      and\n      0xb18eadc99da6ba0290e9f60ca54ed0471a7a7dcb6ee7373965b86c7dd7f96c66\n        /* \"PKIRegistry.sol\":6353:6363  oldKeyHash */\n      dup3\n        /* \"PKIRegistry.sol\":6365:6375  newKeyHash */\n      dup6\n        /* \"PKIRegistry.sol\":6377:6392  block.timestamp */\n      timestamp\n        /* \"PKIRegistry.sol\":6324:6393  PublicKeyUpdated(msg.sender, oldKeyHash, newKeyHash, block.timestamp) */\n      mload(0x40)\n      tag_244\n      swap4\n      swap3\n      swap2\n      swap1\n      tag_245\n      jump\t// in\n    tag_244:\n      mload(0x40)\n      dup1\n      swap2\n      sub\n      swap1\n      log2\n        /* \"PKIRegistry.sol\":5552:6400  {... */\n      pop\n      pop\n      pop\n        /* \"PKIRegistry.sol\":5464:6400  function updatePublicKey(bytes memory _newPqcPublicKey) external userExists(msg.sender) {... */\n      pop\n      pop\n      jump\t// out\n        /* \"PKIRegistry.sol\":9307:9961  function canUserTransfer(address _user, uint256 _amount) public view returns (bool) {... */\n    tag_85:\n        /* \"PKIRegistry.sol\":9385:9389  bool */\n      0x00\n        /* \"PKIRegistry.sol\":9406:9411  users */\n      dup1\n        /* \"PKIRegistry.sol\":9406:9418  users[_user] */\n      0x00\n        /* \"PKIRegistry.sol\":9412:9417  _user */\n      dup5\n        /* \"PKIRegistry.sol\":9406:9418  users[_user] */\n      0xffffffffffffffffffffffffffffffffffffffff\n      and\n      0xffffffffffffffffffffffffffffffffffffffff\n      and\n      dup2\n      mstore\n      0x20\n      add\n      swap1\n      dup2\n      mstore\n      0x20\n      add\n      0x00\n      keccak256\n        /* \"PKIRegistry.sol\":9406:9427  users[_user].isActive */\n      0x03\n      add\n      0x00\n      swap1\n      sload\n      swap1\n      0x0100\n      exp\n      swap1\n      div\n      0xff\n      and\n        /* \"PKIRegistry.sol\":9401:9441  if (!users[_user].isActive) return false */\n      tag_247\n      jumpi\n        /* \"PKIRegistry.sol\":9436:9441  false */\n      0x00\n        /* \"PKIRegistry.sol\":9429:9441  return false */\n      swap1\n      pop\n      jump(tag_246)\n        /* \"PKIRegistry.sol\":9401:9441  if (!users[_user].isActive) return false */\n    tag_247:\n        /* \"PKIRegistry.sol\":9456:9473  isKYCValid(_user) */\n      tag_248\n        /* \"PKIRegistry.sol\":9467:9472  _user */\n      dup4\n        /* \"PKIRegistry.sol\":9456:9466  isKYCValid */\n      tag_110\n        /* \"PKIRegistry.sol\":9456:9473  isKYCValid(_user) */\n      jump\t// in\n    tag_248:\n        /* \"PKIRegistry.sol\":9451:9487  if (!isKYCValid(_user)) return false */\n      tag_249\n      jumpi\n        /* \"PKIRegistry.sol\":9482:9487  false */\n      0x00\n        /* \"PKIRegistry.sol\":9475:9487  return false */\n      swap1\n      pop\n      jump(tag_246)\n        /* \"PKIRegistry.sol\":9451:9487  if (!isKYCValid(_user)) return false */\n    tag_249:\n        /* \"PKIRegistry.sol\":9506:9531  Authorization memory auth */\n      0x00\n        /* \"PKIRegistry.sol\":9534:9548  authorizations */\n      0x02\n        /* \"PKIRegistry.sol\":9534:9555  authorizations[_user] */\n      0x00\n        /* \"PKIRegistry.sol\":9549:9554  _user */\n      dup6\n        /* \"PKIRegistry.sol\":9534:9555  authorizations[_user] */\n      0xffffffffffffffffffffffffffffffffffffffff\n      and\n      0xffffffffffffffffffffffffffffffffffffffff\n      and\n      dup2\n      mstore\n      0x20\n      add\n      swap1\n      dup2\n      mstore\n      0x20\n      add\n      0x00\n      keccak256\n        /* \"PKIRegistry.sol\":9506:9555  Authorization memory auth = authorizations[_user] */\n      mload(0x40)\n      dup1\n      0xa0\n      add\n      0x40\n      mstore\n      swap1\n      dup2\n      0x00\n      dup3\n      add\n      0x00\n      swap1\n      sload\n      swap1\n      0x0100\n      exp\n      swap1\n      div\n      0xff\n      and\n      iszero\n      iszero\n      iszero\n      iszero\n      dup2\n      mstore\n      0x20\n      add\n      0x00\n      dup3\n      add\n      0x01\n      swap1\n      sload\n      swap1\n      0x0100\n      exp\n      swap1\n      div\n      0xff\n      and\n      iszero\n      iszero\n      iszero\n      iszero\n      dup2\n      mstore\n      0x20\n      add\n      0x01\n      dup3\n      add\n      sload\n      dup2\n      mstore\n      0x20\n      add\n      0x02\n      dup3\n      add\n      sload\n      dup2\n      mstore\n      0x20\n      add\n      0x03\n      dup3\n      add\n      sload\n      dup2\n      mstore\n      pop\n      pop\n      swap1\n      pop\n        /* \"PKIRegistry.sol\":9570:9574  auth */\n      dup1\n        /* \"PKIRegistry.sol\":9570:9586  auth.canTransfer */\n      0x00\n      add\n      mload\n        /* \"PKIRegistry.sol\":9565:9600  if (!auth.canTransfer) return false */\n      tag_250\n      jumpi\n        /* \"PKIRegistry.sol\":9595:9600  false */\n      0x00\n        /* \"PKIRegistry.sol\":9588:9600  return false */\n      swap2\n      pop\n      pop\n      jump(tag_246)\n        /* \"PKIRegistry.sol\":9565:9600  if (!auth.canTransfer) return false */\n    tag_250:\n        /* \"PKIRegistry.sol\":9648:9661  uint256 today */\n      0x00\n        /* \"PKIRegistry.sol\":9682:9688  1 days */\n      0x015180\n        /* \"PKIRegistry.sol\":9664:9679  block.timestamp */\n      timestamp\n        /* \"PKIRegistry.sol\":9664:9688  block.timestamp / 1 days */\n      tag_251\n      swap2\n      swap1\n      tag_148\n      jump\t// in\n    tag_251:\n        /* \"PKIRegistry.sol\":9648:9688  uint256 today = block.timestamp / 1 days */\n      swap1\n      pop\n        /* \"PKIRegistry.sol\":9710:9714  auth */\n      dup2\n        /* \"PKIRegistry.sol\":9710:9728  auth.lastResetDate */\n      0x80\n      add\n      mload\n        /* \"PKIRegistry.sol\":9702:9707  today */\n      dup2\n        /* \"PKIRegistry.sol\":9702:9728  today > auth.lastResetDate */\n      gt\n        /* \"PKIRegistry.sol\":9698:9955  if (today > auth.lastResetDate) {... */\n      iszero\n      tag_252\n      jumpi\n        /* \"PKIRegistry.sol\":9799:9803  auth */\n      dup2\n        /* \"PKIRegistry.sol\":9799:9814  auth.dailyLimit */\n      0x40\n      add\n      mload\n        /* \"PKIRegistry.sol\":9788:9795  _amount */\n      dup5\n        /* \"PKIRegistry.sol\":9788:9814  _amount <= auth.dailyLimit */\n      gt\n      iszero\n        /* \"PKIRegistry.sol\":9781:9814  return _amount <= auth.dailyLimit */\n      swap3\n      pop\n      pop\n      pop\n      jump(tag_246)\n        /* \"PKIRegistry.sol\":9698:9955  if (today > auth.lastResetDate) {... */\n    tag_252:\n        /* \"PKIRegistry.sol\":9929:9933  auth */\n      dup2\n        /* \"PKIRegistry.sol\":9929:9944  auth.dailyLimit */\n      0x40\n      add\n      mload\n        /* \"PKIRegistry.sol\":9917:9924  _amount */\n      dup5\n        /* \"PKIRegistry.sol\":9900:9904  auth */\n      dup4\n        /* \"PKIRegistry.sol\":9900:9914  auth.usedToday */\n      0x60\n      add\n      mload\n        /* \"PKIRegistry.sol\":9900:9924  auth.usedToday + _amount */\n      tag_254\n      swap2\n      swap1\n      tag_231\n      jump\t// in\n    tag_254:\n        /* \"PKIRegistry.sol\":9899:9944  (auth.usedToday + _amount) <= auth.dailyLimit */\n      gt\n      iszero\n        /* \"PKIRegistry.sol\":9892:9944  return (auth.usedToday + _amount) <= auth.dailyLimit */\n      swap3\n      pop\n      pop\n      pop\n        /* \"PKIRegistry.sol\":9307:9961  function canUserTransfer(address _user, uint256 _amount) public view returns (bool) {... */\n    tag_246:\n      swap3\n      swap2\n      pop\n      pop\n      jump\t// out\n        /* \"PKIRegistry.sol\":1949:1994  mapping(address => KYCInfo) public kycRecords */\n    tag_89:\n      mstore(0x20, 0x01)\n      dup1\n      0x00\n      mstore\n      keccak256(0x00, 0x40)\n      0x00\n      swap2\n      pop\n      swap1\n      pop\n      dup1\n      0x00\n      add\n      0x00\n      swap1\n      sload\n      swap1\n      0x0100\n      exp\n      swap1\n      div\n      0xff\n      and\n      swap1\n      dup1\n      0x01\n      add\n      sload\n      swap1\n      dup1\n      0x02\n      add\n      sload\n      swap1\n      dup1\n      0x03\n      add\n      sload\n      swap1\n      dup1\n      0x04\n      add\n      0x00\n      swap1\n      sload\n      swap1\n      0x0100\n      exp\n      swap1\n      div\n      0xffffffffffffffffffffffffffffffffffffffff\n      and\n      swap1\n      pop\n      dup6\n      jump\t// out\n        /* \"PKIRegistry.sol\":2351:2371  address public owner */\n    tag_93:\n      0x05\n      0x00\n      swap1\n      sload\n      swap1\n      0x0100\n      exp\n      swap1\n      div\n      0xffffffffffffffffffffffffffffffffffffffff\n      and\n      dup2\n      jump\t// out\n        /* \"PKIRegistry.sol\":2271:2318  mapping(address => bool) public authorizedBanks */\n    tag_97:\n      mstore(0x20, 0x04)\n      dup1\n      0x00\n      mstore\n      keccak256(0x00, 0x40)\n      0x00\n      swap2\n      pop\n      sload\n      swap1\n      0x0100\n      exp\n      swap1\n      div\n      0xff\n      and\n      dup2\n      jump\t// out\n        /* \"PKIRegistry.sol\":1858:1903  mapping(address => UserIdentity) public users */\n    tag_101:\n      mstore(0x20, 0x00)\n      dup1\n      0x00\n      mstore\n      keccak256(0x00, 0x40)\n      0x00\n      swap2\n      pop\n      swap1\n      pop\n      dup1\n      0x00\n      add\n      0x00\n      swap1\n      sload\n      swap1\n      0x0100\n      exp\n      swap1\n      div\n      0xffffffffffffffffffffffffffffffffffffffff\n      and\n      swap1\n      dup1\n      0x01\n      add\n      dup1\n      sload\n      tag_255\n      swap1\n      tag_159\n      jump\t// in\n    tag_255:\n      dup1\n      0x1f\n      add\n      0x20\n      dup1\n      swap2\n      div\n      mul\n      0x20\n      add\n      mload(0x40)\n      swap1\n      dup2\n      add\n      0x40\n      mstore\n      dup1\n      swap3\n      swap2\n      swap1\n      dup2\n      dup2\n      mstore\n      0x20\n      add\n      dup3\n      dup1\n      sload\n      tag_256\n      swap1\n      tag_159\n      jump\t// in\n    tag_256:\n      dup1\n      iszero\n      tag_257\n      jumpi\n      dup1\n      0x1f\n      lt\n      tag_258\n      jumpi\n      0x0100\n      dup1\n      dup4\n      sload\n      div\n      mul\n      dup4\n      mstore\n      swap2\n      0x20\n      add\n      swap2\n      jump(tag_257)\n    tag_258:\n      dup3\n      add\n      swap2\n      swap1\n      0x00\n      mstore\n      keccak256(0x00, 0x20)\n      swap1\n    tag_259:\n      dup2\n      sload\n      dup2\n      mstore\n      swap1\n      0x01\n      add\n      swap1\n      0x20\n      add\n      dup1\n      dup4\n      gt\n      tag_259\n      jumpi\n      dup3\n      swap1\n      sub\n      0x1f\n      and\n      dup3\n      add\n      swap2\n    tag_257:\n      pop\n      pop\n      pop\n      pop\n      pop\n      swap1\n      dup1\n      0x02\n      add\n      sload\n      swap1\n      dup1\n      0x03\n      add\n      0x00\n      swap1\n      sload\n      swap1\n      0x0100\n      exp\n      swap1\n      div\n      0xff\n      and\n      swap1\n      dup1\n      0x04\n      add\n      sload\n      swap1\n      dup1\n      0x05\n      add\n      sload\n      swap1\n      pop\n      dup7\n      jump\t// out\n        /* \"PKIRegistry.sol\":2412:2437  uint256 public totalUsers */\n    tag_105:\n      sload(0x06)\n      dup2\n      jump\t// out\n        /* \"PKIRegistry.sol\":7972:8155  function isKYCValid(address _user) public view returns (bool) {... */\n    tag_110:\n        /* \"PKIRegistry.sol\":8028:8032  bool */\n      0x00\n        /* \"PKIRegistry.sol\":8044:8062  KYCInfo memory kyc */\n      dup1\n        /* \"PKIRegistry.sol\":8065:8075  kycRecords */\n      0x01\n        /* \"PKIRegistry.sol\":8065:8082  kycRecords[_user] */\n      0x00\n        /* \"PKIRegistry.sol\":8076:8081  _user */\n      dup5\n        /* \"PKIRegistry.sol\":8065:8082  kycRecords[_user] */\n      0xffffffffffffffffffffffffffffffffffffffff\n      and\n      0xffffffffffffffffffffffffffffffffffffffff\n      and\n      dup2\n      mstore\n      0x20\n      add\n      swap1\n      dup2\n      mstore\n      0x20\n      add\n      0x00\n      keccak256\n        /* \"PKIRegistry.sol\":8044:8082  KYCInfo memory kyc = kycRecords[_user] */\n      mload(0x40)\n      dup1\n      0xa0\n      add\n      0x40\n      mstore\n      swap1\n      dup2\n      0x00\n      dup3\n      add\n      0x00\n      swap1\n      sload\n      swap1\n      0x0100\n      exp\n      swap1\n      div\n      0xff\n      and\n      iszero\n      iszero\n      iszero\n      iszero\n      dup2\n      mstore\n      0x20\n      add\n      0x01\n      dup3\n      add\n      sload\n      dup2\n      mstore\n      0x20\n      add\n      0x02\n      dup3\n      add\n      sload\n      dup2\n      mstore\n      0x20\n      add\n      0x03\n      dup3\n      add\n      sload\n      dup2\n      mstore\n      0x20\n      add\n      0x04\n      dup3\n      add\n      0x00\n      swap1\n      sload\n      swap1\n      0x0100\n      exp\n      swap1\n      div\n      0xffffffffffffffffffffffffffffffffffffffff\n      and\n      0xffffffffffffffffffffffffffffffffffffffff\n      and\n      0xffffffffffffffffffffffffffffffffffffffff\n      and\n      dup2\n      mstore\n      pop\n      pop\n      swap1\n      pop\n        /* \"PKIRegistry.sol\":8099:8102  kyc */\n      dup1\n        /* \"PKIRegistry.sol\":8099:8113  kyc.isVerified */\n      0x00\n      add\n      mload\n        /* \"PKIRegistry.sol\":8099:8148  kyc.isVerified && block.timestamp < kyc.expiresAt */\n      dup1\n      iszero\n      tag_261\n      jumpi\n      pop\n        /* \"PKIRegistry.sol\":8135:8138  kyc */\n      dup1\n        /* \"PKIRegistry.sol\":8135:8148  kyc.expiresAt */\n      0x40\n      add\n      mload\n        /* \"PKIRegistry.sol\":8117:8132  block.timestamp */\n      timestamp\n        /* \"PKIRegistry.sol\":8117:8148  block.timestamp < kyc.expiresAt */\n      lt\n        /* \"PKIRegistry.sol\":8099:8148  kyc.isVerified && block.timestamp < kyc.expiresAt */\n    tag_261:\n        /* \"PKIRegistry.sol\":8092:8148  return kyc.isVerified && block.timestamp < kyc.expiresAt */\n      swap2\n      pop\n      pop\n        /* \"PKIRegistry.sol\":7972:8155  function isKYCValid(address _user) public view returns (bool) {... */\n      swap2\n      swap1\n      pop\n      jump\t// out\n        /* \"PKIRegistry.sol\":2168:2219  mapping(bytes32 => address) public keyHashToAddress */\n    tag_114:\n      mstore(0x20, 0x03)\n      dup1\n      0x00\n      mstore\n      keccak256(0x00, 0x40)\n      0x00\n      swap2\n      pop\n      sload\n      swap1\n      0x0100\n      exp\n      swap1\n      div\n      0xffffffffffffffffffffffffffffffffffffffff\n      and\n      dup2\n      jump\t// out\n        /* \"PKIRegistry.sol\":10850:11096  function authorizeBankAddress(address _bank, bool _authorized) external onlyOwner {... */\n    tag_119:\n        /* \"PKIRegistry.sol\":3364:3369  owner */\n      0x05\n      0x00\n      swap1\n      sload\n      swap1\n      0x0100\n      exp\n      swap1\n      div\n      0xffffffffffffffffffffffffffffffffffffffff\n      and\n        /* \"PKIRegistry.sol\":3350:3369  msg.sender == owner */\n      0xffffffffffffffffffffffffffffffffffffffff\n      and\n        /* \"PKIRegistry.sol\":3350:3360  msg.sender */\n      caller\n        /* \"PKIRegistry.sol\":3350:3369  msg.sender == owner */\n      0xffffffffffffffffffffffffffffffffffffffff\n      and\n      eq\n        /* \"PKIRegistry.sol\":3342:3384  require(msg.sender == owner, \"Only owner\") */\n      tag_263\n      jumpi\n      mload(0x40)\n      0x08c379a000000000000000000000000000000000000000000000000000000000\n      dup2\n      mstore\n      0x04\n      add\n      tag_264\n      swap1\n      tag_167\n      jump\t// in\n    tag_264:\n      mload(0x40)\n      dup1\n      swap2\n      sub\n      swap1\n      revert\n    tag_263:\n        /* \"PKIRegistry.sol\":10967:10968  0 */\n      0x00\n        /* \"PKIRegistry.sol\":10950:10969  _bank != address(0) */\n      0xffffffffffffffffffffffffffffffffffffffff\n      and\n        /* \"PKIRegistry.sol\":10950:10955  _bank */\n      dup3\n        /* \"PKIRegistry.sol\":10950:10969  _bank != address(0) */\n      0xffffffffffffffffffffffffffffffffffffffff\n      and\n      eq\n      iszero\n        /* \"PKIRegistry.sol\":10942:10994  require(_bank != address(0), \"Invalid bank address\") */\n      tag_266\n      jumpi\n      mload(0x40)\n      0x08c379a000000000000000000000000000000000000000000000000000000000\n      dup2\n      mstore\n      0x04\n      add\n      tag_267\n      swap1\n      tag_268\n      jump\t// in\n    tag_267:\n      mload(0x40)\n      dup1\n      swap2\n      sub\n      swap1\n      revert\n    tag_266:\n        /* \"PKIRegistry.sol\":11029:11040  _authorized */\n      dup1\n        /* \"PKIRegistry.sol\":11004:11019  authorizedBanks */\n      0x04\n        /* \"PKIRegistry.sol\":11004:11026  authorizedBanks[_bank] */\n      0x00\n        /* \"PKIRegistry.sol\":11020:11025  _bank */\n      dup5\n        /* \"PKIRegistry.sol\":11004:11026  authorizedBanks[_bank] */\n      0xffffffffffffffffffffffffffffffffffffffff\n      and\n      0xffffffffffffffffffffffffffffffffffffffff\n      and\n      dup2\n      mstore\n      0x20\n      add\n      swap1\n      dup2\n      mstore\n      0x20\n      add\n      0x00\n      keccak256\n      0x00\n        /* \"PKIRegistry.sol\":11004:11040  authorizedBanks[_bank] = _authorized */\n      0x0100\n      exp\n      dup2\n      sload\n      dup2\n      0xff\n      mul\n      not\n      and\n      swap1\n      dup4\n      iszero\n      iszero\n      mul\n      or\n      swap1\n      sstore\n      pop\n        /* \"PKIRegistry.sol\":11070:11075  _bank */\n      dup2\n        /* \"PKIRegistry.sol\":11055:11089  BankAuthorized(_bank, _authorized) */\n      0xffffffffffffffffffffffffffffffffffffffff\n      and\n      0x8e3f06f96eeafbda3e9da0de573d78b3aeb414abbda7cc39f04dcb9e9ee926b4\n        /* \"PKIRegistry.sol\":11077:11088  _authorized */\n      dup3\n        /* \"PKIRegistry.sol\":11055:11089  BankAuthorized(_bank, _authorized) */\n      mload(0x40)\n      tag_269\n      swap2\n      swap1\n      tag_48\n      jump\t// in\n    tag_269:\n      mload(0x40)\n      dup1\n      swap2\n      sub\n      swap1\n      log2\n        /* \"PKIRegistry.sol\":10850:11096  function authorizeBankAddress(address _bank, bool _authorized) external onlyOwner {... */\n      pop\n      pop\n      jump\t// out\n        /* \"PKIRegistry.sol\":6675:7355  function verifyKYC(... */\n    tag_123:\n        /* \"PKIRegistry.sol\":3460:3475  authorizedBanks */\n      0x04\n        /* \"PKIRegistry.sol\":3460:3487  authorizedBanks[msg.sender] */\n      0x00\n        /* \"PKIRegistry.sol\":3476:3486  msg.sender */\n      caller\n        /* \"PKIRegistry.sol\":3460:3487  authorizedBanks[msg.sender] */\n      0xffffffffffffffffffffffffffffffffffffffff\n      and\n      0xffffffffffffffffffffffffffffffffffffffff\n      and\n      dup2\n      mstore\n      0x20\n      add\n      swap1\n      dup2\n      mstore\n      0x20\n      add\n      0x00\n      keccak256\n      0x00\n      swap1\n      sload\n      swap1\n      0x0100\n      exp\n      swap1\n      div\n      0xff\n      and\n        /* \"PKIRegistry.sol\":3452:3512  require(authorizedBanks[msg.sender], \"Only authorized bank\") */\n      tag_271\n      jumpi\n      mload(0x40)\n      0x08c379a000000000000000000000000000000000000000000000000000000000\n      dup2\n      mstore\n      0x04\n      add\n      tag_272\n      swap1\n      tag_185\n      jump\t// in\n    tag_272:\n      mload(0x40)\n      dup1\n      swap2\n      sub\n      swap1\n      revert\n    tag_271:\n        /* \"PKIRegistry.sol\":6819:6824  _user */\n      dup3\n        /* \"PKIRegistry.sol\":3593:3598  users */\n      0x00\n        /* \"PKIRegistry.sol\":3593:3605  users[_user] */\n      dup1\n        /* \"PKIRegistry.sol\":3599:3604  _user */\n      dup3\n        /* \"PKIRegistry.sol\":3593:3605  users[_user] */\n      0xffffffffffffffffffffffffffffffffffffffff\n      and\n      0xffffffffffffffffffffffffffffffffffffffff\n      and\n      dup2\n      mstore\n      0x20\n      add\n      swap1\n      dup2\n      mstore\n      0x20\n      add\n      0x00\n      keccak256\n        /* \"PKIRegistry.sol\":3593:3614  users[_user].isActive */\n      0x03\n      add\n      0x00\n      swap1\n      sload\n      swap1\n      0x0100\n      exp\n      swap1\n      div\n      0xff\n      and\n        /* \"PKIRegistry.sol\":3585:3638  require(users[_user].isActive, \"User not registered\") */\n      tag_274\n      jumpi\n      mload(0x40)\n      0x08c379a000000000000000000000000000000000000000000000000000000000\n      dup2\n      mstore\n      0x04\n      add\n      tag_275\n      swap1\n      tag_156\n      jump\t// in\n    tag_275:\n      mload(0x40)\n      dup1\n      swap2\n      sub\n      swap1\n      revert\n    tag_274:\n        /* \"PKIRegistry.sol\":6864:6865  0 */\n      0x00\n        /* \"PKIRegistry.sol\":6856:6866  bytes32(0) */\n      dup1\n      shl\n        /* \"PKIRegistry.sol\":6844:6852  _kycHash */\n      dup4\n        /* \"PKIRegistry.sol\":6844:6866  _kycHash != bytes32(0) */\n      eq\n      iszero\n        /* \"PKIRegistry.sol\":6836:6887  require(_kycHash != bytes32(0), \"Invalid KYC hash\") */\n      tag_277\n      jumpi\n      mload(0x40)\n      0x08c379a000000000000000000000000000000000000000000000000000000000\n      dup2\n      mstore\n      0x04\n      add\n      tag_278\n      swap1\n      tag_279\n      jump\t// in\n    tag_278:\n      mload(0x40)\n      dup1\n      swap2\n      sub\n      swap1\n      revert\n    tag_277:\n        /* \"PKIRegistry.sol\":6921:6922  0 */\n      0x00\n        /* \"PKIRegistry.sol\":6905:6918  _validityDays */\n      dup3\n        /* \"PKIRegistry.sol\":6905:6922  _validityDays > 0 */\n      gt\n        /* \"PKIRegistry.sol\":6905:6946  _validityDays > 0 && _validityDays <= 365 */\n      dup1\n      iszero\n      tag_280\n      jumpi\n      pop\n        /* \"PKIRegistry.sol\":6943:6946  365 */\n      0x016d\n        /* \"PKIRegistry.sol\":6926:6939  _validityDays */\n      dup3\n        /* \"PKIRegistry.sol\":6926:6946  _validityDays <= 365 */\n      gt\n      iszero\n        /* \"PKIRegistry.sol\":6905:6946  _validityDays > 0 && _validityDays <= 365 */\n    tag_280:\n        /* \"PKIRegistry.sol\":6897:6974  require(_validityDays > 0 && _validityDays <= 365, \"Invalid validity period\") */\n      tag_281\n      jumpi\n      mload(0x40)\n      0x08c379a000000000000000000000000000000000000000000000000000000000\n      dup2\n      mstore\n      0x04\n      add\n      tag_282\n      swap1\n      tag_283\n      jump\t// in\n    tag_282:\n      mload(0x40)\n      dup1\n      swap2\n      sub\n      swap1\n      revert\n    tag_281:\n        /* \"PKIRegistry.sol\":6993:7010  uint256 expiresAt */\n      0x00\n        /* \"PKIRegistry.sol\":7048:7054  1 days */\n      0x015180\n        /* \"PKIRegistry.sol\":7032:7045  _validityDays */\n      dup4\n        /* \"PKIRegistry.sol\":7032:7054  _validityDays * 1 days */\n      tag_284\n      swap2\n      swap1\n      tag_285\n      jump\t// in\n    tag_284:\n        /* \"PKIRegistry.sol\":7013:7028  block.timestamp */\n      timestamp\n        /* \"PKIRegistry.sol\":7013:7055  block.timestamp + (_validityDays * 1 days) */\n      tag_286\n      swap2\n      swap1\n      tag_231\n      jump\t// in\n    tag_286:\n        /* \"PKIRegistry.sol\":6993:7055  uint256 expiresAt = block.timestamp + (_validityDays * 1 days) */\n      swap1\n      pop\n        /* \"PKIRegistry.sol\":7094:7283  KYCInfo({... */\n      mload(0x40)\n      dup1\n      0xa0\n      add\n      0x40\n      mstore\n      dup1\n        /* \"PKIRegistry.sol\":7128:7132  true */\n      0x01\n        /* \"PKIRegistry.sol\":7094:7283  KYCInfo({... */\n      iszero\n      iszero\n      dup2\n      mstore\n      0x20\n      add\n        /* \"PKIRegistry.sol\":7158:7173  block.timestamp */\n      timestamp\n        /* \"PKIRegistry.sol\":7094:7283  KYCInfo({... */\n      dup2\n      mstore\n      0x20\n      add\n        /* \"PKIRegistry.sol\":7198:7207  expiresAt */\n      dup3\n        /* \"PKIRegistry.sol\":7094:7283  KYCInfo({... */\n      dup2\n      mstore\n      0x20\n      add\n        /* \"PKIRegistry.sol\":7230:7238  _kycHash */\n      dup6\n        /* \"PKIRegistry.sol\":7094:7283  KYCInfo({... */\n      dup2\n      mstore\n      0x20\n      add\n        /* \"PKIRegistry.sol\":7262:7272  msg.sender */\n      caller\n        /* \"PKIRegistry.sol\":7094:7283  KYCInfo({... */\n      0xffffffffffffffffffffffffffffffffffffffff\n      and\n      dup2\n      mstore\n      pop\n        /* \"PKIRegistry.sol\":7074:7084  kycRecords */\n      0x01\n        /* \"PKIRegistry.sol\":7074:7091  kycRecords[_user] */\n      0x00\n        /* \"PKIRegistry.sol\":7085:7090  _user */\n      dup8\n        /* \"PKIRegistry.sol\":7074:7091  kycRecords[_user] */\n      0xffffffffffffffffffffffffffffffffffffffff\n      and\n      0xffffffffffffffffffffffffffffffffffffffff\n      and\n      dup2\n      mstore\n      0x20\n      add\n      swap1\n      dup2\n      mstore\n      0x20\n      add\n      0x00\n      keccak256\n        /* \"PKIRegistry.sol\":7074:7283  kycRecords[_user] = KYCInfo({... */\n      0x00\n      dup3\n      add\n      mload\n      dup2\n      0x00\n      add\n      exp(0x0100, 0x00)\n      dup2\n      sload\n      dup2\n      0xff\n      mul\n      not\n      and\n      swap1\n      dup4\n      iszero\n      iszero\n      mul\n      or\n      swap1\n      sstore\n      pop\n      0x20\n      dup3\n      add\n      mload\n      dup2\n      0x01\n      add\n      sstore\n      0x40\n      dup3\n      add\n      mload\n      dup2\n      0x02\n      add\n      sstore\n      0x60\n      dup3\n      add\n      mload\n      dup2\n      0x03\n      add\n      sstore\n      0x80\n      dup3\n      add\n      mload\n      dup2\n      0x04\n      add\n      exp(0x0100, 0x00)\n      dup2\n      sload\n      dup2\n      0xffffffffffffffffffffffffffffffffffffffff\n      mul\n      not\n      and\n      swap1\n      dup4\n      0xffffffffffffffffffffffffffffffffffffffff\n      and\n      mul\n      or\n      swap1\n      sstore\n      pop\n      swap1\n      pop\n      pop\n        /* \"PKIRegistry.sol\":7326:7336  msg.sender */\n      caller\n        /* \"PKIRegistry.sol\":7307:7348  KYCVerified(_user, msg.sender, expiresAt) */\n      0xffffffffffffffffffffffffffffffffffffffff\n      and\n        /* \"PKIRegistry.sol\":7319:7324  _user */\n      dup6\n        /* \"PKIRegistry.sol\":7307:7348  KYCVerified(_user, msg.sender, expiresAt) */\n      0xffffffffffffffffffffffffffffffffffffffff\n      and\n      0xd8b879062b804f0a2bd0b75ba02d6dbd9999fc9971ece871c8d1aedb447c5f93\n        /* \"PKIRegistry.sol\":7338:7347  expiresAt */\n      dup4\n        /* \"PKIRegistry.sol\":7307:7348  KYCVerified(_user, msg.sender, expiresAt) */\n      mload(0x40)\n      tag_287\n      swap2\n      swap1\n      tag_107\n      jump\t// in\n    tag_287:\n      mload(0x40)\n      dup1\n      swap2\n      sub\n      swap1\n      log3\n        /* \"PKIRegistry.sol\":6826:7355  {... */\n      pop\n        /* \"PKIRegistry.sol\":3522:3523  _ */\n      pop\n        /* \"PKIRegistry.sol\":6675:7355  function verifyKYC(... */\n      pop\n      pop\n      pop\n      jump\t// out\n        /* \"PKIRegistry.sol\":14528:14690  function transferOwnership(address _newOwner) external onlyOwner {... */\n    tag_126:\n        /* \"PKIRegistry.sol\":3364:3369  owner */\n      0x05\n      0x00\n      swap1\n      sload\n      swap1\n      0x0100\n      exp\n      swap1\n      div\n      0xffffffffffffffffffffffffffffffffffffffff\n      and\n        /* \"PKIRegistry.sol\":3350:3369  msg.sender == owner */\n      0xffffffffffffffffffffffffffffffffffffffff\n      and\n        /* \"PKIRegistry.sol\":3350:3360  msg.sender */\n      caller\n        /* \"PKIRegistry.sol\":3350:3369  msg.sender == owner */\n      0xffffffffffffffffffffffffffffffffffffffff\n      and\n      eq\n        /* \"PKIRegistry.sol\":3342:3384  require(msg.sender == owner, \"Only owner\") */\n      tag_289\n      jumpi\n      mload(0x40)\n      0x08c379a000000000000000000000000000000000000000000000000000000000\n      dup2\n      mstore\n      0x04\n      add\n      tag_290\n      swap1\n      tag_167\n      jump\t// in\n    tag_290:\n      mload(0x40)\n      dup1\n      swap2\n      sub\n      swap1\n      revert\n    tag_289:\n        /* \"PKIRegistry.sol\":14632:14633  0 */\n      0x00\n        /* \"PKIRegistry.sol\":14611:14634  _newOwner != address(0) */\n      0xffffffffffffffffffffffffffffffffffffffff\n      and\n        /* \"PKIRegistry.sol\":14611:14620  _newOwner */\n      dup2\n        /* \"PKIRegistry.sol\":14611:14634  _newOwner != address(0) */\n      0xffffffffffffffffffffffffffffffffffffffff\n      and\n      eq\n      iszero\n        /* \"PKIRegistry.sol\":14603:14656  require(_newOwner != address(0), \"Invalid new owner\") */\n      tag_292\n      jumpi\n      mload(0x40)\n      0x08c379a000000000000000000000000000000000000000000000000000000000\n      dup2\n      mstore\n      0x04\n      add\n      tag_293\n      swap1\n      tag_294\n      jump\t// in\n    tag_293:\n      mload(0x40)\n      dup1\n      swap2\n      sub\n      swap1\n      revert\n    tag_292:\n        /* \"PKIRegistry.sol\":14674:14683  _newOwner */\n      dup1\n        /* \"PKIRegistry.sol\":14666:14671  owner */\n      0x05\n      0x00\n        /* \"PKIRegistry.sol\":14666:14683  owner = _newOwner */\n      0x0100\n      exp\n      dup2\n      sload\n      dup2\n      0xffffffffffffffffffffffffffffffffffffffff\n      mul\n      not\n      and\n      swap1\n      dup4\n      0xffffffffffffffffffffffffffffffffffffffff\n      and\n      mul\n      or\n      swap1\n      sstore\n      pop\n        /* \"PKIRegistry.sol\":14528:14690  function transferOwnership(address _newOwner) external onlyOwner {... */\n      pop\n      jump\t// out\n        /* \"PKIRegistry.sol\":8483:9099  function setAuthorization(... */\n    tag_130:\n        /* \"PKIRegistry.sol\":3460:3475  authorizedBanks */\n      0x04\n        /* \"PKIRegistry.sol\":3460:3487  authorizedBanks[msg.sender] */\n      0x00\n        /* \"PKIRegistry.sol\":3476:3486  msg.sender */\n      caller\n        /* \"PKIRegistry.sol\":3460:3487  authorizedBanks[msg.sender] */\n      0xffffffffffffffffffffffffffffffffffffffff\n      and\n      0xffffffffffffffffffffffffffffffffffffffff\n      and\n      dup2\n      mstore\n      0x20\n      add\n      swap1\n      dup2\n      mstore\n      0x20\n      add\n      0x00\n      keccak256\n      0x00\n      swap1\n      sload\n      swap1\n      0x0100\n      exp\n      swap1\n      div\n      0xff\n      and\n        /* \"PKIRegistry.sol\":3452:3512  require(authorizedBanks[msg.sender], \"Only authorized bank\") */\n      tag_296\n      jumpi\n      mload(0x40)\n      0x08c379a000000000000000000000000000000000000000000000000000000000\n      dup2\n      mstore\n      0x04\n      add\n      tag_297\n      swap1\n      tag_185\n      jump\t// in\n    tag_297:\n      mload(0x40)\n      dup1\n      swap2\n      sub\n      swap1\n      revert\n    tag_296:\n        /* \"PKIRegistry.sol\":8659:8664  _user */\n      dup4\n        /* \"PKIRegistry.sol\":3593:3598  users */\n      0x00\n        /* \"PKIRegistry.sol\":3593:3605  users[_user] */\n      dup1\n        /* \"PKIRegistry.sol\":3599:3604  _user */\n      dup3\n        /* \"PKIRegistry.sol\":3593:3605  users[_user] */\n      0xffffffffffffffffffffffffffffffffffffffff\n      and\n      0xffffffffffffffffffffffffffffffffffffffff\n      and\n      dup2\n      mstore\n      0x20\n      add\n      swap1\n      dup2\n      mstore\n      0x20\n      add\n      0x00\n      keccak256\n        /* \"PKIRegistry.sol\":3593:3614  users[_user].isActive */\n      0x03\n      add\n      0x00\n      swap1\n      sload\n      swap1\n      0x0100\n      exp\n      swap1\n      div\n      0xff\n      and\n        /* \"PKIRegistry.sol\":3585:3638  require(users[_user].isActive, \"User not registered\") */\n      tag_299\n      jumpi\n      mload(0x40)\n      0x08c379a000000000000000000000000000000000000000000000000000000000\n      dup2\n      mstore\n      0x04\n      add\n      tag_300\n      swap1\n      tag_156\n      jump\t// in\n    tag_300:\n      mload(0x40)\n      dup1\n      swap2\n      sub\n      swap1\n      revert\n    tag_299:\n        /* \"PKIRegistry.sol\":8732:8744  _canTransfer */\n      dup4\n        /* \"PKIRegistry.sol\":8728:8814  if (_canTransfer) {... */\n      iszero\n      tag_302\n      jumpi\n        /* \"PKIRegistry.sol\":8768:8785  isKYCValid(_user) */\n      tag_303\n        /* \"PKIRegistry.sol\":8779:8784  _user */\n      dup6\n        /* \"PKIRegistry.sol\":8768:8778  isKYCValid */\n      tag_110\n        /* \"PKIRegistry.sol\":8768:8785  isKYCValid(_user) */\n      jump\t// in\n    tag_303:\n        /* \"PKIRegistry.sol\":8760:8803  require(isKYCValid(_user), \"KYC not valid\") */\n      tag_304\n      jumpi\n      mload(0x40)\n      0x08c379a000000000000000000000000000000000000000000000000000000000\n      dup2\n      mstore\n      0x04\n      add\n      tag_305\n      swap1\n      tag_306\n      jump\t// in\n    tag_305:\n      mload(0x40)\n      dup1\n      swap2\n      sub\n      swap1\n      revert\n    tag_304:\n        /* \"PKIRegistry.sol\":8728:8814  if (_canTransfer) {... */\n    tag_302:\n        /* \"PKIRegistry.sol\":8832:8858  Authorization storage auth */\n      0x00\n        /* \"PKIRegistry.sol\":8861:8875  authorizations */\n      0x02\n        /* \"PKIRegistry.sol\":8861:8882  authorizations[_user] */\n      0x00\n        /* \"PKIRegistry.sol\":8876:8881  _user */\n      dup8\n        /* \"PKIRegistry.sol\":8861:8882  authorizations[_user] */\n      0xffffffffffffffffffffffffffffffffffffffff\n      and\n      0xffffffffffffffffffffffffffffffffffffffff\n      and\n      dup2\n      mstore\n      0x20\n      add\n      swap1\n      dup2\n      mstore\n      0x20\n      add\n      0x00\n      keccak256\n        /* \"PKIRegistry.sol\":8832:8882  Authorization storage auth = authorizations[_user] */\n      swap1\n      pop\n        /* \"PKIRegistry.sol\":8911:8923  _canTransfer */\n      dup5\n        /* \"PKIRegistry.sol\":8892:8896  auth */\n      dup2\n        /* \"PKIRegistry.sol\":8892:8908  auth.canTransfer */\n      0x00\n      add\n      0x00\n        /* \"PKIRegistry.sol\":8892:8923  auth.canTransfer = _canTransfer */\n      0x0100\n      exp\n      dup2\n      sload\n      dup2\n      0xff\n      mul\n      not\n      and\n      swap1\n      dup4\n      iszero\n      iszero\n      mul\n      or\n      swap1\n      sstore\n      pop\n        /* \"PKIRegistry.sol\":8951:8962  _canReceive */\n      dup4\n        /* \"PKIRegistry.sol\":8933:8937  auth */\n      dup2\n        /* \"PKIRegistry.sol\":8933:8948  auth.canReceive */\n      0x00\n      add\n      0x01\n        /* \"PKIRegistry.sol\":8933:8962  auth.canReceive = _canReceive */\n      0x0100\n      exp\n      dup2\n      sload\n      dup2\n      0xff\n      mul\n      not\n      and\n      swap1\n      dup4\n      iszero\n      iszero\n      mul\n      or\n      swap1\n      sstore\n      pop\n        /* \"PKIRegistry.sol\":8990:9001  _dailyLimit */\n      dup3\n        /* \"PKIRegistry.sol\":8972:8976  auth */\n      dup2\n        /* \"PKIRegistry.sol\":8972:8987  auth.dailyLimit */\n      0x01\n      add\n        /* \"PKIRegistry.sol\":8972:9001  auth.dailyLimit = _dailyLimit */\n      dup2\n      swap1\n      sstore\n      pop\n        /* \"PKIRegistry.sol\":9046:9051  _user */\n      dup6\n        /* \"PKIRegistry.sol\":9025:9092  AuthorizationUpdated(_user, _canTransfer, _canReceive, _dailyLimit) */\n      0xffffffffffffffffffffffffffffffffffffffff\n      and\n      0xe09f351285582300d5adeecdd1c078eb70f18994db120594db4e76c72ca955f5\n        /* \"PKIRegistry.sol\":9053:9065  _canTransfer */\n      dup7\n        /* \"PKIRegistry.sol\":9067:9078  _canReceive */\n      dup7\n        /* \"PKIRegistry.sol\":9080:9091  _dailyLimit */\n      dup7\n        /* \"PKIRegistry.sol\":9025:9092  AuthorizationUpdated(_user, _canTransfer, _canReceive, _dailyLimit) */\n      mload(0x40)\n      tag_307\n      swap4\n      swap3\n      swap2\n      swap1\n      tag_308\n      jump\t// in\n    tag_307:\n      mload(0x40)\n      dup1\n      swap2\n      sub\n      swap1\n      log2\n        /* \"PKIRegistry.sol\":8666:9099  {... */\n      pop\n        /* \"PKIRegistry.sol\":3522:3523  _ */\n      pop\n        /* \"PKIRegistry.sol\":8483:9099  function setAuthorization(... */\n      pop\n      pop\n      pop\n      pop\n      jump\t// out\n    tag_146:\n      dup3\n      dup1\n      sload\n      tag_309\n      swap1\n      tag_159\n      jump\t// in\n    tag_309:\n      swap1\n      0x00\n      mstore\n      keccak256(0x00, 0x20)\n      swap1\n      0x1f\n      add\n      0x20\n      swap1\n      div\n      dup2\n      add\n      swap3\n      dup3\n      tag_311\n      jumpi\n      0x00\n      dup6\n      sstore\n      jump(tag_310)\n    tag_311:\n      dup3\n      0x1f\n      lt\n      tag_312\n      jumpi\n      dup1\n      mload\n      not(0xff)\n      and\n      dup4\n      dup1\n      add\n      or\n      dup6\n      sstore\n      jump(tag_310)\n    tag_312:\n      dup3\n      dup1\n      add\n      0x01\n      add\n      dup6\n      sstore\n      dup3\n      iszero\n      tag_310\n      jumpi\n      swap2\n      dup3\n      add\n    tag_313:\n      dup3\n      dup2\n      gt\n      iszero\n      tag_314\n      jumpi\n      dup3\n      mload\n      dup3\n      sstore\n      swap2\n      0x20\n      add\n      swap2\n      swap1\n      0x01\n      add\n      swap1\n      jump(tag_313)\n    tag_314:\n    tag_310:\n      pop\n      swap1\n      pop\n      tag_315\n      swap2\n      swap1\n      tag_316\n      jump\t// in\n    tag_315:\n      pop\n      swap1\n      jump\t// out\n    tag_209:\n      mload(0x40)\n      dup1\n      0xc0\n      add\n      0x40\n      mstore\n      dup1\n      and(0xffffffffffffffffffffffffffffffffffffffff, 0x00)\n      dup2\n      mstore\n      0x20\n      add\n      0x60\n      dup2\n      mstore\n      0x20\n      add\n      0x00\n      dup1\n      not\n      and\n      dup2\n      mstore\n      0x20\n      add\n      iszero(iszero(0x00))\n      dup2\n      mstore\n      0x20\n      add\n      0x00\n      dup2\n      mstore\n      0x20\n      add\n      0x00\n      dup2\n      mstore\n      pop\n      swap1\n      jump\t// out\n    tag_211:\n      mload(0x40)\n      dup1\n      0xa0\n      add\n      0x40\n      mstore\n      dup1\n      iszero(iszero(0x00))\n      dup2\n      mstore\n      0x20\n      add\n      0x00\n      dup2\n      mstore\n      0x20\n      add\n      0x00\n      dup2\n      mstore\n      0x20\n      add\n      0x00\n      dup1\n      not\n      and\n      dup2\n      mstore\n      0x20\n      add\n      and(0xffffffffffffffffffffffffffffffffffffffff, 0x00)\n      dup2\n      mstore\n      pop\n      swap1\n      jump\t// out\n    tag_213:\n      mload(0x40)\n      dup1\n      0xa0\n      add\n      0x40\n      mstore\n      dup1\n      iszero(iszero(0x00))\n      dup2\n      mstore\n      0x20\n      add\n      iszero(iszero(0x00))\n      dup2\n      mstore\n      0x20\n      add\n      0x00\n      dup2\n      mstore\n      0x20\n      add\n      0x00\n      dup2\n      mstore\n      0x20\n      add\n      0x00\n      dup2\n      mstore\n      pop\n      swap1\n      jump\t// out\n    tag_316:\n    tag_317:\n      dup1\n      dup3\n      gt\n      iszero\n      tag_318\n      jumpi\n      0x00\n      dup2\n      0x00\n      swap1\n      sstore\n      pop\n      0x01\n      add\n      jump(tag_317)\n    tag_318:\n      pop\n      swap1\n      jump\t// out\n        /* \"#utility.yul\":7:82   */\n    tag_319:\n        /* \"#utility.yul\":40:46   */\n      0x00\n        /* \"#utility.yul\":73:75   */\n      0x40\n        /* \"#utility.yul\":67:76   */\n      mload\n        /* \"#utility.yul\":57:76   */\n      swap1\n      pop\n        /* \"#utility.yul\":7:82   */\n      swap1\n      jump\t// out\n        /* \"#utility.yul\":88:205   */\n    tag_320:\n        /* \"#utility.yul\":197:198   */\n      0x00\n        /* \"#utility.yul\":194:195   */\n      dup1\n        /* \"#utility.yul\":187:199   */\n      revert\n        /* \"#utility.yul\":211:328   */\n    tag_321:\n        /* \"#utility.yul\":320:321   */\n      0x00\n        /* \"#utility.yul\":317:318   */\n      dup1\n        /* \"#utility.yul\":310:322   */\n      revert\n        /* \"#utility.yul\":334:451   */\n    tag_322:\n        /* \"#utility.yul\":443:444   */\n      0x00\n        /* \"#utility.yul\":440:441   */\n      dup1\n        /* \"#utility.yul\":433:445   */\n      revert\n        /* \"#utility.yul\":457:574   */\n    tag_323:\n        /* \"#utility.yul\":566:567   */\n      0x00\n        /* \"#utility.yul\":563:564   */\n      dup1\n        /* \"#utility.yul\":556:568   */\n      revert\n        /* \"#utility.yul\":580:682   */\n    tag_324:\n        /* \"#utility.yul\":621:627   */\n      0x00\n        /* \"#utility.yul\":672:674   */\n      0x1f\n        /* \"#utility.yul\":668:675   */\n      not\n        /* \"#utility.yul\":663:665   */\n      0x1f\n        /* \"#utility.yul\":656:661   */\n      dup4\n        /* \"#utility.yul\":652:666   */\n      add\n        /* \"#utility.yul\":648:676   */\n      and\n        /* \"#utility.yul\":638:676   */\n      swap1\n      pop\n        /* \"#utility.yul\":580:682   */\n      swap2\n      swap1\n      pop\n      jump\t// out\n        /* \"#utility.yul\":688:868   */\n    tag_325:\n        /* \"#utility.yul\":736:813   */\n      0x4e487b7100000000000000000000000000000000000000000000000000000000\n        /* \"#utility.yul\":733:734   */\n      0x00\n        /* \"#utility.yul\":726:814   */\n      mstore\n        /* \"#utility.yul\":833:837   */\n      0x41\n        /* \"#utility.yul\":830:831   */\n      0x04\n        /* \"#utility.yul\":823:838   */\n      mstore\n        /* \"#utility.yul\":857:861   */\n      0x24\n        /* \"#utility.yul\":854:855   */\n      0x00\n        /* \"#utility.yul\":847:862   */\n      revert\n        /* \"#utility.yul\":874:1155   */\n    tag_326:\n        /* \"#utility.yul\":957:984   */\n      tag_411\n        /* \"#utility.yul\":979:983   */\n      dup3\n        /* \"#utility.yul\":957:984   */\n      tag_324\n      jump\t// in\n    tag_411:\n        /* \"#utility.yul\":949:955   */\n      dup2\n        /* \"#utility.yul\":945:985   */\n      add\n        /* \"#utility.yul\":1087:1093   */\n      dup2\n        /* \"#utility.yul\":1075:1085   */\n      dup2\n        /* \"#utility.yul\":1072:1094   */\n      lt\n        /* \"#utility.yul\":1051:1069   */\n      0xffffffffffffffff\n        /* \"#utility.yul\":1039:1049   */\n      dup3\n        /* \"#utility.yul\":1036:1070   */\n      gt\n        /* \"#utility.yul\":1033:1095   */\n      or\n        /* \"#utility.yul\":1030:1118   */\n      iszero\n      tag_412\n      jumpi\n        /* \"#utility.yul\":1098:1116   */\n      tag_413\n      tag_325\n      jump\t// in\n    tag_413:\n        /* \"#utility.yul\":1030:1118   */\n    tag_412:\n        /* \"#utility.yul\":1138:1148   */\n      dup1\n        /* \"#utility.yul\":1134:1136   */\n      0x40\n        /* \"#utility.yul\":1127:1149   */\n      mstore\n        /* \"#utility.yul\":917:1155   */\n      pop\n        /* \"#utility.yul\":874:1155   */\n      pop\n      pop\n      jump\t// out\n        /* \"#utility.yul\":1161:1290   */\n    tag_327:\n        /* \"#utility.yul\":1195:1201   */\n      0x00\n        /* \"#utility.yul\":1222:1242   */\n      tag_415\n      tag_319\n      jump\t// in\n    tag_415:\n        /* \"#utility.yul\":1212:1242   */\n      swap1\n      pop\n        /* \"#utility.yul\":1251:1284   */\n      tag_416\n        /* \"#utility.yul\":1279:1283   */\n      dup3\n        /* \"#utility.yul\":1271:1277   */\n      dup3\n        /* \"#utility.yul\":1251:1284   */\n      tag_326\n      jump\t// in\n    tag_416:\n        /* \"#utility.yul\":1161:1290   */\n      swap2\n      swap1\n      pop\n      jump\t// out\n        /* \"#utility.yul\":1296:1603   */\n    tag_328:\n        /* \"#utility.yul\":1357:1361   */\n      0x00\n        /* \"#utility.yul\":1447:1465   */\n      0xffffffffffffffff\n        /* \"#utility.yul\":1439:1445   */\n      dup3\n        /* \"#utility.yul\":1436:1466   */\n      gt\n        /* \"#utility.yul\":1433:1489   */\n      iszero\n      tag_418\n      jumpi\n        /* \"#utility.yul\":1469:1487   */\n      tag_419\n      tag_325\n      jump\t// in\n    tag_419:\n        /* \"#utility.yul\":1433:1489   */\n    tag_418:\n        /* \"#utility.yul\":1507:1536   */\n      tag_420\n        /* \"#utility.yul\":1529:1535   */\n      dup3\n        /* \"#utility.yul\":1507:1536   */\n      tag_324\n      jump\t// in\n    tag_420:\n        /* \"#utility.yul\":1499:1536   */\n      swap1\n      pop\n        /* \"#utility.yul\":1591:1595   */\n      0x20\n        /* \"#utility.yul\":1585:1589   */\n      dup2\n        /* \"#utility.yul\":1581:1596   */\n      add\n        /* \"#utility.yul\":1573:1596   */\n      swap1\n      pop\n        /* \"#utility.yul\":1296:1603   */\n      swap2\n      swap1\n      pop\n      jump\t// out\n        /* \"#utility.yul\":1609:1763   */\n    tag_329:\n        /* \"#utility.yul\":1693:1699   */\n      dup3\n        /* \"#utility.yul\":1688:1691   */\n      dup2\n        /* \"#utility.yul\":1683:1686   */\n      dup4\n        /* \"#utility.yul\":1670:1700   */\n      calldatacopy\n        /* \"#utility.yul\":1755:1756   */\n      0x00\n        /* \"#utility.yul\":1746:1752   */\n      dup4\n        /* \"#utility.yul\":1741:1744   */\n      dup4\n        /* \"#utility.yul\":1737:1753   */\n      add\n        /* \"#utility.yul\":1730:1757   */\n      mstore\n        /* \"#utility.yul\":1609:1763   */\n      pop\n      pop\n      pop\n      jump\t// out\n        /* \"#utility.yul\":1769:2179   */\n    tag_330:\n        /* \"#utility.yul\":1846:1851   */\n      0x00\n        /* \"#utility.yul\":1871:1936   */\n      tag_423\n        /* \"#utility.yul\":1887:1935   */\n      tag_424\n        /* \"#utility.yul\":1928:1934   */\n      dup5\n        /* \"#utility.yul\":1887:1935   */\n      tag_328\n      jump\t// in\n    tag_424:\n        /* \"#utility.yul\":1871:1936   */\n      tag_327\n      jump\t// in\n    tag_423:\n        /* \"#utility.yul\":1862:1936   */\n      swap1\n      pop\n        /* \"#utility.yul\":1959:1965   */\n      dup3\n        /* \"#utility.yul\":1952:1957   */\n      dup2\n        /* \"#utility.yul\":1945:1966   */\n      mstore\n        /* \"#utility.yul\":1997:2001   */\n      0x20\n        /* \"#utility.yul\":1990:1995   */\n      dup2\n        /* \"#utility.yul\":1986:2002   */\n      add\n        /* \"#utility.yul\":2035:2038   */\n      dup5\n        /* \"#utility.yul\":2026:2032   */\n      dup5\n        /* \"#utility.yul\":2021:2024   */\n      dup5\n        /* \"#utility.yul\":2017:2033   */\n      add\n        /* \"#utility.yul\":2014:2039   */\n      gt\n        /* \"#utility.yul\":2011:2123   */\n      iszero\n      tag_425\n      jumpi\n        /* \"#utility.yul\":2042:2121   */\n      tag_426\n      tag_323\n      jump\t// in\n    tag_426:\n        /* \"#utility.yul\":2011:2123   */\n    tag_425:\n        /* \"#utility.yul\":2132:2173   */\n      tag_427\n        /* \"#utility.yul\":2166:2172   */\n      dup5\n        /* \"#utility.yul\":2161:2164   */\n      dup3\n        /* \"#utility.yul\":2156:2159   */\n      dup6\n        /* \"#utility.yul\":2132:2173   */\n      tag_329\n      jump\t// in\n    tag_427:\n        /* \"#utility.yul\":1852:2179   */\n      pop\n        /* \"#utility.yul\":1769:2179   */\n      swap4\n      swap3\n      pop\n      pop\n      pop\n      jump\t// out\n        /* \"#utility.yul\":2198:2536   */\n    tag_331:\n        /* \"#utility.yul\":2253:2258   */\n      0x00\n        /* \"#utility.yul\":2302:2305   */\n      dup3\n        /* \"#utility.yul\":2295:2299   */\n      0x1f\n        /* \"#utility.yul\":2287:2293   */\n      dup4\n        /* \"#utility.yul\":2283:2300   */\n      add\n        /* \"#utility.yul\":2279:2306   */\n      slt\n        /* \"#utility.yul\":2269:2391   */\n      tag_429\n      jumpi\n        /* \"#utility.yul\":2310:2389   */\n      tag_430\n      tag_322\n      jump\t// in\n    tag_430:\n        /* \"#utility.yul\":2269:2391   */\n    tag_429:\n        /* \"#utility.yul\":2427:2433   */\n      dup2\n        /* \"#utility.yul\":2414:2434   */\n      calldataload\n        /* \"#utility.yul\":2452:2530   */\n      tag_431\n        /* \"#utility.yul\":2526:2529   */\n      dup5\n        /* \"#utility.yul\":2518:2524   */\n      dup3\n        /* \"#utility.yul\":2511:2515   */\n      0x20\n        /* \"#utility.yul\":2503:2509   */\n      dup7\n        /* \"#utility.yul\":2499:2516   */\n      add\n        /* \"#utility.yul\":2452:2530   */\n      tag_330\n      jump\t// in\n    tag_431:\n        /* \"#utility.yul\":2443:2530   */\n      swap2\n      pop\n        /* \"#utility.yul\":2259:2536   */\n      pop\n        /* \"#utility.yul\":2198:2536   */\n      swap3\n      swap2\n      pop\n      pop\n      jump\t// out\n        /* \"#utility.yul\":2542:3049   */\n    tag_32:\n        /* \"#utility.yul\":2610:2616   */\n      0x00\n        /* \"#utility.yul\":2659:2661   */\n      0x20\n        /* \"#utility.yul\":2647:2656   */\n      dup3\n        /* \"#utility.yul\":2638:2645   */\n      dup5\n        /* \"#utility.yul\":2634:2657   */\n      sub\n        /* \"#utility.yul\":2630:2662   */\n      slt\n        /* \"#utility.yul\":2627:2746   */\n      iszero\n      tag_433\n      jumpi\n        /* \"#utility.yul\":2665:2744   */\n      tag_434\n      tag_320\n      jump\t// in\n    tag_434:\n        /* \"#utility.yul\":2627:2746   */\n    tag_433:\n        /* \"#utility.yul\":2813:2814   */\n      0x00\n        /* \"#utility.yul\":2802:2811   */\n      dup3\n        /* \"#utility.yul\":2798:2815   */\n      add\n        /* \"#utility.yul\":2785:2816   */\n      calldataload\n        /* \"#utility.yul\":2843:2861   */\n      0xffffffffffffffff\n        /* \"#utility.yul\":2835:2841   */\n      dup2\n        /* \"#utility.yul\":2832:2862   */\n      gt\n        /* \"#utility.yul\":2829:2946   */\n      iszero\n      tag_435\n      jumpi\n        /* \"#utility.yul\":2865:2944   */\n      tag_436\n      tag_321\n      jump\t// in\n    tag_436:\n        /* \"#utility.yul\":2829:2946   */\n    tag_435:\n        /* \"#utility.yul\":2970:3032   */\n      tag_437\n        /* \"#utility.yul\":3024:3031   */\n      dup5\n        /* \"#utility.yul\":3015:3021   */\n      dup3\n        /* \"#utility.yul\":3004:3013   */\n      dup6\n        /* \"#utility.yul\":3000:3022   */\n      add\n        /* \"#utility.yul\":2970:3032   */\n      tag_331\n      jump\t// in\n    tag_437:\n        /* \"#utility.yul\":2960:3032   */\n      swap2\n      pop\n        /* \"#utility.yul\":2756:3042   */\n      pop\n        /* \"#utility.yul\":2542:3049   */\n      swap3\n      swap2\n      pop\n      pop\n      jump\t// out\n        /* \"#utility.yul\":3055:3181   */\n    tag_332:\n        /* \"#utility.yul\":3092:3099   */\n      0x00\n        /* \"#utility.yul\":3132:3174   */\n      0xffffffffffffffffffffffffffffffffffffffff\n        /* \"#utility.yul\":3125:3130   */\n      dup3\n        /* \"#utility.yul\":3121:3175   */\n      and\n        /* \"#utility.yul\":3110:3175   */\n      swap1\n      pop\n        /* \"#utility.yul\":3055:3181   */\n      swap2\n      swap1\n      pop\n      jump\t// out\n        /* \"#utility.yul\":3187:3283   */\n    tag_333:\n        /* \"#utility.yul\":3224:3231   */\n      0x00\n        /* \"#utility.yul\":3253:3277   */\n      tag_440\n        /* \"#utility.yul\":3271:3276   */\n      dup3\n        /* \"#utility.yul\":3253:3277   */\n      tag_332\n      jump\t// in\n    tag_440:\n        /* \"#utility.yul\":3242:3277   */\n      swap1\n      pop\n        /* \"#utility.yul\":3187:3283   */\n      swap2\n      swap1\n      pop\n      jump\t// out\n        /* \"#utility.yul\":3289:3411   */\n    tag_334:\n        /* \"#utility.yul\":3362:3386   */\n      tag_442\n        /* \"#utility.yul\":3380:3385   */\n      dup2\n        /* \"#utility.yul\":3362:3386   */\n      tag_333\n      jump\t// in\n    tag_442:\n        /* \"#utility.yul\":3355:3360   */\n      dup2\n        /* \"#utility.yul\":3352:3387   */\n      eq\n        /* \"#utility.yul\":3342:3405   */\n      tag_443\n      jumpi\n        /* \"#utility.yul\":3401:3402   */\n      0x00\n        /* \"#utility.yul\":3398:3399   */\n      dup1\n        /* \"#utility.yul\":3391:3403   */\n      revert\n        /* \"#utility.yul\":3342:3405   */\n    tag_443:\n        /* \"#utility.yul\":3289:3411   */\n      pop\n      jump\t// out\n        /* \"#utility.yul\":3417:3556   */\n    tag_335:\n        /* \"#utility.yul\":3463:3468   */\n      0x00\n        /* \"#utility.yul\":3501:3507   */\n      dup2\n        /* \"#utility.yul\":3488:3508   */\n      calldataload\n        /* \"#utility.yul\":3479:3508   */\n      swap1\n      pop\n        /* \"#utility.yul\":3517:3550   */\n      tag_445\n        /* \"#utility.yul\":3544:3549   */\n      dup2\n        /* \"#utility.yul\":3517:3550   */\n      tag_334\n      jump\t// in\n    tag_445:\n        /* \"#utility.yul\":3417:3556   */\n      swap3\n      swap2\n      pop\n      pop\n      jump\t// out\n        /* \"#utility.yul\":3562:3891   */\n    tag_36:\n        /* \"#utility.yul\":3621:3627   */\n      0x00\n        /* \"#utility.yul\":3670:3672   */\n      0x20\n        /* \"#utility.yul\":3658:3667   */\n      dup3\n        /* \"#utility.yul\":3649:3656   */\n      dup5\n        /* \"#utility.yul\":3645:3668   */\n      sub\n        /* \"#utility.yul\":3641:3673   */\n      slt\n        /* \"#utility.yul\":3638:3757   */\n      iszero\n      tag_447\n      jumpi\n        /* \"#utility.yul\":3676:3755   */\n      tag_448\n      tag_320\n      jump\t// in\n    tag_448:\n        /* \"#utility.yul\":3638:3757   */\n    tag_447:\n        /* \"#utility.yul\":3796:3797   */\n      0x00\n        /* \"#utility.yul\":3821:3874   */\n      tag_449\n        /* \"#utility.yul\":3866:3873   */\n      dup5\n        /* \"#utility.yul\":3857:3863   */\n      dup3\n        /* \"#utility.yul\":3846:3855   */\n      dup6\n        /* \"#utility.yul\":3842:3864   */\n      add\n        /* \"#utility.yul\":3821:3874   */\n      tag_335\n      jump\t// in\n    tag_449:\n        /* \"#utility.yul\":3811:3874   */\n      swap2\n      pop\n        /* \"#utility.yul\":3767:3884   */\n      pop\n        /* \"#utility.yul\":3562:3891   */\n      swap3\n      swap2\n      pop\n      pop\n      jump\t// out\n        /* \"#utility.yul\":3897:3995   */\n    tag_336:\n        /* \"#utility.yul\":3948:3954   */\n      0x00\n        /* \"#utility.yul\":3982:3987   */\n      dup2\n        /* \"#utility.yul\":3976:3988   */\n      mload\n        /* \"#utility.yul\":3966:3988   */\n      swap1\n      pop\n        /* \"#utility.yul\":3897:3995   */\n      swap2\n      swap1\n      pop\n      jump\t// out\n        /* \"#utility.yul\":4001:4169   */\n    tag_337:\n        /* \"#utility.yul\":4084:4095   */\n      0x00\n        /* \"#utility.yul\":4118:4124   */\n      dup3\n        /* \"#utility.yul\":4113:4116   */\n      dup3\n        /* \"#utility.yul\":4106:4125   */\n      mstore\n        /* \"#utility.yul\":4158:4162   */\n      0x20\n        /* \"#utility.yul\":4153:4156   */\n      dup3\n        /* \"#utility.yul\":4149:4163   */\n      add\n        /* \"#utility.yul\":4134:4163   */\n      swap1\n      pop\n        /* \"#utility.yul\":4001:4169   */\n      swap3\n      swap2\n      pop\n      pop\n      jump\t// out\n        /* \"#utility.yul\":4175:4482   */\n    tag_338:\n        /* \"#utility.yul\":4243:4244   */\n      0x00\n        /* \"#utility.yul\":4253:4366   */\n    tag_453:\n        /* \"#utility.yul\":4267:4273   */\n      dup4\n        /* \"#utility.yul\":4264:4265   */\n      dup2\n        /* \"#utility.yul\":4261:4274   */\n      lt\n        /* \"#utility.yul\":4253:4366   */\n      iszero\n      tag_455\n      jumpi\n        /* \"#utility.yul\":4352:4353   */\n      dup1\n        /* \"#utility.yul\":4347:4350   */\n      dup3\n        /* \"#utility.yul\":4343:4354   */\n      add\n        /* \"#utility.yul\":4337:4355   */\n      mload\n        /* \"#utility.yul\":4333:4334   */\n      dup2\n        /* \"#utility.yul\":4328:4331   */\n      dup5\n        /* \"#utility.yul\":4324:4335   */\n      add\n        /* \"#utility.yul\":4317:4356   */\n      mstore\n        /* \"#utility.yul\":4289:4291   */\n      0x20\n        /* \"#utility.yul\":4286:4287   */\n      dup2\n        /* \"#utility.yul\":4282:4292   */\n      add\n        /* \"#utility.yul\":4277:4292   */\n      swap1\n      pop\n        /* \"#utility.yul\":4253:4366   */\n      jump(tag_453)\n    tag_455:\n        /* \"#utility.yul\":4384:4390   */\n      dup4\n        /* \"#utility.yul\":4381:4382   */\n      dup2\n        /* \"#utility.yul\":4378:4391   */\n      gt\n        /* \"#utility.yul\":4375:4476   */\n      iszero\n      tag_456\n      jumpi\n        /* \"#utility.yul\":4464:4465   */\n      0x00\n        /* \"#utility.yul\":4455:4461   */\n      dup5\n        /* \"#utility.yul\":4450:4453   */\n      dup5\n        /* \"#utility.yul\":4446:4462   */\n      add\n        /* \"#utility.yul\":4439:4466   */\n      mstore\n        /* \"#utility.yul\":4375:4476   */\n    tag_456:\n        /* \"#utility.yul\":4224:4482   */\n      pop\n        /* \"#utility.yul\":4175:4482   */\n      pop\n      pop\n      pop\n      jump\t// out\n        /* \"#utility.yul\":4488:4848   */\n    tag_339:\n        /* \"#utility.yul\":4574:4577   */\n      0x00\n        /* \"#utility.yul\":4602:4640   */\n      tag_458\n        /* \"#utility.yul\":4634:4639   */\n      dup3\n        /* \"#utility.yul\":4602:4640   */\n      tag_336\n      jump\t// in\n    tag_458:\n        /* \"#utility.yul\":4656:4726   */\n      tag_459\n        /* \"#utility.yul\":4719:4725   */\n      dup2\n        /* \"#utility.yul\":4714:4717   */\n      dup6\n        /* \"#utility.yul\":4656:4726   */\n      tag_337\n      jump\t// in\n    tag_459:\n        /* \"#utility.yul\":4649:4726   */\n      swap4\n      pop\n        /* \"#utility.yul\":4735:4787   */\n      tag_460\n        /* \"#utility.yul\":4780:4786   */\n      dup2\n        /* \"#utility.yul\":4775:4778   */\n      dup6\n        /* \"#utility.yul\":4768:4772   */\n      0x20\n        /* \"#utility.yul\":4761:4766   */\n      dup7\n        /* \"#utility.yul\":4757:4773   */\n      add\n        /* \"#utility.yul\":4735:4787   */\n      tag_338\n      jump\t// in\n    tag_460:\n        /* \"#utility.yul\":4812:4841   */\n      tag_461\n        /* \"#utility.yul\":4834:4840   */\n      dup2\n        /* \"#utility.yul\":4812:4841   */\n      tag_324\n      jump\t// in\n    tag_461:\n        /* \"#utility.yul\":4807:4810   */\n      dup5\n        /* \"#utility.yul\":4803:4842   */\n      add\n        /* \"#utility.yul\":4796:4842   */\n      swap2\n      pop\n        /* \"#utility.yul\":4578:4848   */\n      pop\n        /* \"#utility.yul\":4488:4848   */\n      swap3\n      swap2\n      pop\n      pop\n      jump\t// out\n        /* \"#utility.yul\":4854:5163   */\n    tag_39:\n        /* \"#utility.yul\":4965:4969   */\n      0x00\n        /* \"#utility.yul\":5003:5005   */\n      0x20\n        /* \"#utility.yul\":4992:5001   */\n      dup3\n        /* \"#utility.yul\":4988:5006   */\n      add\n        /* \"#utility.yul\":4980:5006   */\n      swap1\n      pop\n        /* \"#utility.yul\":5052:5061   */\n      dup2\n        /* \"#utility.yul\":5046:5050   */\n      dup2\n        /* \"#utility.yul\":5042:5062   */\n      sub\n        /* \"#utility.yul\":5038:5039   */\n      0x00\n        /* \"#utility.yul\":5027:5036   */\n      dup4\n        /* \"#utility.yul\":5023:5040   */\n      add\n        /* \"#utility.yul\":5016:5063   */\n      mstore\n        /* \"#utility.yul\":5080:5156   */\n      tag_463\n        /* \"#utility.yul\":5151:5155   */\n      dup2\n        /* \"#utility.yul\":5142:5148   */\n      dup5\n        /* \"#utility.yul\":5080:5156   */\n      tag_339\n      jump\t// in\n    tag_463:\n        /* \"#utility.yul\":5072:5156   */\n      swap1\n      pop\n        /* \"#utility.yul\":4854:5163   */\n      swap3\n      swap2\n      pop\n      pop\n      jump\t// out\n        /* \"#utility.yul\":5169:6144   */\n    tag_45:\n        /* \"#utility.yul\":5264:5270   */\n      0x00\n        /* \"#utility.yul\":5272:5278   */\n      dup1\n        /* \"#utility.yul\":5280:5286   */\n      0x00\n        /* \"#utility.yul\":5329:5331   */\n      0x60\n        /* \"#utility.yul\":5317:5326   */\n      dup5\n        /* \"#utility.yul\":5308:5315   */\n      dup7\n        /* \"#utility.yul\":5304:5327   */\n      sub\n        /* \"#utility.yul\":5300:5332   */\n      slt\n        /* \"#utility.yul\":5297:5416   */\n      iszero\n      tag_465\n      jumpi\n        /* \"#utility.yul\":5335:5414   */\n      tag_466\n      tag_320\n      jump\t// in\n    tag_466:\n        /* \"#utility.yul\":5297:5416   */\n    tag_465:\n        /* \"#utility.yul\":5455:5456   */\n      0x00\n        /* \"#utility.yul\":5480:5533   */\n      tag_467\n        /* \"#utility.yul\":5525:5532   */\n      dup7\n        /* \"#utility.yul\":5516:5522   */\n      dup3\n        /* \"#utility.yul\":5505:5514   */\n      dup8\n        /* \"#utility.yul\":5501:5523   */\n      add\n        /* \"#utility.yul\":5480:5533   */\n      tag_335\n      jump\t// in\n    tag_467:\n        /* \"#utility.yul\":5470:5533   */\n      swap4\n      pop\n        /* \"#utility.yul\":5426:5543   */\n      pop\n        /* \"#utility.yul\":5610:5612   */\n      0x20\n        /* \"#utility.yul\":5599:5608   */\n      dup5\n        /* \"#utility.yul\":5595:5613   */\n      add\n        /* \"#utility.yul\":5582:5614   */\n      calldataload\n        /* \"#utility.yul\":5641:5659   */\n      0xffffffffffffffff\n        /* \"#utility.yul\":5633:5639   */\n      dup2\n        /* \"#utility.yul\":5630:5660   */\n      gt\n        /* \"#utility.yul\":5627:5744   */\n      iszero\n      tag_468\n      jumpi\n        /* \"#utility.yul\":5663:5742   */\n      tag_469\n      tag_321\n      jump\t// in\n    tag_469:\n        /* \"#utility.yul\":5627:5744   */\n    tag_468:\n        /* \"#utility.yul\":5768:5830   */\n      tag_470\n        /* \"#utility.yul\":5822:5829   */\n      dup7\n        /* \"#utility.yul\":5813:5819   */\n      dup3\n        /* \"#utility.yul\":5802:5811   */\n      dup8\n        /* \"#utility.yul\":5798:5820   */\n      add\n        /* \"#utility.yul\":5768:5830   */\n      tag_331\n      jump\t// in\n    tag_470:\n        /* \"#utility.yul\":5758:5830   */\n      swap3\n      pop\n        /* \"#utility.yul\":5553:5840   */\n      pop\n        /* \"#utility.yul\":5907:5909   */\n      0x40\n        /* \"#utility.yul\":5896:5905   */\n      dup5\n        /* \"#utility.yul\":5892:5910   */\n      add\n        /* \"#utility.yul\":5879:5911   */\n      calldataload\n        /* \"#utility.yul\":5938:5956   */\n      0xffffffffffffffff\n        /* \"#utility.yul\":5930:5936   */\n      dup2\n        /* \"#utility.yul\":5927:5957   */\n      gt\n        /* \"#utility.yul\":5924:6041   */\n      iszero\n      tag_471\n      jumpi\n        /* \"#utility.yul\":5960:6039   */\n      tag_472\n      tag_321\n      jump\t// in\n    tag_472:\n        /* \"#utility.yul\":5924:6041   */\n    tag_471:\n        /* \"#utility.yul\":6065:6127   */\n      tag_473\n        /* \"#utility.yul\":6119:6126   */\n      dup7\n        /* \"#utility.yul\":6110:6116   */\n      dup3\n        /* \"#utility.yul\":6099:6108   */\n      dup8\n        /* \"#utility.yul\":6095:6117   */\n      add\n        /* \"#utility.yul\":6065:6127   */\n      tag_331\n      jump\t// in\n    tag_473:\n        /* \"#utility.yul\":6055:6127   */\n      swap2\n      pop\n        /* \"#utility.yul\":5850:6137   */\n      pop\n        /* \"#utility.yul\":5169:6144   */\n      swap3\n      pop\n      swap3\n      pop\n      swap3\n      jump\t// out\n        /* \"#utility.yul\":6150:6240   */\n    tag_340:\n        /* \"#utility.yul\":6184:6191   */\n      0x00\n        /* \"#utility.yul\":6227:6232   */\n      dup2\n        /* \"#utility.yul\":6220:6233   */\n      iszero\n        /* \"#utility.yul\":6213:6234   */\n      iszero\n        /* \"#utility.yul\":6202:6234   */\n      swap1\n      pop\n        /* \"#utility.yul\":6150:6240   */\n      swap2\n      swap1\n      pop\n      jump\t// out\n        /* \"#utility.yul\":6246:6355   */\n    tag_341:\n        /* \"#utility.yul\":6327:6348   */\n      tag_476\n        /* \"#utility.yul\":6342:6347   */\n      dup2\n        /* \"#utility.yul\":6327:6348   */\n      tag_340\n      jump\t// in\n    tag_476:\n        /* \"#utility.yul\":6322:6325   */\n      dup3\n        /* \"#utility.yul\":6315:6349   */\n      mstore\n        /* \"#utility.yul\":6246:6355   */\n      pop\n      pop\n      jump\t// out\n        /* \"#utility.yul\":6361:6571   */\n    tag_48:\n        /* \"#utility.yul\":6448:6452   */\n      0x00\n        /* \"#utility.yul\":6486:6488   */\n      0x20\n        /* \"#utility.yul\":6475:6484   */\n      dup3\n        /* \"#utility.yul\":6471:6489   */\n      add\n        /* \"#utility.yul\":6463:6489   */\n      swap1\n      pop\n        /* \"#utility.yul\":6499:6564   */\n      tag_478\n        /* \"#utility.yul\":6561:6562   */\n      0x00\n        /* \"#utility.yul\":6550:6559   */\n      dup4\n        /* \"#utility.yul\":6546:6563   */\n      add\n        /* \"#utility.yul\":6537:6543   */\n      dup5\n        /* \"#utility.yul\":6499:6564   */\n      tag_341\n      jump\t// in\n    tag_478:\n        /* \"#utility.yul\":6361:6571   */\n      swap3\n      swap2\n      pop\n      pop\n      jump\t// out\n        /* \"#utility.yul\":6577:6654   */\n    tag_342:\n        /* \"#utility.yul\":6614:6621   */\n      0x00\n        /* \"#utility.yul\":6643:6648   */\n      dup2\n        /* \"#utility.yul\":6632:6648   */\n      swap1\n      pop\n        /* \"#utility.yul\":6577:6654   */\n      swap2\n      swap1\n      pop\n      jump\t// out\n        /* \"#utility.yul\":6660:6778   */\n    tag_343:\n        /* \"#utility.yul\":6747:6771   */\n      tag_481\n        /* \"#utility.yul\":6765:6770   */\n      dup2\n        /* \"#utility.yul\":6747:6771   */\n      tag_342\n      jump\t// in\n    tag_481:\n        /* \"#utility.yul\":6742:6745   */\n      dup3\n        /* \"#utility.yul\":6735:6772   */\n      mstore\n        /* \"#utility.yul\":6660:6778   */\n      pop\n      pop\n      jump\t// out\n        /* \"#utility.yul\":6784:7424   */\n    tag_56:\n        /* \"#utility.yul\":6977:6981   */\n      0x00\n        /* \"#utility.yul\":7015:7018   */\n      0xa0\n        /* \"#utility.yul\":7004:7013   */\n      dup3\n        /* \"#utility.yul\":7000:7019   */\n      add\n        /* \"#utility.yul\":6992:7019   */\n      swap1\n      pop\n        /* \"#utility.yul\":7029:7094   */\n      tag_483\n        /* \"#utility.yul\":7091:7092   */\n      0x00\n        /* \"#utility.yul\":7080:7089   */\n      dup4\n        /* \"#utility.yul\":7076:7093   */\n      add\n        /* \"#utility.yul\":7067:7073   */\n      dup9\n        /* \"#utility.yul\":7029:7094   */\n      tag_341\n      jump\t// in\n    tag_483:\n        /* \"#utility.yul\":7104:7170   */\n      tag_484\n        /* \"#utility.yul\":7166:7168   */\n      0x20\n        /* \"#utility.yul\":7155:7164   */\n      dup4\n        /* \"#utility.yul\":7151:7169   */\n      add\n        /* \"#utility.yul\":7142:7148   */\n      dup8\n        /* \"#utility.yul\":7104:7170   */\n      tag_341\n      jump\t// in\n    tag_484:\n        /* \"#utility.yul\":7180:7252   */\n      tag_485\n        /* \"#utility.yul\":7248:7250   */\n      0x40\n        /* \"#utility.yul\":7237:7246   */\n      dup4\n        /* \"#utility.yul\":7233:7251   */\n      add\n        /* \"#utility.yul\":7224:7230   */\n      dup7\n        /* \"#utility.yul\":7180:7252   */\n      tag_343\n      jump\t// in\n    tag_485:\n        /* \"#utility.yul\":7262:7334   */\n      tag_486\n        /* \"#utility.yul\":7330:7332   */\n      0x60\n        /* \"#utility.yul\":7319:7328   */\n      dup4\n        /* \"#utility.yul\":7315:7333   */\n      add\n        /* \"#utility.yul\":7306:7312   */\n      dup6\n        /* \"#utility.yul\":7262:7334   */\n      tag_343\n      jump\t// in\n    tag_486:\n        /* \"#utility.yul\":7344:7417   */\n      tag_487\n        /* \"#utility.yul\":7412:7415   */\n      0x80\n        /* \"#utility.yul\":7401:7410   */\n      dup4\n        /* \"#utility.yul\":7397:7416   */\n      add\n        /* \"#utility.yul\":7388:7394   */\n      dup5\n        /* \"#utility.yul\":7344:7417   */\n      tag_343\n      jump\t// in\n    tag_487:\n        /* \"#utility.yul\":6784:7424   */\n      swap7\n      swap6\n      pop\n      pop\n      pop\n      pop\n      pop\n      pop\n      jump\t// out\n        /* \"#utility.yul\":7430:7872   */\n    tag_60:\n        /* \"#utility.yul\":7579:7583   */\n      0x00\n        /* \"#utility.yul\":7617:7619   */\n      0x60\n        /* \"#utility.yul\":7606:7615   */\n      dup3\n        /* \"#utility.yul\":7602:7620   */\n      add\n        /* \"#utility.yul\":7594:7620   */\n      swap1\n      pop\n        /* \"#utility.yul\":7630:7701   */\n      tag_489\n        /* \"#utility.yul\":7698:7699   */\n      0x00\n        /* \"#utility.yul\":7687:7696   */\n      dup4\n        /* \"#utility.yul\":7683:7700   */\n      add\n        /* \"#utility.yul\":7674:7680   */\n      dup7\n        /* \"#utility.yul\":7630:7701   */\n      tag_343\n      jump\t// in\n    tag_489:\n        /* \"#utility.yul\":7711:7783   */\n      tag_490\n        /* \"#utility.yul\":7779:7781   */\n      0x20\n        /* \"#utility.yul\":7768:7777   */\n      dup4\n        /* \"#utility.yul\":7764:7782   */\n      add\n        /* \"#utility.yul\":7755:7761   */\n      dup6\n        /* \"#utility.yul\":7711:7783   */\n      tag_343\n      jump\t// in\n    tag_490:\n        /* \"#utility.yul\":7793:7865   */\n      tag_491\n        /* \"#utility.yul\":7861:7863   */\n      0x40\n        /* \"#utility.yul\":7850:7859   */\n      dup4\n        /* \"#utility.yul\":7846:7864   */\n      add\n        /* \"#utility.yul\":7837:7843   */\n      dup5\n        /* \"#utility.yul\":7793:7865   */\n      tag_343\n      jump\t// in\n    tag_491:\n        /* \"#utility.yul\":7430:7872   */\n      swap5\n      swap4\n      pop\n      pop\n      pop\n      pop\n      jump\t// out\n        /* \"#utility.yul\":7878:8189   */\n    tag_344:\n        /* \"#utility.yul\":7955:7959   */\n      0x00\n        /* \"#utility.yul\":8045:8063   */\n      0xffffffffffffffff\n        /* \"#utility.yul\":8037:8043   */\n      dup3\n        /* \"#utility.yul\":8034:8064   */\n      gt\n        /* \"#utility.yul\":8031:8087   */\n      iszero\n      tag_493\n      jumpi\n        /* \"#utility.yul\":8067:8085   */\n      tag_494\n      tag_325\n      jump\t// in\n    tag_494:\n        /* \"#utility.yul\":8031:8087   */\n    tag_493:\n        /* \"#utility.yul\":8117:8121   */\n      0x20\n        /* \"#utility.yul\":8109:8115   */\n      dup3\n        /* \"#utility.yul\":8105:8122   */\n      mul\n        /* \"#utility.yul\":8097:8122   */\n      swap1\n      pop\n        /* \"#utility.yul\":8177:8181   */\n      0x20\n        /* \"#utility.yul\":8171:8175   */\n      dup2\n        /* \"#utility.yul\":8167:8182   */\n      add\n        /* \"#utility.yul\":8159:8182   */\n      swap1\n      pop\n        /* \"#utility.yul\":7878:8189   */\n      swap2\n      swap1\n      pop\n      jump\t// out\n        /* \"#utility.yul\":8195:8312   */\n    tag_345:\n        /* \"#utility.yul\":8304:8305   */\n      0x00\n        /* \"#utility.yul\":8301:8302   */\n      dup1\n        /* \"#utility.yul\":8294:8306   */\n      revert\n        /* \"#utility.yul\":8335:9045   */\n    tag_346:\n        /* \"#utility.yul\":8431:8436   */\n      0x00\n        /* \"#utility.yul\":8456:8537   */\n      tag_497\n        /* \"#utility.yul\":8472:8536   */\n      tag_498\n        /* \"#utility.yul\":8529:8535   */\n      dup5\n        /* \"#utility.yul\":8472:8536   */\n      tag_344\n      jump\t// in\n    tag_498:\n        /* \"#utility.yul\":8456:8537   */\n      tag_327\n      jump\t// in\n    tag_497:\n        /* \"#utility.yul\":8447:8537   */\n      swap1\n      pop\n        /* \"#utility.yul\":8557:8562   */\n      dup1\n        /* \"#utility.yul\":8586:8592   */\n      dup4\n        /* \"#utility.yul\":8579:8584   */\n      dup3\n        /* \"#utility.yul\":8572:8593   */\n      mstore\n        /* \"#utility.yul\":8620:8624   */\n      0x20\n        /* \"#utility.yul\":8613:8618   */\n      dup3\n        /* \"#utility.yul\":8609:8625   */\n      add\n        /* \"#utility.yul\":8602:8625   */\n      swap1\n      pop\n        /* \"#utility.yul\":8673:8677   */\n      0x20\n        /* \"#utility.yul\":8665:8671   */\n      dup5\n        /* \"#utility.yul\":8661:8678   */\n      mul\n        /* \"#utility.yul\":8653:8659   */\n      dup4\n        /* \"#utility.yul\":8649:8679   */\n      add\n        /* \"#utility.yul\":8702:8705   */\n      dup6\n        /* \"#utility.yul\":8694:8700   */\n      dup2\n        /* \"#utility.yul\":8691:8706   */\n      gt\n        /* \"#utility.yul\":8688:8810   */\n      iszero\n      tag_499\n      jumpi\n        /* \"#utility.yul\":8721:8800   */\n      tag_500\n      tag_345\n      jump\t// in\n    tag_500:\n        /* \"#utility.yul\":8688:8810   */\n    tag_499:\n        /* \"#utility.yul\":8836:8842   */\n      dup4\n        /* \"#utility.yul\":8819:9039   */\n    tag_501:\n        /* \"#utility.yul\":8853:8859   */\n      dup2\n        /* \"#utility.yul\":8848:8851   */\n      dup2\n        /* \"#utility.yul\":8845:8860   */\n      lt\n        /* \"#utility.yul\":8819:9039   */\n      iszero\n      tag_503\n      jumpi\n        /* \"#utility.yul\":8928:8931   */\n      dup1\n        /* \"#utility.yul\":8957:8994   */\n      tag_504\n        /* \"#utility.yul\":8990:8993   */\n      dup9\n        /* \"#utility.yul\":8978:8988   */\n      dup3\n        /* \"#utility.yul\":8957:8994   */\n      tag_335\n      jump\t// in\n    tag_504:\n        /* \"#utility.yul\":8952:8955   */\n      dup5\n        /* \"#utility.yul\":8945:8995   */\n      mstore\n        /* \"#utility.yul\":9024:9028   */\n      0x20\n        /* \"#utility.yul\":9019:9022   */\n      dup5\n        /* \"#utility.yul\":9015:9029   */\n      add\n        /* \"#utility.yul\":9008:9029   */\n      swap4\n      pop\n        /* \"#utility.yul\":8895:9039   */\n      pop\n        /* \"#utility.yul\":8879:8883   */\n      0x20\n        /* \"#utility.yul\":8874:8877   */\n      dup2\n        /* \"#utility.yul\":8870:8884   */\n      add\n        /* \"#utility.yul\":8863:8884   */\n      swap1\n      pop\n        /* \"#utility.yul\":8819:9039   */\n      jump(tag_501)\n    tag_503:\n        /* \"#utility.yul\":8823:8844   */\n      pop\n        /* \"#utility.yul\":8437:9045   */\n      pop\n      pop\n        /* \"#utility.yul\":8335:9045   */\n      swap4\n      swap3\n      pop\n      pop\n      pop\n      jump\t// out\n        /* \"#utility.yul\":9068:9438   */\n    tag_347:\n        /* \"#utility.yul\":9139:9144   */\n      0x00\n        /* \"#utility.yul\":9188:9191   */\n      dup3\n        /* \"#utility.yul\":9181:9185   */\n      0x1f\n        /* \"#utility.yul\":9173:9179   */\n      dup4\n        /* \"#utility.yul\":9169:9186   */\n      add\n        /* \"#utility.yul\":9165:9192   */\n      slt\n        /* \"#utility.yul\":9155:9277   */\n      tag_506\n      jumpi\n        /* \"#utility.yul\":9196:9275   */\n      tag_507\n      tag_322\n      jump\t// in\n    tag_507:\n        /* \"#utility.yul\":9155:9277   */\n    tag_506:\n        /* \"#utility.yul\":9313:9319   */\n      dup2\n        /* \"#utility.yul\":9300:9320   */\n      calldataload\n        /* \"#utility.yul\":9338:9432   */\n      tag_508\n        /* \"#utility.yul\":9428:9431   */\n      dup5\n        /* \"#utility.yul\":9420:9426   */\n      dup3\n        /* \"#utility.yul\":9413:9417   */\n      0x20\n        /* \"#utility.yul\":9405:9411   */\n      dup7\n        /* \"#utility.yul\":9401:9418   */\n      add\n        /* \"#utility.yul\":9338:9432   */\n      tag_346\n      jump\t// in\n    tag_508:\n        /* \"#utility.yul\":9329:9432   */\n      swap2\n      pop\n        /* \"#utility.yul\":9145:9438   */\n      pop\n        /* \"#utility.yul\":9068:9438   */\n      swap3\n      swap2\n      pop\n      pop\n      jump\t// out\n        /* \"#utility.yul\":9444:9983   */\n    tag_63:\n        /* \"#utility.yul\":9528:9534   */\n      0x00\n        /* \"#utility.yul\":9577:9579   */\n      0x20\n        /* \"#utility.yul\":9565:9574   */\n      dup3\n        /* \"#utility.yul\":9556:9563   */\n      dup5\n        /* \"#utility.yul\":9552:9575   */\n      sub\n        /* \"#utility.yul\":9548:9580   */\n      slt\n        /* \"#utility.yul\":9545:9664   */\n      iszero\n      tag_510\n      jumpi\n        /* \"#utility.yul\":9583:9662   */\n      tag_511\n      tag_320\n      jump\t// in\n    tag_511:\n        /* \"#utility.yul\":9545:9664   */\n    tag_510:\n        /* \"#utility.yul\":9731:9732   */\n      0x00\n        /* \"#utility.yul\":9720:9729   */\n      dup3\n        /* \"#utility.yul\":9716:9733   */\n      add\n        /* \"#utility.yul\":9703:9734   */\n      calldataload\n        /* \"#utility.yul\":9761:9779   */\n      0xffffffffffffffff\n        /* \"#utility.yul\":9753:9759   */\n      dup2\n        /* \"#utility.yul\":9750:9780   */\n      gt\n        /* \"#utility.yul\":9747:9864   */\n      iszero\n      tag_512\n      jumpi\n        /* \"#utility.yul\":9783:9862   */\n      tag_513\n      tag_321\n      jump\t// in\n    tag_513:\n        /* \"#utility.yul\":9747:9864   */\n    tag_512:\n        /* \"#utility.yul\":9888:9966   */\n      tag_514\n        /* \"#utility.yul\":9958:9965   */\n      dup5\n        /* \"#utility.yul\":9949:9955   */\n      dup3\n        /* \"#utility.yul\":9938:9947   */\n      dup6\n        /* \"#utility.yul\":9934:9956   */\n      add\n        /* \"#utility.yul\":9888:9966   */\n      tag_347\n      jump\t// in\n    tag_514:\n        /* \"#utility.yul\":9878:9966   */\n      swap2\n      pop\n        /* \"#utility.yul\":9674:9976   */\n      pop\n        /* \"#utility.yul\":9444:9983   */\n      swap3\n      swap2\n      pop\n      pop\n      jump\t// out\n        /* \"#utility.yul\":9989:10097   */\n    tag_348:\n        /* \"#utility.yul\":10066:10090   */\n      tag_516\n        /* \"#utility.yul\":10084:10089   */\n      dup2\n        /* \"#utility.yul\":10066:10090   */\n      tag_333\n      jump\t// in\n    tag_516:\n        /* \"#utility.yul\":10061:10064   */\n      dup3\n        /* \"#utility.yul\":10054:10091   */\n      mstore\n        /* \"#utility.yul\":9989:10097   */\n      pop\n      pop\n      jump\t// out\n        /* \"#utility.yul\":10103:10261   */\n    tag_349:\n        /* \"#utility.yul\":10176:10187   */\n      0x00\n        /* \"#utility.yul\":10210:10216   */\n      dup3\n        /* \"#utility.yul\":10205:10208   */\n      dup3\n        /* \"#utility.yul\":10198:10217   */\n      mstore\n        /* \"#utility.yul\":10250:10254   */\n      0x20\n        /* \"#utility.yul\":10245:10248   */\n      dup3\n        /* \"#utility.yul\":10241:10255   */\n      add\n        /* \"#utility.yul\":10226:10255   */\n      swap1\n      pop\n        /* \"#utility.yul\":10103:10261   */\n      swap3\n      swap2\n      pop\n      pop\n      jump\t// out\n        /* \"#utility.yul\":10267:10607   */\n    tag_350:\n        /* \"#utility.yul\":10343:10346   */\n      0x00\n        /* \"#utility.yul\":10371:10409   */\n      tag_519\n        /* \"#utility.yul\":10403:10408   */\n      dup3\n        /* \"#utility.yul\":10371:10409   */\n      tag_336\n      jump\t// in\n    tag_519:\n        /* \"#utility.yul\":10425:10485   */\n      tag_520\n        /* \"#utility.yul\":10478:10484   */\n      dup2\n        /* \"#utility.yul\":10473:10476   */\n      dup6\n        /* \"#utility.yul\":10425:10485   */\n      tag_349\n      jump\t// in\n    tag_520:\n        /* \"#utility.yul\":10418:10485   */\n      swap4\n      pop\n        /* \"#utility.yul\":10494:10546   */\n      tag_521\n        /* \"#utility.yul\":10539:10545   */\n      dup2\n        /* \"#utility.yul\":10534:10537   */\n      dup6\n        /* \"#utility.yul\":10527:10531   */\n      0x20\n        /* \"#utility.yul\":10520:10525   */\n      dup7\n        /* \"#utility.yul\":10516:10532   */\n      add\n        /* \"#utility.yul\":10494:10546   */\n      tag_338\n      jump\t// in\n    tag_521:\n        /* \"#utility.yul\":10571:10600   */\n      tag_522\n        /* \"#utility.yul\":10593:10599   */\n      dup2\n        /* \"#utility.yul\":10571:10600   */\n      tag_324\n      jump\t// in\n    tag_522:\n        /* \"#utility.yul\":10566:10569   */\n      dup5\n        /* \"#utility.yul\":10562:10601   */\n      add\n        /* \"#utility.yul\":10555:10601   */\n      swap2\n      pop\n        /* \"#utility.yul\":10347:10607   */\n      pop\n        /* \"#utility.yul\":10267:10607   */\n      swap3\n      swap2\n      pop\n      pop\n      jump\t// out\n        /* \"#utility.yul\":10613:10690   */\n    tag_351:\n        /* \"#utility.yul\":10650:10657   */\n      0x00\n        /* \"#utility.yul\":10679:10684   */\n      dup2\n        /* \"#utility.yul\":10668:10684   */\n      swap1\n      pop\n        /* \"#utility.yul\":10613:10690   */\n      swap2\n      swap1\n      pop\n      jump\t// out\n        /* \"#utility.yul\":10696:10804   */\n    tag_352:\n        /* \"#utility.yul\":10773:10797   */\n      tag_525\n        /* \"#utility.yul\":10791:10796   */\n      dup2\n        /* \"#utility.yul\":10773:10797   */\n      tag_351\n      jump\t// in\n    tag_525:\n        /* \"#utility.yul\":10768:10771   */\n      dup3\n        /* \"#utility.yul\":10761:10798   */\n      mstore\n        /* \"#utility.yul\":10696:10804   */\n      pop\n      pop\n      jump\t// out\n        /* \"#utility.yul\":10810:10909   */\n    tag_353:\n        /* \"#utility.yul\":10881:10902   */\n      tag_527\n        /* \"#utility.yul\":10896:10901   */\n      dup2\n        /* \"#utility.yul\":10881:10902   */\n      tag_340\n      jump\t// in\n    tag_527:\n        /* \"#utility.yul\":10876:10879   */\n      dup3\n        /* \"#utility.yul\":10869:10903   */\n      mstore\n        /* \"#utility.yul\":10810:10909   */\n      pop\n      pop\n      jump\t// out\n        /* \"#utility.yul\":10915:11023   */\n    tag_354:\n        /* \"#utility.yul\":10992:11016   */\n      tag_529\n        /* \"#utility.yul\":11010:11015   */\n      dup2\n        /* \"#utility.yul\":10992:11016   */\n      tag_342\n      jump\t// in\n    tag_529:\n        /* \"#utility.yul\":10987:10990   */\n      dup3\n        /* \"#utility.yul\":10980:11017   */\n      mstore\n        /* \"#utility.yul\":10915:11023   */\n      pop\n      pop\n      jump\t// out\n        /* \"#utility.yul\":11103:12444   */\n    tag_355:\n        /* \"#utility.yul\":11232:11235   */\n      0x00\n        /* \"#utility.yul\":11268:11272   */\n      0xc0\n        /* \"#utility.yul\":11263:11266   */\n      dup4\n        /* \"#utility.yul\":11259:11273   */\n      add\n        /* \"#utility.yul\":11362:11366   */\n      0x00\n        /* \"#utility.yul\":11355:11360   */\n      dup4\n        /* \"#utility.yul\":11351:11367   */\n      add\n        /* \"#utility.yul\":11345:11368   */\n      mload\n        /* \"#utility.yul\":11381:11444   */\n      tag_531\n        /* \"#utility.yul\":11438:11442   */\n      0x00\n        /* \"#utility.yul\":11433:11436   */\n      dup7\n        /* \"#utility.yul\":11429:11443   */\n      add\n        /* \"#utility.yul\":11415:11427   */\n      dup3\n        /* \"#utility.yul\":11381:11444   */\n      tag_348\n      jump\t// in\n    tag_531:\n        /* \"#utility.yul\":11283:11454   */\n      pop\n        /* \"#utility.yul\":11544:11548   */\n      0x20\n        /* \"#utility.yul\":11537:11542   */\n      dup4\n        /* \"#utility.yul\":11533:11549   */\n      add\n        /* \"#utility.yul\":11527:11550   */\n      mload\n        /* \"#utility.yul\":11597:11600   */\n      dup5\n        /* \"#utility.yul\":11591:11595   */\n      dup3\n        /* \"#utility.yul\":11587:11601   */\n      sub\n        /* \"#utility.yul\":11580:11584   */\n      0x20\n        /* \"#utility.yul\":11575:11578   */\n      dup7\n        /* \"#utility.yul\":11571:11585   */\n      add\n        /* \"#utility.yul\":11564:11602   */\n      mstore\n        /* \"#utility.yul\":11623:11694   */\n      tag_532\n        /* \"#utility.yul\":11689:11693   */\n      dup3\n        /* \"#utility.yul\":11675:11687   */\n      dup3\n        /* \"#utility.yul\":11623:11694   */\n      tag_350\n      jump\t// in\n    tag_532:\n        /* \"#utility.yul\":11615:11694   */\n      swap2\n      pop\n        /* \"#utility.yul\":11464:11705   */\n      pop\n        /* \"#utility.yul\":11790:11794   */\n      0x40\n        /* \"#utility.yul\":11783:11788   */\n      dup4\n        /* \"#utility.yul\":11779:11795   */\n      add\n        /* \"#utility.yul\":11773:11796   */\n      mload\n        /* \"#utility.yul\":11809:11872   */\n      tag_533\n        /* \"#utility.yul\":11866:11870   */\n      0x40\n        /* \"#utility.yul\":11861:11864   */\n      dup7\n        /* \"#utility.yul\":11857:11871   */\n      add\n        /* \"#utility.yul\":11843:11855   */\n      dup3\n        /* \"#utility.yul\":11809:11872   */\n      tag_352\n      jump\t// in\n    tag_533:\n        /* \"#utility.yul\":11715:11882   */\n      pop\n        /* \"#utility.yul\":11968:11972   */\n      0x60\n        /* \"#utility.yul\":11961:11966   */\n      dup4\n        /* \"#utility.yul\":11957:11973   */\n      add\n        /* \"#utility.yul\":11951:11974   */\n      mload\n        /* \"#utility.yul\":11987:12044   */\n      tag_534\n        /* \"#utility.yul\":12038:12042   */\n      0x60\n        /* \"#utility.yul\":12033:12036   */\n      dup7\n        /* \"#utility.yul\":12029:12043   */\n      add\n        /* \"#utility.yul\":12015:12027   */\n      dup3\n        /* \"#utility.yul\":11987:12044   */\n      tag_353\n      jump\t// in\n    tag_534:\n        /* \"#utility.yul\":11892:12054   */\n      pop\n        /* \"#utility.yul\":12144:12148   */\n      0x80\n        /* \"#utility.yul\":12137:12142   */\n      dup4\n        /* \"#utility.yul\":12133:12149   */\n      add\n        /* \"#utility.yul\":12127:12150   */\n      mload\n        /* \"#utility.yul\":12163:12226   */\n      tag_535\n        /* \"#utility.yul\":12220:12224   */\n      0x80\n        /* \"#utility.yul\":12215:12218   */\n      dup7\n        /* \"#utility.yul\":12211:12225   */\n      add\n        /* \"#utility.yul\":12197:12209   */\n      dup3\n        /* \"#utility.yul\":12163:12226   */\n      tag_354\n      jump\t// in\n    tag_535:\n        /* \"#utility.yul\":12064:12236   */\n      pop\n        /* \"#utility.yul\":12325:12329   */\n      0xa0\n        /* \"#utility.yul\":12318:12323   */\n      dup4\n        /* \"#utility.yul\":12314:12330   */\n      add\n        /* \"#utility.yul\":12308:12331   */\n      mload\n        /* \"#utility.yul\":12344:12407   */\n      tag_536\n        /* \"#utility.yul\":12401:12405   */\n      0xa0\n        /* \"#utility.yul\":12396:12399   */\n      dup7\n        /* \"#utility.yul\":12392:12406   */\n      add\n        /* \"#utility.yul\":12378:12390   */\n      dup3\n        /* \"#utility.yul\":12344:12407   */\n      tag_354\n      jump\t// in\n    tag_536:\n        /* \"#utility.yul\":12246:12417   */\n      pop\n        /* \"#utility.yul\":12434:12438   */\n      dup1\n        /* \"#utility.yul\":12427:12438   */\n      swap2\n      pop\n        /* \"#utility.yul\":11237:12444   */\n      pop\n        /* \"#utility.yul\":11103:12444   */\n      swap3\n      swap2\n      pop\n      pop\n      jump\t// out\n        /* \"#utility.yul\":12514:13561   */\n    tag_356:\n        /* \"#utility.yul\":12661:12665   */\n      0xa0\n        /* \"#utility.yul\":12656:12659   */\n      dup3\n        /* \"#utility.yul\":12652:12666   */\n      add\n        /* \"#utility.yul\":12754:12758   */\n      0x00\n        /* \"#utility.yul\":12747:12752   */\n      dup3\n        /* \"#utility.yul\":12743:12759   */\n      add\n        /* \"#utility.yul\":12737:12760   */\n      mload\n        /* \"#utility.yul\":12773:12830   */\n      tag_538\n        /* \"#utility.yul\":12824:12828   */\n      0x00\n        /* \"#utility.yul\":12819:12822   */\n      dup6\n        /* \"#utility.yul\":12815:12829   */\n      add\n        /* \"#utility.yul\":12801:12813   */\n      dup3\n        /* \"#utility.yul\":12773:12830   */\n      tag_353\n      jump\t// in\n    tag_538:\n        /* \"#utility.yul\":12676:12840   */\n      pop\n        /* \"#utility.yul\":12928:12932   */\n      0x20\n        /* \"#utility.yul\":12921:12926   */\n      dup3\n        /* \"#utility.yul\":12917:12933   */\n      add\n        /* \"#utility.yul\":12911:12934   */\n      mload\n        /* \"#utility.yul\":12947:13010   */\n      tag_539\n        /* \"#utility.yul\":13004:13008   */\n      0x20\n        /* \"#utility.yul\":12999:13002   */\n      dup6\n        /* \"#utility.yul\":12995:13009   */\n      add\n        /* \"#utility.yul\":12981:12993   */\n      dup3\n        /* \"#utility.yul\":12947:13010   */\n      tag_354\n      jump\t// in\n    tag_539:\n        /* \"#utility.yul\":12850:13020   */\n      pop\n        /* \"#utility.yul\":13107:13111   */\n      0x40\n        /* \"#utility.yul\":13100:13105   */\n      dup3\n        /* \"#utility.yul\":13096:13112   */\n      add\n        /* \"#utility.yul\":13090:13113   */\n      mload\n        /* \"#utility.yul\":13126:13189   */\n      tag_540\n        /* \"#utility.yul\":13183:13187   */\n      0x40\n        /* \"#utility.yul\":13178:13181   */\n      dup6\n        /* \"#utility.yul\":13174:13188   */\n      add\n        /* \"#utility.yul\":13160:13172   */\n      dup3\n        /* \"#utility.yul\":13126:13189   */\n      tag_354\n      jump\t// in\n    tag_540:\n        /* \"#utility.yul\":13030:13199   */\n      pop\n        /* \"#utility.yul\":13284:13288   */\n      0x60\n        /* \"#utility.yul\":13277:13282   */\n      dup3\n        /* \"#utility.yul\":13273:13289   */\n      add\n        /* \"#utility.yul\":13267:13290   */\n      mload\n        /* \"#utility.yul\":13303:13366   */\n      tag_541\n        /* \"#utility.yul\":13360:13364   */\n      0x60\n        /* \"#utility.yul\":13355:13358   */\n      dup6\n        /* \"#utility.yul\":13351:13365   */\n      add\n        /* \"#utility.yul\":13337:13349   */\n      dup3\n        /* \"#utility.yul\":13303:13366   */\n      tag_352\n      jump\t// in\n    tag_541:\n        /* \"#utility.yul\":13209:13376   */\n      pop\n        /* \"#utility.yul\":13462:13466   */\n      0x80\n        /* \"#utility.yul\":13455:13460   */\n      dup3\n        /* \"#utility.yul\":13451:13467   */\n      add\n        /* \"#utility.yul\":13445:13468   */\n      mload\n        /* \"#utility.yul\":13481:13544   */\n      tag_542\n        /* \"#utility.yul\":13538:13542   */\n      0x80\n        /* \"#utility.yul\":13533:13536   */\n      dup6\n        /* \"#utility.yul\":13529:13543   */\n      add\n        /* \"#utility.yul\":13515:13527   */\n      dup3\n        /* \"#utility.yul\":13481:13544   */\n      tag_348\n      jump\t// in\n    tag_542:\n        /* \"#utility.yul\":13386:13554   */\n      pop\n        /* \"#utility.yul\":12630:13561   */\n      pop\n        /* \"#utility.yul\":12514:13561   */\n      pop\n      pop\n      jump\t// out\n        /* \"#utility.yul\":13643:14705   */\n    tag_357:\n        /* \"#utility.yul\":13802:13806   */\n      0xa0\n        /* \"#utility.yul\":13797:13800   */\n      dup3\n        /* \"#utility.yul\":13793:13807   */\n      add\n        /* \"#utility.yul\":13896:13900   */\n      0x00\n        /* \"#utility.yul\":13889:13894   */\n      dup3\n        /* \"#utility.yul\":13885:13901   */\n      add\n        /* \"#utility.yul\":13879:13902   */\n      mload\n        /* \"#utility.yul\":13915:13972   */\n      tag_544\n        /* \"#utility.yul\":13966:13970   */\n      0x00\n        /* \"#utility.yul\":13961:13964   */\n      dup6\n        /* \"#utility.yul\":13957:13971   */\n      add\n        /* \"#utility.yul\":13943:13955   */\n      dup3\n        /* \"#utility.yul\":13915:13972   */\n      tag_353\n      jump\t// in\n    tag_544:\n        /* \"#utility.yul\":13817:13982   */\n      pop\n        /* \"#utility.yul\":14070:14074   */\n      0x20\n        /* \"#utility.yul\":14063:14068   */\n      dup3\n        /* \"#utility.yul\":14059:14075   */\n      add\n        /* \"#utility.yul\":14053:14076   */\n      mload\n        /* \"#utility.yul\":14089:14146   */\n      tag_545\n        /* \"#utility.yul\":14140:14144   */\n      0x20\n        /* \"#utility.yul\":14135:14138   */\n      dup6\n        /* \"#utility.yul\":14131:14145   */\n      add\n        /* \"#utility.yul\":14117:14129   */\n      dup3\n        /* \"#utility.yul\":14089:14146   */\n      tag_353\n      jump\t// in\n    tag_545:\n        /* \"#utility.yul\":13992:14156   */\n      pop\n        /* \"#utility.yul\":14244:14248   */\n      0x40\n        /* \"#utility.yul\":14237:14242   */\n      dup3\n        /* \"#utility.yul\":14233:14249   */\n      add\n        /* \"#utility.yul\":14227:14250   */\n      mload\n        /* \"#utility.yul\":14263:14326   */\n      tag_546\n        /* \"#utility.yul\":14320:14324   */\n      0x40\n        /* \"#utility.yul\":14315:14318   */\n      dup6\n        /* \"#utility.yul\":14311:14325   */\n      add\n        /* \"#utility.yul\":14297:14309   */\n      dup3\n        /* \"#utility.yul\":14263:14326   */\n      tag_354\n      jump\t// in\n    tag_546:\n        /* \"#utility.yul\":14166:14336   */\n      pop\n        /* \"#utility.yul\":14423:14427   */\n      0x60\n        /* \"#utility.yul\":14416:14421   */\n      dup3\n        /* \"#utility.yul\":14412:14428   */\n      add\n        /* \"#utility.yul\":14406:14429   */\n      mload\n        /* \"#utility.yul\":14442:14505   */\n      tag_547\n        /* \"#utility.yul\":14499:14503   */\n      0x60\n        /* \"#utility.yul\":14494:14497   */\n      dup6\n        /* \"#utility.yul\":14490:14504   */\n      add\n        /* \"#utility.yul\":14476:14488   */\n      dup3\n        /* \"#utility.yul\":14442:14505   */\n      tag_354\n      jump\t// in\n    tag_547:\n        /* \"#utility.yul\":14346:14515   */\n      pop\n        /* \"#utility.yul\":14606:14610   */\n      0x80\n        /* \"#utility.yul\":14599:14604   */\n      dup3\n        /* \"#utility.yul\":14595:14611   */\n      add\n        /* \"#utility.yul\":14589:14612   */\n      mload\n        /* \"#utility.yul\":14625:14688   */\n      tag_548\n        /* \"#utility.yul\":14682:14686   */\n      0x80\n        /* \"#utility.yul\":14677:14680   */\n      dup6\n        /* \"#utility.yul\":14673:14687   */\n      add\n        /* \"#utility.yul\":14659:14671   */\n      dup3\n        /* \"#utility.yul\":14625:14688   */\n      tag_354\n      jump\t// in\n    tag_548:\n        /* \"#utility.yul\":14525:14698   */\n      pop\n        /* \"#utility.yul\":13771:14705   */\n      pop\n        /* \"#utility.yul\":13643:14705   */\n      pop\n      pop\n      jump\t// out\n        /* \"#utility.yul\":14711:15550   */\n    tag_69:\n        /* \"#utility.yul\":15032:15036   */\n      0x00\n        /* \"#utility.yul\":15070:15073   */\n      0x0160\n        /* \"#utility.yul\":15059:15068   */\n      dup3\n        /* \"#utility.yul\":15055:15074   */\n      add\n        /* \"#utility.yul\":15047:15074   */\n      swap1\n      pop\n        /* \"#utility.yul\":15120:15129   */\n      dup2\n        /* \"#utility.yul\":15114:15118   */\n      dup2\n        /* \"#utility.yul\":15110:15130   */\n      sub\n        /* \"#utility.yul\":15106:15107   */\n      0x00\n        /* \"#utility.yul\":15095:15104   */\n      dup4\n        /* \"#utility.yul\":15091:15108   */\n      add\n        /* \"#utility.yul\":15084:15131   */\n      mstore\n        /* \"#utility.yul\":15148:15266   */\n      tag_550\n        /* \"#utility.yul\":15261:15265   */\n      dup2\n        /* \"#utility.yul\":15252:15258   */\n      dup7\n        /* \"#utility.yul\":15148:15266   */\n      tag_355\n      jump\t// in\n    tag_550:\n        /* \"#utility.yul\":15140:15266   */\n      swap1\n      pop\n        /* \"#utility.yul\":15276:15398   */\n      tag_551\n        /* \"#utility.yul\":15394:15396   */\n      0x20\n        /* \"#utility.yul\":15383:15392   */\n      dup4\n        /* \"#utility.yul\":15379:15397   */\n      add\n        /* \"#utility.yul\":15370:15376   */\n      dup6\n        /* \"#utility.yul\":15276:15398   */\n      tag_356\n      jump\t// in\n    tag_551:\n        /* \"#utility.yul\":15408:15543   */\n      tag_552\n        /* \"#utility.yul\":15538:15541   */\n      0xc0\n        /* \"#utility.yul\":15527:15536   */\n      dup4\n        /* \"#utility.yul\":15523:15542   */\n      add\n        /* \"#utility.yul\":15514:15520   */\n      dup5\n        /* \"#utility.yul\":15408:15543   */\n      tag_357\n      jump\t// in\n    tag_552:\n        /* \"#utility.yul\":14711:15550   */\n      swap5\n      swap4\n      pop\n      pop\n      pop\n      pop\n      jump\t// out\n        /* \"#utility.yul\":15556:15678   */\n    tag_358:\n        /* \"#utility.yul\":15629:15653   */\n      tag_554\n        /* \"#utility.yul\":15647:15652   */\n      dup2\n        /* \"#utility.yul\":15629:15653   */\n      tag_351\n      jump\t// in\n    tag_554:\n        /* \"#utility.yul\":15622:15627   */\n      dup2\n        /* \"#utility.yul\":15619:15654   */\n      eq\n        /* \"#utility.yul\":15609:15672   */\n      tag_555\n      jumpi\n        /* \"#utility.yul\":15668:15669   */\n      0x00\n        /* \"#utility.yul\":15665:15666   */\n      dup1\n        /* \"#utility.yul\":15658:15670   */\n      revert\n        /* \"#utility.yul\":15609:15672   */\n    tag_555:\n        /* \"#utility.yul\":15556:15678   */\n      pop\n      jump\t// out\n        /* \"#utility.yul\":15684:15823   */\n    tag_359:\n        /* \"#utility.yul\":15730:15735   */\n      0x00\n        /* \"#utility.yul\":15768:15774   */\n      dup2\n        /* \"#utility.yul\":15755:15775   */\n      calldataload\n        /* \"#utility.yul\":15746:15775   */\n      swap1\n      pop\n        /* \"#utility.yul\":15784:15817   */\n      tag_557\n        /* \"#utility.yul\":15811:15816   */\n      dup2\n        /* \"#utility.yul\":15784:15817   */\n      tag_358\n      jump\t// in\n    tag_557:\n        /* \"#utility.yul\":15684:15823   */\n      swap3\n      swap2\n      pop\n      pop\n      jump\t// out\n        /* \"#utility.yul\":15829:16158   */\n    tag_72:\n        /* \"#utility.yul\":15888:15894   */\n      0x00\n        /* \"#utility.yul\":15937:15939   */\n      0x20\n        /* \"#utility.yul\":15925:15934   */\n      dup3\n        /* \"#utility.yul\":15916:15923   */\n      dup5\n        /* \"#utility.yul\":15912:15935   */\n      sub\n        /* \"#utility.yul\":15908:15940   */\n      slt\n        /* \"#utility.yul\":15905:16024   */\n      iszero\n      tag_559\n      jumpi\n        /* \"#utility.yul\":15943:16022   */\n      tag_560\n      tag_320\n      jump\t// in\n    tag_560:\n        /* \"#utility.yul\":15905:16024   */\n    tag_559:\n        /* \"#utility.yul\":16063:16064   */\n      0x00\n        /* \"#utility.yul\":16088:16141   */\n      tag_561\n        /* \"#utility.yul\":16133:16140   */\n      dup5\n        /* \"#utility.yul\":16124:16130   */\n      dup3\n        /* \"#utility.yul\":16113:16122   */\n      dup6\n        /* \"#utility.yul\":16109:16131   */\n      add\n        /* \"#utility.yul\":16088:16141   */\n      tag_359\n      jump\t// in\n    tag_561:\n        /* \"#utility.yul\":16078:16141   */\n      swap2\n      pop\n        /* \"#utility.yul\":16034:16151   */\n      pop\n        /* \"#utility.yul\":15829:16158   */\n      swap3\n      swap2\n      pop\n      pop\n      jump\t// out\n        /* \"#utility.yul\":16164:16282   */\n    tag_360:\n        /* \"#utility.yul\":16251:16275   */\n      tag_563\n        /* \"#utility.yul\":16269:16274   */\n      dup2\n        /* \"#utility.yul\":16251:16275   */\n      tag_333\n      jump\t// in\n    tag_563:\n        /* \"#utility.yul\":16246:16249   */\n      dup3\n        /* \"#utility.yul\":16239:16276   */\n      mstore\n        /* \"#utility.yul\":16164:16282   */\n      pop\n      pop\n      jump\t// out\n        /* \"#utility.yul\":16288:16510   */\n    tag_75:\n        /* \"#utility.yul\":16381:16385   */\n      0x00\n        /* \"#utility.yul\":16419:16421   */\n      0x20\n        /* \"#utility.yul\":16408:16417   */\n      dup3\n        /* \"#utility.yul\":16404:16422   */\n      add\n        /* \"#utility.yul\":16396:16422   */\n      swap1\n      pop\n        /* \"#utility.yul\":16432:16503   */\n      tag_565\n        /* \"#utility.yul\":16500:16501   */\n      0x00\n        /* \"#utility.yul\":16489:16498   */\n      dup4\n        /* \"#utility.yul\":16485:16502   */\n      add\n        /* \"#utility.yul\":16476:16482   */\n      dup5\n        /* \"#utility.yul\":16432:16503   */\n      tag_360\n      jump\t// in\n    tag_565:\n        /* \"#utility.yul\":16288:16510   */\n      swap3\n      swap2\n      pop\n      pop\n      jump\t// out\n        /* \"#utility.yul\":16516:16638   */\n    tag_361:\n        /* \"#utility.yul\":16589:16613   */\n      tag_567\n        /* \"#utility.yul\":16607:16612   */\n      dup2\n        /* \"#utility.yul\":16589:16613   */\n      tag_342\n      jump\t// in\n    tag_567:\n        /* \"#utility.yul\":16582:16587   */\n      dup2\n        /* \"#utility.yul\":16579:16614   */\n      eq\n        /* \"#utility.yul\":16569:16632   */\n      tag_568\n      jumpi\n        /* \"#utility.yul\":16628:16629   */\n      0x00\n        /* \"#utility.yul\":16625:16626   */\n      dup1\n        /* \"#utility.yul\":16618:16630   */\n      revert\n        /* \"#utility.yul\":16569:16632   */\n    tag_568:\n        /* \"#utility.yul\":16516:16638   */\n      pop\n      jump\t// out\n        /* \"#utility.yul\":16644:16783   */\n    tag_362:\n        /* \"#utility.yul\":16690:16695   */\n      0x00\n        /* \"#utility.yul\":16728:16734   */\n      dup2\n        /* \"#utility.yul\":16715:16735   */\n      calldataload\n        /* \"#utility.yul\":16706:16735   */\n      swap1\n      pop\n        /* \"#utility.yul\":16744:16777   */\n      tag_570\n        /* \"#utility.yul\":16771:16776   */\n      dup2\n        /* \"#utility.yul\":16744:16777   */\n      tag_361\n      jump\t// in\n    tag_570:\n        /* \"#utility.yul\":16644:16783   */\n      swap3\n      swap2\n      pop\n      pop\n      jump\t// out\n        /* \"#utility.yul\":16789:17263   */\n    tag_78:\n        /* \"#utility.yul\":16857:16863   */\n      0x00\n        /* \"#utility.yul\":16865:16871   */\n      dup1\n        /* \"#utility.yul\":16914:16916   */\n      0x40\n        /* \"#utility.yul\":16902:16911   */\n      dup4\n        /* \"#utility.yul\":16893:16900   */\n      dup6\n        /* \"#utility.yul\":16889:16912   */\n      sub\n        /* \"#utility.yul\":16885:16917   */\n      slt\n        /* \"#utility.yul\":16882:17001   */\n      iszero\n      tag_572\n      jumpi\n        /* \"#utility.yul\":16920:16999   */\n      tag_573\n      tag_320\n      jump\t// in\n    tag_573:\n        /* \"#utility.yul\":16882:17001   */\n    tag_572:\n        /* \"#utility.yul\":17040:17041   */\n      0x00\n        /* \"#utility.yul\":17065:17118   */\n      tag_574\n        /* \"#utility.yul\":17110:17117   */\n      dup6\n        /* \"#utility.yul\":17101:17107   */\n      dup3\n        /* \"#utility.yul\":17090:17099   */\n      dup7\n        /* \"#utility.yul\":17086:17108   */\n      add\n        /* \"#utility.yul\":17065:17118   */\n      tag_335\n      jump\t// in\n    tag_574:\n        /* \"#utility.yul\":17055:17118   */\n      swap3\n      pop\n        /* \"#utility.yul\":17011:17128   */\n      pop\n        /* \"#utility.yul\":17167:17169   */\n      0x20\n        /* \"#utility.yul\":17193:17246   */\n      tag_575\n        /* \"#utility.yul\":17238:17245   */\n      dup6\n        /* \"#utility.yul\":17229:17235   */\n      dup3\n        /* \"#utility.yul\":17218:17227   */\n      dup7\n        /* \"#utility.yul\":17214:17236   */\n      add\n        /* \"#utility.yul\":17193:17246   */\n      tag_362\n      jump\t// in\n    tag_575:\n        /* \"#utility.yul\":17183:17246   */\n      swap2\n      pop\n        /* \"#utility.yul\":17138:17256   */\n      pop\n        /* \"#utility.yul\":16789:17263   */\n      swap3\n      pop\n      swap3\n      swap1\n      pop\n      jump\t// out\n        /* \"#utility.yul\":17269:17387   */\n    tag_363:\n        /* \"#utility.yul\":17356:17380   */\n      tag_577\n        /* \"#utility.yul\":17374:17379   */\n      dup2\n        /* \"#utility.yul\":17356:17380   */\n      tag_351\n      jump\t// in\n    tag_577:\n        /* \"#utility.yul\":17351:17354   */\n      dup3\n        /* \"#utility.yul\":17344:17381   */\n      mstore\n        /* \"#utility.yul\":17269:17387   */\n      pop\n      pop\n      jump\t// out\n        /* \"#utility.yul\":17393:18045   */\n    tag_91:\n        /* \"#utility.yul\":17592:17596   */\n      0x00\n        /* \"#utility.yul\":17630:17633   */\n      0xa0\n        /* \"#utility.yul\":17619:17628   */\n      dup3\n        /* \"#utility.yul\":17615:17634   */\n      add\n        /* \"#utility.yul\":17607:17634   */\n      swap1\n      pop\n        /* \"#utility.yul\":17644:17709   */\n      tag_579\n        /* \"#utility.yul\":17706:17707   */\n      0x00\n        /* \"#utility.yul\":17695:17704   */\n      dup4\n        /* \"#utility.yul\":17691:17708   */\n      add\n        /* \"#utility.yul\":17682:17688   */\n      dup9\n        /* \"#utility.yul\":17644:17709   */\n      tag_341\n      jump\t// in\n    tag_579:\n        /* \"#utility.yul\":17719:17791   */\n      tag_580\n        /* \"#utility.yul\":17787:17789   */\n      0x20\n        /* \"#utility.yul\":17776:17785   */\n      dup4\n        /* \"#utility.yul\":17772:17790   */\n      add\n        /* \"#utility.yul\":17763:17769   */\n      dup8\n        /* \"#utility.yul\":17719:17791   */\n      tag_343\n      jump\t// in\n    tag_580:\n        /* \"#utility.yul\":17801:17873   */\n      tag_581\n        /* \"#utility.yul\":17869:17871   */\n      0x40\n        /* \"#utility.yul\":17858:17867   */\n      dup4\n        /* \"#utility.yul\":17854:17872   */\n      add\n        /* \"#utility.yul\":17845:17851   */\n      dup7\n        /* \"#utility.yul\":17801:17873   */\n      tag_343\n      jump\t// in\n    tag_581:\n        /* \"#utility.yul\":17883:17955   */\n      tag_582\n        /* \"#utility.yul\":17951:17953   */\n      0x60\n        /* \"#utility.yul\":17940:17949   */\n      dup4\n        /* \"#utility.yul\":17936:17954   */\n      add\n        /* \"#utility.yul\":17927:17933   */\n      dup6\n        /* \"#utility.yul\":17883:17955   */\n      tag_363\n      jump\t// in\n    tag_582:\n        /* \"#utility.yul\":17965:18038   */\n      tag_583\n        /* \"#utility.yul\":18033:18036   */\n      0x80\n        /* \"#utility.yul\":18022:18031   */\n      dup4\n        /* \"#utility.yul\":18018:18037   */\n      add\n        /* \"#utility.yul\":18009:18015   */\n      dup5\n        /* \"#utility.yul\":17965:18038   */\n      tag_360\n      jump\t// in\n    tag_583:\n        /* \"#utility.yul\":17393:18045   */\n      swap7\n      swap6\n      pop\n      pop\n      pop\n      pop\n      pop\n      pop\n      jump\t// out\n        /* \"#utility.yul\":18051:18901   */\n    tag_103:\n        /* \"#utility.yul\":18296:18300   */\n      0x00\n        /* \"#utility.yul\":18334:18337   */\n      0xc0\n        /* \"#utility.yul\":18323:18332   */\n      dup3\n        /* \"#utility.yul\":18319:18338   */\n      add\n        /* \"#utility.yul\":18311:18338   */\n      swap1\n      pop\n        /* \"#utility.yul\":18348:18419   */\n      tag_585\n        /* \"#utility.yul\":18416:18417   */\n      0x00\n        /* \"#utility.yul\":18405:18414   */\n      dup4\n        /* \"#utility.yul\":18401:18418   */\n      add\n        /* \"#utility.yul\":18392:18398   */\n      dup10\n        /* \"#utility.yul\":18348:18419   */\n      tag_360\n      jump\t// in\n    tag_585:\n        /* \"#utility.yul\":18466:18475   */\n      dup2\n        /* \"#utility.yul\":18460:18464   */\n      dup2\n        /* \"#utility.yul\":18456:18476   */\n      sub\n        /* \"#utility.yul\":18451:18453   */\n      0x20\n        /* \"#utility.yul\":18440:18449   */\n      dup4\n        /* \"#utility.yul\":18436:18454   */\n      add\n        /* \"#utility.yul\":18429:18477   */\n      mstore\n        /* \"#utility.yul\":18494:18570   */\n      tag_586\n        /* \"#utility.yul\":18565:18569   */\n      dup2\n        /* \"#utility.yul\":18556:18562   */\n      dup9\n        /* \"#utility.yul\":18494:18570   */\n      tag_339\n      jump\t// in\n    tag_586:\n        /* \"#utility.yul\":18486:18570   */\n      swap1\n      pop\n        /* \"#utility.yul\":18580:18652   */\n      tag_587\n        /* \"#utility.yul\":18648:18650   */\n      0x40\n        /* \"#utility.yul\":18637:18646   */\n      dup4\n        /* \"#utility.yul\":18633:18651   */\n      add\n        /* \"#utility.yul\":18624:18630   */\n      dup8\n        /* \"#utility.yul\":18580:18652   */\n      tag_363\n      jump\t// in\n    tag_587:\n        /* \"#utility.yul\":18662:18728   */\n      tag_588\n        /* \"#utility.yul\":18724:18726   */\n      0x60\n        /* \"#utility.yul\":18713:18722   */\n      dup4\n        /* \"#utility.yul\":18709:18727   */\n      add\n        /* \"#utility.yul\":18700:18706   */\n      dup7\n        /* \"#utility.yul\":18662:18728   */\n      tag_341\n      jump\t// in\n    tag_588:\n        /* \"#utility.yul\":18738:18811   */\n      tag_589\n        /* \"#utility.yul\":18806:18809   */\n      0x80\n        /* \"#utility.yul\":18795:18804   */\n      dup4\n        /* \"#utility.yul\":18791:18810   */\n      add\n        /* \"#utility.yul\":18782:18788   */\n      dup6\n        /* \"#utility.yul\":18738:18811   */\n      tag_343\n      jump\t// in\n    tag_589:\n        /* \"#utility.yul\":18821:18894   */\n      tag_590\n        /* \"#utility.yul\":18889:18892   */\n      0xa0\n        /* \"#utility.yul\":18878:18887   */\n      dup4\n        /* \"#utility.yul\":18874:18893   */\n      add\n        /* \"#utility.yul\":18865:18871   */\n      dup5\n        /* \"#utility.yul\":18821:18894   */\n      tag_343\n      jump\t// in\n    tag_590:\n        /* \"#utility.yul\":18051:18901   */\n      swap8\n      swap7\n      pop\n      pop\n      pop\n      pop\n      pop\n      pop\n      pop\n      jump\t// out\n        /* \"#utility.yul\":18907:19129   */\n    tag_107:\n        /* \"#utility.yul\":19000:19004   */\n      0x00\n        /* \"#utility.yul\":19038:19040   */\n      0x20\n        /* \"#utility.yul\":19027:19036   */\n      dup3\n        /* \"#utility.yul\":19023:19041   */\n      add\n        /* \"#utility.yul\":19015:19041   */\n      swap1\n      pop\n        /* \"#utility.yul\":19051:19122   */\n      tag_592\n        /* \"#utility.yul\":19119:19120   */\n      0x00\n        /* \"#utility.yul\":19108:19117   */\n      dup4\n        /* \"#utility.yul\":19104:19121   */\n      add\n        /* \"#utility.yul\":19095:19101   */\n      dup5\n        /* \"#utility.yul\":19051:19122   */\n      tag_343\n      jump\t// in\n    tag_592:\n        /* \"#utility.yul\":18907:19129   */\n      swap3\n      swap2\n      pop\n      pop\n      jump\t// out\n        /* \"#utility.yul\":19135:19251   */\n    tag_364:\n        /* \"#utility.yul\":19205:19226   */\n      tag_594\n        /* \"#utility.yul\":19220:19225   */\n      dup2\n        /* \"#utility.yul\":19205:19226   */\n      tag_340\n      jump\t// in\n    tag_594:\n        /* \"#utility.yul\":19198:19203   */\n      dup2\n        /* \"#utility.yul\":19195:19227   */\n      eq\n        /* \"#utility.yul\":19185:19245   */\n      tag_595\n      jumpi\n        /* \"#utility.yul\":19241:19242   */\n      0x00\n        /* \"#utility.yul\":19238:19239   */\n      dup1\n        /* \"#utility.yul\":19231:19243   */\n      revert\n        /* \"#utility.yul\":19185:19245   */\n    tag_595:\n        /* \"#utility.yul\":19135:19251   */\n      pop\n      jump\t// out\n        /* \"#utility.yul\":19257:19390   */\n    tag_365:\n        /* \"#utility.yul\":19300:19305   */\n      0x00\n        /* \"#utility.yul\":19338:19344   */\n      dup2\n        /* \"#utility.yul\":19325:19345   */\n      calldataload\n        /* \"#utility.yul\":19316:19345   */\n      swap1\n      pop\n        /* \"#utility.yul\":19354:19384   */\n      tag_597\n        /* \"#utility.yul\":19378:19383   */\n      dup2\n        /* \"#utility.yul\":19354:19384   */\n      tag_364\n      jump\t// in\n    tag_597:\n        /* \"#utility.yul\":19257:19390   */\n      swap3\n      swap2\n      pop\n      pop\n      jump\t// out\n        /* \"#utility.yul\":19396:19864   */\n    tag_118:\n        /* \"#utility.yul\":19461:19467   */\n      0x00\n        /* \"#utility.yul\":19469:19475   */\n      dup1\n        /* \"#utility.yul\":19518:19520   */\n      0x40\n        /* \"#utility.yul\":19506:19515   */\n      dup4\n        /* \"#utility.yul\":19497:19504   */\n      dup6\n        /* \"#utility.yul\":19493:19516   */\n      sub\n        /* \"#utility.yul\":19489:19521   */\n      slt\n        /* \"#utility.yul\":19486:19605   */\n      iszero\n      tag_599\n      jumpi\n        /* \"#utility.yul\":19524:19603   */\n      tag_600\n      tag_320\n      jump\t// in\n    tag_600:\n        /* \"#utility.yul\":19486:19605   */\n    tag_599:\n        /* \"#utility.yul\":19644:19645   */\n      0x00\n        /* \"#utility.yul\":19669:19722   */\n      tag_601\n        /* \"#utility.yul\":19714:19721   */\n      dup6\n        /* \"#utility.yul\":19705:19711   */\n      dup3\n        /* \"#utility.yul\":19694:19703   */\n      dup7\n        /* \"#utility.yul\":19690:19712   */\n      add\n        /* \"#utility.yul\":19669:19722   */\n      tag_335\n      jump\t// in\n    tag_601:\n        /* \"#utility.yul\":19659:19722   */\n      swap3\n      pop\n        /* \"#utility.yul\":19615:19732   */\n      pop\n        /* \"#utility.yul\":19771:19773   */\n      0x20\n        /* \"#utility.yul\":19797:19847   */\n      tag_602\n        /* \"#utility.yul\":19839:19846   */\n      dup6\n        /* \"#utility.yul\":19830:19836   */\n      dup3\n        /* \"#utility.yul\":19819:19828   */\n      dup7\n        /* \"#utility.yul\":19815:19837   */\n      add\n        /* \"#utility.yul\":19797:19847   */\n      tag_365\n      jump\t// in\n    tag_602:\n        /* \"#utility.yul\":19787:19847   */\n      swap2\n      pop\n        /* \"#utility.yul\":19742:19857   */\n      pop\n        /* \"#utility.yul\":19396:19864   */\n      swap3\n      pop\n      swap3\n      swap1\n      pop\n      jump\t// out\n        /* \"#utility.yul\":19870:20489   */\n    tag_122:\n        /* \"#utility.yul\":19947:19953   */\n      0x00\n        /* \"#utility.yul\":19955:19961   */\n      dup1\n        /* \"#utility.yul\":19963:19969   */\n      0x00\n        /* \"#utility.yul\":20012:20014   */\n      0x60\n        /* \"#utility.yul\":20000:20009   */\n      dup5\n        /* \"#utility.yul\":19991:19998   */\n      dup7\n        /* \"#utility.yul\":19987:20010   */\n      sub\n        /* \"#utility.yul\":19983:20015   */\n      slt\n        /* \"#utility.yul\":19980:20099   */\n      iszero\n      tag_604\n      jumpi\n        /* \"#utility.yul\":20018:20097   */\n      tag_605\n      tag_320\n      jump\t// in\n    tag_605:\n        /* \"#utility.yul\":19980:20099   */\n    tag_604:\n        /* \"#utility.yul\":20138:20139   */\n      0x00\n        /* \"#utility.yul\":20163:20216   */\n      tag_606\n        /* \"#utility.yul\":20208:20215   */\n      dup7\n        /* \"#utility.yul\":20199:20205   */\n      dup3\n        /* \"#utility.yul\":20188:20197   */\n      dup8\n        /* \"#utility.yul\":20184:20206   */\n      add\n        /* \"#utility.yul\":20163:20216   */\n      tag_335\n      jump\t// in\n    tag_606:\n        /* \"#utility.yul\":20153:20216   */\n      swap4\n      pop\n        /* \"#utility.yul\":20109:20226   */\n      pop\n        /* \"#utility.yul\":20265:20267   */\n      0x20\n        /* \"#utility.yul\":20291:20344   */\n      tag_607\n        /* \"#utility.yul\":20336:20343   */\n      dup7\n        /* \"#utility.yul\":20327:20333   */\n      dup3\n        /* \"#utility.yul\":20316:20325   */\n      dup8\n        /* \"#utility.yul\":20312:20334   */\n      add\n        /* \"#utility.yul\":20291:20344   */\n      tag_359\n      jump\t// in\n    tag_607:\n        /* \"#utility.yul\":20281:20344   */\n      swap3\n      pop\n        /* \"#utility.yul\":20236:20354   */\n      pop\n        /* \"#utility.yul\":20393:20395   */\n      0x40\n        /* \"#utility.yul\":20419:20472   */\n      tag_608\n        /* \"#utility.yul\":20464:20471   */\n      dup7\n        /* \"#utility.yul\":20455:20461   */\n      dup3\n        /* \"#utility.yul\":20444:20453   */\n      dup8\n        /* \"#utility.yul\":20440:20462   */\n      add\n        /* \"#utility.yul\":20419:20472   */\n      tag_362\n      jump\t// in\n    tag_608:\n        /* \"#utility.yul\":20409:20472   */\n      swap2\n      pop\n        /* \"#utility.yul\":20364:20482   */\n      pop\n        /* \"#utility.yul\":19870:20489   */\n      swap3\n      pop\n      swap3\n      pop\n      swap3\n      jump\t// out\n        /* \"#utility.yul\":20495:21248   */\n    tag_129:\n        /* \"#utility.yul\":20575:20581   */\n      0x00\n        /* \"#utility.yul\":20583:20589   */\n      dup1\n        /* \"#utility.yul\":20591:20597   */\n      0x00\n        /* \"#utility.yul\":20599:20605   */\n      dup1\n        /* \"#utility.yul\":20648:20651   */\n      0x80\n        /* \"#utility.yul\":20636:20645   */\n      dup6\n        /* \"#utility.yul\":20627:20634   */\n      dup8\n        /* \"#utility.yul\":20623:20646   */\n      sub\n        /* \"#utility.yul\":20619:20652   */\n      slt\n        /* \"#utility.yul\":20616:20736   */\n      iszero\n      tag_610\n      jumpi\n        /* \"#utility.yul\":20655:20734   */\n      tag_611\n      tag_320\n      jump\t// in\n    tag_611:\n        /* \"#utility.yul\":20616:20736   */\n    tag_610:\n        /* \"#utility.yul\":20775:20776   */\n      0x00\n        /* \"#utility.yul\":20800:20853   */\n      tag_612\n        /* \"#utility.yul\":20845:20852   */\n      dup8\n        /* \"#utility.yul\":20836:20842   */\n      dup3\n        /* \"#utility.yul\":20825:20834   */\n      dup9\n        /* \"#utility.yul\":20821:20843   */\n      add\n        /* \"#utility.yul\":20800:20853   */\n      tag_335\n      jump\t// in\n    tag_612:\n        /* \"#utility.yul\":20790:20853   */\n      swap5\n      pop\n        /* \"#utility.yul\":20746:20863   */\n      pop\n        /* \"#utility.yul\":20902:20904   */\n      0x20\n        /* \"#utility.yul\":20928:20978   */\n      tag_613\n        /* \"#utility.yul\":20970:20977   */\n      dup8\n        /* \"#utility.yul\":20961:20967   */\n      dup3\n        /* \"#utility.yul\":20950:20959   */\n      dup9\n        /* \"#utility.yul\":20946:20968   */\n      add\n        /* \"#utility.yul\":20928:20978   */\n      tag_365\n      jump\t// in\n    tag_613:\n        /* \"#utility.yul\":20918:20978   */\n      swap4\n      pop\n        /* \"#utility.yul\":20873:20988   */\n      pop\n        /* \"#utility.yul\":21027:21029   */\n      0x40\n        /* \"#utility.yul\":21053:21103   */\n      tag_614\n        /* \"#utility.yul\":21095:21102   */\n      dup8\n        /* \"#utility.yul\":21086:21092   */\n      dup3\n        /* \"#utility.yul\":21075:21084   */\n      dup9\n        /* \"#utility.yul\":21071:21093   */\n      add\n        /* \"#utility.yul\":21053:21103   */\n      tag_365\n      jump\t// in\n    tag_614:\n        /* \"#utility.yul\":21043:21103   */\n      swap3\n      pop\n        /* \"#utility.yul\":20998:21113   */\n      pop\n        /* \"#utility.yul\":21152:21154   */\n      0x60\n        /* \"#utility.yul\":21178:21231   */\n      tag_615\n        /* \"#utility.yul\":21223:21230   */\n      dup8\n        /* \"#utility.yul\":21214:21220   */\n      dup3\n        /* \"#utility.yul\":21203:21212   */\n      dup9\n        /* \"#utility.yul\":21199:21221   */\n      add\n        /* \"#utility.yul\":21178:21231   */\n      tag_362\n      jump\t// in\n    tag_615:\n        /* \"#utility.yul\":21168:21231   */\n      swap2\n      pop\n        /* \"#utility.yul\":21123:21241   */\n      pop\n        /* \"#utility.yul\":20495:21248   */\n      swap3\n      swap6\n      swap2\n      swap5\n      pop\n      swap3\n      pop\n      jump\t// out\n        /* \"#utility.yul\":21254:21423   */\n    tag_366:\n        /* \"#utility.yul\":21338:21349   */\n      0x00\n        /* \"#utility.yul\":21372:21378   */\n      dup3\n        /* \"#utility.yul\":21367:21370   */\n      dup3\n        /* \"#utility.yul\":21360:21379   */\n      mstore\n        /* \"#utility.yul\":21412:21416   */\n      0x20\n        /* \"#utility.yul\":21407:21410   */\n      dup3\n        /* \"#utility.yul\":21403:21417   */\n      add\n        /* \"#utility.yul\":21388:21417   */\n      swap1\n      pop\n        /* \"#utility.yul\":21254:21423   */\n      swap3\n      swap2\n      pop\n      pop\n      jump\t// out\n        /* \"#utility.yul\":21429:21602   */\n    tag_367:\n        /* \"#utility.yul\":21569:21594   */\n      0x5573657220616c72656164792072656769737465726564000000000000000000\n        /* \"#utility.yul\":21565:21566   */\n      0x00\n        /* \"#utility.yul\":21557:21563   */\n      dup3\n        /* \"#utility.yul\":21553:21567   */\n      add\n        /* \"#utility.yul\":21546:21595   */\n      mstore\n        /* \"#utility.yul\":21429:21602   */\n      pop\n      jump\t// out\n        /* \"#utility.yul\":21608:21974   */\n    tag_368:\n        /* \"#utility.yul\":21750:21753   */\n      0x00\n        /* \"#utility.yul\":21771:21838   */\n      tag_619\n        /* \"#utility.yul\":21835:21837   */\n      0x17\n        /* \"#utility.yul\":21830:21833   */\n      dup4\n        /* \"#utility.yul\":21771:21838   */\n      tag_366\n      jump\t// in\n    tag_619:\n        /* \"#utility.yul\":21764:21838   */\n      swap2\n      pop\n        /* \"#utility.yul\":21847:21940   */\n      tag_620\n        /* \"#utility.yul\":21936:21939   */\n      dup3\n        /* \"#utility.yul\":21847:21940   */\n      tag_367\n      jump\t// in\n    tag_620:\n        /* \"#utility.yul\":21965:21967   */\n      0x20\n        /* \"#utility.yul\":21960:21963   */\n      dup3\n        /* \"#utility.yul\":21956:21968   */\n      add\n        /* \"#utility.yul\":21949:21968   */\n      swap1\n      pop\n        /* \"#utility.yul\":21608:21974   */\n      swap2\n      swap1\n      pop\n      jump\t// out\n        /* \"#utility.yul\":21980:22399   */\n    tag_134:\n        /* \"#utility.yul\":22146:22150   */\n      0x00\n        /* \"#utility.yul\":22184:22186   */\n      0x20\n        /* \"#utility.yul\":22173:22182   */\n      dup3\n        /* \"#utility.yul\":22169:22187   */\n      add\n        /* \"#utility.yul\":22161:22187   */\n      swap1\n      pop\n        /* \"#utility.yul\":22233:22242   */\n      dup2\n        /* \"#utility.yul\":22227:22231   */\n      dup2\n        /* \"#utility.yul\":22223:22243   */\n      sub\n        /* \"#utility.yul\":22219:22220   */\n      0x00\n        /* \"#utility.yul\":22208:22217   */\n      dup4\n        /* \"#utility.yul\":22204:22221   */\n      add\n        /* \"#utility.yul\":22197:22244   */\n      mstore\n        /* \"#utility.yul\":22261:22392   */\n      tag_622\n        /* \"#utility.yul\":22387:22391   */\n      dup2\n        /* \"#utility.yul\":22261:22392   */\n      tag_368\n      jump\t// in\n    tag_622:\n        /* \"#utility.yul\":22253:22392   */\n      swap1\n      pop\n        /* \"#utility.yul\":21980:22399   */\n      swap2\n      swap1\n      pop\n      jump\t// out\n        /* \"#utility.yul\":22405:22571   */\n    tag_369:\n        /* \"#utility.yul\":22545:22563   */\n      0x456d707479207075626c6963206b657900000000000000000000000000000000\n        /* \"#utility.yul\":22541:22542   */\n      0x00\n        /* \"#utility.yul\":22533:22539   */\n      dup3\n        /* \"#utility.yul\":22529:22543   */\n      add\n        /* \"#utility.yul\":22522:22564   */\n      mstore\n        /* \"#utility.yul\":22405:22571   */\n      pop\n      jump\t// out\n        /* \"#utility.yul\":22577:22943   */\n    tag_370:\n        /* \"#utility.yul\":22719:22722   */\n      0x00\n        /* \"#utility.yul\":22740:22807   */\n      tag_625\n        /* \"#utility.yul\":22804:22806   */\n      0x10\n        /* \"#utility.yul\":22799:22802   */\n      dup4\n        /* \"#utility.yul\":22740:22807   */\n      tag_366\n      jump\t// in\n    tag_625:\n        /* \"#utility.yul\":22733:22807   */\n      swap2\n      pop\n        /* \"#utility.yul\":22816:22909   */\n      tag_626\n        /* \"#utility.yul\":22905:22908   */\n      dup3\n        /* \"#utility.yul\":22816:22909   */\n      tag_369\n      jump\t// in\n    tag_626:\n        /* \"#utility.yul\":22934:22936   */\n      0x20\n        /* \"#utility.yul\":22929:22932   */\n      dup3\n        /* \"#utility.yul\":22925:22937   */\n      add\n        /* \"#utility.yul\":22918:22937   */\n      swap1\n      pop\n        /* \"#utility.yul\":22577:22943   */\n      swap2\n      swap1\n      pop\n      jump\t// out\n        /* \"#utility.yul\":22949:23368   */\n    tag_138:\n        /* \"#utility.yul\":23115:23119   */\n      0x00\n        /* \"#utility.yul\":23153:23155   */\n      0x20\n        /* \"#utility.yul\":23142:23151   */\n      dup3\n        /* \"#utility.yul\":23138:23156   */\n      add\n        /* \"#utility.yul\":23130:23156   */\n      swap1\n      pop\n        /* \"#utility.yul\":23202:23211   */\n      dup2\n        /* \"#utility.yul\":23196:23200   */\n      dup2\n        /* \"#utility.yul\":23192:23212   */\n      sub\n        /* \"#utility.yul\":23188:23189   */\n      0x00\n        /* \"#utility.yul\":23177:23186   */\n      dup4\n        /* \"#utility.yul\":23173:23190   */\n      add\n        /* \"#utility.yul\":23166:23213   */\n      mstore\n        /* \"#utility.yul\":23230:23361   */\n      tag_628\n        /* \"#utility.yul\":23356:23360   */\n      dup2\n        /* \"#utility.yul\":23230:23361   */\n      tag_370\n      jump\t// in\n    tag_628:\n        /* \"#utility.yul\":23222:23361   */\n      swap1\n      pop\n        /* \"#utility.yul\":22949:23368   */\n      swap2\n      swap1\n      pop\n      jump\t// out\n        /* \"#utility.yul\":23374:23544   */\n    tag_371:\n        /* \"#utility.yul\":23514:23536   */\n      0x5075626c6963206b657920746f6f206c61726765000000000000000000000000\n        /* \"#utility.yul\":23510:23511   */\n      0x00\n        /* \"#utility.yul\":23502:23508   */\n      dup3\n        /* \"#utility.yul\":23498:23512   */\n      add\n        /* \"#utility.yul\":23491:23537   */\n      mstore\n        /* \"#utility.yul\":23374:23544   */\n      pop\n      jump\t// out\n        /* \"#utility.yul\":23550:23916   */\n    tag_372:\n        /* \"#utility.yul\":23692:23695   */\n      0x00\n        /* \"#utility.yul\":23713:23780   */\n      tag_631\n        /* \"#utility.yul\":23777:23779   */\n      0x14\n        /* \"#utility.yul\":23772:23775   */\n      dup4\n        /* \"#utility.yul\":23713:23780   */\n      tag_366\n      jump\t// in\n    tag_631:\n        /* \"#utility.yul\":23706:23780   */\n      swap2\n      pop\n        /* \"#utility.yul\":23789:23882   */\n      tag_632\n        /* \"#utility.yul\":23878:23881   */\n      dup3\n        /* \"#utility.yul\":23789:23882   */\n      tag_371\n      jump\t// in\n    tag_632:\n        /* \"#utility.yul\":23907:23909   */\n      0x20\n        /* \"#utility.yul\":23902:23905   */\n      dup3\n        /* \"#utility.yul\":23898:23910   */\n      add\n        /* \"#utility.yul\":23891:23910   */\n      swap1\n      pop\n        /* \"#utility.yul\":23550:23916   */\n      swap2\n      swap1\n      pop\n      jump\t// out\n        /* \"#utility.yul\":23922:24341   */\n    tag_141:\n        /* \"#utility.yul\":24088:24092   */\n      0x00\n        /* \"#utility.yul\":24126:24128   */\n      0x20\n        /* \"#utility.yul\":24115:24124   */\n      dup3\n        /* \"#utility.yul\":24111:24129   */\n      add\n        /* \"#utility.yul\":24103:24129   */\n      swap1\n      pop\n        /* \"#utility.yul\":24175:24184   */\n      dup2\n        /* \"#utility.yul\":24169:24173   */\n      dup2\n        /* \"#utility.yul\":24165:24185   */\n      sub\n        /* \"#utility.yul\":24161:24162   */\n      0x00\n        /* \"#utility.yul\":24150:24159   */\n      dup4\n        /* \"#utility.yul\":24146:24163   */\n      add\n        /* \"#utility.yul\":24139:24186   */\n      mstore\n        /* \"#utility.yul\":24203:24334   */\n      tag_634\n        /* \"#utility.yul\":24329:24333   */\n      dup2\n        /* \"#utility.yul\":24203:24334   */\n      tag_372\n      jump\t// in\n    tag_634:\n        /* \"#utility.yul\":24195:24334   */\n      swap1\n      pop\n        /* \"#utility.yul\":23922:24341   */\n      swap2\n      swap1\n      pop\n      jump\t// out\n        /* \"#utility.yul\":24347:24526   */\n    tag_373:\n        /* \"#utility.yul\":24487:24518   */\n      0x5075626c6963206b657920616c72656164792072656769737465726564000000\n        /* \"#utility.yul\":24483:24484   */\n      0x00\n        /* \"#utility.yul\":24475:24481   */\n      dup3\n        /* \"#utility.yul\":24471:24485   */\n      add\n        /* \"#utility.yul\":24464:24519   */\n      mstore\n        /* \"#utility.yul\":24347:24526   */\n      pop\n      jump\t// out\n        /* \"#utility.yul\":24532:24898   */\n    tag_374:\n        /* \"#utility.yul\":24674:24677   */\n      0x00\n        /* \"#utility.yul\":24695:24762   */\n      tag_637\n        /* \"#utility.yul\":24759:24761   */\n      0x1d\n        /* \"#utility.yul\":24754:24757   */\n      dup4\n        /* \"#utility.yul\":24695:24762   */\n      tag_366\n      jump\t// in\n    tag_637:\n        /* \"#utility.yul\":24688:24762   */\n      swap2\n      pop\n        /* \"#utility.yul\":24771:24864   */\n      tag_638\n        /* \"#utility.yul\":24860:24863   */\n      dup3\n        /* \"#utility.yul\":24771:24864   */\n      tag_373\n      jump\t// in\n    tag_638:\n        /* \"#utility.yul\":24889:24891   */\n      0x20\n        /* \"#utility.yul\":24884:24887   */\n      dup3\n        /* \"#utility.yul\":24880:24892   */\n      add\n        /* \"#utility.yul\":24873:24892   */\n      swap1\n      pop\n        /* \"#utility.yul\":24532:24898   */\n      swap2\n      swap1\n      pop\n      jump\t// out\n        /* \"#utility.yul\":24904:25323   */\n    tag_144:\n        /* \"#utility.yul\":25070:25074   */\n      0x00\n        /* \"#utility.yul\":25108:25110   */\n      0x20\n        /* \"#utility.yul\":25097:25106   */\n      dup3\n        /* \"#utility.yul\":25093:25111   */\n      add\n        /* \"#utility.yul\":25085:25111   */\n      swap1\n      pop\n        /* \"#utility.yul\":25157:25166   */\n      dup2\n        /* \"#utility.yul\":25151:25155   */\n      dup2\n        /* \"#utility.yul\":25147:25167   */\n      sub\n        /* \"#utility.yul\":25143:25144   */\n      0x00\n        /* \"#utility.yul\":25132:25141   */\n      dup4\n        /* \"#utility.yul\":25128:25145   */\n      add\n        /* \"#utility.yul\":25121:25168   */\n      mstore\n        /* \"#utility.yul\":25185:25316   */\n      tag_640\n        /* \"#utility.yul\":25311:25315   */\n      dup2\n        /* \"#utility.yul\":25185:25316   */\n      tag_374\n      jump\t// in\n    tag_640:\n        /* \"#utility.yul\":25177:25316   */\n      swap1\n      pop\n        /* \"#utility.yul\":24904:25323   */\n      swap2\n      swap1\n      pop\n      jump\t// out\n        /* \"#utility.yul\":25329:25509   */\n    tag_375:\n        /* \"#utility.yul\":25377:25454   */\n      0x4e487b7100000000000000000000000000000000000000000000000000000000\n        /* \"#utility.yul\":25374:25375   */\n      0x00\n        /* \"#utility.yul\":25367:25455   */\n      mstore\n        /* \"#utility.yul\":25474:25478   */\n      0x12\n        /* \"#utility.yul\":25471:25472   */\n      0x04\n        /* \"#utility.yul\":25464:25479   */\n      mstore\n        /* \"#utility.yul\":25498:25502   */\n      0x24\n        /* \"#utility.yul\":25495:25496   */\n      0x00\n        /* \"#utility.yul\":25488:25503   */\n      revert\n        /* \"#utility.yul\":25515:25695   */\n    tag_376:\n        /* \"#utility.yul\":25563:25640   */\n      0x4e487b7100000000000000000000000000000000000000000000000000000000\n        /* \"#utility.yul\":25560:25561   */\n      0x00\n        /* \"#utility.yul\":25553:25641   */\n      mstore\n        /* \"#utility.yul\":25660:25664   */\n      0x11\n        /* \"#utility.yul\":25657:25658   */\n      0x04\n        /* \"#utility.yul\":25650:25665   */\n      mstore\n        /* \"#utility.yul\":25684:25688   */\n      0x24\n        /* \"#utility.yul\":25681:25682   */\n      0x00\n        /* \"#utility.yul\":25674:25689   */\n      revert\n        /* \"#utility.yul\":25701:25886   */\n    tag_148:\n        /* \"#utility.yul\":25741:25742   */\n      0x00\n        /* \"#utility.yul\":25758:25778   */\n      tag_644\n        /* \"#utility.yul\":25776:25777   */\n      dup3\n        /* \"#utility.yul\":25758:25778   */\n      tag_342\n      jump\t// in\n    tag_644:\n        /* \"#utility.yul\":25753:25778   */\n      swap2\n      pop\n        /* \"#utility.yul\":25792:25812   */\n      tag_645\n        /* \"#utility.yul\":25810:25811   */\n      dup4\n        /* \"#utility.yul\":25792:25812   */\n      tag_342\n      jump\t// in\n    tag_645:\n        /* \"#utility.yul\":25787:25812   */\n      swap3\n      pop\n        /* \"#utility.yul\":25831:25832   */\n      dup3\n        /* \"#utility.yul\":25821:25856   */\n      tag_646\n      jumpi\n        /* \"#utility.yul\":25836:25854   */\n      tag_647\n      tag_375\n      jump\t// in\n    tag_647:\n        /* \"#utility.yul\":25821:25856   */\n    tag_646:\n        /* \"#utility.yul\":25878:25879   */\n      dup3\n        /* \"#utility.yul\":25875:25876   */\n      dup3\n        /* \"#utility.yul\":25871:25880   */\n      div\n        /* \"#utility.yul\":25866:25880   */\n      swap1\n      pop\n        /* \"#utility.yul\":25701:25886   */\n      swap3\n      swap2\n      pop\n      pop\n      jump\t// out\n        /* \"#utility.yul\":25892:26125   */\n    tag_150:\n        /* \"#utility.yul\":25931:25934   */\n      0x00\n        /* \"#utility.yul\":25954:25978   */\n      tag_649\n        /* \"#utility.yul\":25972:25977   */\n      dup3\n        /* \"#utility.yul\":25954:25978   */\n      tag_342\n      jump\t// in\n    tag_649:\n        /* \"#utility.yul\":25945:25978   */\n      swap2\n      pop\n        /* \"#utility.yul\":26000:26066   */\n      0xffffffffffffffffffffffffffffffffffffffffffffffffffffffffffffffff\n        /* \"#utility.yul\":25993:25998   */\n      dup3\n        /* \"#utility.yul\":25990:26067   */\n      eq\n        /* \"#utility.yul\":25987:26090   */\n      iszero\n      tag_650\n      jumpi\n        /* \"#utility.yul\":26070:26088   */\n      tag_651\n      tag_376\n      jump\t// in\n    tag_651:\n        /* \"#utility.yul\":25987:26090   */\n    tag_650:\n        /* \"#utility.yul\":26117:26118   */\n      0x01\n        /* \"#utility.yul\":26110:26115   */\n      dup3\n        /* \"#utility.yul\":26106:26119   */\n      add\n        /* \"#utility.yul\":26099:26119   */\n      swap1\n      pop\n        /* \"#utility.yul\":25892:26125   */\n      swap2\n      swap1\n      pop\n      jump\t// out\n        /* \"#utility.yul\":26131:26463   */\n    tag_152:\n        /* \"#utility.yul\":26252:26256   */\n      0x00\n        /* \"#utility.yul\":26290:26292   */\n      0x40\n        /* \"#utility.yul\":26279:26288   */\n      dup3\n        /* \"#utility.yul\":26275:26293   */\n      add\n        /* \"#utility.yul\":26267:26293   */\n      swap1\n      pop\n        /* \"#utility.yul\":26303:26374   */\n      tag_653\n        /* \"#utility.yul\":26371:26372   */\n      0x00\n        /* \"#utility.yul\":26360:26369   */\n      dup4\n        /* \"#utility.yul\":26356:26373   */\n      add\n        /* \"#utility.yul\":26347:26353   */\n      dup6\n        /* \"#utility.yul\":26303:26374   */\n      tag_363\n      jump\t// in\n    tag_653:\n        /* \"#utility.yul\":26384:26456   */\n      tag_654\n        /* \"#utility.yul\":26452:26454   */\n      0x20\n        /* \"#utility.yul\":26441:26450   */\n      dup4\n        /* \"#utility.yul\":26437:26455   */\n      add\n        /* \"#utility.yul\":26428:26434   */\n      dup5\n        /* \"#utility.yul\":26384:26456   */\n      tag_343\n      jump\t// in\n    tag_654:\n        /* \"#utility.yul\":26131:26463   */\n      swap4\n      swap3\n      pop\n      pop\n      pop\n      jump\t// out\n        /* \"#utility.yul\":26469:26638   */\n    tag_377:\n        /* \"#utility.yul\":26609:26630   */\n      0x55736572206e6f74207265676973746572656400000000000000000000000000\n        /* \"#utility.yul\":26605:26606   */\n      0x00\n        /* \"#utility.yul\":26597:26603   */\n      dup3\n        /* \"#utility.yul\":26593:26607   */\n      add\n        /* \"#utility.yul\":26586:26631   */\n      mstore\n        /* \"#utility.yul\":26469:26638   */\n      pop\n      jump\t// out\n        /* \"#utility.yul\":26644:27010   */\n    tag_378:\n        /* \"#utility.yul\":26786:26789   */\n      0x00\n        /* \"#utility.yul\":26807:26874   */\n      tag_657\n        /* \"#utility.yul\":26871:26873   */\n      0x13\n        /* \"#utility.yul\":26866:26869   */\n      dup4\n        /* \"#utility.yul\":26807:26874   */\n      tag_366\n      jump\t// in\n    tag_657:\n        /* \"#utility.yul\":26800:26874   */\n      swap2\n      pop\n        /* \"#utility.yul\":26883:26976   */\n      tag_658\n        /* \"#utility.yul\":26972:26975   */\n      dup3\n        /* \"#utility.yul\":26883:26976   */\n      tag_377\n      jump\t// in\n    tag_658:\n        /* \"#utility.yul\":27001:27003   */\n      0x20\n        /* \"#utility.yul\":26996:26999   */\n      dup3\n        /* \"#utility.yul\":26992:27004   */\n      add\n        /* \"#utility.yul\":26985:27004   */\n      swap1\n      pop\n        /* \"#utility.yul\":26644:27010   */\n      swap2\n      swap1\n      pop\n      jump\t// out\n        /* \"#utility.yul\":27016:27435   */\n    tag_156:\n        /* \"#utility.yul\":27182:27186   */\n      0x00\n        /* \"#utility.yul\":27220:27222   */\n      0x20\n        /* \"#utility.yul\":27209:27218   */\n      dup3\n        /* \"#utility.yul\":27205:27223   */\n      add\n        /* \"#utility.yul\":27197:27223   */\n      swap1\n      pop\n        /* \"#utility.yul\":27269:27278   */\n      dup2\n        /* \"#utility.yul\":27263:27267   */\n      dup2\n        /* \"#utility.yul\":27259:27279   */\n      sub\n        /* \"#utility.yul\":27255:27256   */\n      0x00\n        /* \"#utility.yul\":27244:27253   */\n      dup4\n        /* \"#utility.yul\":27240:27257   */\n      add\n        /* \"#utility.yul\":27233:27280   */\n      mstore\n        /* \"#utility.yul\":27297:27428   */\n      tag_660\n        /* \"#utility.yul\":27423:27427   */\n      dup2\n        /* \"#utility.yul\":27297:27428   */\n      tag_378\n      jump\t// in\n    tag_660:\n        /* \"#utility.yul\":27289:27428   */\n      swap1\n      pop\n        /* \"#utility.yul\":27016:27435   */\n      swap2\n      swap1\n      pop\n      jump\t// out\n        /* \"#utility.yul\":27441:27621   */\n    tag_379:\n        /* \"#utility.yul\":27489:27566   */\n      0x4e487b7100000000000000000000000000000000000000000000000000000000\n        /* \"#utility.yul\":27486:27487   */\n      0x00\n        /* \"#utility.yul\":27479:27567   */\n      mstore\n        /* \"#utility.yul\":27586:27590   */\n      0x22\n        /* \"#utility.yul\":27583:27584   */\n      0x04\n        /* \"#utility.yul\":27576:27591   */\n      mstore\n        /* \"#utility.yul\":27610:27614   */\n      0x24\n        /* \"#utility.yul\":27607:27608   */\n      0x00\n        /* \"#utility.yul\":27600:27615   */\n      revert\n        /* \"#utility.yul\":27627:27947   */\n    tag_159:\n        /* \"#utility.yul\":27671:27677   */\n      0x00\n        /* \"#utility.yul\":27708:27709   */\n      0x02\n        /* \"#utility.yul\":27702:27706   */\n      dup3\n        /* \"#utility.yul\":27698:27710   */\n      div\n        /* \"#utility.yul\":27688:27710   */\n      swap1\n      pop\n        /* \"#utility.yul\":27755:27756   */\n      0x01\n        /* \"#utility.yul\":27749:27753   */\n      dup3\n        /* \"#utility.yul\":27745:27757   */\n      and\n        /* \"#utility.yul\":27776:27794   */\n      dup1\n        /* \"#utility.yul\":27766:27847   */\n      tag_663\n      jumpi\n        /* \"#utility.yul\":27832:27836   */\n      0x7f\n        /* \"#utility.yul\":27824:27830   */\n      dup3\n        /* \"#utility.yul\":27820:27837   */\n      and\n        /* \"#utility.yul\":27810:27837   */\n      swap2\n      pop\n        /* \"#utility.yul\":27766:27847   */\n    tag_663:\n        /* \"#utility.yul\":27894:27896   */\n      0x20\n        /* \"#utility.yul\":27886:27892   */\n      dup3\n        /* \"#utility.yul\":27883:27897   */\n      lt\n        /* \"#utility.yul\":27863:27881   */\n      dup2\n        /* \"#utility.yul\":27860:27898   */\n      eq\n        /* \"#utility.yul\":27857:27941   */\n      iszero\n      tag_664\n      jumpi\n        /* \"#utility.yul\":27913:27931   */\n      tag_665\n      tag_379\n      jump\t// in\n    tag_665:\n        /* \"#utility.yul\":27857:27941   */\n    tag_664:\n        /* \"#utility.yul\":27678:27947   */\n      pop\n        /* \"#utility.yul\":27627:27947   */\n      swap2\n      swap1\n      pop\n      jump\t// out\n        /* \"#utility.yul\":27953:28113   */\n    tag_380:\n        /* \"#utility.yul\":28093:28105   */\n      0x4f6e6c79206f776e657200000000000000000000000000000000000000000000\n        /* \"#utility.yul\":28089:28090   */\n      0x00\n        /* \"#utility.yul\":28081:28087   */\n      dup3\n        /* \"#utility.yul\":28077:28091   */\n      add\n        /* \"#utility.yul\":28070:28106   */\n      mstore\n        /* \"#utility.yul\":27953:28113   */\n      pop\n      jump\t// out\n        /* \"#utility.yul\":28119:28485   */\n    tag_381:\n        /* \"#utility.yul\":28261:28264   */\n      0x00\n        /* \"#utility.yul\":28282:28349   */\n      tag_668\n        /* \"#utility.yul\":28346:28348   */\n      0x0a\n        /* \"#utility.yul\":28341:28344   */\n      dup4\n        /* \"#utility.yul\":28282:28349   */\n      tag_366\n      jump\t// in\n    tag_668:\n        /* \"#utility.yul\":28275:28349   */\n      swap2\n      pop\n        /* \"#utility.yul\":28358:28451   */\n      tag_669\n        /* \"#utility.yul\":28447:28450   */\n      dup3\n        /* \"#utility.yul\":28358:28451   */\n      tag_380\n      jump\t// in\n    tag_669:\n        /* \"#utility.yul\":28476:28478   */\n      0x20\n        /* \"#utility.yul\":28471:28474   */\n      dup3\n        /* \"#utility.yul\":28467:28479   */\n      add\n        /* \"#utility.yul\":28460:28479   */\n      swap1\n      pop\n        /* \"#utility.yul\":28119:28485   */\n      swap2\n      swap1\n      pop\n      jump\t// out\n        /* \"#utility.yul\":28491:28910   */\n    tag_167:\n        /* \"#utility.yul\":28657:28661   */\n      0x00\n        /* \"#utility.yul\":28695:28697   */\n      0x20\n        /* \"#utility.yul\":28684:28693   */\n      dup3\n        /* \"#utility.yul\":28680:28698   */\n      add\n        /* \"#utility.yul\":28672:28698   */\n      swap1\n      pop\n        /* \"#utility.yul\":28744:28753   */\n      dup2\n        /* \"#utility.yul\":28738:28742   */\n      dup2\n        /* \"#utility.yul\":28734:28754   */\n      sub\n        /* \"#utility.yul\":28730:28731   */\n      0x00\n        /* \"#utility.yul\":28719:28728   */\n      dup4\n        /* \"#utility.yul\":28715:28732   */\n      add\n        /* \"#utility.yul\":28708:28755   */\n      mstore\n        /* \"#utility.yul\":28772:28903   */\n      tag_671\n        /* \"#utility.yul\":28898:28902   */\n      dup2\n        /* \"#utility.yul\":28772:28903   */\n      tag_381\n      jump\t// in\n    tag_671:\n        /* \"#utility.yul\":28764:28903   */\n      swap1\n      pop\n        /* \"#utility.yul\":28491:28910   */\n      swap2\n      swap1\n      pop\n      jump\t// out\n        /* \"#utility.yul\":28916:29079   */\n    tag_382:\n        /* \"#utility.yul\":29056:29071   */\n      0x456d707479206d65737361676500000000000000000000000000000000000000\n        /* \"#utility.yul\":29052:29053   */\n      0x00\n        /* \"#utility.yul\":29044:29050   */\n      dup3\n        /* \"#utility.yul\":29040:29054   */\n      add\n        /* \"#utility.yul\":29033:29072   */\n      mstore\n        /* \"#utility.yul\":28916:29079   */\n      pop\n      jump\t// out\n        /* \"#utility.yul\":29085:29451   */\n    tag_383:\n        /* \"#utility.yul\":29227:29230   */\n      0x00\n        /* \"#utility.yul\":29248:29315   */\n      tag_674\n        /* \"#utility.yul\":29312:29314   */\n      0x0d\n        /* \"#utility.yul\":29307:29310   */\n      dup4\n        /* \"#utility.yul\":29248:29315   */\n      tag_366\n      jump\t// in\n    tag_674:\n        /* \"#utility.yul\":29241:29315   */\n      swap2\n      pop\n        /* \"#utility.yul\":29324:29417   */\n      tag_675\n        /* \"#utility.yul\":29413:29416   */\n      dup3\n        /* \"#utility.yul\":29324:29417   */\n      tag_382\n      jump\t// in\n    tag_675:\n        /* \"#utility.yul\":29442:29444   */\n      0x20\n        /* \"#utility.yul\":29437:29440   */\n      dup3\n        /* \"#utility.yul\":29433:29445   */\n      add\n        /* \"#utility.yul\":29426:29445   */\n      swap1\n      pop\n        /* \"#utility.yul\":29085:29451   */\n      swap2\n      swap1\n      pop\n      jump\t// out\n        /* \"#utility.yul\":29457:29876   */\n    tag_178:\n        /* \"#utility.yul\":29623:29627   */\n      0x00\n        /* \"#utility.yul\":29661:29663   */\n      0x20\n        /* \"#utility.yul\":29650:29659   */\n      dup3\n        /* \"#utility.yul\":29646:29664   */\n      add\n        /* \"#utility.yul\":29638:29664   */\n      swap1\n      pop\n        /* \"#utility.yul\":29710:29719   */\n      dup2\n        /* \"#utility.yul\":29704:29708   */\n      dup2\n        /* \"#utility.yul\":29700:29720   */\n      sub\n        /* \"#utility.yul\":29696:29697   */\n      0x00\n        /* \"#utility.yul\":29685:29694   */\n      dup4\n        /* \"#utility.yul\":29681:29698   */\n      add\n        /* \"#utility.yul\":29674:29721   */\n      mstore\n        /* \"#utility.yul\":29738:29869   */\n      tag_677\n        /* \"#utility.yul\":29864:29868   */\n      dup2\n        /* \"#utility.yul\":29738:29869   */\n      tag_383\n      jump\t// in\n    tag_677:\n        /* \"#utility.yul\":29730:29869   */\n      swap1\n      pop\n        /* \"#utility.yul\":29457:29876   */\n      swap2\n      swap1\n      pop\n      jump\t// out\n        /* \"#utility.yul\":29882:30047   */\n    tag_384:\n        /* \"#utility.yul\":30022:30039   */\n      0x456d707479207369676e61747572650000000000000000000000000000000000\n        /* \"#utility.yul\":30018:30019   */\n      0x00\n        /* \"#utility.yul\":30010:30016   */\n      dup3\n        /* \"#utility.yul\":30006:30020   */\n      add\n        /* \"#utility.yul\":29999:30040   */\n      mstore\n        /* \"#utility.yul\":29882:30047   */\n      pop\n      jump\t// out\n        /* \"#utility.yul\":30053:30419   */\n    tag_385:\n        /* \"#utility.yul\":30195:30198   */\n      0x00\n        /* \"#utility.yul\":30216:30283   */\n      tag_680\n        /* \"#utility.yul\":30280:30282   */\n      0x0f\n        /* \"#utility.yul\":30275:30278   */\n      dup4\n        /* \"#utility.yul\":30216:30283   */\n      tag_366\n      jump\t// in\n    tag_680:\n        /* \"#utility.yul\":30209:30283   */\n      swap2\n      pop\n        /* \"#utility.yul\":30292:30385   */\n      tag_681\n        /* \"#utility.yul\":30381:30384   */\n      dup3\n        /* \"#utility.yul\":30292:30385   */\n      tag_384\n      jump\t// in\n    tag_681:\n        /* \"#utility.yul\":30410:30412   */\n      0x20\n        /* \"#utility.yul\":30405:30408   */\n      dup3\n        /* \"#utility.yul\":30401:30413   */\n      add\n        /* \"#utility.yul\":30394:30413   */\n      swap1\n      pop\n        /* \"#utility.yul\":30053:30419   */\n      swap2\n      swap1\n      pop\n      jump\t// out\n        /* \"#utility.yul\":30425:30844   */\n    tag_181:\n        /* \"#utility.yul\":30591:30595   */\n      0x00\n        /* \"#utility.yul\":30629:30631   */\n      0x20\n        /* \"#utility.yul\":30618:30627   */\n      dup3\n        /* \"#utility.yul\":30614:30632   */\n      add\n        /* \"#utility.yul\":30606:30632   */\n      swap1\n      pop\n        /* \"#utility.yul\":30678:30687   */\n      dup2\n        /* \"#utility.yul\":30672:30676   */\n      dup2\n        /* \"#utility.yul\":30668:30688   */\n      sub\n        /* \"#utility.yul\":30664:30665   */\n      0x00\n        /* \"#utility.yul\":30653:30662   */\n      dup4\n        /* \"#utility.yul\":30649:30666   */\n      add\n        /* \"#utility.yul\":30642:30689   */\n      mstore\n        /* \"#utility.yul\":30706:30837   */\n      tag_683\n        /* \"#utility.yul\":30832:30836   */\n      dup2\n        /* \"#utility.yul\":30706:30837   */\n      tag_385\n      jump\t// in\n    tag_683:\n        /* \"#utility.yul\":30698:30837   */\n      swap1\n      pop\n        /* \"#utility.yul\":30425:30844   */\n      swap2\n      swap1\n      pop\n      jump\t// out\n        /* \"#utility.yul\":30850:31020   */\n    tag_386:\n        /* \"#utility.yul\":30990:31012   */\n      0x4f6e6c7920617574686f72697a65642062616e6b000000000000000000000000\n        /* \"#utility.yul\":30986:30987   */\n      0x00\n        /* \"#utility.yul\":30978:30984   */\n      dup3\n        /* \"#utility.yul\":30974:30988   */\n      add\n        /* \"#utility.yul\":30967:31013   */\n      mstore\n        /* \"#utility.yul\":30850:31020   */\n      pop\n      jump\t// out\n        /* \"#utility.yul\":31026:31392   */\n    tag_387:\n        /* \"#utility.yul\":31168:31171   */\n      0x00\n        /* \"#utility.yul\":31189:31256   */\n      tag_686\n        /* \"#utility.yul\":31253:31255   */\n      0x14\n        /* \"#utility.yul\":31248:31251   */\n      dup4\n        /* \"#utility.yul\":31189:31256   */\n      tag_366\n      jump\t// in\n    tag_686:\n        /* \"#utility.yul\":31182:31256   */\n      swap2\n      pop\n        /* \"#utility.yul\":31265:31358   */\n      tag_687\n        /* \"#utility.yul\":31354:31357   */\n      dup3\n        /* \"#utility.yul\":31265:31358   */\n      tag_386\n      jump\t// in\n    tag_687:\n        /* \"#utility.yul\":31383:31385   */\n      0x20\n        /* \"#utility.yul\":31378:31381   */\n      dup3\n        /* \"#utility.yul\":31374:31386   */\n      add\n        /* \"#utility.yul\":31367:31386   */\n      swap1\n      pop\n        /* \"#utility.yul\":31026:31392   */\n      swap2\n      swap1\n      pop\n      jump\t// out\n        /* \"#utility.yul\":31398:31817   */\n    tag_185:\n        /* \"#utility.yul\":31564:31568   */\n      0x00\n        /* \"#utility.yul\":31602:31604   */\n      0x20\n        /* \"#utility.yul\":31591:31600   */\n      dup3\n        /* \"#utility.yul\":31587:31605   */\n      add\n        /* \"#utility.yul\":31579:31605   */\n      swap1\n      pop\n        /* \"#utility.yul\":31651:31660   */\n      dup2\n        /* \"#utility.yul\":31645:31649   */\n      dup2\n        /* \"#utility.yul\":31641:31661   */\n      sub\n        /* \"#utility.yul\":31637:31638   */\n      0x00\n        /* \"#utility.yul\":31626:31635   */\n      dup4\n        /* \"#utility.yul\":31622:31639   */\n      add\n        /* \"#utility.yul\":31615:31662   */\n      mstore\n        /* \"#utility.yul\":31679:31810   */\n      tag_689\n        /* \"#utility.yul\":31805:31809   */\n      dup2\n        /* \"#utility.yul\":31679:31810   */\n      tag_387\n      jump\t// in\n    tag_689:\n        /* \"#utility.yul\":31671:31810   */\n      swap1\n      pop\n        /* \"#utility.yul\":31398:31817   */\n      swap2\n      swap1\n      pop\n      jump\t// out\n        /* \"#utility.yul\":31823:31989   */\n    tag_388:\n        /* \"#utility.yul\":31963:31981   */\n      0x4b5943206e6f7420766572696669656400000000000000000000000000000000\n        /* \"#utility.yul\":31959:31960   */\n      0x00\n        /* \"#utility.yul\":31951:31957   */\n      dup3\n        /* \"#utility.yul\":31947:31961   */\n      add\n        /* \"#utility.yul\":31940:31982   */\n      mstore\n        /* \"#utility.yul\":31823:31989   */\n      pop\n      jump\t// out\n        /* \"#utility.yul\":31995:32361   */\n    tag_389:\n        /* \"#utility.yul\":32137:32140   */\n      0x00\n        /* \"#utility.yul\":32158:32225   */\n      tag_692\n        /* \"#utility.yul\":32222:32224   */\n      0x10\n        /* \"#utility.yul\":32217:32220   */\n      dup4\n        /* \"#utility.yul\":32158:32225   */\n      tag_366\n      jump\t// in\n    tag_692:\n        /* \"#utility.yul\":32151:32225   */\n      swap2\n      pop\n        /* \"#utility.yul\":32234:32327   */\n      tag_693\n        /* \"#utility.yul\":32323:32326   */\n      dup3\n        /* \"#utility.yul\":32234:32327   */\n      tag_388\n      jump\t// in\n    tag_693:\n        /* \"#utility.yul\":32352:32354   */\n      0x20\n        /* \"#utility.yul\":32347:32350   */\n      dup3\n        /* \"#utility.yul\":32343:32355   */\n      add\n        /* \"#utility.yul\":32336:32355   */\n      swap1\n      pop\n        /* \"#utility.yul\":31995:32361   */\n      swap2\n      swap1\n      pop\n      jump\t// out\n        /* \"#utility.yul\":32367:32786   */\n    tag_192:\n        /* \"#utility.yul\":32533:32537   */\n      0x00\n        /* \"#utility.yul\":32571:32573   */\n      0x20\n        /* \"#utility.yul\":32560:32569   */\n      dup3\n        /* \"#utility.yul\":32556:32574   */\n      add\n        /* \"#utility.yul\":32548:32574   */\n      swap1\n      pop\n        /* \"#utility.yul\":32620:32629   */\n      dup2\n        /* \"#utility.yul\":32614:32618   */\n      dup2\n        /* \"#utility.yul\":32610:32630   */\n      sub\n        /* \"#utility.yul\":32606:32607   */\n      0x00\n        /* \"#utility.yul\":32595:32604   */\n      dup4\n        /* \"#utility.yul\":32591:32608   */\n      add\n        /* \"#utility.yul\":32584:32631   */\n      mstore\n        /* \"#utility.yul\":32648:32779   */\n      tag_695\n        /* \"#utility.yul\":32774:32778   */\n      dup2\n        /* \"#utility.yul\":32648:32779   */\n      tag_389\n      jump\t// in\n    tag_695:\n        /* \"#utility.yul\":32640:32779   */\n      swap1\n      pop\n        /* \"#utility.yul\":32367:32786   */\n      swap2\n      swap1\n      pop\n      jump\t// out\n        /* \"#utility.yul\":32792:32972   */\n    tag_203:\n        /* \"#utility.yul\":32840:32917   */\n      0x4e487b7100000000000000000000000000000000000000000000000000000000\n        /* \"#utility.yul\":32837:32838   */\n      0x00\n        /* \"#utility.yul\":32830:32918   */\n      mstore\n        /* \"#utility.yul\":32937:32941   */\n      0x32\n        /* \"#utility.yul\":32934:32935   */\n      0x04\n        /* \"#utility.yul\":32927:32942   */\n      mstore\n        /* \"#utility.yul\":32961:32965   */\n      0x24\n        /* \"#utility.yul\":32958:32959   */\n      0x00\n        /* \"#utility.yul\":32951:32966   */\n      revert\n        /* \"#utility.yul\":32978:33283   */\n    tag_231:\n        /* \"#utility.yul\":33018:33021   */\n      0x00\n        /* \"#utility.yul\":33037:33057   */\n      tag_698\n        /* \"#utility.yul\":33055:33056   */\n      dup3\n        /* \"#utility.yul\":33037:33057   */\n      tag_342\n      jump\t// in\n    tag_698:\n        /* \"#utility.yul\":33032:33057   */\n      swap2\n      pop\n        /* \"#utility.yul\":33071:33091   */\n      tag_699\n        /* \"#utility.yul\":33089:33090   */\n      dup4\n        /* \"#utility.yul\":33071:33091   */\n      tag_342\n      jump\t// in\n    tag_699:\n        /* \"#utility.yul\":33066:33091   */\n      swap3\n      pop\n        /* \"#utility.yul\":33225:33226   */\n      dup3\n        /* \"#utility.yul\":33157:33223   */\n      0xffffffffffffffffffffffffffffffffffffffffffffffffffffffffffffffff\n        /* \"#utility.yul\":33153:33227   */\n      sub\n        /* \"#utility.yul\":33150:33151   */\n      dup3\n        /* \"#utility.yul\":33147:33228   */\n      gt\n        /* \"#utility.yul\":33144:33251   */\n      iszero\n      tag_700\n      jumpi\n        /* \"#utility.yul\":33231:33249   */\n      tag_701\n      tag_376\n      jump\t// in\n    tag_701:\n        /* \"#utility.yul\":33144:33251   */\n    tag_700:\n        /* \"#utility.yul\":33275:33276   */\n      dup3\n        /* \"#utility.yul\":33272:33273   */\n      dup3\n        /* \"#utility.yul\":33268:33277   */\n      add\n        /* \"#utility.yul\":33261:33277   */\n      swap1\n      pop\n        /* \"#utility.yul\":32978:33283   */\n      swap3\n      swap2\n      pop\n      pop\n      jump\t// out\n        /* \"#utility.yul\":33289:33464   */\n    tag_390:\n        /* \"#utility.yul\":33429:33456   */\n      0x5075626c6963206b657920616c726561647920696e2075736500000000000000\n        /* \"#utility.yul\":33425:33426   */\n      0x00\n        /* \"#utility.yul\":33417:33423   */\n      dup3\n        /* \"#utility.yul\":33413:33427   */\n      add\n        /* \"#utility.yul\":33406:33457   */\n      mstore\n        /* \"#utility.yul\":33289:33464   */\n      pop\n      jump\t// out\n        /* \"#utility.yul\":33470:33836   */\n    tag_391:\n        /* \"#utility.yul\":33612:33615   */\n      0x00\n        /* \"#utility.yul\":33633:33700   */\n      tag_704\n        /* \"#utility.yul\":33697:33699   */\n      0x19\n        /* \"#utility.yul\":33692:33695   */\n      dup4\n        /* \"#utility.yul\":33633:33700   */\n      tag_366\n      jump\t// in\n    tag_704:\n        /* \"#utility.yul\":33626:33700   */\n      swap2\n      pop\n        /* \"#utility.yul\":33709:33802   */\n      tag_705\n        /* \"#utility.yul\":33798:33801   */\n      dup3\n        /* \"#utility.yul\":33709:33802   */\n      tag_390\n      jump\t// in\n    tag_705:\n        /* \"#utility.yul\":33827:33829   */\n      0x20\n        /* \"#utility.yul\":33822:33825   */\n      dup3\n        /* \"#utility.yul\":33818:33830   */\n      add\n        /* \"#utility.yul\":33811:33830   */\n      swap1\n      pop\n        /* \"#utility.yul\":33470:33836   */\n      swap2\n      swap1\n      pop\n      jump\t// out\n        /* \"#utility.yul\":33842:34261   */\n    tag_242:\n        /* \"#utility.yul\":34008:34012   */\n      0x00\n        /* \"#utility.yul\":34046:34048   */\n      0x20\n        /* \"#utility.yul\":34035:34044   */\n      dup3\n        /* \"#utility.yul\":34031:34049   */\n      add\n        /* \"#utility.yul\":34023:34049   */\n      swap1\n      pop\n        /* \"#utility.yul\":34095:34104   */\n      dup2\n        /* \"#utility.yul\":34089:34093   */\n      dup2\n        /* \"#utility.yul\":34085:34105   */\n      sub\n        /* \"#utility.yul\":34081:34082   */\n      0x00\n        /* \"#utility.yul\":34070:34079   */\n      dup4\n        /* \"#utility.yul\":34066:34083   */\n      add\n        /* \"#utility.yul\":34059:34106   */\n      mstore\n        /* \"#utility.yul\":34123:34254   */\n      tag_707\n        /* \"#utility.yul\":34249:34253   */\n      dup2\n        /* \"#utility.yul\":34123:34254   */\n      tag_391\n      jump\t// in\n    tag_707:\n        /* \"#utility.yul\":34115:34254   */\n      swap1\n      pop\n        /* \"#utility.yul\":33842:34261   */\n      swap2\n      swap1\n      pop\n      jump\t// out\n        /* \"#utility.yul\":34267:34709   */\n    tag_245:\n        /* \"#utility.yul\":34416:34420   */\n      0x00\n        /* \"#utility.yul\":34454:34456   */\n      0x60\n        /* \"#utility.yul\":34443:34452   */\n      dup3\n        /* \"#utility.yul\":34439:34457   */\n      add\n        /* \"#utility.yul\":34431:34457   */\n      swap1\n      pop\n        /* \"#utility.yul\":34467:34538   */\n      tag_709\n        /* \"#utility.yul\":34535:34536   */\n      0x00\n        /* \"#utility.yul\":34524:34533   */\n      dup4\n        /* \"#utility.yul\":34520:34537   */\n      add\n        /* \"#utility.yul\":34511:34517   */\n      dup7\n        /* \"#utility.yul\":34467:34538   */\n      tag_363\n      jump\t// in\n    tag_709:\n        /* \"#utility.yul\":34548:34620   */\n      tag_710\n        /* \"#utility.yul\":34616:34618   */\n      0x20\n        /* \"#utility.yul\":34605:34614   */\n      dup4\n        /* \"#utility.yul\":34601:34619   */\n      add\n        /* \"#utility.yul\":34592:34598   */\n      dup6\n        /* \"#utility.yul\":34548:34620   */\n      tag_363\n      jump\t// in\n    tag_710:\n        /* \"#utility.yul\":34630:34702   */\n      tag_711\n        /* \"#utility.yul\":34698:34700   */\n      0x40\n        /* \"#utility.yul\":34687:34696   */\n      dup4\n        /* \"#utility.yul\":34683:34701   */\n      add\n        /* \"#utility.yul\":34674:34680   */\n      dup5\n        /* \"#utility.yul\":34630:34702   */\n      tag_343\n      jump\t// in\n    tag_711:\n        /* \"#utility.yul\":34267:34709   */\n      swap5\n      swap4\n      pop\n      pop\n      pop\n      pop\n      jump\t// out\n        /* \"#utility.yul\":34715:34885   */\n    tag_392:\n        /* \"#utility.yul\":34855:34877   */\n      0x496e76616c69642062616e6b2061646472657373000000000000000000000000\n        /* \"#utility.yul\":34851:34852   */\n      0x00\n        /* \"#utility.yul\":34843:34849   */\n      dup3\n        /* \"#utility.yul\":34839:34853   */\n      add\n        /* \"#utility.yul\":34832:34878   */\n      mstore\n        /* \"#utility.yul\":34715:34885   */\n      pop\n      jump\t// out\n        /* \"#utility.yul\":34891:35257   */\n    tag_393:\n        /* \"#utility.yul\":35033:35036   */\n      0x00\n        /* \"#utility.yul\":35054:35121   */\n      tag_714\n        /* \"#utility.yul\":35118:35120   */\n      0x14\n        /* \"#utility.yul\":35113:35116   */\n      dup4\n        /* \"#utility.yul\":35054:35121   */\n      tag_366\n      jump\t// in\n    tag_714:\n        /* \"#utility.yul\":35047:35121   */\n      swap2\n      pop\n        /* \"#utility.yul\":35130:35223   */\n      tag_715\n        /* \"#utility.yul\":35219:35222   */\n      dup3\n        /* \"#utility.yul\":35130:35223   */\n      tag_392\n      jump\t// in\n    tag_715:\n        /* \"#utility.yul\":35248:35250   */\n      0x20\n        /* \"#utility.yul\":35243:35246   */\n      dup3\n        /* \"#utility.yul\":35239:35251   */\n      add\n        /* \"#utility.yul\":35232:35251   */\n      swap1\n      pop\n        /* \"#utility.yul\":34891:35257   */\n      swap2\n      swap1\n      pop\n      jump\t// out\n        /* \"#utility.yul\":35263:35682   */\n    tag_268:\n        /* \"#utility.yul\":35429:35433   */\n      0x00\n        /* \"#utility.yul\":35467:35469   */\n      0x20\n        /* \"#utility.yul\":35456:35465   */\n      dup3\n        /* \"#utility.yul\":35452:35470   */\n      add\n        /* \"#utility.yul\":35444:35470   */\n      swap1\n      pop\n        /* \"#utility.yul\":35516:35525   */\n      dup2\n        /* \"#utility.yul\":35510:35514   */\n      dup2\n        /* \"#utility.yul\":35506:35526   */\n      sub\n        /* \"#utility.yul\":35502:35503   */\n      0x00\n        /* \"#utility.yul\":35491:35500   */\n      dup4\n        /* \"#utility.yul\":35487:35504   */\n      add\n        /* \"#utility.yul\":35480:35527   */\n      mstore\n        /* \"#utility.yul\":35544:35675   */\n      tag_717\n        /* \"#utility.yul\":35670:35674   */\n      dup2\n        /* \"#utility.yul\":35544:35675   */\n      tag_393\n      jump\t// in\n    tag_717:\n        /* \"#utility.yul\":35536:35675   */\n      swap1\n      pop\n        /* \"#utility.yul\":35263:35682   */\n      swap2\n      swap1\n      pop\n      jump\t// out\n        /* \"#utility.yul\":35688:35854   */\n    tag_394:\n        /* \"#utility.yul\":35828:35846   */\n      0x496e76616c6964204b5943206861736800000000000000000000000000000000\n        /* \"#utility.yul\":35824:35825   */\n      0x00\n        /* \"#utility.yul\":35816:35822   */\n      dup3\n        /* \"#utility.yul\":35812:35826   */\n      add\n        /* \"#utility.yul\":35805:35847   */\n      mstore\n        /* \"#utility.yul\":35688:35854   */\n      pop\n      jump\t// out\n        /* \"#utility.yul\":35860:36226   */\n    tag_395:\n        /* \"#utility.yul\":36002:36005   */\n      0x00\n        /* \"#utility.yul\":36023:36090   */\n      tag_720\n        /* \"#utility.yul\":36087:36089   */\n      0x10\n        /* \"#utility.yul\":36082:36085   */\n      dup4\n        /* \"#utility.yul\":36023:36090   */\n      tag_366\n      jump\t// in\n    tag_720:\n        /* \"#utility.yul\":36016:36090   */\n      swap2\n      pop\n        /* \"#utility.yul\":36099:36192   */\n      tag_721\n        /* \"#utility.yul\":36188:36191   */\n      dup3\n        /* \"#utility.yul\":36099:36192   */\n      tag_394\n      jump\t// in\n    tag_721:\n        /* \"#utility.yul\":36217:36219   */\n      0x20\n        /* \"#utility.yul\":36212:36215   */\n      dup3\n        /* \"#utility.yul\":36208:36220   */\n      add\n        /* \"#utility.yul\":36201:36220   */\n      swap1\n      pop\n        /* \"#utility.yul\":35860:36226   */\n      swap2\n      swap1\n      pop\n      jump\t// out\n        /* \"#utility.yul\":36232:36651   */\n    tag_279:\n        /* \"#utility.yul\":36398:36402   */\n      0x00\n        /* \"#utility.yul\":36436:36438   */\n      0x20\n        /* \"#utility.yul\":36425:36434   */\n      dup3\n        /* \"#utility.yul\":36421:36439   */\n      add\n        /* \"#utility.yul\":36413:36439   */\n      swap1\n      pop\n        /* \"#utility.yul\":36485:36494   */\n      dup2\n        /* \"#utility.yul\":36479:36483   */\n      dup2\n        /* \"#utility.yul\":36475:36495   */\n      sub\n        /* \"#utility.yul\":36471:36472   */\n      0x00\n        /* \"#utility.yul\":36460:36469   */\n      dup4\n        /* \"#utility.yul\":36456:36473   */\n      add\n        /* \"#utility.yul\":36449:36496   */\n      mstore\n        /* \"#utility.yul\":36513:36644   */\n      tag_723\n        /* \"#utility.yul\":36639:36643   */\n      dup2\n        /* \"#utility.yul\":36513:36644   */\n      tag_395\n      jump\t// in\n    tag_723:\n        /* \"#utility.yul\":36505:36644   */\n      swap1\n      pop\n        /* \"#utility.yul\":36232:36651   */\n      swap2\n      swap1\n      pop\n      jump\t// out\n        /* \"#utility.yul\":36657:36830   */\n    tag_396:\n        /* \"#utility.yul\":36797:36822   */\n      0x496e76616c69642076616c696469747920706572696f64000000000000000000\n        /* \"#utility.yul\":36793:36794   */\n      0x00\n        /* \"#utility.yul\":36785:36791   */\n      dup3\n        /* \"#utility.yul\":36781:36795   */\n      add\n        /* \"#utility.yul\":36774:36823   */\n      mstore\n        /* \"#utility.yul\":36657:36830   */\n      pop\n      jump\t// out\n        /* \"#utility.yul\":36836:37202   */\n    tag_397:\n        /* \"#utility.yul\":36978:36981   */\n      0x00\n        /* \"#utility.yul\":36999:37066   */\n      tag_726\n        /* \"#utility.yul\":37063:37065   */\n      0x17\n        /* \"#utility.yul\":37058:37061   */\n      dup4\n        /* \"#utility.yul\":36999:37066   */\n      tag_366\n      jump\t// in\n    tag_726:\n        /* \"#utility.yul\":36992:37066   */\n      swap2\n      pop\n        /* \"#utility.yul\":37075:37168   */\n      tag_727\n        /* \"#utility.yul\":37164:37167   */\n      dup3\n        /* \"#utility.yul\":37075:37168   */\n      tag_396\n      jump\t// in\n    tag_727:\n        /* \"#utility.yul\":37193:37195   */\n      0x20\n        /* \"#utility.yul\":37188:37191   */\n      dup3\n        /* \"#utility.yul\":37184:37196   */\n      add\n        /* \"#utility.yul\":37177:37196   */\n      swap1\n      pop\n        /* \"#utility.yul\":36836:37202   */\n      swap2\n      swap1\n      pop\n      jump\t// out\n        /* \"#utility.yul\":37208:37627   */\n    tag_283:\n        /* \"#utility.yul\":37374:37378   */\n      0x00\n        /* \"#utility.yul\":37412:37414   */\n      0x20\n        /* \"#utility.yul\":37401:37410   */\n      dup3\n        /* \"#utility.yul\":37397:37415   */\n      add\n        /* \"#utility.yul\":37389:37415   */\n      swap1\n      pop\n        /* \"#utility.yul\":37461:37470   */\n      dup2\n        /* \"#utility.yul\":37455:37459   */\n      dup2\n        /* \"#utility.yul\":37451:37471   */\n      sub\n        /* \"#utility.yul\":37447:37448   */\n      0x00\n        /* \"#utility.yul\":37436:37445   */\n      dup4\n        /* \"#utility.yul\":37432:37449   */\n      add\n        /* \"#utility.yul\":37425:37472   */\n      mstore\n        /* \"#utility.yul\":37489:37620   */\n      tag_729\n        /* \"#utility.yul\":37615:37619   */\n      dup2\n        /* \"#utility.yul\":37489:37620   */\n      tag_397\n      jump\t// in\n    tag_729:\n        /* \"#utility.yul\":37481:37620   */\n      swap1\n      pop\n        /* \"#utility.yul\":37208:37627   */\n      swap2\n      swap1\n      pop\n      jump\t// out\n        /* \"#utility.yul\":37633:37981   */\n    tag_285:\n        /* \"#utility.yul\":37673:37680   */\n      0x00\n        /* \"#utility.yul\":37696:37716   */\n      tag_731\n        /* \"#utility.yul\":37714:37715   */\n      dup3\n        /* \"#utility.yul\":37696:37716   */\n      tag_342\n      jump\t// in\n    tag_731:\n        /* \"#utility.yul\":37691:37716   */\n      swap2\n      pop\n        /* \"#utility.yul\":37730:37750   */\n      tag_732\n        /* \"#utility.yul\":37748:37749   */\n      dup4\n        /* \"#utility.yul\":37730:37750   */\n      tag_342\n      jump\t// in\n    tag_732:\n        /* \"#utility.yul\":37725:37750   */\n      swap3\n      pop\n        /* \"#utility.yul\":37918:37919   */\n      dup2\n        /* \"#utility.yul\":37850:37916   */\n      0xffffffffffffffffffffffffffffffffffffffffffffffffffffffffffffffff\n        /* \"#utility.yul\":37846:37920   */\n      div\n        /* \"#utility.yul\":37843:37844   */\n      dup4\n        /* \"#utility.yul\":37840:37921   */\n      gt\n        /* \"#utility.yul\":37835:37836   */\n      dup3\n        /* \"#utility.yul\":37828:37837   */\n      iszero\n        /* \"#utility.yul\":37821:37838   */\n      iszero\n        /* \"#utility.yul\":37817:37922   */\n      and\n        /* \"#utility.yul\":37814:37945   */\n      iszero\n      tag_733\n      jumpi\n        /* \"#utility.yul\":37925:37943   */\n      tag_734\n      tag_376\n      jump\t// in\n    tag_734:\n        /* \"#utility.yul\":37814:37945   */\n    tag_733:\n        /* \"#utility.yul\":37973:37974   */\n      dup3\n        /* \"#utility.yul\":37970:37971   */\n      dup3\n        /* \"#utility.yul\":37966:37975   */\n      mul\n        /* \"#utility.yul\":37955:37975   */\n      swap1\n      pop\n        /* \"#utility.yul\":37633:37981   */\n      swap3\n      swap2\n      pop\n      pop\n      jump\t// out\n        /* \"#utility.yul\":37987:38154   */\n    tag_398:\n        /* \"#utility.yul\":38127:38146   */\n      0x496e76616c6964206e6577206f776e6572000000000000000000000000000000\n        /* \"#utility.yul\":38123:38124   */\n      0x00\n        /* \"#utility.yul\":38115:38121   */\n      dup3\n        /* \"#utility.yul\":38111:38125   */\n      add\n        /* \"#utility.yul\":38104:38147   */\n      mstore\n        /* \"#utility.yul\":37987:38154   */\n      pop\n      jump\t// out\n        /* \"#utility.yul\":38160:38526   */\n    tag_399:\n        /* \"#utility.yul\":38302:38305   */\n      0x00\n        /* \"#utility.yul\":38323:38390   */\n      tag_737\n        /* \"#utility.yul\":38387:38389   */\n      0x11\n        /* \"#utility.yul\":38382:38385   */\n      dup4\n        /* \"#utility.yul\":38323:38390   */\n      tag_366\n      jump\t// in\n    tag_737:\n        /* \"#utility.yul\":38316:38390   */\n      swap2\n      pop\n        /* \"#utility.yul\":38399:38492   */\n      tag_738\n        /* \"#utility.yul\":38488:38491   */\n      dup3\n        /* \"#utility.yul\":38399:38492   */\n      tag_398\n      jump\t// in\n    tag_738:\n        /* \"#utility.yul\":38517:38519   */\n      0x20\n        /* \"#utility.yul\":38512:38515   */\n      dup3\n        /* \"#utility.yul\":38508:38520   */\n      add\n        /* \"#utility.yul\":38501:38520   */\n      swap1\n      pop\n        /* \"#utility.yul\":38160:38526   */\n      swap2\n      swap1\n      pop\n      jump\t// out\n        /* \"#utility.yul\":38532:38951   */\n    tag_294:\n        /* \"#utility.yul\":38698:38702   */\n      0x00\n        /* \"#utility.yul\":38736:38738   */\n      0x20\n        /* \"#utility.yul\":38725:38734   */\n      dup3\n        /* \"#utility.yul\":38721:38739   */\n      add\n        /* \"#utility.yul\":38713:38739   */\n      swap1\n      pop\n        /* \"#utility.yul\":38785:38794   */\n      dup2\n        /* \"#utility.yul\":38779:38783   */\n      dup2\n        /* \"#utility.yul\":38775:38795   */\n      sub\n        /* \"#utility.yul\":38771:38772   */\n      0x00\n        /* \"#utility.yul\":38760:38769   */\n      dup4\n        /* \"#utility.yul\":38756:38773   */\n      add\n        /* \"#utility.yul\":38749:38796   */\n      mstore\n        /* \"#utility.yul\":38813:38944   */\n      tag_740\n        /* \"#utility.yul\":38939:38943   */\n      dup2\n        /* \"#utility.yul\":38813:38944   */\n      tag_399\n      jump\t// in\n    tag_740:\n        /* \"#utility.yul\":38805:38944   */\n      swap1\n      pop\n        /* \"#utility.yul\":38532:38951   */\n      swap2\n      swap1\n      pop\n      jump\t// out\n        /* \"#utility.yul\":38957:39120   */\n    tag_400:\n        /* \"#utility.yul\":39097:39112   */\n      0x4b5943206e6f742076616c696400000000000000000000000000000000000000\n        /* \"#utility.yul\":39093:39094   */\n      0x00\n        /* \"#utility.yul\":39085:39091   */\n      dup3\n        /* \"#utility.yul\":39081:39095   */\n      add\n        /* \"#utility.yul\":39074:39113   */\n      mstore\n        /* \"#utility.yul\":38957:39120   */\n      pop\n      jump\t// out\n        /* \"#utility.yul\":39126:39492   */\n    tag_401:\n        /* \"#utility.yul\":39268:39271   */\n      0x00\n        /* \"#utility.yul\":39289:39356   */\n      tag_743\n        /* \"#utility.yul\":39353:39355   */\n      0x0d\n        /* \"#utility.yul\":39348:39351   */\n      dup4\n        /* \"#utility.yul\":39289:39356   */\n      tag_366\n      jump\t// in\n    tag_743:\n        /* \"#utility.yul\":39282:39356   */\n      swap2\n      pop\n        /* \"#utility.yul\":39365:39458   */\n      tag_744\n        /* \"#utility.yul\":39454:39457   */\n      dup3\n        /* \"#utility.yul\":39365:39458   */\n      tag_400\n      jump\t// in\n    tag_744:\n        /* \"#utility.yul\":39483:39485   */\n      0x20\n        /* \"#utility.yul\":39478:39481   */\n      dup3\n        /* \"#utility.yul\":39474:39486   */\n      add\n        /* \"#utility.yul\":39467:39486   */\n      swap1\n      pop\n        /* \"#utility.yul\":39126:39492   */\n      swap2\n      swap1\n      pop\n      jump\t// out\n        /* \"#utility.yul\":39498:39917   */\n    tag_306:\n        /* \"#utility.yul\":39664:39668   */\n      0x00\n        /* \"#utility.yul\":39702:39704   */\n      0x20\n        /* \"#utility.yul\":39691:39700   */\n      dup3\n        /* \"#utility.yul\":39687:39705   */\n      add\n        /* \"#utility.yul\":39679:39705   */\n      swap1\n      pop\n        /* \"#utility.yul\":39751:39760   */\n      dup2\n        /* \"#utility.yul\":39745:39749   */\n      dup2\n        /* \"#utility.yul\":39741:39761   */\n      sub\n        /* \"#utility.yul\":39737:39738   */\n      0x00\n        /* \"#utility.yul\":39726:39735   */\n      dup4\n        /* \"#utility.yul\":39722:39739   */\n      add\n        /* \"#utility.yul\":39715:39762   */\n      mstore\n        /* \"#utility.yul\":39779:39910   */\n      tag_746\n        /* \"#utility.yul\":39905:39909   */\n      dup2\n        /* \"#utility.yul\":39779:39910   */\n      tag_401\n      jump\t// in\n    tag_746:\n        /* \"#utility.yul\":39771:39910   */\n      swap1\n      pop\n        /* \"#utility.yul\":39498:39917   */\n      swap2\n      swap1\n      pop\n      jump\t// out\n        /* \"#utility.yul\":39923:40341   */\n    tag_308:\n        /* \"#utility.yul\":40060:40064   */\n      0x00\n        /* \"#utility.yul\":40098:40100   */\n      0x60\n        /* \"#utility.yul\":40087:40096   */\n      dup3\n        /* \"#utility.yul\":40083:40101   */\n      add\n        /* \"#utility.yul\":40075:40101   */\n      swap1\n      pop\n        /* \"#utility.yul\":40111:40176   */\n      tag_748\n        /* \"#utility.yul\":40173:40174   */\n      0x00\n        /* \"#utility.yul\":40162:40171   */\n      dup4\n        /* \"#utility.yul\":40158:40175   */\n      add\n        /* \"#utility.yul\":40149:40155   */\n      dup7\n        /* \"#utility.yul\":40111:40176   */\n      tag_341\n      jump\t// in\n    tag_748:\n        /* \"#utility.yul\":40186:40252   */\n      tag_749\n        /* \"#utility.yul\":40248:40250   */\n      0x20\n        /* \"#utility.yul\":40237:40246   */\n      dup4\n        /* \"#utility.yul\":40233:40251   */\n      add\n        /* \"#utility.yul\":40224:40230   */\n      dup6\n        /* \"#utility.yul\":40186:40252   */\n      tag_341\n      jump\t// in\n    tag_749:\n        /* \"#utility.yul\":40262:40334   */\n      tag_750\n        /* \"#utility.yul\":40330:40332   */\n      0x40\n        /* \"#utility.yul\":40319:40328   */\n      dup4\n        /* \"#utility.yul\":40315:40333   */\n      add\n        /* \"#utility.yul\":40306:40312   */\n      dup5\n        /* \"#utility.yul\":40262:40334   */\n      tag_343\n      jump\t// in\n    tag_750:\n        /* \"#utility.yul\":39923:40341   */\n      swap5\n      swap4\n      pop\n      pop\n      pop\n      pop\n      jump\t// out\n\n    auxdata: 0xa2646970667358221220accc4d2910c8c3aafbf7832cc8038d4a42cd58da3df16ab6c9f0fc40269c651964736f6c634300080a0033\n}\n",
    "bytecode": {
      "linkReferences": {},
      "object": "608060405234801561001057600080fd5b5033600560006101000a81548173ffffffffffffffffffffffffffffffffffffffff021916908373ffffffffffffffffffffffffffffffffffffffff160217905550613d69806100616000396000f3fe608060405234801561001057600080fd5b50600436106101585760003560e01c806376031448116100c3578063cf0e0f9d1161007c578063cf0e0f9d14610420578063cfe5e1bb14610450578063d1f33aa414610480578063e7c537641461049c578063f2fde38b146104b8578063f8505f7b146104d457610158565b8063760314481461031b5780637eb606e81461034b5780638da5cb5b1461037f578063a29698201461039d578063a87430ba146103cd578063bff1f9e11461040257610158565b806353f6ad371161011557806353f6ad37146102455780635b1eab6c146102655780636386c1c714610281578063648b8765146102b357806373ac83ef146102e357806374e66d10146102ff57610158565b80630a38178c1461015d57806311231fe0146101795780631a47767b146101a957806320dd0213146101c557806339ba645b146101f55780633a13e1af14610211575b600080fd5b61017760048036038101906101729190612a9e565b6104f0565b005b610193600480360381019061018e9190612b45565b61097d565b6040516101a09190612bfa565b60405180910390f35b6101c360048036038101906101be9190612b45565b610ae0565b005b6101df60048036038101906101da9190612c1c565b610d13565b6040516101ec9190612cc2565b60405180910390f35b61020f600480360381019061020a9190612b45565b610e3d565b005b61022b60048036038101906102269190612b45565b6110fb565b60405161023c959493929190612cf6565b60405180910390f35b61024d61114b565b60405161025c93929190612d49565b60405180910390f35b61027f600480360381019061027a9190612e48565b611162565b005b61029b60048036038101906102969190612b45565b6112f0565b6040516102aa9392919061307a565b60405180910390f35b6102cd60048036038101906102c891906130e5565b61168f565b6040516102da9190613121565b60405180910390f35b6102fd60048036038101906102f89190613168565b6116cc565b005b61031960048036038101906103149190612a9e565b6117f5565b005b61033560048036038101906103309190613168565b611b13565b6040516103429190612cc2565b60405180910390f35b61036560048036038101906103609190612b45565b611c8e565b6040516103769594939291906131b7565b60405180910390f35b610387611cf1565b6040516103949190613121565b60405180910390f35b6103b760048036038101906103b29190612b45565b611d17565b6040516103c49190612cc2565b60405180910390f35b6103e760048036038101906103e29190612b45565b611d37565b6040516103f99695949392919061320a565b60405180910390f35b61040a611e28565b6040516104179190613272565b60405180910390f35b61043a60048036038101906104359190612b45565b611e2e565b6040516104479190612cc2565b60405180910390f35b61046a600480360381019061046591906130e5565b611f28565b6040516104779190613121565b60405180910390f35b61049a600480360381019061049591906132b9565b611f5b565b005b6104b660048036038101906104b191906132f9565b612104565b005b6104d260048036038101906104cd9190612b45565b612447565b005b6104ee60048036038101906104e9919061334c565b61258b565b005b336000808273ffffffffffffffffffffffffffffffffffffffff1673ffffffffffffffffffffffffffffffffffffffff16815260200190815260200160002060030160009054906101000a900460ff1615610580576040517f08c379a000000000000000000000000000000000000000000000000000000000815260040161057790613410565b60405180910390fd5b60008251116105c4576040517f08c379a00000000000000000000000000000000000000000000000000000000081526004016105bb9061347c565b60405180910390fd5b610bb88251111561060a576040517f08c379a0000000000000000000000000000000000000000000000000000000008152600401610601906134e8565b60405180910390fd5b600082805190602001209050600073ffffffffffffffffffffffffffffffffffffffff166003600083815260200190815260200160002060009054906101000a900473ffffffffffffffffffffffffffffffffffffffff1673ffffffffffffffffffffffffffffffffffffffff16146106b8576040517f08c379a00000000000000000000000000000000000000000000000000000000081526004016106af90613554565b60405180910390fd5b6040518060c001604052803373ffffffffffffffffffffffffffffffffffffffff168152602001848152602001828152602001600115158152602001428152602001428152506000803373ffffffffffffffffffffffffffffffffffffffff1673ffffffffffffffffffffffffffffffffffffffff16815260200190815260200160002060008201518160000160006101000a81548173ffffffffffffffffffffffffffffffffffffffff021916908373ffffffffffffffffffffffffffffffffffffffff160217905550602082015181600101908051906020019061079f9291906127d3565b506040820151816002015560608201518160030160006101000a81548160ff0219169083151502179055506080820151816004015560a08201518160050155905050336003600083815260200190815260200160002060006101000a81548173ffffffffffffffffffffffffffffffffffffffff021916908373ffffffffffffffffffffffffffffffffffffffff1602179055506040518060a001604052806000151581526020016001151581526020016000815260200160008152602001620151804261086d91906135d2565b815250600260003373ffffffffffffffffffffffffffffffffffffffff1673ffffffffffffffffffffffffffffffffffffffff16815260200190815260200160002060008201518160000160006101000a81548160ff02191690831515021790555060208201518160000160016101000a81548160ff0219169083151502179055506040820151816001015560608201518160020155608082015181600301559050506006600081548092919061092390613603565b91905055503373ffffffffffffffffffffffffffffffffffffffff167fe932b8f225535323212b28055402c985d3c06bca70a0c4aaa52ee2bf155dc2ac824260405161097092919061364c565b60405180910390a2505050565b6060816000808273ffffffffffffffffffffffffffffffffffffffff1673ffffffffffffffffffffffffffffffffffffffff16815260200190815260200160002060030160009054906101000a900460ff16610a0e576040517f08c379a0000000000000000000000000000000000000000000000000000000008152600401610a05906136c1565b60405180910390fd5b6000808473ffffffffffffffffffffffffffffffffffffffff1673ffffffffffffffffffffffffffffffffffffffff1681526020019081526020016000206001018054610a5a90613710565b80601f0160208091040260200160405190810160405280929190818152602001828054610a8690613710565b8015610ad35780601f10610aa857610100808354040283529160200191610ad3565b820191906000526020600020905b815481529060010190602001808311610ab657829003601f168201915b5050505050915050919050565b600560009054906101000a900473ffffffffffffffffffffffffffffffffffffffff1673ffffffffffffffffffffffffffffffffffffffff163373ffffffffffffffffffffffffffffffffffffffff1614610b70576040517f08c379a0000000000000000000000000000000000000000000000000000000008152600401610b679061378e565b60405180910390fd5b806000808273ffffffffffffffffffffffffffffffffffffffff1673ffffffffffffffffffffffffffffffffffffffff16815260200190815260200160002060030160009054906101000a900460ff16610bff576040517f08c379a0000000000000000000000000000000000000000000000000000000008152600401610bf6906136c1565b60405180910390fd5b60008060008473ffffffffffffffffffffffffffffffffffffffff1673ffffffffffffffffffffffffffffffffffffffff16815260200190815260200160002060030160006101000a81548160ff0219169083151502179055506000600260008473ffffffffffffffffffffffffffffffffffffffff1673ffffffffffffffffffffffffffffffffffffffff16815260200190815260200160002060000160006101000a81548160ff0219169083151502179055506000600260008473ffffffffffffffffffffffffffffffffffffffff1673ffffffffffffffffffffffffffffffffffffffff16815260200190815260200160002060000160016101000a81548160ff0219169083151502179055505050565b6000836000808273ffffffffffffffffffffffffffffffffffffffff1673ffffffffffffffffffffffffffffffffffffffff16815260200190815260200160002060030160009054906101000a900460ff16610da4576040517f08c379a0000000000000000000000000000000000000000000000000000000008152600401610d9b906136c1565b60405180910390fd5b6000845111610de8576040517f08c379a0000000000000000000000000000000000000000000000000000000008152600401610ddf906137fa565b60405180910390fd5b6000835111610e2c576040517f08c379a0000000000000000000000000000000000000000000000000000000008152600401610e2390613866565b60405180910390fd5b610974835110159150509392505050565b600460003373ffffffffffffffffffffffffffffffffffffffff1673ffffffffffffffffffffffffffffffffffffffff16815260200190815260200160002060009054906101000a900460ff16610ec9576040517f08c379a0000000000000000000000000000000000000000000000000000000008152600401610ec0906138d2565b60405180910390fd5b806000808273ffffffffffffffffffffffffffffffffffffffff1673ffffffffffffffffffffffffffffffffffffffff16815260200190815260200160002060030160009054906101000a900460ff16610f58576040517f08c379a0000000000000000000000000000000000000000000000000000000008152600401610f4f906136c1565b60405180910390fd5b600160008373ffffffffffffffffffffffffffffffffffffffff1673ffffffffffffffffffffffffffffffffffffffff16815260200190815260200160002060000160009054906101000a900460ff16610fe7576040517f08c379a0000000000000000000000000000000000000000000000000000000008152600401610fde9061393e565b60405180910390fd5b6000600160008473ffffffffffffffffffffffffffffffffffffffff1673ffffffffffffffffffffffffffffffffffffffff16815260200190815260200160002060000160006101000a81548160ff0219169083151502179055506000600260008473ffffffffffffffffffffffffffffffffffffffff1673ffffffffffffffffffffffffffffffffffffffff16815260200190815260200160002060000160006101000a81548160ff0219169083151502179055503373ffffffffffffffffffffffffffffffffffffffff168273ffffffffffffffffffffffffffffffffffffffff167f78bb145ee492fe6a233227a728eed873e98371bcf51d46ce3a6827a30018355260405160405180910390a35050565b60026020528060005260406000206000915090508060000160009054906101000a900460ff16908060000160019054906101000a900460ff16908060010154908060020154908060030154905085565b600080600060065492506000915060009050909192565b600560009054906101000a900473ffffffffffffffffffffffffffffffffffffffff1673ffffffffffffffffffffffffffffffffffffffff163373ffffffffffffffffffffffffffffffffffffffff16146111f2576040517f08c379a00000000000000000000000000000000000000000000000000000000081526004016111e99061378e565b60405180910390fd5b60005b81518110156112ec576001600460008484815181106112175761121661395e565b5b602002602001015173ffffffffffffffffffffffffffffffffffffffff1673ffffffffffffffffffffffffffffffffffffffff16815260200190815260200160002060006101000a81548160ff0219169083151502179055508181815181106112835761128261395e565b5b602002602001015173ffffffffffffffffffffffffffffffffffffffff167f8e3f06f96eeafbda3e9da0de573d78b3aeb414abbda7cc39f04dcb9e9ee926b460016040516112d19190612cc2565b60405180910390a280806112e490613603565b9150506111f5565b5050565b6112f8612859565b6113006128aa565b6113086128f4565b836000808273ffffffffffffffffffffffffffffffffffffffff1673ffffffffffffffffffffffffffffffffffffffff16815260200190815260200160002060030160009054906101000a900460ff16611397576040517f08c379a000000000000000000000000000000000000000000000000000000000815260040161138e906136c1565b60405180910390fd5b6000808673ffffffffffffffffffffffffffffffffffffffff1673ffffffffffffffffffffffffffffffffffffffff168152602001908152602001600020600160008773ffffffffffffffffffffffffffffffffffffffff1673ffffffffffffffffffffffffffffffffffffffff168152602001908152602001600020600260008873ffffffffffffffffffffffffffffffffffffffff1673ffffffffffffffffffffffffffffffffffffffff168152602001908152602001600020826040518060c00160405290816000820160009054906101000a900473ffffffffffffffffffffffffffffffffffffffff1673ffffffffffffffffffffffffffffffffffffffff1673ffffffffffffffffffffffffffffffffffffffff1681526020016001820180546114c590613710565b80601f01602080910402602001604051908101604052809291908181526020018280546114f190613710565b801561153e5780601f106115135761010080835404028352916020019161153e565b820191906000526020600020905b81548152906001019060200180831161152157829003601f168201915b50505050508152602001600282015481526020016003820160009054906101000a900460ff16151515158152602001600482015481526020016005820154815250509250816040518060a00160405290816000820160009054906101000a900460ff161515151581526020016001820154815260200160028201548152602001600382015481526020016004820160009054906101000a900473ffffffffffffffffffffffffffffffffffffffff1673ffffffffffffffffffffffffffffffffffffffff1673ffffffffffffffffffffffffffffffffffffffff16815250509150806040518060a00160405290816000820160009054906101000a900460ff161515151581526020016000820160019054906101000a900460ff1615151515815260200160018201548152602001600282015481526020016003820154815250509050935093509350509193909250565b60006003600083815260200190815260200160002060009054906101000a900473ffffffffffffffffffffffffffffffffffffffff169050919050565b6000808373ffffffffffffffffffffffffffffffffffffffff1673ffffffffffffffffffffffffffffffffffffffff16815260200190815260200160002060030160009054906101000a900460ff1661175a576040517f08c379a0000000000000000000000000000000000000000000000000000000008152600401611751906136c1565b60405180910390fd5b6000600260008473ffffffffffffffffffffffffffffffffffffffff1673ffffffffffffffffffffffffffffffffffffffff1681526020019081526020016000209050600062015180426117ae91906135d2565b905081600301548111156117d3578282600201819055508082600301819055506117ef565b828260020160008282546117e7919061398d565b925050819055505b50505050565b336000808273ffffffffffffffffffffffffffffffffffffffff1673ffffffffffffffffffffffffffffffffffffffff16815260200190815260200160002060030160009054906101000a900460ff16611884576040517f08c379a000000000000000000000000000000000000000000000000000000000815260040161187b906136c1565b60405180910390fd5b60008251116118c8576040517f08c379a00000000000000000000000000000000000000000000000000000000081526004016118bf9061347c565b60405180910390fd5b610bb88251111561190e576040517f08c379a0000000000000000000000000000000000000000000000000000000008152600401611905906134e8565b60405180910390fd5b600082805190602001209050600073ffffffffffffffffffffffffffffffffffffffff166003600083815260200190815260200160002060009054906101000a900473ffffffffffffffffffffffffffffffffffffffff1673ffffffffffffffffffffffffffffffffffffffff16146119bc576040517f08c379a00000000000000000000000000000000000000000000000000000000081526004016119b390613a2f565b60405180910390fd5b60008060003373ffffffffffffffffffffffffffffffffffffffff1673ffffffffffffffffffffffffffffffffffffffff16815260200190815260200160002090506000816002015490506003600082815260200190815260200160002060006101000a81549073ffffffffffffffffffffffffffffffffffffffff021916905584826001019080519060200190611a559291906127d3565b50828260020181905550428260050181905550336003600085815260200190815260200160002060006101000a81548173ffffffffffffffffffffffffffffffffffffffff021916908373ffffffffffffffffffffffffffffffffffffffff1602179055503373ffffffffffffffffffffffffffffffffffffffff167fb18eadc99da6ba0290e9f60ca54ed0471a7a7dcb6ee7373965b86c7dd7f96c66828542604051611b0493929190613a4f565b60405180910390a25050505050565b60008060008473ffffffffffffffffffffffffffffffffffffffff1673ffffffffffffffffffffffffffffffffffffffff16815260200190815260200160002060030160009054906101000a900460ff16611b715760009050611c88565b611b7a83611e2e565b611b875760009050611c88565b6000600260008573ffffffffffffffffffffffffffffffffffffffff1673ffffffffffffffffffffffffffffffffffffffff1681526020019081526020016000206040518060a00160405290816000820160009054906101000a900460ff161515151581526020016000820160019054906101000a900460ff16151515158152602001600182015481526020016002820154815260200160038201548152505090508060000151611c3c576000915050611c88565b60006201518042611c4d91906135d2565b90508160800151811115611c6c57816040015184111592505050611c88565b8160400151848360600151611c81919061398d565b1115925050505b92915050565b60016020528060005260406000206000915090508060000160009054906101000a900460ff16908060010154908060020154908060030154908060040160009054906101000a900473ffffffffffffffffffffffffffffffffffffffff16905085565b600560009054906101000a900473ffffffffffffffffffffffffffffffffffffffff1681565b60046020528060005260406000206000915054906101000a900460ff1681565b60006020528060005260406000206000915090508060000160009054906101000a900473ffffffffffffffffffffffffffffffffffffffff1690806001018054611d8090613710565b80601f0160208091040260200160405190810160405280929190818152602001828054611dac90613710565b8015611df95780601f10611dce57610100808354040283529160200191611df9565b820191906000526020600020905b815481529060010190602001808311611ddc57829003601f168201915b5050505050908060020154908060030160009054906101000a900460ff16908060040154908060050154905086565b60065481565b600080600160008473ffffffffffffffffffffffffffffffffffffffff1673ffffffffffffffffffffffffffffffffffffffff1681526020019081526020016000206040518060a00160405290816000820160009054906101000a900460ff161515151581526020016001820154815260200160028201548152602001600382015481526020016004820160009054906101000a900473ffffffffffffffffffffffffffffffffffffffff1673ffffffffffffffffffffffffffffffffffffffff1673ffffffffffffffffffffffffffffffffffffffff1681525050905080600001518015611f205750806040015142105b915050919050565b60036020528060005260406000206000915054906101000a900473ffffffffffffffffffffffffffffffffffffffff1681565b600560009054906101000a900473ffffffffffffffffffffffffffffffffffffffff1673ffffffffffffffffffffffffffffffffffffffff163373ffffffffffffffffffffffffffffffffffffffff1614611feb576040517f08c379a0000000000000000000000000000000000000000000000000000000008152600401611fe29061378e565b60405180910390fd5b600073ffffffffffffffffffffffffffffffffffffffff168273ffffffffffffffffffffffffffffffffffffffff16141561205b576040517f08c379a000000000000000000000000000000000000000000000000000000000815260040161205290613ad2565b60405180910390fd5b80600460008473ffffffffffffffffffffffffffffffffffffffff1673ffffffffffffffffffffffffffffffffffffffff16815260200190815260200160002060006101000a81548160ff0219169083151502179055508173ffffffffffffffffffffffffffffffffffffffff167f8e3f06f96eeafbda3e9da0de573d78b3aeb414abbda7cc39f04dcb9e9ee926b4826040516120f89190612cc2565b60405180910390a25050565b600460003373ffffffffffffffffffffffffffffffffffffffff1673ffffffffffffffffffffffffffffffffffffffff16815260200190815260200160002060009054906101000a900460ff16612190576040517f08c379a0000000000000000000000000000000000000000000000000000000008152600401612187906138d2565b60405180910390fd5b826000808273ffffffffffffffffffffffffffffffffffffffff1673ffffffffffffffffffffffffffffffffffffffff16815260200190815260200160002060030160009054906101000a900460ff1661221f576040517f08c379a0000000000000000000000000000000000000000000000000000000008152600401612216906136c1565b60405180910390fd5b6000801b831415612265576040517f08c379a000000000000000000000000000000000000000000000000000000000815260040161225c90613b3e565b60405180910390fd5b600082118015612277575061016d8211155b6122b6576040517f08c379a00000000000000000000000000000000000000000000000000000000081526004016122ad90613baa565b60405180910390fd5b600062015180836122c79190613bca565b426122d2919061398d565b90506040518060a001604052806001151581526020014281526020018281526020018581526020013373ffffffffffffffffffffffffffffffffffffffff16815250600160008773ffffffffffffffffffffffffffffffffffffffff1673ffffffffffffffffffffffffffffffffffffffff16815260200190815260200160002060008201518160000160006101000a81548160ff02191690831515021790555060208201518160010155604082015181600201556060820151816003015560808201518160040160006101000a81548173ffffffffffffffffffffffffffffffffffffffff021916908373ffffffffffffffffffffffffffffffffffffffff1602179055509050503373ffffffffffffffffffffffffffffffffffffffff168573ffffffffffffffffffffffffffffffffffffffff167fd8b879062b804f0a2bd0b75ba02d6dbd9999fc9971ece871c8d1aedb447c5f93836040516124389190613272565b60405180910390a35050505050565b600560009054906101000a900473ffffffffffffffffffffffffffffffffffffffff1673ffffffffffffffffffffffffffffffffffffffff163373ffffffffffffffffffffffffffffffffffffffff16146124d7576040517f08c379a00000000000000000000000000000000000000000000000000000000081526004016124ce9061378e565b60405180910390fd5b600073ffffffffffffffffffffffffffffffffffffffff168173ffffffffffffffffffffffffffffffffffffffff161415612547576040517f08c379a000000000000000000000000000000000000000000000000000000000815260040161253e90613c70565b60405180910390fd5b80600560006101000a81548173ffffffffffffffffffffffffffffffffffffffff021916908373ffffffffffffffffffffffffffffffffffffffff16021790555050565b600460003373ffffffffffffffffffffffffffffffffffffffff1673ffffffffffffffffffffffffffffffffffffffff16815260200190815260200160002060009054906101000a900460ff16612617576040517f08c379a000000000000000000000000000000000000000000000000000000000815260040161260e906138d2565b60405180910390fd5b836000808273ffffffffffffffffffffffffffffffffffffffff1673ffffffffffffffffffffffffffffffffffffffff16815260200190815260200160002060030160009054906101000a900460ff166126a6576040517f08c379a000000000000000000000000000000000000000000000000000000000815260040161269d906136c1565b60405180910390fd5b83156126f5576126b585611e2e565b6126f4576040517f08c379a00000000000000000000000000000000000000000000000000000000081526004016126eb90613cdc565b60405180910390fd5b5b6000600260008773ffffffffffffffffffffffffffffffffffffffff1673ffffffffffffffffffffffffffffffffffffffff1681526020019081526020016000209050848160000160006101000a81548160ff021916908315150217905550838160000160016101000a81548160ff0219169083151502179055508281600101819055508573ffffffffffffffffffffffffffffffffffffffff167fe09f351285582300d5adeecdd1c078eb70f18994db120594db4e76c72ca955f58686866040516127c393929190613cfc565b60405180910390a2505050505050565b8280546127df90613710565b90600052602060002090601f0160209004810192826128015760008555612848565b82601f1061281a57805160ff1916838001178555612848565b82800160010185558215612848579182015b8281111561284757825182559160200191906001019061282c565b5b5090506128559190612927565b5090565b6040518060c00160405280600073ffffffffffffffffffffffffffffffffffffffff168152602001606081526020016000801916815260200160001515815260200160008152602001600081525090565b6040518060a00160405280600015158152602001600081526020016000815260200160008019168152602001600073ffffffffffffffffffffffffffffffffffffffff1681525090565b6040518060a001604052806000151581526020016000151581526020016000815260200160008152602001600081525090565b5b80821115612940576000816000905550600101612928565b5090565b6000604051905090565b600080fd5b600080fd5b600080fd5b600080fd5b6000601f19601f8301169050919050565b7f4e487b7100000000000000000000000000000000000000000000000000000000600052604160045260246000fd5b6129ab82612962565b810181811067ffffffffffffffff821117156129ca576129c9612973565b5b80604052505050565b60006129dd612944565b90506129e982826129a2565b919050565b600067ffffffffffffffff821115612a0957612a08612973565b5b612a1282612962565b9050602081019050919050565b82818337600083830152505050565b6000612a41612a3c846129ee565b6129d3565b905082815260208101848484011115612a5d57612a5c61295d565b5b612a68848285612a1f565b509392505050565b600082601f830112612a8557612a84612958565b5b8135612a95848260208601612a2e565b91505092915050565b600060208284031215612ab457612ab361294e565b5b600082013567ffffffffffffffff811115612ad257612ad1612953565b5b612ade84828501612a70565b91505092915050565b600073ffffffffffffffffffffffffffffffffffffffff82169050919050565b6000612b1282612ae7565b9050919050565b612b2281612b07565b8114612b2d57600080fd5b50565b600081359050612b3f81612b19565b92915050565b600060208284031215612b5b57612b5a61294e565b5b6000612b6984828501612b30565b91505092915050565b600081519050919050565b600082825260208201905092915050565b60005b83811015612bac578082015181840152602081019050612b91565b83811115612bbb576000848401525b50505050565b6000612bcc82612b72565b612bd68185612b7d565b9350612be6818560208601612b8e565b612bef81612962565b840191505092915050565b60006020820190508181036000830152612c148184612bc1565b905092915050565b600080600060608486031215612c3557612c3461294e565b5b6000612c4386828701612b30565b935050602084013567ffffffffffffffff811115612c6457612c63612953565b5b612c7086828701612a70565b925050604084013567ffffffffffffffff811115612c9157612c90612953565b5b612c9d86828701612a70565b9150509250925092565b60008115159050919050565b612cbc81612ca7565b82525050565b6000602082019050612cd76000830184612cb3565b92915050565b6000819050919050565b612cf081612cdd565b82525050565b600060a082019050612d0b6000830188612cb3565b612d186020830187612cb3565b612d256040830186612ce7565b612d326060830185612ce7565b612d3f6080830184612ce7565b9695505050505050565b6000606082019050612d5e6000830186612ce7565b612d6b6020830185612ce7565b612d786040830184612ce7565b949350505050565b600067ffffffffffffffff821115612d9b57612d9a612973565b5b602082029050602081019050919050565b600080fd5b6000612dc4612dbf84612d80565b6129d3565b90508083825260208201905060208402830185811115612de757612de6612dac565b5b835b81811015612e105780612dfc8882612b30565b845260208401935050602081019050612de9565b5050509392505050565b600082601f830112612e2f57612e2e612958565b5b8135612e3f848260208601612db1565b91505092915050565b600060208284031215612e5e57612e5d61294e565b5b600082013567ffffffffffffffff811115612e7c57612e7b612953565b5b612e8884828501612e1a565b91505092915050565b612e9a81612b07565b82525050565b600082825260208201905092915050565b6000612ebc82612b72565b612ec68185612ea0565b9350612ed6818560208601612b8e565b612edf81612962565b840191505092915050565b6000819050919050565b612efd81612eea565b82525050565b612f0c81612ca7565b82525050565b612f1b81612cdd565b82525050565b600060c083016000830151612f396000860182612e91565b5060208301518482036020860152612f518282612eb1565b9150506040830151612f666040860182612ef4565b506060830151612f796060860182612f03565b506080830151612f8c6080860182612f12565b5060a0830151612f9f60a0860182612f12565b508091505092915050565b60a082016000820151612fc06000850182612f03565b506020820151612fd36020850182612f12565b506040820151612fe66040850182612f12565b506060820151612ff96060850182612ef4565b50608082015161300c6080850182612e91565b50505050565b60a0820160008201516130286000850182612f03565b50602082015161303b6020850182612f03565b50604082015161304e6040850182612f12565b5060608201516130616060850182612f12565b5060808201516130746080850182612f12565b50505050565b60006101608201905081810360008301526130958186612f21565b90506130a46020830185612faa565b6130b160c0830184613012565b949350505050565b6130c281612eea565b81146130cd57600080fd5b50565b6000813590506130df816130b9565b92915050565b6000602082840312156130fb576130fa61294e565b5b6000613109848285016130d0565b91505092915050565b61311b81612b07565b82525050565b60006020820190506131366000830184613112565b92915050565b61314581612cdd565b811461315057600080fd5b50565b6000813590506131628161313c565b92915050565b6000806040838503121561317f5761317e61294e565b5b600061318d85828601612b30565b925050602061319e85828601613153565b9150509250929050565b6131b181612eea565b82525050565b600060a0820190506131cc6000830188612cb3565b6131d96020830187612ce7565b6131e66040830186612ce7565b6131f360608301856131a8565b6132006080830184613112565b9695505050505050565b600060c08201905061321f6000830189613112565b81810360208301526132318188612bc1565b905061324060408301876131a8565b61324d6060830186612cb3565b61325a6080830185612ce7565b61326760a0830184612ce7565b979650505050505050565b60006020820190506132876000830184612ce7565b92915050565b61329681612ca7565b81146132a157600080fd5b50565b6000813590506132b38161328d565b92915050565b600080604083850312156132d0576132cf61294e565b5b60006132de85828601612b30565b92505060206132ef858286016132a4565b9150509250929050565b6000806000606084860312156133125761331161294e565b5b600061332086828701612b30565b9350506020613331868287016130d0565b925050604061334286828701613153565b9150509250925092565b600080600080608085870312156133665761336561294e565b5b600061337487828801612b30565b9450506020613385878288016132a4565b9350506040613396878288016132a4565b92505060606133a787828801613153565b91505092959194509250565b600082825260208201905092915050565b7f5573657220616c72656164792072656769737465726564000000000000000000600082015250565b60006133fa6017836133b3565b9150613405826133c4565b602082019050919050565b60006020820190508181036000830152613429816133ed565b9050919050565b7f456d707479207075626c6963206b657900000000000000000000000000000000600082015250565b60006134666010836133b3565b915061347182613430565b602082019050919050565b6000602082019050818103600083015261349581613459565b9050919050565b7f5075626c6963206b657920746f6f206c61726765000000000000000000000000600082015250565b60006134d26014836133b3565b91506134dd8261349c565b602082019050919050565b60006020820190508181036000830152613501816134c5565b9050919050565b7f5075626c6963206b657920616c72656164792072656769737465726564000000600082015250565b600061353e601d836133b3565b915061354982613508565b602082019050919050565b6000602082019050818103600083015261356d81613531565b9050919050565b7f4e487b7100000000000000000000000000000000000000000000000000000000600052601260045260246000fd5b7f4e487b7100000000000000000000000000000000000000000000000000000000600052601160045260246000fd5b60006135dd82612cdd565b91506135e883612cdd565b9250826135f8576135f7613574565b5b828204905092915050565b600061360e82612cdd565b91507fffffffffffffffffffffffffffffffffffffffffffffffffffffffffffffffff821415613641576136406135a3565b5b600182019050919050565b600060408201905061366160008301856131a8565b61366e6020830184612ce7565b9392505050565b7f55736572206e6f74207265676973746572656400000000000000000000000000600082015250565b60006136ab6013836133b3565b91506136b682613675565b602082019050919050565b600060208201905081810360008301526136da8161369e565b9050919050565b7f4e487b7100000000000000000000000000000000000000000000000000000000600052602260045260246000fd5b6000600282049050600182168061372857607f821691505b6020821081141561373c5761373b6136e1565b5b50919050565b7f4f6e6c79206f776e657200000000000000000000000000000000000000000000600082015250565b6000613778600a836133b3565b915061378382613742565b602082019050919050565b600060208201905081810360008301526137a78161376b565b9050919050565b7f456d707479206d65737361676500000000000000000000000000000000000000600082015250565b60006137e4600d836133b3565b91506137ef826137ae565b602082019050919050565b60006020820190508181036000830152613813816137d7565b9050919050565b7f456d707479207369676e61747572650000000000000000000000000000000000600082015250565b6000613850600f836133b3565b915061385b8261381a565b602082019050919050565b6000602082019050818103600083015261387f81613843565b9050919050565b7f4f6e6c7920617574686f72697a65642062616e6b000000000000000000000000600082015250565b60006138bc6014836133b3565b91506138c782613886565b602082019050919050565b600060208201905081810360008301526138eb816138af565b9050919050565b7f4b5943206e6f7420766572696669656400000000000000000000000000000000600082015250565b60006139286010836133b3565b9150613933826138f2565b602082019050919050565b600060208201905081810360008301526139578161391b565b9050919050565b7f4e487b7100000000000000000000000000000000000000000000000000000000600052603260045260246000fd5b600061399882612cdd565b91506139a383612cdd565b9250827fffffffffffffffffffffffffffffffffffffffffffffffffffffffffffffffff038211156139d8576139d76135a3565b5b828201905092915050565b7f5075626c6963206b657920616c726561647920696e2075736500000000000000600082015250565b6000613a196019836133b3565b9150613a24826139e3565b602082019050919050565b60006020820190508181036000830152613a4881613a0c565b9050919050565b6000606082019050613a6460008301866131a8565b613a7160208301856131a8565b613a7e6040830184612ce7565b949350505050565b7f496e76616c69642062616e6b2061646472657373000000000000000000000000600082015250565b6000613abc6014836133b3565b9150613ac782613a86565b602082019050919050565b60006020820190508181036000830152613aeb81613aaf565b9050919050565b7f496e76616c6964204b5943206861736800000000000000000000000000000000600082015250565b6000613b286010836133b3565b9150613b3382613af2565b602082019050919050565b60006020820190508181036000830152613b5781613b1b565b9050919050565b7f496e76616c69642076616c696469747920706572696f64000000000000000000600082015250565b6000613b946017836133b3565b9150613b9f82613b5e565b602082019050919050565b60006020820190508181036000830152613bc381613b87565b9050919050565b6000613bd582612cdd565b9150613be083612cdd565b9250817fffffffffffffffffffffffffffffffffffffffffffffffffffffffffffffffff0483118215151615613c1957613c186135a3565b5b828202905092915050565b7f496e76616c6964206e6577206f776e6572000000000000000000000000000000600082015250565b6000613c5a6011836133b3565b9150613c6582613c24565b602082019050919050565b60006020820190508181036000830152613c8981613c4d565b9050919050565b7f4b5943206e6f742076616c696400000000000000000000000000000000000000600082015250565b6000613cc6600d836133b3565b9150613cd182613c90565b602082019050919050565b60006020820190508181036000830152613cf581613cb9565b9050919050565b6000606082019050613d116000830186612cb3565b613d1e6020830185612cb3565b613d2b6040830184612ce7565b94935050505056fea2646970667358221220accc4d2910c8c3aafbf7832cc8038d4a42cd58da3df16ab6c9f0fc40269c651964736f6c634300080a0033",
      "opcodes": "PUSH1 0x80 PUSH1 0x40 MSTORE CALLVALUE DUP1 ISZERO PUSH2 0x10 JUMPI PUSH1 0x0 DUP1 REVERT JUMPDEST POP CALLER PUSH1 0x5 PUSH1 0x0 PUSH2 0x100 EXP DUP2 SLOAD DUP2 PUSH20 0xFFFFFFFFFFFFFFFFFFFFFFFFFFFFFFFFFFFFFFFF MUL NOT AND SWAP1 DUP4 PUSH20 0xFFFFFFFFFFFFFFFFFFFFFFFFFFFFFFFFFFFFFFFF AND MUL OR SWAP1 SSTORE POP PUSH2 0x3D69 DUP1 PUSH2 0x61 PUSH1 0x0 CODECOPY PUSH1 0x0 RETURN INVALID PUSH1 0x80 PUSH1 0x40 MSTORE CALLVALUE DUP1 ISZERO PUSH2 0x10 JUMPI PUSH1 0x0 DUP1 REVERT JUMPDEST POP PUSH1 0x4 CALLDATASIZE LT PUSH2 0x158 JUMPI PUSH1 0x0 CALLDATALOAD PUSH1 0xE0 SHR DUP1 PUSH4 0x76031448 GT PUSH2 0xC3 JUMPI DUP1 PUSH4 0xCF0E0F9D GT PUSH2 0x7C JUMPI DUP1 PUSH4 0xCF0E0F9D EQ PUSH2 0x420 JUMPI DUP1 PUSH4 0xCFE5E1BB EQ PUSH2 0x450 JUMPI DUP1 PUSH4 0xD1F33AA4 EQ PUSH2 0x480 JUMPI DUP1 PUSH4 0xE7C53764 EQ PUSH2 0x49C JUMPI DUP1 PUSH4 0xF2FDE38B EQ PUSH2 0x4B8 JUMPI DUP1 PUSH4 0xF8505F7B EQ PUSH2 0x4D4 JUMPI PUSH2 0x158 JUMP JUMPDEST DUP1 PUSH4 0x76031448 EQ PUSH2 0x31B JUMPI DUP1 PUSH4 0x7EB606E8 EQ PUSH2 0x34B JUMPI DUP1 PUSH4 0x8DA5CB5B EQ PUSH2 0x37F JUMPI DUP1 PUSH4 0xA2969820 EQ PUSH2 0x39D JUMPI DUP1 PUSH4 0xA87430BA EQ PUSH2 0x3CD JUMPI DUP1 PUSH4 0xBFF1F9E1 EQ PUSH2 0x402 JUMPI PUSH2 0x158 JUMP JUMPDEST DUP1 PUSH4 0x53F6AD37 GT PUSH2 0x115 JUMPI DUP1 PUSH4 0x53F6AD37 EQ PUSH2 0x245 JUMPI DUP1 PUSH4 0x5B1EAB6C EQ PUSH2 0x265 JUMPI DUP1 PUSH4 0x6386C1C7 EQ PUSH2 0x281 JUMPI DUP1 PUSH4 0x648B8765 EQ PUSH2 0x2B3 JUMPI DUP1 PUSH4 0x73AC83EF EQ PUSH2 0x2E3 JUMPI DUP1 PUSH4 0x74E66D10 EQ PUSH2 0x2FF JUMPI PUSH2 0x158 JUMP JUMPDEST DUP1 PUSH4 0xA38178C EQ PUSH2 0x15D JUMPI DUP1 PUSH4 0x11231FE0 EQ PUSH2 0x179 JUMPI DUP1 PUSH4 0x1A47767B EQ PUSH2 0x1A9 JUMPI DUP1 PUSH4 0x20DD0213 EQ PUSH2 0x1C5 JUMPI DUP1 PUSH4 0x39BA645B EQ PUSH2 0x1F5 JUMPI DUP1 PUSH4 0x3A13E1AF EQ PUSH2 0x211 JUMPI JUMPDEST PUSH1 0x0 DUP1 REVERT JUMPDEST PUSH2 0x177 PUSH1 0x4 DUP1 CALLDATASIZE SUB DUP2 ADD SWAP1 PUSH2 0x172 SWAP2 SWAP1 PUSH2 0x2A9E JUMP JUMPDEST PUSH2 0x4F0 JUMP JUMPDEST STOP JUMPDEST PUSH2 0x193 PUSH1 0x4 DUP1 CALLDATASIZE SUB DUP2 ADD SWAP1 PUSH2 0x18E SWAP2 SWAP1 PUSH2 0x2B45 JUMP JUMPDEST PUSH2 0x97D JUMP JUMPDEST PUSH1 0x40 MLOAD PUSH2 0x1A0 SWAP2 SWAP1 PUSH2 0x2BFA JUMP JUMPDEST PUSH1 0x40 MLOAD DUP1 SWAP2 SUB SWAP1 RETURN JUMPDEST PUSH2 0x1C3 PUSH1 0x4 DUP1 CALLDATASIZE SUB DUP2 ADD SWAP1 PUSH2 0x1BE SWAP2 SWAP1 PUSH2 0x2B45 JUMP JUMPDEST PUSH2 0xAE0 JUMP JUMPDEST STOP JUMPDEST PUSH2 0x1DF PUSH1 0x4 DUP1 CALLDATASIZE SUB DUP2 ADD SWAP1 PUSH2 0x1DA SWAP2 SWAP1 PUSH2 0x2C1C JUMP JUMPDEST PUSH2 0xD13 JUMP JUMPDEST PUSH1 0x40 MLOAD PUSH2 0x1EC SWAP2 SWAP1 PUSH2 0x2CC2 JUMP JUMPDEST PUSH1 0x40 MLOAD DUP1 SWAP2 SUB SWAP1 RETURN JUMPDEST PUSH2 0x20F PUSH1 0x4 DUP1 CALLDATASIZE SUB DUP2 ADD SWAP1 PUSH2 0x20A SWAP2 SWAP1 PUSH2 0x2B45 JUMP JUMPDEST PUSH2 0xE3D JUMP JUMPDEST STOP JUMPDEST PUSH2 0x22B PUSH1 0x4 DUP1 CALLDATASIZE SUB DUP2 ADD SWAP1 PUSH2 0x226 SWAP2 SWAP1 PUSH2 0x2B45 JUMP JUMPDEST PUSH2 0x10FB JUMP JUMPDEST PUSH1 0x40 MLOAD PUSH2 0x23C SWAP6 SWAP5 SWAP4 SWAP3 SWAP2 SWAP1 PUSH2 0x2CF6 JUMP JUMPDEST PUSH1 0x40 MLOAD DUP1 SWAP2 SUB SWAP1 RETURN JUMPDEST PUSH2 0x24D PUSH2 0x114B JUMP JUMPDEST PUSH1 0x40 MLOAD PUSH2 0x25C SWAP4 SWAP3 SWAP2 SWAP1 PUSH2 0x2D49 JUMP JUMPDEST PUSH1 0x40 MLOAD DUP1 SWAP2 SUB SWAP1 RETURN JUMPDEST PUSH2 0x27F PUSH1 0x4 DUP1 CALLDATASIZE SUB DUP2 ADD SWAP1 PUSH2 0x27A SWAP2 SWAP1 PUSH2 0x2E48 JUMP JUMPDEST PUSH2 0x1162 JUMP JUMPDEST STOP JUMPDEST PUSH2 0x29B PUSH1 0x4 DUP1 CALLDATASIZE SUB DUP2 ADD SWAP1 PUSH2 0x296 SWAP2 SWAP1 PUSH2 0x2B45 JUMP JUMPDEST PUSH2 0x12F0 JUMP JUMPDEST PUSH1 0x40 MLOAD PUSH2 0x2AA SWAP4 SWAP3 SWAP2 SWAP1 PUSH2 0x307A JUMP JUMPDEST PUSH1 0x40 MLOAD DUP1 SWAP2 SUB SWAP1 RETURN JUMPDEST PUSH2 0x2CD PUSH1 0x4 DUP1 CALLDATASIZE SUB DUP2 ADD SWAP1 PUSH2 0x2C8 SWAP2 SWAP1 PUSH2 0x30E5 JUMP JUMPDEST PUSH2 0x168F JUMP JUMPDEST PUSH1 0x40 MLOAD PUSH2 0x2DA SWAP2 SWAP1 PUSH2 0x3121 JUMP JUMPDEST PUSH1 0x40 MLOAD DUP1 SWAP2 SUB SWAP1 RETURN JUMPDEST PUSH2 0x2FD PUSH1 0x4 DUP1 CALLDATASIZE SUB DUP2 ADD SWAP1 PUSH2 0x2F8 SWAP2 SWAP1 PUSH2 0x3168 JUMP JUMPDEST PUSH2 0x16CC JUMP JUMPDEST STOP JUMPDEST PUSH2 0x319 PUSH1 0x4 DUP1 CALLDATASIZE SUB DUP2 ADD SWAP1 PUSH2 0x314 SWAP2 SWAP1 PUSH2 0x2A9E JUMP JUMPDEST PUSH2 0x17F5 JUMP JUMPDEST STOP JUMPDEST PUSH2 0x335 PUSH1 0x4 DUP1 CALLDATASIZE SUB DUP2 ADD SWAP1 PUSH2 0x330 SWAP2 SWAP1 PUSH2 0x3168 JUMP JUMPDEST PUSH2 0x1B13 JUMP JUMPDEST PUSH1 0x40 MLOAD PUSH2 0x342 SWAP2 SWAP1 PUSH2 0x2CC2 JUMP JUMPDEST PUSH1 0x40 MLOAD DUP1 SWAP2 SUB SWAP1 RETURN JUMPDEST PUSH2 0x365 PUSH1 0x4 DUP1 CALLDATASIZE SUB DUP2 ADD SWAP1 PUSH2 0x360 SWAP2 SWAP1 PUSH2 0x2B45 JUMP JUMPDEST PUSH2 0x1C8E JUMP JUMPDEST PUSH1 0x40 MLOAD PUSH2 0x376 SWAP6 SWAP5 SWAP4 SWAP3 SWAP2 SWAP1 PUSH2 0x31B7 JUMP JUMPDEST PUSH1 0x40 MLOAD DUP1 SWAP2 SUB SWAP1 RETURN JUMPDEST PUSH2 0x387 PUSH2 0x1CF1 JUMP JUMPDEST PUSH1 0x40 MLOAD PUSH2 0x394 SWAP2 SWAP1 PUSH2 0x3121 JUMP JUMPDEST PUSH1 0x40 MLOAD DUP1 SWAP2 SUB SWAP1 RETURN JUMPDEST PUSH2 0x3B7 PUSH1 0x4 DUP1 CALLDATASIZE SUB DUP2 ADD SWAP1 PUSH2 0x3B2 SWAP2 SWAP1 PUSH2 0x2B45 JUMP JUMPDEST PUSH2 0x1D17 JUMP JUMPDEST PUSH1 0x40 MLOAD PUSH2 0x3C4 SWAP2 SWAP1 PUSH2 0x2CC2 JUMP JUMPDEST PUSH1 0x40 MLOAD DUP1 SWAP2 SUB SWAP1 RETURN JUMPDEST PUSH2 0x3E7 PUSH1 0x4 DUP1 CALLDATASIZE SUB DUP2 ADD SWAP1 PUSH2 0x3E2 SWAP2 SWAP1 PUSH2 0x2B45 JUMP JUMPDEST PUSH2 0x1D37 JUMP JUMPDEST PUSH1 0x40 MLOAD PUSH2 0x3F9 SWAP7 SWAP6 SWAP5 SWAP4 SWAP3 SWAP2 SWAP1 PUSH2 0x320A JUMP JUMPDEST PUSH1 0x40 MLOAD DUP1 SWAP2 SUB SWAP1 RETURN JUMPDEST PUSH2 0x40A PUSH2 0x1E28 JUMP JUMPDEST PUSH1 0x40 MLOAD PUSH2 0x417 SWAP2 SWAP1 PUSH2 0x3272 JUMP JUMPDEST PUSH1 0x40 MLOAD DUP1 SWAP2 SUB SWAP1 RETURN JUMPDEST PUSH2 0x43A PUSH1 0x4 DUP1 CALLDATASIZE SUB DUP2 ADD SWAP1 PUSH2 0x435 SWAP2 SWAP1 PUSH2 0x2B45 JUMP JUMPDEST PUSH2 0x1E2E JUMP JUMPDEST PUSH1 0x40 MLOAD PUSH2 0x447 SWAP2 SWAP1 PUSH2 0x2CC2 JUMP JUMPDEST PUSH1 0x40 MLOAD DUP1 SWAP2 SUB SWAP1 RETURN JUMPDEST PUSH2 0x46A PUSH1 0x4 DUP1 CALLDATASIZE SUB DUP2 ADD SWAP1 PUSH2 0x465 SWAP2 SWAP1 PUSH2 0x30E5 JUMP JUMPDEST PUSH2 0x1F28 JUMP JUMPDEST PUSH1 0x40 MLOAD PUSH2 0x477 SWAP2 SWAP1 PUSH2 0x3121 JUMP JUMPDEST PUSH1 0x40 MLOAD DUP1 SWAP2 SUB SWAP1 RETURN JUMPDEST PUSH2 0x49A PUSH1 0x4 DUP1 CALLDATASIZE SUB DUP2 ADD SWAP1 PUSH2 0x495 SWAP2 SWAP1 PUSH2 0x32B9 JUMP JUMPDEST PUSH2 0x1F5B JUMP JUMPDEST STOP JUMPDEST PUSH2 0x4B6 PUSH1 0x4 DUP1 CALLDATASIZE SUB DUP2 ADD SWAP1 PUSH2 0x4B1 SWAP2 SWAP1 PUSH2 0x32F9 JUMP JUMPDEST PUSH2 0x2104 JUMP JUMPDEST STOP JUMPDEST PUSH2 0x4D2 PUSH1 0x4 DUP1 CALLDATASIZE SUB DUP2 ADD SWAP1 PUSH2 0x4CD SWAP2 SWAP1 PUSH2 0x2B45 JUMP JUMPDEST PUSH2 0x2447 JUMP JUMPDEST STOP JUMPDEST PUSH2 0x4EE PUSH1 0x4 DUP1 CALLDATASIZE SUB DUP2 ADD SWAP1 PUSH2 0x4E9 SWAP2 SWAP1 PUSH2 0x334C JUMP JUMPDEST PUSH2 0x258B JUMP JUMPDEST STOP JUMPDEST CALLER PUSH1 0x0 DUP1 DUP3 PUSH20 0xFFFFFFFFFFFFFFFFFFFFFFFFFFFFFFFFFFFFFFFF AND PUSH20 0xFFFFFFFFFFFFFFFFFFFFFFFFFFFFFFFFFFFFFFFF AND DUP2 MSTORE PUSH1 0x20 ADD SWAP1 DUP2 MSTORE PUSH1 0x20 ADD PUSH1 0x0 KECCAK256 PUSH1 0x3 ADD PUSH1 0x0 SWAP1 SLOAD SWAP1 PUSH2 0x100 EXP SWAP1 DIV PUSH1 0xFF AND ISZERO PUSH2 0x580 JUMPI PUSH1 0x40 MLOAD PUSH32 0x8C379A000000000000000000000000000000000000000000000000000000000 DUP2 MSTORE PUSH1 0x4 ADD PUSH2 0x577 SWAP1 PUSH2 0x3410 JUMP JUMPDEST PUSH1 0x40 MLOAD DUP1 SWAP2 SUB SWAP1 REVERT JUMPDEST PUSH1 0x0 DUP3 MLOAD GT PUSH2 0x5C4 JUMPI PUSH1 0x40 MLOAD PUSH32 0x8C379A000000000000000000000000000000000000000000000000000000000 DUP2 MSTORE PUSH1 0x4 ADD PUSH2 0x5BB SWAP1 PUSH2 0x347C JUMP JUMPDEST PUSH1 0x40 MLOAD DUP1 SWAP2 SUB SWAP1 REVERT JUMPDEST PUSH2 0xBB8 DUP3 MLOAD GT ISZERO PUSH2 0x60A JUMPI PUSH1 0x40 MLOAD PUSH32 0x8C379A000000000000000000000000000000000000000000000000000000000 DUP2 MSTORE PUSH1 0x4 ADD PUSH2 0x601 SWAP1 PUSH2 0x34E8 JUMP JUMPDEST PUSH1 0x40 MLOAD DUP1 SWAP2 SUB SWAP1 REVERT JUMPDEST PUSH1 0x0 DUP3 DUP1 MLOAD SWAP1 PUSH1 0x20 ADD KECCAK256 SWAP1 POP PUSH1 0x0 PUSH20 0xFFFFFFFFFFFFFFFFFFFFFFFFFFFFFFFFFFFFFFFF AND PUSH1 0x3 PUSH1 0x0 DUP4 DUP2 MSTORE PUSH1 0x20 ADD SWAP1 DUP2 MSTORE PUSH1 0x20 ADD PUSH1 0x0 KECCAK256 PUSH1 0x0 SWAP1 SLOAD SWAP1 PUSH2 0x100 EXP SWAP1 DIV PUSH20 0xFFFFFFFFFFFFFFFFFFFFFFFFFFFFFFFFFFFFFFFF AND PUSH20 0xFFFFFFFFFFFFFFFFFFFFFFFFFFFFFFFFFFFFFFFF AND EQ PUSH2 0x6B8 JUMPI PUSH1 0x40 MLOAD PUSH32 0x8C379A000000000000000000000000000000000000000000000000000000000 DUP2 MSTORE PUSH1 0x4 ADD PUSH2 0x6AF SWAP1 PUSH2 0x3554 JUMP JUMPDEST PUSH1 0x40 MLOAD DUP1 SWAP2 SUB SWAP1 REVERT JUMPDEST PUSH1 0x40 MLOAD DUP1 PUSH1 0xC0 ADD PUSH1 0x40 MSTORE DUP1 CALLER PUSH20 0xFFFFFFFFFFFFFFFFFFFFFFFFFFFFFFFFFFFFFFFF AND DUP2 MSTORE PUSH1 0x20 ADD DUP5 DUP2 MSTORE PUSH1 0x20 ADD DUP3 DUP2 MSTORE PUSH1 0x20 ADD PUSH1 0x1 ISZERO ISZERO DUP2 MSTORE PUSH1 0x20 ADD TIMESTAMP DUP2 MSTORE PUSH1 0x20 ADD TIMESTAMP DUP2 MSTORE POP PUSH1 0x0 DUP1 CALLER PUSH20 0xFFFFFFFFFFFFFFFFFFFFFFFFFFFFFFFFFFFFFFFF AND PUSH20 0xFFFFFFFFFFFFFFFFFFFFFFFFFFFFFFFFFFFFFFFF AND DUP2 MSTORE PUSH1 0x20 ADD SWAP1 DUP2 MSTORE PUSH1 0x20 ADD PUSH1 0x0 KECCAK256 PUSH1 0x0 DUP3 ADD MLOAD DUP2 PUSH1 0x0 ADD PUSH1 0x0 PUSH2 0x100 EXP DUP2 SLOAD DUP2 PUSH20 0xFFFFFFFFFFFFFFFFFFFFFFFFFFFFFFFFFFFFFFFF MUL NOT AND SWAP1 DUP4 PUSH20 0xFFFFFFFFFFFFFFFFFFFFFFFFFFFFFFFFFFFFFFFF AND MUL OR SWAP1 SSTORE POP PUSH1 0x20 DUP3 ADD MLOAD DUP2 PUSH1 0x1 ADD SWAP1 DUP1 MLOAD SWAP1 PUSH1 0x20 ADD SWAP1 PUSH2 0x79F SWAP3 SWAP2 SWAP1 PUSH2 0x27D3 JUMP JUMPDEST POP PUSH1 0x40 DUP3 ADD MLOAD DUP2 PUSH1 0x2 ADD SSTORE PUSH1 0x60 DUP3 ADD MLOAD DUP2 PUSH1 0x3 ADD PUSH1 0x0 PUSH2 0x100 EXP DUP2 SLOAD DUP2 PUSH1 0xFF MUL NOT AND SWAP1 DUP4 ISZERO ISZERO MUL OR SWAP1 SSTORE POP PUSH1 0x80 DUP3 ADD MLOAD DUP2 PUSH1 0x4 ADD SSTORE PUSH1 0xA0 DUP3 ADD MLOAD DUP2 PUSH1 0x5 ADD SSTORE SWAP1 POP POP CALLER PUSH1 0x3 PUSH1 0x0 DUP4 DUP2 MSTORE PUSH1 0x20 ADD SWAP1 DUP2 MSTORE PUSH1 0x20 ADD PUSH1 0x0 KECCAK256 PUSH1 0x0 PUSH2 0x100 EXP DUP2 SLOAD DUP2 PUSH20 0xFFFFFFFFFFFFFFFFFFFFFFFFFFFFFFFFFFFFFFFF MUL NOT AND SWAP1 DUP4 PUSH20 0xFFFFFFFFFFFFFFFFFFFFFFFFFFFFFFFFFFFFFFFF AND MUL OR SWAP1 SSTORE POP PUSH1 0x40 MLOAD DUP1 PUSH1 0xA0 ADD PUSH1 0x40 MSTORE DUP1 PUSH1 0x0 ISZERO ISZERO DUP2 MSTORE PUSH1 0x20 ADD PUSH1 0x1 ISZERO ISZERO DUP2 MSTORE PUSH1 0x20 ADD PUSH1 0x0 DUP2 MSTORE PUSH1 0x20 ADD PUSH1 0x0 DUP2 MSTORE PUSH1 0x20 ADD PUSH3 0x15180 TIMESTAMP PUSH2 0x86D SWAP2 SWAP1 PUSH2 0x35D2 JUMP JUMPDEST DUP2 MSTORE POP PUSH1 0x2 PUSH1 0x0 CALLER PUSH20 0xFFFFFFFFFFFFFFFFFFFFFFFFFFFFFFFFFFFFFFFF AND PUSH20 0xFFFFFFFFFFFFFFFFFFFFFFFFFFFFFFFFFFFFFFFF AND DUP2 MSTORE PUSH1 0x20 ADD SWAP1 DUP2 MSTORE PUSH1 0x20 ADD PUSH1 0x0 KECCAK256 PUSH1 0x0 DUP3 ADD MLOAD DUP2 PUSH1 0x0 ADD PUSH1 0x0 PUSH2 0x100 EXP DUP2 SLOAD DUP2 PUSH1 0xFF MUL NOT AND SWAP1 DUP4 ISZERO ISZERO MUL OR SWAP1 SSTORE POP PUSH1 0x20 DUP3 ADD MLOAD DUP2 PUSH1 0x0 ADD PUSH1 0x1 PUSH2 0x100 EXP DUP2 SLOAD DUP2 PUSH1 0xFF MUL NOT AND SWAP1 DUP4 ISZERO ISZERO MUL OR SWAP1 SSTORE POP PUSH1 0x40 DUP3 ADD MLOAD DUP2 PUSH1 0x1 ADD SSTORE PUSH1 0x60 DUP3 ADD MLOAD DUP2 PUSH1 0x2 ADD SSTORE PUSH1 0x80 DUP3 ADD MLOAD DUP2 PUSH1 0x3 ADD SSTORE SWAP1 POP POP PUSH1 0x6 PUSH1 0x0 DUP2 SLOAD DUP1 SWAP3 SWAP2 SWAP1 PUSH2 0x923 SWAP1 PUSH2 0x3603 JUMP JUMPDEST SWAP2 SWAP1 POP SSTORE POP CALLER PUSH20 0xFFFFFFFFFFFFFFFFFFFFFFFFFFFFFFFFFFFFFFFF AND PUSH32 0xE932B8F225535323212B28055402C985D3C06BCA70A0C4AAA52EE2BF155DC2AC DUP3 TIMESTAMP PUSH1 0x40 MLOAD PUSH2 0x970 SWAP3 SWAP2 SWAP1 PUSH2 0x364C JUMP JUMPDEST PUSH1 0x40 MLOAD DUP1 SWAP2 SUB SWAP1 LOG2 POP POP POP JUMP JUMPDEST PUSH1 0x60 DUP2 PUSH1 0x0 DUP1 DUP3 PUSH20 0xFFFFFFFFFFFFFFFFFFFFFFFFFFFFFFFFFFFFFFFF AND PUSH20 0xFFFFFFFFFFFFFFFFFFFFFFFFFFFFFFFFFFFFFFFF AND DUP2 MSTORE PUSH1 0x20 ADD SWAP1 DUP2 MSTORE PUSH1 0x20 ADD PUSH1 0x0 KECCAK256 PUSH1 0x3 ADD PUSH1 0x0 SWAP1 SLOAD SWAP1 PUSH2 0x100 EXP SWAP1 DIV PUSH1 0xFF AND PUSH2 0xA0E JUMPI PUSH1 0x40 MLOAD PUSH32 0x8C379A000000000000000000000000000000000000000000000000000000000 DUP2 MSTORE PUSH1 0x4 ADD PUSH2 0xA05 SWAP1 PUSH2 0x36C1 JUMP JUMPDEST PUSH1 0x40 MLOAD DUP1 SWAP2 SUB SWAP1 REVERT JUMPDEST PUSH1 0x0 DUP1 DUP5 PUSH20 0xFFFFFFFFFFFFFFFFFFFFFFFFFFFFFFFFFFFFFFFF AND PUSH20 0xFFFFFFFFFFFFFFFFFFFFFFFFFFFFFFFFFFFFFFFF AND DUP2 MSTORE PUSH1 0x20 ADD SWAP1 DUP2 MSTORE PUSH1 0x20 ADD PUSH1 0x0 KECCAK256 PUSH1 0x1 ADD DUP1 SLOAD PUSH2 0xA5A SWAP1 PUSH2 0x3710 JUMP JUMPDEST DUP1 PUSH1 0x1F ADD PUSH1 0x20 DUP1 SWAP2 DIV MUL PUSH1 0x20 ADD PUSH1 0x40 MLOAD SWAP1 DUP2 ADD PUSH1 0x40 MSTORE DUP1 SWAP3 SWAP2 SWAP1 DUP2 DUP2 MSTORE PUSH1 0x20 ADD DUP3 DUP1 SLOAD PUSH2 0xA86 SWAP1 PUSH2 0x3710 JUMP JUMPDEST DUP1 ISZERO PUSH2 0xAD3 JUMPI DUP1 PUSH1 0x1F LT PUSH2 0xAA8 JUMPI PUSH2 0x100 DUP1 DUP4 SLOAD DIV MUL DUP4 MSTORE SWAP2 PUSH1 0x20 ADD SWAP2 PUSH2 0xAD3 JUMP JUMPDEST DUP3 ADD SWAP2 SWAP1 PUSH1 0x0 MSTORE PUSH1 0x20 PUSH1 0x0 KECCAK256 SWAP1 JUMPDEST DUP2 SLOAD DUP2 MSTORE SWAP1 PUSH1 0x1 ADD SWAP1 PUSH1 0x20 ADD DUP1 DUP4 GT PUSH2 0xAB6 JUMPI DUP3 SWAP1 SUB PUSH1 0x1F AND DUP3 ADD SWAP2 JUMPDEST POP POP POP POP POP SWAP2 POP POP SWAP2 SWAP1 POP JUMP JUMPDEST PUSH1 0x5 PUSH1 0x0 SWAP1 SLOAD SWAP1 PUSH2 0x100 EXP SWAP1 DIV PUSH20 0xFFFFFFFFFFFFFFFFFFFFFFFFFFFFFFFFFFFFFFFF AND PUSH20 0xFFFFFFFFFFFFFFFFFFFFFFFFFFFFFFFFFFFFFFFF AND CALLER PUSH20 0xFFFFFFFFFFFFFFFFFFFFFFFFFFFFFFFFFFFFFFFF AND EQ PUSH2 0xB70 JUMPI PUSH1 0x40 MLOAD PUSH32 0x8C379A000000000000000000000000000000000000000000000000000000000 DUP2 MSTORE PUSH1 0x4 ADD PUSH2 0xB67 SWAP1 PUSH2 0x378E JUMP JUMPDEST PUSH1 0x40 MLOAD DUP1 SWAP2 SUB SWAP1 REVERT JUMPDEST DUP1 PUSH1 0x0 DUP1 DUP3 PUSH20 0xFFFFFFFFFFFFFFFFFFFFFFFFFFFFFFFFFFFFFFFF AND PUSH20 0xFFFFFFFFFFFFFFFFFFFFFFFFFFFFFFFFFFFFFFFF AND DUP2 MSTORE PUSH1 0x20 ADD SWAP1 DUP2 MSTORE PUSH1 0x20 ADD PUSH1 0x0 KECCAK256 PUSH1 0x3 ADD PUSH1 0x0 SWAP1 SLOAD SWAP1 PUSH2 0x100 EXP SWAP1 DIV PUSH1 0xFF AND PUSH2 0xBFF JUMPI PUSH1 0x40 MLOAD PUSH32 0x8C379A000000000000000000000000000000000000000000000000000000000 DUP2 MSTORE PUSH1 0x4 ADD PUSH2 0xBF6 SWAP1 PUSH2 0x36C1 JUMP JUMPDEST PUSH1 0x40 MLOAD DUP1 SWAP2 SUB SWAP1 REVERT JUMPDEST PUSH1 0x0 DUP1 PUSH1 0x0 DUP5 PUSH20 0xFFFFFFFFFFFFFFFFFFFFFFFFFFFFFFFFFFFFFFFF AND PUSH20 0xFFFFFFFFFFFFFFFFFFFFFFFFFFFFFFFFFFFFFFFF AND DUP2 MSTORE PUSH1 0x20 ADD SWAP1 DUP2 MSTORE PUSH1 0x20 ADD PUSH1 0x0 KECCAK256 PUSH1 0x3 ADD PUSH1 0x0 PUSH2 0x100 EXP DUP2 SLOAD DUP2 PUSH1 0xFF MUL NOT AND SWAP1 DUP4 ISZERO ISZERO MUL OR SWAP1 SSTORE POP PUSH1 0x0 PUSH1 0x2 PUSH1 0x0 DUP5 PUSH20 0xFFFFFFFFFFFFFFFFFFFFFFFFFFFFFFFFFFFFFFFF AND PUSH20 0xFFFFFFFFFFFFFFFFFFFFFFFFFFFFFFFFFFFFFFFF AND DUP2 MSTORE PUSH1 0x20 ADD SWAP1 DUP2 MSTORE PUSH1 0x20 ADD PUSH1 0x0 KECCAK256 PUSH1 0x0 ADD PUSH1 0x0 PUSH2 0x100 EXP DUP2 SLOAD DUP2 PUSH1 0xFF MUL NOT AND SWAP1 DUP4 ISZERO ISZERO MUL OR SWAP1 SSTORE POP PUSH1 0x0 PUSH1 0x2 PUSH1 0x0 DUP5 PUSH20 0xFFFFFFFFFFFFFFFFFFFFFFFFFFFFFFFFFFFFFFFF AND PUSH20 0xFFFFFFFFFFFFFFFFFFFFFFFFFFFFFFFFFFFFFFFF AND DUP2 MSTORE PUSH1 0x20 ADD SWAP1 DUP2 MSTORE PUSH1 0x20 ADD PUSH1 0x0 KECCAK256 PUSH1 0x0 ADD PUSH1 0x1 PUSH2 0x100 EXP DUP2 SLOAD DUP2 PUSH1 0xFF MUL NOT AND SWAP1 DUP4 ISZERO ISZERO MUL OR SWAP1 SSTORE POP POP POP JUMP JUMPDEST PUSH1 0x0 DUP4 PUSH1 0x0 DUP1 DUP3 PUSH20 0xFFFFFFFFFFFFFFFFFFFFFFFFFFFFFFFFFFFFFFFF AND PUSH20 0xFFFFFFFFFFFFFFFFFFFFFFFFFFFFFFFFFFFFFFFF AND DUP2 MSTORE PUSH1 0x20 ADD SWAP1 DUP2 MSTORE PUSH1 0x20 ADD PUSH1 0x0 KECCAK256 PUSH1 0x3 ADD PUSH1 0x0 SWAP1 SLOAD SWAP1 PUSH2 0x100 EXP SWAP1 DIV PUSH1 0xFF AND PUSH2 0xDA4 JUMPI PUSH1 0x40 MLOAD PUSH32 0x8C379A000000000000000000000000000000000000000000000000000000000 DUP2 MSTORE PUSH1 0x4 ADD PUSH2 0xD9B SWAP1 PUSH2 0x36C1 JUMP JUMPDEST PUSH1 0x40 MLOAD DUP1 SWAP2 SUB SWAP1 REVERT JUMPDEST PUSH1 0x0 DUP5 MLOAD GT PUSH2 0xDE8 JUMPI PUSH1 0x40 MLOAD PUSH32 0x8C379A000000000000000000000000000000000000000000000000000000000 DUP2 MSTORE PUSH1 0x4 ADD PUSH2 0xDDF SWAP1 PUSH2 0x37FA JUMP JUMPDEST PUSH1 0x40 MLOAD DUP1 SWAP2 SUB SWAP1 REVERT JUMPDEST PUSH1 0x0 DUP4 MLOAD GT PUSH2 0xE2C JUMPI PUSH1 0x40 MLOAD PUSH32 0x8C379A000000000000000000000000000000000000000000000000000000000 DUP2 MSTORE PUSH1 0x4 ADD PUSH2 0xE23 SWAP1 PUSH2 0x3866 JUMP JUMPDEST PUSH1 0x40 MLOAD DUP1 SWAP2 SUB SWAP1 REVERT JUMPDEST PUSH2 0x974 DUP4 MLOAD LT ISZERO SWAP2 POP POP SWAP4 SWAP3 POP POP POP JUMP JUMPDEST PUSH1 0x4 PUSH1 0x0 CALLER PUSH20 0xFFFFFFFFFFFFFFFFFFFFFFFFFFFFFFFFFFFFFFFF AND PUSH20 0xFFFFFFFFFFFFFFFFFFFFFFFFFFFFFFFFFFFFFFFF AND DUP2 MSTORE PUSH1 0x20 ADD SWAP1 DUP2 MSTORE PUSH1 0x20 ADD PUSH1 0x0 KECCAK256 PUSH1 0x0 SWAP1 SLOAD SWAP1 PUSH2 0x100 EXP SWAP1 DIV PUSH1 0xFF AND PUSH2 0xEC9 JUMPI PUSH1 0x40 MLOAD PUSH32 0x8C379A000000000000000000000000000000000000000000000000000000000 DUP2 MSTORE PUSH1 0x4 ADD PUSH2 0xEC0 SWAP1 PUSH2 0x38D2 JUMP JUMPDEST PUSH1 0x40 MLOAD DUP1 SWAP2 SUB SWAP1 REVERT JUMPDEST DUP1 PUSH1 0x0 DUP1 DUP3 PUSH20 0xFFFFFFFFFFFFFFFFFFFFFFFFFFFFFFFFFFFFFFFF AND PUSH20 0xFFFFFFFFFFFFFFFFFFFFFFFFFFFFFFFFFFFFFFFF AND DUP2 MSTORE PUSH1 0x20 ADD SWAP1 DUP2 MSTORE PUSH1 0x20 ADD PUSH1 0x0 KECCAK256 PUSH1 0x3 ADD PUSH1 0x0 SWAP1 SLOAD SWAP1 PUSH2 0x100 EXP SWAP1 DIV PUSH1 0xFF AND PUSH2 0xF58 JUMPI PUSH1 0x40 MLOAD PUSH32 0x8C379A000000000000000000000000000000000000000000000000000000000 DUP2 MSTORE PUSH1 0x4 ADD PUSH2 0xF4F SWAP1 PUSH2 0x36C1 JUMP JUMPDEST PUSH1 0x40 MLOAD DUP1 SWAP2 SUB SWAP1 REVERT JUMPDEST PUSH1 0x1 PUSH1 0x0 DUP4 PUSH20 0xFFFFFFFFFFFFFFFFFFFFFFFFFFFFFFFFFFFFFFFF AND PUSH20 0xFFFFFFFFFFFFFFFFFFFFFFFFFFFFFFFFFFFFFFFF AND DUP2 MSTORE PUSH1 0x20 ADD SWAP1 DUP2 MSTORE PUSH1 0x20 ADD PUSH1 0x0 KECCAK256 PUSH1 0x0 ADD PUSH1 0x0 SWAP1 SLOAD SWAP1 PUSH2 0x100 EXP SWAP1 DIV PUSH1 0xFF AND PUSH2 0xFE7 JUMPI PUSH1 0x40 MLOAD PUSH32 0x8C379A000000000000000000000000000000000000000000000000000000000 DUP2 MSTORE PUSH1 0x4 ADD PUSH2 0xFDE SWAP1 PUSH2 0x393E JUMP JUMPDEST PUSH1 0x40 MLOAD DUP1 SWAP2 SUB SWAP1 REVERT JUMPDEST PUSH1 0x0 PUSH1 0x1 PUSH1 0x0 DUP5 PUSH20 0xFFFFFFFFFFFFFFFFFFFFFFFFFFFFFFFFFFFFFFFF AND PUSH20 0xFFFFFFFFFFFFFFFFFFFFFFFFFFFFFFFFFFFFFFFF AND DUP2 MSTORE PUSH1 0x20 ADD SWAP1 DUP2 MSTORE PUSH1 0x20 ADD PUSH1 0x0 KECCAK256 PUSH1 0x0 ADD PUSH1 0x0 PUSH2 0x100 EXP DUP2 SLOAD DUP2 PUSH1 0xFF MUL NOT AND SWAP1 DUP4 ISZERO ISZERO MUL OR SWAP1 SSTORE POP PUSH1 0x0 PUSH1 0x2 PUSH1 0x0 DUP5 PUSH20 0xFFFFFFFFFFFFFFFFFFFFFFFFFFFFFFFFFFFFFFFF AND PUSH20 0xFFFFFFFFFFFFFFFFFFFFFFFFFFFFFFFFFFFFFFFF AND DUP2 MSTORE PUSH1 0x20 ADD SWAP1 DUP2 MSTORE PUSH1 0x20 ADD PUSH1 0x0 KECCAK256 PUSH1 0x0 ADD PUSH1 0x0 PUSH2 0x100 EXP DUP2 SLOAD DUP2 PUSH1 0xFF MUL NOT AND SWAP1 DUP4 ISZERO ISZERO MUL OR SWAP1 SSTORE POP CALLER PUSH20 0xFFFFFFFFFFFFFFFFFFFFFFFFFFFFFFFFFFFFFFFF AND DUP3 PUSH20 0xFFFFFFFFFFFFFFFFFFFFFFFFFFFFFFFFFFFFFFFF AND PUSH32 0x78BB145EE492FE6A233227A728EED873E98371BCF51D46CE3A6827A300183552 PUSH1 0x40 MLOAD PUSH1 0x40 MLOAD DUP1 SWAP2 SUB SWAP1 LOG3 POP POP JUMP JUMPDEST PUSH1 0x2 PUSH1 0x20 MSTORE DUP1 PUSH1 0x0 MSTORE PUSH1 0x40 PUSH1 0x0 KECCAK256 PUSH1 0x0 SWAP2 POP SWAP1 POP DUP1 PUSH1 0x0 ADD PUSH1 0x0 SWAP1 SLOAD SWAP1 PUSH2 0x100 EXP SWAP1 DIV PUSH1 0xFF AND SWAP1 DUP1 PUSH1 0x0 ADD PUSH1 0x1 SWAP1 SLOAD SWAP1 PUSH2 0x100 EXP SWAP1 DIV PUSH1 0xFF AND SWAP1 DUP1 PUSH1 0x1 ADD SLOAD SWAP1 DUP1 PUSH1 0x2 ADD SLOAD SWAP1 DUP1 PUSH1 0x3 ADD SLOAD SWAP1 POP DUP6 JUMP JUMPDEST PUSH1 0x0 DUP1 PUSH1 0x0 PUSH1 0x6 SLOAD SWAP3 POP PUSH1 0x0 SWAP2 POP PUSH1 0x0 SWAP1 POP SWAP1 SWAP2 SWAP3 JUMP JUMPDEST PUSH1 0x5 PUSH1 0x0 SWAP1 SLOAD SWAP1 PUSH2 0x100 EXP SWAP1 DIV PUSH20 0xFFFFFFFFFFFFFFFFFFFFFFFFFFFFFFFFFFFFFFFF AND PUSH20 0xFFFFFFFFFFFFFFFFFFFFFFFFFFFFFFFFFFFFFFFF AND CALLER PUSH20 0xFFFFFFFFFFFFFFFFFFFFFFFFFFFFFFFFFFFFFFFF AND EQ PUSH2 0x11F2 JUMPI PUSH1 0x40 MLOAD PUSH32 0x8C379A000000000000000000000000000000000000000000000000000000000 DUP2 MSTORE PUSH1 0x4 ADD PUSH2 0x11E9 SWAP1 PUSH2 0x378E JUMP JUMPDEST PUSH1 0x40 MLOAD DUP1 SWAP2 SUB SWAP1 REVERT JUMPDEST PUSH1 0x0 JUMPDEST DUP2 MLOAD DUP2 LT ISZERO PUSH2 0x12EC JUMPI PUSH1 0x1 PUSH1 0x4 PUSH1 0x0 DUP5 DUP5 DUP2 MLOAD DUP2 LT PUSH2 0x1217 JUMPI PUSH2 0x1216 PUSH2 0x395E JUMP JUMPDEST JUMPDEST PUSH1 0x20 MUL PUSH1 0x20 ADD ADD MLOAD PUSH20 0xFFFFFFFFFFFFFFFFFFFFFFFFFFFFFFFFFFFFFFFF AND PUSH20 0xFFFFFFFFFFFFFFFFFFFFFFFFFFFFFFFFFFFFFFFF AND DUP2 MSTORE PUSH1 0x20 ADD SWAP1 DUP2 MSTORE PUSH1 0x20 ADD PUSH1 0x0 KECCAK256 PUSH1 0x0 PUSH2 0x100 EXP DUP2 SLOAD DUP2 PUSH1 0xFF MUL NOT AND SWAP1 DUP4 ISZERO ISZERO MUL OR SWAP1 SSTORE POP DUP2 DUP2 DUP2 MLOAD DUP2 LT PUSH2 0x1283 JUMPI PUSH2 0x1282 PUSH2 0x395E JUMP JUMPDEST JUMPDEST PUSH1 0x20 MUL PUSH1 0x20 ADD ADD MLOAD PUSH20 0xFFFFFFFFFFFFFFFFFFFFFFFFFFFFFFFFFFFFFFFF AND PUSH32 0x8E3F06F96EEAFBDA3E9DA0DE573D78B3AEB414ABBDA7CC39F04DCB9E9EE926B4 PUSH1 0x1 PUSH1 0x40 MLOAD PUSH2 0x12D1 SWAP2 SWAP1 PUSH2 0x2CC2 JUMP JUMPDEST PUSH1 0x40 MLOAD DUP1 SWAP2 SUB SWAP1 LOG2 DUP1 DUP1 PUSH2 0x12E4 SWAP1 PUSH2 0x3603 JUMP JUMPDEST SWAP2 POP POP PUSH2 0x11F5 JUMP JUMPDEST POP POP JUMP JUMPDEST PUSH2 0x12F8 PUSH2 0x2859 JUMP JUMPDEST PUSH2 0x1300 PUSH2 0x28AA JUMP JUMPDEST PUSH2 0x1308 PUSH2 0x28F4 JUMP JUMPDEST DUP4 PUSH1 0x0 DUP1 DUP3 PUSH20 0xFFFFFFFFFFFFFFFFFFFFFFFFFFFFFFFFFFFFFFFF AND PUSH20 0xFFFFFFFFFFFFFFFFFFFFFFFFFFFFFFFFFFFFFFFF AND DUP2 MSTORE PUSH1 0x20 ADD SWAP1 DUP2 MSTORE PUSH1 0x20 ADD PUSH1 0x0 KECCAK256 PUSH1 0x3 ADD PUSH1 0x0 SWAP1 SLOAD SWAP1 PUSH2 0x100 EXP SWAP1 DIV PUSH1 0xFF AND PUSH2 0x1397 JUMPI PUSH1 0x40 MLOAD PUSH32 0x8C379A000000000000000000000000000000000000000000000000000000000 DUP2 MSTORE PUSH1 0x4 ADD PUSH2 0x138E SWAP1 PUSH2 0x36C1 JUMP JUMPDEST PUSH1 0x40 MLOAD DUP1 SWAP2 SUB SWAP1 REVERT JUMPDEST PUSH1 0x0 DUP1 DUP7 PUSH20 0xFFFFFFFFFFFFFFFFFFFFFFFFFFFFFFFFFFFFFFFF AND PUSH20 0xFFFFFFFFFFFFFFFFFFFFFFFFFFFFFFFFFFFFFFFF AND DUP2 MSTORE PUSH1 0x20 ADD SWAP1 DUP2 MSTORE PUSH1 0x20 ADD PUSH1 0x0 KECCAK256 PUSH1 0x1 PUSH1 0x0 DUP8 PUSH20 0xFFFFFFFFFFFFFFFFFFFFFFFFFFFFFFFFFFFFFFFF AND PUSH20 0xFFFFFFFFFFFFFFFFFFFFFFFFFFFFFFFFFFFFFFFF AND DUP2 MSTORE PUSH1 0x20 ADD SWAP1 DUP2 MSTORE PUSH1 0x20 ADD PUSH1 0x0 KECCAK256 PUSH1 0x2 PUSH1 0x0 DUP9 PUSH20 0xFFFFFFFFFFFFFFFFFFFFFFFFFFFFFFFFFFFFFFFF AND PUSH20 0xFFFFFFFFFFFFFFFFFFFFFFFFFFFFFFFFFFFFFFFF AND DUP2 MSTORE PUSH1 0x20 ADD SWAP1 DUP2 MSTORE PUSH1 0x20 ADD PUSH1 0x0 KECCAK256 DUP3 PUSH1 0x40 MLOAD DUP1 PUSH1 0xC0 ADD PUSH1 0x40 MSTORE SWAP1 DUP2 PUSH1 0x0 DUP3 ADD PUSH1 0x0 SWAP1 SLOAD SWAP1 PUSH2 0x100 EXP SWAP1 DIV PUSH20 0xFFFFFFFFFFFFFFFFFFFFFFFFFFFFFFFFFFFFFFFF AND PUSH20 0xFFFFFFFFFFFFFFFFFFFFFFFFFFFFFFFFFFFFFFFF AND PUSH20 0xFFFFFFFFFFFFFFFFFFFFFFFFFFFFFFFFFFFFFFFF AND DUP2 MSTORE PUSH1 0x20 ADD PUSH1 0x1 DUP3 ADD DUP1 SLOAD PUSH2 0x14C5 SWAP1 PUSH2 0x3710 JUMP JUMPDEST DUP1 PUSH1 0x1F ADD PUSH1 0x20 DUP1 SWAP2 DIV MUL PUSH1 0x20 ADD PUSH1 0x40 MLOAD SWAP1 DUP2 ADD PUSH1 0x40 MSTORE DUP1 SWAP3 SWAP2 SWAP1 DUP2 DUP2 MSTORE PUSH1 0x20 ADD DUP3 DUP1 SLOAD PUSH2 0x14F1 SWAP1 PUSH2 0x3710 JUMP JUMPDEST DUP1 ISZERO PUSH2 0x153E JUMPI DUP1 PUSH1 0x1F LT PUSH2 0x1513 JUMPI PUSH2 0x100 DUP1 DUP4 SLOAD DIV MUL DUP4 MSTORE SWAP2 PUSH1 0x20 ADD SWAP2 PUSH2 0x153E JUMP JUMPDEST DUP3 ADD SWAP2 SWAP1 PUSH1 0x0 MSTORE PUSH1 0x20 PUSH1 0x0 KECCAK256 SWAP1 JUMPDEST DUP2 SLOAD DUP2 MSTORE SWAP1 PUSH1 0x1 ADD SWAP1 PUSH1 0x20 ADD DUP1 DUP4 GT PUSH2 0x1521 JUMPI DUP3 SWAP1 SUB PUSH1 0x1F AND DUP3 ADD SWAP2 JUMPDEST POP POP POP POP POP DUP2 MSTORE PUSH1 0x20 ADD PUSH1 0x2 DUP3 ADD SLOAD DUP2 MSTORE PUSH1 0x20 ADD PUSH1 0x3 DUP3 ADD PUSH1 0x0 SWAP1 SLOAD SWAP1 PUSH2 0x100 EXP SWAP1 DIV PUSH1 0xFF AND ISZERO ISZERO ISZERO ISZERO DUP2 MSTORE PUSH1 0x20 ADD PUSH1 0x4 DUP3 ADD SLOAD DUP2 MSTORE PUSH1 0x20 ADD PUSH1 0x5 DUP3 ADD SLOAD DUP2 MSTORE POP POP SWAP3 POP DUP2 PUSH1 0x40 MLOAD DUP1 PUSH1 0xA0 ADD PUSH1 0x40 MSTORE SWAP1 DUP2 PUSH1 0x0 DUP3 ADD PUSH1 0x0 SWAP1 SLOAD SWAP1 PUSH2 0x100 EXP SWAP1 DIV PUSH1 0xFF AND ISZERO ISZERO ISZERO ISZERO DUP2 MSTORE PUSH1 0x20 ADD PUSH1 0x1 DUP3 ADD SLOAD DUP2 MSTORE PUSH1 0x20 ADD PUSH1 0x2 DUP3 ADD SLOAD DUP2 MSTORE PUSH1 0x20 ADD PUSH1 0x3 DUP3 ADD SLOAD DUP2 MSTORE PUSH1 0x20 ADD PUSH1 0x4 DUP3 ADD PUSH1 0x0 SWAP1 SLOAD SWAP1 PUSH2 0x100 EXP SWAP1 DIV PUSH20 0xFFFFFFFFFFFFFFFFFFFFFFFFFFFFFFFFFFFFFFFF AND PUSH20 0xFFFFFFFFFFFFFFFFFFFFFFFFFFFFFFFFFFFFFFFF AND PUSH20 0xFFFFFFFFFFFFFFFFFFFFFFFFFFFFFFFFFFFFFFFF AND DUP2 MSTORE POP POP SWAP2 POP DUP1 PUSH1 0x40 MLOAD DUP1 PUSH1 0xA0 ADD PUSH1 0x40 MSTORE SWAP1 DUP2 PUSH1 0x0 DUP3 ADD PUSH1 0x0 SWAP1 SLOAD SWAP1 PUSH2 0x100 EXP SWAP1 DIV PUSH1 0xFF AND ISZERO ISZERO ISZERO ISZERO DUP2 MSTORE PUSH1 0x20 ADD PUSH1 0x0 DUP3 ADD PUSH1 0x1 SWAP1 SLOAD SWAP1 PUSH2 0x100 EXP SWAP1 DIV PUSH1 0xFF AND ISZERO ISZERO ISZERO ISZERO DUP2 MSTORE PUSH1 0x20 ADD PUSH1 0x1 DUP3 ADD SLOAD DUP2 MSTORE PUSH1 0x20 ADD PUSH1 0x2 DUP3 ADD SLOAD DUP2 MSTORE PUSH1 0x20 ADD PUSH1 0x3 DUP3 ADD SLOAD DUP2 MSTORE POP POP SWAP1 POP SWAP4 POP SWAP4 POP SWAP4 POP POP SWAP2 SWAP4 SWAP1 SWAP3 POP JUMP JUMPDEST PUSH1 0x0 PUSH1 0x3 PUSH1 0x0 DUP4 DUP2 MSTORE PUSH1 0x20 ADD SWAP1 DUP2 MSTORE PUSH1 0x20 ADD PUSH1 0x0 KECCAK256 PUSH1 0x0 SWAP1 SLOAD SWAP1 PUSH2 0x100 EXP SWAP1 DIV PUSH20 0xFFFFFFFFFFFFFFFFFFFFFFFFFFFFFFFFFFFFFFFF AND SWAP1 POP SWAP2 SWAP1 POP JUMP JUMPDEST PUSH1 0x0 DUP1 DUP4 PUSH20 0xFFFFFFFFFFFFFFFFFFFFFFFFFFFFFFFFFFFFFFFF AND PUSH20 0xFFFFFFFFFFFFFFFFFFFFFFFFFFFFFFFFFFFFFFFF AND DUP2 MSTORE PUSH1 0x20 ADD SWAP1 DUP2 MSTORE PUSH1 0x20 ADD PUSH1 0x0 KECCAK256 PUSH1 0x3 ADD PUSH1 0x0 SWAP1 SLOAD SWAP1 PUSH2 0x100 EXP SWAP1 DIV PUSH1 0xFF AND PUSH2 0x175A JUMPI PUSH1 0x40 MLOAD PUSH32 0x8C379A000000000000000000000000000000000000000000000000000000000 DUP2 MSTORE PUSH1 0x4 ADD PUSH2 0x1751 SWAP1 PUSH2 0x36C1 JUMP JUMPDEST PUSH1 0x40 MLOAD DUP1 SWAP2 SUB SWAP1 REVERT JUMPDEST PUSH1 0x0 PUSH1 0x2 PUSH1 0x0 DUP5 PUSH20 0xFFFFFFFFFFFFFFFFFFFFFFFFFFFFFFFFFFFFFFFF AND PUSH20 0xFFFFFFFFFFFFFFFFFFFFFFFFFFFFFFFFFFFFFFFF AND DUP2 MSTORE PUSH1 0x20 ADD SWAP1 DUP2 MSTORE PUSH1 0x20 ADD PUSH1 0x0 KECCAK256 SWAP1 POP PUSH1 0x0 PUSH3 0x15180 TIMESTAMP PUSH2 0x17AE SWAP2 SWAP1 PUSH2 0x35D2 JUMP JUMPDEST SWAP1 POP DUP2 PUSH1 0x3 ADD SLOAD DUP2 GT ISZERO PUSH2 0x17D3 JUMPI DUP3 DUP3 PUSH1 0x2 ADD DUP2 SWAP1 SSTORE POP DUP1 DUP3 PUSH1 0x3 ADD DUP2 SWAP1 SSTORE POP PUSH2 0x17EF JUMP JUMPDEST DUP3 DUP3 PUSH1 0x2 ADD PUSH1 0x0 DUP3 DUP3 SLOAD PUSH2 0x17E7 SWAP2 SWAP1 PUSH2 0x398D JUMP JUMPDEST SWAP3 POP POP DUP2 SWAP1 SSTORE POP JUMPDEST POP POP POP POP JUMP JUMPDEST CALLER PUSH1 0x0 DUP1 DUP3 PUSH20 0xFFFFFFFFFFFFFFFFFFFFFFFFFFFFFFFFFFFFFFFF AND PUSH20 0xFFFFFFFFFFFFFFFFFFFFFFFFFFFFFFFFFFFFFFFF AND DUP2 MSTORE PUSH1 0x20 ADD SWAP1 DUP2 MSTORE PUSH1 0x20 ADD PUSH1 0x0 KECCAK256 PUSH1 0x3 ADD PUSH1 0x0 SWAP1 SLOAD SWAP1 PUSH2 0x100 EXP SWAP1 DIV PUSH1 0xFF AND PUSH2 0x1884 JUMPI PUSH1 0x40 MLOAD PUSH32 0x8C379A000000000000000000000000000000000000000000000000000000000 DUP2 MSTORE PUSH1 0x4 ADD PUSH2 0x187B SWAP1 PUSH2 0x36C1 JUMP JUMPDEST PUSH1 0x40 MLOAD DUP1 SWAP2 SUB SWAP1 REVERT JUMPDEST PUSH1 0x0 DUP3 MLOAD GT PUSH2 0x18C8 JUMPI PUSH1 0x40 MLOAD PUSH32 0x8C379A000000000000000000000000000000000000000000000000000000000 DUP2 MSTORE PUSH1 0x4 ADD PUSH2 0x18BF SWAP1 PUSH2 0x347C JUMP JUMPDEST PUSH1 0x40 MLOAD DUP1 SWAP2 SUB SWAP1 REVERT JUMPDEST PUSH2 0xBB8 DUP3 MLOAD GT ISZERO PUSH2 0x190E JUMPI PUSH1 0x40 MLOAD PUSH32 0x8C379A000000000000000000000000000000000000000000000000000000000 DUP2 MSTORE PUSH1 0x4 ADD PUSH2 0x1905 SWAP1 PUSH2 0x34E8 JUMP JUMPDEST PUSH1 0x40 MLOAD DUP1 SWAP2 SUB SWAP1 REVERT JUMPDEST PUSH1 0x0 DUP3 DUP1 MLOAD SWAP1 PUSH1 0x20 ADD KECCAK256 SWAP1 POP PUSH1 0x0 PUSH20 0xFFFFFFFFFFFFFFFFFFFFFFFFFFFFFFFFFFFFFFFF AND PUSH1 0x3 PUSH1 0x0 DUP4 DUP2 MSTORE PUSH1 0x20 ADD SWAP1 DUP2 MSTORE PUSH1 0x20 ADD PUSH1 0x0 KECCAK256 PUSH1 0x0 SWAP1 SLOAD SWAP1 PUSH2 0x100 EXP SWAP1 DIV PUSH20 0xFFFFFFFFFFFFFFFFFFFFFFFFFFFFFFFFFFFFFFFF AND PUSH20 0xFFFFFFFFFFFFFFFFFFFFFFFFFFFFFFFFFFFFFFFF AND EQ PUSH2 0x19BC JUMPI PUSH1 0x40 MLOAD PUSH32 0x8C379A000000000000000000000000000000000000000000000000000000000 DUP2 MSTORE PUSH1 0x4 ADD PUSH2 0x19B3 SWAP1 PUSH2 0x3A2F JUMP JUMPDEST PUSH1 0x40 MLOAD DUP1 SWAP2 SUB SWAP1 REVERT JUMPDEST PUSH1 0x0 DUP1 PUSH1 0x0 CALLER PUSH20 0xFFFFFFFFFFFFFFFFFFFFFFFFFFFFFFFFFFFFFFFF AND PUSH20 0xFFFFFFFFFFFFFFFFFFFFFFFFFFFFFFFFFFFFFFFF AND DUP2 MSTORE PUSH1 0x20 ADD SWAP1 DUP2 MSTORE PUSH1 0x20 ADD PUSH1 0x0 KECCAK256 SWAP1 POP PUSH1 0x0 DUP2 PUSH1 0x2 ADD SLOAD SWAP1 POP PUSH1 0x3 PUSH1 0x0 DUP3 DUP2 MSTORE PUSH1 0x20 ADD SWAP1 DUP2 MSTORE PUSH1 0x20 ADD PUSH1 0x0 KECCAK256 PUSH1 0x0 PUSH2 0x100 EXP DUP2 SLOAD SWAP1 PUSH20 0xFFFFFFFFFFFFFFFFFFFFFFFFFFFFFFFFFFFFFFFF MUL NOT AND SWAP1 SSTORE DUP5 DUP3 PUSH1 0x1 ADD SWAP1 DUP1 MLOAD SWAP1 PUSH1 0x20 ADD SWAP1 PUSH2 0x1A55 SWAP3 SWAP2 SWAP1 PUSH2 0x27D3 JUMP JUMPDEST POP DUP3 DUP3 PUSH1 0x2 ADD DUP2 SWAP1 SSTORE POP TIMESTAMP DUP3 PUSH1 0x5 ADD DUP2 SWAP1 SSTORE POP CALLER PUSH1 0x3 PUSH1 0x0 DUP6 DUP2 MSTORE PUSH1 0x20 ADD SWAP1 DUP2 MSTORE PUSH1 0x20 ADD PUSH1 0x0 KECCAK256 PUSH1 0x0 PUSH2 0x100 EXP DUP2 SLOAD DUP2 PUSH20 0xFFFFFFFFFFFFFFFFFFFFFFFFFFFFFFFFFFFFFFFF MUL NOT AND SWAP1 DUP4 PUSH20 0xFFFFFFFFFFFFFFFFFFFFFFFFFFFFFFFFFFFFFFFF AND MUL OR SWAP1 SSTORE POP CALLER PUSH20 0xFFFFFFFFFFFFFFFFFFFFFFFFFFFFFFFFFFFFFFFF AND PUSH32 0xB18EADC99DA6BA0290E9F60CA54ED0471A7A7DCB6EE7373965B86C7DD7F96C66 DUP3 DUP6 TIMESTAMP PUSH1 0x40 MLOAD PUSH2 0x1B04 SWAP4 SWAP3 SWAP2 SWAP1 PUSH2 0x3A4F JUMP JUMPDEST PUSH1 0x40 MLOAD DUP1 SWAP2 SUB SWAP1 LOG2 POP POP POP POP POP JUMP JUMPDEST PUSH1 0x0 DUP1 PUSH1 0x0 DUP5 PUSH20 0xFFFFFFFFFFFFFFFFFFFFFFFFFFFFFFFFFFFFFFFF AND PUSH20 0xFFFFFFFFFFFFFFFFFFFFFFFFFFFFFFFFFFFFFFFF AND DUP2 MSTORE PUSH1 0x20 ADD SWAP1 DUP2 MSTORE PUSH1 0x20 ADD PUSH1 0x0 KECCAK256 PUSH1 0x3 ADD PUSH1 0x0 SWAP1 SLOAD SWAP1 PUSH2 0x100 EXP SWAP1 DIV PUSH1 0xFF AND PUSH2 0x1B71 JUMPI PUSH1 0x0 SWAP1 POP PUSH2 0x1C88 JUMP JUMPDEST PUSH2 0x1B7A DUP4 PUSH2 0x1E2E JUMP JUMPDEST PUSH2 0x1B87 JUMPI PUSH1 0x0 SWAP1 POP PUSH2 0x1C88 JUMP JUMPDEST PUSH1 0x0 PUSH1 0x2 PUSH1 0x0 DUP6 PUSH20 0xFFFFFFFFFFFFFFFFFFFFFFFFFFFFFFFFFFFFFFFF AND PUSH20 0xFFFFFFFFFFFFFFFFFFFFFFFFFFFFFFFFFFFFFFFF AND DUP2 MSTORE PUSH1 0x20 ADD SWAP1 DUP2 MSTORE PUSH1 0x20 ADD PUSH1 0x0 KECCAK256 PUSH1 0x40 MLOAD DUP1 PUSH1 0xA0 ADD PUSH1 0x40 MSTORE SWAP1 DUP2 PUSH1 0x0 DUP3 ADD PUSH1 0x0 SWAP1 SLOAD SWAP1 PUSH2 0x100 EXP SWAP1 DIV PUSH1 0xFF AND ISZERO ISZERO ISZERO ISZERO DUP2 MSTORE PUSH1 0x20 ADD PUSH1 0x0 DUP3 ADD PUSH1 0x1 SWAP1 SLOAD SWAP1 PUSH2 0x100 EXP SWAP1 DIV PUSH1 0xFF AND ISZERO ISZERO ISZERO ISZERO DUP2 MSTORE PUSH1 0x20 ADD PUSH1 0x1 DUP3 ADD SLOAD DUP2 MSTORE PUSH1 0x20 ADD PUSH1 0x2 DUP3 ADD SLOAD DUP2 MSTORE PUSH1 0x20 ADD PUSH1 0x3 DUP3 ADD SLOAD DUP2 MSTORE POP POP SWAP1 POP DUP1 PUSH1 0x0 ADD MLOAD PUSH2 0x1C3C JUMPI PUSH1 0x0 SWAP2 POP POP PUSH2 0x1C88 JUMP JUMPDEST PUSH1 0x0 PUSH3 0x15180 TIMESTAMP PUSH2 0x1C4D SWAP2 SWAP1 PUSH2 0x35D2 JUMP JUMPDEST SWAP1 POP DUP2 PUSH1 0x80 ADD MLOAD DUP2 GT ISZERO PUSH2 0x1C6C JUMPI DUP2 PUSH1 0x40 ADD MLOAD DUP5 GT ISZERO SWAP3 POP POP POP PUSH2 0x1C88 JUMP JUMPDEST DUP2 PUSH1 0x40 ADD MLOAD DUP5 DUP4 PUSH1 0x60 ADD MLOAD PUSH2 0x1C81 SWAP2 SWAP1 PUSH2 0x398D JUMP JUMPDEST GT ISZERO SWAP3 POP POP POP JUMPDEST SWAP3 SWAP2 POP POP JUMP JUMPDEST PUSH1 0x1 PUSH1 0x20 MSTORE DUP1 PUSH1 0x0 MSTORE PUSH1 0x40 PUSH1 0x0 KECCAK256 PUSH1 0x0 SWAP2 POP SWAP1 POP DUP1 PUSH1 0x0 ADD PUSH1 0x0 SWAP1 SLOAD SWAP1 PUSH2 0x100 EXP SWAP1 DIV PUSH1 0xFF AND SWAP1 DUP1 PUSH1 0x1 ADD SLOAD SWAP1 DUP1 PUSH1 0x2 ADD SLOAD SWAP1 DUP1 PUSH1 0x3 ADD SLOAD SWAP1 DUP1 PUSH1 0x4 ADD PUSH1 0x0 SWAP1 SLOAD SWAP1 PUSH2 0x100 EXP SWAP1 DIV PUSH20 0xFFFFFFFFFFFFFFFFFFFFFFFFFFFFFFFFFFFFFFFF AND SWAP1 POP DUP6 JUMP JUMPDEST PUSH1 0x5 PUSH1 0x0 SWAP1 SLOAD SWAP1 PUSH2 0x100 EXP SWAP1 DIV PUSH20 0xFFFFFFFFFFFFFFFFFFFFFFFFFFFFFFFFFFFFFFFF AND DUP2 JUMP JUMPDEST PUSH1 0x4 PUSH1 0x20 MSTORE DUP1 PUSH1 0x0 MSTORE PUSH1 0x40 PUSH1 0x0 KECCAK256 PUSH1 0x0 SWAP2 POP SLOAD SWAP1 PUSH2 0x100 EXP SWAP1 DIV PUSH1 0xFF AND DUP2 JUMP JUMPDEST PUSH1 0x0 PUSH1 0x20 MSTORE DUP1 PUSH1 0x0 MSTORE PUSH1 0x40 PUSH1 0x0 KECCAK256 PUSH1 0x0 SWAP2 POP SWAP1 POP DUP1 PUSH1 0x0 ADD PUSH1 0x0 SWAP1 SLOAD SWAP1 PUSH2 0x100 EXP SWAP1 DIV PUSH20 0xFFFFFFFFFFFFFFFFFFFFFFFFFFFFFFFFFFFFFFFF AND SWAP1 DUP1 PUSH1 0x1 ADD DUP1 SLOAD PUSH2 0x1D80 SWAP1 PUSH2 0x3710 JUMP JUMPDEST DUP1 PUSH1 0x1F ADD PUSH1 0x20 DUP1 SWAP2 DIV MUL PUSH1 0x20 ADD PUSH1 0x40 MLOAD SWAP1 DUP2 ADD PUSH1 0x40 MSTORE DUP1 SWAP3 SWAP2 SWAP1 DUP2 DUP2 MSTORE PUSH1 0x20 ADD DUP3 DUP1 SLOAD PUSH2 0x1DAC SWAP1 PUSH2 0x3710 JUMP JUMPDEST DUP1 ISZERO PUSH2 0x1DF9 JUMPI DUP1 PUSH1 0x1F LT PUSH2 0x1DCE JUMPI PUSH2 0x100 DUP1 DUP4 SLOAD DIV MUL DUP4 MSTORE SWAP2 PUSH1 0x20 ADD SWAP2 PUSH2 0x1DF9 JUMP JUMPDEST DUP3 ADD SWAP2 SWAP1 PUSH1 0x0 MSTORE PUSH1 0x20 PUSH1 0x0 KECCAK256 SWAP1 JUMPDEST DUP2 SLOAD DUP2 MSTORE SWAP1 PUSH1 0x1 ADD SWAP1 PUSH1 0x20 ADD DUP1 DUP4 GT PUSH2 0x1DDC JUMPI DUP3 SWAP1 SUB PUSH1 0x1F AND DUP3 ADD SWAP2 JUMPDEST POP POP POP POP POP SWAP1 DUP1 PUSH1 0x2 ADD SLOAD SWAP1 DUP1 PUSH1 0x3 ADD PUSH1 0x0 SWAP1 SLOAD SWAP1 PUSH2 0x100 EXP SWAP1 DIV PUSH1 0xFF AND SWAP1 DUP1 PUSH1 0x4 ADD SLOAD SWAP1 DUP1 PUSH1 0x5 ADD SLOAD SWAP1 POP DUP7 JUMP JUMPDEST PUSH1 0x6 SLOAD DUP2 JUMP JUMPDEST PUSH1 0x0 DUP1 PUSH1 0x1 PUSH1 0x0 DUP5 PUSH20 0xFFFFFFFFFFFFFFFFFFFFFFFFFFFFFFFFFFFFFFFF AND PUSH20 0xFFFFFFFFFFFFFFFFFFFFFFFFFFFFFFFFFFFFFFFF AND DUP2 MSTORE PUSH1 0x20 ADD SWAP1 DUP2 MSTORE PUSH1 0x20 ADD PUSH1 0x0 KECCAK256 PUSH1 0x40 MLOAD DUP1 PUSH1 0xA0 ADD PUSH1 0x40 MSTORE SWAP1 DUP2 PUSH1 0x0 DUP3 ADD PUSH1 0x0 SWAP1 SLOAD SWAP1 PUSH2 0x100 EXP SWAP1 DIV PUSH1 0xFF AND ISZERO ISZERO ISZERO ISZERO DUP2 MSTORE PUSH1 0x20 ADD PUSH1 0x1 DUP3 ADD SLOAD DUP2 MSTORE PUSH1 0x20 ADD PUSH1 0x2 DUP3 ADD SLOAD DUP2 MSTORE PUSH1 0x20 ADD PUSH1 0x3 DUP3 ADD SLOAD DUP2 MSTORE PUSH1 0x20 ADD PUSH1 0x4 DUP3 ADD PUSH1 0x0 SWAP1 SLOAD SWAP1 PUSH2 0x100 EXP SWAP1 DIV PUSH20 0xFFFFFFFFFFFFFFFFFFFFFFFFFFFFFFFFFFFFFFFF AND PUSH20 0xFFFFFFFFFFFFFFFFFFFFFFFFFFFFFFFFFFFFFFFF AND PUSH20 0xFFFFFFFFFFFFFFFFFFFFFFFFFFFFFFFFFFFFFFFF AND DUP2 MSTORE POP POP SWAP1 POP DUP1 PUSH1 0x0 ADD MLOAD DUP1 ISZERO PUSH2 0x1F20 JUMPI POP DUP1 PUSH1 0x40 ADD MLOAD TIMESTAMP LT JUMPDEST SWAP2 POP POP SWAP2 SWAP1 POP JUMP JUMPDEST PUSH1 0x3 PUSH1 0x20 MSTORE DUP1 PUSH1 0x0 MSTORE PUSH1 0x40 PUSH1 0x0 KECCAK256 PUSH1 0x0 SWAP2 POP SLOAD SWAP1 PUSH2 0x100 EXP SWAP1 DIV PUSH20 0xFFFFFFFFFFFFFFFFFFFFFFFFFFFFFFFFFFFFFFFF AND DUP2 JUMP JUMPDEST PUSH1 0x5 PUSH1 0x0 SWAP1 SLOAD SWAP1 PUSH2 0x100 EXP SWAP1 DIV PUSH20 0xFFFFFFFFFFFFFFFFFFFFFFFFFFFFFFFFFFFFFFFF AND PUSH20 0xFFFFFFFFFFFFFFFFFFFFFFFFFFFFFFFFFFFFFFFF AND CALLER PUSH20 0xFFFFFFFFFFFFFFFFFFFFFFFFFFFFFFFFFFFFFFFF AND EQ PUSH2 0x1FEB JUMPI PUSH1 0x40 MLOAD PUSH32 0x8C379A000000000000000000000000000000000000000000000000000000000 DUP2 MSTORE PUSH1 0x4 ADD PUSH2 0x1FE2 SWAP1 PUSH2 0x378E JUMP JUMPDEST PUSH1 0x40 MLOAD DUP1 SWAP2 SUB SWAP1 REVERT JUMPDEST PUSH1 0x0 PUSH20 0xFFFFFFFFFFFFFFFFFFFFFFFFFFFFFFFFFFFFFFFF AND DUP3 PUSH20 0xFFFFFFFFFFFFFFFFFFFFFFFFFFFFFFFFFFFFFFFF AND EQ ISZERO PUSH2 0x205B JUMPI PUSH1 0x40 MLOAD PUSH32 0x8C379A000000000000000000000000000000000000000000000000000000000 DUP2 MSTORE PUSH1 0x4 ADD PUSH2 0x2052 SWAP1 PUSH2 0x3AD2 JUMP JUMPDEST PUSH1 0x40 MLOAD DUP1 SWAP2 SUB SWAP1 REVERT JUMPDEST DUP1 PUSH1 0x4 PUSH1 0x0 DUP5 PUSH20 0xFFFFFFFFFFFFFFFFFFFFFFFFFFFFFFFFFFFFFFFF AND PUSH20 0xFFFFFFFFFFFFFFFFFFFFFFFFFFFFFFFFFFFFFFFF AND DUP2 MSTORE PUSH1 0x20 ADD SWAP1 DUP2 MSTORE PUSH1 0x20 ADD PUSH1 0x0 KECCAK256 PUSH1 0x0 PUSH2 0x100 EXP DUP2 SLOAD DUP2 PUSH1 0xFF MUL NOT AND SWAP1 DUP4 ISZERO ISZERO MUL OR SWAP1 SSTORE POP DUP2 PUSH20 0xFFFFFFFFFFFFFFFFFFFFFFFFFFFFFFFFFFFFFFFF AND PUSH32 0x8E3F06F96EEAFBDA3E9DA0DE573D78B3AEB414ABBDA7CC39F04DCB9E9EE926B4 DUP3 PUSH1 0x40 MLOAD PUSH2 0x20F8 SWAP2 SWAP1 PUSH2 0x2CC2 JUMP JUMPDEST PUSH1 0x40 MLOAD DUP1 SWAP2 SUB SWAP1 LOG2 POP POP JUMP JUMPDEST PUSH1 0x4 PUSH1 0x0 CALLER PUSH20 0xFFFFFFFFFFFFFFFFFFFFFFFFFFFFFFFFFFFFFFFF AND PUSH20 0xFFFFFFFFFFFFFFFFFFFFFFFFFFFFFFFFFFFFFFFF AND DUP2 MSTORE PUSH1 0x20 ADD SWAP1 DUP2 MSTORE PUSH1 0x20 ADD PUSH1 0x0 KECCAK256 PUSH1 0x0 SWAP1 SLOAD SWAP1 PUSH2 0x100 EXP SWAP1 DIV PUSH1 0xFF AND PUSH2 0x2190 JUMPI PUSH1 0x40 MLOAD PUSH32 0x8C379A000000000000000000000000000000000000000000000000000000000 DUP2 MSTORE PUSH1 0x4 ADD PUSH2 0x2187 SWAP1 PUSH2 0x38D2 JUMP JUMPDEST PUSH1 0x40 MLOAD DUP1 SWAP2 SUB SWAP1 REVERT JUMPDEST DUP3 PUSH1 0x0 DUP1 DUP3 PUSH20 0xFFFFFFFFFFFFFFFFFFFFFFFFFFFFFFFFFFFFFFFF AND PUSH20 0xFFFFFFFFFFFFFFFFFFFFFFFFFFFFFFFFFFFFFFFF AND DUP2 MSTORE PUSH1 0x20 ADD SWAP1 DUP2 MSTORE PUSH1 0x20 ADD PUSH1 0x0 KECCAK256 PUSH1 0x3 ADD PUSH1 0x0 SWAP1 SLOAD SWAP1 PUSH2 0x100 EXP SWAP1 DIV PUSH1 0xFF AND PUSH2 0x221F JUMPI PUSH1 0x40 MLOAD PUSH32 0x8C379A000000000000000000000000000000000000000000000000000000000 DUP2 MSTORE PUSH1 0x4 ADD PUSH2 0x2216 SWAP1 PUSH2 0x36C1 JUMP JUMPDEST PUSH1 0x40 MLOAD DUP1 SWAP2 SUB SWAP1 REVERT JUMPDEST PUSH1 0x0 DUP1 SHL DUP4 EQ ISZERO PUSH2 0x2265 JUMPI PUSH1 0x40 MLOAD PUSH32 0x8C379A000000000000000000000000000000000000000000000000000000000 DUP2 MSTORE PUSH1 0x4 ADD PUSH2 0x225C SWAP1 PUSH2 0x3B3E JUMP JUMPDEST PUSH1 0x40 MLOAD DUP1 SWAP2 SUB SWAP1 REVERT JUMPDEST PUSH1 0x0 DUP3 GT DUP1 ISZERO PUSH2 0x2277 JUMPI POP PUSH2 0x16D DUP3 GT ISZERO JUMPDEST PUSH2 0x22B6 JUMPI PUSH1 0x40 MLOAD PUSH32 0x8C379A000000000000000000000000000000000000000000000000000000000 DUP2 MSTORE PUSH1 0x4 ADD PUSH2 0x22AD SWAP1 PUSH2 0x3BAA JUMP JUMPDEST PUSH1 0x40 MLOAD DUP1 SWAP2 SUB SWAP1 REVERT JUMPDEST PUSH1 0x0 PUSH3 0x15180 DUP4 PUSH2 0x22C7 SWAP2 SWAP1 PUSH2 0x3BCA JUMP JUMPDEST TIMESTAMP PUSH2 0x22D2 SWAP2 SWAP1 PUSH2 0x398D JUMP JUMPDEST SWAP1 POP PUSH1 0x40 MLOAD DUP1 PUSH1 0xA0 ADD PUSH1 0x40 MSTORE DUP1 PUSH1 0x1 ISZERO ISZERO DUP2 MSTORE PUSH1 0x20 ADD TIMESTAMP DUP2 MSTORE PUSH1 0x20 ADD DUP3 DUP2 MSTORE PUSH1 0x20 ADD DUP6 DUP2 MSTORE PUSH1 0x20 ADD CALLER PUSH20 0xFFFFFFFFFFFFFFFFFFFFFFFFFFFFFFFFFFFFFFFF AND DUP2 MSTORE POP PUSH1 0x1 PUSH1 0x0 DUP8 PUSH20 0xFFFFFFFFFFFFFFFFFFFFFFFFFFFFFFFFFFFFFFFF AND PUSH20 0xFFFFFFFFFFFFFFFFFFFFFFFFFFFFFFFFFFFFFFFF AND DUP2 MSTORE PUSH1 0x20 ADD SWAP1 DUP2 MSTORE PUSH1 0x20 ADD PUSH1 0x0 KECCAK256 PUSH1 0x0 DUP3 ADD MLOAD DUP2 PUSH1 0x0 ADD PUSH1 0x0 PUSH2 0x100 EXP DUP2 SLOAD DUP2 PUSH1 0xFF MUL NOT AND SWAP1 DUP4 ISZERO ISZERO MUL OR SWAP1 SSTORE POP PUSH1 0x20 DUP3 ADD MLOAD DUP2 PUSH1 0x1 ADD SSTORE PUSH1 0x40 DUP3 ADD MLOAD DUP2 PUSH1 0x2 ADD SSTORE PUSH1 0x60 DUP3 ADD MLOAD DUP2 PUSH1 0x3 ADD SSTORE PUSH1 0x80 DUP3 ADD MLOAD DUP2 PUSH1 0x4 ADD PUSH1 0x0 PUSH2 0x100 EXP DUP2 SLOAD DUP2 PUSH20 0xFFFFFFFFFFFFFFFFFFFFFFFFFFFFFFFFFFFFFFFF MUL NOT AND SWAP1 DUP4 PUSH20 0xFFFFFFFFFFFFFFFFFFFFFFFFFFFFFFFFFFFFFFFF AND MUL OR SWAP1 SSTORE POP SWAP1 POP POP CALLER PUSH20 0xFFFFFFFFFFFFFFFFFFFFFFFFFFFFFFFFFFFFFFFF AND DUP6 PUSH20 0xFFFFFFFFFFFFFFFFFFFFFFFFFFFFFFFFFFFFFFFF AND PUSH32 0xD8B879062B804F0A2BD0B75BA02D6DBD9999FC9971ECE871C8D1AEDB447C5F93 DUP4 PUSH1 0x40 MLOAD PUSH2 0x2438 SWAP2 SWAP1 PUSH2 0x3272 JUMP JUMPDEST PUSH1 0x40 MLOAD DUP1 SWAP2 SUB SWAP1 LOG3 POP POP POP POP POP JUMP JUMPDEST PUSH1 0x5 PUSH1 0x0 SWAP1 SLOAD SWAP1 PUSH2 0x100 EXP SWAP1 DIV PUSH20 0xFFFFFFFFFFFFFFFFFFFFFFFFFFFFFFFFFFFFFFFF AND PUSH20 0xFFFFFFFFFFFFFFFFFFFFFFFFFFFFFFFFFFFFFFFF AND CALLER PUSH20 0xFFFFFFFFFFFFFFFFFFFFFFFFFFFFFFFFFFFFFFFF AND EQ PUSH2 0x24D7 JUMPI PUSH1 0x40 MLOAD PUSH32 0x8C379A000000000000000000000000000000000000000000000000000000000 DUP2 MSTORE PUSH1 0x4 ADD PUSH2 0x24CE SWAP1 PUSH2 0x378E JUMP JUMPDEST PUSH1 0x40 MLOAD DUP1 SWAP2 SUB SWAP1 REVERT JUMPDEST PUSH1 0x0 PUSH20 0xFFFFFFFFFFFFFFFFFFFFFFFFFFFFFFFFFFFFFFFF AND DUP2 PUSH20 0xFFFFFFFFFFFFFFFFFFFFFFFFFFFFFFFFFFFFFFFF AND EQ ISZERO PUSH2 0x2547 JUMPI PUSH1 0x40 MLOAD PUSH32 0x8C379A000000000000000000000000000000000000000000000000000000000 DUP2 MSTORE PUSH1 0x4 ADD PUSH2 0x253E SWAP1 PUSH2 0x3C70 JUMP JUMPDEST PUSH1 0x40 MLOAD DUP1 SWAP2 SUB SWAP1 REVERT JUMPDEST DUP1 PUSH1 0x5 PUSH1 0x0 PUSH2 0x100 EXP DUP2 SLOAD DUP2 PUSH20 0xFFFFFFFFFFFFFFFFFFFFFFFFFFFFFFFFFFFFFFFF MUL NOT AND SWAP1 DUP4 PUSH20 0xFFFFFFFFFFFFFFFFFFFFFFFFFFFFFFFFFFFFFFFF AND MUL OR SWAP1 SSTORE POP POP JUMP JUMPDEST PUSH1 0x4 PUSH1 0x0 CALLER PUSH20 0xFFFFFFFFFFFFFFFFFFFFFFFFFFFFFFFFFFFFFFFF AND PUSH20 0xFFFFFFFFFFFFFFFFFFFFFFFFFFFFFFFFFFFFFFFF AND DUP2 MSTORE PUSH1 0x20 ADD SWAP1 DUP2 MSTORE PUSH1 0x20 ADD PUSH1 0x0 KECCAK256 PUSH1 0x0 SWAP1 SLOAD SWAP1 PUSH2 0x100 EXP SWAP1 DIV PUSH1 0xFF AND PUSH2 0x2617 JUMPI PUSH1 0x40 MLOAD PUSH32 0x8C379A000000000000000000000000000000000000000000000000000000000 DUP2 MSTORE PUSH1 0x4 ADD PUSH2 0x260E SWAP1 PUSH2 0x38D2 JUMP JUMPDEST PUSH1 0x40 MLOAD DUP1 SWAP2 SUB SWAP1 REVERT JUMPDEST DUP4 PUSH1 0x0 DUP1 DUP3 PUSH20 0xFFFFFFFFFFFFFFFFFFFFFFFFFFFFFFFFFFFFFFFF AND PUSH20 0xFFFFFFFFFFFFFFFFFFFFFFFFFFFFFFFFFFFFFFFF AND DUP2 MSTORE PUSH1 0x20 ADD SWAP1 DUP2 MSTORE PUSH1 0x20 ADD PUSH1 0x0 KECCAK256 PUSH1 0x3 ADD PUSH1 0x0 SWAP1 SLOAD SWAP1 PUSH2 0x100 EXP SWAP1 DIV PUSH1 0xFF AND PUSH2 0x26A6 JUMPI PUSH1 0x40 MLOAD PUSH32 0x8C379A000000000000000000000000000000000000000000000000000000000 DUP2 MSTORE PUSH1 0x4 ADD PUSH2 0x269D SWAP1 PUSH2 0x36C1 JUMP JUMPDEST PUSH1 0x40 MLOAD DUP1 SWAP2 SUB SWAP1 REVERT JUMPDEST DUP4 ISZERO PUSH2 0x26F5 JUMPI PUSH2 0x26B5 DUP6 PUSH2 0x1E2E JUMP JUMPDEST PUSH2 0x26F4 JUMPI PUSH1 0x40 MLOAD PUSH32 0x8C379A000000000000000000000000000000000000000000000000000000000 DUP2 MSTORE PUSH1 0x4 ADD PUSH2 0x26EB SWAP1 PUSH2 0x3CDC JUMP JUMPDEST PUSH1 0x40 MLOAD DUP1 SWAP2 SUB SWAP1 REVERT JUMPDEST JUMPDEST PUSH1 0x0 PUSH1 0x2 PUSH1 0x0 DUP8 PUSH20 0xFFFFFFFFFFFFFFFFFFFFFFFFFFFFFFFFFFFFFFFF AND PUSH20 0xFFFFFFFFFFFFFFFFFFFFFFFFFFFFFFFFFFFFFFFF AND DUP2 MSTORE PUSH1 0x20 ADD SWAP1 DUP2 MSTORE PUSH1 0x20 ADD PUSH1 0x0 KECCAK256 SWAP1 POP DUP5 DUP2 PUSH1 0x0 ADD PUSH1 0x0 PUSH2 0x100 EXP DUP2 SLOAD DUP2 PUSH1 0xFF MUL NOT AND SWAP1 DUP4 ISZERO ISZERO MUL OR SWAP1 SSTORE POP DUP4 DUP2 PUSH1 0x0 ADD PUSH1 0x1 PUSH2 0x100 EXP DUP2 SLOAD DUP2 PUSH1 0xFF MUL NOT AND SWAP1 DUP4 ISZERO ISZERO MUL OR SWAP1 SSTORE POP DUP3 DUP2 PUSH1 0x1 ADD DUP2 SWAP1 SSTORE POP DUP6 PUSH20 0xFFFFFFFFFFFFFFFFFFFFFFFFFFFFFFFFFFFFFFFF AND PUSH32 0xE09F351285582300D5ADEECDD1C078EB70F18994DB120594DB4E76C72CA955F5 DUP7 DUP7 DUP7 PUSH1 0x40 MLOAD PUSH2 0x27C3 SWAP4 SWAP3 SWAP2 SWAP1 PUSH2 0x3CFC JUMP JUMPDEST PUSH1 0x40 MLOAD DUP1 SWAP2 SUB SWAP1 LOG2 POP POP POP POP POP POP JUMP JUMPDEST DUP3 DUP1 SLOAD PUSH2 0x27DF SWAP1 PUSH2 0x3710 JUMP JUMPDEST SWAP1 PUSH1 0x0 MSTORE PUSH1 0x20 PUSH1 0x0 KECCAK256 SWAP1 PUSH1 0x1F ADD PUSH1 0x20 SWAP1 DIV DUP2 ADD SWAP3 DUP3 PUSH2 0x2801 JUMPI PUSH1 0x0 DUP6 SSTORE PUSH2 0x2848 JUMP JUMPDEST DUP3 PUSH1 0x1F LT PUSH2 0x281A JUMPI DUP1 MLOAD PUSH1 0xFF NOT AND DUP4 DUP1 ADD OR DUP6 SSTORE PUSH2 0x2848 JUMP JUMPDEST DUP3 DUP1 ADD PUSH1 0x1 ADD DUP6 SSTORE DUP3 ISZERO PUSH2 0x2848 JUMPI SWAP2 DUP3 ADD JUMPDEST DUP3 DUP2 GT ISZERO PUSH2 0x2847 JUMPI DUP3 MLOAD DUP3 SSTORE SWAP2 PUSH1 0x20 ADD SWAP2 SWAP1 PUSH1 0x1 ADD SWAP1 PUSH2 0x282C JUMP JUMPDEST JUMPDEST POP SWAP1 POP PUSH2 0x2855 SWAP2 SWAP1 PUSH2 0x2927 JUMP JUMPDEST POP SWAP1 JUMP JUMPDEST PUSH1 0x40 MLOAD DUP1 PUSH1 0xC0 ADD PUSH1 0x40 MSTORE DUP1 PUSH1 0x0 PUSH20 0xFFFFFFFFFFFFFFFFFFFFFFFFFFFFFFFFFFFFFFFF AND DUP2 MSTORE PUSH1 0x20 ADD PUSH1 0x60 DUP2 MSTORE PUSH1 0x20 ADD PUSH1 0x0 DUP1 NOT AND DUP2 MSTORE PUSH1 0x20 ADD PUSH1 0x0 ISZERO ISZERO DUP2 MSTORE PUSH1 0x20 ADD PUSH1 0x0 DUP2 MSTORE PUSH1 0x20 ADD PUSH1 0x0 DUP2 MSTORE POP SWAP1 JUMP JUMPDEST PUSH1 0x40 MLOAD DUP1 PUSH1 0xA0 ADD PUSH1 0x40 MSTORE DUP1 PUSH1 0x0 ISZERO ISZERO DUP2 MSTORE PUSH1 0x20 ADD PUSH1 0x0 DUP2 MSTORE PUSH1 0x20 ADD PUSH1 0x0 DUP2 MSTORE PUSH1 0x20 ADD PUSH1 0x0 DUP1 NOT AND DUP2 MSTORE PUSH1 0x20 ADD PUSH1 0x0 PUSH20 0xFFFFFFFFFFFFFFFFFFFFFFFFFFFFFFFFFFFFFFFF AND DUP2 MSTORE POP SWAP1 JUMP JUMPDEST PUSH1 0x40 MLOAD DUP1 PUSH1 0xA0 ADD PUSH1 0x40 MSTORE DUP1 PUSH1 0x0 ISZERO ISZERO DUP2 MSTORE PUSH1 0x20 ADD PUSH1 0x0 ISZERO ISZERO DUP2 MSTORE PUSH1 0x20 ADD PUSH1 0x0 DUP2 MSTORE PUSH1 0x20 ADD PUSH1 0x0 DUP2 MSTORE PUSH1 0x20 ADD PUSH1 0x0 DUP2 MSTORE POP SWAP1 JUMP JUMPDEST JUMPDEST DUP1 DUP3 GT ISZERO PUSH2 0x2940 JUMPI PUSH1 0x0 DUP2 PUSH1 0x0 SWAP1 SSTORE POP PUSH1 0x1 ADD PUSH2 0x2928 JUMP JUMPDEST POP SWAP1 JUMP JUMPDEST PUSH1 0x0 PUSH1 0x40 MLOAD SWAP1 POP SWAP1 JUMP JUMPDEST PUSH1 0x0 DUP1 REVERT JUMPDEST PUSH1 0x0 DUP1 REVERT JUMPDEST PUSH1 0x0 DUP1 REVERT JUMPDEST PUSH1 0x0 DUP1 REVERT JUMPDEST PUSH1 0x0 PUSH1 0x1F NOT PUSH1 0x1F DUP4 ADD AND SWAP1 POP SWAP2 SWAP1 POP JUMP JUMPDEST PUSH32 0x4E487B7100000000000000000000000000000000000000000000000000000000 PUSH1 0x0 MSTORE PUSH1 0x41 PUSH1 0x4 MSTORE PUSH1 0x24 PUSH1 0x0 REVERT JUMPDEST PUSH2 0x29AB DUP3 PUSH2 0x2962 JUMP JUMPDEST DUP2 ADD DUP2 DUP2 LT PUSH8 0xFFFFFFFFFFFFFFFF DUP3 GT OR ISZERO PUSH2 0x29CA JUMPI PUSH2 0x29C9 PUSH2 0x2973 JUMP JUMPDEST JUMPDEST DUP1 PUSH1 0x40 MSTORE POP POP POP JUMP JUMPDEST PUSH1 0x0 PUSH2 0x29DD PUSH2 0x2944 JUMP JUMPDEST SWAP1 POP PUSH2 0x29E9 DUP3 DUP3 PUSH2 0x29A2 JUMP JUMPDEST SWAP2 SWAP1 POP JUMP JUMPDEST PUSH1 0x0 PUSH8 0xFFFFFFFFFFFFFFFF DUP3 GT ISZERO PUSH2 0x2A09 JUMPI PUSH2 0x2A08 PUSH2 0x2973 JUMP JUMPDEST JUMPDEST PUSH2 0x2A12 DUP3 PUSH2 0x2962 JUMP JUMPDEST SWAP1 POP PUSH1 0x20 DUP2 ADD SWAP1 POP SWAP2 SWAP1 POP JUMP JUMPDEST DUP3 DUP2 DUP4 CALLDATACOPY PUSH1 0x0 DUP4 DUP4 ADD MSTORE POP POP POP JUMP JUMPDEST PUSH1 0x0 PUSH2 0x2A41 PUSH2 0x2A3C DUP5 PUSH2 0x29EE JUMP JUMPDEST PUSH2 0x29D3 JUMP JUMPDEST SWAP1 POP DUP3 DUP2 MSTORE PUSH1 0x20 DUP2 ADD DUP5 DUP5 DUP5 ADD GT ISZERO PUSH2 0x2A5D JUMPI PUSH2 0x2A5C PUSH2 0x295D JUMP JUMPDEST JUMPDEST PUSH2 0x2A68 DUP5 DUP3 DUP6 PUSH2 0x2A1F JUMP JUMPDEST POP SWAP4 SWAP3 POP POP POP JUMP JUMPDEST PUSH1 0x0 DUP3 PUSH1 0x1F DUP4 ADD SLT PUSH2 0x2A85 JUMPI PUSH2 0x2A84 PUSH2 0x2958 JUMP JUMPDEST JUMPDEST DUP2 CALLDATALOAD PUSH2 0x2A95 DUP5 DUP3 PUSH1 0x20 DUP7 ADD PUSH2 0x2A2E JUMP JUMPDEST SWAP2 POP POP SWAP3 SWAP2 POP POP JUMP JUMPDEST PUSH1 0x0 PUSH1 0x20 DUP3 DUP5 SUB SLT ISZERO PUSH2 0x2AB4 JUMPI PUSH2 0x2AB3 PUSH2 0x294E JUMP JUMPDEST JUMPDEST PUSH1 0x0 DUP3 ADD CALLDATALOAD PUSH8 0xFFFFFFFFFFFFFFFF DUP2 GT ISZERO PUSH2 0x2AD2 JUMPI PUSH2 0x2AD1 PUSH2 0x2953 JUMP JUMPDEST JUMPDEST PUSH2 0x2ADE DUP5 DUP3 DUP6 ADD PUSH2 0x2A70 JUMP JUMPDEST SWAP2 POP POP SWAP3 SWAP2 POP POP JUMP JUMPDEST PUSH1 0x0 PUSH20 0xFFFFFFFFFFFFFFFFFFFFFFFFFFFFFFFFFFFFFFFF DUP3 AND SWAP1 POP SWAP2 SWAP1 POP JUMP JUMPDEST PUSH1 0x0 PUSH2 0x2B12 DUP3 PUSH2 0x2AE7 JUMP JUMPDEST SWAP1 POP SWAP2 SWAP1 POP JUMP JUMPDEST PUSH2 0x2B22 DUP2 PUSH2 0x2B07 JUMP JUMPDEST DUP2 EQ PUSH2 0x2B2D JUMPI PUSH1 0x0 DUP1 REVERT JUMPDEST POP JUMP JUMPDEST PUSH1 0x0 DUP2 CALLDATALOAD SWAP1 POP PUSH2 0x2B3F DUP2 PUSH2 0x2B19 JUMP JUMPDEST SWAP3 SWAP2 POP POP JUMP JUMPDEST PUSH1 0x0 PUSH1 0x20 DUP3 DUP5 SUB SLT ISZERO PUSH2 0x2B5B JUMPI PUSH2 0x2B5A PUSH2 0x294E JUMP JUMPDEST JUMPDEST PUSH1 0x0 PUSH2 0x2B69 DUP5 DUP3 DUP6 ADD PUSH2 0x2B30 JUMP JUMPDEST SWAP2 POP POP SWAP3 SWAP2 POP POP JUMP JUMPDEST PUSH1 0x0 DUP2 MLOAD SWAP1 POP SWAP2 SWAP1 POP JUMP JUMPDEST PUSH1 0x0 DUP3 DUP3 MSTORE PUSH1 0x20 DUP3 ADD SWAP1 POP SWAP3 SWAP2 POP POP JUMP JUMPDEST PUSH1 0x0 JUMPDEST DUP4 DUP2 LT ISZERO PUSH2 0x2BAC JUMPI DUP1 DUP3 ADD MLOAD DUP2 DUP5 ADD MSTORE PUSH1 0x20 DUP2 ADD SWAP1 POP PUSH2 0x2B91 JUMP JUMPDEST DUP4 DUP2 GT ISZERO PUSH2 0x2BBB JUMPI PUSH1 0x0 DUP5 DUP5 ADD MSTORE JUMPDEST POP POP POP POP JUMP JUMPDEST PUSH1 0x0 PUSH2 0x2BCC DUP3 PUSH2 0x2B72 JUMP JUMPDEST PUSH2 0x2BD6 DUP2 DUP6 PUSH2 0x2B7D JUMP JUMPDEST SWAP4 POP PUSH2 0x2BE6 DUP2 DUP6 PUSH1 0x20 DUP7 ADD PUSH2 0x2B8E JUMP JUMPDEST PUSH2 0x2BEF DUP2 PUSH2 0x2962 JUMP JUMPDEST DUP5 ADD SWAP2 POP POP SWAP3 SWAP2 POP POP JUMP JUMPDEST PUSH1 0x0 PUSH1 0x20 DUP3 ADD SWAP1 POP DUP2 DUP2 SUB PUSH1 0x0 DUP4 ADD MSTORE PUSH2 0x2C14 DUP2 DUP5 PUSH2 0x2BC1 JUMP JUMPDEST SWAP1 POP SWAP3 SWAP2 POP POP JUMP JUMPDEST PUSH1 0x0 DUP1 PUSH1 0x0 PUSH1 0x60 DUP5 DUP7 SUB SLT ISZERO PUSH2 0x2C35 JUMPI PUSH2 0x2C34 PUSH2 0x294E JUMP JUMPDEST JUMPDEST PUSH1 0x0 PUSH2 0x2C43 DUP7 DUP3 DUP8 ADD PUSH2 0x2B30 JUMP JUMPDEST SWAP4 POP POP PUSH1 0x20 DUP5 ADD CALLDATALOAD PUSH8 0xFFFFFFFFFFFFFFFF DUP2 GT ISZERO PUSH2 0x2C64 JUMPI PUSH2 0x2C63 PUSH2 0x2953 JUMP JUMPDEST JUMPDEST PUSH2 0x2C70 DUP7 DUP3 DUP8 ADD PUSH2 0x2A70 JUMP JUMPDEST SWAP3 POP POP PUSH1 0x40 DUP5 ADD CALLDATALOAD PUSH8 0xFFFFFFFFFFFFFFFF DUP2 GT ISZERO PUSH2 0x2C91 JUMPI PUSH2 0x2C90 PUSH2 0x2953 JUMP JUMPDEST JUMPDEST PUSH2 0x2C9D DUP7 DUP3 DUP8 ADD PUSH2 0x2A70 JUMP JUMPDEST SWAP2 POP POP SWAP3 POP SWAP3 POP SWAP3 JUMP JUMPDEST PUSH1 0x0 DUP2 ISZERO ISZERO SWAP1 POP SWAP2 SWAP1 POP JUMP JUMPDEST PUSH2 0x2CBC DUP2 PUSH2 0x2CA7 JUMP JUMPDEST DUP3 MSTORE POP POP JUMP JUMPDEST PUSH1 0x0 PUSH1 0x20 DUP3 ADD SWAP1 POP PUSH2 0x2CD7 PUSH1 0x0 DUP4 ADD DUP5 PUSH2 0x2CB3 JUMP JUMPDEST SWAP3 SWAP2 POP POP JUMP JUMPDEST PUSH1 0x0 DUP2 SWAP1 POP SWAP2 SWAP1 POP JUMP JUMPDEST PUSH2 0x2CF0 DUP2 PUSH2 0x2CDD JUMP JUMPDEST DUP3 MSTORE POP POP JUMP JUMPDEST PUSH1 0x0 PUSH1 0xA0 DUP3 ADD SWAP1 POP PUSH2 0x2D0B PUSH1 0x0 DUP4 ADD DUP9 PUSH2 0x2CB3 JUMP JUMPDEST PUSH2 0x2D18 PUSH1 0x20 DUP4 ADD DUP8 PUSH2 0x2CB3 JUMP JUMPDEST PUSH2 0x2D25 PUSH1 0x40 DUP4 ADD DUP7 PUSH2 0x2CE7 JUMP JUMPDEST PUSH2 0x2D32 PUSH1 0x60 DUP4 ADD DUP6 PUSH2 0x2CE7 JUMP JUMPDEST PUSH2 0x2D3F PUSH1 0x80 DUP4 ADD DUP5 PUSH2 0x2CE7 JUMP JUMPDEST SWAP7 SWAP6 POP POP POP POP POP POP JUMP JUMPDEST PUSH1 0x0 PUSH1 0x60 DUP3 ADD SWAP1 POP PUSH2 0x2D5E PUSH1 0x0 DUP4 ADD DUP7 PUSH2 0x2CE7 JUMP JUMPDEST PUSH2 0x2D6B PUSH1 0x20 DUP4 ADD DUP6 PUSH2 0x2CE7 JUMP JUMPDEST PUSH2 0x2D78 PUSH1 0x40 DUP4 ADD DUP5 PUSH2 0x2CE7 JUMP JUMPDEST SWAP5 SWAP4 POP POP POP POP JUMP JUMPDEST PUSH1 0x0 PUSH8 0xFFFFFFFFFFFFFFFF DUP3 GT ISZERO PUSH2 0x2D9B JUMPI PUSH2 0x2D9A PUSH2 0x2973 JUMP JUMPDEST JUMPDEST PUSH1 0x20 DUP3 MUL SWAP1 POP PUSH1 0x20 DUP2 ADD SWAP1 POP SWAP2 SWAP1 POP JUMP JUMPDEST PUSH1 0x0 DUP1 REVERT JUMPDEST PUSH1 0x0 PUSH2 0x2DC4 PUSH2 0x2DBF DUP5 PUSH2 0x2D80 JUMP JUMPDEST PUSH2 0x29D3 JUMP JUMPDEST SWAP1 POP DUP1 DUP4 DUP3 MSTORE PUSH1 0x20 DUP3 ADD SWAP1 POP PUSH1 0x20 DUP5 MUL DUP4 ADD DUP6 DUP2 GT ISZERO PUSH2 0x2DE7 JUMPI PUSH2 0x2DE6 PUSH2 0x2DAC JUMP JUMPDEST JUMPDEST DUP4 JUMPDEST DUP2 DUP2 LT ISZERO PUSH2 0x2E10 JUMPI DUP1 PUSH2 0x2DFC DUP9 DUP3 PUSH2 0x2B30 JUMP JUMPDEST DUP5 MSTORE PUSH1 0x20 DUP5 ADD SWAP4 POP POP PUSH1 0x20 DUP2 ADD SWAP1 POP PUSH2 0x2DE9 JUMP JUMPDEST POP POP POP SWAP4 SWAP3 POP POP POP JUMP JUMPDEST PUSH1 0x0 DUP3 PUSH1 0x1F DUP4 ADD SLT PUSH2 0x2E2F JUMPI PUSH2 0x2E2E PUSH2 0x2958 JUMP JUMPDEST JUMPDEST DUP2 CALLDATALOAD PUSH2 0x2E3F DUP5 DUP3 PUSH1 0x20 DUP7 ADD PUSH2 0x2DB1 JUMP JUMPDEST SWAP2 POP POP SWAP3 SWAP2 POP POP JUMP JUMPDEST PUSH1 0x0 PUSH1 0x20 DUP3 DUP5 SUB SLT ISZERO PUSH2 0x2E5E JUMPI PUSH2 0x2E5D PUSH2 0x294E JUMP JUMPDEST JUMPDEST PUSH1 0x0 DUP3 ADD CALLDATALOAD PUSH8 0xFFFFFFFFFFFFFFFF DUP2 GT ISZERO PUSH2 0x2E7C JUMPI PUSH2 0x2E7B PUSH2 0x2953 JUMP JUMPDEST JUMPDEST PUSH2 0x2E88 DUP5 DUP3 DUP6 ADD PUSH2 0x2E1A JUMP JUMPDEST SWAP2 POP POP SWAP3 SWAP2 POP POP JUMP JUMPDEST PUSH2 0x2E9A DUP2 PUSH2 0x2B07 JUMP JUMPDEST DUP3 MSTORE POP POP JUMP JUMPDEST PUSH1 0x0 DUP3 DUP3 MSTORE PUSH1 0x20 DUP3 ADD SWAP1 POP SWAP3 SWAP2 POP POP JUMP JUMPDEST PUSH1 0x0 PUSH2 0x2EBC DUP3 PUSH2 0x2B72 JUMP JUMPDEST PUSH2 0x2EC6 DUP2 DUP6 PUSH2 0x2EA0 JUMP JUMPDEST SWAP4 POP PUSH2 0x2ED6 DUP2 DUP6 PUSH1 0x20 DUP7 ADD PUSH2 0x2B8E JUMP JUMPDEST PUSH2 0x2EDF DUP2 PUSH2 0x2962 JUMP JUMPDEST DUP5 ADD SWAP2 POP POP SWAP3 SWAP2 POP POP JUMP JUMPDEST PUSH1 0x0 DUP2 SWAP1 POP SWAP2 SWAP1 POP JUMP JUMPDEST PUSH2 0x2EFD DUP2 PUSH2 0x2EEA JUMP JUMPDEST DUP3 MSTORE POP POP JUMP JUMPDEST PUSH2 0x2F0C DUP2 PUSH2 0x2CA7 JUMP JUMPDEST DUP3 MSTORE POP POP JUMP JUMPDEST PUSH2 0x2F1B DUP2 PUSH2 0x2CDD JUMP JUMPDEST DUP3 MSTORE POP POP JUMP JUMPDEST PUSH1 0x0 PUSH1 0xC0 DUP4 ADD PUSH1 0x0 DUP4 ADD MLOAD PUSH2 0x2F39 PUSH1 0x0 DUP7 ADD DUP3 PUSH2 0x2E91 JUMP JUMPDEST POP PUSH1 0x20 DUP4 ADD MLOAD DUP5 DUP3 SUB PUSH1 0x20 DUP7 ADD MSTORE PUSH2 0x2F51 DUP3 DUP3 PUSH2 0x2EB1 JUMP JUMPDEST SWAP2 POP POP PUSH1 0x40 DUP4 ADD MLOAD PUSH2 0x2F66 PUSH1 0x40 DUP7 ADD DUP3 PUSH2 0x2EF4 JUMP JUMPDEST POP PUSH1 0x60 DUP4 ADD MLOAD PUSH2 0x2F79 PUSH1 0x60 DUP7 ADD DUP3 PUSH2 0x2F03 JUMP JUMPDEST POP PUSH1 0x80 DUP4 ADD MLOAD PUSH2 0x2F8C PUSH1 0x80 DUP7 ADD DUP3 PUSH2 0x2F12 JUMP JUMPDEST POP PUSH1 0xA0 DUP4 ADD MLOAD PUSH2 0x2F9F PUSH1 0xA0 DUP7 ADD DUP3 PUSH2 0x2F12 JUMP JUMPDEST POP DUP1 SWAP2 POP POP SWAP3 SWAP2 POP POP JUMP JUMPDEST PUSH1 0xA0 DUP3 ADD PUSH1 0x0 DUP3 ADD MLOAD PUSH2 0x2FC0 PUSH1 0x0 DUP6 ADD DUP3 PUSH2 0x2F03 JUMP JUMPDEST POP PUSH1 0x20 DUP3 ADD MLOAD PUSH2 0x2FD3 PUSH1 0x20 DUP6 ADD DUP3 PUSH2 0x2F12 JUMP JUMPDEST POP PUSH1 0x40 DUP3 ADD MLOAD PUSH2 0x2FE6 PUSH1 0x40 DUP6 ADD DUP3 PUSH2 0x2F12 JUMP JUMPDEST POP PUSH1 0x60 DUP3 ADD MLOAD PUSH2 0x2FF9 PUSH1 0x60 DUP6 ADD DUP3 PUSH2 0x2EF4 JUMP JUMPDEST POP PUSH1 0x80 DUP3 ADD MLOAD PUSH2 0x300C PUSH1 0x80 DUP6 ADD DUP3 PUSH2 0x2E91 JUMP JUMPDEST POP POP POP POP JUMP JUMPDEST PUSH1 0xA0 DUP3 ADD PUSH1 0x0 DUP3 ADD MLOAD PUSH2 0x3028 PUSH1 0x0 DUP6 ADD DUP3 PUSH2 0x2F03 JUMP JUMPDEST POP PUSH1 0x20 DUP3 ADD MLOAD PUSH2 0x303B PUSH1 0x20 DUP6 ADD DUP3 PUSH2 0x2F03 JUMP JUMPDEST POP PUSH1 0x40 DUP3 ADD MLOAD PUSH2 0x304E PUSH1 0x40 DUP6 ADD DUP3 PUSH2 0x2F12 JUMP JUMPDEST POP PUSH1 0x60 DUP3 ADD MLOAD PUSH2 0x3061 PUSH1 0x60 DUP6 ADD DUP3 PUSH2 0x2F12 JUMP JUMPDEST POP PUSH1 0x80 DUP3 ADD MLOAD PUSH2 0x3074 PUSH1 0x80 DUP6 ADD DUP3 PUSH2 0x2F12 JUMP JUMPDEST POP POP POP POP JUMP JUMPDEST PUSH1 0x0 PUSH2 0x160 DUP3 ADD SWAP1 POP DUP2 DUP2 SUB PUSH1 0x0 DUP4 ADD MSTORE PUSH2 0x3095 DUP2 DUP7 PUSH2 0x2F21 JUMP JUMPDEST SWAP1 POP PUSH2 0x30A4 PUSH1 0x20 DUP4 ADD DUP6 PUSH2 0x2FAA JUMP JUMPDEST PUSH2 0x30B1 PUSH1 0xC0 DUP4 ADD DUP5 PUSH2 0x3012 JUMP JUMPDEST SWAP5 SWAP4 POP POP POP POP JUMP JUMPDEST PUSH2 0x30C2 DUP2 PUSH2 0x2EEA JUMP JUMPDEST DUP2 EQ PUSH2 0x30CD JUMPI PUSH1 0x0 DUP1 REVERT JUMPDEST POP JUMP JUMPDEST PUSH1 0x0 DUP2 CALLDATALOAD SWAP1 POP PUSH2 0x30DF DUP2 PUSH2 0x30B9 JUMP JUMPDEST SWAP3 SWAP2 POP POP JUMP JUMPDEST PUSH1 0x0 PUSH1 0x20 DUP3 DUP5 SUB SLT ISZERO PUSH2 0x30FB JUMPI PUSH2 0x30FA PUSH2 0x294E JUMP JUMPDEST JUMPDEST PUSH1 0x0 PUSH2 0x3109 DUP5 DUP3 DUP6 ADD PUSH2 0x30D0 JUMP JUMPDEST SWAP2 POP POP SWAP3 SWAP2 POP POP JUMP JUMPDEST PUSH2 0x311B DUP2 PUSH2 0x2B07 JUMP JUMPDEST DUP3 MSTORE POP POP JUMP JUMPDEST PUSH1 0x0 PUSH1 0x20 DUP3 ADD SWAP1 POP PUSH2 0x3136 PUSH1 0x0 DUP4 ADD DUP5 PUSH2 0x3112 JUMP JUMPDEST SWAP3 SWAP2 POP POP JUMP JUMPDEST PUSH2 0x3145 DUP2 PUSH2 0x2CDD JUMP JUMPDEST DUP2 EQ PUSH2 0x3150 JUMPI PUSH1 0x0 DUP1 REVERT JUMPDEST POP JUMP JUMPDEST PUSH1 0x0 DUP2 CALLDATALOAD SWAP1 POP PUSH2 0x3162 DUP2 PUSH2 0x313C JUMP JUMPDEST SWAP3 SWAP2 POP POP JUMP JUMPDEST PUSH1 0x0 DUP1 PUSH1 0x40 DUP4 DUP6 SUB SLT ISZERO PUSH2 0x317F JUMPI PUSH2 0x317E PUSH2 0x294E JUMP JUMPDEST JUMPDEST PUSH1 0x0 PUSH2 0x318D DUP6 DUP3 DUP7 ADD PUSH2 0x2B30 JUMP JUMPDEST SWAP3 POP POP PUSH1 0x20 PUSH2 0x319E DUP6 DUP3 DUP7 ADD PUSH2 0x3153 JUMP JUMPDEST SWAP2 POP POP SWAP3 POP SWAP3 SWAP1 POP JUMP JUMPDEST PUSH2 0x31B1 DUP2 PUSH2 0x2EEA JUMP JUMPDEST DUP3 MSTORE POP POP JUMP JUMPDEST PUSH1 0x0 PUSH1 0xA0 DUP3 ADD SWAP1 POP PUSH2 0x31CC PUSH1 0x0 DUP4 ADD DUP9 PUSH2 0x2CB3 JUMP JUMPDEST PUSH2 0x31D9 PUSH1 0x20 DUP4 ADD DUP8 PUSH2 0x2CE7 JUMP JUMPDEST PUSH2 0x31E6 PUSH1 0x40 DUP4 ADD DUP7 PUSH2 0x2CE7 JUMP JUMPDEST PUSH2 0x31F3 PUSH1 0x60 DUP4 ADD DUP6 PUSH2 0x31A8 JUMP JUMPDEST PUSH2 0x3200 PUSH1 0x80 DUP4 ADD DUP5 PUSH2 0x3112 JUMP JUMPDEST SWAP7 SWAP6 POP POP POP POP POP POP JUMP JUMPDEST PUSH1 0x0 PUSH1 0xC0 DUP3 ADD SWAP1 POP PUSH2 0x321F PUSH1 0x0 DUP4 ADD DUP10 PUSH2 0x3112 JUMP JUMPDEST DUP2 DUP2 SUB PUSH1 0x20 DUP4 ADD MSTORE PUSH2 0x3231 DUP2 DUP9 PUSH2 0x2BC1 JUMP JUMPDEST SWAP1 POP PUSH2 0x3240 PUSH1 0x40 DUP4 ADD DUP8 PUSH2 0x31A8 JUMP JUMPDEST PUSH2 0x324D PUSH1 0x60 DUP4 ADD DUP7 PUSH2 0x2CB3 JUMP JUMPDEST PUSH2 0x325A PUSH1 0x80 DUP4 ADD DUP6 PUSH2 0x2CE7 JUMP JUMPDEST PUSH2 0x3267 PUSH1 0xA0 DUP4 ADD DUP5 PUSH2 0x2CE7 JUMP JUMPDEST SWAP8 SWAP7 POP POP POP POP POP POP POP JUMP JUMPDEST PUSH1 0x0 PUSH1 0x20 DUP3 ADD SWAP1 POP PUSH2 0x3287 PUSH1 0x0 DUP4 ADD DUP5 PUSH2 0x2CE7 JUMP JUMPDEST SWAP3 SWAP2 POP POP JUMP JUMPDEST PUSH2 0x3296 DUP2 PUSH2 0x2CA7 JUMP JUMPDEST DUP2 EQ PUSH2 0x32A1 JUMPI PUSH1 0x0 DUP1 REVERT JUMPDEST POP JUMP JUMPDEST PUSH1 0x0 DUP2 CALLDATALOAD SWAP1 POP PUSH2 0x32B3 DUP2 PUSH2 0x328D JUMP JUMPDEST SWAP3 SWAP2 POP POP JUMP JUMPDEST PUSH1 0x0 DUP1 PUSH1 0x40 DUP4 DUP6 SUB SLT ISZERO PUSH2 0x32D0 JUMPI PUSH2 0x32CF PUSH2 0x294E JUMP JUMPDEST JUMPDEST PUSH1 0x0 PUSH2 0x32DE DUP6 DUP3 DUP7 ADD PUSH2 0x2B30 JUMP JUMPDEST SWAP3 POP POP PUSH1 0x20 PUSH2 0x32EF DUP6 DUP3 DUP7 ADD PUSH2 0x32A4 JUMP JUMPDEST SWAP2 POP POP SWAP3 POP SWAP3 SWAP1 POP JUMP JUMPDEST PUSH1 0x0 DUP1 PUSH1 0x0 PUSH1 0x60 DUP5 DUP7 SUB SLT ISZERO PUSH2 0x3312 JUMPI PUSH2 0x3311 PUSH2 0x294E JUMP JUMPDEST JUMPDEST PUSH1 0x0 PUSH2 0x3320 DUP7 DUP3 DUP8 ADD PUSH2 0x2B30 JUMP JUMPDEST SWAP4 POP POP PUSH1 0x20 PUSH2 0x3331 DUP7 DUP3 DUP8 ADD PUSH2 0x30D0 JUMP JUMPDEST SWAP3 POP POP PUSH1 0x40 PUSH2 0x3342 DUP7 DUP3 DUP8 ADD PUSH2 0x3153 JUMP JUMPDEST SWAP2 POP POP SWAP3 POP SWAP3 POP SWAP3 JUMP JUMPDEST PUSH1 0x0 DUP1 PUSH1 0x0 DUP1 PUSH1 0x80 DUP6 DUP8 SUB SLT ISZERO PUSH2 0x3366 JUMPI PUSH2 0x3365 PUSH2 0x294E JUMP JUMPDEST JUMPDEST PUSH1 0x0 PUSH2 0x3374 DUP8 DUP3 DUP9 ADD PUSH2 0x2B30 JUMP JUMPDEST SWAP5 POP POP PUSH1 0x20 PUSH2 0x3385 DUP8 DUP3 DUP9 ADD PUSH2 0x32A4 JUMP JUMPDEST SWAP4 POP POP PUSH1 0x40 PUSH2 0x3396 DUP8 DUP3 DUP9 ADD PUSH2 0x32A4 JUMP JUMPDEST SWAP3 POP POP PUSH1 0x60 PUSH2 0x33A7 DUP8 DUP3 DUP9 ADD PUSH2 0x3153 JUMP JUMPDEST SWAP2 POP POP SWAP3 SWAP6 SWAP2 SWAP5 POP SWAP3 POP JUMP JUMPDEST PUSH1 0x0 DUP3 DUP3 MSTORE PUSH1 0x20 DUP3 ADD SWAP1 POP SWAP3 SWAP2 POP POP JUMP JUMPDEST PUSH32 0x5573657220616C72656164792072656769737465726564000000000000000000 PUSH1 0x0 DUP3 ADD MSTORE POP JUMP JUMPDEST PUSH1 0x0 PUSH2 0x33FA PUSH1 0x17 DUP4 PUSH2 0x33B3 JUMP JUMPDEST SWAP2 POP PUSH2 0x3405 DUP3 PUSH2 0x33C4 JUMP JUMPDEST PUSH1 0x20 DUP3 ADD SWAP1 POP SWAP2 SWAP1 POP JUMP JUMPDEST PUSH1 0x0 PUSH1 0x20 DUP3 ADD SWAP1 POP DUP2 DUP2 SUB PUSH1 0x0 DUP4 ADD MSTORE PUSH2 0x3429 DUP2 PUSH2 0x33ED JUMP JUMPDEST SWAP1 POP SWAP2 SWAP1 POP JUMP JUMPDEST PUSH32 0x456D707479207075626C6963206B657900000000000000000000000000000000 PUSH1 0x0 DUP3 ADD MSTORE POP JUMP JUMPDEST PUSH1 0x0 PUSH2 0x3466 PUSH1 0x10 DUP4 PUSH2 0x33B3 JUMP JUMPDEST SWAP2 POP PUSH2 0x3471 DUP3 PUSH2 0x3430 JUMP JUMPDEST PUSH1 0x20 DUP3 ADD SWAP1 POP SWAP2 SWAP1 POP JUMP JUMPDEST PUSH1 0x0 PUSH1 0x20 DUP3 ADD SWAP1 POP DUP2 DUP2 SUB PUSH1 0x0 DUP4 ADD MSTORE PUSH2 0x3495 DUP2 PUSH2 0x3459 JUMP JUMPDEST SWAP1 POP SWAP2 SWAP1 POP JUMP JUMPDEST PUSH32 0x5075626C6963206B657920746F6F206C61726765000000000000000000000000 PUSH1 0x0 DUP3 ADD MSTORE POP JUMP JUMPDEST PUSH1 0x0 PUSH2 0x34D2 PUSH1 0x14 DUP4 PUSH2 0x33B3 JUMP JUMPDEST SWAP2 POP PUSH2 0x34DD DUP3 PUSH2 0x349C JUMP JUMPDEST PUSH1 0x20 DUP3 ADD SWAP1 POP SWAP2 SWAP1 POP JUMP JUMPDEST PUSH1 0x0 PUSH1 0x20 DUP3 ADD SWAP1 POP DUP2 DUP2 SUB PUSH1 0x0 DUP4 ADD MSTORE PUSH2 0x3501 DUP2 PUSH2 0x34C5 JUMP JUMPDEST SWAP1 POP SWAP2 SWAP1 POP JUMP JUMPDEST PUSH32 0x5075626C6963206B657920616C72656164792072656769737465726564000000 PUSH1 0x0 DUP3 ADD MSTORE POP JUMP JUMPDEST PUSH1 0x0 PUSH2 0x353E PUSH1 0x1D DUP4 PUSH2 0x33B3 JUMP JUMPDEST SWAP2 POP PUSH2 0x3549 DUP3 PUSH2 0x3508 JUMP JUMPDEST PUSH1 0x20 DUP3 ADD SWAP1 POP SWAP2 SWAP1 POP JUMP JUMPDEST PUSH1 0x0 PUSH1 0x20 DUP3 ADD SWAP1 POP DUP2 DUP2 SUB PUSH1 0x0 DUP4 ADD MSTORE PUSH2 0x356D DUP2 PUSH2 0x3531 JUMP JUMPDEST SWAP1 POP SWAP2 SWAP1 POP JUMP JUMPDEST PUSH32 0x4E487B7100000000000000000000000000000000000000000000000000000000 PUSH1 0x0 MSTORE PUSH1 0x12 PUSH1 0x4 MSTORE PUSH1 0x24 PUSH1 0x0 REVERT JUMPDEST PUSH32 0x4E487B7100000000000000000000000000000000000000000000000000000000 PUSH1 0x0 MSTORE PUSH1 0x11 PUSH1 0x4 MSTORE PUSH1 0x24 PUSH1 0x0 REVERT JUMPDEST PUSH1 0x0 PUSH2 0x35DD DUP3 PUSH2 0x2CDD JUMP JUMPDEST SWAP2 POP PUSH2 0x35E8 DUP4 PUSH2 0x2CDD JUMP JUMPDEST SWAP3 POP DUP3 PUSH2 0x35F8 JUMPI PUSH2 0x35F7 PUSH2 0x3574 JUMP JUMPDEST JUMPDEST DUP3 DUP3 DIV SWAP1 POP SWAP3 SWAP2 POP POP JUMP JUMPDEST PUSH1 0x0 PUSH2 0x360E DUP3 PUSH2 0x2CDD JUMP JUMPDEST SWAP2 POP PUSH32 0xFFFFFFFFFFFFFFFFFFFFFFFFFFFFFFFFFFFFFFFFFFFFFFFFFFFFFFFFFFFFFFFF DUP3 EQ ISZERO PUSH2 0x3641 JUMPI PUSH2 0x3640 PUSH2 0x35A3 JUMP JUMPDEST JUMPDEST PUSH1 0x1 DUP3 ADD SWAP1 POP SWAP2 SWAP1 POP JUMP JUMPDEST PUSH1 0x0 PUSH1 0x40 DUP3 ADD SWAP1 POP PUSH2 0x3661 PUSH1 0x0 DUP4 ADD DUP6 PUSH2 0x31A8 JUMP JUMPDEST PUSH2 0x366E PUSH1 0x20 DUP4 ADD DUP5 PUSH2 0x2CE7 JUMP JUMPDEST SWAP4 SWAP3 POP POP POP JUMP JUMPDEST PUSH32 0x55736572206E6F74207265676973746572656400000000000000000000000000 PUSH1 0x0 DUP3 ADD MSTORE POP JUMP JUMPDEST PUSH1 0x0 PUSH2 0x36AB PUSH1 0x13 DUP4 PUSH2 0x33B3 JUMP JUMPDEST SWAP2 POP PUSH2 0x36B6 DUP3 PUSH2 0x3675 JUMP JUMPDEST PUSH1 0x20 DUP3 ADD SWAP1 POP SWAP2 SWAP1 POP JUMP JUMPDEST PUSH1 0x0 PUSH1 0x20 DUP3 ADD SWAP1 POP DUP2 DUP2 SUB PUSH1 0x0 DUP4 ADD MSTORE PUSH2 0x36DA DUP2 PUSH2 0x369E JUMP JUMPDEST SWAP1 POP SWAP2 SWAP1 POP JUMP JUMPDEST PUSH32 0x4E487B7100000000000000000000000000000000000000000000000000000000 PUSH1 0x0 MSTORE PUSH1 0x22 PUSH1 0x4 MSTORE PUSH1 0x24 PUSH1 0x0 REVERT JUMPDEST PUSH1 0x0 PUSH1 0x2 DUP3 DIV SWAP1 POP PUSH1 0x1 DUP3 AND DUP1 PUSH2 0x3728 JUMPI PUSH1 0x7F DUP3 AND SWAP2 POP JUMPDEST PUSH1 0x20 DUP3 LT DUP2 EQ ISZERO PUSH2 0x373C JUMPI PUSH2 0x373B PUSH2 0x36E1 JUMP JUMPDEST JUMPDEST POP SWAP2 SWAP1 POP JUMP JUMPDEST PUSH32 0x4F6E6C79206F776E657200000000000000000000000000000000000000000000 PUSH1 0x0 DUP3 ADD MSTORE POP JUMP JUMPDEST PUSH1 0x0 PUSH2 0x3778 PUSH1 0xA DUP4 PUSH2 0x33B3 JUMP JUMPDEST SWAP2 POP PUSH2 0x3783 DUP3 PUSH2 0x3742 JUMP JUMPDEST PUSH1 0x20 DUP3 ADD SWAP1 POP SWAP2 SWAP1 POP JUMP JUMPDEST PUSH1 0x0 PUSH1 0x20 DUP3 ADD SWAP1 POP DUP2 DUP2 SUB PUSH1 0x0 DUP4 ADD MSTORE PUSH2 0x37A7 DUP2 PUSH2 0x376B JUMP JUMPDEST SWAP1 POP SWAP2 SWAP1 POP JUMP JUMPDEST PUSH32 0x456D707479206D65737361676500000000000000000000000000000000000000 PUSH1 0x0 DUP3 ADD MSTORE POP JUMP JUMPDEST PUSH1 0x0 PUSH2 0x37E4 PUSH1 0xD DUP4 PUSH2 0x33B3 JUMP JUMPDEST SWAP2 POP PUSH2 0x37EF DUP3 PUSH2 0x37AE JUMP JUMPDEST PUSH1 0x20 DUP3 ADD SWAP1 POP SWAP2 SWAP1 POP JUMP JUMPDEST PUSH1 0x0 PUSH1 0x20 DUP3 ADD SWAP1 POP DUP2 DUP2 SUB PUSH1 0x0 DUP4 ADD MSTORE PUSH2 0x3813 DUP2 PUSH2 0x37D7 JUMP JUMPDEST SWAP1 POP SWAP2 SWAP1 POP JUMP JUMPDEST PUSH32 0x456D707479207369676E61747572650000000000000000000000000000000000 PUSH1 0x0 DUP3 ADD MSTORE POP JUMP JUMPDEST PUSH1 0x0 PUSH2 0x3850 PUSH1 0xF DUP4 PUSH2 0x33B3 JUMP JUMPDEST SWAP2 POP PUSH2 0x385B DUP3 PUSH2 0x381A JUMP JUMPDEST PUSH1 0x20 DUP3 ADD SWAP1 POP SWAP2 SWAP1 POP JUMP JUMPDEST PUSH1 0x0 PUSH1 0x20 DUP3 ADD SWAP1 POP DUP2 DUP2 SUB PUSH1 0x0 DUP4 ADD MSTORE PUSH2 0x387F DUP2 PUSH2 0x3843 JUMP JUMPDEST SWAP1 POP SWAP2 SWAP1 POP JUMP JUMPDEST PUSH32 0x4F6E6C7920617574686F72697A65642062616E6B000000000000000000000000 PUSH1 0x0 DUP3 ADD MSTORE POP JUMP JUMPDEST PUSH1 0x0 PUSH2 0x38BC PUSH1 0x14 DUP4 PUSH2 0x33B3 JUMP JUMPDEST SWAP2 POP PUSH2 0x38C7 DUP3 PUSH2 0x3886 JUMP JUMPDEST PUSH1 0x20 DUP3 ADD SWAP1 POP SWAP2 SWAP1 POP JUMP JUMPDEST PUSH1 0x0 PUSH1 0x20 DUP3 ADD SWAP1 POP DUP2 DUP2 SUB PUSH1 0x0 DUP4 ADD MSTORE PUSH2 0x38EB DUP2 PUSH2 0x38AF JUMP JUMPDEST SWAP1 POP SWAP2 SWAP1 POP JUMP JUMPDEST PUSH32 0x4B5943206E6F7420766572696669656400000000000000000000000000000000 PUSH1 0x0 DUP3 ADD MSTORE POP JUMP JUMPDEST PUSH1 0x0 PUSH2 0x3928 PUSH1 0x10 DUP4 PUSH2 0x33B3 JUMP JUMPDEST SWAP2 POP PUSH2 0x3933 DUP3 PUSH2 0x38F2 JUMP JUMPDEST PUSH1 0x20 DUP3 ADD SWAP1 POP SWAP2 SWAP1 POP JUMP JUMPDEST PUSH1 0x0 PUSH1 0x20 DUP3 ADD SWAP1 POP DUP2 DUP2 SUB PUSH1 0x0 DUP4 ADD MSTORE PUSH2 0x3957 DUP2 PUSH2 0x391B JUMP JUMPDEST SWAP1 POP SWAP2 SWAP1 POP JUMP JUMPDEST PUSH32 0x4E487B7100000000000000000000000000000000000000000000000000000000 PUSH1 0x0 MSTORE PUSH1 0x32 PUSH1 0x4 MSTORE PUSH1 0x24 PUSH1 0x0 REVERT JUMPDEST PUSH1 0x0 PUSH2 0x3998 DUP3 PUSH2 0x2CDD JUMP JUMPDEST SWAP2 POP PUSH2 0x39A3 DUP4 PUSH2 0x2CDD JUMP JUMPDEST SWAP3 POP DUP3 PUSH32 0xFFFFFFFFFFFFFFFFFFFFFFFFFFFFFFFFFFFFFFFFFFFFFFFFFFFFFFFFFFFFFFFF SUB DUP3 GT ISZERO PUSH2 0x39D8 JUMPI PUSH2 0x39D7 PUSH2 0x35A3 JUMP JUMPDEST JUMPDEST DUP3 DUP3 ADD SWAP1 POP SWAP3 SWAP2 POP POP JUMP JUMPDEST PUSH32 0x5075626C6963206B657920616C726561647920696E2075736500000000000000 PUSH1 0x0 DUP3 ADD MSTORE POP JUMP JUMPDEST PUSH1 0x0 PUSH2 0x3A19 PUSH1 0x19 DUP4 PUSH2 0x33B3 JUMP JUMPDEST SWAP2 POP PUSH2 0x3A24 DUP3 PUSH2 0x39E3 JUMP JUMPDEST PUSH1 0x20 DUP3 ADD SWAP1 POP SWAP2 SWAP1 POP JUMP JUMPDEST PUSH1 0x0 PUSH1 0x20 DUP3 ADD SWAP1 POP DUP2 DUP2 SUB PUSH1 0x0 DUP4 ADD MSTORE PUSH2 0x3A48 DUP2 PUSH2 0x3A0C JUMP JUMPDEST SWAP1 POP SWAP2 SWAP1 POP JUMP JUMPDEST PUSH1 0x0 PUSH1 0x60 DUP3 ADD SWAP1 POP PUSH2 0x3A64 PUSH1 0x0 DUP4 ADD DUP7 PUSH2 0x31A8 JUMP JUMPDEST PUSH2 0x3A71 PUSH1 0x20 DUP4 ADD DUP6 PUSH2 0x31A8 JUMP JUMPDEST PUSH2 0x3A7E PUSH1 0x40 DUP4 ADD DUP5 PUSH2 0x2CE7 JUMP JUMPDEST SWAP5 SWAP4 POP POP POP POP JUMP JUMPDEST PUSH32 0x496E76616C69642062616E6B2061646472657373000000000000000000000000 PUSH1 0x0 DUP3 ADD MSTORE POP JUMP JUMPDEST PUSH1 0x0 PUSH2 0x3ABC PUSH1 0x14 DUP4 PUSH2 0x33B3 JUMP JUMPDEST SWAP2 POP PUSH2 0x3AC7 DUP3 PUSH2 0x3A86 JUMP JUMPDEST PUSH1 0x20 DUP3 ADD SWAP1 POP SWAP2 SWAP1 POP JUMP JUMPDEST PUSH1 0x0 PUSH1 0x20 DUP3 ADD SWAP1 POP DUP2 DUP2 SUB PUSH1 0x0 DUP4 ADD MSTORE PUSH2 0x3AEB DUP2 PUSH2 0x3AAF JUMP JUMPDEST SWAP1 POP SWAP2 SWAP1 POP JUMP JUMPDEST PUSH32 0x496E76616C6964204B5943206861736800000000000000000000000000000000 PUSH1 0x0 DUP3 ADD MSTORE POP JUMP JUMPDEST PUSH1 0x0 PUSH2 0x3B28 PUSH1 0x10 DUP4 PUSH2 0x33B3 JUMP JUMPDEST SWAP2 POP PUSH2 0x3B33 DUP3 PUSH2 0x3AF2 JUMP JUMPDEST PUSH1 0x20 DUP3 ADD SWAP1 POP SWAP2 SWAP1 POP JUMP JUMPDEST PUSH1 0x0 PUSH1 0x20 DUP3 ADD SWAP1 POP DUP2 DUP2 SUB PUSH1 0x0 DUP4 ADD MSTORE PUSH2 0x3B57 DUP2 PUSH2 0x3B1B JUMP JUMPDEST SWAP1 POP SWAP2 SWAP1 POP JUMP JUMPDEST PUSH32 0x496E76616C69642076616C696469747920706572696F64000000000000000000 PUSH1 0x0 DUP3 ADD MSTORE POP JUMP JUMPDEST PUSH1 0x0 PUSH2 0x3B94 PUSH1 0x17 DUP4 PUSH2 0x33B3 JUMP JUMPDEST SWAP2 POP PUSH2 0x3B9F DUP3 PUSH2 0x3B5E JUMP JUMPDEST PUSH1 0x20 DUP3 ADD SWAP1 POP SWAP2 SWAP1 POP JUMP JUMPDEST PUSH1 0x0 PUSH1 0x20 DUP3 ADD SWAP1 POP DUP2 DUP2 SUB PUSH1 0x0 DUP4 ADD MSTORE PUSH2 0x3BC3 DUP2 PUSH2 0x3B87 JUMP JUMPDEST SWAP1 POP SWAP2 SWAP1 POP JUMP JUMPDEST PUSH1 0x0 PUSH2 0x3BD5 DUP3 PUSH2 0x2CDD JUMP JUMPDEST SWAP2 POP PUSH2 0x3BE0 DUP4 PUSH2 0x2CDD JUMP JUMPDEST SWAP3 POP DUP2 PUSH32 0xFFFFFFFFFFFFFFFFFFFFFFFFFFFFFFFFFFFFFFFFFFFFFFFFFFFFFFFFFFFFFFFF DIV DUP4 GT DUP3 ISZERO ISZERO AND ISZERO PUSH2 0x3C19 JUMPI PUSH2 0x3C18 PUSH2 0x35A3 JUMP JUMPDEST JUMPDEST DUP3 DUP3 MUL SWAP1 POP SWAP3 SWAP2 POP POP JUMP JUMPDEST PUSH32 0x496E76616C6964206E6577206F776E6572000000000000000000000000000000 PUSH1 0x0 DUP3 ADD MSTORE POP JUMP JUMPDEST PUSH1 0x0 PUSH2 0x3C5A PUSH1 0x11 DUP4 PUSH2 0x33B3 JUMP JUMPDEST SWAP2 POP PUSH2 0x3C65 DUP3 PUSH2 0x3C24 JUMP JUMPDEST PUSH1 0x20 DUP3 ADD SWAP1 POP SWAP2 SWAP1 POP JUMP JUMPDEST PUSH1 0x0 PUSH1 0x20 DUP3 ADD SWAP1 POP DUP2 DUP2 SUB PUSH1 0x0 DUP4 ADD MSTORE PUSH2 0x3C89 DUP2 PUSH2 0x3C4D JUMP JUMPDEST SWAP1 POP SWAP2 SWAP1 POP JUMP JUMPDEST PUSH32 0x4B5943206E6F742076616C696400000000000000000000000000000000000000 PUSH1 0x0 DUP3 ADD MSTORE POP JUMP JUMPDEST PUSH1 0x0 PUSH2 0x3CC6 PUSH1 0xD DUP4 PUSH2 0x33B3 JUMP JUMPDEST SWAP2 POP PUSH2 0x3CD1 DUP3 PUSH2 0x3C90 JUMP JUMPDEST PUSH1 0x20 DUP3 ADD SWAP1 POP SWAP2 SWAP1 POP JUMP JUMPDEST PUSH1 0x0 PUSH1 0x20 DUP3 ADD SWAP1 POP DUP2 DUP2 SUB PUSH1 0x0 DUP4 ADD MSTORE PUSH2 0x3CF5 DUP2 PUSH2 0x3CB9 JUMP JUMPDEST SWAP1 POP SWAP2 SWAP1 POP JUMP JUMPDEST PUSH1 0x0 PUSH1 0x60 DUP3 ADD SWAP1 POP PUSH2 0x3D11 PUSH1 0x0 DUP4 ADD DUP7 PUSH2 0x2CB3 JUMP JUMPDEST PUSH2 0x3D1E PUSH1 0x20 DUP4 ADD DUP6 PUSH2 0x2CB3 JUMP JUMPDEST PUSH2 0x3D2B PUSH1 0x40 DUP4 ADD DUP5 PUSH2 0x2CE7 JUMP JUMPDEST SWAP5 SWAP4 POP POP POP POP JUMP INVALID LOG2 PUSH5 0x6970667358 0x22 SLT KECCAK256 0xAC 0xCC 0x4D 0x29 LT 0xC8 0xC3 0xAA 0xFB 0xF7 DUP4 0x2C 0xC8 SUB DUP14 0x4A TIMESTAMP 0xCD PC 0xDA RETURNDATASIZE CALL PUSH11 0xB6C9F0FC40269C65196473 PUSH16 0x6C634300080A00330000000000000000 "
    },
    "gasEstimates": {
      "creation": {
        "codeDepositCost": "3144200",
        "executionCost": "27741",
        "totalCost": "3171941"
      },
      "external": {
        "authorizations(address)": "infinite",
        "authorizeBankAddress(address,bool)": "infinite",
        "authorizedBanks(address)": "2934",
        "batchAuthorizeBanks(address[])": "infinite",
        "canUserTransfer(address,uint256)": "infinite",
        "deactivateUser(address)": "78086",
        "getUserByKeyHash(bytes32)": "2954",
        "getUserInfo(address)": "infinite",
        "getUserPublicKey(address)": "infinite",
        "getUserStats()": "infinite",
        "isKYCValid(address)": "11571",
        "keyHashToAddress(bytes32)": "2883",
        "kycRecords(address)": "infinite",
        "owner()": "2581",
        "recordTransfer(address,uint256)": "infinite",
        "registerUser(bytes)": "infinite",
        "revokeKYC(address)": "57582",
        "setAuthorization(address,bool,bool,uint256)": "infinite",
        "totalUsers()": "2562",
        "transferOwnership(address)": "27040",
        "updatePublicKey(bytes)": "infinite",
        "users(address)": "infinite",
        "verifyKYC(address,bytes32,uint256)": "infinite",
        "verifyPQCSignature(address,bytes,bytes)": "infinite"
      }
    },
    "methodIdentifiers": {
      "authorizations(address)": "3a13e1af",
      "authorizeBankAddress(address,bool)": "d1f33aa4",
      "authorizedBanks(address)": "a2969820",
      "batchAuthorizeBanks(address[])": "5b1eab6c",
      "canUserTransfer(address,uint256)": "76031448",
      "deactivateUser(address)": "1a47767b",
      "getUserByKeyHash(bytes32)": "648b8765",
      "getUserInfo(address)": "6386c1c7",
      "getUserPublicKey(address)": "11231fe0",
      "getUserStats()": "53f6ad37",
      "isKYCValid(address)": "cf0e0f9d",
      "keyHashToAddress(bytes32)": "cfe5e1bb",
      "kycRecords(address)": "7eb606e8",
      "owner()": "8da5cb5b",
      "recordTransfer(address,uint256)": "73ac83ef",
      "registerUser(bytes)": "0a38178c",
      "revokeKYC(address)": "39ba645b",
      "setAuthorization(address,bool,bool,uint256)": "f8505f7b",
      "totalUsers()": "bff1f9e1",
      "transferOwnership(address)": "f2fde38b",
      "updatePublicKey(bytes)": "74e66d10",
      "users(address)": "a87430ba",
      "verifyKYC(address,bytes32,uint256)": "e7c53764",
      "verifyPQCSignature(address,bytes,bytes)": "20dd0213"
    }
  },
  "storageLayout": {
    "storage": [
      {
        "astId": 1031,
        "contract": "PKIRegistry.sol:PKIRegistry",
        "label": "users",
        "offset": 0,
        "slot": "0",
        "type": "t_mapping(t_address,t_struct(UserIdentity)1004_storage)"
      },
      {
        "astId": 1036,
        "contract": "PKIRegistry.sol:PKIRegistry",
        "label": "kycRecords",
        "offset": 0,
        "slot": "1",
        "type": "t_mapping(t_address,t_struct(KYCInfo)1015_storage)"
      },
      {
        "astId": 1041,
        "contract": "PKIRegistry.sol:PKIRegistry",
        "label": "authorizations",
        "offset": 0,
        "slot": "2",
        "type": "t_mapping(t_address,t_struct(Authorization)1026_storage)"
      },
      {
        "astId": 1045,
        "contract": "PKIRegistry.sol:PKIRegistry",
        "label": "keyHashToAddress",
        "offset": 0,
        "slot": "3",
        "type": "t_mapping(t_bytes32,t_address)"
      },
      {
        "astId": 1049,
        "contract": "PKIRegistry.sol:PKIRegistry",
        "label": "authorizedBanks",
        "offset": 0,
        "slot": "4",
        "type": "t_mapping(t_address,t_bool)"
      },
      {
        "astId": 1051,
        "contract": "PKIRegistry.sol:PKIRegistry",
        "label": "owner",
        "offset": 0,
        "slot": "5",
        "type": "t_address"
      },
      {
        "astId": 1053,
        "contract": "PKIRegistry.sol:PKIRegistry",
        "label": "totalUsers",
        "offset": 0,
        "slot": "6",
        "type": "t_uint256"
      }
    ],
    "types": {
      "t_address": {
        "encoding": "inplace",
        "label": "address",
        "numberOfBytes": "20"
      },
      "t_bool": {
        "encoding": "inplace",
        "label": "bool",
        "numberOfBytes": "1"
      },
      "t_bytes32": {
        "encoding": "inplace",
        "label": "bytes32",
        "numberOfBytes": "32"
      },
      "t_bytes_storage": {
        "encoding": "bytes",
        "label": "bytes",
        "numberOfBytes": "32"
      },
      "t_mapping(t_address,t_bool)": {
        "encoding": "mapping",
        "key": "t_address",
        "label": "mapping(address => bool)",
        "numberOfBytes": "32",
        "value": "t_bool"
      },
      "t_mapping(t_address,t_struct(Authorization)1026_storage)": {
        "encoding": "mapping",
        "key": "t_address",
        "label": "mapping(address => struct PKIRegistry.Authorization)",
        "numberOfBytes": "32",
        "value": "t_struct(Authorization)1026_storage"
      },
      "t_mapping(t_address,t_struct(KYCInfo)1015_storage)": {
        "encoding": "mapping",
        "key": "t_address",
        "label": "mapping(address => struct PKIRegistry.KYCInfo)",
        "numberOfBytes": "32",
        "value": "t_struct(KYCInfo)1015_storage"
      },
      "t_mapping(t_address,t_struct(UserIdentity)1004_storage)": {
        "encoding": "mapping",
        "key": "t_address",
        "label": "mapping(address => struct PKIRegistry.UserIdentity)",
        "numberOfBytes": "32",
        "value": "t_struct(UserIdentity)1004_storage"
      },
      "t_mapping(t_bytes32,t_address)": {
        "encoding": "mapping",
        "key": "t_bytes32",
        "label": "mapping(bytes32 => address)",
        "numberOfBytes": "32",
        "value": "t_address"
      },
      "t_struct(Authorization)1026_storage": {
        "encoding": "inplace",
        "label": "struct PKIRegistry.Authorization",
        "members": [
          {
            "astId": 1017,
            "contract": "PKIRegistry.sol:PKIRegistry",
            "label": "canTransfer",
            "offset": 0,
            "slot": "0",
            "type": "t_bool"
          },
          {
            "astId": 1019,
            "contract": "PKIRegistry.sol:PKIRegistry",
            "label": "canReceive",
            "offset": 1,
            "slot": "0",
            "type": "t_bool"
          },
          {
            "astId": 1021,
            "contract": "PKIRegistry.sol:PKIRegistry",
            "label": "dailyLimit",
            "offset": 0,
            "slot": "1",
            "type": "t_uint256"
          },
          {
            "astId": 1023,
            "contract": "PKIRegistry.sol:PKIRegistry",
            "label": "usedToday",
            "offset": 0,
            "slot": "2",
            "type": "t_uint256"
          },
          {
            "astId": 1025,
            "contract": "PKIRegistry.sol:PKIRegistry",
            "label": "lastResetDate",
            "offset": 0,
            "slot": "3",
            "type": "t_uint256"
          }
        ],
        "numberOfBytes": "128"
      },
      "t_struct(KYCInfo)1015_storage": {
        "encoding": "inplace",
        "label": "struct PKIRegistry.KYCInfo",
        "members": [
          {
            "astId": 1006,
            "contract": "PKIRegistry.sol:PKIRegistry",
            "label": "isVerified",
            "offset": 0,
            "slot": "0",
            "type": "t_bool"
          },
          {
            "astId": 1008,
            "contract": "PKIRegistry.sol:PKIRegistry",
            "label": "verifiedAt",
            "offset": 0,
            "slot": "1",
            "type": "t_uint256"
          },
          {
            "astId": 1010,
            "contract": "PKIRegistry.sol:PKIRegistry",
            "label": "expiresAt",
            "offset": 0,
            "slot": "2",
            "type": "t_uint256"
          },
          {
            "astId": 1012,
            "contract": "PKIRegistry.sol:PKIRegistry",
            "label": "kycHash",
            "offset": 0,
            "slot": "3",
            "type": "t_bytes32"
          },
          {
            "astId": 1014,
            "contract": "PKIRegistry.sol:PKIRegistry",
            "label": "verifier",
            "offset": 0,
            "slot": "4",
            "type": "t_address"
          }
        ],
        "numberOfBytes": "160"
      },
      "t_struct(UserIdentity)1004_storage": {
        "encoding": "inplace",
        "label": "struct PKIRegistry.UserIdentity",
        "members": [
          {
            "astId": 993,
            "contract": "PKIRegistry.sol:PKIRegistry",
            "label": "userAddress",
            "offset": 0,
            "slot": "0",
            "type": "t_address"
          },
          {
            "astId": 995,
            "contract": "PKIRegistry.sol:PKIRegistry",
            "label": "pqcPublicKey",
            "offset": 0,
            "slot": "1",
            "type": "t_bytes_storage"
          },
          {
            "astId": 997,
            "contract": "PKIRegistry.sol:PKIRegistry",
            "label": "keyHash",
            "offset": 0,
            "slot": "2",
            "type": "t_bytes32"
          },
          {
            "astId": 999,
            "contract": "PKIRegistry.sol:PKIRegistry",
            "label": "isActive",
            "offset": 0,
            "slot": "3",
            "type": "t_bool"
          },
          {
            "astId": 1001,
            "contract": "PKIRegistry.sol:PKIRegistry",
            "label": "registeredAt",
            "offset": 0,
            "slot": "4",
            "type": "t_uint256"
          },
          {
            "astId": 1003,
            "contract": "PKIRegistry.sol:PKIRegistry",
            "label": "lastUpdated",
            "offset": 0,
            "slot": "5",
            "type": "t_uint256"
          }
        ],
        "numberOfBytes": "192"
      },
      "t_uint256": {
        "encoding": "inplace",
        "label": "uint256",
        "numberOfBytes": "32"
      }
    }
  },
  "userdoc": {
    "kind": "user",
    "methods": {},
    "notice": "Manages PQC public keys, KYC status, and user authorization  Features: - Store Dilithium3 public keys - KYC compliance tracking - Account ownership verification - Key rotation support - Authorization management",
    "version": 1
  }
}