{
  "abi": [
    {
      "inputs": [],
      "stateMutability": "nonpayable",
      "type": "constructor"
    },
    {
      "anonymous": false,
      "inputs": [
        {
          "indexed": true,
          "internalType": "uint256",
          "name": "transactionId",
          "type": "uint256"
        },
        {
          "indexed": false,
          "internalType": "bytes32",
          "name": "signatureHash",
          "type": "bytes32"
        },
        {
          "indexed": false,
          "internalType": "string",
          "name": "algorithm",
          "type": "string"
        },
        {
          "indexed": false,
          "internalType": "uint256",
          "name": "signatureSize",
          "type": "uint256"
        }
      ],
      "name": "PQCSignatureStored",
      "type": "event"
    },
    {
      "inputs": [
        {
          "internalType": "uint256",
          "name": "txId",
          "type": "uint256"
        }
      ],
      "name": "getPQCSignature",
      "outputs": [
        {
          "internalType": "bytes",
          "name": "signature",
          "type": "bytes"
        },
        {
          "internalType": "string",
          "name": "algorithm",
          "type": "string"
        },
        {
          "internalType": "bytes32",
          "name": "signatureHash",
          "type": "bytes32"
        }
      ],
      "stateMutability": "view",
      "type": "function"
    },
    {
      "inputs": [
        {
          "internalType": "uint256",
          "name": "txId",
          "type": "uint256"
        }
      ],
      "name": "getPQCSignatureHash",
      "outputs": [
        {
          "internalType": "bytes32",
          "name": "",
          "type": "bytes32"
        }
      ],
      "stateMutability": "view",
      "type": "function"
    },
    {
      "inputs": [],
      "name": "interbankContract",
      "outputs": [
        {
          "internalType": "address",
          "name": "",
          "type": "address"
        }
      ],
      "stateMutability": "view",
      "type": "function"
    },
    {
      "inputs": [],
      "name": "owner",
      "outputs": [
        {
          "internalType": "address",
          "name": "",
          "type": "address"
        }
      ],
      "stateMutability": "view",
      "type": "function"
    },
    {
      "inputs": [
        {
          "internalType": "address",
          "name": "_interbank",
          "type": "address"
        }
      ],
      "name": "setInterbankContract",
      "outputs": [],
      "stateMutability": "nonpayable",
      "type": "function"
    },
    {
      "inputs": [
        {
          "internalType": "uint256",
          "name": "txId",
          "type": "uint256"
        },
        {
          "internalType": "bytes",
          "name": "pqcSignature",
          "type": "bytes"
        },
        {
          "internalType": "string",
          "name": "algorithm",
          "type": "string"
        }
      ],
      "name": "storePQCSignature",
      "outputs": [],
      "stateMutability": "nonpayable",
      "type": "function"
    },
    {
      "inputs": [
        {
          "internalType": "uint256",
          "name": "txId",
          "type": "uint256"
        }
      ],
      "name": "transactionHasPQCSignature",
      "outputs": [
        {
          "internalType": "bool",
          "name": "",
          "type": "bool"
        }
      ],
      "stateMutability": "view",
      "type": "function"
    }
  ],
  "devdoc": {
    "details": "Contract riêng để lưu trữ PQC signature on-chain cho từng transaction.      Mục tiêu: giảm kích thước bytecode của InterbankTransfer (tránh vượt EIP-170)      nhưng vẫn đảm bảo requirement: lưu PQC signature / hash on-chain.",
    "kind": "dev",
    "methods": {
      "getPQCSignature(uint256)": {
        "details": "Lấy full PQC signature + algorithm + hash cho một transaction"
      },
      "getPQCSignatureHash(uint256)": {
        "details": "Lấy hash của PQC signature cho một transaction"
      },
      "setInterbankContract(address)": {
        "details": "Set địa chỉ InterbankTransfer contract (chỉ owner)"
      },
      "storePQCSignature(uint256,bytes,string)": {
        "details": "Lưu PQC signature cho một transaction (chỉ được gọi từ InterbankTransfer)",
        "params": {
          "algorithm": "Tên thuật toán PQC (vd: \"Dilithium3\")",
          "pqcSignature": "PQC signature (bytes)",
          "txId": "Transaction ID trong InterbankTransfer"
        }
      },
      "transactionHasPQCSignature(uint256)": {
        "details": "Kiểm tra transaction có PQC signature hay không"
      }
    },
    "title": "PQCSignatureRegistry",
    "version": 1
  },
  "evm": {
    "assembly": "    /* \"PQCSignatureRegistry.sol\":369:3299  contract PQCSignatureRegistry {... */\n  mstore(0x40, 0x80)\n    /* \"PQCSignatureRegistry.sol\":1031:1080  constructor() {... */\n  callvalue\n  dup1\n  iszero\n  tag_1\n  jumpi\n  0x00\n  dup1\n  revert\ntag_1:\n  pop\n    /* \"PQCSignatureRegistry.sol\":1063:1073  msg.sender */\n  caller\n    /* \"PQCSignatureRegistry.sol\":1055:1060  owner */\n  0x00\n  dup1\n    /* \"PQCSignatureRegistry.sol\":1055:1073  owner = msg.sender */\n  0x0100\n  exp\n  dup2\n  sload\n  dup2\n  0xffffffffffffffffffffffffffffffffffffffff\n  mul\n  not\n  and\n  swap1\n  dup4\n  0xffffffffffffffffffffffffffffffffffffffff\n  and\n  mul\n  or\n  swap1\n  sstore\n  pop\n    /* \"PQCSignatureRegistry.sol\":369:3299  contract PQCSignatureRegistry {... */\n  dataSize(sub_0)\n  dup1\n  dataOffset(sub_0)\n  0x00\n  codecopy\n  0x00\n  return\nstop\n\nsub_0: assembly {\n        /* \"PQCSignatureRegistry.sol\":369:3299  contract PQCSignatureRegistry {... */\n      mstore(0x40, 0x80)\n      callvalue\n      dup1\n      iszero\n      tag_1\n      jumpi\n      0x00\n      dup1\n      revert\n    tag_1:\n      pop\n      jumpi(tag_2, lt(calldatasize, 0x04))\n      shr(0xe0, calldataload(0x00))\n      dup1\n      0x90d9bc16\n      gt\n      tag_10\n      jumpi\n      dup1\n      0x90d9bc16\n      eq\n      tag_6\n      jumpi\n      dup1\n      0xcbe61632\n      eq\n      tag_7\n      jumpi\n      dup1\n      0xcc04db41\n      eq\n      tag_8\n      jumpi\n      dup1\n      0xe757204f\n      eq\n      tag_9\n      jumpi\n      jump(tag_2)\n    tag_10:\n      dup1\n      0x12271272\n      eq\n      tag_3\n      jumpi\n      dup1\n      0x42077d7b\n      eq\n      tag_4\n      jumpi\n      dup1\n      0x8da5cb5b\n      eq\n      tag_5\n      jumpi\n    tag_2:\n      0x00\n      dup1\n      revert\n        /* \"PQCSignatureRegistry.sol\":2696:3086  function getPQCSignature(uint256 txId)... */\n    tag_3:\n      tag_11\n      0x04\n      dup1\n      calldatasize\n      sub\n      dup2\n      add\n      swap1\n      tag_12\n      swap2\n      swap1\n      tag_13\n      jump\t// in\n    tag_12:\n      tag_14\n      jump\t// in\n    tag_11:\n      mload(0x40)\n      tag_15\n      swap4\n      swap3\n      swap2\n      swap1\n      tag_16\n      jump\t// in\n    tag_15:\n      mload(0x40)\n      dup1\n      swap2\n      sub\n      swap1\n      return\n        /* \"PQCSignatureRegistry.sol\":3172:3297  function transactionHasPQCSignature(uint256 txId) external view returns (bool) {... */\n    tag_4:\n      tag_17\n      0x04\n      dup1\n      calldatasize\n      sub\n      dup2\n      add\n      swap1\n      tag_18\n      swap2\n      swap1\n      tag_13\n      jump\t// in\n    tag_18:\n      tag_19\n      jump\t// in\n    tag_17:\n      mload(0x40)\n      tag_20\n      swap2\n      swap1\n      tag_21\n      jump\t// in\n    tag_20:\n      mload(0x40)\n      dup1\n      swap2\n      sub\n      swap1\n      return\n        /* \"PQCSignatureRegistry.sol\":405:425  address public owner */\n    tag_5:\n      tag_22\n      tag_23\n      jump\t// in\n    tag_22:\n      mload(0x40)\n      tag_24\n      swap2\n      swap1\n      tag_25\n      jump\t// in\n    tag_24:\n      mload(0x40)\n      dup1\n      swap2\n      sub\n      swap1\n      return\n        /* \"PQCSignatureRegistry.sol\":431:463  address public interbankContract */\n    tag_6:\n      tag_26\n      tag_27\n      jump\t// in\n    tag_26:\n      mload(0x40)\n      tag_28\n      swap2\n      swap1\n      tag_25\n      jump\t// in\n    tag_28:\n      mload(0x40)\n      dup1\n      swap2\n      sub\n      swap1\n      return\n        /* \"PQCSignatureRegistry.sol\":1644:2322  function storePQCSignature(... */\n    tag_7:\n      tag_29\n      0x04\n      dup1\n      calldatasize\n      sub\n      dup2\n      add\n      swap1\n      tag_30\n      swap2\n      swap1\n      tag_31\n      jump\t// in\n    tag_30:\n      tag_32\n      jump\t// in\n    tag_29:\n      stop\n        /* \"PQCSignatureRegistry.sol\":2409:2596  function getPQCSignatureHash(uint256 txId) external view returns (bytes32) {... */\n    tag_8:\n      tag_33\n      0x04\n      dup1\n      calldatasize\n      sub\n      dup2\n      add\n      swap1\n      tag_34\n      swap2\n      swap1\n      tag_13\n      jump\t// in\n    tag_34:\n      tag_35\n      jump\t// in\n    tag_33:\n      mload(0x40)\n      tag_36\n      swap2\n      swap1\n      tag_37\n      jump\t// in\n    tag_36:\n      mload(0x40)\n      dup1\n      swap2\n      sub\n      swap1\n      return\n        /* \"PQCSignatureRegistry.sol\":1172:1350  function setInterbankContract(address _interbank) external onlyOwner {... */\n    tag_9:\n      tag_38\n      0x04\n      dup1\n      calldatasize\n      sub\n      dup2\n      add\n      swap1\n      tag_39\n      swap2\n      swap1\n      tag_40\n      jump\t// in\n    tag_39:\n      tag_41\n      jump\t// in\n    tag_38:\n      stop\n        /* \"PQCSignatureRegistry.sol\":2696:3086  function getPQCSignature(uint256 txId)... */\n    tag_14:\n        /* \"PQCSignatureRegistry.sol\":2795:2817  bytes memory signature */\n      0x60\n        /* \"PQCSignatureRegistry.sol\":2831:2854  string memory algorithm */\n      dup1\n        /* \"PQCSignatureRegistry.sol\":2868:2889  bytes32 signatureHash */\n      0x00\n        /* \"PQCSignatureRegistry.sol\":2922:2931  pqcByTxId */\n      0x02\n        /* \"PQCSignatureRegistry.sol\":2922:2937  pqcByTxId[txId] */\n      0x00\n        /* \"PQCSignatureRegistry.sol\":2932:2936  txId */\n      dup6\n        /* \"PQCSignatureRegistry.sol\":2922:2937  pqcByTxId[txId] */\n      dup2\n      mstore\n      0x20\n      add\n      swap1\n      dup2\n      mstore\n      0x20\n      add\n      0x00\n      keccak256\n        /* \"PQCSignatureRegistry.sol\":2922:2944  pqcByTxId[txId].exists */\n      0x03\n      add\n      0x00\n      swap1\n      sload\n      swap1\n      0x0100\n      exp\n      swap1\n      div\n      0xff\n      and\n        /* \"PQCSignatureRegistry.sol\":2914:2972  require(pqcByTxId[txId].exists, \"No PQC signature for tx\") */\n      tag_43\n      jumpi\n      mload(0x40)\n      0x08c379a000000000000000000000000000000000000000000000000000000000\n      dup2\n      mstore\n      0x04\n      add\n      tag_44\n      swap1\n      tag_45\n      jump\t// in\n    tag_44:\n      mload(0x40)\n      dup1\n      swap2\n      sub\n      swap1\n      revert\n    tag_43:\n        /* \"PQCSignatureRegistry.sol\":2982:3001  PQCData memory data */\n      0x00\n        /* \"PQCSignatureRegistry.sol\":3004:3013  pqcByTxId */\n      0x02\n        /* \"PQCSignatureRegistry.sol\":3004:3019  pqcByTxId[txId] */\n      0x00\n        /* \"PQCSignatureRegistry.sol\":3014:3018  txId */\n      dup7\n        /* \"PQCSignatureRegistry.sol\":3004:3019  pqcByTxId[txId] */\n      dup2\n      mstore\n      0x20\n      add\n      swap1\n      dup2\n      mstore\n      0x20\n      add\n      0x00\n      keccak256\n        /* \"PQCSignatureRegistry.sol\":2982:3019  PQCData memory data = pqcByTxId[txId] */\n      mload(0x40)\n      dup1\n      0x80\n      add\n      0x40\n      mstore\n      swap1\n      dup2\n      0x00\n      dup3\n      add\n      dup1\n      sload\n      tag_46\n      swap1\n      tag_47\n      jump\t// in\n    tag_46:\n      dup1\n      0x1f\n      add\n      0x20\n      dup1\n      swap2\n      div\n      mul\n      0x20\n      add\n      mload(0x40)\n      swap1\n      dup2\n      add\n      0x40\n      mstore\n      dup1\n      swap3\n      swap2\n      swap1\n      dup2\n      dup2\n      mstore\n      0x20\n      add\n      dup3\n      dup1\n      sload\n      tag_48\n      swap1\n      tag_47\n      jump\t// in\n    tag_48:\n      dup1\n      iszero\n      tag_49\n      jumpi\n      dup1\n      0x1f\n      lt\n      tag_50\n      jumpi\n      0x0100\n      dup1\n      dup4\n      sload\n      div\n      mul\n      dup4\n      mstore\n      swap2\n      0x20\n      add\n      swap2\n      jump(tag_49)\n    tag_50:\n      dup3\n      add\n      swap2\n      swap1\n      0x00\n      mstore\n      keccak256(0x00, 0x20)\n      swap1\n    tag_51:\n      dup2\n      sload\n      dup2\n      mstore\n      swap1\n      0x01\n      add\n      swap1\n      0x20\n      add\n      dup1\n      dup4\n      gt\n      tag_51\n      jumpi\n      dup3\n      swap1\n      sub\n      0x1f\n      and\n      dup3\n      add\n      swap2\n    tag_49:\n      pop\n      pop\n      pop\n      pop\n      pop\n      dup2\n      mstore\n      0x20\n      add\n      0x01\n      dup3\n      add\n      dup1\n      sload\n      tag_52\n      swap1\n      tag_47\n      jump\t// in\n    tag_52:\n      dup1\n      0x1f\n      add\n      0x20\n      dup1\n      swap2\n      div\n      mul\n      0x20\n      add\n      mload(0x40)\n      swap1\n      dup2\n      add\n      0x40\n      mstore\n      dup1\n      swap3\n      swap2\n      swap1\n      dup2\n      dup2\n      mstore\n      0x20\n      add\n      dup3\n      dup1\n      sload\n      tag_53\n      swap1\n      tag_47\n      jump\t// in\n    tag_53:\n      dup1\n      iszero\n      tag_54\n      jumpi\n      dup1\n      0x1f\n      lt\n      tag_55\n      jumpi\n      0x0100\n      dup1\n      dup4\n      sload\n      div\n      mul\n      dup4\n      mstore\n      swap2\n      0x20\n      add\n      swap2\n      jump(tag_54)\n    tag_55:\n      dup3\n      add\n      swap2\n      swap1\n      0x00\n      mstore\n      keccak256(0x00, 0x20)\n      swap1\n    tag_56:\n      dup2\n      sload\n      dup2\n      mstore\n      swap1\n      0x01\n      add\n      swap1\n      0x20\n      add\n      dup1\n      dup4\n      gt\n      tag_56\n      jumpi\n      dup3\n      swap1\n      sub\n      0x1f\n      and\n      dup3\n      add\n      swap2\n    tag_54:\n      pop\n      pop\n      pop\n      pop\n      pop\n      dup2\n      mstore\n      0x20\n      add\n      0x02\n      dup3\n      add\n      sload\n      dup2\n      mstore\n      0x20\n      add\n      0x03\n      dup3\n      add\n      0x00\n      swap1\n      sload\n      swap1\n      0x0100\n      exp\n      swap1\n      div\n      0xff\n      and\n      iszero\n      iszero\n      iszero\n      iszero\n      dup2\n      mstore\n      pop\n      pop\n      swap1\n      pop\n        /* \"PQCSignatureRegistry.sol\":3037:3041  data */\n      dup1\n        /* \"PQCSignatureRegistry.sol\":3037:3051  data.signature */\n      0x00\n      add\n      mload\n        /* \"PQCSignatureRegistry.sol\":3053:3057  data */\n      dup2\n        /* \"PQCSignatureRegistry.sol\":3053:3067  data.algorithm */\n      0x20\n      add\n      mload\n        /* \"PQCSignatureRegistry.sol\":3069:3073  data */\n      dup3\n        /* \"PQCSignatureRegistry.sol\":3069:3078  data.hash */\n      0x40\n      add\n      mload\n        /* \"PQCSignatureRegistry.sol\":3029:3079  return (data.signature, data.algorithm, data.hash) */\n      swap4\n      pop\n      swap4\n      pop\n      swap4\n      pop\n      pop\n        /* \"PQCSignatureRegistry.sol\":2696:3086  function getPQCSignature(uint256 txId)... */\n      swap2\n      swap4\n      swap1\n      swap3\n      pop\n      jump\t// out\n        /* \"PQCSignatureRegistry.sol\":3172:3297  function transactionHasPQCSignature(uint256 txId) external view returns (bool) {... */\n    tag_19:\n        /* \"PQCSignatureRegistry.sol\":3245:3249  bool */\n      0x00\n        /* \"PQCSignatureRegistry.sol\":3268:3277  pqcByTxId */\n      0x02\n        /* \"PQCSignatureRegistry.sol\":3268:3283  pqcByTxId[txId] */\n      0x00\n        /* \"PQCSignatureRegistry.sol\":3278:3282  txId */\n      dup4\n        /* \"PQCSignatureRegistry.sol\":3268:3283  pqcByTxId[txId] */\n      dup2\n      mstore\n      0x20\n      add\n      swap1\n      dup2\n      mstore\n      0x20\n      add\n      0x00\n      keccak256\n        /* \"PQCSignatureRegistry.sol\":3268:3290  pqcByTxId[txId].exists */\n      0x03\n      add\n      0x00\n      swap1\n      sload\n      swap1\n      0x0100\n      exp\n      swap1\n      div\n      0xff\n      and\n        /* \"PQCSignatureRegistry.sol\":3261:3290  return pqcByTxId[txId].exists */\n      swap1\n      pop\n        /* \"PQCSignatureRegistry.sol\":3172:3297  function transactionHasPQCSignature(uint256 txId) external view returns (bool) {... */\n      swap2\n      swap1\n      pop\n      jump\t// out\n        /* \"PQCSignatureRegistry.sol\":405:425  address public owner */\n    tag_23:\n      0x00\n      dup1\n      sload\n      swap1\n      0x0100\n      exp\n      swap1\n      div\n      0xffffffffffffffffffffffffffffffffffffffff\n      and\n      dup2\n      jump\t// out\n        /* \"PQCSignatureRegistry.sol\":431:463  address public interbankContract */\n    tag_27:\n      0x01\n      0x00\n      swap1\n      sload\n      swap1\n      0x0100\n      exp\n      swap1\n      div\n      0xffffffffffffffffffffffffffffffffffffffff\n      and\n      dup2\n      jump\t// out\n        /* \"PQCSignatureRegistry.sol\":1644:2322  function storePQCSignature(... */\n    tag_32:\n        /* \"PQCSignatureRegistry.sol\":962:979  interbankContract */\n      0x01\n      0x00\n      swap1\n      sload\n      swap1\n      0x0100\n      exp\n      swap1\n      div\n      0xffffffffffffffffffffffffffffffffffffffff\n      and\n        /* \"PQCSignatureRegistry.sol\":948:979  msg.sender == interbankContract */\n      0xffffffffffffffffffffffffffffffffffffffff\n      and\n        /* \"PQCSignatureRegistry.sol\":948:958  msg.sender */\n      caller\n        /* \"PQCSignatureRegistry.sol\":948:979  msg.sender == interbankContract */\n      0xffffffffffffffffffffffffffffffffffffffff\n      and\n      eq\n        /* \"PQCSignatureRegistry.sol\":940:1007  require(msg.sender == interbankContract, \"Only Interbank contract\") */\n      tag_59\n      jumpi\n      mload(0x40)\n      0x08c379a000000000000000000000000000000000000000000000000000000000\n      dup2\n      mstore\n      0x04\n      add\n      tag_60\n      swap1\n      tag_61\n      jump\t// in\n    tag_60:\n      mload(0x40)\n      dup1\n      swap2\n      sub\n      swap1\n      revert\n    tag_59:\n        /* \"PQCSignatureRegistry.sol\":1819:1820  0 */\n      0x00\n        /* \"PQCSignatureRegistry.sol\":1812:1816  txId */\n      dup6\n        /* \"PQCSignatureRegistry.sol\":1812:1820  txId > 0 */\n      gt\n        /* \"PQCSignatureRegistry.sol\":1804:1837  require(txId > 0, \"Invalid txId\") */\n      tag_63\n      jumpi\n      mload(0x40)\n      0x08c379a000000000000000000000000000000000000000000000000000000000\n      dup2\n      mstore\n      0x04\n      add\n      tag_64\n      swap1\n      tag_65\n      jump\t// in\n    tag_64:\n      mload(0x40)\n      dup1\n      swap2\n      sub\n      swap1\n      revert\n    tag_63:\n        /* \"PQCSignatureRegistry.sol\":1877:1878  0 */\n      0x00\n        /* \"PQCSignatureRegistry.sol\":1855:1867  pqcSignature */\n      dup5\n      dup5\n        /* \"PQCSignatureRegistry.sol\":1855:1874  pqcSignature.length */\n      swap1\n      pop\n        /* \"PQCSignatureRegistry.sol\":1855:1878  pqcSignature.length > 0 */\n      gt\n        /* \"PQCSignatureRegistry.sol\":1847:1898  require(pqcSignature.length > 0, \"Empty signature\") */\n      tag_66\n      jumpi\n      mload(0x40)\n      0x08c379a000000000000000000000000000000000000000000000000000000000\n      dup2\n      mstore\n      0x04\n      add\n      tag_67\n      swap1\n      tag_68\n      jump\t// in\n    tag_67:\n      mload(0x40)\n      dup1\n      swap2\n      sub\n      swap1\n      revert\n    tag_66:\n        /* \"PQCSignatureRegistry.sol\":1942:1943  0 */\n      0x00\n        /* \"PQCSignatureRegistry.sol\":1922:1931  algorithm */\n      dup3\n      dup3\n        /* \"PQCSignatureRegistry.sol\":1916:1939  bytes(algorithm).length */\n      swap1\n      pop\n        /* \"PQCSignatureRegistry.sol\":1916:1943  bytes(algorithm).length > 0 */\n      gt\n        /* \"PQCSignatureRegistry.sol\":1908:1963  require(bytes(algorithm).length > 0, \"Empty algorithm\") */\n      tag_69\n      jumpi\n      mload(0x40)\n      0x08c379a000000000000000000000000000000000000000000000000000000000\n      dup2\n      mstore\n      0x04\n      add\n      tag_70\n      swap1\n      tag_71\n      jump\t// in\n    tag_70:\n      mload(0x40)\n      dup1\n      swap2\n      sub\n      swap1\n      revert\n    tag_69:\n        /* \"PQCSignatureRegistry.sol\":1974:1995  bytes32 signatureHash */\n      0x00\n        /* \"PQCSignatureRegistry.sol\":2025:2037  pqcSignature */\n      dup5\n      dup5\n        /* \"PQCSignatureRegistry.sol\":2039:2048  algorithm */\n      dup5\n      dup5\n        /* \"PQCSignatureRegistry.sol\":2008:2049  abi.encodePacked(pqcSignature, algorithm) */\n      add(0x20, mload(0x40))\n      tag_72\n      swap5\n      swap4\n      swap3\n      swap2\n      swap1\n      tag_73\n      jump\t// in\n    tag_72:\n      mload(0x40)\n      0x20\n      dup2\n      dup4\n      sub\n      sub\n      dup2\n      mstore\n      swap1\n      0x40\n      mstore\n        /* \"PQCSignatureRegistry.sol\":1998:2050  keccak256(abi.encodePacked(pqcSignature, algorithm)) */\n      dup1\n      mload\n      swap1\n      0x20\n      add\n      keccak256\n        /* \"PQCSignatureRegistry.sol\":1974:2050  bytes32 signatureHash = keccak256(abi.encodePacked(pqcSignature, algorithm)) */\n      swap1\n      pop\n        /* \"PQCSignatureRegistry.sol\":2079:2228  PQCData({... */\n      mload(0x40)\n      dup1\n      0x80\n      add\n      0x40\n      mstore\n      dup1\n        /* \"PQCSignatureRegistry.sol\":2112:2124  pqcSignature */\n      dup7\n      dup7\n        /* \"PQCSignatureRegistry.sol\":2079:2228  PQCData({... */\n      dup1\n      dup1\n      0x1f\n      add\n      0x20\n      dup1\n      swap2\n      div\n      mul\n      0x20\n      add\n      mload(0x40)\n      swap1\n      dup2\n      add\n      0x40\n      mstore\n      dup1\n      swap4\n      swap3\n      swap2\n      swap1\n      dup2\n      dup2\n      mstore\n      0x20\n      add\n      dup4\n      dup4\n      dup1\n      dup3\n      dup5\n      calldatacopy\n      0x00\n      dup2\n      dup5\n      add\n      mstore\n      not(0x1f)\n      0x1f\n      dup3\n      add\n      and\n      swap1\n      pop\n      dup1\n      dup4\n      add\n      swap3\n      pop\n      pop\n      pop\n      pop\n      pop\n      pop\n      pop\n      dup2\n      mstore\n      0x20\n      add\n        /* \"PQCSignatureRegistry.sol\":2149:2158  algorithm */\n      dup5\n      dup5\n        /* \"PQCSignatureRegistry.sol\":2079:2228  PQCData({... */\n      dup1\n      dup1\n      0x1f\n      add\n      0x20\n      dup1\n      swap2\n      div\n      mul\n      0x20\n      add\n      mload(0x40)\n      swap1\n      dup2\n      add\n      0x40\n      mstore\n      dup1\n      swap4\n      swap3\n      swap2\n      swap1\n      dup2\n      dup2\n      mstore\n      0x20\n      add\n      dup4\n      dup4\n      dup1\n      dup3\n      dup5\n      calldatacopy\n      0x00\n      dup2\n      dup5\n      add\n      mstore\n      not(0x1f)\n      0x1f\n      dup3\n      add\n      and\n      swap1\n      pop\n      dup1\n      dup4\n      add\n      swap3\n      pop\n      pop\n      pop\n      pop\n      pop\n      pop\n      pop\n      dup2\n      mstore\n      0x20\n      add\n        /* \"PQCSignatureRegistry.sol\":2178:2191  signatureHash */\n      dup3\n        /* \"PQCSignatureRegistry.sol\":2079:2228  PQCData({... */\n      dup2\n      mstore\n      0x20\n      add\n        /* \"PQCSignatureRegistry.sol\":2213:2217  true */\n      0x01\n        /* \"PQCSignatureRegistry.sol\":2079:2228  PQCData({... */\n      iszero\n      iszero\n      dup2\n      mstore\n      pop\n        /* \"PQCSignatureRegistry.sol\":2061:2070  pqcByTxId */\n      0x02\n        /* \"PQCSignatureRegistry.sol\":2061:2076  pqcByTxId[txId] */\n      0x00\n        /* \"PQCSignatureRegistry.sol\":2071:2075  txId */\n      dup9\n        /* \"PQCSignatureRegistry.sol\":2061:2076  pqcByTxId[txId] */\n      dup2\n      mstore\n      0x20\n      add\n      swap1\n      dup2\n      mstore\n      0x20\n      add\n      0x00\n      keccak256\n        /* \"PQCSignatureRegistry.sol\":2061:2228  pqcByTxId[txId] = PQCData({... */\n      0x00\n      dup3\n      add\n      mload\n      dup2\n      0x00\n      add\n      swap1\n      dup1\n      mload\n      swap1\n      0x20\n      add\n      swap1\n      tag_74\n      swap3\n      swap2\n      swap1\n      tag_75\n      jump\t// in\n    tag_74:\n      pop\n      0x20\n      dup3\n      add\n      mload\n      dup2\n      0x01\n      add\n      swap1\n      dup1\n      mload\n      swap1\n      0x20\n      add\n      swap1\n      tag_76\n      swap3\n      swap2\n      swap1\n      tag_77\n      jump\t// in\n    tag_76:\n      pop\n      0x40\n      dup3\n      add\n      mload\n      dup2\n      0x02\n      add\n      sstore\n      0x60\n      dup3\n      add\n      mload\n      dup2\n      0x03\n      add\n      exp(0x0100, 0x00)\n      dup2\n      sload\n      dup2\n      0xff\n      mul\n      not\n      and\n      swap1\n      dup4\n      iszero\n      iszero\n      mul\n      or\n      swap1\n      sstore\n      pop\n      swap1\n      pop\n      pop\n        /* \"PQCSignatureRegistry.sol\":2263:2267  txId */\n      dup6\n        /* \"PQCSignatureRegistry.sol\":2244:2315  PQCSignatureStored(txId, signatureHash, algorithm, pqcSignature.length) */\n      0x9d7df656e82f61ec711b505bb42bd23b2398708b142cee9c3e12e36e463f2ca3\n        /* \"PQCSignatureRegistry.sol\":2269:2282  signatureHash */\n      dup3\n        /* \"PQCSignatureRegistry.sol\":2284:2293  algorithm */\n      dup6\n      dup6\n        /* \"PQCSignatureRegistry.sol\":2295:2307  pqcSignature */\n      dup10\n      dup10\n        /* \"PQCSignatureRegistry.sol\":2295:2314  pqcSignature.length */\n      swap1\n      pop\n        /* \"PQCSignatureRegistry.sol\":2244:2315  PQCSignatureStored(txId, signatureHash, algorithm, pqcSignature.length) */\n      mload(0x40)\n      tag_78\n      swap5\n      swap4\n      swap3\n      swap2\n      swap1\n      tag_79\n      jump\t// in\n    tag_78:\n      mload(0x40)\n      dup1\n      swap2\n      sub\n      swap1\n      log2\n        /* \"PQCSignatureRegistry.sol\":1794:2322  {... */\n      pop\n        /* \"PQCSignatureRegistry.sol\":1644:2322  function storePQCSignature(... */\n      pop\n      pop\n      pop\n      pop\n      pop\n      jump\t// out\n        /* \"PQCSignatureRegistry.sol\":2409:2596  function getPQCSignatureHash(uint256 txId) external view returns (bytes32) {... */\n    tag_35:\n        /* \"PQCSignatureRegistry.sol\":2475:2482  bytes32 */\n      0x00\n        /* \"PQCSignatureRegistry.sol\":2502:2511  pqcByTxId */\n      0x02\n        /* \"PQCSignatureRegistry.sol\":2502:2517  pqcByTxId[txId] */\n      0x00\n        /* \"PQCSignatureRegistry.sol\":2512:2516  txId */\n      dup4\n        /* \"PQCSignatureRegistry.sol\":2502:2517  pqcByTxId[txId] */\n      dup2\n      mstore\n      0x20\n      add\n      swap1\n      dup2\n      mstore\n      0x20\n      add\n      0x00\n      keccak256\n        /* \"PQCSignatureRegistry.sol\":2502:2524  pqcByTxId[txId].exists */\n      0x03\n      add\n      0x00\n      swap1\n      sload\n      swap1\n      0x0100\n      exp\n      swap1\n      div\n      0xff\n      and\n        /* \"PQCSignatureRegistry.sol\":2494:2552  require(pqcByTxId[txId].exists, \"No PQC signature for tx\") */\n      tag_81\n      jumpi\n      mload(0x40)\n      0x08c379a000000000000000000000000000000000000000000000000000000000\n      dup2\n      mstore\n      0x04\n      add\n      tag_82\n      swap1\n      tag_45\n      jump\t// in\n    tag_82:\n      mload(0x40)\n      dup1\n      swap2\n      sub\n      swap1\n      revert\n    tag_81:\n        /* \"PQCSignatureRegistry.sol\":2569:2578  pqcByTxId */\n      0x02\n        /* \"PQCSignatureRegistry.sol\":2569:2584  pqcByTxId[txId] */\n      0x00\n        /* \"PQCSignatureRegistry.sol\":2579:2583  txId */\n      dup4\n        /* \"PQCSignatureRegistry.sol\":2569:2584  pqcByTxId[txId] */\n      dup2\n      mstore\n      0x20\n      add\n      swap1\n      dup2\n      mstore\n      0x20\n      add\n      0x00\n      keccak256\n        /* \"PQCSignatureRegistry.sol\":2569:2589  pqcByTxId[txId].hash */\n      0x02\n      add\n      sload\n        /* \"PQCSignatureRegistry.sol\":2562:2589  return pqcByTxId[txId].hash */\n      swap1\n      pop\n        /* \"PQCSignatureRegistry.sol\":2409:2596  function getPQCSignatureHash(uint256 txId) external view returns (bytes32) {... */\n      swap2\n      swap1\n      pop\n      jump\t// out\n        /* \"PQCSignatureRegistry.sol\":1172:1350  function setInterbankContract(address _interbank) external onlyOwner {... */\n    tag_41:\n        /* \"PQCSignatureRegistry.sol\":861:866  owner */\n      0x00\n      dup1\n      sload\n      swap1\n      0x0100\n      exp\n      swap1\n      div\n      0xffffffffffffffffffffffffffffffffffffffff\n      and\n        /* \"PQCSignatureRegistry.sol\":847:866  msg.sender == owner */\n      0xffffffffffffffffffffffffffffffffffffffff\n      and\n        /* \"PQCSignatureRegistry.sol\":847:857  msg.sender */\n      caller\n        /* \"PQCSignatureRegistry.sol\":847:866  msg.sender == owner */\n      0xffffffffffffffffffffffffffffffffffffffff\n      and\n      eq\n        /* \"PQCSignatureRegistry.sol\":839:881  require(msg.sender == owner, \"Only owner\") */\n      tag_84\n      jumpi\n      mload(0x40)\n      0x08c379a000000000000000000000000000000000000000000000000000000000\n      dup2\n      mstore\n      0x04\n      add\n      tag_85\n      swap1\n      tag_86\n      jump\t// in\n    tag_85:\n      mload(0x40)\n      dup1\n      swap2\n      sub\n      swap1\n      revert\n    tag_84:\n        /* \"PQCSignatureRegistry.sol\":1281:1282  0 */\n      0x00\n        /* \"PQCSignatureRegistry.sol\":1259:1283  _interbank != address(0) */\n      0xffffffffffffffffffffffffffffffffffffffff\n      and\n        /* \"PQCSignatureRegistry.sol\":1259:1269  _interbank */\n      dup2\n        /* \"PQCSignatureRegistry.sol\":1259:1283  _interbank != address(0) */\n      0xffffffffffffffffffffffffffffffffffffffff\n      and\n      eq\n      iszero\n        /* \"PQCSignatureRegistry.sol\":1251:1303  require(_interbank != address(0), \"Invalid address\") */\n      tag_88\n      jumpi\n      mload(0x40)\n      0x08c379a000000000000000000000000000000000000000000000000000000000\n      dup2\n      mstore\n      0x04\n      add\n      tag_89\n      swap1\n      tag_90\n      jump\t// in\n    tag_89:\n      mload(0x40)\n      dup1\n      swap2\n      sub\n      swap1\n      revert\n    tag_88:\n        /* \"PQCSignatureRegistry.sol\":1333:1343  _interbank */\n      dup1\n        /* \"PQCSignatureRegistry.sol\":1313:1330  interbankContract */\n      0x01\n      0x00\n        /* \"PQCSignatureRegistry.sol\":1313:1343  interbankContract = _interbank */\n      0x0100\n      exp\n      dup2\n      sload\n      dup2\n      0xffffffffffffffffffffffffffffffffffffffff\n      mul\n      not\n      and\n      swap1\n      dup4\n      0xffffffffffffffffffffffffffffffffffffffff\n      and\n      mul\n      or\n      swap1\n      sstore\n      pop\n        /* \"PQCSignatureRegistry.sol\":1172:1350  function setInterbankContract(address _interbank) external onlyOwner {... */\n      pop\n      jump\t// out\n    tag_75:\n      dup3\n      dup1\n      sload\n      tag_91\n      swap1\n      tag_47\n      jump\t// in\n    tag_91:\n      swap1\n      0x00\n      mstore\n      keccak256(0x00, 0x20)\n      swap1\n      0x1f\n      add\n      0x20\n      swap1\n      div\n      dup2\n      add\n      swap3\n      dup3\n      tag_93\n      jumpi\n      0x00\n      dup6\n      sstore\n      jump(tag_92)\n    tag_93:\n      dup3\n      0x1f\n      lt\n      tag_94\n      jumpi\n      dup1\n      mload\n      not(0xff)\n      and\n      dup4\n      dup1\n      add\n      or\n      dup6\n      sstore\n      jump(tag_92)\n    tag_94:\n      dup3\n      dup1\n      add\n      0x01\n      add\n      dup6\n      sstore\n      dup3\n      iszero\n      tag_92\n      jumpi\n      swap2\n      dup3\n      add\n    tag_95:\n      dup3\n      dup2\n      gt\n      iszero\n      tag_96\n      jumpi\n      dup3\n      mload\n      dup3\n      sstore\n      swap2\n      0x20\n      add\n      swap2\n      swap1\n      0x01\n      add\n      swap1\n      jump(tag_95)\n    tag_96:\n    tag_92:\n      pop\n      swap1\n      pop\n      tag_97\n      swap2\n      swap1\n      tag_98\n      jump\t// in\n    tag_97:\n      pop\n      swap1\n      jump\t// out\n    tag_77:\n      dup3\n      dup1\n      sload\n      tag_99\n      swap1\n      tag_47\n      jump\t// in\n    tag_99:\n      swap1\n      0x00\n      mstore\n      keccak256(0x00, 0x20)\n      swap1\n      0x1f\n      add\n      0x20\n      swap1\n      div\n      dup2\n      add\n      swap3\n      dup3\n      tag_101\n      jumpi\n      0x00\n      dup6\n      sstore\n      jump(tag_100)\n    tag_101:\n      dup3\n      0x1f\n      lt\n      tag_102\n      jumpi\n      dup1\n      mload\n      not(0xff)\n      and\n      dup4\n      dup1\n      add\n      or\n      dup6\n      sstore\n      jump(tag_100)\n    tag_102:\n      dup3\n      dup1\n      add\n      0x01\n      add\n      dup6\n      sstore\n      dup3\n      iszero\n      tag_100\n      jumpi\n      swap2\n      dup3\n      add\n    tag_103:\n      dup3\n      dup2\n      gt\n      iszero\n      tag_104\n      jumpi\n      dup3\n      mload\n      dup3\n      sstore\n      swap2\n      0x20\n      add\n      swap2\n      swap1\n      0x01\n      add\n      swap1\n      jump(tag_103)\n    tag_104:\n    tag_100:\n      pop\n      swap1\n      pop\n      tag_105\n      swap2\n      swap1\n      tag_98\n      jump\t// in\n    tag_105:\n      pop\n      swap1\n      jump\t// out\n    tag_98:\n    tag_106:\n      dup1\n      dup3\n      gt\n      iszero\n      tag_107\n      jumpi\n      0x00\n      dup2\n      0x00\n      swap1\n      sstore\n      pop\n      0x01\n      add\n      jump(tag_106)\n    tag_107:\n      pop\n      swap1\n      jump\t// out\n        /* \"#utility.yul\":88:205   */\n    tag_109:\n        /* \"#utility.yul\":197:198   */\n      0x00\n        /* \"#utility.yul\":194:195   */\n      dup1\n        /* \"#utility.yul\":187:199   */\n      revert\n        /* \"#utility.yul\":211:328   */\n    tag_110:\n        /* \"#utility.yul\":320:321   */\n      0x00\n        /* \"#utility.yul\":317:318   */\n      dup1\n        /* \"#utility.yul\":310:322   */\n      revert\n        /* \"#utility.yul\":334:411   */\n    tag_111:\n        /* \"#utility.yul\":371:378   */\n      0x00\n        /* \"#utility.yul\":400:405   */\n      dup2\n        /* \"#utility.yul\":389:405   */\n      swap1\n      pop\n        /* \"#utility.yul\":334:411   */\n      swap2\n      swap1\n      pop\n      jump\t// out\n        /* \"#utility.yul\":417:539   */\n    tag_112:\n        /* \"#utility.yul\":490:514   */\n      tag_164\n        /* \"#utility.yul\":508:513   */\n      dup2\n        /* \"#utility.yul\":490:514   */\n      tag_111\n      jump\t// in\n    tag_164:\n        /* \"#utility.yul\":483:488   */\n      dup2\n        /* \"#utility.yul\":480:515   */\n      eq\n        /* \"#utility.yul\":470:533   */\n      tag_165\n      jumpi\n        /* \"#utility.yul\":529:530   */\n      0x00\n        /* \"#utility.yul\":526:527   */\n      dup1\n        /* \"#utility.yul\":519:531   */\n      revert\n        /* \"#utility.yul\":470:533   */\n    tag_165:\n        /* \"#utility.yul\":417:539   */\n      pop\n      jump\t// out\n        /* \"#utility.yul\":545:684   */\n    tag_113:\n        /* \"#utility.yul\":591:596   */\n      0x00\n        /* \"#utility.yul\":629:635   */\n      dup2\n        /* \"#utility.yul\":616:636   */\n      calldataload\n        /* \"#utility.yul\":607:636   */\n      swap1\n      pop\n        /* \"#utility.yul\":645:678   */\n      tag_167\n        /* \"#utility.yul\":672:677   */\n      dup2\n        /* \"#utility.yul\":645:678   */\n      tag_112\n      jump\t// in\n    tag_167:\n        /* \"#utility.yul\":545:684   */\n      swap3\n      swap2\n      pop\n      pop\n      jump\t// out\n        /* \"#utility.yul\":690:1019   */\n    tag_13:\n        /* \"#utility.yul\":749:755   */\n      0x00\n        /* \"#utility.yul\":798:800   */\n      0x20\n        /* \"#utility.yul\":786:795   */\n      dup3\n        /* \"#utility.yul\":777:784   */\n      dup5\n        /* \"#utility.yul\":773:796   */\n      sub\n        /* \"#utility.yul\":769:801   */\n      slt\n        /* \"#utility.yul\":766:885   */\n      iszero\n      tag_169\n      jumpi\n        /* \"#utility.yul\":804:883   */\n      tag_170\n      tag_109\n      jump\t// in\n    tag_170:\n        /* \"#utility.yul\":766:885   */\n    tag_169:\n        /* \"#utility.yul\":924:925   */\n      0x00\n        /* \"#utility.yul\":949:1002   */\n      tag_171\n        /* \"#utility.yul\":994:1001   */\n      dup5\n        /* \"#utility.yul\":985:991   */\n      dup3\n        /* \"#utility.yul\":974:983   */\n      dup6\n        /* \"#utility.yul\":970:992   */\n      add\n        /* \"#utility.yul\":949:1002   */\n      tag_113\n      jump\t// in\n    tag_171:\n        /* \"#utility.yul\":939:1002   */\n      swap2\n      pop\n        /* \"#utility.yul\":895:1012   */\n      pop\n        /* \"#utility.yul\":690:1019   */\n      swap3\n      swap2\n      pop\n      pop\n      jump\t// out\n        /* \"#utility.yul\":1025:1123   */\n    tag_114:\n        /* \"#utility.yul\":1076:1082   */\n      0x00\n        /* \"#utility.yul\":1110:1115   */\n      dup2\n        /* \"#utility.yul\":1104:1116   */\n      mload\n        /* \"#utility.yul\":1094:1116   */\n      swap1\n      pop\n        /* \"#utility.yul\":1025:1123   */\n      swap2\n      swap1\n      pop\n      jump\t// out\n        /* \"#utility.yul\":1129:1297   */\n    tag_115:\n        /* \"#utility.yul\":1212:1223   */\n      0x00\n        /* \"#utility.yul\":1246:1252   */\n      dup3\n        /* \"#utility.yul\":1241:1244   */\n      dup3\n        /* \"#utility.yul\":1234:1253   */\n      mstore\n        /* \"#utility.yul\":1286:1290   */\n      0x20\n        /* \"#utility.yul\":1281:1284   */\n      dup3\n        /* \"#utility.yul\":1277:1291   */\n      add\n        /* \"#utility.yul\":1262:1291   */\n      swap1\n      pop\n        /* \"#utility.yul\":1129:1297   */\n      swap3\n      swap2\n      pop\n      pop\n      jump\t// out\n        /* \"#utility.yul\":1303:1610   */\n    tag_116:\n        /* \"#utility.yul\":1371:1372   */\n      0x00\n        /* \"#utility.yul\":1381:1494   */\n    tag_175:\n        /* \"#utility.yul\":1395:1401   */\n      dup4\n        /* \"#utility.yul\":1392:1393   */\n      dup2\n        /* \"#utility.yul\":1389:1402   */\n      lt\n        /* \"#utility.yul\":1381:1494   */\n      iszero\n      tag_177\n      jumpi\n        /* \"#utility.yul\":1480:1481   */\n      dup1\n        /* \"#utility.yul\":1475:1478   */\n      dup3\n        /* \"#utility.yul\":1471:1482   */\n      add\n        /* \"#utility.yul\":1465:1483   */\n      mload\n        /* \"#utility.yul\":1461:1462   */\n      dup2\n        /* \"#utility.yul\":1456:1459   */\n      dup5\n        /* \"#utility.yul\":1452:1463   */\n      add\n        /* \"#utility.yul\":1445:1484   */\n      mstore\n        /* \"#utility.yul\":1417:1419   */\n      0x20\n        /* \"#utility.yul\":1414:1415   */\n      dup2\n        /* \"#utility.yul\":1410:1420   */\n      add\n        /* \"#utility.yul\":1405:1420   */\n      swap1\n      pop\n        /* \"#utility.yul\":1381:1494   */\n      jump(tag_175)\n    tag_177:\n        /* \"#utility.yul\":1512:1518   */\n      dup4\n        /* \"#utility.yul\":1509:1510   */\n      dup2\n        /* \"#utility.yul\":1506:1519   */\n      gt\n        /* \"#utility.yul\":1503:1604   */\n      iszero\n      tag_178\n      jumpi\n        /* \"#utility.yul\":1592:1593   */\n      0x00\n        /* \"#utility.yul\":1583:1589   */\n      dup5\n        /* \"#utility.yul\":1578:1581   */\n      dup5\n        /* \"#utility.yul\":1574:1590   */\n      add\n        /* \"#utility.yul\":1567:1594   */\n      mstore\n        /* \"#utility.yul\":1503:1604   */\n    tag_178:\n        /* \"#utility.yul\":1352:1610   */\n      pop\n        /* \"#utility.yul\":1303:1610   */\n      pop\n      pop\n      pop\n      jump\t// out\n        /* \"#utility.yul\":1616:1718   */\n    tag_117:\n        /* \"#utility.yul\":1657:1663   */\n      0x00\n        /* \"#utility.yul\":1708:1710   */\n      0x1f\n        /* \"#utility.yul\":1704:1711   */\n      not\n        /* \"#utility.yul\":1699:1701   */\n      0x1f\n        /* \"#utility.yul\":1692:1697   */\n      dup4\n        /* \"#utility.yul\":1688:1702   */\n      add\n        /* \"#utility.yul\":1684:1712   */\n      and\n        /* \"#utility.yul\":1674:1712   */\n      swap1\n      pop\n        /* \"#utility.yul\":1616:1718   */\n      swap2\n      swap1\n      pop\n      jump\t// out\n        /* \"#utility.yul\":1724:2084   */\n    tag_118:\n        /* \"#utility.yul\":1810:1813   */\n      0x00\n        /* \"#utility.yul\":1838:1876   */\n      tag_181\n        /* \"#utility.yul\":1870:1875   */\n      dup3\n        /* \"#utility.yul\":1838:1876   */\n      tag_114\n      jump\t// in\n    tag_181:\n        /* \"#utility.yul\":1892:1962   */\n      tag_182\n        /* \"#utility.yul\":1955:1961   */\n      dup2\n        /* \"#utility.yul\":1950:1953   */\n      dup6\n        /* \"#utility.yul\":1892:1962   */\n      tag_115\n      jump\t// in\n    tag_182:\n        /* \"#utility.yul\":1885:1962   */\n      swap4\n      pop\n        /* \"#utility.yul\":1971:2023   */\n      tag_183\n        /* \"#utility.yul\":2016:2022   */\n      dup2\n        /* \"#utility.yul\":2011:2014   */\n      dup6\n        /* \"#utility.yul\":2004:2008   */\n      0x20\n        /* \"#utility.yul\":1997:2002   */\n      dup7\n        /* \"#utility.yul\":1993:2009   */\n      add\n        /* \"#utility.yul\":1971:2023   */\n      tag_116\n      jump\t// in\n    tag_183:\n        /* \"#utility.yul\":2048:2077   */\n      tag_184\n        /* \"#utility.yul\":2070:2076   */\n      dup2\n        /* \"#utility.yul\":2048:2077   */\n      tag_117\n      jump\t// in\n    tag_184:\n        /* \"#utility.yul\":2043:2046   */\n      dup5\n        /* \"#utility.yul\":2039:2078   */\n      add\n        /* \"#utility.yul\":2032:2078   */\n      swap2\n      pop\n        /* \"#utility.yul\":1814:2084   */\n      pop\n        /* \"#utility.yul\":1724:2084   */\n      swap3\n      swap2\n      pop\n      pop\n      jump\t// out\n        /* \"#utility.yul\":2090:2189   */\n    tag_119:\n        /* \"#utility.yul\":2142:2148   */\n      0x00\n        /* \"#utility.yul\":2176:2181   */\n      dup2\n        /* \"#utility.yul\":2170:2182   */\n      mload\n        /* \"#utility.yul\":2160:2182   */\n      swap1\n      pop\n        /* \"#utility.yul\":2090:2189   */\n      swap2\n      swap1\n      pop\n      jump\t// out\n        /* \"#utility.yul\":2195:2364   */\n    tag_120:\n        /* \"#utility.yul\":2279:2290   */\n      0x00\n        /* \"#utility.yul\":2313:2319   */\n      dup3\n        /* \"#utility.yul\":2308:2311   */\n      dup3\n        /* \"#utility.yul\":2301:2320   */\n      mstore\n        /* \"#utility.yul\":2353:2357   */\n      0x20\n        /* \"#utility.yul\":2348:2351   */\n      dup3\n        /* \"#utility.yul\":2344:2358   */\n      add\n        /* \"#utility.yul\":2329:2358   */\n      swap1\n      pop\n        /* \"#utility.yul\":2195:2364   */\n      swap3\n      swap2\n      pop\n      pop\n      jump\t// out\n        /* \"#utility.yul\":2370:2734   */\n    tag_121:\n        /* \"#utility.yul\":2458:2461   */\n      0x00\n        /* \"#utility.yul\":2486:2525   */\n      tag_188\n        /* \"#utility.yul\":2519:2524   */\n      dup3\n        /* \"#utility.yul\":2486:2525   */\n      tag_119\n      jump\t// in\n    tag_188:\n        /* \"#utility.yul\":2541:2612   */\n      tag_189\n        /* \"#utility.yul\":2605:2611   */\n      dup2\n        /* \"#utility.yul\":2600:2603   */\n      dup6\n        /* \"#utility.yul\":2541:2612   */\n      tag_120\n      jump\t// in\n    tag_189:\n        /* \"#utility.yul\":2534:2612   */\n      swap4\n      pop\n        /* \"#utility.yul\":2621:2673   */\n      tag_190\n        /* \"#utility.yul\":2666:2672   */\n      dup2\n        /* \"#utility.yul\":2661:2664   */\n      dup6\n        /* \"#utility.yul\":2654:2658   */\n      0x20\n        /* \"#utility.yul\":2647:2652   */\n      dup7\n        /* \"#utility.yul\":2643:2659   */\n      add\n        /* \"#utility.yul\":2621:2673   */\n      tag_116\n      jump\t// in\n    tag_190:\n        /* \"#utility.yul\":2698:2727   */\n      tag_191\n        /* \"#utility.yul\":2720:2726   */\n      dup2\n        /* \"#utility.yul\":2698:2727   */\n      tag_117\n      jump\t// in\n    tag_191:\n        /* \"#utility.yul\":2693:2696   */\n      dup5\n        /* \"#utility.yul\":2689:2728   */\n      add\n        /* \"#utility.yul\":2682:2728   */\n      swap2\n      pop\n        /* \"#utility.yul\":2462:2734   */\n      pop\n        /* \"#utility.yul\":2370:2734   */\n      swap3\n      swap2\n      pop\n      pop\n      jump\t// out\n        /* \"#utility.yul\":2740:2817   */\n    tag_122:\n        /* \"#utility.yul\":2777:2784   */\n      0x00\n        /* \"#utility.yul\":2806:2811   */\n      dup2\n        /* \"#utility.yul\":2795:2811   */\n      swap1\n      pop\n        /* \"#utility.yul\":2740:2817   */\n      swap2\n      swap1\n      pop\n      jump\t// out\n        /* \"#utility.yul\":2823:2941   */\n    tag_123:\n        /* \"#utility.yul\":2910:2934   */\n      tag_194\n        /* \"#utility.yul\":2928:2933   */\n      dup2\n        /* \"#utility.yul\":2910:2934   */\n      tag_122\n      jump\t// in\n    tag_194:\n        /* \"#utility.yul\":2905:2908   */\n      dup3\n        /* \"#utility.yul\":2898:2935   */\n      mstore\n        /* \"#utility.yul\":2823:2941   */\n      pop\n      pop\n      jump\t// out\n        /* \"#utility.yul\":2947:3567   */\n    tag_16:\n        /* \"#utility.yul\":3134:3138   */\n      0x00\n        /* \"#utility.yul\":3172:3174   */\n      0x60\n        /* \"#utility.yul\":3161:3170   */\n      dup3\n        /* \"#utility.yul\":3157:3175   */\n      add\n        /* \"#utility.yul\":3149:3175   */\n      swap1\n      pop\n        /* \"#utility.yul\":3221:3230   */\n      dup2\n        /* \"#utility.yul\":3215:3219   */\n      dup2\n        /* \"#utility.yul\":3211:3231   */\n      sub\n        /* \"#utility.yul\":3207:3208   */\n      0x00\n        /* \"#utility.yul\":3196:3205   */\n      dup4\n        /* \"#utility.yul\":3192:3209   */\n      add\n        /* \"#utility.yul\":3185:3232   */\n      mstore\n        /* \"#utility.yul\":3249:3325   */\n      tag_196\n        /* \"#utility.yul\":3320:3324   */\n      dup2\n        /* \"#utility.yul\":3311:3317   */\n      dup7\n        /* \"#utility.yul\":3249:3325   */\n      tag_118\n      jump\t// in\n    tag_196:\n        /* \"#utility.yul\":3241:3325   */\n      swap1\n      pop\n        /* \"#utility.yul\":3372:3381   */\n      dup2\n        /* \"#utility.yul\":3366:3370   */\n      dup2\n        /* \"#utility.yul\":3362:3382   */\n      sub\n        /* \"#utility.yul\":3357:3359   */\n      0x20\n        /* \"#utility.yul\":3346:3355   */\n      dup4\n        /* \"#utility.yul\":3342:3360   */\n      add\n        /* \"#utility.yul\":3335:3383   */\n      mstore\n        /* \"#utility.yul\":3400:3478   */\n      tag_197\n        /* \"#utility.yul\":3473:3477   */\n      dup2\n        /* \"#utility.yul\":3464:3470   */\n      dup6\n        /* \"#utility.yul\":3400:3478   */\n      tag_121\n      jump\t// in\n    tag_197:\n        /* \"#utility.yul\":3392:3478   */\n      swap1\n      pop\n        /* \"#utility.yul\":3488:3560   */\n      tag_198\n        /* \"#utility.yul\":3556:3558   */\n      0x40\n        /* \"#utility.yul\":3545:3554   */\n      dup4\n        /* \"#utility.yul\":3541:3559   */\n      add\n        /* \"#utility.yul\":3532:3538   */\n      dup5\n        /* \"#utility.yul\":3488:3560   */\n      tag_123\n      jump\t// in\n    tag_198:\n        /* \"#utility.yul\":2947:3567   */\n      swap5\n      swap4\n      pop\n      pop\n      pop\n      pop\n      jump\t// out\n        /* \"#utility.yul\":3573:3663   */\n    tag_124:\n        /* \"#utility.yul\":3607:3614   */\n      0x00\n        /* \"#utility.yul\":3650:3655   */\n      dup2\n        /* \"#utility.yul\":3643:3656   */\n      iszero\n        /* \"#utility.yul\":3636:3657   */\n      iszero\n        /* \"#utility.yul\":3625:3657   */\n      swap1\n      pop\n        /* \"#utility.yul\":3573:3663   */\n      swap2\n      swap1\n      pop\n      jump\t// out\n        /* \"#utility.yul\":3669:3778   */\n    tag_125:\n        /* \"#utility.yul\":3750:3771   */\n      tag_201\n        /* \"#utility.yul\":3765:3770   */\n      dup2\n        /* \"#utility.yul\":3750:3771   */\n      tag_124\n      jump\t// in\n    tag_201:\n        /* \"#utility.yul\":3745:3748   */\n      dup3\n        /* \"#utility.yul\":3738:3772   */\n      mstore\n        /* \"#utility.yul\":3669:3778   */\n      pop\n      pop\n      jump\t// out\n        /* \"#utility.yul\":3784:3994   */\n    tag_21:\n        /* \"#utility.yul\":3871:3875   */\n      0x00\n        /* \"#utility.yul\":3909:3911   */\n      0x20\n        /* \"#utility.yul\":3898:3907   */\n      dup3\n        /* \"#utility.yul\":3894:3912   */\n      add\n        /* \"#utility.yul\":3886:3912   */\n      swap1\n      pop\n        /* \"#utility.yul\":3922:3987   */\n      tag_203\n        /* \"#utility.yul\":3984:3985   */\n      0x00\n        /* \"#utility.yul\":3973:3982   */\n      dup4\n        /* \"#utility.yul\":3969:3986   */\n      add\n        /* \"#utility.yul\":3960:3966   */\n      dup5\n        /* \"#utility.yul\":3922:3987   */\n      tag_125\n      jump\t// in\n    tag_203:\n        /* \"#utility.yul\":3784:3994   */\n      swap3\n      swap2\n      pop\n      pop\n      jump\t// out\n        /* \"#utility.yul\":4000:4126   */\n    tag_126:\n        /* \"#utility.yul\":4037:4044   */\n      0x00\n        /* \"#utility.yul\":4077:4119   */\n      0xffffffffffffffffffffffffffffffffffffffff\n        /* \"#utility.yul\":4070:4075   */\n      dup3\n        /* \"#utility.yul\":4066:4120   */\n      and\n        /* \"#utility.yul\":4055:4120   */\n      swap1\n      pop\n        /* \"#utility.yul\":4000:4126   */\n      swap2\n      swap1\n      pop\n      jump\t// out\n        /* \"#utility.yul\":4132:4228   */\n    tag_127:\n        /* \"#utility.yul\":4169:4176   */\n      0x00\n        /* \"#utility.yul\":4198:4222   */\n      tag_206\n        /* \"#utility.yul\":4216:4221   */\n      dup3\n        /* \"#utility.yul\":4198:4222   */\n      tag_126\n      jump\t// in\n    tag_206:\n        /* \"#utility.yul\":4187:4222   */\n      swap1\n      pop\n        /* \"#utility.yul\":4132:4228   */\n      swap2\n      swap1\n      pop\n      jump\t// out\n        /* \"#utility.yul\":4234:4352   */\n    tag_128:\n        /* \"#utility.yul\":4321:4345   */\n      tag_208\n        /* \"#utility.yul\":4339:4344   */\n      dup2\n        /* \"#utility.yul\":4321:4345   */\n      tag_127\n      jump\t// in\n    tag_208:\n        /* \"#utility.yul\":4316:4319   */\n      dup3\n        /* \"#utility.yul\":4309:4346   */\n      mstore\n        /* \"#utility.yul\":4234:4352   */\n      pop\n      pop\n      jump\t// out\n        /* \"#utility.yul\":4358:4580   */\n    tag_25:\n        /* \"#utility.yul\":4451:4455   */\n      0x00\n        /* \"#utility.yul\":4489:4491   */\n      0x20\n        /* \"#utility.yul\":4478:4487   */\n      dup3\n        /* \"#utility.yul\":4474:4492   */\n      add\n        /* \"#utility.yul\":4466:4492   */\n      swap1\n      pop\n        /* \"#utility.yul\":4502:4573   */\n      tag_210\n        /* \"#utility.yul\":4570:4571   */\n      0x00\n        /* \"#utility.yul\":4559:4568   */\n      dup4\n        /* \"#utility.yul\":4555:4572   */\n      add\n        /* \"#utility.yul\":4546:4552   */\n      dup5\n        /* \"#utility.yul\":4502:4573   */\n      tag_128\n      jump\t// in\n    tag_210:\n        /* \"#utility.yul\":4358:4580   */\n      swap3\n      swap2\n      pop\n      pop\n      jump\t// out\n        /* \"#utility.yul\":4586:4703   */\n    tag_129:\n        /* \"#utility.yul\":4695:4696   */\n      0x00\n        /* \"#utility.yul\":4692:4693   */\n      dup1\n        /* \"#utility.yul\":4685:4697   */\n      revert\n        /* \"#utility.yul\":4709:4826   */\n    tag_130:\n        /* \"#utility.yul\":4818:4819   */\n      0x00\n        /* \"#utility.yul\":4815:4816   */\n      dup1\n        /* \"#utility.yul\":4808:4820   */\n      revert\n        /* \"#utility.yul\":4832:4949   */\n    tag_131:\n        /* \"#utility.yul\":4941:4942   */\n      0x00\n        /* \"#utility.yul\":4938:4939   */\n      dup1\n        /* \"#utility.yul\":4931:4943   */\n      revert\n        /* \"#utility.yul\":4968:5520   */\n    tag_132:\n        /* \"#utility.yul\":5025:5033   */\n      0x00\n        /* \"#utility.yul\":5035:5041   */\n      dup1\n        /* \"#utility.yul\":5085:5088   */\n      dup4\n        /* \"#utility.yul\":5078:5082   */\n      0x1f\n        /* \"#utility.yul\":5070:5076   */\n      dup5\n        /* \"#utility.yul\":5066:5083   */\n      add\n        /* \"#utility.yul\":5062:5089   */\n      slt\n        /* \"#utility.yul\":5052:5174   */\n      tag_215\n      jumpi\n        /* \"#utility.yul\":5093:5172   */\n      tag_216\n      tag_129\n      jump\t// in\n    tag_216:\n        /* \"#utility.yul\":5052:5174   */\n    tag_215:\n        /* \"#utility.yul\":5206:5212   */\n      dup3\n        /* \"#utility.yul\":5193:5213   */\n      calldataload\n        /* \"#utility.yul\":5183:5213   */\n      swap1\n      pop\n        /* \"#utility.yul\":5236:5254   */\n      0xffffffffffffffff\n        /* \"#utility.yul\":5228:5234   */\n      dup2\n        /* \"#utility.yul\":5225:5255   */\n      gt\n        /* \"#utility.yul\":5222:5339   */\n      iszero\n      tag_217\n      jumpi\n        /* \"#utility.yul\":5258:5337   */\n      tag_218\n      tag_130\n      jump\t// in\n    tag_218:\n        /* \"#utility.yul\":5222:5339   */\n    tag_217:\n        /* \"#utility.yul\":5372:5376   */\n      0x20\n        /* \"#utility.yul\":5364:5370   */\n      dup4\n        /* \"#utility.yul\":5360:5377   */\n      add\n        /* \"#utility.yul\":5348:5377   */\n      swap2\n      pop\n        /* \"#utility.yul\":5426:5429   */\n      dup4\n        /* \"#utility.yul\":5418:5422   */\n      0x01\n        /* \"#utility.yul\":5410:5416   */\n      dup3\n        /* \"#utility.yul\":5406:5423   */\n      mul\n        /* \"#utility.yul\":5396:5404   */\n      dup4\n        /* \"#utility.yul\":5392:5424   */\n      add\n        /* \"#utility.yul\":5389:5430   */\n      gt\n        /* \"#utility.yul\":5386:5514   */\n      iszero\n      tag_219\n      jumpi\n        /* \"#utility.yul\":5433:5512   */\n      tag_220\n      tag_131\n      jump\t// in\n    tag_220:\n        /* \"#utility.yul\":5386:5514   */\n    tag_219:\n        /* \"#utility.yul\":4968:5520   */\n      swap3\n      pop\n      swap3\n      swap1\n      pop\n      jump\t// out\n        /* \"#utility.yul\":5540:6093   */\n    tag_133:\n        /* \"#utility.yul\":5598:5606   */\n      0x00\n        /* \"#utility.yul\":5608:5614   */\n      dup1\n        /* \"#utility.yul\":5658:5661   */\n      dup4\n        /* \"#utility.yul\":5651:5655   */\n      0x1f\n        /* \"#utility.yul\":5643:5649   */\n      dup5\n        /* \"#utility.yul\":5639:5656   */\n      add\n        /* \"#utility.yul\":5635:5662   */\n      slt\n        /* \"#utility.yul\":5625:5747   */\n      tag_222\n      jumpi\n        /* \"#utility.yul\":5666:5745   */\n      tag_223\n      tag_129\n      jump\t// in\n    tag_223:\n        /* \"#utility.yul\":5625:5747   */\n    tag_222:\n        /* \"#utility.yul\":5779:5785   */\n      dup3\n        /* \"#utility.yul\":5766:5786   */\n      calldataload\n        /* \"#utility.yul\":5756:5786   */\n      swap1\n      pop\n        /* \"#utility.yul\":5809:5827   */\n      0xffffffffffffffff\n        /* \"#utility.yul\":5801:5807   */\n      dup2\n        /* \"#utility.yul\":5798:5828   */\n      gt\n        /* \"#utility.yul\":5795:5912   */\n      iszero\n      tag_224\n      jumpi\n        /* \"#utility.yul\":5831:5910   */\n      tag_225\n      tag_130\n      jump\t// in\n    tag_225:\n        /* \"#utility.yul\":5795:5912   */\n    tag_224:\n        /* \"#utility.yul\":5945:5949   */\n      0x20\n        /* \"#utility.yul\":5937:5943   */\n      dup4\n        /* \"#utility.yul\":5933:5950   */\n      add\n        /* \"#utility.yul\":5921:5950   */\n      swap2\n      pop\n        /* \"#utility.yul\":5999:6002   */\n      dup4\n        /* \"#utility.yul\":5991:5995   */\n      0x01\n        /* \"#utility.yul\":5983:5989   */\n      dup3\n        /* \"#utility.yul\":5979:5996   */\n      mul\n        /* \"#utility.yul\":5969:5977   */\n      dup4\n        /* \"#utility.yul\":5965:5997   */\n      add\n        /* \"#utility.yul\":5962:6003   */\n      gt\n        /* \"#utility.yul\":5959:6087   */\n      iszero\n      tag_226\n      jumpi\n        /* \"#utility.yul\":6006:6085   */\n      tag_227\n      tag_131\n      jump\t// in\n    tag_227:\n        /* \"#utility.yul\":5959:6087   */\n    tag_226:\n        /* \"#utility.yul\":5540:6093   */\n      swap3\n      pop\n      swap3\n      swap1\n      pop\n      jump\t// out\n        /* \"#utility.yul\":6099:7116   */\n    tag_31:\n        /* \"#utility.yul\":6199:6205   */\n      0x00\n        /* \"#utility.yul\":6207:6213   */\n      dup1\n        /* \"#utility.yul\":6215:6221   */\n      0x00\n        /* \"#utility.yul\":6223:6229   */\n      dup1\n        /* \"#utility.yul\":6231:6237   */\n      0x00\n        /* \"#utility.yul\":6280:6282   */\n      0x60\n        /* \"#utility.yul\":6268:6277   */\n      dup7\n        /* \"#utility.yul\":6259:6266   */\n      dup9\n        /* \"#utility.yul\":6255:6278   */\n      sub\n        /* \"#utility.yul\":6251:6283   */\n      slt\n        /* \"#utility.yul\":6248:6367   */\n      iszero\n      tag_229\n      jumpi\n        /* \"#utility.yul\":6286:6365   */\n      tag_230\n      tag_109\n      jump\t// in\n    tag_230:\n        /* \"#utility.yul\":6248:6367   */\n    tag_229:\n        /* \"#utility.yul\":6406:6407   */\n      0x00\n        /* \"#utility.yul\":6431:6484   */\n      tag_231\n        /* \"#utility.yul\":6476:6483   */\n      dup9\n        /* \"#utility.yul\":6467:6473   */\n      dup3\n        /* \"#utility.yul\":6456:6465   */\n      dup10\n        /* \"#utility.yul\":6452:6474   */\n      add\n        /* \"#utility.yul\":6431:6484   */\n      tag_113\n      jump\t// in\n    tag_231:\n        /* \"#utility.yul\":6421:6484   */\n      swap6\n      pop\n        /* \"#utility.yul\":6377:6494   */\n      pop\n        /* \"#utility.yul\":6561:6563   */\n      0x20\n        /* \"#utility.yul\":6550:6559   */\n      dup7\n        /* \"#utility.yul\":6546:6564   */\n      add\n        /* \"#utility.yul\":6533:6565   */\n      calldataload\n        /* \"#utility.yul\":6592:6610   */\n      0xffffffffffffffff\n        /* \"#utility.yul\":6584:6590   */\n      dup2\n        /* \"#utility.yul\":6581:6611   */\n      gt\n        /* \"#utility.yul\":6578:6695   */\n      iszero\n      tag_232\n      jumpi\n        /* \"#utility.yul\":6614:6693   */\n      tag_233\n      tag_110\n      jump\t// in\n    tag_233:\n        /* \"#utility.yul\":6578:6695   */\n    tag_232:\n        /* \"#utility.yul\":6727:6791   */\n      tag_234\n        /* \"#utility.yul\":6783:6790   */\n      dup9\n        /* \"#utility.yul\":6774:6780   */\n      dup3\n        /* \"#utility.yul\":6763:6772   */\n      dup10\n        /* \"#utility.yul\":6759:6781   */\n      add\n        /* \"#utility.yul\":6727:6791   */\n      tag_132\n      jump\t// in\n    tag_234:\n        /* \"#utility.yul\":6709:6791   */\n      swap5\n      pop\n      swap5\n      pop\n        /* \"#utility.yul\":6504:6801   */\n      pop\n        /* \"#utility.yul\":6868:6870   */\n      0x40\n        /* \"#utility.yul\":6857:6866   */\n      dup7\n        /* \"#utility.yul\":6853:6871   */\n      add\n        /* \"#utility.yul\":6840:6872   */\n      calldataload\n        /* \"#utility.yul\":6899:6917   */\n      0xffffffffffffffff\n        /* \"#utility.yul\":6891:6897   */\n      dup2\n        /* \"#utility.yul\":6888:6918   */\n      gt\n        /* \"#utility.yul\":6885:7002   */\n      iszero\n      tag_235\n      jumpi\n        /* \"#utility.yul\":6921:7000   */\n      tag_236\n      tag_110\n      jump\t// in\n    tag_236:\n        /* \"#utility.yul\":6885:7002   */\n    tag_235:\n        /* \"#utility.yul\":7034:7099   */\n      tag_237\n        /* \"#utility.yul\":7091:7098   */\n      dup9\n        /* \"#utility.yul\":7082:7088   */\n      dup3\n        /* \"#utility.yul\":7071:7080   */\n      dup10\n        /* \"#utility.yul\":7067:7089   */\n      add\n        /* \"#utility.yul\":7034:7099   */\n      tag_133\n      jump\t// in\n    tag_237:\n        /* \"#utility.yul\":7016:7099   */\n      swap3\n      pop\n      swap3\n      pop\n        /* \"#utility.yul\":6811:7109   */\n      pop\n        /* \"#utility.yul\":6099:7116   */\n      swap3\n      swap6\n      pop\n      swap3\n      swap6\n      swap1\n      swap4\n      pop\n      jump\t// out\n        /* \"#utility.yul\":7122:7344   */\n    tag_37:\n        /* \"#utility.yul\":7215:7219   */\n      0x00\n        /* \"#utility.yul\":7253:7255   */\n      0x20\n        /* \"#utility.yul\":7242:7251   */\n      dup3\n        /* \"#utility.yul\":7238:7256   */\n      add\n        /* \"#utility.yul\":7230:7256   */\n      swap1\n      pop\n        /* \"#utility.yul\":7266:7337   */\n      tag_239\n        /* \"#utility.yul\":7334:7335   */\n      0x00\n        /* \"#utility.yul\":7323:7332   */\n      dup4\n        /* \"#utility.yul\":7319:7336   */\n      add\n        /* \"#utility.yul\":7310:7316   */\n      dup5\n        /* \"#utility.yul\":7266:7337   */\n      tag_123\n      jump\t// in\n    tag_239:\n        /* \"#utility.yul\":7122:7344   */\n      swap3\n      swap2\n      pop\n      pop\n      jump\t// out\n        /* \"#utility.yul\":7350:7472   */\n    tag_134:\n        /* \"#utility.yul\":7423:7447   */\n      tag_241\n        /* \"#utility.yul\":7441:7446   */\n      dup2\n        /* \"#utility.yul\":7423:7447   */\n      tag_127\n      jump\t// in\n    tag_241:\n        /* \"#utility.yul\":7416:7421   */\n      dup2\n        /* \"#utility.yul\":7413:7448   */\n      eq\n        /* \"#utility.yul\":7403:7466   */\n      tag_242\n      jumpi\n        /* \"#utility.yul\":7462:7463   */\n      0x00\n        /* \"#utility.yul\":7459:7460   */\n      dup1\n        /* \"#utility.yul\":7452:7464   */\n      revert\n        /* \"#utility.yul\":7403:7466   */\n    tag_242:\n        /* \"#utility.yul\":7350:7472   */\n      pop\n      jump\t// out\n        /* \"#utility.yul\":7478:7617   */\n    tag_135:\n        /* \"#utility.yul\":7524:7529   */\n      0x00\n        /* \"#utility.yul\":7562:7568   */\n      dup2\n        /* \"#utility.yul\":7549:7569   */\n      calldataload\n        /* \"#utility.yul\":7540:7569   */\n      swap1\n      pop\n        /* \"#utility.yul\":7578:7611   */\n      tag_244\n        /* \"#utility.yul\":7605:7610   */\n      dup2\n        /* \"#utility.yul\":7578:7611   */\n      tag_134\n      jump\t// in\n    tag_244:\n        /* \"#utility.yul\":7478:7617   */\n      swap3\n      swap2\n      pop\n      pop\n      jump\t// out\n        /* \"#utility.yul\":7623:7952   */\n    tag_40:\n        /* \"#utility.yul\":7682:7688   */\n      0x00\n        /* \"#utility.yul\":7731:7733   */\n      0x20\n        /* \"#utility.yul\":7719:7728   */\n      dup3\n        /* \"#utility.yul\":7710:7717   */\n      dup5\n        /* \"#utility.yul\":7706:7729   */\n      sub\n        /* \"#utility.yul\":7702:7734   */\n      slt\n        /* \"#utility.yul\":7699:7818   */\n      iszero\n      tag_246\n      jumpi\n        /* \"#utility.yul\":7737:7816   */\n      tag_247\n      tag_109\n      jump\t// in\n    tag_247:\n        /* \"#utility.yul\":7699:7818   */\n    tag_246:\n        /* \"#utility.yul\":7857:7858   */\n      0x00\n        /* \"#utility.yul\":7882:7935   */\n      tag_248\n        /* \"#utility.yul\":7927:7934   */\n      dup5\n        /* \"#utility.yul\":7918:7924   */\n      dup3\n        /* \"#utility.yul\":7907:7916   */\n      dup6\n        /* \"#utility.yul\":7903:7925   */\n      add\n        /* \"#utility.yul\":7882:7935   */\n      tag_135\n      jump\t// in\n    tag_248:\n        /* \"#utility.yul\":7872:7935   */\n      swap2\n      pop\n        /* \"#utility.yul\":7828:7945   */\n      pop\n        /* \"#utility.yul\":7623:7952   */\n      swap3\n      swap2\n      pop\n      pop\n      jump\t// out\n        /* \"#utility.yul\":7958:8131   */\n    tag_136:\n        /* \"#utility.yul\":8098:8123   */\n      0x4e6f20505143207369676e617475726520666f72207478000000000000000000\n        /* \"#utility.yul\":8094:8095   */\n      0x00\n        /* \"#utility.yul\":8086:8092   */\n      dup3\n        /* \"#utility.yul\":8082:8096   */\n      add\n        /* \"#utility.yul\":8075:8124   */\n      mstore\n        /* \"#utility.yul\":7958:8131   */\n      pop\n      jump\t// out\n        /* \"#utility.yul\":8137:8503   */\n    tag_137:\n        /* \"#utility.yul\":8279:8282   */\n      0x00\n        /* \"#utility.yul\":8300:8367   */\n      tag_251\n        /* \"#utility.yul\":8364:8366   */\n      0x17\n        /* \"#utility.yul\":8359:8362   */\n      dup4\n        /* \"#utility.yul\":8300:8367   */\n      tag_120\n      jump\t// in\n    tag_251:\n        /* \"#utility.yul\":8293:8367   */\n      swap2\n      pop\n        /* \"#utility.yul\":8376:8469   */\n      tag_252\n        /* \"#utility.yul\":8465:8468   */\n      dup3\n        /* \"#utility.yul\":8376:8469   */\n      tag_136\n      jump\t// in\n    tag_252:\n        /* \"#utility.yul\":8494:8496   */\n      0x20\n        /* \"#utility.yul\":8489:8492   */\n      dup3\n        /* \"#utility.yul\":8485:8497   */\n      add\n        /* \"#utility.yul\":8478:8497   */\n      swap1\n      pop\n        /* \"#utility.yul\":8137:8503   */\n      swap2\n      swap1\n      pop\n      jump\t// out\n        /* \"#utility.yul\":8509:8928   */\n    tag_45:\n        /* \"#utility.yul\":8675:8679   */\n      0x00\n        /* \"#utility.yul\":8713:8715   */\n      0x20\n        /* \"#utility.yul\":8702:8711   */\n      dup3\n        /* \"#utility.yul\":8698:8716   */\n      add\n        /* \"#utility.yul\":8690:8716   */\n      swap1\n      pop\n        /* \"#utility.yul\":8762:8771   */\n      dup2\n        /* \"#utility.yul\":8756:8760   */\n      dup2\n        /* \"#utility.yul\":8752:8772   */\n      sub\n        /* \"#utility.yul\":8748:8749   */\n      0x00\n        /* \"#utility.yul\":8737:8746   */\n      dup4\n        /* \"#utility.yul\":8733:8750   */\n      add\n        /* \"#utility.yul\":8726:8773   */\n      mstore\n        /* \"#utility.yul\":8790:8921   */\n      tag_254\n        /* \"#utility.yul\":8916:8920   */\n      dup2\n        /* \"#utility.yul\":8790:8921   */\n      tag_137\n      jump\t// in\n    tag_254:\n        /* \"#utility.yul\":8782:8921   */\n      swap1\n      pop\n        /* \"#utility.yul\":8509:8928   */\n      swap2\n      swap1\n      pop\n      jump\t// out\n        /* \"#utility.yul\":8934:9114   */\n    tag_138:\n        /* \"#utility.yul\":8982:9059   */\n      0x4e487b7100000000000000000000000000000000000000000000000000000000\n        /* \"#utility.yul\":8979:8980   */\n      0x00\n        /* \"#utility.yul\":8972:9060   */\n      mstore\n        /* \"#utility.yul\":9079:9083   */\n      0x22\n        /* \"#utility.yul\":9076:9077   */\n      0x04\n        /* \"#utility.yul\":9069:9084   */\n      mstore\n        /* \"#utility.yul\":9103:9107   */\n      0x24\n        /* \"#utility.yul\":9100:9101   */\n      0x00\n        /* \"#utility.yul\":9093:9108   */\n      revert\n        /* \"#utility.yul\":9120:9440   */\n    tag_47:\n        /* \"#utility.yul\":9164:9170   */\n      0x00\n        /* \"#utility.yul\":9201:9202   */\n      0x02\n        /* \"#utility.yul\":9195:9199   */\n      dup3\n        /* \"#utility.yul\":9191:9203   */\n      div\n        /* \"#utility.yul\":9181:9203   */\n      swap1\n      pop\n        /* \"#utility.yul\":9248:9249   */\n      0x01\n        /* \"#utility.yul\":9242:9246   */\n      dup3\n        /* \"#utility.yul\":9238:9250   */\n      and\n        /* \"#utility.yul\":9269:9287   */\n      dup1\n        /* \"#utility.yul\":9259:9340   */\n      tag_257\n      jumpi\n        /* \"#utility.yul\":9325:9329   */\n      0x7f\n        /* \"#utility.yul\":9317:9323   */\n      dup3\n        /* \"#utility.yul\":9313:9330   */\n      and\n        /* \"#utility.yul\":9303:9330   */\n      swap2\n      pop\n        /* \"#utility.yul\":9259:9340   */\n    tag_257:\n        /* \"#utility.yul\":9387:9389   */\n      0x20\n        /* \"#utility.yul\":9379:9385   */\n      dup3\n        /* \"#utility.yul\":9376:9390   */\n      lt\n        /* \"#utility.yul\":9356:9374   */\n      dup2\n        /* \"#utility.yul\":9353:9391   */\n      eq\n        /* \"#utility.yul\":9350:9434   */\n      iszero\n      tag_258\n      jumpi\n        /* \"#utility.yul\":9406:9424   */\n      tag_259\n      tag_138\n      jump\t// in\n    tag_259:\n        /* \"#utility.yul\":9350:9434   */\n    tag_258:\n        /* \"#utility.yul\":9171:9440   */\n      pop\n        /* \"#utility.yul\":9120:9440   */\n      swap2\n      swap1\n      pop\n      jump\t// out\n        /* \"#utility.yul\":9446:9619   */\n    tag_139:\n        /* \"#utility.yul\":9586:9611   */\n      0x4f6e6c7920496e74657262616e6b20636f6e7472616374000000000000000000\n        /* \"#utility.yul\":9582:9583   */\n      0x00\n        /* \"#utility.yul\":9574:9580   */\n      dup3\n        /* \"#utility.yul\":9570:9584   */\n      add\n        /* \"#utility.yul\":9563:9612   */\n      mstore\n        /* \"#utility.yul\":9446:9619   */\n      pop\n      jump\t// out\n        /* \"#utility.yul\":9625:9991   */\n    tag_140:\n        /* \"#utility.yul\":9767:9770   */\n      0x00\n        /* \"#utility.yul\":9788:9855   */\n      tag_262\n        /* \"#utility.yul\":9852:9854   */\n      0x17\n        /* \"#utility.yul\":9847:9850   */\n      dup4\n        /* \"#utility.yul\":9788:9855   */\n      tag_120\n      jump\t// in\n    tag_262:\n        /* \"#utility.yul\":9781:9855   */\n      swap2\n      pop\n        /* \"#utility.yul\":9864:9957   */\n      tag_263\n        /* \"#utility.yul\":9953:9956   */\n      dup3\n        /* \"#utility.yul\":9864:9957   */\n      tag_139\n      jump\t// in\n    tag_263:\n        /* \"#utility.yul\":9982:9984   */\n      0x20\n        /* \"#utility.yul\":9977:9980   */\n      dup3\n        /* \"#utility.yul\":9973:9985   */\n      add\n        /* \"#utility.yul\":9966:9985   */\n      swap1\n      pop\n        /* \"#utility.yul\":9625:9991   */\n      swap2\n      swap1\n      pop\n      jump\t// out\n        /* \"#utility.yul\":9997:10416   */\n    tag_61:\n        /* \"#utility.yul\":10163:10167   */\n      0x00\n        /* \"#utility.yul\":10201:10203   */\n      0x20\n        /* \"#utility.yul\":10190:10199   */\n      dup3\n        /* \"#utility.yul\":10186:10204   */\n      add\n        /* \"#utility.yul\":10178:10204   */\n      swap1\n      pop\n        /* \"#utility.yul\":10250:10259   */\n      dup2\n        /* \"#utility.yul\":10244:10248   */\n      dup2\n        /* \"#utility.yul\":10240:10260   */\n      sub\n        /* \"#utility.yul\":10236:10237   */\n      0x00\n        /* \"#utility.yul\":10225:10234   */\n      dup4\n        /* \"#utility.yul\":10221:10238   */\n      add\n        /* \"#utility.yul\":10214:10261   */\n      mstore\n        /* \"#utility.yul\":10278:10409   */\n      tag_265\n        /* \"#utility.yul\":10404:10408   */\n      dup2\n        /* \"#utility.yul\":10278:10409   */\n      tag_140\n      jump\t// in\n    tag_265:\n        /* \"#utility.yul\":10270:10409   */\n      swap1\n      pop\n        /* \"#utility.yul\":9997:10416   */\n      swap2\n      swap1\n      pop\n      jump\t// out\n        /* \"#utility.yul\":10422:10584   */\n    tag_141:\n        /* \"#utility.yul\":10562:10576   */\n      0x496e76616c696420747849640000000000000000000000000000000000000000\n        /* \"#utility.yul\":10558:10559   */\n      0x00\n        /* \"#utility.yul\":10550:10556   */\n      dup3\n        /* \"#utility.yul\":10546:10560   */\n      add\n        /* \"#utility.yul\":10539:10577   */\n      mstore\n        /* \"#utility.yul\":10422:10584   */\n      pop\n      jump\t// out\n        /* \"#utility.yul\":10590:10956   */\n    tag_142:\n        /* \"#utility.yul\":10732:10735   */\n      0x00\n        /* \"#utility.yul\":10753:10820   */\n      tag_268\n        /* \"#utility.yul\":10817:10819   */\n      0x0c\n        /* \"#utility.yul\":10812:10815   */\n      dup4\n        /* \"#utility.yul\":10753:10820   */\n      tag_120\n      jump\t// in\n    tag_268:\n        /* \"#utility.yul\":10746:10820   */\n      swap2\n      pop\n        /* \"#utility.yul\":10829:10922   */\n      tag_269\n        /* \"#utility.yul\":10918:10921   */\n      dup3\n        /* \"#utility.yul\":10829:10922   */\n      tag_141\n      jump\t// in\n    tag_269:\n        /* \"#utility.yul\":10947:10949   */\n      0x20\n        /* \"#utility.yul\":10942:10945   */\n      dup3\n        /* \"#utility.yul\":10938:10950   */\n      add\n        /* \"#utility.yul\":10931:10950   */\n      swap1\n      pop\n        /* \"#utility.yul\":10590:10956   */\n      swap2\n      swap1\n      pop\n      jump\t// out\n        /* \"#utility.yul\":10962:11381   */\n    tag_65:\n        /* \"#utility.yul\":11128:11132   */\n      0x00\n        /* \"#utility.yul\":11166:11168   */\n      0x20\n        /* \"#utility.yul\":11155:11164   */\n      dup3\n        /* \"#utility.yul\":11151:11169   */\n      add\n        /* \"#utility.yul\":11143:11169   */\n      swap1\n      pop\n        /* \"#utility.yul\":11215:11224   */\n      dup2\n        /* \"#utility.yul\":11209:11213   */\n      dup2\n        /* \"#utility.yul\":11205:11225   */\n      sub\n        /* \"#utility.yul\":11201:11202   */\n      0x00\n        /* \"#utility.yul\":11190:11199   */\n      dup4\n        /* \"#utility.yul\":11186:11203   */\n      add\n        /* \"#utility.yul\":11179:11226   */\n      mstore\n        /* \"#utility.yul\":11243:11374   */\n      tag_271\n        /* \"#utility.yul\":11369:11373   */\n      dup2\n        /* \"#utility.yul\":11243:11374   */\n      tag_142\n      jump\t// in\n    tag_271:\n        /* \"#utility.yul\":11235:11374   */\n      swap1\n      pop\n        /* \"#utility.yul\":10962:11381   */\n      swap2\n      swap1\n      pop\n      jump\t// out\n        /* \"#utility.yul\":11387:11552   */\n    tag_143:\n        /* \"#utility.yul\":11527:11544   */\n      0x456d707479207369676e61747572650000000000000000000000000000000000\n        /* \"#utility.yul\":11523:11524   */\n      0x00\n        /* \"#utility.yul\":11515:11521   */\n      dup3\n        /* \"#utility.yul\":11511:11525   */\n      add\n        /* \"#utility.yul\":11504:11545   */\n      mstore\n        /* \"#utility.yul\":11387:11552   */\n      pop\n      jump\t// out\n        /* \"#utility.yul\":11558:11924   */\n    tag_144:\n        /* \"#utility.yul\":11700:11703   */\n      0x00\n        /* \"#utility.yul\":11721:11788   */\n      tag_274\n        /* \"#utility.yul\":11785:11787   */\n      0x0f\n        /* \"#utility.yul\":11780:11783   */\n      dup4\n        /* \"#utility.yul\":11721:11788   */\n      tag_120\n      jump\t// in\n    tag_274:\n        /* \"#utility.yul\":11714:11788   */\n      swap2\n      pop\n        /* \"#utility.yul\":11797:11890   */\n      tag_275\n        /* \"#utility.yul\":11886:11889   */\n      dup3\n        /* \"#utility.yul\":11797:11890   */\n      tag_143\n      jump\t// in\n    tag_275:\n        /* \"#utility.yul\":11915:11917   */\n      0x20\n        /* \"#utility.yul\":11910:11913   */\n      dup3\n        /* \"#utility.yul\":11906:11918   */\n      add\n        /* \"#utility.yul\":11899:11918   */\n      swap1\n      pop\n        /* \"#utility.yul\":11558:11924   */\n      swap2\n      swap1\n      pop\n      jump\t// out\n        /* \"#utility.yul\":11930:12349   */\n    tag_68:\n        /* \"#utility.yul\":12096:12100   */\n      0x00\n        /* \"#utility.yul\":12134:12136   */\n      0x20\n        /* \"#utility.yul\":12123:12132   */\n      dup3\n        /* \"#utility.yul\":12119:12137   */\n      add\n        /* \"#utility.yul\":12111:12137   */\n      swap1\n      pop\n        /* \"#utility.yul\":12183:12192   */\n      dup2\n        /* \"#utility.yul\":12177:12181   */\n      dup2\n        /* \"#utility.yul\":12173:12193   */\n      sub\n        /* \"#utility.yul\":12169:12170   */\n      0x00\n        /* \"#utility.yul\":12158:12167   */\n      dup4\n        /* \"#utility.yul\":12154:12171   */\n      add\n        /* \"#utility.yul\":12147:12194   */\n      mstore\n        /* \"#utility.yul\":12211:12342   */\n      tag_277\n        /* \"#utility.yul\":12337:12341   */\n      dup2\n        /* \"#utility.yul\":12211:12342   */\n      tag_144\n      jump\t// in\n    tag_277:\n        /* \"#utility.yul\":12203:12342   */\n      swap1\n      pop\n        /* \"#utility.yul\":11930:12349   */\n      swap2\n      swap1\n      pop\n      jump\t// out\n        /* \"#utility.yul\":12355:12520   */\n    tag_145:\n        /* \"#utility.yul\":12495:12512   */\n      0x456d70747920616c676f726974686d0000000000000000000000000000000000\n        /* \"#utility.yul\":12491:12492   */\n      0x00\n        /* \"#utility.yul\":12483:12489   */\n      dup3\n        /* \"#utility.yul\":12479:12493   */\n      add\n        /* \"#utility.yul\":12472:12513   */\n      mstore\n        /* \"#utility.yul\":12355:12520   */\n      pop\n      jump\t// out\n        /* \"#utility.yul\":12526:12892   */\n    tag_146:\n        /* \"#utility.yul\":12668:12671   */\n      0x00\n        /* \"#utility.yul\":12689:12756   */\n      tag_280\n        /* \"#utility.yul\":12753:12755   */\n      0x0f\n        /* \"#utility.yul\":12748:12751   */\n      dup4\n        /* \"#utility.yul\":12689:12756   */\n      tag_120\n      jump\t// in\n    tag_280:\n        /* \"#utility.yul\":12682:12756   */\n      swap2\n      pop\n        /* \"#utility.yul\":12765:12858   */\n      tag_281\n        /* \"#utility.yul\":12854:12857   */\n      dup3\n        /* \"#utility.yul\":12765:12858   */\n      tag_145\n      jump\t// in\n    tag_281:\n        /* \"#utility.yul\":12883:12885   */\n      0x20\n        /* \"#utility.yul\":12878:12881   */\n      dup3\n        /* \"#utility.yul\":12874:12886   */\n      add\n        /* \"#utility.yul\":12867:12886   */\n      swap1\n      pop\n        /* \"#utility.yul\":12526:12892   */\n      swap2\n      swap1\n      pop\n      jump\t// out\n        /* \"#utility.yul\":12898:13317   */\n    tag_71:\n        /* \"#utility.yul\":13064:13068   */\n      0x00\n        /* \"#utility.yul\":13102:13104   */\n      0x20\n        /* \"#utility.yul\":13091:13100   */\n      dup3\n        /* \"#utility.yul\":13087:13105   */\n      add\n        /* \"#utility.yul\":13079:13105   */\n      swap1\n      pop\n        /* \"#utility.yul\":13151:13160   */\n      dup2\n        /* \"#utility.yul\":13145:13149   */\n      dup2\n        /* \"#utility.yul\":13141:13161   */\n      sub\n        /* \"#utility.yul\":13137:13138   */\n      0x00\n        /* \"#utility.yul\":13126:13135   */\n      dup4\n        /* \"#utility.yul\":13122:13139   */\n      add\n        /* \"#utility.yul\":13115:13162   */\n      mstore\n        /* \"#utility.yul\":13179:13310   */\n      tag_283\n        /* \"#utility.yul\":13305:13309   */\n      dup2\n        /* \"#utility.yul\":13179:13310   */\n      tag_146\n      jump\t// in\n    tag_283:\n        /* \"#utility.yul\":13171:13310   */\n      swap1\n      pop\n        /* \"#utility.yul\":12898:13317   */\n      swap2\n      swap1\n      pop\n      jump\t// out\n        /* \"#utility.yul\":13323:13470   */\n    tag_147:\n        /* \"#utility.yul\":13424:13435   */\n      0x00\n        /* \"#utility.yul\":13461:13464   */\n      dup2\n        /* \"#utility.yul\":13446:13464   */\n      swap1\n      pop\n        /* \"#utility.yul\":13323:13470   */\n      swap3\n      swap2\n      pop\n      pop\n      jump\t// out\n        /* \"#utility.yul\":13476:13630   */\n    tag_148:\n        /* \"#utility.yul\":13560:13566   */\n      dup3\n        /* \"#utility.yul\":13555:13558   */\n      dup2\n        /* \"#utility.yul\":13550:13553   */\n      dup4\n        /* \"#utility.yul\":13537:13567   */\n      calldatacopy\n        /* \"#utility.yul\":13622:13623   */\n      0x00\n        /* \"#utility.yul\":13613:13619   */\n      dup4\n        /* \"#utility.yul\":13608:13611   */\n      dup4\n        /* \"#utility.yul\":13604:13620   */\n      add\n        /* \"#utility.yul\":13597:13624   */\n      mstore\n        /* \"#utility.yul\":13476:13630   */\n      pop\n      pop\n      pop\n      jump\t// out\n        /* \"#utility.yul\":13658:13972   */\n    tag_149:\n        /* \"#utility.yul\":13772:13775   */\n      0x00\n        /* \"#utility.yul\":13793:13881   */\n      tag_287\n        /* \"#utility.yul\":13874:13880   */\n      dup4\n        /* \"#utility.yul\":13869:13872   */\n      dup6\n        /* \"#utility.yul\":13793:13881   */\n      tag_147\n      jump\t// in\n    tag_287:\n        /* \"#utility.yul\":13786:13881   */\n      swap4\n      pop\n        /* \"#utility.yul\":13891:13934   */\n      tag_288\n        /* \"#utility.yul\":13927:13933   */\n      dup4\n        /* \"#utility.yul\":13922:13925   */\n      dup6\n        /* \"#utility.yul\":13915:13920   */\n      dup5\n        /* \"#utility.yul\":13891:13934   */\n      tag_148\n      jump\t// in\n    tag_288:\n        /* \"#utility.yul\":13959:13965   */\n      dup3\n        /* \"#utility.yul\":13954:13957   */\n      dup5\n        /* \"#utility.yul\":13950:13966   */\n      add\n        /* \"#utility.yul\":13943:13966   */\n      swap1\n      pop\n        /* \"#utility.yul\":13658:13972   */\n      swap4\n      swap3\n      pop\n      pop\n      pop\n      jump\t// out\n        /* \"#utility.yul\":13978:14126   */\n    tag_150:\n        /* \"#utility.yul\":14080:14091   */\n      0x00\n        /* \"#utility.yul\":14117:14120   */\n      dup2\n        /* \"#utility.yul\":14102:14120   */\n      swap1\n      pop\n        /* \"#utility.yul\":13978:14126   */\n      swap3\n      swap2\n      pop\n      pop\n      jump\t// out\n        /* \"#utility.yul\":14156:14473   */\n    tag_151:\n        /* \"#utility.yul\":14272:14275   */\n      0x00\n        /* \"#utility.yul\":14293:14382   */\n      tag_291\n        /* \"#utility.yul\":14375:14381   */\n      dup4\n        /* \"#utility.yul\":14370:14373   */\n      dup6\n        /* \"#utility.yul\":14293:14382   */\n      tag_150\n      jump\t// in\n    tag_291:\n        /* \"#utility.yul\":14286:14382   */\n      swap4\n      pop\n        /* \"#utility.yul\":14392:14435   */\n      tag_292\n        /* \"#utility.yul\":14428:14434   */\n      dup4\n        /* \"#utility.yul\":14423:14426   */\n      dup6\n        /* \"#utility.yul\":14416:14421   */\n      dup5\n        /* \"#utility.yul\":14392:14435   */\n      tag_148\n      jump\t// in\n    tag_292:\n        /* \"#utility.yul\":14460:14466   */\n      dup3\n        /* \"#utility.yul\":14455:14458   */\n      dup5\n        /* \"#utility.yul\":14451:14467   */\n      add\n        /* \"#utility.yul\":14444:14467   */\n      swap1\n      pop\n        /* \"#utility.yul\":14156:14473   */\n      swap4\n      swap3\n      pop\n      pop\n      pop\n      jump\t// out\n        /* \"#utility.yul\":14479:14950   */\n    tag_73:\n        /* \"#utility.yul\":14677:14680   */\n      0x00\n        /* \"#utility.yul\":14699:14802   */\n      tag_294\n        /* \"#utility.yul\":14798:14801   */\n      dup3\n        /* \"#utility.yul\":14789:14795   */\n      dup7\n        /* \"#utility.yul\":14781:14787   */\n      dup9\n        /* \"#utility.yul\":14699:14802   */\n      tag_149\n      jump\t// in\n    tag_294:\n        /* \"#utility.yul\":14692:14802   */\n      swap2\n      pop\n        /* \"#utility.yul\":14819:14924   */\n      tag_295\n        /* \"#utility.yul\":14920:14923   */\n      dup3\n        /* \"#utility.yul\":14911:14917   */\n      dup5\n        /* \"#utility.yul\":14903:14909   */\n      dup7\n        /* \"#utility.yul\":14819:14924   */\n      tag_151\n      jump\t// in\n    tag_295:\n        /* \"#utility.yul\":14812:14924   */\n      swap2\n      pop\n        /* \"#utility.yul\":14941:14944   */\n      dup2\n        /* \"#utility.yul\":14934:14944   */\n      swap1\n      pop\n        /* \"#utility.yul\":14479:14950   */\n      swap6\n      swap5\n      pop\n      pop\n      pop\n      pop\n      pop\n      jump\t// out\n        /* \"#utility.yul\":14980:15284   */\n    tag_152:\n        /* \"#utility.yul\":15078:15081   */\n      0x00\n        /* \"#utility.yul\":15099:15170   */\n      tag_297\n        /* \"#utility.yul\":15163:15169   */\n      dup4\n        /* \"#utility.yul\":15158:15161   */\n      dup6\n        /* \"#utility.yul\":15099:15170   */\n      tag_120\n      jump\t// in\n    tag_297:\n        /* \"#utility.yul\":15092:15170   */\n      swap4\n      pop\n        /* \"#utility.yul\":15180:15223   */\n      tag_298\n        /* \"#utility.yul\":15216:15222   */\n      dup4\n        /* \"#utility.yul\":15211:15214   */\n      dup6\n        /* \"#utility.yul\":15204:15209   */\n      dup5\n        /* \"#utility.yul\":15180:15223   */\n      tag_148\n      jump\t// in\n    tag_298:\n        /* \"#utility.yul\":15248:15277   */\n      tag_299\n        /* \"#utility.yul\":15270:15276   */\n      dup4\n        /* \"#utility.yul\":15248:15277   */\n      tag_117\n      jump\t// in\n    tag_299:\n        /* \"#utility.yul\":15243:15246   */\n      dup5\n        /* \"#utility.yul\":15239:15278   */\n      add\n        /* \"#utility.yul\":15232:15278   */\n      swap1\n      pop\n        /* \"#utility.yul\":14980:15284   */\n      swap4\n      swap3\n      pop\n      pop\n      pop\n      jump\t// out\n        /* \"#utility.yul\":15290:15408   */\n    tag_153:\n        /* \"#utility.yul\":15377:15401   */\n      tag_301\n        /* \"#utility.yul\":15395:15400   */\n      dup2\n        /* \"#utility.yul\":15377:15401   */\n      tag_111\n      jump\t// in\n    tag_301:\n        /* \"#utility.yul\":15372:15375   */\n      dup3\n        /* \"#utility.yul\":15365:15402   */\n      mstore\n        /* \"#utility.yul\":15290:15408   */\n      pop\n      pop\n      jump\t// out\n        /* \"#utility.yul\":15414:15967   */\n    tag_79:\n        /* \"#utility.yul\":15593:15597   */\n      0x00\n        /* \"#utility.yul\":15631:15633   */\n      0x60\n        /* \"#utility.yul\":15620:15629   */\n      dup3\n        /* \"#utility.yul\":15616:15634   */\n      add\n        /* \"#utility.yul\":15608:15634   */\n      swap1\n      pop\n        /* \"#utility.yul\":15644:15715   */\n      tag_303\n        /* \"#utility.yul\":15712:15713   */\n      0x00\n        /* \"#utility.yul\":15701:15710   */\n      dup4\n        /* \"#utility.yul\":15697:15714   */\n      add\n        /* \"#utility.yul\":15688:15694   */\n      dup8\n        /* \"#utility.yul\":15644:15715   */\n      tag_123\n      jump\t// in\n    tag_303:\n        /* \"#utility.yul\":15762:15771   */\n      dup2\n        /* \"#utility.yul\":15756:15760   */\n      dup2\n        /* \"#utility.yul\":15752:15772   */\n      sub\n        /* \"#utility.yul\":15747:15749   */\n      0x20\n        /* \"#utility.yul\":15736:15745   */\n      dup4\n        /* \"#utility.yul\":15732:15750   */\n      add\n        /* \"#utility.yul\":15725:15773   */\n      mstore\n        /* \"#utility.yul\":15790:15878   */\n      tag_304\n        /* \"#utility.yul\":15873:15877   */\n      dup2\n        /* \"#utility.yul\":15864:15870   */\n      dup6\n        /* \"#utility.yul\":15856:15862   */\n      dup8\n        /* \"#utility.yul\":15790:15878   */\n      tag_152\n      jump\t// in\n    tag_304:\n        /* \"#utility.yul\":15782:15878   */\n      swap1\n      pop\n        /* \"#utility.yul\":15888:15960   */\n      tag_305\n        /* \"#utility.yul\":15956:15958   */\n      0x40\n        /* \"#utility.yul\":15945:15954   */\n      dup4\n        /* \"#utility.yul\":15941:15959   */\n      add\n        /* \"#utility.yul\":15932:15938   */\n      dup5\n        /* \"#utility.yul\":15888:15960   */\n      tag_153\n      jump\t// in\n    tag_305:\n        /* \"#utility.yul\":15414:15967   */\n      swap6\n      swap5\n      pop\n      pop\n      pop\n      pop\n      pop\n      jump\t// out\n        /* \"#utility.yul\":15973:16133   */\n    tag_154:\n        /* \"#utility.yul\":16113:16125   */\n      0x4f6e6c79206f776e657200000000000000000000000000000000000000000000\n        /* \"#utility.yul\":16109:16110   */\n      0x00\n        /* \"#utility.yul\":16101:16107   */\n      dup3\n        /* \"#utility.yul\":16097:16111   */\n      add\n        /* \"#utility.yul\":16090:16126   */\n      mstore\n        /* \"#utility.yul\":15973:16133   */\n      pop\n      jump\t// out\n        /* \"#utility.yul\":16139:16505   */\n    tag_155:\n        /* \"#utility.yul\":16281:16284   */\n      0x00\n        /* \"#utility.yul\":16302:16369   */\n      tag_308\n        /* \"#utility.yul\":16366:16368   */\n      0x0a\n        /* \"#utility.yul\":16361:16364   */\n      dup4\n        /* \"#utility.yul\":16302:16369   */\n      tag_120\n      jump\t// in\n    tag_308:\n        /* \"#utility.yul\":16295:16369   */\n      swap2\n      pop\n        /* \"#utility.yul\":16378:16471   */\n      tag_309\n        /* \"#utility.yul\":16467:16470   */\n      dup3\n        /* \"#utility.yul\":16378:16471   */\n      tag_154\n      jump\t// in\n    tag_309:\n        /* \"#utility.yul\":16496:16498   */\n      0x20\n        /* \"#utility.yul\":16491:16494   */\n      dup3\n        /* \"#utility.yul\":16487:16499   */\n      add\n        /* \"#utility.yul\":16480:16499   */\n      swap1\n      pop\n        /* \"#utility.yul\":16139:16505   */\n      swap2\n      swap1\n      pop\n      jump\t// out\n        /* \"#utility.yul\":16511:16930   */\n    tag_86:\n        /* \"#utility.yul\":16677:16681   */\n      0x00\n        /* \"#utility.yul\":16715:16717   */\n      0x20\n        /* \"#utility.yul\":16704:16713   */\n      dup3\n        /* \"#utility.yul\":16700:16718   */\n      add\n        /* \"#utility.yul\":16692:16718   */\n      swap1\n      pop\n        /* \"#utility.yul\":16764:16773   */\n      dup2\n        /* \"#utility.yul\":16758:16762   */\n      dup2\n        /* \"#utility.yul\":16754:16774   */\n      sub\n        /* \"#utility.yul\":16750:16751   */\n      0x00\n        /* \"#utility.yul\":16739:16748   */\n      dup4\n        /* \"#utility.yul\":16735:16752   */\n      add\n        /* \"#utility.yul\":16728:16775   */\n      mstore\n        /* \"#utility.yul\":16792:16923   */\n      tag_311\n        /* \"#utility.yul\":16918:16922   */\n      dup2\n        /* \"#utility.yul\":16792:16923   */\n      tag_155\n      jump\t// in\n    tag_311:\n        /* \"#utility.yul\":16784:16923   */\n      swap1\n      pop\n        /* \"#utility.yul\":16511:16930   */\n      swap2\n      swap1\n      pop\n      jump\t// out\n        /* \"#utility.yul\":16936:17101   */\n    tag_156:\n        /* \"#utility.yul\":17076:17093   */\n      0x496e76616c696420616464726573730000000000000000000000000000000000\n        /* \"#utility.yul\":17072:17073   */\n      0x00\n        /* \"#utility.yul\":17064:17070   */\n      dup3\n        /* \"#utility.yul\":17060:17074   */\n      add\n        /* \"#utility.yul\":17053:17094   */\n      mstore\n        /* \"#utility.yul\":16936:17101   */\n      pop\n      jump\t// out\n        /* \"#utility.yul\":17107:17473   */\n    tag_157:\n        /* \"#utility.yul\":17249:17252   */\n      0x00\n        /* \"#utility.yul\":17270:17337   */\n      tag_314\n        /* \"#utility.yul\":17334:17336   */\n      0x0f\n        /* \"#utility.yul\":17329:17332   */\n      dup4\n        /* \"#utility.yul\":17270:17337   */\n      tag_120\n      jump\t// in\n    tag_314:\n        /* \"#utility.yul\":17263:17337   */\n      swap2\n      pop\n        /* \"#utility.yul\":17346:17439   */\n      tag_315\n        /* \"#utility.yul\":17435:17438   */\n      dup3\n        /* \"#utility.yul\":17346:17439   */\n      tag_156\n      jump\t// in\n    tag_315:\n        /* \"#utility.yul\":17464:17466   */\n      0x20\n        /* \"#utility.yul\":17459:17462   */\n      dup3\n        /* \"#utility.yul\":17455:17467   */\n      add\n        /* \"#utility.yul\":17448:17467   */\n      swap1\n      pop\n        /* \"#utility.yul\":17107:17473   */\n      swap2\n      swap1\n      pop\n      jump\t// out\n        /* \"#utility.yul\":17479:17898   */\n    tag_90:\n        /* \"#utility.yul\":17645:17649   */\n      0x00\n        /* \"#utility.yul\":17683:17685   */\n      0x20\n        /* \"#utility.yul\":17672:17681   */\n      dup3\n        /* \"#utility.yul\":17668:17686   */\n      add\n        /* \"#utility.yul\":17660:17686   */\n      swap1\n      pop\n        /* \"#utility.yul\":17732:17741   */\n      dup2\n        /* \"#utility.yul\":17726:17730   */\n      dup2\n        /* \"#utility.yul\":17722:17742   */\n      sub\n        /* \"#utility.yul\":17718:17719   */\n      0x00\n        /* \"#utility.yul\":17707:17716   */\n      dup4\n        /* \"#utility.yul\":17703:17720   */\n      add\n        /* \"#utility.yul\":17696:17743   */\n      mstore\n        /* \"#utility.yul\":17760:17891   */\n      tag_317\n        /* \"#utility.yul\":17886:17890   */\n      dup2\n        /* \"#utility.yul\":17760:17891   */\n      tag_157\n      jump\t// in\n    tag_317:\n        /* \"#utility.yul\":17752:17891   */\n      swap1\n      pop\n        /* \"#utility.yul\":17479:17898   */\n      swap2\n      swap1\n      pop\n      jump\t// out\n\n    auxdata: 0xa2646970667358221220233d1d0d16719d7274d99398322d64f7d3e844a4da2c59b52872bb53e4dcf60b64736f6c634300080a0033\n}\n",
    "bytecode": {
      "linkReferences": {},
      "object": "608060405234801561001057600080fd5b50336000806101000a81548173ffffffffffffffffffffffffffffffffffffffff021916908373ffffffffffffffffffffffffffffffffffffffff160217905550611289806100606000396000f3fe608060405234801561001057600080fd5b506004361061007d5760003560e01c806390d9bc161161005b57806390d9bc1614610102578063cbe6163214610120578063cc04db411461013c578063e757204f1461016c5761007d565b8063122712721461008257806342077d7b146100b45780638da5cb5b146100e4575b600080fd5b61009c60048036038101906100979190610a1c565b610188565b6040516100ab93929190610b50565b60405180910390f35b6100ce60048036038101906100c99190610a1c565b610378565b6040516100db9190610bb0565b60405180910390f35b6100ec6103a5565b6040516100f99190610c0c565b60405180910390f35b61010a6103c9565b6040516101179190610c0c565b60405180910390f35b61013a60048036038101906101359190610ce2565b6103ef565b005b61015660048036038101906101519190610a1c565b6106ee565b6040516101639190610d77565b60405180910390f35b61018660048036038101906101819190610dbe565b610771565b005b60608060006002600085815260200190815260200160002060030160009054906101000a900460ff166101f0576040517f08c379a00000000000000000000000000000000000000000000000000000000081526004016101e790610e37565b60405180910390fd5b60006002600086815260200190815260200160002060405180608001604052908160008201805461022090610e86565b80601f016020809104026020016040519081016040528092919081815260200182805461024c90610e86565b80156102995780601f1061026e57610100808354040283529160200191610299565b820191906000526020600020905b81548152906001019060200180831161027c57829003601f168201915b505050505081526020016001820180546102b290610e86565b80601f01602080910402602001604051908101604052809291908181526020018280546102de90610e86565b801561032b5780601f106103005761010080835404028352916020019161032b565b820191906000526020600020905b81548152906001019060200180831161030e57829003601f168201915b50505050508152602001600282015481526020016003820160009054906101000a900460ff1615151515815250509050806000015181602001518260400151935093509350509193909250565b60006002600083815260200190815260200160002060030160009054906101000a900460ff169050919050565b60008054906101000a900473ffffffffffffffffffffffffffffffffffffffff1681565b600160009054906101000a900473ffffffffffffffffffffffffffffffffffffffff1681565b600160009054906101000a900473ffffffffffffffffffffffffffffffffffffffff1673ffffffffffffffffffffffffffffffffffffffff163373ffffffffffffffffffffffffffffffffffffffff161461047f576040517f08c379a000000000000000000000000000000000000000000000000000000000815260040161047690610f04565b60405180910390fd5b600085116104c2576040517f08c379a00000000000000000000000000000000000000000000000000000000081526004016104b990610f70565b60405180910390fd5b60008484905011610508576040517f08c379a00000000000000000000000000000000000000000000000000000000081526004016104ff90610fdc565b60405180910390fd5b6000828290501161054e576040517f08c379a000000000000000000000000000000000000000000000000000000000815260040161054590611048565b60405180910390fd5b60008484848460405160200161056794939291906110d7565b604051602081830303815290604052805190602001209050604051806080016040528086868080601f016020809104026020016040519081016040528093929190818152602001838380828437600081840152601f19601f82011690508083019250505050505050815260200184848080601f016020809104026020016040519081016040528093929190818152602001838380828437600081840152601f19601f8201169050808301925050505050505081526020018281526020016001151581525060026000888152602001908152602001600020600082015181600001908051906020019061065a9291906108b3565b506020820151816001019080519060200190610677929190610939565b506040820151816002015560608201518160030160006101000a81548160ff021916908315150217905550905050857f9d7df656e82f61ec711b505bb42bd23b2398708b142cee9c3e12e36e463f2ca3828585898990506040516106de949392919061113b565b60405180910390a2505050505050565b60006002600083815260200190815260200160002060030160009054906101000a900460ff16610753576040517f08c379a000000000000000000000000000000000000000000000000000000000815260040161074a90610e37565b60405180910390fd5b60026000838152602001908152602001600020600201549050919050565b60008054906101000a900473ffffffffffffffffffffffffffffffffffffffff1673ffffffffffffffffffffffffffffffffffffffff163373ffffffffffffffffffffffffffffffffffffffff16146107ff576040517f08c379a00000000000000000000000000000000000000000000000000000000081526004016107f6906111c7565b60405180910390fd5b600073ffffffffffffffffffffffffffffffffffffffff168173ffffffffffffffffffffffffffffffffffffffff16141561086f576040517f08c379a000000000000000000000000000000000000000000000000000000000815260040161086690611233565b60405180910390fd5b80600160006101000a81548173ffffffffffffffffffffffffffffffffffffffff021916908373ffffffffffffffffffffffffffffffffffffffff16021790555050565b8280546108bf90610e86565b90600052602060002090601f0160209004810192826108e15760008555610928565b82601f106108fa57805160ff1916838001178555610928565b82800160010185558215610928579182015b8281111561092757825182559160200191906001019061090c565b5b50905061093591906109bf565b5090565b82805461094590610e86565b90600052602060002090601f01602090048101928261096757600085556109ae565b82601f1061098057805160ff19168380011785556109ae565b828001600101855582156109ae579182015b828111156109ad578251825591602001919060010190610992565b5b5090506109bb91906109bf565b5090565b5b808211156109d85760008160009055506001016109c0565b5090565b600080fd5b600080fd5b6000819050919050565b6109f9816109e6565b8114610a0457600080fd5b50565b600081359050610a16816109f0565b92915050565b600060208284031215610a3257610a316109dc565b5b6000610a4084828501610a07565b91505092915050565b600081519050919050565b600082825260208201905092915050565b60005b83811015610a83578082015181840152602081019050610a68565b83811115610a92576000848401525b50505050565b6000601f19601f8301169050919050565b6000610ab482610a49565b610abe8185610a54565b9350610ace818560208601610a65565b610ad781610a98565b840191505092915050565b600081519050919050565b600082825260208201905092915050565b6000610b0982610ae2565b610b138185610aed565b9350610b23818560208601610a65565b610b2c81610a98565b840191505092915050565b6000819050919050565b610b4a81610b37565b82525050565b60006060820190508181036000830152610b6a8186610aa9565b90508181036020830152610b7e8185610afe565b9050610b8d6040830184610b41565b949350505050565b60008115159050919050565b610baa81610b95565b82525050565b6000602082019050610bc56000830184610ba1565b92915050565b600073ffffffffffffffffffffffffffffffffffffffff82169050919050565b6000610bf682610bcb565b9050919050565b610c0681610beb565b82525050565b6000602082019050610c216000830184610bfd565b92915050565b600080fd5b600080fd5b600080fd5b60008083601f840112610c4c57610c4b610c27565b5b8235905067ffffffffffffffff811115610c6957610c68610c2c565b5b602083019150836001820283011115610c8557610c84610c31565b5b9250929050565b60008083601f840112610ca257610ca1610c27565b5b8235905067ffffffffffffffff811115610cbf57610cbe610c2c565b5b602083019150836001820283011115610cdb57610cda610c31565b5b9250929050565b600080600080600060608688031215610cfe57610cfd6109dc565b5b6000610d0c88828901610a07565b955050602086013567ffffffffffffffff811115610d2d57610d2c6109e1565b5b610d3988828901610c36565b9450945050604086013567ffffffffffffffff811115610d5c57610d5b6109e1565b5b610d6888828901610c8c565b92509250509295509295909350565b6000602082019050610d8c6000830184610b41565b92915050565b610d9b81610beb565b8114610da657600080fd5b50565b600081359050610db881610d92565b92915050565b600060208284031215610dd457610dd36109dc565b5b6000610de284828501610da9565b91505092915050565b7f4e6f20505143207369676e617475726520666f72207478000000000000000000600082015250565b6000610e21601783610aed565b9150610e2c82610deb565b602082019050919050565b60006020820190508181036000830152610e5081610e14565b9050919050565b7f4e487b7100000000000000000000000000000000000000000000000000000000600052602260045260246000fd5b60006002820490506001821680610e9e57607f821691505b60208210811415610eb257610eb1610e57565b5b50919050565b7f4f6e6c7920496e74657262616e6b20636f6e7472616374000000000000000000600082015250565b6000610eee601783610aed565b9150610ef982610eb8565b602082019050919050565b60006020820190508181036000830152610f1d81610ee1565b9050919050565b7f496e76616c696420747849640000000000000000000000000000000000000000600082015250565b6000610f5a600c83610aed565b9150610f6582610f24565b602082019050919050565b60006020820190508181036000830152610f8981610f4d565b9050919050565b7f456d707479207369676e61747572650000000000000000000000000000000000600082015250565b6000610fc6600f83610aed565b9150610fd182610f90565b602082019050919050565b60006020820190508181036000830152610ff581610fb9565b9050919050565b7f456d70747920616c676f726974686d0000000000000000000000000000000000600082015250565b6000611032600f83610aed565b915061103d82610ffc565b602082019050919050565b6000602082019050818103600083015261106181611025565b9050919050565b600081905092915050565b82818337600083830152505050565b600061108e8385611068565b935061109b838584611073565b82840190509392505050565b600081905092915050565b60006110be83856110a7565b93506110cb838584611073565b82840190509392505050565b60006110e4828688611082565b91506110f18284866110b2565b915081905095945050505050565b600061110b8385610aed565b9350611118838584611073565b61112183610a98565b840190509392505050565b611135816109e6565b82525050565b60006060820190506111506000830187610b41565b81810360208301526111638185876110ff565b9050611172604083018461112c565b95945050505050565b7f4f6e6c79206f776e657200000000000000000000000000000000000000000000600082015250565b60006111b1600a83610aed565b91506111bc8261117b565b602082019050919050565b600060208201905081810360008301526111e0816111a4565b9050919050565b7f496e76616c696420616464726573730000000000000000000000000000000000600082015250565b600061121d600f83610aed565b9150611228826111e7565b602082019050919050565b6000602082019050818103600083015261124c81611210565b905091905056fea2646970667358221220233d1d0d16719d7274d99398322d64f7d3e844a4da2c59b52872bb53e4dcf60b64736f6c634300080a0033",
      "opcodes": "PUSH1 0x80 PUSH1 0x40 MSTORE CALLVALUE DUP1 ISZERO PUSH2 0x10 JUMPI PUSH1 0x0 DUP1 REVERT JUMPDEST POP CALLER PUSH1 0x0 DUP1 PUSH2 0x100 EXP DUP2 SLOAD DUP2 PUSH20 0xFFFFFFFFFFFFFFFFFFFFFFFFFFFFFFFFFFFFFFFF MUL NOT AND SWAP1 DUP4 PUSH20 0xFFFFFFFFFFFFFFFFFFFFFFFFFFFFFFFFFFFFFFFF AND MUL OR SWAP1 SSTORE POP PUSH2 0x1289 DUP1 PUSH2 0x60 PUSH1 0x0 CODECOPY PUSH1 0x0 RETURN INVALID PUSH1 0x80 PUSH1 0x40 MSTORE CALLVALUE DUP1 ISZERO PUSH2 0x10 JUMPI PUSH1 0x0 DUP1 REVERT JUMPDEST POP PUSH1 0x4 CALLDATASIZE LT PUSH2 0x7D JUMPI PUSH1 0x0 CALLDATALOAD PUSH1 0xE0 SHR DUP1 PUSH4 0x90D9BC16 GT PUSH2 0x5B JUMPI DUP1 PUSH4 0x90D9BC16 EQ PUSH2 0x102 JUMPI DUP1 PUSH4 0xCBE61632 EQ PUSH2 0x120 JUMPI DUP1 PUSH4 0xCC04DB41 EQ PUSH2 0x13C JUMPI DUP1 PUSH4 0xE757204F EQ PUSH2 0x16C JUMPI PUSH2 0x7D JUMP JUMPDEST DUP1 PUSH4 0x12271272 EQ PUSH2 0x82 JUMPI DUP1 PUSH4 0x42077D7B EQ PUSH2 0xB4 JUMPI DUP1 PUSH4 0x8DA5CB5B EQ PUSH2 0xE4 JUMPI JUMPDEST PUSH1 0x0 DUP1 REVERT JUMPDEST PUSH2 0x9C PUSH1 0x4 DUP1 CALLDATASIZE SUB DUP2 ADD SWAP1 PUSH2 0x97 SWAP2 SWAP1 PUSH2 0xA1C JUMP JUMPDEST PUSH2 0x188 JUMP JUMPDEST PUSH1 0x40 MLOAD PUSH2 0xAB SWAP4 SWAP3 SWAP2 SWAP1 PUSH2 0xB50 JUMP JUMPDEST PUSH1 0x40 MLOAD DUP1 SWAP2 SUB SWAP1 RETURN JUMPDEST PUSH2 0xCE PUSH1 0x4 DUP1 CALLDATASIZE SUB DUP2 ADD SWAP1 PUSH2 0xC9 SWAP2 SWAP1 PUSH2 0xA1C JUMP JUMPDEST PUSH2 0x378 JUMP JUMPDEST PUSH1 0x40 MLOAD PUSH2 0xDB SWAP2 SWAP1 PUSH2 0xBB0 JUMP JUMPDEST PUSH1 0x40 MLOAD DUP1 SWAP2 SUB SWAP1 RETURN JUMPDEST PUSH2 0xEC PUSH2 0x3A5 JUMP JUMPDEST PUSH1 0x40 MLOAD PUSH2 0xF9 SWAP2 SWAP1 PUSH2 0xC0C JUMP JUMPDEST PUSH1 0x40 MLOAD DUP1 SWAP2 SUB SWAP1 RETURN JUMPDEST PUSH2 0x10A PUSH2 0x3C9 JUMP JUMPDEST PUSH1 0x40 MLOAD PUSH2 0x117 SWAP2 SWAP1 PUSH2 0xC0C JUMP JUMPDEST PUSH1 0x40 MLOAD DUP1 SWAP2 SUB SWAP1 RETURN JUMPDEST PUSH2 0x13A PUSH1 0x4 DUP1 CALLDATASIZE SUB DUP2 ADD SWAP1 PUSH2 0x135 SWAP2 SWAP1 PUSH2 0xCE2 JUMP JUMPDEST PUSH2 0x3EF JUMP JUMPDEST STOP JUMPDEST PUSH2 0x156 PUSH1 0x4 DUP1 CALLDATASIZE SUB DUP2 ADD SWAP1 PUSH2 0x151 SWAP2 SWAP1 PUSH2 0xA1C JUMP JUMPDEST PUSH2 0x6EE JUMP JUMPDEST PUSH1 0x40 MLOAD PUSH2 0x163 SWAP2 SWAP1 PUSH2 0xD77 JUMP JUMPDEST PUSH1 0x40 MLOAD DUP1 SWAP2 SUB SWAP1 RETURN JUMPDEST PUSH2 0x186 PUSH1 0x4 DUP1 CALLDATASIZE SUB DUP2 ADD SWAP1 PUSH2 0x181 SWAP2 SWAP1 PUSH2 0xDBE JUMP JUMPDEST PUSH2 0x771 JUMP JUMPDEST STOP JUMPDEST PUSH1 0x60 DUP1 PUSH1 0x0 PUSH1 0x2 PUSH1 0x0 DUP6 DUP2 MSTORE PUSH1 0x20 ADD SWAP1 DUP2 MSTORE PUSH1 0x20 ADD PUSH1 0x0 KECCAK256 PUSH1 0x3 ADD PUSH1 0x0 SWAP1 SLOAD SWAP1 PUSH2 0x100 EXP SWAP1 DIV PUSH1 0xFF AND PUSH2 0x1F0 JUMPI PUSH1 0x40 MLOAD PUSH32 0x8C379A000000000000000000000000000000000000000000000000000000000 DUP2 MSTORE PUSH1 0x4 ADD PUSH2 0x1E7 SWAP1 PUSH2 0xE37 JUMP JUMPDEST PUSH1 0x40 MLOAD DUP1 SWAP2 SUB SWAP1 REVERT JUMPDEST PUSH1 0x0 PUSH1 0x2 PUSH1 0x0 DUP7 DUP2 MSTORE PUSH1 0x20 ADD SWAP1 DUP2 MSTORE PUSH1 0x20 ADD PUSH1 0x0 KECCAK256 PUSH1 0x40 MLOAD DUP1 PUSH1 0x80 ADD PUSH1 0x40 MSTORE SWAP1 DUP2 PUSH1 0x0 DUP3 ADD DUP1 SLOAD PUSH2 0x220 SWAP1 PUSH2 0xE86 JUMP JUMPDEST DUP1 PUSH1 0x1F ADD PUSH1 0x20 DUP1 SWAP2 DIV MUL PUSH1 0x20 ADD PUSH1 0x40 MLOAD SWAP1 DUP2 ADD PUSH1 0x40 MSTORE DUP1 SWAP3 SWAP2 SWAP1 DUP2 DUP2 MSTORE PUSH1 0x20 ADD DUP3 DUP1 SLOAD PUSH2 0x24C SWAP1 PUSH2 0xE86 JUMP JUMPDEST DUP1 ISZERO PUSH2 0x299 JUMPI DUP1 PUSH1 0x1F LT PUSH2 0x26E JUMPI PUSH2 0x100 DUP1 DUP4 SLOAD DIV MUL DUP4 MSTORE SWAP2 PUSH1 0x20 ADD SWAP2 PUSH2 0x299 JUMP JUMPDEST DUP3 ADD SWAP2 SWAP1 PUSH1 0x0 MSTORE PUSH1 0x20 PUSH1 0x0 KECCAK256 SWAP1 JUMPDEST DUP2 SLOAD DUP2 MSTORE SWAP1 PUSH1 0x1 ADD SWAP1 PUSH1 0x20 ADD DUP1 DUP4 GT PUSH2 0x27C JUMPI DUP3 SWAP1 SUB PUSH1 0x1F AND DUP3 ADD SWAP2 JUMPDEST POP POP POP POP POP DUP2 MSTORE PUSH1 0x20 ADD PUSH1 0x1 DUP3 ADD DUP1 SLOAD PUSH2 0x2B2 SWAP1 PUSH2 0xE86 JUMP JUMPDEST DUP1 PUSH1 0x1F ADD PUSH1 0x20 DUP1 SWAP2 DIV MUL PUSH1 0x20 ADD PUSH1 0x40 MLOAD SWAP1 DUP2 ADD PUSH1 0x40 MSTORE DUP1 SWAP3 SWAP2 SWAP1 DUP2 DUP2 MSTORE PUSH1 0x20 ADD DUP3 DUP1 SLOAD PUSH2 0x2DE SWAP1 PUSH2 0xE86 JUMP JUMPDEST DUP1 ISZERO PUSH2 0x32B JUMPI DUP1 PUSH1 0x1F LT PUSH2 0x300 JUMPI PUSH2 0x100 DUP1 DUP4 SLOAD DIV MUL DUP4 MSTORE SWAP2 PUSH1 0x20 ADD SWAP2 PUSH2 0x32B JUMP JUMPDEST DUP3 ADD SWAP2 SWAP1 PUSH1 0x0 MSTORE PUSH1 0x20 PUSH1 0x0 KECCAK256 SWAP1 JUMPDEST DUP2 SLOAD DUP2 MSTORE SWAP1 PUSH1 0x1 ADD SWAP1 PUSH1 0x20 ADD DUP1 DUP4 GT PUSH2 0x30E JUMPI DUP3 SWAP1 SUB PUSH1 0x1F AND DUP3 ADD SWAP2 JUMPDEST POP POP POP POP POP DUP2 MSTORE PUSH1 0x20 ADD PUSH1 0x2 DUP3 ADD SLOAD DUP2 MSTORE PUSH1 0x20 ADD PUSH1 0x3 DUP3 ADD PUSH1 0x0 SWAP1 SLOAD SWAP1 PUSH2 0x100 EXP SWAP1 DIV PUSH1 0xFF AND ISZERO ISZERO ISZERO ISZERO DUP2 MSTORE POP POP SWAP1 POP DUP1 PUSH1 0x0 ADD MLOAD DUP2 PUSH1 0x20 ADD MLOAD DUP3 PUSH1 0x40 ADD MLOAD SWAP4 POP SWAP4 POP SWAP4 POP POP SWAP2 SWAP4 SWAP1 SWAP3 POP JUMP JUMPDEST PUSH1 0x0 PUSH1 0x2 PUSH1 0x0 DUP4 DUP2 MSTORE PUSH1 0x20 ADD SWAP1 DUP2 MSTORE PUSH1 0x20 ADD PUSH1 0x0 KECCAK256 PUSH1 0x3 ADD PUSH1 0x0 SWAP1 SLOAD SWAP1 PUSH2 0x100 EXP SWAP1 DIV PUSH1 0xFF AND SWAP1 POP SWAP2 SWAP1 POP JUMP JUMPDEST PUSH1 0x0 DUP1 SLOAD SWAP1 PUSH2 0x100 EXP SWAP1 DIV PUSH20 0xFFFFFFFFFFFFFFFFFFFFFFFFFFFFFFFFFFFFFFFF AND DUP2 JUMP JUMPDEST PUSH1 0x1 PUSH1 0x0 SWAP1 SLOAD SWAP1 PUSH2 0x100 EXP SWAP1 DIV PUSH20 0xFFFFFFFFFFFFFFFFFFFFFFFFFFFFFFFFFFFFFFFF AND DUP2 JUMP JUMPDEST PUSH1 0x1 PUSH1 0x0 SWAP1 SLOAD SWAP1 PUSH2 0x100 EXP SWAP1 DIV PUSH20 0xFFFFFFFFFFFFFFFFFFFFFFFFFFFFFFFFFFFFFFFF AND PUSH20 0xFFFFFFFFFFFFFFFFFFFFFFFFFFFFFFFFFFFFFFFF AND CALLER PUSH20 0xFFFFFFFFFFFFFFFFFFFFFFFFFFFFFFFFFFFFFFFF AND EQ PUSH2 0x47F JUMPI PUSH1 0x40 MLOAD PUSH32 0x8C379A000000000000000000000000000000000000000000000000000000000 DUP2 MSTORE PUSH1 0x4 ADD PUSH2 0x476 SWAP1 PUSH2 0xF04 JUMP JUMPDEST PUSH1 0x40 MLOAD DUP1 SWAP2 SUB SWAP1 REVERT JUMPDEST PUSH1 0x0 DUP6 GT PUSH2 0x4C2 JUMPI PUSH1 0x40 MLOAD PUSH32 0x8C379A000000000000000000000000000000000000000000000000000000000 DUP2 MSTORE PUSH1 0x4 ADD PUSH2 0x4B9 SWAP1 PUSH2 0xF70 JUMP JUMPDEST PUSH1 0x40 MLOAD DUP1 SWAP2 SUB SWAP1 REVERT JUMPDEST PUSH1 0x0 DUP5 DUP5 SWAP1 POP GT PUSH2 0x508 JUMPI PUSH1 0x40 MLOAD PUSH32 0x8C379A000000000000000000000000000000000000000000000000000000000 DUP2 MSTORE PUSH1 0x4 ADD PUSH2 0x4FF SWAP1 PUSH2 0xFDC JUMP JUMPDEST PUSH1 0x40 MLOAD DUP1 SWAP2 SUB SWAP1 REVERT JUMPDEST PUSH1 0x0 DUP3 DUP3 SWAP1 POP GT PUSH2 0x54E JUMPI PUSH1 0x40 MLOAD PUSH32 0x8C379A000000000000000000000000000000000000000000000000000000000 DUP2 MSTORE PUSH1 0x4 ADD PUSH2 0x545 SWAP1 PUSH2 0x1048 JUMP JUMPDEST PUSH1 0x40 MLOAD DUP1 SWAP2 SUB SWAP1 REVERT JUMPDEST PUSH1 0x0 DUP5 DUP5 DUP5 DUP5 PUSH1 0x40 MLOAD PUSH1 0x20 ADD PUSH2 0x567 SWAP5 SWAP4 SWAP3 SWAP2 SWAP1 PUSH2 0x10D7 JUMP JUMPDEST PUSH1 0x40 MLOAD PUSH1 0x20 DUP2 DUP4 SUB SUB DUP2 MSTORE SWAP1 PUSH1 0x40 MSTORE DUP1 MLOAD SWAP1 PUSH1 0x20 ADD KECCAK256 SWAP1 POP PUSH1 0x40 MLOAD DUP1 PUSH1 0x80 ADD PUSH1 0x40 MSTORE DUP1 DUP7 DUP7 DUP1 DUP1 PUSH1 0x1F ADD PUSH1 0x20 DUP1 SWAP2 DIV MUL PUSH1 0x20 ADD PUSH1 0x40 MLOAD SWAP1 DUP2 ADD PUSH1 0x40 MSTORE DUP1 SWAP4 SWAP3 SWAP2 SWAP1 DUP2 DUP2 MSTORE PUSH1 0x20 ADD DUP4 DUP4 DUP1 DUP3 DUP5 CALLDATACOPY PUSH1 0x0 DUP2 DUP5 ADD MSTORE PUSH1 0x1F NOT PUSH1 0x1F DUP3 ADD AND SWAP1 POP DUP1 DUP4 ADD SWAP3 POP POP POP POP POP POP POP DUP2 MSTORE PUSH1 0x20 ADD DUP5 DUP5 DUP1 DUP1 PUSH1 0x1F ADD PUSH1 0x20 DUP1 SWAP2 DIV MUL PUSH1 0x20 ADD PUSH1 0x40 MLOAD SWAP1 DUP2 ADD PUSH1 0x40 MSTORE DUP1 SWAP4 SWAP3 SWAP2 SWAP1 DUP2 DUP2 MSTORE PUSH1 0x20 ADD DUP4 DUP4 DUP1 DUP3 DUP5 CALLDATACOPY PUSH1 0x0 DUP2 DUP5 ADD MSTORE PUSH1 0x1F NOT PUSH1 0x1F DUP3 ADD AND SWAP1 POP DUP1 DUP4 ADD SWAP3 POP POP POP POP POP POP POP DUP2 MSTORE PUSH1 0x20 ADD DUP3 DUP2 MSTORE PUSH1 0x20 ADD PUSH1 0x1 ISZERO ISZERO DUP2 MSTORE POP PUSH1 0x2 PUSH1 0x0 DUP9 DUP2 MSTORE PUSH1 0x20 ADD SWAP1 DUP2 MSTORE PUSH1 0x20 ADD PUSH1 0x0 KECCAK256 PUSH1 0x0 DUP3 ADD MLOAD DUP2 PUSH1 0x0 ADD SWAP1 DUP1 MLOAD SWAP1 PUSH1 0x20 ADD SWAP1 PUSH2 0x65A SWAP3 SWAP2 SWAP1 PUSH2 0x8B3 JUMP JUMPDEST POP PUSH1 0x20 DUP3 ADD MLOAD DUP2 PUSH1 0x1 ADD SWAP1 DUP1 MLOAD SWAP1 PUSH1 0x20 ADD SWAP1 PUSH2 0x677 SWAP3 SWAP2 SWAP1 PUSH2 0x939 JUMP JUMPDEST POP PUSH1 0x40 DUP3 ADD MLOAD DUP2 PUSH1 0x2 ADD SSTORE PUSH1 0x60 DUP3 ADD MLOAD DUP2 PUSH1 0x3 ADD PUSH1 0x0 PUSH2 0x100 EXP DUP2 SLOAD DUP2 PUSH1 0xFF MUL NOT AND SWAP1 DUP4 ISZERO ISZERO MUL OR SWAP1 SSTORE POP SWAP1 POP POP DUP6 PUSH32 0x9D7DF656E82F61EC711B505BB42BD23B2398708B142CEE9C3E12E36E463F2CA3 DUP3 DUP6 DUP6 DUP10 DUP10 SWAP1 POP PUSH1 0x40 MLOAD PUSH2 0x6DE SWAP5 SWAP4 SWAP3 SWAP2 SWAP1 PUSH2 0x113B JUMP JUMPDEST PUSH1 0x40 MLOAD DUP1 SWAP2 SUB SWAP1 LOG2 POP POP POP POP POP POP JUMP JUMPDEST PUSH1 0x0 PUSH1 0x2 PUSH1 0x0 DUP4 DUP2 MSTORE PUSH1 0x20 ADD SWAP1 DUP2 MSTORE PUSH1 0x20 ADD PUSH1 0x0 KECCAK256 PUSH1 0x3 ADD PUSH1 0x0 SWAP1 SLOAD SWAP1 PUSH2 0x100 EXP SWAP1 DIV PUSH1 0xFF AND PUSH2 0x753 JUMPI PUSH1 0x40 MLOAD PUSH32 0x8C379A000000000000000000000000000000000000000000000000000000000 DUP2 MSTORE PUSH1 0x4 ADD PUSH2 0x74A SWAP1 PUSH2 0xE37 JUMP JUMPDEST PUSH1 0x40 MLOAD DUP1 SWAP2 SUB SWAP1 REVERT JUMPDEST PUSH1 0x2 PUSH1 0x0 DUP4 DUP2 MSTORE PUSH1 0x20 ADD SWAP1 DUP2 MSTORE PUSH1 0x20 ADD PUSH1 0x0 KECCAK256 PUSH1 0x2 ADD SLOAD SWAP1 POP SWAP2 SWAP1 POP JUMP JUMPDEST PUSH1 0x0 DUP1 SLOAD SWAP1 PUSH2 0x100 EXP SWAP1 DIV PUSH20 0xFFFFFFFFFFFFFFFFFFFFFFFFFFFFFFFFFFFFFFFF AND PUSH20 0xFFFFFFFFFFFFFFFFFFFFFFFFFFFFFFFFFFFFFFFF AND CALLER PUSH20 0xFFFFFFFFFFFFFFFFFFFFFFFFFFFFFFFFFFFFFFFF AND EQ PUSH2 0x7FF JUMPI PUSH1 0x40 MLOAD PUSH32 0x8C379A000000000000000000000000000000000000000000000000000000000 DUP2 MSTORE PUSH1 0x4 ADD PUSH2 0x7F6 SWAP1 PUSH2 0x11C7 JUMP JUMPDEST PUSH1 0x40 MLOAD DUP1 SWAP2 SUB SWAP1 REVERT JUMPDEST PUSH1 0x0 PUSH20 0xFFFFFFFFFFFFFFFFFFFFFFFFFFFFFFFFFFFFFFFF AND DUP2 PUSH20 0xFFFFFFFFFFFFFFFFFFFFFFFFFFFFFFFFFFFFFFFF AND EQ ISZERO PUSH2 0x86F JUMPI PUSH1 0x40 MLOAD PUSH32 0x8C379A000000000000000000000000000000000000000000000000000000000 DUP2 MSTORE PUSH1 0x4 ADD PUSH2 0x866 SWAP1 PUSH2 0x1233 JUMP JUMPDEST PUSH1 0x40 MLOAD DUP1 SWAP2 SUB SWAP1 REVERT JUMPDEST DUP1 PUSH1 0x1 PUSH1 0x0 PUSH2 0x100 EXP DUP2 SLOAD DUP2 PUSH20 0xFFFFFFFFFFFFFFFFFFFFFFFFFFFFFFFFFFFFFFFF MUL NOT AND SWAP1 DUP4 PUSH20 0xFFFFFFFFFFFFFFFFFFFFFFFFFFFFFFFFFFFFFFFF AND MUL OR SWAP1 SSTORE POP POP JUMP JUMPDEST DUP3 DUP1 SLOAD PUSH2 0x8BF SWAP1 PUSH2 0xE86 JUMP JUMPDEST SWAP1 PUSH1 0x0 MSTORE PUSH1 0x20 PUSH1 0x0 KECCAK256 SWAP1 PUSH1 0x1F ADD PUSH1 0x20 SWAP1 DIV DUP2 ADD SWAP3 DUP3 PUSH2 0x8E1 JUMPI PUSH1 0x0 DUP6 SSTORE PUSH2 0x928 JUMP JUMPDEST DUP3 PUSH1 0x1F LT PUSH2 0x8FA JUMPI DUP1 MLOAD PUSH1 0xFF NOT AND DUP4 DUP1 ADD OR DUP6 SSTORE PUSH2 0x928 JUMP JUMPDEST DUP3 DUP1 ADD PUSH1 0x1 ADD DUP6 SSTORE DUP3 ISZERO PUSH2 0x928 JUMPI SWAP2 DUP3 ADD JUMPDEST DUP3 DUP2 GT ISZERO PUSH2 0x927 JUMPI DUP3 MLOAD DUP3 SSTORE SWAP2 PUSH1 0x20 ADD SWAP2 SWAP1 PUSH1 0x1 ADD SWAP1 PUSH2 0x90C JUMP JUMPDEST JUMPDEST POP SWAP1 POP PUSH2 0x935 SWAP2 SWAP1 PUSH2 0x9BF JUMP JUMPDEST POP SWAP1 JUMP JUMPDEST DUP3 DUP1 SLOAD PUSH2 0x945 SWAP1 PUSH2 0xE86 JUMP JUMPDEST SWAP1 PUSH1 0x0 MSTORE PUSH1 0x20 PUSH1 0x0 KECCAK256 SWAP1 PUSH1 0x1F ADD PUSH1 0x20 SWAP1 DIV DUP2 ADD SWAP3 DUP3 PUSH2 0x967 JUMPI PUSH1 0x0 DUP6 SSTORE PUSH2 0x9AE JUMP JUMPDEST DUP3 PUSH1 0x1F LT PUSH2 0x980 JUMPI DUP1 MLOAD PUSH1 0xFF NOT AND DUP4 DUP1 ADD OR DUP6 SSTORE PUSH2 0x9AE JUMP JUMPDEST DUP3 DUP1 ADD PUSH1 0x1 ADD DUP6 SSTORE DUP3 ISZERO PUSH2 0x9AE JUMPI SWAP2 DUP3 ADD JUMPDEST DUP3 DUP2 GT ISZERO PUSH2 0x9AD JUMPI DUP3 MLOAD DUP3 SSTORE SWAP2 PUSH1 0x20 ADD SWAP2 SWAP1 PUSH1 0x1 ADD SWAP1 PUSH2 0x992 JUMP JUMPDEST JUMPDEST POP SWAP1 POP PUSH2 0x9BB SWAP2 SWAP1 PUSH2 0x9BF JUMP JUMPDEST POP SWAP1 JUMP JUMPDEST JUMPDEST DUP1 DUP3 GT ISZERO PUSH2 0x9D8 JUMPI PUSH1 0x0 DUP2 PUSH1 0x0 SWAP1 SSTORE POP PUSH1 0x1 ADD PUSH2 0x9C0 JUMP JUMPDEST POP SWAP1 JUMP JUMPDEST PUSH1 0x0 DUP1 REVERT JUMPDEST PUSH1 0x0 DUP1 REVERT JUMPDEST PUSH1 0x0 DUP2 SWAP1 POP SWAP2 SWAP1 POP JUMP JUMPDEST PUSH2 0x9F9 DUP2 PUSH2 0x9E6 JUMP JUMPDEST DUP2 EQ PUSH2 0xA04 JUMPI PUSH1 0x0 DUP1 REVERT JUMPDEST POP JUMP JUMPDEST PUSH1 0x0 DUP2 CALLDATALOAD SWAP1 POP PUSH2 0xA16 DUP2 PUSH2 0x9F0 JUMP JUMPDEST SWAP3 SWAP2 POP POP JUMP JUMPDEST PUSH1 0x0 PUSH1 0x20 DUP3 DUP5 SUB SLT ISZERO PUSH2 0xA32 JUMPI PUSH2 0xA31 PUSH2 0x9DC JUMP JUMPDEST JUMPDEST PUSH1 0x0 PUSH2 0xA40 DUP5 DUP3 DUP6 ADD PUSH2 0xA07 JUMP JUMPDEST SWAP2 POP POP SWAP3 SWAP2 POP POP JUMP JUMPDEST PUSH1 0x0 DUP2 MLOAD SWAP1 POP SWAP2 SWAP1 POP JUMP JUMPDEST PUSH1 0x0 DUP3 DUP3 MSTORE PUSH1 0x20 DUP3 ADD SWAP1 POP SWAP3 SWAP2 POP POP JUMP JUMPDEST PUSH1 0x0 JUMPDEST DUP4 DUP2 LT ISZERO PUSH2 0xA83 JUMPI DUP1 DUP3 ADD MLOAD DUP2 DUP5 ADD MSTORE PUSH1 0x20 DUP2 ADD SWAP1 POP PUSH2 0xA68 JUMP JUMPDEST DUP4 DUP2 GT ISZERO PUSH2 0xA92 JUMPI PUSH1 0x0 DUP5 DUP5 ADD MSTORE JUMPDEST POP POP POP POP JUMP JUMPDEST PUSH1 0x0 PUSH1 0x1F NOT PUSH1 0x1F DUP4 ADD AND SWAP1 POP SWAP2 SWAP1 POP JUMP JUMPDEST PUSH1 0x0 PUSH2 0xAB4 DUP3 PUSH2 0xA49 JUMP JUMPDEST PUSH2 0xABE DUP2 DUP6 PUSH2 0xA54 JUMP JUMPDEST SWAP4 POP PUSH2 0xACE DUP2 DUP6 PUSH1 0x20 DUP7 ADD PUSH2 0xA65 JUMP JUMPDEST PUSH2 0xAD7 DUP2 PUSH2 0xA98 JUMP JUMPDEST DUP5 ADD SWAP2 POP POP SWAP3 SWAP2 POP POP JUMP JUMPDEST PUSH1 0x0 DUP2 MLOAD SWAP1 POP SWAP2 SWAP1 POP JUMP JUMPDEST PUSH1 0x0 DUP3 DUP3 MSTORE PUSH1 0x20 DUP3 ADD SWAP1 POP SWAP3 SWAP2 POP POP JUMP JUMPDEST PUSH1 0x0 PUSH2 0xB09 DUP3 PUSH2 0xAE2 JUMP JUMPDEST PUSH2 0xB13 DUP2 DUP6 PUSH2 0xAED JUMP JUMPDEST SWAP4 POP PUSH2 0xB23 DUP2 DUP6 PUSH1 0x20 DUP7 ADD PUSH2 0xA65 JUMP JUMPDEST PUSH2 0xB2C DUP2 PUSH2 0xA98 JUMP JUMPDEST DUP5 ADD SWAP2 POP POP SWAP3 SWAP2 POP POP JUMP JUMPDEST PUSH1 0x0 DUP2 SWAP1 POP SWAP2 SWAP1 POP JUMP JUMPDEST PUSH2 0xB4A DUP2 PUSH2 0xB37 JUMP JUMPDEST DUP3 MSTORE POP POP JUMP JUMPDEST PUSH1 0x0 PUSH1 0x60 DUP3 ADD SWAP1 POP DUP2 DUP2 SUB PUSH1 0x0 DUP4 ADD MSTORE PUSH2 0xB6A DUP2 DUP7 PUSH2 0xAA9 JUMP JUMPDEST SWAP1 POP DUP2 DUP2 SUB PUSH1 0x20 DUP4 ADD MSTORE PUSH2 0xB7E DUP2 DUP6 PUSH2 0xAFE JUMP JUMPDEST SWAP1 POP PUSH2 0xB8D PUSH1 0x40 DUP4 ADD DUP5 PUSH2 0xB41 JUMP JUMPDEST SWAP5 SWAP4 POP POP POP POP JUMP JUMPDEST PUSH1 0x0 DUP2 ISZERO ISZERO SWAP1 POP SWAP2 SWAP1 POP JUMP JUMPDEST PUSH2 0xBAA DUP2 PUSH2 0xB95 JUMP JUMPDEST DUP3 MSTORE POP POP JUMP JUMPDEST PUSH1 0x0 PUSH1 0x20 DUP3 ADD SWAP1 POP PUSH2 0xBC5 PUSH1 0x0 DUP4 ADD DUP5 PUSH2 0xBA1 JUMP JUMPDEST SWAP3 SWAP2 POP POP JUMP JUMPDEST PUSH1 0x0 PUSH20 0xFFFFFFFFFFFFFFFFFFFFFFFFFFFFFFFFFFFFFFFF DUP3 AND SWAP1 POP SWAP2 SWAP1 POP JUMP JUMPDEST PUSH1 0x0 PUSH2 0xBF6 DUP3 PUSH2 0xBCB JUMP JUMPDEST SWAP1 POP SWAP2 SWAP1 POP JUMP JUMPDEST PUSH2 0xC06 DUP2 PUSH2 0xBEB JUMP JUMPDEST DUP3 MSTORE POP POP JUMP JUMPDEST PUSH1 0x0 PUSH1 0x20 DUP3 ADD SWAP1 POP PUSH2 0xC21 PUSH1 0x0 DUP4 ADD DUP5 PUSH2 0xBFD JUMP JUMPDEST SWAP3 SWAP2 POP POP JUMP JUMPDEST PUSH1 0x0 DUP1 REVERT JUMPDEST PUSH1 0x0 DUP1 REVERT JUMPDEST PUSH1 0x0 DUP1 REVERT JUMPDEST PUSH1 0x0 DUP1 DUP4 PUSH1 0x1F DUP5 ADD SLT PUSH2 0xC4C JUMPI PUSH2 0xC4B PUSH2 0xC27 JUMP JUMPDEST JUMPDEST DUP3 CALLDATALOAD SWAP1 POP PUSH8 0xFFFFFFFFFFFFFFFF DUP2 GT ISZERO PUSH2 0xC69 JUMPI PUSH2 0xC68 PUSH2 0xC2C JUMP JUMPDEST JUMPDEST PUSH1 0x20 DUP4 ADD SWAP2 POP DUP4 PUSH1 0x1 DUP3 MUL DUP4 ADD GT ISZERO PUSH2 0xC85 JUMPI PUSH2 0xC84 PUSH2 0xC31 JUMP JUMPDEST JUMPDEST SWAP3 POP SWAP3 SWAP1 POP JUMP JUMPDEST PUSH1 0x0 DUP1 DUP4 PUSH1 0x1F DUP5 ADD SLT PUSH2 0xCA2 JUMPI PUSH2 0xCA1 PUSH2 0xC27 JUMP JUMPDEST JUMPDEST DUP3 CALLDATALOAD SWAP1 POP PUSH8 0xFFFFFFFFFFFFFFFF DUP2 GT ISZERO PUSH2 0xCBF JUMPI PUSH2 0xCBE PUSH2 0xC2C JUMP JUMPDEST JUMPDEST PUSH1 0x20 DUP4 ADD SWAP2 POP DUP4 PUSH1 0x1 DUP3 MUL DUP4 ADD GT ISZERO PUSH2 0xCDB JUMPI PUSH2 0xCDA PUSH2 0xC31 JUMP JUMPDEST JUMPDEST SWAP3 POP SWAP3 SWAP1 POP JUMP JUMPDEST PUSH1 0x0 DUP1 PUSH1 0x0 DUP1 PUSH1 0x0 PUSH1 0x60 DUP7 DUP9 SUB SLT ISZERO PUSH2 0xCFE JUMPI PUSH2 0xCFD PUSH2 0x9DC JUMP JUMPDEST JUMPDEST PUSH1 0x0 PUSH2 0xD0C DUP9 DUP3 DUP10 ADD PUSH2 0xA07 JUMP JUMPDEST SWAP6 POP POP PUSH1 0x20 DUP7 ADD CALLDATALOAD PUSH8 0xFFFFFFFFFFFFFFFF DUP2 GT ISZERO PUSH2 0xD2D JUMPI PUSH2 0xD2C PUSH2 0x9E1 JUMP JUMPDEST JUMPDEST PUSH2 0xD39 DUP9 DUP3 DUP10 ADD PUSH2 0xC36 JUMP JUMPDEST SWAP5 POP SWAP5 POP POP PUSH1 0x40 DUP7 ADD CALLDATALOAD PUSH8 0xFFFFFFFFFFFFFFFF DUP2 GT ISZERO PUSH2 0xD5C JUMPI PUSH2 0xD5B PUSH2 0x9E1 JUMP JUMPDEST JUMPDEST PUSH2 0xD68 DUP9 DUP3 DUP10 ADD PUSH2 0xC8C JUMP JUMPDEST SWAP3 POP SWAP3 POP POP SWAP3 SWAP6 POP SWAP3 SWAP6 SWAP1 SWAP4 POP JUMP JUMPDEST PUSH1 0x0 PUSH1 0x20 DUP3 ADD SWAP1 POP PUSH2 0xD8C PUSH1 0x0 DUP4 ADD DUP5 PUSH2 0xB41 JUMP JUMPDEST SWAP3 SWAP2 POP POP JUMP JUMPDEST PUSH2 0xD9B DUP2 PUSH2 0xBEB JUMP JUMPDEST DUP2 EQ PUSH2 0xDA6 JUMPI PUSH1 0x0 DUP1 REVERT JUMPDEST POP JUMP JUMPDEST PUSH1 0x0 DUP2 CALLDATALOAD SWAP1 POP PUSH2 0xDB8 DUP2 PUSH2 0xD92 JUMP JUMPDEST SWAP3 SWAP2 POP POP JUMP JUMPDEST PUSH1 0x0 PUSH1 0x20 DUP3 DUP5 SUB SLT ISZERO PUSH2 0xDD4 JUMPI PUSH2 0xDD3 PUSH2 0x9DC JUMP JUMPDEST JUMPDEST PUSH1 0x0 PUSH2 0xDE2 DUP5 DUP3 DUP6 ADD PUSH2 0xDA9 JUMP JUMPDEST SWAP2 POP POP SWAP3 SWAP2 POP POP JUMP JUMPDEST PUSH32 0x4E6F20505143207369676E617475726520666F72207478000000000000000000 PUSH1 0x0 DUP3 ADD MSTORE POP JUMP JUMPDEST PUSH1 0x0 PUSH2 0xE21 PUSH1 0x17 DUP4 PUSH2 0xAED JUMP JUMPDEST SWAP2 POP PUSH2 0xE2C DUP3 PUSH2 0xDEB JUMP JUMPDEST PUSH1 0x20 DUP3 ADD SWAP1 POP SWAP2 SWAP1 POP JUMP JUMPDEST PUSH1 0x0 PUSH1 0x20 DUP3 ADD SWAP1 POP DUP2 DUP2 SUB PUSH1 0x0 DUP4 ADD MSTORE PUSH2 0xE50 DUP2 PUSH2 0xE14 JUMP JUMPDEST SWAP1 POP SWAP2 SWAP1 POP JUMP JUMPDEST PUSH32 0x4E487B7100000000000000000000000000000000000000000000000000000000 PUSH1 0x0 MSTORE PUSH1 0x22 PUSH1 0x4 MSTORE PUSH1 0x24 PUSH1 0x0 REVERT JUMPDEST PUSH1 0x0 PUSH1 0x2 DUP3 DIV SWAP1 POP PUSH1 0x1 DUP3 AND DUP1 PUSH2 0xE9E JUMPI PUSH1 0x7F DUP3 AND SWAP2 POP JUMPDEST PUSH1 0x20 DUP3 LT DUP2 EQ ISZERO PUSH2 0xEB2 JUMPI PUSH2 0xEB1 PUSH2 0xE57 JUMP JUMPDEST JUMPDEST POP SWAP2 SWAP1 POP JUMP JUMPDEST PUSH32 0x4F6E6C7920496E74657262616E6B20636F6E7472616374000000000000000000 PUSH1 0x0 DUP3 ADD MSTORE POP JUMP JUMPDEST PUSH1 0x0 PUSH2 0xEEE PUSH1 0x17 DUP4 PUSH2 0xAED JUMP JUMPDEST SWAP2 POP PUSH2 0xEF9 DUP3 PUSH2 0xEB8 JUMP JUMPDEST PUSH1 0x20 DUP3 ADD SWAP1 POP SWAP2 SWAP1 POP JUMP JUMPDEST PUSH1 0x0 PUSH1 0x20 DUP3 ADD SWAP1 POP DUP2 DUP2 SUB PUSH1 0x0 DUP4 ADD MSTORE PUSH2 0xF1D DUP2 PUSH2 0xEE1 JUMP JUMPDEST SWAP1 POP SWAP2 SWAP1 POP JUMP JUMPDEST PUSH32 0x496E76616C696420747849640000000000000000000000000000000000000000 PUSH1 0x0 DUP3 ADD MSTORE POP JUMP JUMPDEST PUSH1 0x0 PUSH2 0xF5A PUSH1 0xC DUP4 PUSH2 0xAED JUMP JUMPDEST SWAP2 POP PUSH2 0xF65 DUP3 PUSH2 0xF24 JUMP JUMPDEST PUSH1 0x20 DUP3 ADD SWAP1 POP SWAP2 SWAP1 POP JUMP JUMPDEST PUSH1 0x0 PUSH1 0x20 DUP3 ADD SWAP1 POP DUP2 DUP2 SUB PUSH1 0x0 DUP4 ADD MSTORE PUSH2 0xF89 DUP2 PUSH2 0xF4D JUMP JUMPDEST SWAP1 POP SWAP2 SWAP1 POP JUMP JUMPDEST PUSH32 0x456D707479207369676E61747572650000000000000000000000000000000000 PUSH1 0x0 DUP3 ADD MSTORE POP JUMP JUMPDEST PUSH1 0x0 PUSH2 0xFC6 PUSH1 0xF DUP4 PUSH2 0xAED JUMP JUMPDEST SWAP2 POP PUSH2 0xFD1 DUP3 PUSH2 0xF90 JUMP JUMPDEST PUSH1 0x20 DUP3 ADD SWAP1 POP SWAP2 SWAP1 POP JUMP JUMPDEST PUSH1 0x0 PUSH1 0x20 DUP3 ADD SWAP1 POP DUP2 DUP2 SUB PUSH1 0x0 DUP4 ADD MSTORE PUSH2 0xFF5 DUP2 PUSH2 0xFB9 JUMP JUMPDEST SWAP1 POP SWAP2 SWAP1 POP JUMP JUMPDEST PUSH32 0x456D70747920616C676F726974686D0000000000000000000000000000000000 PUSH1 0x0 DUP3 ADD MSTORE POP JUMP JUMPDEST PUSH1 0x0 PUSH2 0x1032 PUSH1 0xF DUP4 PUSH2 0xAED JUMP JUMPDEST SWAP2 POP PUSH2 0x103D DUP3 PUSH2 0xFFC JUMP JUMPDEST PUSH1 0x20 DUP3 ADD SWAP1 POP SWAP2 SWAP1 POP JUMP JUMPDEST PUSH1 0x0 PUSH1 0x20 DUP3 ADD SWAP1 POP DUP2 DUP2 SUB PUSH1 0x0 DUP4 ADD MSTORE PUSH2 0x1061 DUP2 PUSH2 0x1025 JUMP JUMPDEST SWAP1 POP SWAP2 SWAP1 POP JUMP JUMPDEST PUSH1 0x0 DUP2 SWAP1 POP SWAP3 SWAP2 POP POP JUMP JUMPDEST DUP3 DUP2 DUP4 CALLDATACOPY PUSH1 0x0 DUP4 DUP4 ADD MSTORE POP POP POP JUMP JUMPDEST PUSH1 0x0 PUSH2 0x108E DUP4 DUP6 PUSH2 0x1068 JUMP JUMPDEST SWAP4 POP PUSH2 0x109B DUP4 DUP6 DUP5 PUSH2 0x1073 JUMP JUMPDEST DUP3 DUP5 ADD SWAP1 POP SWAP4 SWAP3 POP POP POP JUMP JUMPDEST PUSH1 0x0 DUP2 SWAP1 POP SWAP3 SWAP2 POP POP JUMP JUMPDEST PUSH1 0x0 PUSH2 0x10BE DUP4 DUP6 PUSH2 0x10A7 JUMP JUMPDEST SWAP4 POP PUSH2 0x10CB DUP4 DUP6 DUP5 PUSH2 0x1073 JUMP JUMPDEST DUP3 DUP5 ADD SWAP1 POP SWAP4 SWAP3 POP POP POP JUMP JUMPDEST PUSH1 0x0 PUSH2 0x10E4 DUP3 DUP7 DUP9 PUSH2 0x1082 JUMP JUMPDEST SWAP2 POP PUSH2 0x10F1 DUP3 DUP5 DUP7 PUSH2 0x10B2 JUMP JUMPDEST SWAP2 POP DUP2 SWAP1 POP SWAP6 SWAP5 POP POP POP POP POP JUMP JUMPDEST PUSH1 0x0 PUSH2 0x110B DUP4 DUP6 PUSH2 0xAED JUMP JUMPDEST SWAP4 POP PUSH2 0x1118 DUP4 DUP6 DUP5 PUSH2 0x1073 JUMP JUMPDEST PUSH2 0x1121 DUP4 PUSH2 0xA98 JUMP JUMPDEST DUP5 ADD SWAP1 POP SWAP4 SWAP3 POP POP POP JUMP JUMPDEST PUSH2 0x1135 DUP2 PUSH2 0x9E6 JUMP JUMPDEST DUP3 MSTORE POP POP JUMP JUMPDEST PUSH1 0x0 PUSH1 0x60 DUP3 ADD SWAP1 POP PUSH2 0x1150 PUSH1 0x0 DUP4 ADD DUP8 PUSH2 0xB41 JUMP JUMPDEST DUP2 DUP2 SUB PUSH1 0x20 DUP4 ADD MSTORE PUSH2 0x1163 DUP2 DUP6 DUP8 PUSH2 0x10FF JUMP JUMPDEST SWAP1 POP PUSH2 0x1172 PUSH1 0x40 DUP4 ADD DUP5 PUSH2 0x112C JUMP JUMPDEST SWAP6 SWAP5 POP POP POP POP POP JUMP JUMPDEST PUSH32 0x4F6E6C79206F776E657200000000000000000000000000000000000000000000 PUSH1 0x0 DUP3 ADD MSTORE POP JUMP JUMPDEST PUSH1 0x0 PUSH2 0x11B1 PUSH1 0xA DUP4 PUSH2 0xAED JUMP JUMPDEST SWAP2 POP PUSH2 0x11BC DUP3 PUSH2 0x117B JUMP JUMPDEST PUSH1 0x20 DUP3 ADD SWAP1 POP SWAP2 SWAP1 POP JUMP JUMPDEST PUSH1 0x0 PUSH1 0x20 DUP3 ADD SWAP1 POP DUP2 DUP2 SUB PUSH1 0x0 DUP4 ADD MSTORE PUSH2 0x11E0 DUP2 PUSH2 0x11A4 JUMP JUMPDEST SWAP1 POP SWAP2 SWAP1 POP JUMP JUMPDEST PUSH32 0x496E76616C696420616464726573730000000000000000000000000000000000 PUSH1 0x0 DUP3 ADD MSTORE POP JUMP JUMPDEST PUSH1 0x0 PUSH2 0x121D PUSH1 0xF DUP4 PUSH2 0xAED JUMP JUMPDEST SWAP2 POP PUSH2 0x1228 DUP3 PUSH2 0x11E7 JUMP JUMPDEST PUSH1 0x20 DUP3 ADD SWAP1 POP SWAP2 SWAP1 POP JUMP JUMPDEST PUSH1 0x0 PUSH1 0x20 DUP3 ADD SWAP1 POP DUP2 DUP2 SUB PUSH1 0x0 DUP4 ADD MSTORE PUSH2 0x124C DUP2 PUSH2 0x1210 JUMP JUMPDEST SWAP1 POP SWAP2 SWAP1 POP JUMP INVALID LOG2 PUSH5 0x6970667358 0x22 SLT KECCAK256 0x23 RETURNDATASIZE SAR 0xD AND PUSH18 0x9D7274D99398322D64F7D3E844A4DA2C59B5 0x28 PUSH19 0xBB53E4DCF60B64736F6C634300080A00330000 "
    },
    "gasEstimates": {
      "creation": {
        "codeDepositCost": "949000",
        "executionCost": "25254",
        "totalCost": "974254"
      },
      "external": {
        "getPQCSignature(uint256)": "infinite",
        "getPQCSignatureHash(uint256)": "5067",
        "interbankContract()": "2514",
        "owner()": "2556",
        "setInterbankContract(address)": "26993",
        "storePQCSignature(uint256,bytes,string)": "infinite",
        "transactionHasPQCSignature(uint256)": "2851"
      }
    },
    "methodIdentifiers": {
      "getPQCSignature(uint256)": "12271272",
      "getPQCSignatureHash(uint256)": "cc04db41",
      "interbankContract()": "90d9bc16",
      "owner()": "8da5cb5b",
      "setInterbankContract(address)": "e757204f",
      "storePQCSignature(uint256,bytes,string)": "cbe61632",
      "transactionHasPQCSignature(uint256)": "42077d7b"
    }
  },
  "storageLayout": {
    "storage": [
      {
        "astId": 2318,
        "contract": "PQCSignatureRegistry.sol:PQCSignatureRegistry",
        "label": "owner",
        "offset": 0,
        "slot": "0",
        "type": "t_address"
      },
      {
        "astId": 2320,
        "contract": "PQCSignatureRegistry.sol:PQCSignatureRegistry",
        "label": "interbankContract",
        "offset": 0,
        "slot": "1",
        "type": "t_address"
      },
      {
        "astId": 2334,
        "contract": "PQCSignatureRegistry.sol:PQCSignatureRegistry",
        "label": "pqcByTxId",
        "offset": 0,
        "slot": "2",
        "type": "t_mapping(t_uint256,t_struct(PQCData)2329_storage)"
      }
    ],
    "types": {
      "t_address": {
        "encoding": "inplace",
        "label": "address",
        "numberOfBytes": "20"
      },
      "t_bool": {
        "encoding": "inplace",
        "label": "bool",
        "numberOfBytes": "1"
      },
      "t_bytes32": {
        "encoding": "inplace",
        "label": "bytes32",
        "numberOfBytes": "32"
      },
      "t_bytes_storage": {
        "encoding": "bytes",
        "label": "bytes",
        "numberOfBytes": "32"
      },
      "t_mapping(t_uint256,t_struct(PQCData)2329_storage)": {
        "encoding": "mapping",
        "key": "t_uint256",
        "label": "mapping(uint256 => struct PQCSignatureRegistry.PQCData)",
        "numberOfBytes": "32",
        "value": "t_struct(PQCData)2329_storage"
      },
      "t_string_storage": {
        "encoding": "bytes",
        "label": "string",
        "numberOfBytes": "32"
      },
      "t_struct(PQCData)2329_storage": {
        "encoding": "inplace",
        "label": "struct PQCSignatureRegistry.PQCData",
        "members": [
          {
            "astId": 2322,
            "contract": "PQCSignatureRegistry.sol:PQCSignatureRegistry",
            "label": "signature",
            "offset": 0,
            "slot": "0",
            "type": "t_bytes_storage"
          },
          {
            "astId": 2324,
            "contract": "PQCSignatureRegistry.sol:PQCSignatureRegistry",
            "label": "algorithm",
            "offset": 0,
            "slot": "1",
            "type": "t_string_storage"
          },
          {
            "astId": 2326,
            "contract": "PQCSignatureRegistry.sol:PQCSignatureRegistry",
            "label": "hash",
            "offset": 0,
            "slot": "2",
            "type": "t_bytes32"
          },
          {
            "astId": 2328,
            "contract": "PQCSignatureRegistry.sol:PQCSignatureRegistry",
            "label": "exists",
            "offset": 0,
            "slot": "3",
            "type": "t_bool"
          }
        ],
        "numberOfBytes": "128"
      },
      "t_uint256": {
        "encoding": "inplace",
        "label": "uint256",
        "numberOfBytes": "32"
      }
    }
  },
  "userdoc": {
    "kind": "user",
    "methods": {},
    "version": 1
  }
}