{
  "abi": [
    {
      "inputs": [],
      "stateMutability": "nonpayable",
      "type": "constructor"
    },
    {
      "anonymous": false,
      "inputs": [
        {
          "indexed": true,
          "internalType": "address",
          "name": "user",
          "type": "address"
        },
        {
          "indexed": false,
          "internalType": "uint256",
          "name": "newBalance",
          "type": "uint256"
        }
      ],
      "name": "BalanceUpdated",
      "type": "event"
    },
    {
      "anonymous": false,
      "inputs": [
        {
          "indexed": true,
          "internalType": "address",
          "name": "user",
          "type": "address"
        },
        {
          "indexed": false,
          "internalType": "uint256",
          "name": "amount",
          "type": "uint256"
        },
        {
          "indexed": false,
          "internalType": "string",
          "name": "bankCode",
          "type": "string"
        }
      ],
      "name": "Deposit",
      "type": "event"
    },
    {
      "anonymous": false,
      "inputs": [
        {
          "indexed": true,
          "internalType": "uint256",
          "name": "transactionId",
          "type": "uint256"
        },
        {
          "indexed": false,
          "internalType": "enum InterbankTransfer.TransactionStatus",
          "name": "status",
          "type": "uint8"
        }
      ],
      "name": "TransactionStatusChanged",
      "type": "event"
    },
    {
      "anonymous": false,
      "inputs": [
        {
          "indexed": true,
          "internalType": "uint256",
          "name": "transactionId",
          "type": "uint256"
        },
        {
          "indexed": true,
          "internalType": "address",
          "name": "from",
          "type": "address"
        },
        {
          "indexed": true,
          "internalType": "address",
          "name": "to",
          "type": "address"
        },
        {
          "indexed": false,
          "internalType": "uint256",
          "name": "amount",
          "type": "uint256"
        },
        {
          "indexed": false,
          "internalType": "string",
          "name": "fromBank",
          "type": "string"
        },
        {
          "indexed": false,
          "internalType": "string",
          "name": "toBank",
          "type": "string"
        },
        {
          "indexed": false,
          "internalType": "string",
          "name": "description",
          "type": "string"
        },
        {
          "indexed": false,
          "internalType": "uint256",
          "name": "timestamp",
          "type": "uint256"
        }
      ],
      "name": "Transfer",
      "type": "event"
    },
    {
      "inputs": [
        {
          "internalType": "address",
          "name": "bankAddress",
          "type": "address"
        },
        {
          "internalType": "string",
          "name": "bankCode",
          "type": "string"
        }
      ],
      "name": "addAuthorizedBank",
      "outputs": [],
      "stateMutability": "nonpayable",
      "type": "function"
    },
    {
      "inputs": [
        {
          "internalType": "address",
          "name": "",
          "type": "address"
        }
      ],
      "name": "authorizedBanks",
      "outputs": [
        {
          "internalType": "bool",
          "name": "",
          "type": "bool"
        }
      ],
      "stateMutability": "view",
      "type": "function"
    },
    {
      "inputs": [
        {
          "internalType": "address",
          "name": "",
          "type": "address"
        }
      ],
      "name": "balances",
      "outputs": [
        {
          "internalType": "uint256",
          "name": "",
          "type": "uint256"
        }
      ],
      "stateMutability": "view",
      "type": "function"
    },
    {
      "inputs": [
        {
          "internalType": "address",
          "name": "",
          "type": "address"
        }
      ],
      "name": "bankCodes",
      "outputs": [
        {
          "internalType": "string",
          "name": "",
          "type": "string"
        }
      ],
      "stateMutability": "view",
      "type": "function"
    },
    {
      "inputs": [
        {
          "internalType": "address",
          "name": "user",
          "type": "address"
        },
        {
          "internalType": "string",
          "name": "bankCode",
          "type": "string"
        }
      ],
      "name": "deposit",
      "outputs": [],
      "stateMutability": "payable",
      "type": "function"
    },
    {
      "inputs": [
        {
          "internalType": "address",
          "name": "user",
          "type": "address"
        }
      ],
      "name": "getBalance",
      "outputs": [
        {
          "internalType": "uint256",
          "name": "",
          "type": "uint256"
        }
      ],
      "stateMutability": "view",
      "type": "function"
    },
    {
      "inputs": [
        {
          "internalType": "uint256",
          "name": "txId",
          "type": "uint256"
        }
      ],
      "name": "getTransaction",
      "outputs": [
        {
          "internalType": "uint256",
          "name": "id",
          "type": "uint256"
        },
        {
          "internalType": "address",
          "name": "from",
          "type": "address"
        },
        {
          "internalType": "address",
          "name": "to",
          "type": "address"
        },
        {
          "internalType": "uint256",
          "name": "amount",
          "type": "uint256"
        },
        {
          "internalType": "string",
          "name": "fromBank",
          "type": "string"
        },
        {
          "internalType": "string",
          "name": "toBank",
          "type": "string"
        },
        {
          "internalType": "string",
          "name": "description",
          "type": "string"
        },
        {
          "internalType": "uint256",
          "name": "timestamp",
          "type": "uint256"
        },
        {
          "internalType": "enum InterbankTransfer.TransactionStatus",
          "name": "status",
          "type": "uint8"
        }
      ],
      "stateMutability": "view",
      "type": "function"
    },
    {
      "inputs": [],
      "name": "getTransactionCount",
      "outputs": [
        {
          "internalType": "uint256",
          "name": "",
          "type": "uint256"
        }
      ],
      "stateMutability": "view",
      "type": "function"
    },
    {
      "inputs": [
        {
          "internalType": "address",
          "name": "user",
          "type": "address"
        }
      ],
      "name": "getUserTransactions",
      "outputs": [
        {
          "internalType": "uint256[]",
          "name": "",
          "type": "uint256[]"
        }
      ],
      "stateMutability": "view",
      "type": "function"
    },
    {
      "inputs": [],
      "name": "owner",
      "outputs": [
        {
          "internalType": "address",
          "name": "",
          "type": "address"
        }
      ],
      "stateMutability": "view",
      "type": "function"
    },
    {
      "inputs": [
        {
          "internalType": "uint256",
          "name": "",
          "type": "uint256"
        }
      ],
      "name": "transactionIndex",
      "outputs": [
        {
          "internalType": "uint256",
          "name": "",
          "type": "uint256"
        }
      ],
      "stateMutability": "view",
      "type": "function"
    },
    {
      "inputs": [
        {
          "internalType": "uint256",
          "name": "",
          "type": "uint256"
        }
      ],
      "name": "transactions",
      "outputs": [
        {
          "internalType": "uint256",
          "name": "id",
          "type": "uint256"
        },
        {
          "internalType": "address",
          "name": "from",
          "type": "address"
        },
        {
          "internalType": "address",
          "name": "to",
          "type": "address"
        },
        {
          "internalType": "uint256",
          "name": "amount",
          "type": "uint256"
        },
        {
          "internalType": "string",
          "name": "fromBank",
          "type": "string"
        },
        {
          "internalType": "string",
          "name": "toBank",
          "type": "string"
        },
        {
          "internalType": "string",
          "name": "description",
          "type": "string"
        },
        {
          "internalType": "uint256",
          "name": "timestamp",
          "type": "uint256"
        },
        {
          "internalType": "enum InterbankTransfer.TransactionStatus",
          "name": "status",
          "type": "uint8"
        }
      ],
      "stateMutability": "view",
      "type": "function"
    },
    {
      "inputs": [
        {
          "internalType": "address",
          "name": "to",
          "type": "address"
        },
        {
          "internalType": "uint256",
          "name": "amount",
          "type": "uint256"
        },
        {
          "internalType": "string",
          "name": "toBankCode",
          "type": "string"
        },
        {
          "internalType": "string",
          "name": "description",
          "type": "string"
        }
      ],
      "name": "transfer",
      "outputs": [
        {
          "internalType": "uint256",
          "name": "",
          "type": "uint256"
        }
      ],
      "stateMutability": "nonpayable",
      "type": "function"
    },
    {
      "inputs": [
        {
          "internalType": "uint256",
          "name": "txId",
          "type": "uint256"
        },
        {
          "internalType": "enum InterbankTransfer.TransactionStatus",
          "name": "status",
          "type": "uint8"
        }
      ],
      "name": "updateTransactionStatus",
      "outputs": [],
      "stateMutability": "nonpayable",
      "type": "function"
    }
  ],
  "devdoc": {
    "details": "Smart contract quản lý giao dịch liên ngân hàng - Quản lý số dư của từng bank - Xử lý chuyển tiền liên ngân hàng - Phát events để thông báo - Theo dõi trạng thái giao dịch",
    "kind": "dev",
    "methods": {
      "addAuthorizedBank(address,string)": {
        "details": "Thêm bank được ủy quyền"
      },
      "deposit(address,string)": {
        "details": "Nạp tiền vào tài khoản (chỉ authorized banks)"
      },
      "getBalance(address)": {
        "details": "Lấy số dư của một address"
      },
      "getTransaction(uint256)": {
        "details": "Lấy thông tin giao dịch"
      },
      "getTransactionCount()": {
        "details": "Lấy tổng số giao dịch"
      },
      "getUserTransactions(address)": {
        "details": "Lấy danh sách giao dịch của một user (sender hoặc receiver)"
      },
      "transfer(address,uint256,string,string)": {
        "details": "Chuyển tiền liên ngân hàng",
        "params": {
          "amount": "Số tiền (trong wei)",
          "description": "Mô tả giao dịch",
          "to": "Địa chỉ người nhận",
          "toBankCode": "Mã ngân hàng nhận"
        },
        "returns": {
          "_0": "transactionId ID của giao dịch"
        }
      },
      "updateTransactionStatus(uint256,uint8)": {
        "details": "Cập nhật trạng thái giao dịch (chỉ owner hoặc authorized banks)"
      }
    },
    "title": "InterbankTransfer",
    "version": 1
  },
  "evm": {
    "assembly": "    /* \"InterbankTransfer.sol\":326:8029  contract InterbankTransfer {... */\n  mstore(0x40, 0x80)\n    /* \"InterbankTransfer.sol\":2346:2427  constructor() {... */\n  callvalue\n  dup1\n  iszero\n  tag_1\n  jumpi\n  0x00\n  dup1\n  revert\ntag_1:\n  pop\n    /* \"InterbankTransfer.sol\":2378:2388  msg.sender */\n  caller\n    /* \"InterbankTransfer.sol\":2370:2375  owner */\n  0x04\n  0x00\n    /* \"InterbankTransfer.sol\":2370:2388  owner = msg.sender */\n  0x0100\n  exp\n  dup2\n  sload\n  dup2\n  0xffffffffffffffffffffffffffffffffffffffff\n  mul\n  not\n  and\n  swap1\n  dup4\n  0xffffffffffffffffffffffffffffffffffffffff\n  and\n  mul\n  or\n  swap1\n  sstore\n  pop\n    /* \"InterbankTransfer.sol\":2419:2420  0 */\n  0x00\n    /* \"InterbankTransfer.sol\":2398:2416  transactionCounter */\n  0x06\n    /* \"InterbankTransfer.sol\":2398:2420  transactionCounter = 0 */\n  dup2\n  swap1\n  sstore\n  pop\n    /* \"InterbankTransfer.sol\":326:8029  contract InterbankTransfer {... */\n  dataSize(sub_0)\n  dup1\n  dataOffset(sub_0)\n  0x00\n  codecopy\n  0x00\n  return\nstop\n\nsub_0: assembly {\n        /* \"InterbankTransfer.sol\":326:8029  contract InterbankTransfer {... */\n      mstore(0x40, 0x80)\n      jumpi(tag_1, lt(calldatasize, 0x04))\n      shr(0xe0, calldataload(0x00))\n      dup1\n      0xb7482509\n      gt\n      tag_16\n      jumpi\n      dup1\n      0xe9c02815\n      gt\n      tag_17\n      jumpi\n      dup1\n      0xe9c02815\n      eq\n      tag_12\n      jumpi\n      dup1\n      0xef925399\n      eq\n      tag_13\n      jumpi\n      dup1\n      0xf8b2cb4f\n      eq\n      tag_14\n      jumpi\n      dup1\n      0xf99185c2\n      eq\n      tag_15\n      jumpi\n      jump(tag_1)\n    tag_17:\n      dup1\n      0xb7482509\n      eq\n      tag_9\n      jumpi\n      dup1\n      0xbafbf728\n      eq\n      tag_10\n      jumpi\n      dup1\n      0xc559e45d\n      eq\n      tag_11\n      jumpi\n      jump(tag_1)\n    tag_16:\n      dup1\n      0x392c5bd8\n      gt\n      tag_18\n      jumpi\n      dup1\n      0x392c5bd8\n      eq\n      tag_5\n      jumpi\n      dup1\n      0x8da5cb5b\n      eq\n      tag_6\n      jumpi\n      dup1\n      0x9ace38c2\n      eq\n      tag_7\n      jumpi\n      dup1\n      0xa2969820\n      eq\n      tag_8\n      jumpi\n      jump(tag_1)\n    tag_18:\n      dup1\n      0x27e235e3\n      eq\n      tag_2\n      jumpi\n      dup1\n      0x2e7700f0\n      eq\n      tag_3\n      jumpi\n      dup1\n      0x33ea3dc8\n      eq\n      tag_4\n      jumpi\n    tag_1:\n      0x00\n      dup1\n      revert\n        /* \"InterbankTransfer.sol\":441:484  mapping(address => uint256) public balances */\n    tag_2:\n      callvalue\n      dup1\n      iszero\n      tag_19\n      jumpi\n      0x00\n      dup1\n      revert\n    tag_19:\n      pop\n      tag_20\n      0x04\n      dup1\n      calldatasize\n      sub\n      dup2\n      add\n      swap1\n      tag_21\n      swap2\n      swap1\n      tag_22\n      jump\t// in\n    tag_21:\n      tag_23\n      jump\t// in\n    tag_20:\n      mload(0x40)\n      tag_24\n      swap2\n      swap1\n      tag_25\n      jump\t// in\n    tag_24:\n      mload(0x40)\n      dup1\n      swap2\n      sub\n      swap1\n      return\n        /* \"InterbankTransfer.sol\":6459:6563  function getTransactionCount() public view returns (uint256) {... */\n    tag_3:\n      callvalue\n      dup1\n      iszero\n      tag_26\n      jumpi\n      0x00\n      dup1\n      revert\n    tag_26:\n      pop\n      tag_27\n      tag_28\n      jump\t// in\n    tag_27:\n      mload(0x40)\n      tag_29\n      swap2\n      swap1\n      tag_25\n      jump\t// in\n    tag_29:\n      mload(0x40)\n      dup1\n      swap2\n      sub\n      swap1\n      return\n        /* \"InterbankTransfer.sol\":5490:6391  function getTransaction(uint256 txId)... */\n    tag_4:\n      callvalue\n      dup1\n      iszero\n      tag_30\n      jumpi\n      0x00\n      dup1\n      revert\n    tag_30:\n      pop\n      tag_31\n      0x04\n      dup1\n      calldatasize\n      sub\n      dup2\n      add\n      swap1\n      tag_32\n      swap2\n      swap1\n      tag_33\n      jump\t// in\n    tag_32:\n      tag_34\n      jump\t// in\n    tag_31:\n      mload(0x40)\n      tag_35\n      swap10\n      swap9\n      swap8\n      swap7\n      swap6\n      swap5\n      swap4\n      swap3\n      swap2\n      swap1\n      tag_36\n      jump\t// in\n    tag_35:\n      mload(0x40)\n      dup1\n      swap2\n      sub\n      swap1\n      return\n        /* \"InterbankTransfer.sol\":540:583  mapping(address => string) public bankCodes */\n    tag_5:\n      callvalue\n      dup1\n      iszero\n      tag_37\n      jumpi\n      0x00\n      dup1\n      revert\n    tag_37:\n      pop\n      tag_38\n      0x04\n      dup1\n      calldatasize\n      sub\n      dup2\n      add\n      swap1\n      tag_39\n      swap2\n      swap1\n      tag_22\n      jump\t// in\n    tag_39:\n      tag_40\n      jump\t// in\n    tag_38:\n      mload(0x40)\n      tag_41\n      swap2\n      swap1\n      tag_42\n      jump\t// in\n    tag_41:\n      mload(0x40)\n      dup1\n      swap2\n      sub\n      swap1\n      return\n        /* \"InterbankTransfer.sol\":1884:1904  address public owner */\n    tag_6:\n      callvalue\n      dup1\n      iszero\n      tag_43\n      jumpi\n      0x00\n      dup1\n      revert\n    tag_43:\n      pop\n      tag_44\n      tag_45\n      jump\t// in\n    tag_44:\n      mload(0x40)\n      tag_46\n      swap2\n      swap1\n      tag_47\n      jump\t// in\n    tag_46:\n      mload(0x40)\n      dup1\n      swap2\n      sub\n      swap1\n      return\n        /* \"InterbankTransfer.sol\":1100:1133  Transaction[] public transactions */\n    tag_7:\n      callvalue\n      dup1\n      iszero\n      tag_48\n      jumpi\n      0x00\n      dup1\n      revert\n    tag_48:\n      pop\n      tag_49\n      0x04\n      dup1\n      calldatasize\n      sub\n      dup2\n      add\n      swap1\n      tag_50\n      swap2\n      swap1\n      tag_33\n      jump\t// in\n    tag_50:\n      tag_51\n      jump\t// in\n    tag_49:\n      mload(0x40)\n      tag_52\n      swap10\n      swap9\n      swap8\n      swap7\n      swap6\n      swap5\n      swap4\n      swap3\n      swap2\n      swap1\n      tag_36\n      jump\t// in\n    tag_52:\n      mload(0x40)\n      dup1\n      swap2\n      sub\n      swap1\n      return\n        /* \"InterbankTransfer.sol\":1910:1957  mapping(address => bool) public authorizedBanks */\n    tag_8:\n      callvalue\n      dup1\n      iszero\n      tag_53\n      jumpi\n      0x00\n      dup1\n      revert\n    tag_53:\n      pop\n      tag_54\n      0x04\n      dup1\n      calldatasize\n      sub\n      dup2\n      add\n      swap1\n      tag_55\n      swap2\n      swap1\n      tag_22\n      jump\t// in\n    tag_55:\n      tag_56\n      jump\t// in\n    tag_54:\n      mload(0x40)\n      tag_57\n      swap2\n      swap1\n      tag_58\n      jump\t// in\n    tag_57:\n      mload(0x40)\n      dup1\n      swap2\n      sub\n      swap1\n      return\n        /* \"InterbankTransfer.sol\":2796:3233  function deposit(address user, string memory bankCode)... */\n    tag_9:\n      tag_59\n      0x04\n      dup1\n      calldatasize\n      sub\n      dup2\n      add\n      swap1\n      tag_60\n      swap2\n      swap1\n      tag_61\n      jump\t// in\n    tag_60:\n      tag_62\n      jump\t// in\n    tag_59:\n      stop\n        /* \"InterbankTransfer.sol\":7665:8027  function updateTransactionStatus(... */\n    tag_10:\n      callvalue\n      dup1\n      iszero\n      tag_63\n      jumpi\n      0x00\n      dup1\n      revert\n    tag_63:\n      pop\n      tag_64\n      0x04\n      dup1\n      calldatasize\n      sub\n      dup2\n      add\n      swap1\n      tag_65\n      swap2\n      swap1\n      tag_66\n      jump\t// in\n    tag_65:\n      tag_67\n      jump\t// in\n    tag_64:\n      stop\n        /* \"InterbankTransfer.sol\":2498:2702  function addAuthorizedBank(address bankAddress, string memory bankCode)... */\n    tag_11:\n      callvalue\n      dup1\n      iszero\n      tag_68\n      jumpi\n      0x00\n      dup1\n      revert\n    tag_68:\n      pop\n      tag_69\n      0x04\n      dup1\n      calldatasize\n      sub\n      dup2\n      add\n      swap1\n      tag_70\n      swap2\n      swap1\n      tag_61\n      jump\t// in\n    tag_70:\n      tag_71\n      jump\t// in\n    tag_69:\n      stop\n        /* \"InterbankTransfer.sol\":3716:5423  function transfer(... */\n    tag_12:\n      callvalue\n      dup1\n      iszero\n      tag_72\n      jumpi\n      0x00\n      dup1\n      revert\n    tag_72:\n      pop\n      tag_73\n      0x04\n      dup1\n      calldatasize\n      sub\n      dup2\n      add\n      swap1\n      tag_74\n      swap2\n      swap1\n      tag_75\n      jump\t// in\n    tag_74:\n      tag_76\n      jump\t// in\n    tag_73:\n      mload(0x40)\n      tag_77\n      swap2\n      swap1\n      tag_25\n      jump\t// in\n    tag_77:\n      mload(0x40)\n      dup1\n      swap2\n      sub\n      swap1\n      return\n        /* \"InterbankTransfer.sol\":6672:7550  function getUserTransactions(address user)... */\n    tag_13:\n      callvalue\n      dup1\n      iszero\n      tag_78\n      jumpi\n      0x00\n      dup1\n      revert\n    tag_78:\n      pop\n      tag_79\n      0x04\n      dup1\n      calldatasize\n      sub\n      dup2\n      add\n      swap1\n      tag_80\n      swap2\n      swap1\n      tag_22\n      jump\t// in\n    tag_80:\n      tag_81\n      jump\t// in\n    tag_79:\n      mload(0x40)\n      tag_82\n      swap2\n      swap1\n      tag_83\n      jump\t// in\n    tag_82:\n      mload(0x40)\n      dup1\n      swap2\n      sub\n      swap1\n      return\n        /* \"InterbankTransfer.sol\":3306:3408  function getBalance(address user) public view returns (uint256) {... */\n    tag_14:\n      callvalue\n      dup1\n      iszero\n      tag_84\n      jumpi\n      0x00\n      dup1\n      revert\n    tag_84:\n      pop\n      tag_85\n      0x04\n      dup1\n      calldatasize\n      sub\n      dup2\n      add\n      swap1\n      tag_86\n      swap2\n      swap1\n      tag_22\n      jump\t// in\n    tag_86:\n      tag_87\n      jump\t// in\n    tag_85:\n      mload(0x40)\n      tag_88\n      swap2\n      swap1\n      tag_25\n      jump\t// in\n    tag_88:\n      mload(0x40)\n      dup1\n      swap2\n      sub\n      swap1\n      return\n        /* \"InterbankTransfer.sol\":1205:1256  mapping(uint256 => uint256) public transactionIndex */\n    tag_15:\n      callvalue\n      dup1\n      iszero\n      tag_89\n      jumpi\n      0x00\n      dup1\n      revert\n    tag_89:\n      pop\n      tag_90\n      0x04\n      dup1\n      calldatasize\n      sub\n      dup2\n      add\n      swap1\n      tag_91\n      swap2\n      swap1\n      tag_33\n      jump\t// in\n    tag_91:\n      tag_92\n      jump\t// in\n    tag_90:\n      mload(0x40)\n      tag_93\n      swap2\n      swap1\n      tag_25\n      jump\t// in\n    tag_93:\n      mload(0x40)\n      dup1\n      swap2\n      sub\n      swap1\n      return\n        /* \"InterbankTransfer.sol\":441:484  mapping(address => uint256) public balances */\n    tag_23:\n      mstore(0x20, 0x00)\n      dup1\n      0x00\n      mstore\n      keccak256(0x00, 0x40)\n      0x00\n      swap2\n      pop\n      swap1\n      pop\n      sload\n      dup2\n      jump\t// out\n        /* \"InterbankTransfer.sol\":6459:6563  function getTransactionCount() public view returns (uint256) {... */\n    tag_28:\n        /* \"InterbankTransfer.sol\":6511:6518  uint256 */\n      0x00\n        /* \"InterbankTransfer.sol\":6537:6549  transactions */\n      0x02\n        /* \"InterbankTransfer.sol\":6537:6556  transactions.length */\n      dup1\n      sload\n      swap1\n      pop\n        /* \"InterbankTransfer.sol\":6530:6556  return transactions.length */\n      swap1\n      pop\n        /* \"InterbankTransfer.sol\":6459:6563  function getTransactionCount() public view returns (uint256) {... */\n      swap1\n      jump\t// out\n        /* \"InterbankTransfer.sol\":5490:6391  function getTransaction(uint256 txId)... */\n    tag_34:\n        /* \"InterbankTransfer.sol\":5586:5596  uint256 id */\n      0x00\n        /* \"InterbankTransfer.sol\":5610:5622  address from */\n      dup1\n        /* \"InterbankTransfer.sol\":5636:5646  address to */\n      0x00\n        /* \"InterbankTransfer.sol\":5660:5674  uint256 amount */\n      dup1\n        /* \"InterbankTransfer.sol\":5688:5710  string memory fromBank */\n      0x60\n        /* \"InterbankTransfer.sol\":5724:5744  string memory toBank */\n      dup1\n        /* \"InterbankTransfer.sol\":5758:5783  string memory description */\n      0x60\n        /* \"InterbankTransfer.sol\":5797:5814  uint256 timestamp */\n      0x00\n        /* \"InterbankTransfer.sol\":5828:5852  TransactionStatus status */\n      dup1\n        /* \"InterbankTransfer.sol\":5892:5893  0 */\n      0x00\n        /* \"InterbankTransfer.sol\":5885:5889  txId */\n      dup11\n        /* \"InterbankTransfer.sol\":5885:5893  txId > 0 */\n      gt\n        /* \"InterbankTransfer.sol\":5885:5923  txId > 0 && txId <= transactionCounter */\n      dup1\n      iszero\n      tag_96\n      jumpi\n      pop\n        /* \"InterbankTransfer.sol\":5905:5923  transactionCounter */\n      sload(0x06)\n        /* \"InterbankTransfer.sol\":5897:5901  txId */\n      dup11\n        /* \"InterbankTransfer.sol\":5897:5923  txId <= transactionCounter */\n      gt\n      iszero\n        /* \"InterbankTransfer.sol\":5885:5923  txId > 0 && txId <= transactionCounter */\n    tag_96:\n        /* \"InterbankTransfer.sol\":5877:5950  require(txId > 0 && txId <= transactionCounter, \"Invalid transaction ID\") */\n      tag_97\n      jumpi\n      mload(0x40)\n      0x08c379a000000000000000000000000000000000000000000000000000000000\n      dup2\n      mstore\n      0x04\n      add\n      tag_98\n      swap1\n      tag_99\n      jump\t// in\n    tag_98:\n      mload(0x40)\n      dup1\n      swap2\n      sub\n      swap1\n      revert\n    tag_97:\n        /* \"InterbankTransfer.sol\":5960:5973  uint256 index */\n      0x00\n        /* \"InterbankTransfer.sol\":5976:5992  transactionIndex */\n      0x03\n        /* \"InterbankTransfer.sol\":5976:5998  transactionIndex[txId] */\n      0x00\n        /* \"InterbankTransfer.sol\":5993:5997  txId */\n      dup13\n        /* \"InterbankTransfer.sol\":5976:5998  transactionIndex[txId] */\n      dup2\n      mstore\n      0x20\n      add\n      swap1\n      dup2\n      mstore\n      0x20\n      add\n      0x00\n      keccak256\n      sload\n        /* \"InterbankTransfer.sol\":5960:5998  uint256 index = transactionIndex[txId] */\n      swap1\n      pop\n        /* \"InterbankTransfer.sol\":6008:6038  Transaction memory transaction */\n      0x00\n        /* \"InterbankTransfer.sol\":6041:6053  transactions */\n      0x02\n        /* \"InterbankTransfer.sol\":6054:6059  index */\n      dup3\n        /* \"InterbankTransfer.sol\":6041:6060  transactions[index] */\n      dup2\n      sload\n      dup2\n      lt\n      tag_100\n      jumpi\n      tag_101\n      tag_102\n      jump\t// in\n    tag_101:\n    tag_100:\n      swap1\n      0x00\n      mstore\n      keccak256(0x00, 0x20)\n      swap1\n      0x09\n      mul\n      add\n        /* \"InterbankTransfer.sol\":6008:6060  Transaction memory transaction = transactions[index] */\n      mload(0x40)\n      dup1\n      0x0120\n      add\n      0x40\n      mstore\n      swap1\n      dup2\n      0x00\n      dup3\n      add\n      sload\n      dup2\n      mstore\n      0x20\n      add\n      0x01\n      dup3\n      add\n      0x00\n      swap1\n      sload\n      swap1\n      0x0100\n      exp\n      swap1\n      div\n      0xffffffffffffffffffffffffffffffffffffffff\n      and\n      0xffffffffffffffffffffffffffffffffffffffff\n      and\n      0xffffffffffffffffffffffffffffffffffffffff\n      and\n      dup2\n      mstore\n      0x20\n      add\n      0x02\n      dup3\n      add\n      0x00\n      swap1\n      sload\n      swap1\n      0x0100\n      exp\n      swap1\n      div\n      0xffffffffffffffffffffffffffffffffffffffff\n      and\n      0xffffffffffffffffffffffffffffffffffffffff\n      and\n      0xffffffffffffffffffffffffffffffffffffffff\n      and\n      dup2\n      mstore\n      0x20\n      add\n      0x03\n      dup3\n      add\n      sload\n      dup2\n      mstore\n      0x20\n      add\n      0x04\n      dup3\n      add\n      dup1\n      sload\n      tag_104\n      swap1\n      tag_105\n      jump\t// in\n    tag_104:\n      dup1\n      0x1f\n      add\n      0x20\n      dup1\n      swap2\n      div\n      mul\n      0x20\n      add\n      mload(0x40)\n      swap1\n      dup2\n      add\n      0x40\n      mstore\n      dup1\n      swap3\n      swap2\n      swap1\n      dup2\n      dup2\n      mstore\n      0x20\n      add\n      dup3\n      dup1\n      sload\n      tag_106\n      swap1\n      tag_105\n      jump\t// in\n    tag_106:\n      dup1\n      iszero\n      tag_107\n      jumpi\n      dup1\n      0x1f\n      lt\n      tag_108\n      jumpi\n      0x0100\n      dup1\n      dup4\n      sload\n      div\n      mul\n      dup4\n      mstore\n      swap2\n      0x20\n      add\n      swap2\n      jump(tag_107)\n    tag_108:\n      dup3\n      add\n      swap2\n      swap1\n      0x00\n      mstore\n      keccak256(0x00, 0x20)\n      swap1\n    tag_109:\n      dup2\n      sload\n      dup2\n      mstore\n      swap1\n      0x01\n      add\n      swap1\n      0x20\n      add\n      dup1\n      dup4\n      gt\n      tag_109\n      jumpi\n      dup3\n      swap1\n      sub\n      0x1f\n      and\n      dup3\n      add\n      swap2\n    tag_107:\n      pop\n      pop\n      pop\n      pop\n      pop\n      dup2\n      mstore\n      0x20\n      add\n      0x05\n      dup3\n      add\n      dup1\n      sload\n      tag_110\n      swap1\n      tag_105\n      jump\t// in\n    tag_110:\n      dup1\n      0x1f\n      add\n      0x20\n      dup1\n      swap2\n      div\n      mul\n      0x20\n      add\n      mload(0x40)\n      swap1\n      dup2\n      add\n      0x40\n      mstore\n      dup1\n      swap3\n      swap2\n      swap1\n      dup2\n      dup2\n      mstore\n      0x20\n      add\n      dup3\n      dup1\n      sload\n      tag_111\n      swap1\n      tag_105\n      jump\t// in\n    tag_111:\n      dup1\n      iszero\n      tag_112\n      jumpi\n      dup1\n      0x1f\n      lt\n      tag_113\n      jumpi\n      0x0100\n      dup1\n      dup4\n      sload\n      div\n      mul\n      dup4\n      mstore\n      swap2\n      0x20\n      add\n      swap2\n      jump(tag_112)\n    tag_113:\n      dup3\n      add\n      swap2\n      swap1\n      0x00\n      mstore\n      keccak256(0x00, 0x20)\n      swap1\n    tag_114:\n      dup2\n      sload\n      dup2\n      mstore\n      swap1\n      0x01\n      add\n      swap1\n      0x20\n      add\n      dup1\n      dup4\n      gt\n      tag_114\n      jumpi\n      dup3\n      swap1\n      sub\n      0x1f\n      and\n      dup3\n      add\n      swap2\n    tag_112:\n      pop\n      pop\n      pop\n      pop\n      pop\n      dup2\n      mstore\n      0x20\n      add\n      0x06\n      dup3\n      add\n      dup1\n      sload\n      tag_115\n      swap1\n      tag_105\n      jump\t// in\n    tag_115:\n      dup1\n      0x1f\n      add\n      0x20\n      dup1\n      swap2\n      div\n      mul\n      0x20\n      add\n      mload(0x40)\n      swap1\n      dup2\n      add\n      0x40\n      mstore\n      dup1\n      swap3\n      swap2\n      swap1\n      dup2\n      dup2\n      mstore\n      0x20\n      add\n      dup3\n      dup1\n      sload\n      tag_116\n      swap1\n      tag_105\n      jump\t// in\n    tag_116:\n      dup1\n      iszero\n      tag_117\n      jumpi\n      dup1\n      0x1f\n      lt\n      tag_118\n      jumpi\n      0x0100\n      dup1\n      dup4\n      sload\n      div\n      mul\n      dup4\n      mstore\n      swap2\n      0x20\n      add\n      swap2\n      jump(tag_117)\n    tag_118:\n      dup3\n      add\n      swap2\n      swap1\n      0x00\n      mstore\n      keccak256(0x00, 0x20)\n      swap1\n    tag_119:\n      dup2\n      sload\n      dup2\n      mstore\n      swap1\n      0x01\n      add\n      swap1\n      0x20\n      add\n      dup1\n      dup4\n      gt\n      tag_119\n      jumpi\n      dup3\n      swap1\n      sub\n      0x1f\n      and\n      dup3\n      add\n      swap2\n    tag_117:\n      pop\n      pop\n      pop\n      pop\n      pop\n      dup2\n      mstore\n      0x20\n      add\n      0x07\n      dup3\n      add\n      sload\n      dup2\n      mstore\n      0x20\n      add\n      0x08\n      dup3\n      add\n      0x00\n      swap1\n      sload\n      swap1\n      0x0100\n      exp\n      swap1\n      div\n      0xff\n      and\n      0x03\n      dup2\n      gt\n      iszero\n      tag_120\n      jumpi\n      tag_121\n      tag_122\n      jump\t// in\n    tag_121:\n    tag_120:\n      0x03\n      dup2\n      gt\n      iszero\n      tag_123\n      jumpi\n      tag_124\n      tag_122\n      jump\t// in\n    tag_124:\n    tag_123:\n      dup2\n      mstore\n      pop\n      pop\n      swap1\n      pop\n        /* \"InterbankTransfer.sol\":6100:6111  transaction */\n      dup1\n        /* \"InterbankTransfer.sol\":6100:6114  transaction.id */\n      0x00\n      add\n      mload\n        /* \"InterbankTransfer.sol\":6128:6139  transaction */\n      dup2\n        /* \"InterbankTransfer.sol\":6128:6144  transaction.from */\n      0x20\n      add\n      mload\n        /* \"InterbankTransfer.sol\":6158:6169  transaction */\n      dup3\n        /* \"InterbankTransfer.sol\":6158:6172  transaction.to */\n      0x40\n      add\n      mload\n        /* \"InterbankTransfer.sol\":6186:6197  transaction */\n      dup4\n        /* \"InterbankTransfer.sol\":6186:6204  transaction.amount */\n      0x60\n      add\n      mload\n        /* \"InterbankTransfer.sol\":6218:6229  transaction */\n      dup5\n        /* \"InterbankTransfer.sol\":6218:6238  transaction.fromBank */\n      0x80\n      add\n      mload\n        /* \"InterbankTransfer.sol\":6252:6263  transaction */\n      dup6\n        /* \"InterbankTransfer.sol\":6252:6270  transaction.toBank */\n      0xa0\n      add\n      mload\n        /* \"InterbankTransfer.sol\":6284:6295  transaction */\n      dup7\n        /* \"InterbankTransfer.sol\":6284:6307  transaction.description */\n      0xc0\n      add\n      mload\n        /* \"InterbankTransfer.sol\":6321:6332  transaction */\n      dup8\n        /* \"InterbankTransfer.sol\":6321:6342  transaction.timestamp */\n      0xe0\n      add\n      mload\n        /* \"InterbankTransfer.sol\":6356:6367  transaction */\n      dup9\n        /* \"InterbankTransfer.sol\":6356:6374  transaction.status */\n      0x0100\n      add\n      mload\n        /* \"InterbankTransfer.sol\":6079:6384  return (... */\n      swap11\n      pop\n      swap11\n      pop\n      swap11\n      pop\n      swap11\n      pop\n      swap11\n      pop\n      swap11\n      pop\n      swap11\n      pop\n      swap11\n      pop\n      swap11\n      pop\n      pop\n      pop\n        /* \"InterbankTransfer.sol\":5490:6391  function getTransaction(uint256 txId)... */\n      swap2\n      swap4\n      swap6\n      swap8\n      swap10\n      swap1\n      swap3\n      swap5\n      swap7\n      swap9\n      pop\n      jump\t// out\n        /* \"InterbankTransfer.sol\":540:583  mapping(address => string) public bankCodes */\n    tag_40:\n      mstore(0x20, 0x01)\n      dup1\n      0x00\n      mstore\n      keccak256(0x00, 0x40)\n      0x00\n      swap2\n      pop\n      swap1\n      pop\n      dup1\n      sload\n      tag_125\n      swap1\n      tag_105\n      jump\t// in\n    tag_125:\n      dup1\n      0x1f\n      add\n      0x20\n      dup1\n      swap2\n      div\n      mul\n      0x20\n      add\n      mload(0x40)\n      swap1\n      dup2\n      add\n      0x40\n      mstore\n      dup1\n      swap3\n      swap2\n      swap1\n      dup2\n      dup2\n      mstore\n      0x20\n      add\n      dup3\n      dup1\n      sload\n      tag_126\n      swap1\n      tag_105\n      jump\t// in\n    tag_126:\n      dup1\n      iszero\n      tag_127\n      jumpi\n      dup1\n      0x1f\n      lt\n      tag_128\n      jumpi\n      0x0100\n      dup1\n      dup4\n      sload\n      div\n      mul\n      dup4\n      mstore\n      swap2\n      0x20\n      add\n      swap2\n      jump(tag_127)\n    tag_128:\n      dup3\n      add\n      swap2\n      swap1\n      0x00\n      mstore\n      keccak256(0x00, 0x20)\n      swap1\n    tag_129:\n      dup2\n      sload\n      dup2\n      mstore\n      swap1\n      0x01\n      add\n      swap1\n      0x20\n      add\n      dup1\n      dup4\n      gt\n      tag_129\n      jumpi\n      dup3\n      swap1\n      sub\n      0x1f\n      and\n      dup3\n      add\n      swap2\n    tag_127:\n      pop\n      pop\n      pop\n      pop\n      pop\n      dup2\n      jump\t// out\n        /* \"InterbankTransfer.sol\":1884:1904  address public owner */\n    tag_45:\n      0x04\n      0x00\n      swap1\n      sload\n      swap1\n      0x0100\n      exp\n      swap1\n      div\n      0xffffffffffffffffffffffffffffffffffffffff\n      and\n      dup2\n      jump\t// out\n        /* \"InterbankTransfer.sol\":1100:1133  Transaction[] public transactions */\n    tag_51:\n      0x02\n      dup2\n      dup2\n      sload\n      dup2\n      lt\n      tag_130\n      jumpi\n      0x00\n      dup1\n      revert\n    tag_130:\n      swap1\n      0x00\n      mstore\n      keccak256(0x00, 0x20)\n      swap1\n      0x09\n      mul\n      add\n      0x00\n      swap2\n      pop\n      swap1\n      pop\n      dup1\n      0x00\n      add\n      sload\n      swap1\n      dup1\n      0x01\n      add\n      0x00\n      swap1\n      sload\n      swap1\n      0x0100\n      exp\n      swap1\n      div\n      0xffffffffffffffffffffffffffffffffffffffff\n      and\n      swap1\n      dup1\n      0x02\n      add\n      0x00\n      swap1\n      sload\n      swap1\n      0x0100\n      exp\n      swap1\n      div\n      0xffffffffffffffffffffffffffffffffffffffff\n      and\n      swap1\n      dup1\n      0x03\n      add\n      sload\n      swap1\n      dup1\n      0x04\n      add\n      dup1\n      sload\n      tag_132\n      swap1\n      tag_105\n      jump\t// in\n    tag_132:\n      dup1\n      0x1f\n      add\n      0x20\n      dup1\n      swap2\n      div\n      mul\n      0x20\n      add\n      mload(0x40)\n      swap1\n      dup2\n      add\n      0x40\n      mstore\n      dup1\n      swap3\n      swap2\n      swap1\n      dup2\n      dup2\n      mstore\n      0x20\n      add\n      dup3\n      dup1\n      sload\n      tag_133\n      swap1\n      tag_105\n      jump\t// in\n    tag_133:\n      dup1\n      iszero\n      tag_134\n      jumpi\n      dup1\n      0x1f\n      lt\n      tag_135\n      jumpi\n      0x0100\n      dup1\n      dup4\n      sload\n      div\n      mul\n      dup4\n      mstore\n      swap2\n      0x20\n      add\n      swap2\n      jump(tag_134)\n    tag_135:\n      dup3\n      add\n      swap2\n      swap1\n      0x00\n      mstore\n      keccak256(0x00, 0x20)\n      swap1\n    tag_136:\n      dup2\n      sload\n      dup2\n      mstore\n      swap1\n      0x01\n      add\n      swap1\n      0x20\n      add\n      dup1\n      dup4\n      gt\n      tag_136\n      jumpi\n      dup3\n      swap1\n      sub\n      0x1f\n      and\n      dup3\n      add\n      swap2\n    tag_134:\n      pop\n      pop\n      pop\n      pop\n      pop\n      swap1\n      dup1\n      0x05\n      add\n      dup1\n      sload\n      tag_137\n      swap1\n      tag_105\n      jump\t// in\n    tag_137:\n      dup1\n      0x1f\n      add\n      0x20\n      dup1\n      swap2\n      div\n      mul\n      0x20\n      add\n      mload(0x40)\n      swap1\n      dup2\n      add\n      0x40\n      mstore\n      dup1\n      swap3\n      swap2\n      swap1\n      dup2\n      dup2\n      mstore\n      0x20\n      add\n      dup3\n      dup1\n      sload\n      tag_138\n      swap1\n      tag_105\n      jump\t// in\n    tag_138:\n      dup1\n      iszero\n      tag_139\n      jumpi\n      dup1\n      0x1f\n      lt\n      tag_140\n      jumpi\n      0x0100\n      dup1\n      dup4\n      sload\n      div\n      mul\n      dup4\n      mstore\n      swap2\n      0x20\n      add\n      swap2\n      jump(tag_139)\n    tag_140:\n      dup3\n      add\n      swap2\n      swap1\n      0x00\n      mstore\n      keccak256(0x00, 0x20)\n      swap1\n    tag_141:\n      dup2\n      sload\n      dup2\n      mstore\n      swap1\n      0x01\n      add\n      swap1\n      0x20\n      add\n      dup1\n      dup4\n      gt\n      tag_141\n      jumpi\n      dup3\n      swap1\n      sub\n      0x1f\n      and\n      dup3\n      add\n      swap2\n    tag_139:\n      pop\n      pop\n      pop\n      pop\n      pop\n      swap1\n      dup1\n      0x06\n      add\n      dup1\n      sload\n      tag_142\n      swap1\n      tag_105\n      jump\t// in\n    tag_142:\n      dup1\n      0x1f\n      add\n      0x20\n      dup1\n      swap2\n      div\n      mul\n      0x20\n      add\n      mload(0x40)\n      swap1\n      dup2\n      add\n      0x40\n      mstore\n      dup1\n      swap3\n      swap2\n      swap1\n      dup2\n      dup2\n      mstore\n      0x20\n      add\n      dup3\n      dup1\n      sload\n      tag_143\n      swap1\n      tag_105\n      jump\t// in\n    tag_143:\n      dup1\n      iszero\n      tag_144\n      jumpi\n      dup1\n      0x1f\n      lt\n      tag_145\n      jumpi\n      0x0100\n      dup1\n      dup4\n      sload\n      div\n      mul\n      dup4\n      mstore\n      swap2\n      0x20\n      add\n      swap2\n      jump(tag_144)\n    tag_145:\n      dup3\n      add\n      swap2\n      swap1\n      0x00\n      mstore\n      keccak256(0x00, 0x20)\n      swap1\n    tag_146:\n      dup2\n      sload\n      dup2\n      mstore\n      swap1\n      0x01\n      add\n      swap1\n      0x20\n      add\n      dup1\n      dup4\n      gt\n      tag_146\n      jumpi\n      dup3\n      swap1\n      sub\n      0x1f\n      and\n      dup3\n      add\n      swap2\n    tag_144:\n      pop\n      pop\n      pop\n      pop\n      pop\n      swap1\n      dup1\n      0x07\n      add\n      sload\n      swap1\n      dup1\n      0x08\n      add\n      0x00\n      swap1\n      sload\n      swap1\n      0x0100\n      exp\n      swap1\n      div\n      0xff\n      and\n      swap1\n      pop\n      dup10\n      jump\t// out\n        /* \"InterbankTransfer.sol\":1910:1957  mapping(address => bool) public authorizedBanks */\n    tag_56:\n      mstore(0x20, 0x05)\n      dup1\n      0x00\n      mstore\n      keccak256(0x00, 0x40)\n      0x00\n      swap2\n      pop\n      sload\n      swap1\n      0x0100\n      exp\n      swap1\n      div\n      0xff\n      and\n      dup2\n      jump\t// out\n        /* \"InterbankTransfer.sol\":2796:3233  function deposit(address user, string memory bankCode)... */\n    tag_62:\n        /* \"InterbankTransfer.sol\":2228:2243  authorizedBanks */\n      0x05\n        /* \"InterbankTransfer.sol\":2228:2255  authorizedBanks[msg.sender] */\n      0x00\n        /* \"InterbankTransfer.sol\":2244:2254  msg.sender */\n      caller\n        /* \"InterbankTransfer.sol\":2228:2255  authorizedBanks[msg.sender] */\n      0xffffffffffffffffffffffffffffffffffffffff\n      and\n      0xffffffffffffffffffffffffffffffffffffffff\n      and\n      dup2\n      mstore\n      0x20\n      add\n      swap1\n      dup2\n      mstore\n      0x20\n      add\n      0x00\n      keccak256\n      0x00\n      swap1\n      sload\n      swap1\n      0x0100\n      exp\n      swap1\n      div\n      0xff\n      and\n        /* \"InterbankTransfer.sol\":2228:2278  authorizedBanks[msg.sender] || msg.sender == owner */\n      dup1\n      tag_148\n      jumpi\n      pop\n        /* \"InterbankTransfer.sol\":2273:2278  owner */\n      0x04\n      0x00\n      swap1\n      sload\n      swap1\n      0x0100\n      exp\n      swap1\n      div\n      0xffffffffffffffffffffffffffffffffffffffff\n      and\n        /* \"InterbankTransfer.sol\":2259:2278  msg.sender == owner */\n      0xffffffffffffffffffffffffffffffffffffffff\n      and\n        /* \"InterbankTransfer.sol\":2259:2269  msg.sender */\n      caller\n        /* \"InterbankTransfer.sol\":2259:2278  msg.sender == owner */\n      0xffffffffffffffffffffffffffffffffffffffff\n      and\n      eq\n        /* \"InterbankTransfer.sol\":2228:2278  authorizedBanks[msg.sender] || msg.sender == owner */\n    tag_148:\n        /* \"InterbankTransfer.sol\":2207:2318  require(... */\n      tag_149\n      jumpi\n      mload(0x40)\n      0x08c379a000000000000000000000000000000000000000000000000000000000\n      dup2\n      mstore\n      0x04\n      add\n      tag_150\n      swap1\n      tag_151\n      jump\t// in\n    tag_150:\n      mload(0x40)\n      dup1\n      swap2\n      sub\n      swap1\n      revert\n    tag_149:\n        /* \"InterbankTransfer.sol\":2943:2944  0 */\n      0x00\n        /* \"InterbankTransfer.sol\":2927:2945  user != address(0) */\n      0xffffffffffffffffffffffffffffffffffffffff\n      and\n        /* \"InterbankTransfer.sol\":2927:2931  user */\n      dup3\n        /* \"InterbankTransfer.sol\":2927:2945  user != address(0) */\n      0xffffffffffffffffffffffffffffffffffffffff\n      and\n      eq\n      iszero\n        /* \"InterbankTransfer.sol\":2919:2970  require(user != address(0), \"Invalid user address\") */\n      tag_153\n      jumpi\n      mload(0x40)\n      0x08c379a000000000000000000000000000000000000000000000000000000000\n      dup2\n      mstore\n      0x04\n      add\n      tag_154\n      swap1\n      tag_155\n      jump\t// in\n    tag_154:\n      mload(0x40)\n      dup1\n      swap2\n      sub\n      swap1\n      revert\n    tag_153:\n        /* \"InterbankTransfer.sol\":3000:3001  0 */\n      0x00\n        /* \"InterbankTransfer.sol\":2988:2997  msg.value */\n      callvalue\n        /* \"InterbankTransfer.sol\":2988:3001  msg.value > 0 */\n      gt\n        /* \"InterbankTransfer.sol\":2980:3035  require(msg.value > 0, \"Amount must be greater than 0\") */\n      tag_156\n      jumpi\n      mload(0x40)\n      0x08c379a000000000000000000000000000000000000000000000000000000000\n      dup2\n      mstore\n      0x04\n      add\n      tag_157\n      swap1\n      tag_158\n      jump\t// in\n    tag_157:\n      mload(0x40)\n      dup1\n      swap2\n      sub\n      swap1\n      revert\n    tag_156:\n        /* \"InterbankTransfer.sol\":3072:3081  msg.value */\n      callvalue\n        /* \"InterbankTransfer.sol\":3054:3062  balances */\n      0x00\n        /* \"InterbankTransfer.sol\":3054:3068  balances[user] */\n      dup1\n        /* \"InterbankTransfer.sol\":3063:3067  user */\n      dup5\n        /* \"InterbankTransfer.sol\":3054:3068  balances[user] */\n      0xffffffffffffffffffffffffffffffffffffffff\n      and\n      0xffffffffffffffffffffffffffffffffffffffff\n      and\n      dup2\n      mstore\n      0x20\n      add\n      swap1\n      dup2\n      mstore\n      0x20\n      add\n      0x00\n      keccak256\n      0x00\n        /* \"InterbankTransfer.sol\":3054:3081  balances[user] += msg.value */\n      dup3\n      dup3\n      sload\n      tag_159\n      swap2\n      swap1\n      tag_160\n      jump\t// in\n    tag_159:\n      swap3\n      pop\n      pop\n      dup2\n      swap1\n      sstore\n      pop\n        /* \"InterbankTransfer.sol\":3109:3117  bankCode */\n      dup1\n        /* \"InterbankTransfer.sol\":3091:3100  bankCodes */\n      0x01\n        /* \"InterbankTransfer.sol\":3091:3106  bankCodes[user] */\n      0x00\n        /* \"InterbankTransfer.sol\":3101:3105  user */\n      dup5\n        /* \"InterbankTransfer.sol\":3091:3106  bankCodes[user] */\n      0xffffffffffffffffffffffffffffffffffffffff\n      and\n      0xffffffffffffffffffffffffffffffffffffffff\n      and\n      dup2\n      mstore\n      0x20\n      add\n      swap1\n      dup2\n      mstore\n      0x20\n      add\n      0x00\n      keccak256\n        /* \"InterbankTransfer.sol\":3091:3117  bankCodes[user] = bankCode */\n      swap1\n      dup1\n      mload\n      swap1\n      0x20\n      add\n      swap1\n      tag_161\n      swap3\n      swap2\n      swap1\n      tag_162\n      jump\t// in\n    tag_161:\n      pop\n        /* \"InterbankTransfer.sol\":3149:3153  user */\n      dup2\n        /* \"InterbankTransfer.sol\":3141:3175  Deposit(user, msg.value, bankCode) */\n      0xffffffffffffffffffffffffffffffffffffffff\n      and\n      0x643e927b32d5bfd08eccd2fcbd97057ad413850f857a2359639114e8e8dd3d7b\n        /* \"InterbankTransfer.sol\":3155:3164  msg.value */\n      callvalue\n        /* \"InterbankTransfer.sol\":3166:3174  bankCode */\n      dup4\n        /* \"InterbankTransfer.sol\":3141:3175  Deposit(user, msg.value, bankCode) */\n      mload(0x40)\n      tag_163\n      swap3\n      swap2\n      swap1\n      tag_164\n      jump\t// in\n    tag_163:\n      mload(0x40)\n      dup1\n      swap2\n      sub\n      swap1\n      log2\n        /* \"InterbankTransfer.sol\":3205:3209  user */\n      dup2\n        /* \"InterbankTransfer.sol\":3190:3226  BalanceUpdated(user, balances[user]) */\n      0xffffffffffffffffffffffffffffffffffffffff\n      and\n      0x8ad64a0ac7700dd8425ab0499f107cb6e2cd1581d803c5b8c1c79dcb8190b1af\n        /* \"InterbankTransfer.sol\":3211:3219  balances */\n      0x00\n        /* \"InterbankTransfer.sol\":3211:3225  balances[user] */\n      dup1\n        /* \"InterbankTransfer.sol\":3220:3224  user */\n      dup6\n        /* \"InterbankTransfer.sol\":3211:3225  balances[user] */\n      0xffffffffffffffffffffffffffffffffffffffff\n      and\n      0xffffffffffffffffffffffffffffffffffffffff\n      and\n      dup2\n      mstore\n      0x20\n      add\n      swap1\n      dup2\n      mstore\n      0x20\n      add\n      0x00\n      keccak256\n      sload\n        /* \"InterbankTransfer.sol\":3190:3226  BalanceUpdated(user, balances[user]) */\n      mload(0x40)\n      tag_165\n      swap2\n      swap1\n      tag_25\n      jump\t// in\n    tag_165:\n      mload(0x40)\n      dup1\n      swap2\n      sub\n      swap1\n      log2\n        /* \"InterbankTransfer.sol\":2796:3233  function deposit(address user, string memory bankCode)... */\n      pop\n      pop\n      jump\t// out\n        /* \"InterbankTransfer.sol\":7665:8027  function updateTransactionStatus(... */\n    tag_67:\n        /* \"InterbankTransfer.sol\":2228:2243  authorizedBanks */\n      0x05\n        /* \"InterbankTransfer.sol\":2228:2255  authorizedBanks[msg.sender] */\n      0x00\n        /* \"InterbankTransfer.sol\":2244:2254  msg.sender */\n      caller\n        /* \"InterbankTransfer.sol\":2228:2255  authorizedBanks[msg.sender] */\n      0xffffffffffffffffffffffffffffffffffffffff\n      and\n      0xffffffffffffffffffffffffffffffffffffffff\n      and\n      dup2\n      mstore\n      0x20\n      add\n      swap1\n      dup2\n      mstore\n      0x20\n      add\n      0x00\n      keccak256\n      0x00\n      swap1\n      sload\n      swap1\n      0x0100\n      exp\n      swap1\n      div\n      0xff\n      and\n        /* \"InterbankTransfer.sol\":2228:2278  authorizedBanks[msg.sender] || msg.sender == owner */\n      dup1\n      tag_167\n      jumpi\n      pop\n        /* \"InterbankTransfer.sol\":2273:2278  owner */\n      0x04\n      0x00\n      swap1\n      sload\n      swap1\n      0x0100\n      exp\n      swap1\n      div\n      0xffffffffffffffffffffffffffffffffffffffff\n      and\n        /* \"InterbankTransfer.sol\":2259:2278  msg.sender == owner */\n      0xffffffffffffffffffffffffffffffffffffffff\n      and\n        /* \"InterbankTransfer.sol\":2259:2269  msg.sender */\n      caller\n        /* \"InterbankTransfer.sol\":2259:2278  msg.sender == owner */\n      0xffffffffffffffffffffffffffffffffffffffff\n      and\n      eq\n        /* \"InterbankTransfer.sol\":2228:2278  authorizedBanks[msg.sender] || msg.sender == owner */\n    tag_167:\n        /* \"InterbankTransfer.sol\":2207:2318  require(... */\n      tag_168\n      jumpi\n      mload(0x40)\n      0x08c379a000000000000000000000000000000000000000000000000000000000\n      dup2\n      mstore\n      0x04\n      add\n      tag_169\n      swap1\n      tag_151\n      jump\t// in\n    tag_169:\n      mload(0x40)\n      dup1\n      swap2\n      sub\n      swap1\n      revert\n    tag_168:\n        /* \"InterbankTransfer.sol\":7807:7808  0 */\n      0x00\n        /* \"InterbankTransfer.sol\":7800:7804  txId */\n      dup3\n        /* \"InterbankTransfer.sol\":7800:7808  txId > 0 */\n      gt\n        /* \"InterbankTransfer.sol\":7800:7838  txId > 0 && txId <= transactionCounter */\n      dup1\n      iszero\n      tag_171\n      jumpi\n      pop\n        /* \"InterbankTransfer.sol\":7820:7838  transactionCounter */\n      sload(0x06)\n        /* \"InterbankTransfer.sol\":7812:7816  txId */\n      dup3\n        /* \"InterbankTransfer.sol\":7812:7838  txId <= transactionCounter */\n      gt\n      iszero\n        /* \"InterbankTransfer.sol\":7800:7838  txId > 0 && txId <= transactionCounter */\n    tag_171:\n        /* \"InterbankTransfer.sol\":7792:7865  require(txId > 0 && txId <= transactionCounter, \"Invalid transaction ID\") */\n      tag_172\n      jumpi\n      mload(0x40)\n      0x08c379a000000000000000000000000000000000000000000000000000000000\n      dup2\n      mstore\n      0x04\n      add\n      tag_173\n      swap1\n      tag_99\n      jump\t// in\n    tag_173:\n      mload(0x40)\n      dup1\n      swap2\n      sub\n      swap1\n      revert\n    tag_172:\n        /* \"InterbankTransfer.sol\":7875:7888  uint256 index */\n      0x00\n        /* \"InterbankTransfer.sol\":7891:7907  transactionIndex */\n      0x03\n        /* \"InterbankTransfer.sol\":7891:7913  transactionIndex[txId] */\n      0x00\n        /* \"InterbankTransfer.sol\":7908:7912  txId */\n      dup5\n        /* \"InterbankTransfer.sol\":7891:7913  transactionIndex[txId] */\n      dup2\n      mstore\n      0x20\n      add\n      swap1\n      dup2\n      mstore\n      0x20\n      add\n      0x00\n      keccak256\n      sload\n        /* \"InterbankTransfer.sol\":7875:7913  uint256 index = transactionIndex[txId] */\n      swap1\n      pop\n        /* \"InterbankTransfer.sol\":7952:7958  status */\n      dup2\n        /* \"InterbankTransfer.sol\":7923:7935  transactions */\n      0x02\n        /* \"InterbankTransfer.sol\":7936:7941  index */\n      dup3\n        /* \"InterbankTransfer.sol\":7923:7942  transactions[index] */\n      dup2\n      sload\n      dup2\n      lt\n      tag_174\n      jumpi\n      tag_175\n      tag_102\n      jump\t// in\n    tag_175:\n    tag_174:\n      swap1\n      0x00\n      mstore\n      keccak256(0x00, 0x20)\n      swap1\n      0x09\n      mul\n      add\n        /* \"InterbankTransfer.sol\":7923:7949  transactions[index].status */\n      0x08\n      add\n      0x00\n        /* \"InterbankTransfer.sol\":7923:7958  transactions[index].status = status */\n      0x0100\n      exp\n      dup2\n      sload\n      dup2\n      0xff\n      mul\n      not\n      and\n      swap1\n      dup4\n      0x03\n      dup2\n      gt\n      iszero\n      tag_177\n      jumpi\n      tag_178\n      tag_122\n      jump\t// in\n    tag_178:\n    tag_177:\n      mul\n      or\n      swap1\n      sstore\n      pop\n        /* \"InterbankTransfer.sol\":8007:8011  txId */\n      dup3\n        /* \"InterbankTransfer.sol\":7982:8020  TransactionStatusChanged(txId, status) */\n      0x3013893708bd175bc8eeedd6ea1e367024bbc9bc7b110e7ed37bc77aceac57\n        /* \"InterbankTransfer.sol\":8013:8019  status */\n      dup4\n        /* \"InterbankTransfer.sol\":7982:8020  TransactionStatusChanged(txId, status) */\n      mload(0x40)\n      tag_179\n      swap2\n      swap1\n      tag_180\n      jump\t// in\n    tag_179:\n      mload(0x40)\n      dup1\n      swap2\n      sub\n      swap1\n      log2\n        /* \"InterbankTransfer.sol\":7782:8027  {... */\n      pop\n        /* \"InterbankTransfer.sol\":7665:8027  function updateTransactionStatus(... */\n      pop\n      pop\n      jump\t// out\n        /* \"InterbankTransfer.sol\":2498:2702  function addAuthorizedBank(address bankAddress, string memory bankCode)... */\n    tag_71:\n        /* \"InterbankTransfer.sol\":2100:2105  owner */\n      0x04\n      0x00\n      swap1\n      sload\n      swap1\n      0x0100\n      exp\n      swap1\n      div\n      0xffffffffffffffffffffffffffffffffffffffff\n      and\n        /* \"InterbankTransfer.sol\":2086:2105  msg.sender == owner */\n      0xffffffffffffffffffffffffffffffffffffffff\n      and\n        /* \"InterbankTransfer.sol\":2086:2096  msg.sender */\n      caller\n        /* \"InterbankTransfer.sol\":2086:2105  msg.sender == owner */\n      0xffffffffffffffffffffffffffffffffffffffff\n      and\n      eq\n        /* \"InterbankTransfer.sol\":2078:2143  require(msg.sender == owner, \"Only owner can call this function\") */\n      tag_182\n      jumpi\n      mload(0x40)\n      0x08c379a000000000000000000000000000000000000000000000000000000000\n      dup2\n      mstore\n      0x04\n      add\n      tag_183\n      swap1\n      tag_184\n      jump\t// in\n    tag_183:\n      mload(0x40)\n      dup1\n      swap2\n      sub\n      swap1\n      revert\n    tag_182:\n        /* \"InterbankTransfer.sol\":2648:2652  true */\n      0x01\n        /* \"InterbankTransfer.sol\":2617:2632  authorizedBanks */\n      0x05\n        /* \"InterbankTransfer.sol\":2617:2645  authorizedBanks[bankAddress] */\n      0x00\n        /* \"InterbankTransfer.sol\":2633:2644  bankAddress */\n      dup5\n        /* \"InterbankTransfer.sol\":2617:2645  authorizedBanks[bankAddress] */\n      0xffffffffffffffffffffffffffffffffffffffff\n      and\n      0xffffffffffffffffffffffffffffffffffffffff\n      and\n      dup2\n      mstore\n      0x20\n      add\n      swap1\n      dup2\n      mstore\n      0x20\n      add\n      0x00\n      keccak256\n      0x00\n        /* \"InterbankTransfer.sol\":2617:2652  authorizedBanks[bankAddress] = true */\n      0x0100\n      exp\n      dup2\n      sload\n      dup2\n      0xff\n      mul\n      not\n      and\n      swap1\n      dup4\n      iszero\n      iszero\n      mul\n      or\n      swap1\n      sstore\n      pop\n        /* \"InterbankTransfer.sol\":2687:2695  bankCode */\n      dup1\n        /* \"InterbankTransfer.sol\":2662:2671  bankCodes */\n      0x01\n        /* \"InterbankTransfer.sol\":2662:2684  bankCodes[bankAddress] */\n      0x00\n        /* \"InterbankTransfer.sol\":2672:2683  bankAddress */\n      dup5\n        /* \"InterbankTransfer.sol\":2662:2684  bankCodes[bankAddress] */\n      0xffffffffffffffffffffffffffffffffffffffff\n      and\n      0xffffffffffffffffffffffffffffffffffffffff\n      and\n      dup2\n      mstore\n      0x20\n      add\n      swap1\n      dup2\n      mstore\n      0x20\n      add\n      0x00\n      keccak256\n        /* \"InterbankTransfer.sol\":2662:2695  bankCodes[bankAddress] = bankCode */\n      swap1\n      dup1\n      mload\n      swap1\n      0x20\n      add\n      swap1\n      tag_186\n      swap3\n      swap2\n      swap1\n      tag_162\n      jump\t// in\n    tag_186:\n      pop\n        /* \"InterbankTransfer.sol\":2498:2702  function addAuthorizedBank(address bankAddress, string memory bankCode)... */\n      pop\n      pop\n      jump\t// out\n        /* \"InterbankTransfer.sol\":3716:5423  function transfer(... */\n    tag_76:\n        /* \"InterbankTransfer.sol\":3869:3876  uint256 */\n      0x00\n        /* \"InterbankTransfer.sol\":3910:3911  0 */\n      dup1\n        /* \"InterbankTransfer.sol\":3896:3912  to != address(0) */\n      0xffffffffffffffffffffffffffffffffffffffff\n      and\n        /* \"InterbankTransfer.sol\":3896:3898  to */\n      dup6\n        /* \"InterbankTransfer.sol\":3896:3912  to != address(0) */\n      0xffffffffffffffffffffffffffffffffffffffff\n      and\n      eq\n      iszero\n        /* \"InterbankTransfer.sol\":3888:3942  require(to != address(0), \"Invalid recipient address\") */\n      tag_188\n      jumpi\n      mload(0x40)\n      0x08c379a000000000000000000000000000000000000000000000000000000000\n      dup2\n      mstore\n      0x04\n      add\n      tag_189\n      swap1\n      tag_190\n      jump\t// in\n    tag_189:\n      mload(0x40)\n      dup1\n      swap2\n      sub\n      swap1\n      revert\n    tag_188:\n        /* \"InterbankTransfer.sol\":3969:3970  0 */\n      0x00\n        /* \"InterbankTransfer.sol\":3960:3966  amount */\n      dup5\n        /* \"InterbankTransfer.sol\":3960:3970  amount > 0 */\n      gt\n        /* \"InterbankTransfer.sol\":3952:4004  require(amount > 0, \"Amount must be greater than 0\") */\n      tag_191\n      jumpi\n      mload(0x40)\n      0x08c379a000000000000000000000000000000000000000000000000000000000\n      dup2\n      mstore\n      0x04\n      add\n      tag_192\n      swap1\n      tag_158\n      jump\t// in\n    tag_192:\n      mload(0x40)\n      dup1\n      swap2\n      sub\n      swap1\n      revert\n    tag_191:\n        /* \"InterbankTransfer.sol\":4059:4065  amount */\n      dup4\n        /* \"InterbankTransfer.sol\":4035:4043  balances */\n      0x00\n        /* \"InterbankTransfer.sol\":4035:4055  balances[msg.sender] */\n      dup1\n        /* \"InterbankTransfer.sol\":4044:4054  msg.sender */\n      caller\n        /* \"InterbankTransfer.sol\":4035:4055  balances[msg.sender] */\n      0xffffffffffffffffffffffffffffffffffffffff\n      and\n      0xffffffffffffffffffffffffffffffffffffffff\n      and\n      dup2\n      mstore\n      0x20\n      add\n      swap1\n      dup2\n      mstore\n      0x20\n      add\n      0x00\n      keccak256\n      sload\n        /* \"InterbankTransfer.sol\":4035:4065  balances[msg.sender] >= amount */\n      lt\n      iszero\n        /* \"InterbankTransfer.sol\":4014:4111  require(... */\n      tag_193\n      jumpi\n      mload(0x40)\n      0x08c379a000000000000000000000000000000000000000000000000000000000\n      dup2\n      mstore\n      0x04\n      add\n      tag_194\n      swap1\n      tag_195\n      jump\t// in\n    tag_194:\n      mload(0x40)\n      dup1\n      swap2\n      sub\n      swap1\n      revert\n    tag_193:\n        /* \"InterbankTransfer.sol\":4165:4183  transactionCounter */\n      0x06\n      0x00\n        /* \"InterbankTransfer.sol\":4165:4185  transactionCounter++ */\n      dup2\n      sload\n      dup1\n      swap3\n      swap2\n      swap1\n      tag_196\n      swap1\n      tag_197\n      jump\t// in\n    tag_196:\n      swap2\n      swap1\n      pop\n      sstore\n      pop\n        /* \"InterbankTransfer.sol\":4195:4207  uint256 txId */\n      0x00\n        /* \"InterbankTransfer.sol\":4210:4228  transactionCounter */\n      sload(0x06)\n        /* \"InterbankTransfer.sol\":4195:4228  uint256 txId = transactionCounter */\n      swap1\n      pop\n        /* \"InterbankTransfer.sol\":4247:4271  Transaction memory newTx */\n      0x00\n        /* \"InterbankTransfer.sol\":4274:4599  Transaction({... */\n      mload(0x40)\n      dup1\n      0x0120\n      add\n      0x40\n      mstore\n      dup1\n        /* \"InterbankTransfer.sol\":4304:4308  txId */\n      dup4\n        /* \"InterbankTransfer.sol\":4274:4599  Transaction({... */\n      dup2\n      mstore\n      0x20\n      add\n        /* \"InterbankTransfer.sol\":4328:4338  msg.sender */\n      caller\n        /* \"InterbankTransfer.sol\":4274:4599  Transaction({... */\n      0xffffffffffffffffffffffffffffffffffffffff\n      and\n      dup2\n      mstore\n      0x20\n      add\n        /* \"InterbankTransfer.sol\":4356:4358  to */\n      dup9\n        /* \"InterbankTransfer.sol\":4274:4599  Transaction({... */\n      0xffffffffffffffffffffffffffffffffffffffff\n      and\n      dup2\n      mstore\n      0x20\n      add\n        /* \"InterbankTransfer.sol\":4380:4386  amount */\n      dup8\n        /* \"InterbankTransfer.sol\":4274:4599  Transaction({... */\n      dup2\n      mstore\n      0x20\n      add\n        /* \"InterbankTransfer.sol\":4410:4419  bankCodes */\n      0x01\n        /* \"InterbankTransfer.sol\":4410:4431  bankCodes[msg.sender] */\n      0x00\n        /* \"InterbankTransfer.sol\":4420:4430  msg.sender */\n      caller\n        /* \"InterbankTransfer.sol\":4410:4431  bankCodes[msg.sender] */\n      0xffffffffffffffffffffffffffffffffffffffff\n      and\n      0xffffffffffffffffffffffffffffffffffffffff\n      and\n      dup2\n      mstore\n      0x20\n      add\n      swap1\n      dup2\n      mstore\n      0x20\n      add\n      0x00\n      keccak256\n        /* \"InterbankTransfer.sol\":4274:4599  Transaction({... */\n      dup1\n      sload\n      tag_198\n      swap1\n      tag_105\n      jump\t// in\n    tag_198:\n      dup1\n      0x1f\n      add\n      0x20\n      dup1\n      swap2\n      div\n      mul\n      0x20\n      add\n      mload(0x40)\n      swap1\n      dup2\n      add\n      0x40\n      mstore\n      dup1\n      swap3\n      swap2\n      swap1\n      dup2\n      dup2\n      mstore\n      0x20\n      add\n      dup3\n      dup1\n      sload\n      tag_199\n      swap1\n      tag_105\n      jump\t// in\n    tag_199:\n      dup1\n      iszero\n      tag_200\n      jumpi\n      dup1\n      0x1f\n      lt\n      tag_201\n      jumpi\n      0x0100\n      dup1\n      dup4\n      sload\n      div\n      mul\n      dup4\n      mstore\n      swap2\n      0x20\n      add\n      swap2\n      jump(tag_200)\n    tag_201:\n      dup3\n      add\n      swap2\n      swap1\n      0x00\n      mstore\n      keccak256(0x00, 0x20)\n      swap1\n    tag_202:\n      dup2\n      sload\n      dup2\n      mstore\n      swap1\n      0x01\n      add\n      swap1\n      0x20\n      add\n      dup1\n      dup4\n      gt\n      tag_202\n      jumpi\n      dup3\n      swap1\n      sub\n      0x1f\n      and\n      dup3\n      add\n      swap2\n    tag_200:\n      pop\n      pop\n      pop\n      pop\n      pop\n      dup2\n      mstore\n      0x20\n      add\n        /* \"InterbankTransfer.sol\":4453:4463  toBankCode */\n      dup7\n        /* \"InterbankTransfer.sol\":4274:4599  Transaction({... */\n      dup2\n      mstore\n      0x20\n      add\n        /* \"InterbankTransfer.sol\":4490:4501  description */\n      dup6\n        /* \"InterbankTransfer.sol\":4274:4599  Transaction({... */\n      dup2\n      mstore\n      0x20\n      add\n        /* \"InterbankTransfer.sol\":4526:4541  block.timestamp */\n      timestamp\n        /* \"InterbankTransfer.sol\":4274:4599  Transaction({... */\n      dup2\n      mstore\n      0x20\n      add\n        /* \"InterbankTransfer.sol\":4563:4588  TransactionStatus.Pending */\n      0x00\n        /* \"InterbankTransfer.sol\":4274:4599  Transaction({... */\n      0x03\n      dup2\n      gt\n      iszero\n      tag_203\n      jumpi\n      tag_204\n      tag_122\n      jump\t// in\n    tag_204:\n    tag_203:\n      dup2\n      mstore\n      pop\n        /* \"InterbankTransfer.sol\":4247:4599  Transaction memory newTx = Transaction({... */\n      swap1\n      pop\n        /* \"InterbankTransfer.sol\":4618:4630  transactions */\n      0x02\n        /* \"InterbankTransfer.sol\":4636:4641  newTx */\n      dup2\n        /* \"InterbankTransfer.sol\":4618:4642  transactions.push(newTx) */\n      swap1\n      dup1\n      0x01\n      dup2\n      sload\n      add\n      dup1\n      dup3\n      sstore\n      dup1\n      swap2\n      pop\n      pop\n      0x01\n      swap1\n      sub\n      swap1\n      0x00\n      mstore\n      keccak256(0x00, 0x20)\n      swap1\n      0x09\n      mul\n      add\n      0x00\n      swap1\n      swap2\n      swap1\n      swap2\n      swap1\n      swap2\n      pop\n      0x00\n      dup3\n      add\n      mload\n      dup2\n      0x00\n      add\n      sstore\n      0x20\n      dup3\n      add\n      mload\n      dup2\n      0x01\n      add\n      exp(0x0100, 0x00)\n      dup2\n      sload\n      dup2\n      0xffffffffffffffffffffffffffffffffffffffff\n      mul\n      not\n      and\n      swap1\n      dup4\n      0xffffffffffffffffffffffffffffffffffffffff\n      and\n      mul\n      or\n      swap1\n      sstore\n      pop\n      0x40\n      dup3\n      add\n      mload\n      dup2\n      0x02\n      add\n      exp(0x0100, 0x00)\n      dup2\n      sload\n      dup2\n      0xffffffffffffffffffffffffffffffffffffffff\n      mul\n      not\n      and\n      swap1\n      dup4\n      0xffffffffffffffffffffffffffffffffffffffff\n      and\n      mul\n      or\n      swap1\n      sstore\n      pop\n      0x60\n      dup3\n      add\n      mload\n      dup2\n      0x03\n      add\n      sstore\n      0x80\n      dup3\n      add\n      mload\n      dup2\n      0x04\n      add\n      swap1\n      dup1\n      mload\n      swap1\n      0x20\n      add\n      swap1\n      tag_206\n      swap3\n      swap2\n      swap1\n      tag_162\n      jump\t// in\n    tag_206:\n      pop\n      0xa0\n      dup3\n      add\n      mload\n      dup2\n      0x05\n      add\n      swap1\n      dup1\n      mload\n      swap1\n      0x20\n      add\n      swap1\n      tag_207\n      swap3\n      swap2\n      swap1\n      tag_162\n      jump\t// in\n    tag_207:\n      pop\n      0xc0\n      dup3\n      add\n      mload\n      dup2\n      0x06\n      add\n      swap1\n      dup1\n      mload\n      swap1\n      0x20\n      add\n      swap1\n      tag_208\n      swap3\n      swap2\n      swap1\n      tag_162\n      jump\t// in\n    tag_208:\n      pop\n      0xe0\n      dup3\n      add\n      mload\n      dup2\n      0x07\n      add\n      sstore\n      0x0100\n      dup3\n      add\n      mload\n      dup2\n      0x08\n      add\n      exp(0x0100, 0x00)\n      dup2\n      sload\n      dup2\n      0xff\n      mul\n      not\n      and\n      swap1\n      dup4\n      0x03\n      dup2\n      gt\n      iszero\n      tag_209\n      jumpi\n      tag_210\n      tag_122\n      jump\t// in\n    tag_210:\n    tag_209:\n      mul\n      or\n      swap1\n      sstore\n      pop\n      pop\n      pop\n        /* \"InterbankTransfer.sol\":4699:4700  1 */\n      0x01\n        /* \"InterbankTransfer.sol\":4677:4689  transactions */\n      0x02\n        /* \"InterbankTransfer.sol\":4677:4696  transactions.length */\n      dup1\n      sload\n      swap1\n      pop\n        /* \"InterbankTransfer.sol\":4677:4700  transactions.length - 1 */\n      tag_211\n      swap2\n      swap1\n      tag_212\n      jump\t// in\n    tag_211:\n        /* \"InterbankTransfer.sol\":4652:4668  transactionIndex */\n      0x03\n        /* \"InterbankTransfer.sol\":4652:4674  transactionIndex[txId] */\n      0x00\n        /* \"InterbankTransfer.sol\":4669:4673  txId */\n      dup5\n        /* \"InterbankTransfer.sol\":4652:4674  transactionIndex[txId] */\n      dup2\n      mstore\n      0x20\n      add\n      swap1\n      dup2\n      mstore\n      0x20\n      add\n      0x00\n      keccak256\n        /* \"InterbankTransfer.sol\":4652:4700  transactionIndex[txId] = transactions.length - 1 */\n      dup2\n      swap1\n      sstore\n      pop\n        /* \"InterbankTransfer.sol\":4776:4782  amount */\n      dup6\n        /* \"InterbankTransfer.sol\":4752:4760  balances */\n      0x00\n        /* \"InterbankTransfer.sol\":4752:4772  balances[msg.sender] */\n      dup1\n        /* \"InterbankTransfer.sol\":4761:4771  msg.sender */\n      caller\n        /* \"InterbankTransfer.sol\":4752:4772  balances[msg.sender] */\n      0xffffffffffffffffffffffffffffffffffffffff\n      and\n      0xffffffffffffffffffffffffffffffffffffffff\n      and\n      dup2\n      mstore\n      0x20\n      add\n      swap1\n      dup2\n      mstore\n      0x20\n      add\n      0x00\n      keccak256\n      0x00\n        /* \"InterbankTransfer.sol\":4752:4782  balances[msg.sender] -= amount */\n      dup3\n      dup3\n      sload\n      tag_213\n      swap2\n      swap1\n      tag_212\n      jump\t// in\n    tag_213:\n      swap3\n      pop\n      pop\n      dup2\n      swap1\n      sstore\n      pop\n        /* \"InterbankTransfer.sol\":4808:4814  amount */\n      dup6\n        /* \"InterbankTransfer.sol\":4792:4800  balances */\n      0x00\n        /* \"InterbankTransfer.sol\":4792:4804  balances[to] */\n      dup1\n        /* \"InterbankTransfer.sol\":4801:4803  to */\n      dup10\n        /* \"InterbankTransfer.sol\":4792:4804  balances[to] */\n      0xffffffffffffffffffffffffffffffffffffffff\n      and\n      0xffffffffffffffffffffffffffffffffffffffff\n      and\n      dup2\n      mstore\n      0x20\n      add\n      swap1\n      dup2\n      mstore\n      0x20\n      add\n      0x00\n      keccak256\n      0x00\n        /* \"InterbankTransfer.sol\":4792:4814  balances[to] += amount */\n      dup3\n      dup3\n      sload\n      tag_214\n      swap2\n      swap1\n      tag_160\n      jump\t// in\n    tag_214:\n      swap3\n      pop\n      pop\n      dup2\n      swap1\n      sstore\n      pop\n        /* \"InterbankTransfer.sol\":4918:4945  TransactionStatus.Completed */\n      0x02\n        /* \"InterbankTransfer.sol\":4871:4883  transactions */\n      dup1\n        /* \"InterbankTransfer.sol\":4906:4907  1 */\n      0x01\n        /* \"InterbankTransfer.sol\":4884:4896  transactions */\n      0x02\n        /* \"InterbankTransfer.sol\":4884:4903  transactions.length */\n      dup1\n      sload\n      swap1\n      pop\n        /* \"InterbankTransfer.sol\":4884:4907  transactions.length - 1 */\n      tag_215\n      swap2\n      swap1\n      tag_212\n      jump\t// in\n    tag_215:\n        /* \"InterbankTransfer.sol\":4871:4908  transactions[transactions.length - 1] */\n      dup2\n      sload\n      dup2\n      lt\n      tag_216\n      jumpi\n      tag_217\n      tag_102\n      jump\t// in\n    tag_217:\n    tag_216:\n      swap1\n      0x00\n      mstore\n      keccak256(0x00, 0x20)\n      swap1\n      0x09\n      mul\n      add\n        /* \"InterbankTransfer.sol\":4871:4915  transactions[transactions.length - 1].status */\n      0x08\n      add\n      0x00\n        /* \"InterbankTransfer.sol\":4871:4945  transactions[transactions.length - 1].status = TransactionStatus.Completed */\n      0x0100\n      exp\n      dup2\n      sload\n      dup2\n      0xff\n      mul\n      not\n      and\n      swap1\n      dup4\n      0x03\n      dup2\n      gt\n      iszero\n      tag_219\n      jumpi\n      tag_220\n      tag_122\n      jump\t// in\n    tag_220:\n    tag_219:\n      mul\n      or\n      swap1\n      sstore\n      pop\n        /* \"InterbankTransfer.sol\":5057:5059  to */\n      dup7\n        /* \"InterbankTransfer.sol\":4993:5202  Transfer(... */\n      0xffffffffffffffffffffffffffffffffffffffff\n      and\n        /* \"InterbankTransfer.sol\":5033:5043  msg.sender */\n      caller\n        /* \"InterbankTransfer.sol\":4993:5202  Transfer(... */\n      0xffffffffffffffffffffffffffffffffffffffff\n      and\n        /* \"InterbankTransfer.sol\":5015:5019  txId */\n      dup4\n        /* \"InterbankTransfer.sol\":4993:5202  Transfer(... */\n      0x82e8134a6a3a6586eab71827e213b1a1f6c8b261024adbecf466eeb0240bb916\n        /* \"InterbankTransfer.sol\":5073:5079  amount */\n      dup10\n        /* \"InterbankTransfer.sol\":5093:5102  bankCodes */\n      0x01\n        /* \"InterbankTransfer.sol\":5093:5114  bankCodes[msg.sender] */\n      0x00\n        /* \"InterbankTransfer.sol\":5103:5113  msg.sender */\n      caller\n        /* \"InterbankTransfer.sol\":5093:5114  bankCodes[msg.sender] */\n      0xffffffffffffffffffffffffffffffffffffffff\n      and\n      0xffffffffffffffffffffffffffffffffffffffff\n      and\n      dup2\n      mstore\n      0x20\n      add\n      swap1\n      dup2\n      mstore\n      0x20\n      add\n      0x00\n      keccak256\n        /* \"InterbankTransfer.sol\":5128:5138  toBankCode */\n      dup11\n        /* \"InterbankTransfer.sol\":5152:5163  description */\n      dup11\n        /* \"InterbankTransfer.sol\":5177:5192  block.timestamp */\n      timestamp\n        /* \"InterbankTransfer.sol\":4993:5202  Transfer(... */\n      mload(0x40)\n      tag_221\n      swap6\n      swap5\n      swap4\n      swap3\n      swap2\n      swap1\n      tag_222\n      jump\t// in\n    tag_221:\n      mload(0x40)\n      dup1\n      swap2\n      sub\n      swap1\n      log4\n        /* \"InterbankTransfer.sol\":5242:5246  txId */\n      dup2\n        /* \"InterbankTransfer.sol\":5217:5276  TransactionStatusChanged(txId, TransactionStatus.Completed) */\n      0x3013893708bd175bc8eeedd6ea1e367024bbc9bc7b110e7ed37bc77aceac57\n        /* \"InterbankTransfer.sol\":5248:5275  TransactionStatus.Completed */\n      0x02\n        /* \"InterbankTransfer.sol\":5217:5276  TransactionStatusChanged(txId, TransactionStatus.Completed) */\n      mload(0x40)\n      tag_223\n      swap2\n      swap1\n      tag_180\n      jump\t// in\n    tag_223:\n      mload(0x40)\n      dup1\n      swap2\n      sub\n      swap1\n      log2\n        /* \"InterbankTransfer.sol\":5306:5316  msg.sender */\n      caller\n        /* \"InterbankTransfer.sol\":5291:5339  BalanceUpdated(msg.sender, balances[msg.sender]) */\n      0xffffffffffffffffffffffffffffffffffffffff\n      and\n      0x8ad64a0ac7700dd8425ab0499f107cb6e2cd1581d803c5b8c1c79dcb8190b1af\n        /* \"InterbankTransfer.sol\":5318:5326  balances */\n      0x00\n        /* \"InterbankTransfer.sol\":5318:5338  balances[msg.sender] */\n      dup1\n        /* \"InterbankTransfer.sol\":5327:5337  msg.sender */\n      caller\n        /* \"InterbankTransfer.sol\":5318:5338  balances[msg.sender] */\n      0xffffffffffffffffffffffffffffffffffffffff\n      and\n      0xffffffffffffffffffffffffffffffffffffffff\n      and\n      dup2\n      mstore\n      0x20\n      add\n      swap1\n      dup2\n      mstore\n      0x20\n      add\n      0x00\n      keccak256\n      sload\n        /* \"InterbankTransfer.sol\":5291:5339  BalanceUpdated(msg.sender, balances[msg.sender]) */\n      mload(0x40)\n      tag_224\n      swap2\n      swap1\n      tag_25\n      jump\t// in\n    tag_224:\n      mload(0x40)\n      dup1\n      swap2\n      sub\n      swap1\n      log2\n        /* \"InterbankTransfer.sol\":5369:5371  to */\n      dup7\n        /* \"InterbankTransfer.sol\":5354:5386  BalanceUpdated(to, balances[to]) */\n      0xffffffffffffffffffffffffffffffffffffffff\n      and\n      0x8ad64a0ac7700dd8425ab0499f107cb6e2cd1581d803c5b8c1c79dcb8190b1af\n        /* \"InterbankTransfer.sol\":5373:5381  balances */\n      0x00\n        /* \"InterbankTransfer.sol\":5373:5385  balances[to] */\n      dup1\n        /* \"InterbankTransfer.sol\":5382:5384  to */\n      dup11\n        /* \"InterbankTransfer.sol\":5373:5385  balances[to] */\n      0xffffffffffffffffffffffffffffffffffffffff\n      and\n      0xffffffffffffffffffffffffffffffffffffffff\n      and\n      dup2\n      mstore\n      0x20\n      add\n      swap1\n      dup2\n      mstore\n      0x20\n      add\n      0x00\n      keccak256\n      sload\n        /* \"InterbankTransfer.sol\":5354:5386  BalanceUpdated(to, balances[to]) */\n      mload(0x40)\n      tag_225\n      swap2\n      swap1\n      tag_25\n      jump\t// in\n    tag_225:\n      mload(0x40)\n      dup1\n      swap2\n      sub\n      swap1\n      log2\n        /* \"InterbankTransfer.sol\":5412:5416  txId */\n      dup2\n        /* \"InterbankTransfer.sol\":5405:5416  return txId */\n      swap3\n      pop\n      pop\n      pop\n        /* \"InterbankTransfer.sol\":3716:5423  function transfer(... */\n      swap5\n      swap4\n      pop\n      pop\n      pop\n      pop\n      jump\t// out\n        /* \"InterbankTransfer.sol\":6672:7550  function getUserTransactions(address user)... */\n    tag_81:\n        /* \"InterbankTransfer.sol\":6760:6776  uint256[] memory */\n      0x60\n        /* \"InterbankTransfer.sol\":6792:6805  uint256 count */\n      0x00\n        /* \"InterbankTransfer.sol\":6868:6877  uint256 i */\n      dup1\n        /* \"InterbankTransfer.sol\":6863:7087  for (uint256 i = 0; i < transactions.length; i++) {... */\n    tag_227:\n        /* \"InterbankTransfer.sol\":6887:6899  transactions */\n      0x02\n        /* \"InterbankTransfer.sol\":6887:6906  transactions.length */\n      dup1\n      sload\n      swap1\n      pop\n        /* \"InterbankTransfer.sol\":6883:6884  i */\n      dup2\n        /* \"InterbankTransfer.sol\":6883:6906  i < transactions.length */\n      lt\n        /* \"InterbankTransfer.sol\":6863:7087  for (uint256 i = 0; i < transactions.length; i++) {... */\n      iszero\n      tag_228\n      jumpi\n        /* \"InterbankTransfer.sol\":6972:6976  user */\n      dup4\n        /* \"InterbankTransfer.sol\":6948:6976  transactions[i].from == user */\n      0xffffffffffffffffffffffffffffffffffffffff\n      and\n        /* \"InterbankTransfer.sol\":6948:6960  transactions */\n      0x02\n        /* \"InterbankTransfer.sol\":6961:6962  i */\n      dup3\n        /* \"InterbankTransfer.sol\":6948:6963  transactions[i] */\n      dup2\n      sload\n      dup2\n      lt\n      tag_230\n      jumpi\n      tag_231\n      tag_102\n      jump\t// in\n    tag_231:\n    tag_230:\n      swap1\n      0x00\n      mstore\n      keccak256(0x00, 0x20)\n      swap1\n      0x09\n      mul\n      add\n        /* \"InterbankTransfer.sol\":6948:6968  transactions[i].from */\n      0x01\n      add\n      0x00\n      swap1\n      sload\n      swap1\n      0x0100\n      exp\n      swap1\n      div\n      0xffffffffffffffffffffffffffffffffffffffff\n      and\n        /* \"InterbankTransfer.sol\":6948:6976  transactions[i].from == user */\n      0xffffffffffffffffffffffffffffffffffffffff\n      and\n      eq\n        /* \"InterbankTransfer.sol\":6948:7022  transactions[i].from == user ||... */\n      dup1\n      tag_233\n      jumpi\n      pop\n        /* \"InterbankTransfer.sol\":7018:7022  user */\n      dup4\n        /* \"InterbankTransfer.sol\":6996:7022  transactions[i].to == user */\n      0xffffffffffffffffffffffffffffffffffffffff\n      and\n        /* \"InterbankTransfer.sol\":6996:7008  transactions */\n      0x02\n        /* \"InterbankTransfer.sol\":7009:7010  i */\n      dup3\n        /* \"InterbankTransfer.sol\":6996:7011  transactions[i] */\n      dup2\n      sload\n      dup2\n      lt\n      tag_234\n      jumpi\n      tag_235\n      tag_102\n      jump\t// in\n    tag_235:\n    tag_234:\n      swap1\n      0x00\n      mstore\n      keccak256(0x00, 0x20)\n      swap1\n      0x09\n      mul\n      add\n        /* \"InterbankTransfer.sol\":6996:7014  transactions[i].to */\n      0x02\n      add\n      0x00\n      swap1\n      sload\n      swap1\n      0x0100\n      exp\n      swap1\n      div\n      0xffffffffffffffffffffffffffffffffffffffff\n      and\n        /* \"InterbankTransfer.sol\":6996:7022  transactions[i].to == user */\n      0xffffffffffffffffffffffffffffffffffffffff\n      and\n      eq\n        /* \"InterbankTransfer.sol\":6948:7022  transactions[i].from == user ||... */\n    tag_233:\n        /* \"InterbankTransfer.sol\":6927:7077  if (... */\n      iszero\n      tag_237\n      jumpi\n        /* \"InterbankTransfer.sol\":7055:7062  count++ */\n      dup2\n      dup1\n      tag_238\n      swap1\n      tag_197\n      jump\t// in\n    tag_238:\n      swap3\n      pop\n      pop\n        /* \"InterbankTransfer.sol\":6927:7077  if (... */\n    tag_237:\n        /* \"InterbankTransfer.sol\":6908:6911  i++ */\n      dup1\n      dup1\n      tag_239\n      swap1\n      tag_197\n      jump\t// in\n    tag_239:\n      swap2\n      pop\n      pop\n        /* \"InterbankTransfer.sol\":6863:7087  for (uint256 i = 0; i < transactions.length; i++) {... */\n      jump(tag_227)\n    tag_228:\n      pop\n        /* \"InterbankTransfer.sol\":7141:7165  uint256[] memory userTxs */\n      0x00\n        /* \"InterbankTransfer.sol\":7182:7187  count */\n      dup2\n        /* \"InterbankTransfer.sol\":7168:7188  new uint256[](count) */\n      0xffffffffffffffff\n      dup2\n      gt\n      iszero\n      tag_240\n      jumpi\n      tag_241\n      tag_242\n      jump\t// in\n    tag_241:\n    tag_240:\n      mload(0x40)\n      swap1\n      dup1\n      dup3\n      mstore\n      dup1\n      0x20\n      mul\n      0x20\n      add\n      dup3\n      add\n      0x40\n      mstore\n      dup1\n      iszero\n      tag_243\n      jumpi\n      dup2\n      0x20\n      add\n      0x20\n      dup3\n      mul\n      dup1\n      calldatasize\n      dup4\n      calldatacopy\n      dup1\n      dup3\n      add\n      swap2\n      pop\n      pop\n      swap1\n      pop\n    tag_243:\n      pop\n        /* \"InterbankTransfer.sol\":7141:7188  uint256[] memory userTxs = new uint256[](count) */\n      swap1\n      pop\n        /* \"InterbankTransfer.sol\":7198:7211  uint256 index */\n      0x00\n        /* \"InterbankTransfer.sol\":7239:7248  uint256 i */\n      dup1\n        /* \"InterbankTransfer.sol\":7234:7511  for (uint256 i = 0; i < transactions.length; i++) {... */\n    tag_244:\n        /* \"InterbankTransfer.sol\":7258:7270  transactions */\n      0x02\n        /* \"InterbankTransfer.sol\":7258:7277  transactions.length */\n      dup1\n      sload\n      swap1\n      pop\n        /* \"InterbankTransfer.sol\":7254:7255  i */\n      dup2\n        /* \"InterbankTransfer.sol\":7254:7277  i < transactions.length */\n      lt\n        /* \"InterbankTransfer.sol\":7234:7511  for (uint256 i = 0; i < transactions.length; i++) {... */\n      iszero\n      tag_245\n      jumpi\n        /* \"InterbankTransfer.sol\":7343:7347  user */\n      dup6\n        /* \"InterbankTransfer.sol\":7319:7347  transactions[i].from == user */\n      0xffffffffffffffffffffffffffffffffffffffff\n      and\n        /* \"InterbankTransfer.sol\":7319:7331  transactions */\n      0x02\n        /* \"InterbankTransfer.sol\":7332:7333  i */\n      dup3\n        /* \"InterbankTransfer.sol\":7319:7334  transactions[i] */\n      dup2\n      sload\n      dup2\n      lt\n      tag_247\n      jumpi\n      tag_248\n      tag_102\n      jump\t// in\n    tag_248:\n    tag_247:\n      swap1\n      0x00\n      mstore\n      keccak256(0x00, 0x20)\n      swap1\n      0x09\n      mul\n      add\n        /* \"InterbankTransfer.sol\":7319:7339  transactions[i].from */\n      0x01\n      add\n      0x00\n      swap1\n      sload\n      swap1\n      0x0100\n      exp\n      swap1\n      div\n      0xffffffffffffffffffffffffffffffffffffffff\n      and\n        /* \"InterbankTransfer.sol\":7319:7347  transactions[i].from == user */\n      0xffffffffffffffffffffffffffffffffffffffff\n      and\n      eq\n        /* \"InterbankTransfer.sol\":7319:7393  transactions[i].from == user ||... */\n      dup1\n      tag_250\n      jumpi\n      pop\n        /* \"InterbankTransfer.sol\":7389:7393  user */\n      dup6\n        /* \"InterbankTransfer.sol\":7367:7393  transactions[i].to == user */\n      0xffffffffffffffffffffffffffffffffffffffff\n      and\n        /* \"InterbankTransfer.sol\":7367:7379  transactions */\n      0x02\n        /* \"InterbankTransfer.sol\":7380:7381  i */\n      dup3\n        /* \"InterbankTransfer.sol\":7367:7382  transactions[i] */\n      dup2\n      sload\n      dup2\n      lt\n      tag_251\n      jumpi\n      tag_252\n      tag_102\n      jump\t// in\n    tag_252:\n    tag_251:\n      swap1\n      0x00\n      mstore\n      keccak256(0x00, 0x20)\n      swap1\n      0x09\n      mul\n      add\n        /* \"InterbankTransfer.sol\":7367:7385  transactions[i].to */\n      0x02\n      add\n      0x00\n      swap1\n      sload\n      swap1\n      0x0100\n      exp\n      swap1\n      div\n      0xffffffffffffffffffffffffffffffffffffffff\n      and\n        /* \"InterbankTransfer.sol\":7367:7393  transactions[i].to == user */\n      0xffffffffffffffffffffffffffffffffffffffff\n      and\n      eq\n        /* \"InterbankTransfer.sol\":7319:7393  transactions[i].from == user ||... */\n    tag_250:\n        /* \"InterbankTransfer.sol\":7298:7501  if (... */\n      iszero\n      tag_254\n      jumpi\n        /* \"InterbankTransfer.sol\":7443:7455  transactions */\n      0x02\n        /* \"InterbankTransfer.sol\":7456:7457  i */\n      dup2\n        /* \"InterbankTransfer.sol\":7443:7458  transactions[i] */\n      dup2\n      sload\n      dup2\n      lt\n      tag_255\n      jumpi\n      tag_256\n      tag_102\n      jump\t// in\n    tag_256:\n    tag_255:\n      swap1\n      0x00\n      mstore\n      keccak256(0x00, 0x20)\n      swap1\n      0x09\n      mul\n      add\n        /* \"InterbankTransfer.sol\":7443:7461  transactions[i].id */\n      0x00\n      add\n      sload\n        /* \"InterbankTransfer.sol\":7426:7433  userTxs */\n      dup4\n        /* \"InterbankTransfer.sol\":7434:7439  index */\n      dup4\n        /* \"InterbankTransfer.sol\":7426:7440  userTxs[index] */\n      dup2\n      mload\n      dup2\n      lt\n      tag_258\n      jumpi\n      tag_259\n      tag_102\n      jump\t// in\n    tag_259:\n    tag_258:\n      0x20\n      mul\n      0x20\n      add\n      add\n        /* \"InterbankTransfer.sol\":7426:7461  userTxs[index] = transactions[i].id */\n      dup2\n      dup2\n      mstore\n      pop\n      pop\n        /* \"InterbankTransfer.sol\":7479:7486  index++ */\n      dup2\n      dup1\n      tag_260\n      swap1\n      tag_197\n      jump\t// in\n    tag_260:\n      swap3\n      pop\n      pop\n        /* \"InterbankTransfer.sol\":7298:7501  if (... */\n    tag_254:\n        /* \"InterbankTransfer.sol\":7279:7282  i++ */\n      dup1\n      dup1\n      tag_261\n      swap1\n      tag_197\n      jump\t// in\n    tag_261:\n      swap2\n      pop\n      pop\n        /* \"InterbankTransfer.sol\":7234:7511  for (uint256 i = 0; i < transactions.length; i++) {... */\n      jump(tag_244)\n    tag_245:\n      pop\n        /* \"InterbankTransfer.sol\":7536:7543  userTxs */\n      dup2\n        /* \"InterbankTransfer.sol\":7529:7543  return userTxs */\n      swap4\n      pop\n      pop\n      pop\n      pop\n        /* \"InterbankTransfer.sol\":6672:7550  function getUserTransactions(address user)... */\n      swap2\n      swap1\n      pop\n      jump\t// out\n        /* \"InterbankTransfer.sol\":3306:3408  function getBalance(address user) public view returns (uint256) {... */\n    tag_87:\n        /* \"InterbankTransfer.sol\":3361:3368  uint256 */\n      0x00\n        /* \"InterbankTransfer.sol\":3387:3395  balances */\n      dup1\n        /* \"InterbankTransfer.sol\":3387:3401  balances[user] */\n      0x00\n        /* \"InterbankTransfer.sol\":3396:3400  user */\n      dup4\n        /* \"InterbankTransfer.sol\":3387:3401  balances[user] */\n      0xffffffffffffffffffffffffffffffffffffffff\n      and\n      0xffffffffffffffffffffffffffffffffffffffff\n      and\n      dup2\n      mstore\n      0x20\n      add\n      swap1\n      dup2\n      mstore\n      0x20\n      add\n      0x00\n      keccak256\n      sload\n        /* \"InterbankTransfer.sol\":3380:3401  return balances[user] */\n      swap1\n      pop\n        /* \"InterbankTransfer.sol\":3306:3408  function getBalance(address user) public view returns (uint256) {... */\n      swap2\n      swap1\n      pop\n      jump\t// out\n        /* \"InterbankTransfer.sol\":1205:1256  mapping(uint256 => uint256) public transactionIndex */\n    tag_92:\n      mstore(0x20, 0x03)\n      dup1\n      0x00\n      mstore\n      keccak256(0x00, 0x40)\n      0x00\n      swap2\n      pop\n      swap1\n      pop\n      sload\n      dup2\n      jump\t// out\n    tag_162:\n      dup3\n      dup1\n      sload\n      tag_263\n      swap1\n      tag_105\n      jump\t// in\n    tag_263:\n      swap1\n      0x00\n      mstore\n      keccak256(0x00, 0x20)\n      swap1\n      0x1f\n      add\n      0x20\n      swap1\n      div\n      dup2\n      add\n      swap3\n      dup3\n      tag_265\n      jumpi\n      0x00\n      dup6\n      sstore\n      jump(tag_264)\n    tag_265:\n      dup3\n      0x1f\n      lt\n      tag_266\n      jumpi\n      dup1\n      mload\n      not(0xff)\n      and\n      dup4\n      dup1\n      add\n      or\n      dup6\n      sstore\n      jump(tag_264)\n    tag_266:\n      dup3\n      dup1\n      add\n      0x01\n      add\n      dup6\n      sstore\n      dup3\n      iszero\n      tag_264\n      jumpi\n      swap2\n      dup3\n      add\n    tag_267:\n      dup3\n      dup2\n      gt\n      iszero\n      tag_268\n      jumpi\n      dup3\n      mload\n      dup3\n      sstore\n      swap2\n      0x20\n      add\n      swap2\n      swap1\n      0x01\n      add\n      swap1\n      jump(tag_267)\n    tag_268:\n    tag_264:\n      pop\n      swap1\n      pop\n      tag_269\n      swap2\n      swap1\n      tag_270\n      jump\t// in\n    tag_269:\n      pop\n      swap1\n      jump\t// out\n    tag_270:\n    tag_271:\n      dup1\n      dup3\n      gt\n      iszero\n      tag_272\n      jumpi\n      0x00\n      dup2\n      0x00\n      swap1\n      sstore\n      pop\n      0x01\n      add\n      jump(tag_271)\n    tag_272:\n      pop\n      swap1\n      jump\t// out\n        /* \"#utility.yul\":7:82   */\n    tag_273:\n        /* \"#utility.yul\":40:46   */\n      0x00\n        /* \"#utility.yul\":73:75   */\n      0x40\n        /* \"#utility.yul\":67:76   */\n      mload\n        /* \"#utility.yul\":57:76   */\n      swap1\n      pop\n        /* \"#utility.yul\":7:82   */\n      swap1\n      jump\t// out\n        /* \"#utility.yul\":88:205   */\n    tag_274:\n        /* \"#utility.yul\":197:198   */\n      0x00\n        /* \"#utility.yul\":194:195   */\n      dup1\n        /* \"#utility.yul\":187:199   */\n      revert\n        /* \"#utility.yul\":211:328   */\n    tag_275:\n        /* \"#utility.yul\":320:321   */\n      0x00\n        /* \"#utility.yul\":317:318   */\n      dup1\n        /* \"#utility.yul\":310:322   */\n      revert\n        /* \"#utility.yul\":334:460   */\n    tag_276:\n        /* \"#utility.yul\":371:378   */\n      0x00\n        /* \"#utility.yul\":411:453   */\n      0xffffffffffffffffffffffffffffffffffffffff\n        /* \"#utility.yul\":404:409   */\n      dup3\n        /* \"#utility.yul\":400:454   */\n      and\n        /* \"#utility.yul\":389:454   */\n      swap1\n      pop\n        /* \"#utility.yul\":334:460   */\n      swap2\n      swap1\n      pop\n      jump\t// out\n        /* \"#utility.yul\":466:562   */\n    tag_277:\n        /* \"#utility.yul\":503:510   */\n      0x00\n        /* \"#utility.yul\":532:556   */\n      tag_337\n        /* \"#utility.yul\":550:555   */\n      dup3\n        /* \"#utility.yul\":532:556   */\n      tag_276\n      jump\t// in\n    tag_337:\n        /* \"#utility.yul\":521:556   */\n      swap1\n      pop\n        /* \"#utility.yul\":466:562   */\n      swap2\n      swap1\n      pop\n      jump\t// out\n        /* \"#utility.yul\":568:690   */\n    tag_278:\n        /* \"#utility.yul\":641:665   */\n      tag_339\n        /* \"#utility.yul\":659:664   */\n      dup2\n        /* \"#utility.yul\":641:665   */\n      tag_277\n      jump\t// in\n    tag_339:\n        /* \"#utility.yul\":634:639   */\n      dup2\n        /* \"#utility.yul\":631:666   */\n      eq\n        /* \"#utility.yul\":621:684   */\n      tag_340\n      jumpi\n        /* \"#utility.yul\":680:681   */\n      0x00\n        /* \"#utility.yul\":677:678   */\n      dup1\n        /* \"#utility.yul\":670:682   */\n      revert\n        /* \"#utility.yul\":621:684   */\n    tag_340:\n        /* \"#utility.yul\":568:690   */\n      pop\n      jump\t// out\n        /* \"#utility.yul\":696:835   */\n    tag_279:\n        /* \"#utility.yul\":742:747   */\n      0x00\n        /* \"#utility.yul\":780:786   */\n      dup2\n        /* \"#utility.yul\":767:787   */\n      calldataload\n        /* \"#utility.yul\":758:787   */\n      swap1\n      pop\n        /* \"#utility.yul\":796:829   */\n      tag_342\n        /* \"#utility.yul\":823:828   */\n      dup2\n        /* \"#utility.yul\":796:829   */\n      tag_278\n      jump\t// in\n    tag_342:\n        /* \"#utility.yul\":696:835   */\n      swap3\n      swap2\n      pop\n      pop\n      jump\t// out\n        /* \"#utility.yul\":841:1170   */\n    tag_22:\n        /* \"#utility.yul\":900:906   */\n      0x00\n        /* \"#utility.yul\":949:951   */\n      0x20\n        /* \"#utility.yul\":937:946   */\n      dup3\n        /* \"#utility.yul\":928:935   */\n      dup5\n        /* \"#utility.yul\":924:947   */\n      sub\n        /* \"#utility.yul\":920:952   */\n      slt\n        /* \"#utility.yul\":917:1036   */\n      iszero\n      tag_344\n      jumpi\n        /* \"#utility.yul\":955:1034   */\n      tag_345\n      tag_274\n      jump\t// in\n    tag_345:\n        /* \"#utility.yul\":917:1036   */\n    tag_344:\n        /* \"#utility.yul\":1075:1076   */\n      0x00\n        /* \"#utility.yul\":1100:1153   */\n      tag_346\n        /* \"#utility.yul\":1145:1152   */\n      dup5\n        /* \"#utility.yul\":1136:1142   */\n      dup3\n        /* \"#utility.yul\":1125:1134   */\n      dup6\n        /* \"#utility.yul\":1121:1143   */\n      add\n        /* \"#utility.yul\":1100:1153   */\n      tag_279\n      jump\t// in\n    tag_346:\n        /* \"#utility.yul\":1090:1153   */\n      swap2\n      pop\n        /* \"#utility.yul\":1046:1163   */\n      pop\n        /* \"#utility.yul\":841:1170   */\n      swap3\n      swap2\n      pop\n      pop\n      jump\t// out\n        /* \"#utility.yul\":1176:1253   */\n    tag_280:\n        /* \"#utility.yul\":1213:1220   */\n      0x00\n        /* \"#utility.yul\":1242:1247   */\n      dup2\n        /* \"#utility.yul\":1231:1247   */\n      swap1\n      pop\n        /* \"#utility.yul\":1176:1253   */\n      swap2\n      swap1\n      pop\n      jump\t// out\n        /* \"#utility.yul\":1259:1377   */\n    tag_281:\n        /* \"#utility.yul\":1346:1370   */\n      tag_349\n        /* \"#utility.yul\":1364:1369   */\n      dup2\n        /* \"#utility.yul\":1346:1370   */\n      tag_280\n      jump\t// in\n    tag_349:\n        /* \"#utility.yul\":1341:1344   */\n      dup3\n        /* \"#utility.yul\":1334:1371   */\n      mstore\n        /* \"#utility.yul\":1259:1377   */\n      pop\n      pop\n      jump\t// out\n        /* \"#utility.yul\":1383:1605   */\n    tag_25:\n        /* \"#utility.yul\":1476:1480   */\n      0x00\n        /* \"#utility.yul\":1514:1516   */\n      0x20\n        /* \"#utility.yul\":1503:1512   */\n      dup3\n        /* \"#utility.yul\":1499:1517   */\n      add\n        /* \"#utility.yul\":1491:1517   */\n      swap1\n      pop\n        /* \"#utility.yul\":1527:1598   */\n      tag_351\n        /* \"#utility.yul\":1595:1596   */\n      0x00\n        /* \"#utility.yul\":1584:1593   */\n      dup4\n        /* \"#utility.yul\":1580:1597   */\n      add\n        /* \"#utility.yul\":1571:1577   */\n      dup5\n        /* \"#utility.yul\":1527:1598   */\n      tag_281\n      jump\t// in\n    tag_351:\n        /* \"#utility.yul\":1383:1605   */\n      swap3\n      swap2\n      pop\n      pop\n      jump\t// out\n        /* \"#utility.yul\":1611:1733   */\n    tag_282:\n        /* \"#utility.yul\":1684:1708   */\n      tag_353\n        /* \"#utility.yul\":1702:1707   */\n      dup2\n        /* \"#utility.yul\":1684:1708   */\n      tag_280\n      jump\t// in\n    tag_353:\n        /* \"#utility.yul\":1677:1682   */\n      dup2\n        /* \"#utility.yul\":1674:1709   */\n      eq\n        /* \"#utility.yul\":1664:1727   */\n      tag_354\n      jumpi\n        /* \"#utility.yul\":1723:1724   */\n      0x00\n        /* \"#utility.yul\":1720:1721   */\n      dup1\n        /* \"#utility.yul\":1713:1725   */\n      revert\n        /* \"#utility.yul\":1664:1727   */\n    tag_354:\n        /* \"#utility.yul\":1611:1733   */\n      pop\n      jump\t// out\n        /* \"#utility.yul\":1739:1878   */\n    tag_283:\n        /* \"#utility.yul\":1785:1790   */\n      0x00\n        /* \"#utility.yul\":1823:1829   */\n      dup2\n        /* \"#utility.yul\":1810:1830   */\n      calldataload\n        /* \"#utility.yul\":1801:1830   */\n      swap1\n      pop\n        /* \"#utility.yul\":1839:1872   */\n      tag_356\n        /* \"#utility.yul\":1866:1871   */\n      dup2\n        /* \"#utility.yul\":1839:1872   */\n      tag_282\n      jump\t// in\n    tag_356:\n        /* \"#utility.yul\":1739:1878   */\n      swap3\n      swap2\n      pop\n      pop\n      jump\t// out\n        /* \"#utility.yul\":1884:2213   */\n    tag_33:\n        /* \"#utility.yul\":1943:1949   */\n      0x00\n        /* \"#utility.yul\":1992:1994   */\n      0x20\n        /* \"#utility.yul\":1980:1989   */\n      dup3\n        /* \"#utility.yul\":1971:1978   */\n      dup5\n        /* \"#utility.yul\":1967:1990   */\n      sub\n        /* \"#utility.yul\":1963:1995   */\n      slt\n        /* \"#utility.yul\":1960:2079   */\n      iszero\n      tag_358\n      jumpi\n        /* \"#utility.yul\":1998:2077   */\n      tag_359\n      tag_274\n      jump\t// in\n    tag_359:\n        /* \"#utility.yul\":1960:2079   */\n    tag_358:\n        /* \"#utility.yul\":2118:2119   */\n      0x00\n        /* \"#utility.yul\":2143:2196   */\n      tag_360\n        /* \"#utility.yul\":2188:2195   */\n      dup5\n        /* \"#utility.yul\":2179:2185   */\n      dup3\n        /* \"#utility.yul\":2168:2177   */\n      dup6\n        /* \"#utility.yul\":2164:2186   */\n      add\n        /* \"#utility.yul\":2143:2196   */\n      tag_283\n      jump\t// in\n    tag_360:\n        /* \"#utility.yul\":2133:2196   */\n      swap2\n      pop\n        /* \"#utility.yul\":2089:2206   */\n      pop\n        /* \"#utility.yul\":1884:2213   */\n      swap3\n      swap2\n      pop\n      pop\n      jump\t// out\n        /* \"#utility.yul\":2219:2337   */\n    tag_284:\n        /* \"#utility.yul\":2306:2330   */\n      tag_362\n        /* \"#utility.yul\":2324:2329   */\n      dup2\n        /* \"#utility.yul\":2306:2330   */\n      tag_277\n      jump\t// in\n    tag_362:\n        /* \"#utility.yul\":2301:2304   */\n      dup3\n        /* \"#utility.yul\":2294:2331   */\n      mstore\n        /* \"#utility.yul\":2219:2337   */\n      pop\n      pop\n      jump\t// out\n        /* \"#utility.yul\":2343:2442   */\n    tag_285:\n        /* \"#utility.yul\":2395:2401   */\n      0x00\n        /* \"#utility.yul\":2429:2434   */\n      dup2\n        /* \"#utility.yul\":2423:2435   */\n      mload\n        /* \"#utility.yul\":2413:2435   */\n      swap1\n      pop\n        /* \"#utility.yul\":2343:2442   */\n      swap2\n      swap1\n      pop\n      jump\t// out\n        /* \"#utility.yul\":2448:2617   */\n    tag_286:\n        /* \"#utility.yul\":2532:2543   */\n      0x00\n        /* \"#utility.yul\":2566:2572   */\n      dup3\n        /* \"#utility.yul\":2561:2564   */\n      dup3\n        /* \"#utility.yul\":2554:2573   */\n      mstore\n        /* \"#utility.yul\":2606:2610   */\n      0x20\n        /* \"#utility.yul\":2601:2604   */\n      dup3\n        /* \"#utility.yul\":2597:2611   */\n      add\n        /* \"#utility.yul\":2582:2611   */\n      swap1\n      pop\n        /* \"#utility.yul\":2448:2617   */\n      swap3\n      swap2\n      pop\n      pop\n      jump\t// out\n        /* \"#utility.yul\":2623:2930   */\n    tag_287:\n        /* \"#utility.yul\":2691:2692   */\n      0x00\n        /* \"#utility.yul\":2701:2814   */\n    tag_366:\n        /* \"#utility.yul\":2715:2721   */\n      dup4\n        /* \"#utility.yul\":2712:2713   */\n      dup2\n        /* \"#utility.yul\":2709:2722   */\n      lt\n        /* \"#utility.yul\":2701:2814   */\n      iszero\n      tag_368\n      jumpi\n        /* \"#utility.yul\":2800:2801   */\n      dup1\n        /* \"#utility.yul\":2795:2798   */\n      dup3\n        /* \"#utility.yul\":2791:2802   */\n      add\n        /* \"#utility.yul\":2785:2803   */\n      mload\n        /* \"#utility.yul\":2781:2782   */\n      dup2\n        /* \"#utility.yul\":2776:2779   */\n      dup5\n        /* \"#utility.yul\":2772:2783   */\n      add\n        /* \"#utility.yul\":2765:2804   */\n      mstore\n        /* \"#utility.yul\":2737:2739   */\n      0x20\n        /* \"#utility.yul\":2734:2735   */\n      dup2\n        /* \"#utility.yul\":2730:2740   */\n      add\n        /* \"#utility.yul\":2725:2740   */\n      swap1\n      pop\n        /* \"#utility.yul\":2701:2814   */\n      jump(tag_366)\n    tag_368:\n        /* \"#utility.yul\":2832:2838   */\n      dup4\n        /* \"#utility.yul\":2829:2830   */\n      dup2\n        /* \"#utility.yul\":2826:2839   */\n      gt\n        /* \"#utility.yul\":2823:2924   */\n      iszero\n      tag_369\n      jumpi\n        /* \"#utility.yul\":2912:2913   */\n      0x00\n        /* \"#utility.yul\":2903:2909   */\n      dup5\n        /* \"#utility.yul\":2898:2901   */\n      dup5\n        /* \"#utility.yul\":2894:2910   */\n      add\n        /* \"#utility.yul\":2887:2914   */\n      mstore\n        /* \"#utility.yul\":2823:2924   */\n    tag_369:\n        /* \"#utility.yul\":2672:2930   */\n      pop\n        /* \"#utility.yul\":2623:2930   */\n      pop\n      pop\n      pop\n      jump\t// out\n        /* \"#utility.yul\":2936:3038   */\n    tag_288:\n        /* \"#utility.yul\":2977:2983   */\n      0x00\n        /* \"#utility.yul\":3028:3030   */\n      0x1f\n        /* \"#utility.yul\":3024:3031   */\n      not\n        /* \"#utility.yul\":3019:3021   */\n      0x1f\n        /* \"#utility.yul\":3012:3017   */\n      dup4\n        /* \"#utility.yul\":3008:3022   */\n      add\n        /* \"#utility.yul\":3004:3032   */\n      and\n        /* \"#utility.yul\":2994:3032   */\n      swap1\n      pop\n        /* \"#utility.yul\":2936:3038   */\n      swap2\n      swap1\n      pop\n      jump\t// out\n        /* \"#utility.yul\":3044:3408   */\n    tag_289:\n        /* \"#utility.yul\":3132:3135   */\n      0x00\n        /* \"#utility.yul\":3160:3199   */\n      tag_372\n        /* \"#utility.yul\":3193:3198   */\n      dup3\n        /* \"#utility.yul\":3160:3199   */\n      tag_285\n      jump\t// in\n    tag_372:\n        /* \"#utility.yul\":3215:3286   */\n      tag_373\n        /* \"#utility.yul\":3279:3285   */\n      dup2\n        /* \"#utility.yul\":3274:3277   */\n      dup6\n        /* \"#utility.yul\":3215:3286   */\n      tag_286\n      jump\t// in\n    tag_373:\n        /* \"#utility.yul\":3208:3286   */\n      swap4\n      pop\n        /* \"#utility.yul\":3295:3347   */\n      tag_374\n        /* \"#utility.yul\":3340:3346   */\n      dup2\n        /* \"#utility.yul\":3335:3338   */\n      dup6\n        /* \"#utility.yul\":3328:3332   */\n      0x20\n        /* \"#utility.yul\":3321:3326   */\n      dup7\n        /* \"#utility.yul\":3317:3333   */\n      add\n        /* \"#utility.yul\":3295:3347   */\n      tag_287\n      jump\t// in\n    tag_374:\n        /* \"#utility.yul\":3372:3401   */\n      tag_375\n        /* \"#utility.yul\":3394:3400   */\n      dup2\n        /* \"#utility.yul\":3372:3401   */\n      tag_288\n      jump\t// in\n    tag_375:\n        /* \"#utility.yul\":3367:3370   */\n      dup5\n        /* \"#utility.yul\":3363:3402   */\n      add\n        /* \"#utility.yul\":3356:3402   */\n      swap2\n      pop\n        /* \"#utility.yul\":3136:3408   */\n      pop\n        /* \"#utility.yul\":3044:3408   */\n      swap3\n      swap2\n      pop\n      pop\n      jump\t// out\n        /* \"#utility.yul\":3414:3594   */\n    tag_122:\n        /* \"#utility.yul\":3462:3539   */\n      0x4e487b7100000000000000000000000000000000000000000000000000000000\n        /* \"#utility.yul\":3459:3460   */\n      0x00\n        /* \"#utility.yul\":3452:3540   */\n      mstore\n        /* \"#utility.yul\":3559:3563   */\n      0x21\n        /* \"#utility.yul\":3556:3557   */\n      0x04\n        /* \"#utility.yul\":3549:3564   */\n      mstore\n        /* \"#utility.yul\":3583:3587   */\n      0x24\n        /* \"#utility.yul\":3580:3581   */\n      0x00\n        /* \"#utility.yul\":3573:3588   */\n      revert\n        /* \"#utility.yul\":3600:3725   */\n    tag_290:\n        /* \"#utility.yul\":3693:3694   */\n      0x04\n        /* \"#utility.yul\":3686:3691   */\n      dup2\n        /* \"#utility.yul\":3683:3695   */\n      lt\n        /* \"#utility.yul\":3673:3719   */\n      tag_378\n      jumpi\n        /* \"#utility.yul\":3699:3717   */\n      tag_379\n      tag_122\n      jump\t// in\n    tag_379:\n        /* \"#utility.yul\":3673:3719   */\n    tag_378:\n        /* \"#utility.yul\":3600:3725   */\n      pop\n      jump\t// out\n        /* \"#utility.yul\":3731:3882   */\n    tag_291:\n        /* \"#utility.yul\":3788:3795   */\n      0x00\n        /* \"#utility.yul\":3817:3822   */\n      dup2\n        /* \"#utility.yul\":3806:3822   */\n      swap1\n      pop\n        /* \"#utility.yul\":3823:3876   */\n      tag_381\n        /* \"#utility.yul\":3870:3875   */\n      dup3\n        /* \"#utility.yul\":3823:3876   */\n      tag_290\n      jump\t// in\n    tag_381:\n        /* \"#utility.yul\":3731:3882   */\n      swap2\n      swap1\n      pop\n      jump\t// out\n        /* \"#utility.yul\":3888:4039   */\n    tag_292:\n        /* \"#utility.yul\":3956:3965   */\n      0x00\n        /* \"#utility.yul\":3989:4033   */\n      tag_383\n        /* \"#utility.yul\":4027:4032   */\n      dup3\n        /* \"#utility.yul\":3989:4033   */\n      tag_291\n      jump\t// in\n    tag_383:\n        /* \"#utility.yul\":3976:4033   */\n      swap1\n      pop\n        /* \"#utility.yul\":3888:4039   */\n      swap2\n      swap1\n      pop\n      jump\t// out\n        /* \"#utility.yul\":4045:4212   */\n    tag_293:\n        /* \"#utility.yul\":4150:4205   */\n      tag_385\n        /* \"#utility.yul\":4199:4204   */\n      dup2\n        /* \"#utility.yul\":4150:4205   */\n      tag_292\n      jump\t// in\n    tag_385:\n        /* \"#utility.yul\":4145:4148   */\n      dup3\n        /* \"#utility.yul\":4138:4206   */\n      mstore\n        /* \"#utility.yul\":4045:4212   */\n      pop\n      pop\n      jump\t// out\n        /* \"#utility.yul\":4218:5635   */\n    tag_36:\n        /* \"#utility.yul\":4613:4617   */\n      0x00\n        /* \"#utility.yul\":4651:4654   */\n      0x0120\n        /* \"#utility.yul\":4640:4649   */\n      dup3\n        /* \"#utility.yul\":4636:4655   */\n      add\n        /* \"#utility.yul\":4628:4655   */\n      swap1\n      pop\n        /* \"#utility.yul\":4665:4736   */\n      tag_387\n        /* \"#utility.yul\":4733:4734   */\n      0x00\n        /* \"#utility.yul\":4722:4731   */\n      dup4\n        /* \"#utility.yul\":4718:4735   */\n      add\n        /* \"#utility.yul\":4709:4715   */\n      dup13\n        /* \"#utility.yul\":4665:4736   */\n      tag_281\n      jump\t// in\n    tag_387:\n        /* \"#utility.yul\":4746:4818   */\n      tag_388\n        /* \"#utility.yul\":4814:4816   */\n      0x20\n        /* \"#utility.yul\":4803:4812   */\n      dup4\n        /* \"#utility.yul\":4799:4817   */\n      add\n        /* \"#utility.yul\":4790:4796   */\n      dup12\n        /* \"#utility.yul\":4746:4818   */\n      tag_284\n      jump\t// in\n    tag_388:\n        /* \"#utility.yul\":4828:4900   */\n      tag_389\n        /* \"#utility.yul\":4896:4898   */\n      0x40\n        /* \"#utility.yul\":4885:4894   */\n      dup4\n        /* \"#utility.yul\":4881:4899   */\n      add\n        /* \"#utility.yul\":4872:4878   */\n      dup11\n        /* \"#utility.yul\":4828:4900   */\n      tag_284\n      jump\t// in\n    tag_389:\n        /* \"#utility.yul\":4910:4982   */\n      tag_390\n        /* \"#utility.yul\":4978:4980   */\n      0x60\n        /* \"#utility.yul\":4967:4976   */\n      dup4\n        /* \"#utility.yul\":4963:4981   */\n      add\n        /* \"#utility.yul\":4954:4960   */\n      dup10\n        /* \"#utility.yul\":4910:4982   */\n      tag_281\n      jump\t// in\n    tag_390:\n        /* \"#utility.yul\":5030:5039   */\n      dup2\n        /* \"#utility.yul\":5024:5028   */\n      dup2\n        /* \"#utility.yul\":5020:5040   */\n      sub\n        /* \"#utility.yul\":5014:5017   */\n      0x80\n        /* \"#utility.yul\":5003:5012   */\n      dup4\n        /* \"#utility.yul\":4999:5018   */\n      add\n        /* \"#utility.yul\":4992:5041   */\n      mstore\n        /* \"#utility.yul\":5058:5136   */\n      tag_391\n        /* \"#utility.yul\":5131:5135   */\n      dup2\n        /* \"#utility.yul\":5122:5128   */\n      dup9\n        /* \"#utility.yul\":5058:5136   */\n      tag_289\n      jump\t// in\n    tag_391:\n        /* \"#utility.yul\":5050:5136   */\n      swap1\n      pop\n        /* \"#utility.yul\":5184:5193   */\n      dup2\n        /* \"#utility.yul\":5178:5182   */\n      dup2\n        /* \"#utility.yul\":5174:5194   */\n      sub\n        /* \"#utility.yul\":5168:5171   */\n      0xa0\n        /* \"#utility.yul\":5157:5166   */\n      dup4\n        /* \"#utility.yul\":5153:5172   */\n      add\n        /* \"#utility.yul\":5146:5195   */\n      mstore\n        /* \"#utility.yul\":5212:5290   */\n      tag_392\n        /* \"#utility.yul\":5285:5289   */\n      dup2\n        /* \"#utility.yul\":5276:5282   */\n      dup8\n        /* \"#utility.yul\":5212:5290   */\n      tag_289\n      jump\t// in\n    tag_392:\n        /* \"#utility.yul\":5204:5290   */\n      swap1\n      pop\n        /* \"#utility.yul\":5338:5347   */\n      dup2\n        /* \"#utility.yul\":5332:5336   */\n      dup2\n        /* \"#utility.yul\":5328:5348   */\n      sub\n        /* \"#utility.yul\":5322:5325   */\n      0xc0\n        /* \"#utility.yul\":5311:5320   */\n      dup4\n        /* \"#utility.yul\":5307:5326   */\n      add\n        /* \"#utility.yul\":5300:5349   */\n      mstore\n        /* \"#utility.yul\":5366:5444   */\n      tag_393\n        /* \"#utility.yul\":5439:5443   */\n      dup2\n        /* \"#utility.yul\":5430:5436   */\n      dup7\n        /* \"#utility.yul\":5366:5444   */\n      tag_289\n      jump\t// in\n    tag_393:\n        /* \"#utility.yul\":5358:5444   */\n      swap1\n      pop\n        /* \"#utility.yul\":5454:5527   */\n      tag_394\n        /* \"#utility.yul\":5522:5525   */\n      0xe0\n        /* \"#utility.yul\":5511:5520   */\n      dup4\n        /* \"#utility.yul\":5507:5526   */\n      add\n        /* \"#utility.yul\":5498:5504   */\n      dup6\n        /* \"#utility.yul\":5454:5527   */\n      tag_281\n      jump\t// in\n    tag_394:\n        /* \"#utility.yul\":5537:5628   */\n      tag_395\n        /* \"#utility.yul\":5623:5626   */\n      0x0100\n        /* \"#utility.yul\":5612:5621   */\n      dup4\n        /* \"#utility.yul\":5608:5627   */\n      add\n        /* \"#utility.yul\":5599:5605   */\n      dup5\n        /* \"#utility.yul\":5537:5628   */\n      tag_293\n      jump\t// in\n    tag_395:\n        /* \"#utility.yul\":4218:5635   */\n      swap11\n      swap10\n      pop\n      pop\n      pop\n      pop\n      pop\n      pop\n      pop\n      pop\n      pop\n      pop\n      jump\t// out\n        /* \"#utility.yul\":5641:5954   */\n    tag_42:\n        /* \"#utility.yul\":5754:5758   */\n      0x00\n        /* \"#utility.yul\":5792:5794   */\n      0x20\n        /* \"#utility.yul\":5781:5790   */\n      dup3\n        /* \"#utility.yul\":5777:5795   */\n      add\n        /* \"#utility.yul\":5769:5795   */\n      swap1\n      pop\n        /* \"#utility.yul\":5841:5850   */\n      dup2\n        /* \"#utility.yul\":5835:5839   */\n      dup2\n        /* \"#utility.yul\":5831:5851   */\n      sub\n        /* \"#utility.yul\":5827:5828   */\n      0x00\n        /* \"#utility.yul\":5816:5825   */\n      dup4\n        /* \"#utility.yul\":5812:5829   */\n      add\n        /* \"#utility.yul\":5805:5852   */\n      mstore\n        /* \"#utility.yul\":5869:5947   */\n      tag_397\n        /* \"#utility.yul\":5942:5946   */\n      dup2\n        /* \"#utility.yul\":5933:5939   */\n      dup5\n        /* \"#utility.yul\":5869:5947   */\n      tag_289\n      jump\t// in\n    tag_397:\n        /* \"#utility.yul\":5861:5947   */\n      swap1\n      pop\n        /* \"#utility.yul\":5641:5954   */\n      swap3\n      swap2\n      pop\n      pop\n      jump\t// out\n        /* \"#utility.yul\":5960:6182   */\n    tag_47:\n        /* \"#utility.yul\":6053:6057   */\n      0x00\n        /* \"#utility.yul\":6091:6093   */\n      0x20\n        /* \"#utility.yul\":6080:6089   */\n      dup3\n        /* \"#utility.yul\":6076:6094   */\n      add\n        /* \"#utility.yul\":6068:6094   */\n      swap1\n      pop\n        /* \"#utility.yul\":6104:6175   */\n      tag_399\n        /* \"#utility.yul\":6172:6173   */\n      0x00\n        /* \"#utility.yul\":6161:6170   */\n      dup4\n        /* \"#utility.yul\":6157:6174   */\n      add\n        /* \"#utility.yul\":6148:6154   */\n      dup5\n        /* \"#utility.yul\":6104:6175   */\n      tag_284\n      jump\t// in\n    tag_399:\n        /* \"#utility.yul\":5960:6182   */\n      swap3\n      swap2\n      pop\n      pop\n      jump\t// out\n        /* \"#utility.yul\":6188:6278   */\n    tag_294:\n        /* \"#utility.yul\":6222:6229   */\n      0x00\n        /* \"#utility.yul\":6265:6270   */\n      dup2\n        /* \"#utility.yul\":6258:6271   */\n      iszero\n        /* \"#utility.yul\":6251:6272   */\n      iszero\n        /* \"#utility.yul\":6240:6272   */\n      swap1\n      pop\n        /* \"#utility.yul\":6188:6278   */\n      swap2\n      swap1\n      pop\n      jump\t// out\n        /* \"#utility.yul\":6284:6393   */\n    tag_295:\n        /* \"#utility.yul\":6365:6386   */\n      tag_402\n        /* \"#utility.yul\":6380:6385   */\n      dup2\n        /* \"#utility.yul\":6365:6386   */\n      tag_294\n      jump\t// in\n    tag_402:\n        /* \"#utility.yul\":6360:6363   */\n      dup3\n        /* \"#utility.yul\":6353:6387   */\n      mstore\n        /* \"#utility.yul\":6284:6393   */\n      pop\n      pop\n      jump\t// out\n        /* \"#utility.yul\":6399:6609   */\n    tag_58:\n        /* \"#utility.yul\":6486:6490   */\n      0x00\n        /* \"#utility.yul\":6524:6526   */\n      0x20\n        /* \"#utility.yul\":6513:6522   */\n      dup3\n        /* \"#utility.yul\":6509:6527   */\n      add\n        /* \"#utility.yul\":6501:6527   */\n      swap1\n      pop\n        /* \"#utility.yul\":6537:6602   */\n      tag_404\n        /* \"#utility.yul\":6599:6600   */\n      0x00\n        /* \"#utility.yul\":6588:6597   */\n      dup4\n        /* \"#utility.yul\":6584:6601   */\n      add\n        /* \"#utility.yul\":6575:6581   */\n      dup5\n        /* \"#utility.yul\":6537:6602   */\n      tag_295\n      jump\t// in\n    tag_404:\n        /* \"#utility.yul\":6399:6609   */\n      swap3\n      swap2\n      pop\n      pop\n      jump\t// out\n        /* \"#utility.yul\":6615:6732   */\n    tag_296:\n        /* \"#utility.yul\":6724:6725   */\n      0x00\n        /* \"#utility.yul\":6721:6722   */\n      dup1\n        /* \"#utility.yul\":6714:6726   */\n      revert\n        /* \"#utility.yul\":6738:6855   */\n    tag_297:\n        /* \"#utility.yul\":6847:6848   */\n      0x00\n        /* \"#utility.yul\":6844:6845   */\n      dup1\n        /* \"#utility.yul\":6837:6849   */\n      revert\n        /* \"#utility.yul\":6861:7041   */\n    tag_242:\n        /* \"#utility.yul\":6909:6986   */\n      0x4e487b7100000000000000000000000000000000000000000000000000000000\n        /* \"#utility.yul\":6906:6907   */\n      0x00\n        /* \"#utility.yul\":6899:6987   */\n      mstore\n        /* \"#utility.yul\":7006:7010   */\n      0x41\n        /* \"#utility.yul\":7003:7004   */\n      0x04\n        /* \"#utility.yul\":6996:7011   */\n      mstore\n        /* \"#utility.yul\":7030:7034   */\n      0x24\n        /* \"#utility.yul\":7027:7028   */\n      0x00\n        /* \"#utility.yul\":7020:7035   */\n      revert\n        /* \"#utility.yul\":7047:7328   */\n    tag_298:\n        /* \"#utility.yul\":7130:7157   */\n      tag_409\n        /* \"#utility.yul\":7152:7156   */\n      dup3\n        /* \"#utility.yul\":7130:7157   */\n      tag_288\n      jump\t// in\n    tag_409:\n        /* \"#utility.yul\":7122:7128   */\n      dup2\n        /* \"#utility.yul\":7118:7158   */\n      add\n        /* \"#utility.yul\":7260:7266   */\n      dup2\n        /* \"#utility.yul\":7248:7258   */\n      dup2\n        /* \"#utility.yul\":7245:7267   */\n      lt\n        /* \"#utility.yul\":7224:7242   */\n      0xffffffffffffffff\n        /* \"#utility.yul\":7212:7222   */\n      dup3\n        /* \"#utility.yul\":7209:7243   */\n      gt\n        /* \"#utility.yul\":7206:7268   */\n      or\n        /* \"#utility.yul\":7203:7291   */\n      iszero\n      tag_410\n      jumpi\n        /* \"#utility.yul\":7271:7289   */\n      tag_411\n      tag_242\n      jump\t// in\n    tag_411:\n        /* \"#utility.yul\":7203:7291   */\n    tag_410:\n        /* \"#utility.yul\":7311:7321   */\n      dup1\n        /* \"#utility.yul\":7307:7309   */\n      0x40\n        /* \"#utility.yul\":7300:7322   */\n      mstore\n        /* \"#utility.yul\":7090:7328   */\n      pop\n        /* \"#utility.yul\":7047:7328   */\n      pop\n      pop\n      jump\t// out\n        /* \"#utility.yul\":7334:7463   */\n    tag_299:\n        /* \"#utility.yul\":7368:7374   */\n      0x00\n        /* \"#utility.yul\":7395:7415   */\n      tag_413\n      tag_273\n      jump\t// in\n    tag_413:\n        /* \"#utility.yul\":7385:7415   */\n      swap1\n      pop\n        /* \"#utility.yul\":7424:7457   */\n      tag_414\n        /* \"#utility.yul\":7452:7456   */\n      dup3\n        /* \"#utility.yul\":7444:7450   */\n      dup3\n        /* \"#utility.yul\":7424:7457   */\n      tag_298\n      jump\t// in\n    tag_414:\n        /* \"#utility.yul\":7334:7463   */\n      swap2\n      swap1\n      pop\n      jump\t// out\n        /* \"#utility.yul\":7469:7777   */\n    tag_300:\n        /* \"#utility.yul\":7531:7535   */\n      0x00\n        /* \"#utility.yul\":7621:7639   */\n      0xffffffffffffffff\n        /* \"#utility.yul\":7613:7619   */\n      dup3\n        /* \"#utility.yul\":7610:7640   */\n      gt\n        /* \"#utility.yul\":7607:7663   */\n      iszero\n      tag_416\n      jumpi\n        /* \"#utility.yul\":7643:7661   */\n      tag_417\n      tag_242\n      jump\t// in\n    tag_417:\n        /* \"#utility.yul\":7607:7663   */\n    tag_416:\n        /* \"#utility.yul\":7681:7710   */\n      tag_418\n        /* \"#utility.yul\":7703:7709   */\n      dup3\n        /* \"#utility.yul\":7681:7710   */\n      tag_288\n      jump\t// in\n    tag_418:\n        /* \"#utility.yul\":7673:7710   */\n      swap1\n      pop\n        /* \"#utility.yul\":7765:7769   */\n      0x20\n        /* \"#utility.yul\":7759:7763   */\n      dup2\n        /* \"#utility.yul\":7755:7770   */\n      add\n        /* \"#utility.yul\":7747:7770   */\n      swap1\n      pop\n        /* \"#utility.yul\":7469:7777   */\n      swap2\n      swap1\n      pop\n      jump\t// out\n        /* \"#utility.yul\":7783:7937   */\n    tag_301:\n        /* \"#utility.yul\":7867:7873   */\n      dup3\n        /* \"#utility.yul\":7862:7865   */\n      dup2\n        /* \"#utility.yul\":7857:7860   */\n      dup4\n        /* \"#utility.yul\":7844:7874   */\n      calldatacopy\n        /* \"#utility.yul\":7929:7930   */\n      0x00\n        /* \"#utility.yul\":7920:7926   */\n      dup4\n        /* \"#utility.yul\":7915:7918   */\n      dup4\n        /* \"#utility.yul\":7911:7927   */\n      add\n        /* \"#utility.yul\":7904:7931   */\n      mstore\n        /* \"#utility.yul\":7783:7937   */\n      pop\n      pop\n      pop\n      jump\t// out\n        /* \"#utility.yul\":7943:8355   */\n    tag_302:\n        /* \"#utility.yul\":8021:8026   */\n      0x00\n        /* \"#utility.yul\":8046:8112   */\n      tag_421\n        /* \"#utility.yul\":8062:8111   */\n      tag_422\n        /* \"#utility.yul\":8104:8110   */\n      dup5\n        /* \"#utility.yul\":8062:8111   */\n      tag_300\n      jump\t// in\n    tag_422:\n        /* \"#utility.yul\":8046:8112   */\n      tag_299\n      jump\t// in\n    tag_421:\n        /* \"#utility.yul\":8037:8112   */\n      swap1\n      pop\n        /* \"#utility.yul\":8135:8141   */\n      dup3\n        /* \"#utility.yul\":8128:8133   */\n      dup2\n        /* \"#utility.yul\":8121:8142   */\n      mstore\n        /* \"#utility.yul\":8173:8177   */\n      0x20\n        /* \"#utility.yul\":8166:8171   */\n      dup2\n        /* \"#utility.yul\":8162:8178   */\n      add\n        /* \"#utility.yul\":8211:8214   */\n      dup5\n        /* \"#utility.yul\":8202:8208   */\n      dup5\n        /* \"#utility.yul\":8197:8200   */\n      dup5\n        /* \"#utility.yul\":8193:8209   */\n      add\n        /* \"#utility.yul\":8190:8215   */\n      gt\n        /* \"#utility.yul\":8187:8299   */\n      iszero\n      tag_423\n      jumpi\n        /* \"#utility.yul\":8218:8297   */\n      tag_424\n      tag_297\n      jump\t// in\n    tag_424:\n        /* \"#utility.yul\":8187:8299   */\n    tag_423:\n        /* \"#utility.yul\":8308:8349   */\n      tag_425\n        /* \"#utility.yul\":8342:8348   */\n      dup5\n        /* \"#utility.yul\":8337:8340   */\n      dup3\n        /* \"#utility.yul\":8332:8335   */\n      dup6\n        /* \"#utility.yul\":8308:8349   */\n      tag_301\n      jump\t// in\n    tag_425:\n        /* \"#utility.yul\":8027:8355   */\n      pop\n        /* \"#utility.yul\":7943:8355   */\n      swap4\n      swap3\n      pop\n      pop\n      pop\n      jump\t// out\n        /* \"#utility.yul\":8375:8715   */\n    tag_303:\n        /* \"#utility.yul\":8431:8436   */\n      0x00\n        /* \"#utility.yul\":8480:8483   */\n      dup3\n        /* \"#utility.yul\":8473:8477   */\n      0x1f\n        /* \"#utility.yul\":8465:8471   */\n      dup4\n        /* \"#utility.yul\":8461:8478   */\n      add\n        /* \"#utility.yul\":8457:8484   */\n      slt\n        /* \"#utility.yul\":8447:8569   */\n      tag_427\n      jumpi\n        /* \"#utility.yul\":8488:8567   */\n      tag_428\n      tag_296\n      jump\t// in\n    tag_428:\n        /* \"#utility.yul\":8447:8569   */\n    tag_427:\n        /* \"#utility.yul\":8605:8611   */\n      dup2\n        /* \"#utility.yul\":8592:8612   */\n      calldataload\n        /* \"#utility.yul\":8630:8709   */\n      tag_429\n        /* \"#utility.yul\":8705:8708   */\n      dup5\n        /* \"#utility.yul\":8697:8703   */\n      dup3\n        /* \"#utility.yul\":8690:8694   */\n      0x20\n        /* \"#utility.yul\":8682:8688   */\n      dup7\n        /* \"#utility.yul\":8678:8695   */\n      add\n        /* \"#utility.yul\":8630:8709   */\n      tag_302\n      jump\t// in\n    tag_429:\n        /* \"#utility.yul\":8621:8709   */\n      swap2\n      pop\n        /* \"#utility.yul\":8437:8715   */\n      pop\n        /* \"#utility.yul\":8375:8715   */\n      swap3\n      swap2\n      pop\n      pop\n      jump\t// out\n        /* \"#utility.yul\":8721:9375   */\n    tag_61:\n        /* \"#utility.yul\":8799:8805   */\n      0x00\n        /* \"#utility.yul\":8807:8813   */\n      dup1\n        /* \"#utility.yul\":8856:8858   */\n      0x40\n        /* \"#utility.yul\":8844:8853   */\n      dup4\n        /* \"#utility.yul\":8835:8842   */\n      dup6\n        /* \"#utility.yul\":8831:8854   */\n      sub\n        /* \"#utility.yul\":8827:8859   */\n      slt\n        /* \"#utility.yul\":8824:8943   */\n      iszero\n      tag_431\n      jumpi\n        /* \"#utility.yul\":8862:8941   */\n      tag_432\n      tag_274\n      jump\t// in\n    tag_432:\n        /* \"#utility.yul\":8824:8943   */\n    tag_431:\n        /* \"#utility.yul\":8982:8983   */\n      0x00\n        /* \"#utility.yul\":9007:9060   */\n      tag_433\n        /* \"#utility.yul\":9052:9059   */\n      dup6\n        /* \"#utility.yul\":9043:9049   */\n      dup3\n        /* \"#utility.yul\":9032:9041   */\n      dup7\n        /* \"#utility.yul\":9028:9050   */\n      add\n        /* \"#utility.yul\":9007:9060   */\n      tag_279\n      jump\t// in\n    tag_433:\n        /* \"#utility.yul\":8997:9060   */\n      swap3\n      pop\n        /* \"#utility.yul\":8953:9070   */\n      pop\n        /* \"#utility.yul\":9137:9139   */\n      0x20\n        /* \"#utility.yul\":9126:9135   */\n      dup4\n        /* \"#utility.yul\":9122:9140   */\n      add\n        /* \"#utility.yul\":9109:9141   */\n      calldataload\n        /* \"#utility.yul\":9168:9186   */\n      0xffffffffffffffff\n        /* \"#utility.yul\":9160:9166   */\n      dup2\n        /* \"#utility.yul\":9157:9187   */\n      gt\n        /* \"#utility.yul\":9154:9271   */\n      iszero\n      tag_434\n      jumpi\n        /* \"#utility.yul\":9190:9269   */\n      tag_435\n      tag_275\n      jump\t// in\n    tag_435:\n        /* \"#utility.yul\":9154:9271   */\n    tag_434:\n        /* \"#utility.yul\":9295:9358   */\n      tag_436\n        /* \"#utility.yul\":9350:9357   */\n      dup6\n        /* \"#utility.yul\":9341:9347   */\n      dup3\n        /* \"#utility.yul\":9330:9339   */\n      dup7\n        /* \"#utility.yul\":9326:9348   */\n      add\n        /* \"#utility.yul\":9295:9358   */\n      tag_303\n      jump\t// in\n    tag_436:\n        /* \"#utility.yul\":9285:9358   */\n      swap2\n      pop\n        /* \"#utility.yul\":9080:9368   */\n      pop\n        /* \"#utility.yul\":8721:9375   */\n      swap3\n      pop\n      swap3\n      swap1\n      pop\n      jump\t// out\n        /* \"#utility.yul\":9381:9500   */\n    tag_304:\n        /* \"#utility.yul\":9474:9475   */\n      0x04\n        /* \"#utility.yul\":9467:9472   */\n      dup2\n        /* \"#utility.yul\":9464:9476   */\n      lt\n        /* \"#utility.yul\":9454:9494   */\n      tag_438\n      jumpi\n        /* \"#utility.yul\":9490:9491   */\n      0x00\n        /* \"#utility.yul\":9487:9488   */\n      dup1\n        /* \"#utility.yul\":9480:9492   */\n      revert\n        /* \"#utility.yul\":9454:9494   */\n    tag_438:\n        /* \"#utility.yul\":9381:9500   */\n      pop\n      jump\t// out\n        /* \"#utility.yul\":9506:9685   */\n    tag_305:\n        /* \"#utility.yul\":9572:9577   */\n      0x00\n        /* \"#utility.yul\":9610:9616   */\n      dup2\n        /* \"#utility.yul\":9597:9617   */\n      calldataload\n        /* \"#utility.yul\":9588:9617   */\n      swap1\n      pop\n        /* \"#utility.yul\":9626:9679   */\n      tag_440\n        /* \"#utility.yul\":9673:9678   */\n      dup2\n        /* \"#utility.yul\":9626:9679   */\n      tag_304\n      jump\t// in\n    tag_440:\n        /* \"#utility.yul\":9506:9685   */\n      swap3\n      swap2\n      pop\n      pop\n      jump\t// out\n        /* \"#utility.yul\":9691:10205   */\n    tag_66:\n        /* \"#utility.yul\":9779:9785   */\n      0x00\n        /* \"#utility.yul\":9787:9793   */\n      dup1\n        /* \"#utility.yul\":9836:9838   */\n      0x40\n        /* \"#utility.yul\":9824:9833   */\n      dup4\n        /* \"#utility.yul\":9815:9822   */\n      dup6\n        /* \"#utility.yul\":9811:9834   */\n      sub\n        /* \"#utility.yul\":9807:9839   */\n      slt\n        /* \"#utility.yul\":9804:9923   */\n      iszero\n      tag_442\n      jumpi\n        /* \"#utility.yul\":9842:9921   */\n      tag_443\n      tag_274\n      jump\t// in\n    tag_443:\n        /* \"#utility.yul\":9804:9923   */\n    tag_442:\n        /* \"#utility.yul\":9962:9963   */\n      0x00\n        /* \"#utility.yul\":9987:10040   */\n      tag_444\n        /* \"#utility.yul\":10032:10039   */\n      dup6\n        /* \"#utility.yul\":10023:10029   */\n      dup3\n        /* \"#utility.yul\":10012:10021   */\n      dup7\n        /* \"#utility.yul\":10008:10030   */\n      add\n        /* \"#utility.yul\":9987:10040   */\n      tag_283\n      jump\t// in\n    tag_444:\n        /* \"#utility.yul\":9977:10040   */\n      swap3\n      pop\n        /* \"#utility.yul\":9933:10050   */\n      pop\n        /* \"#utility.yul\":10089:10091   */\n      0x20\n        /* \"#utility.yul\":10115:10188   */\n      tag_445\n        /* \"#utility.yul\":10180:10187   */\n      dup6\n        /* \"#utility.yul\":10171:10177   */\n      dup3\n        /* \"#utility.yul\":10160:10169   */\n      dup7\n        /* \"#utility.yul\":10156:10178   */\n      add\n        /* \"#utility.yul\":10115:10188   */\n      tag_305\n      jump\t// in\n    tag_445:\n        /* \"#utility.yul\":10105:10188   */\n      swap2\n      pop\n        /* \"#utility.yul\":10060:10198   */\n      pop\n        /* \"#utility.yul\":9691:10205   */\n      swap3\n      pop\n      swap3\n      swap1\n      pop\n      jump\t// out\n        /* \"#utility.yul\":10211:11336   */\n    tag_75:\n        /* \"#utility.yul\":10317:10323   */\n      0x00\n        /* \"#utility.yul\":10325:10331   */\n      dup1\n        /* \"#utility.yul\":10333:10339   */\n      0x00\n        /* \"#utility.yul\":10341:10347   */\n      dup1\n        /* \"#utility.yul\":10390:10393   */\n      0x80\n        /* \"#utility.yul\":10378:10387   */\n      dup6\n        /* \"#utility.yul\":10369:10376   */\n      dup8\n        /* \"#utility.yul\":10365:10388   */\n      sub\n        /* \"#utility.yul\":10361:10394   */\n      slt\n        /* \"#utility.yul\":10358:10478   */\n      iszero\n      tag_447\n      jumpi\n        /* \"#utility.yul\":10397:10476   */\n      tag_448\n      tag_274\n      jump\t// in\n    tag_448:\n        /* \"#utility.yul\":10358:10478   */\n    tag_447:\n        /* \"#utility.yul\":10517:10518   */\n      0x00\n        /* \"#utility.yul\":10542:10595   */\n      tag_449\n        /* \"#utility.yul\":10587:10594   */\n      dup8\n        /* \"#utility.yul\":10578:10584   */\n      dup3\n        /* \"#utility.yul\":10567:10576   */\n      dup9\n        /* \"#utility.yul\":10563:10585   */\n      add\n        /* \"#utility.yul\":10542:10595   */\n      tag_279\n      jump\t// in\n    tag_449:\n        /* \"#utility.yul\":10532:10595   */\n      swap5\n      pop\n        /* \"#utility.yul\":10488:10605   */\n      pop\n        /* \"#utility.yul\":10644:10646   */\n      0x20\n        /* \"#utility.yul\":10670:10723   */\n      tag_450\n        /* \"#utility.yul\":10715:10722   */\n      dup8\n        /* \"#utility.yul\":10706:10712   */\n      dup3\n        /* \"#utility.yul\":10695:10704   */\n      dup9\n        /* \"#utility.yul\":10691:10713   */\n      add\n        /* \"#utility.yul\":10670:10723   */\n      tag_283\n      jump\t// in\n    tag_450:\n        /* \"#utility.yul\":10660:10723   */\n      swap4\n      pop\n        /* \"#utility.yul\":10615:10733   */\n      pop\n        /* \"#utility.yul\":10800:10802   */\n      0x40\n        /* \"#utility.yul\":10789:10798   */\n      dup6\n        /* \"#utility.yul\":10785:10803   */\n      add\n        /* \"#utility.yul\":10772:10804   */\n      calldataload\n        /* \"#utility.yul\":10831:10849   */\n      0xffffffffffffffff\n        /* \"#utility.yul\":10823:10829   */\n      dup2\n        /* \"#utility.yul\":10820:10850   */\n      gt\n        /* \"#utility.yul\":10817:10934   */\n      iszero\n      tag_451\n      jumpi\n        /* \"#utility.yul\":10853:10932   */\n      tag_452\n      tag_275\n      jump\t// in\n    tag_452:\n        /* \"#utility.yul\":10817:10934   */\n    tag_451:\n        /* \"#utility.yul\":10958:11021   */\n      tag_453\n        /* \"#utility.yul\":11013:11020   */\n      dup8\n        /* \"#utility.yul\":11004:11010   */\n      dup3\n        /* \"#utility.yul\":10993:11002   */\n      dup9\n        /* \"#utility.yul\":10989:11011   */\n      add\n        /* \"#utility.yul\":10958:11021   */\n      tag_303\n      jump\t// in\n    tag_453:\n        /* \"#utility.yul\":10948:11021   */\n      swap3\n      pop\n        /* \"#utility.yul\":10743:11031   */\n      pop\n        /* \"#utility.yul\":11098:11100   */\n      0x60\n        /* \"#utility.yul\":11087:11096   */\n      dup6\n        /* \"#utility.yul\":11083:11101   */\n      add\n        /* \"#utility.yul\":11070:11102   */\n      calldataload\n        /* \"#utility.yul\":11129:11147   */\n      0xffffffffffffffff\n        /* \"#utility.yul\":11121:11127   */\n      dup2\n        /* \"#utility.yul\":11118:11148   */\n      gt\n        /* \"#utility.yul\":11115:11232   */\n      iszero\n      tag_454\n      jumpi\n        /* \"#utility.yul\":11151:11230   */\n      tag_455\n      tag_275\n      jump\t// in\n    tag_455:\n        /* \"#utility.yul\":11115:11232   */\n    tag_454:\n        /* \"#utility.yul\":11256:11319   */\n      tag_456\n        /* \"#utility.yul\":11311:11318   */\n      dup8\n        /* \"#utility.yul\":11302:11308   */\n      dup3\n        /* \"#utility.yul\":11291:11300   */\n      dup9\n        /* \"#utility.yul\":11287:11309   */\n      add\n        /* \"#utility.yul\":11256:11319   */\n      tag_303\n      jump\t// in\n    tag_456:\n        /* \"#utility.yul\":11246:11319   */\n      swap2\n      pop\n        /* \"#utility.yul\":11041:11329   */\n      pop\n        /* \"#utility.yul\":10211:11336   */\n      swap3\n      swap6\n      swap2\n      swap5\n      pop\n      swap3\n      pop\n      jump\t// out\n        /* \"#utility.yul\":11342:11456   */\n    tag_306:\n        /* \"#utility.yul\":11409:11415   */\n      0x00\n        /* \"#utility.yul\":11443:11448   */\n      dup2\n        /* \"#utility.yul\":11437:11449   */\n      mload\n        /* \"#utility.yul\":11427:11449   */\n      swap1\n      pop\n        /* \"#utility.yul\":11342:11456   */\n      swap2\n      swap1\n      pop\n      jump\t// out\n        /* \"#utility.yul\":11462:11646   */\n    tag_307:\n        /* \"#utility.yul\":11561:11572   */\n      0x00\n        /* \"#utility.yul\":11595:11601   */\n      dup3\n        /* \"#utility.yul\":11590:11593   */\n      dup3\n        /* \"#utility.yul\":11583:11602   */\n      mstore\n        /* \"#utility.yul\":11635:11639   */\n      0x20\n        /* \"#utility.yul\":11630:11633   */\n      dup3\n        /* \"#utility.yul\":11626:11640   */\n      add\n        /* \"#utility.yul\":11611:11640   */\n      swap1\n      pop\n        /* \"#utility.yul\":11462:11646   */\n      swap3\n      swap2\n      pop\n      pop\n      jump\t// out\n        /* \"#utility.yul\":11652:11784   */\n    tag_308:\n        /* \"#utility.yul\":11719:11723   */\n      0x00\n        /* \"#utility.yul\":11742:11745   */\n      dup2\n        /* \"#utility.yul\":11734:11745   */\n      swap1\n      pop\n        /* \"#utility.yul\":11772:11776   */\n      0x20\n        /* \"#utility.yul\":11767:11770   */\n      dup3\n        /* \"#utility.yul\":11763:11777   */\n      add\n        /* \"#utility.yul\":11755:11777   */\n      swap1\n      pop\n        /* \"#utility.yul\":11652:11784   */\n      swap2\n      swap1\n      pop\n      jump\t// out\n        /* \"#utility.yul\":11790:11898   */\n    tag_309:\n        /* \"#utility.yul\":11867:11891   */\n      tag_461\n        /* \"#utility.yul\":11885:11890   */\n      dup2\n        /* \"#utility.yul\":11867:11891   */\n      tag_280\n      jump\t// in\n    tag_461:\n        /* \"#utility.yul\":11862:11865   */\n      dup3\n        /* \"#utility.yul\":11855:11892   */\n      mstore\n        /* \"#utility.yul\":11790:11898   */\n      pop\n      pop\n      jump\t// out\n        /* \"#utility.yul\":11904:12083   */\n    tag_310:\n        /* \"#utility.yul\":11973:11983   */\n      0x00\n        /* \"#utility.yul\":11994:12040   */\n      tag_463\n        /* \"#utility.yul\":12036:12039   */\n      dup4\n        /* \"#utility.yul\":12028:12034   */\n      dup4\n        /* \"#utility.yul\":11994:12040   */\n      tag_309\n      jump\t// in\n    tag_463:\n        /* \"#utility.yul\":12072:12076   */\n      0x20\n        /* \"#utility.yul\":12067:12070   */\n      dup4\n        /* \"#utility.yul\":12063:12077   */\n      add\n        /* \"#utility.yul\":12049:12077   */\n      swap1\n      pop\n        /* \"#utility.yul\":11904:12083   */\n      swap3\n      swap2\n      pop\n      pop\n      jump\t// out\n        /* \"#utility.yul\":12089:12202   */\n    tag_311:\n        /* \"#utility.yul\":12159:12163   */\n      0x00\n        /* \"#utility.yul\":12191:12195   */\n      0x20\n        /* \"#utility.yul\":12186:12189   */\n      dup3\n        /* \"#utility.yul\":12182:12196   */\n      add\n        /* \"#utility.yul\":12174:12196   */\n      swap1\n      pop\n        /* \"#utility.yul\":12089:12202   */\n      swap2\n      swap1\n      pop\n      jump\t// out\n        /* \"#utility.yul\":12238:12970   */\n    tag_312:\n        /* \"#utility.yul\":12357:12360   */\n      0x00\n        /* \"#utility.yul\":12386:12440   */\n      tag_466\n        /* \"#utility.yul\":12434:12439   */\n      dup3\n        /* \"#utility.yul\":12386:12440   */\n      tag_306\n      jump\t// in\n    tag_466:\n        /* \"#utility.yul\":12456:12542   */\n      tag_467\n        /* \"#utility.yul\":12535:12541   */\n      dup2\n        /* \"#utility.yul\":12530:12533   */\n      dup6\n        /* \"#utility.yul\":12456:12542   */\n      tag_307\n      jump\t// in\n    tag_467:\n        /* \"#utility.yul\":12449:12542   */\n      swap4\n      pop\n        /* \"#utility.yul\":12566:12622   */\n      tag_468\n        /* \"#utility.yul\":12616:12621   */\n      dup4\n        /* \"#utility.yul\":12566:12622   */\n      tag_308\n      jump\t// in\n    tag_468:\n        /* \"#utility.yul\":12645:12652   */\n      dup1\n        /* \"#utility.yul\":12676:12677   */\n      0x00\n        /* \"#utility.yul\":12661:12945   */\n    tag_469:\n        /* \"#utility.yul\":12686:12692   */\n      dup4\n        /* \"#utility.yul\":12683:12684   */\n      dup2\n        /* \"#utility.yul\":12680:12693   */\n      lt\n        /* \"#utility.yul\":12661:12945   */\n      iszero\n      tag_471\n      jumpi\n        /* \"#utility.yul\":12762:12768   */\n      dup2\n        /* \"#utility.yul\":12756:12769   */\n      mload\n        /* \"#utility.yul\":12789:12852   */\n      tag_472\n        /* \"#utility.yul\":12848:12851   */\n      dup9\n        /* \"#utility.yul\":12833:12846   */\n      dup3\n        /* \"#utility.yul\":12789:12852   */\n      tag_310\n      jump\t// in\n    tag_472:\n        /* \"#utility.yul\":12782:12852   */\n      swap8\n      pop\n        /* \"#utility.yul\":12875:12935   */\n      tag_473\n        /* \"#utility.yul\":12928:12934   */\n      dup4\n        /* \"#utility.yul\":12875:12935   */\n      tag_311\n      jump\t// in\n    tag_473:\n        /* \"#utility.yul\":12865:12935   */\n      swap3\n      pop\n        /* \"#utility.yul\":12721:12945   */\n      pop\n        /* \"#utility.yul\":12708:12709   */\n      0x01\n        /* \"#utility.yul\":12705:12706   */\n      dup2\n        /* \"#utility.yul\":12701:12710   */\n      add\n        /* \"#utility.yul\":12696:12710   */\n      swap1\n      pop\n        /* \"#utility.yul\":12661:12945   */\n      jump(tag_469)\n    tag_471:\n        /* \"#utility.yul\":12665:12679   */\n      pop\n        /* \"#utility.yul\":12961:12964   */\n      dup6\n        /* \"#utility.yul\":12954:12964   */\n      swap4\n      pop\n        /* \"#utility.yul\":12362:12970   */\n      pop\n      pop\n      pop\n        /* \"#utility.yul\":12238:12970   */\n      swap3\n      swap2\n      pop\n      pop\n      jump\t// out\n        /* \"#utility.yul\":12976:13349   */\n    tag_83:\n        /* \"#utility.yul\":13119:13123   */\n      0x00\n        /* \"#utility.yul\":13157:13159   */\n      0x20\n        /* \"#utility.yul\":13146:13155   */\n      dup3\n        /* \"#utility.yul\":13142:13160   */\n      add\n        /* \"#utility.yul\":13134:13160   */\n      swap1\n      pop\n        /* \"#utility.yul\":13206:13215   */\n      dup2\n        /* \"#utility.yul\":13200:13204   */\n      dup2\n        /* \"#utility.yul\":13196:13216   */\n      sub\n        /* \"#utility.yul\":13192:13193   */\n      0x00\n        /* \"#utility.yul\":13181:13190   */\n      dup4\n        /* \"#utility.yul\":13177:13194   */\n      add\n        /* \"#utility.yul\":13170:13217   */\n      mstore\n        /* \"#utility.yul\":13234:13342   */\n      tag_475\n        /* \"#utility.yul\":13337:13341   */\n      dup2\n        /* \"#utility.yul\":13328:13334   */\n      dup5\n        /* \"#utility.yul\":13234:13342   */\n      tag_312\n      jump\t// in\n    tag_475:\n        /* \"#utility.yul\":13226:13342   */\n      swap1\n      pop\n        /* \"#utility.yul\":12976:13349   */\n      swap3\n      swap2\n      pop\n      pop\n      jump\t// out\n        /* \"#utility.yul\":13355:13527   */\n    tag_313:\n        /* \"#utility.yul\":13495:13519   */\n      0x496e76616c6964207472616e73616374696f6e20494400000000000000000000\n        /* \"#utility.yul\":13491:13492   */\n      0x00\n        /* \"#utility.yul\":13483:13489   */\n      dup3\n        /* \"#utility.yul\":13479:13493   */\n      add\n        /* \"#utility.yul\":13472:13520   */\n      mstore\n        /* \"#utility.yul\":13355:13527   */\n      pop\n      jump\t// out\n        /* \"#utility.yul\":13533:13899   */\n    tag_314:\n        /* \"#utility.yul\":13675:13678   */\n      0x00\n        /* \"#utility.yul\":13696:13763   */\n      tag_478\n        /* \"#utility.yul\":13760:13762   */\n      0x16\n        /* \"#utility.yul\":13755:13758   */\n      dup4\n        /* \"#utility.yul\":13696:13763   */\n      tag_286\n      jump\t// in\n    tag_478:\n        /* \"#utility.yul\":13689:13763   */\n      swap2\n      pop\n        /* \"#utility.yul\":13772:13865   */\n      tag_479\n        /* \"#utility.yul\":13861:13864   */\n      dup3\n        /* \"#utility.yul\":13772:13865   */\n      tag_313\n      jump\t// in\n    tag_479:\n        /* \"#utility.yul\":13890:13892   */\n      0x20\n        /* \"#utility.yul\":13885:13888   */\n      dup3\n        /* \"#utility.yul\":13881:13893   */\n      add\n        /* \"#utility.yul\":13874:13893   */\n      swap1\n      pop\n        /* \"#utility.yul\":13533:13899   */\n      swap2\n      swap1\n      pop\n      jump\t// out\n        /* \"#utility.yul\":13905:14324   */\n    tag_99:\n        /* \"#utility.yul\":14071:14075   */\n      0x00\n        /* \"#utility.yul\":14109:14111   */\n      0x20\n        /* \"#utility.yul\":14098:14107   */\n      dup3\n        /* \"#utility.yul\":14094:14112   */\n      add\n        /* \"#utility.yul\":14086:14112   */\n      swap1\n      pop\n        /* \"#utility.yul\":14158:14167   */\n      dup2\n        /* \"#utility.yul\":14152:14156   */\n      dup2\n        /* \"#utility.yul\":14148:14168   */\n      sub\n        /* \"#utility.yul\":14144:14145   */\n      0x00\n        /* \"#utility.yul\":14133:14142   */\n      dup4\n        /* \"#utility.yul\":14129:14146   */\n      add\n        /* \"#utility.yul\":14122:14169   */\n      mstore\n        /* \"#utility.yul\":14186:14317   */\n      tag_481\n        /* \"#utility.yul\":14312:14316   */\n      dup2\n        /* \"#utility.yul\":14186:14317   */\n      tag_314\n      jump\t// in\n    tag_481:\n        /* \"#utility.yul\":14178:14317   */\n      swap1\n      pop\n        /* \"#utility.yul\":13905:14324   */\n      swap2\n      swap1\n      pop\n      jump\t// out\n        /* \"#utility.yul\":14330:14510   */\n    tag_102:\n        /* \"#utility.yul\":14378:14455   */\n      0x4e487b7100000000000000000000000000000000000000000000000000000000\n        /* \"#utility.yul\":14375:14376   */\n      0x00\n        /* \"#utility.yul\":14368:14456   */\n      mstore\n        /* \"#utility.yul\":14475:14479   */\n      0x32\n        /* \"#utility.yul\":14472:14473   */\n      0x04\n        /* \"#utility.yul\":14465:14480   */\n      mstore\n        /* \"#utility.yul\":14499:14503   */\n      0x24\n        /* \"#utility.yul\":14496:14497   */\n      0x00\n        /* \"#utility.yul\":14489:14504   */\n      revert\n        /* \"#utility.yul\":14516:14696   */\n    tag_315:\n        /* \"#utility.yul\":14564:14641   */\n      0x4e487b7100000000000000000000000000000000000000000000000000000000\n        /* \"#utility.yul\":14561:14562   */\n      0x00\n        /* \"#utility.yul\":14554:14642   */\n      mstore\n        /* \"#utility.yul\":14661:14665   */\n      0x22\n        /* \"#utility.yul\":14658:14659   */\n      0x04\n        /* \"#utility.yul\":14651:14666   */\n      mstore\n        /* \"#utility.yul\":14685:14689   */\n      0x24\n        /* \"#utility.yul\":14682:14683   */\n      0x00\n        /* \"#utility.yul\":14675:14690   */\n      revert\n        /* \"#utility.yul\":14702:15022   */\n    tag_105:\n        /* \"#utility.yul\":14746:14752   */\n      0x00\n        /* \"#utility.yul\":14783:14784   */\n      0x02\n        /* \"#utility.yul\":14777:14781   */\n      dup3\n        /* \"#utility.yul\":14773:14785   */\n      div\n        /* \"#utility.yul\":14763:14785   */\n      swap1\n      pop\n        /* \"#utility.yul\":14830:14831   */\n      0x01\n        /* \"#utility.yul\":14824:14828   */\n      dup3\n        /* \"#utility.yul\":14820:14832   */\n      and\n        /* \"#utility.yul\":14851:14869   */\n      dup1\n        /* \"#utility.yul\":14841:14922   */\n      tag_485\n      jumpi\n        /* \"#utility.yul\":14907:14911   */\n      0x7f\n        /* \"#utility.yul\":14899:14905   */\n      dup3\n        /* \"#utility.yul\":14895:14912   */\n      and\n        /* \"#utility.yul\":14885:14912   */\n      swap2\n      pop\n        /* \"#utility.yul\":14841:14922   */\n    tag_485:\n        /* \"#utility.yul\":14969:14971   */\n      0x20\n        /* \"#utility.yul\":14961:14967   */\n      dup3\n        /* \"#utility.yul\":14958:14972   */\n      lt\n        /* \"#utility.yul\":14938:14956   */\n      dup2\n        /* \"#utility.yul\":14935:14973   */\n      eq\n        /* \"#utility.yul\":14932:15016   */\n      iszero\n      tag_486\n      jumpi\n        /* \"#utility.yul\":14988:15006   */\n      tag_487\n      tag_315\n      jump\t// in\n    tag_487:\n        /* \"#utility.yul\":14932:15016   */\n    tag_486:\n        /* \"#utility.yul\":14753:15022   */\n      pop\n        /* \"#utility.yul\":14702:15022   */\n      swap2\n      swap1\n      pop\n      jump\t// out\n        /* \"#utility.yul\":15028:15192   */\n    tag_316:\n        /* \"#utility.yul\":15168:15184   */\n      0x4e6f7420617574686f72697a6564000000000000000000000000000000000000\n        /* \"#utility.yul\":15164:15165   */\n      0x00\n        /* \"#utility.yul\":15156:15162   */\n      dup3\n        /* \"#utility.yul\":15152:15166   */\n      add\n        /* \"#utility.yul\":15145:15185   */\n      mstore\n        /* \"#utility.yul\":15028:15192   */\n      pop\n      jump\t// out\n        /* \"#utility.yul\":15198:15564   */\n    tag_317:\n        /* \"#utility.yul\":15340:15343   */\n      0x00\n        /* \"#utility.yul\":15361:15428   */\n      tag_490\n        /* \"#utility.yul\":15425:15427   */\n      0x0e\n        /* \"#utility.yul\":15420:15423   */\n      dup4\n        /* \"#utility.yul\":15361:15428   */\n      tag_286\n      jump\t// in\n    tag_490:\n        /* \"#utility.yul\":15354:15428   */\n      swap2\n      pop\n        /* \"#utility.yul\":15437:15530   */\n      tag_491\n        /* \"#utility.yul\":15526:15529   */\n      dup3\n        /* \"#utility.yul\":15437:15530   */\n      tag_316\n      jump\t// in\n    tag_491:\n        /* \"#utility.yul\":15555:15557   */\n      0x20\n        /* \"#utility.yul\":15550:15553   */\n      dup3\n        /* \"#utility.yul\":15546:15558   */\n      add\n        /* \"#utility.yul\":15539:15558   */\n      swap1\n      pop\n        /* \"#utility.yul\":15198:15564   */\n      swap2\n      swap1\n      pop\n      jump\t// out\n        /* \"#utility.yul\":15570:15989   */\n    tag_151:\n        /* \"#utility.yul\":15736:15740   */\n      0x00\n        /* \"#utility.yul\":15774:15776   */\n      0x20\n        /* \"#utility.yul\":15763:15772   */\n      dup3\n        /* \"#utility.yul\":15759:15777   */\n      add\n        /* \"#utility.yul\":15751:15777   */\n      swap1\n      pop\n        /* \"#utility.yul\":15823:15832   */\n      dup2\n        /* \"#utility.yul\":15817:15821   */\n      dup2\n        /* \"#utility.yul\":15813:15833   */\n      sub\n        /* \"#utility.yul\":15809:15810   */\n      0x00\n        /* \"#utility.yul\":15798:15807   */\n      dup4\n        /* \"#utility.yul\":15794:15811   */\n      add\n        /* \"#utility.yul\":15787:15834   */\n      mstore\n        /* \"#utility.yul\":15851:15982   */\n      tag_493\n        /* \"#utility.yul\":15977:15981   */\n      dup2\n        /* \"#utility.yul\":15851:15982   */\n      tag_317\n      jump\t// in\n    tag_493:\n        /* \"#utility.yul\":15843:15982   */\n      swap1\n      pop\n        /* \"#utility.yul\":15570:15989   */\n      swap2\n      swap1\n      pop\n      jump\t// out\n        /* \"#utility.yul\":15995:16165   */\n    tag_318:\n        /* \"#utility.yul\":16135:16157   */\n      0x496e76616c696420757365722061646472657373000000000000000000000000\n        /* \"#utility.yul\":16131:16132   */\n      0x00\n        /* \"#utility.yul\":16123:16129   */\n      dup3\n        /* \"#utility.yul\":16119:16133   */\n      add\n        /* \"#utility.yul\":16112:16158   */\n      mstore\n        /* \"#utility.yul\":15995:16165   */\n      pop\n      jump\t// out\n        /* \"#utility.yul\":16171:16537   */\n    tag_319:\n        /* \"#utility.yul\":16313:16316   */\n      0x00\n        /* \"#utility.yul\":16334:16401   */\n      tag_496\n        /* \"#utility.yul\":16398:16400   */\n      0x14\n        /* \"#utility.yul\":16393:16396   */\n      dup4\n        /* \"#utility.yul\":16334:16401   */\n      tag_286\n      jump\t// in\n    tag_496:\n        /* \"#utility.yul\":16327:16401   */\n      swap2\n      pop\n        /* \"#utility.yul\":16410:16503   */\n      tag_497\n        /* \"#utility.yul\":16499:16502   */\n      dup3\n        /* \"#utility.yul\":16410:16503   */\n      tag_318\n      jump\t// in\n    tag_497:\n        /* \"#utility.yul\":16528:16530   */\n      0x20\n        /* \"#utility.yul\":16523:16526   */\n      dup3\n        /* \"#utility.yul\":16519:16531   */\n      add\n        /* \"#utility.yul\":16512:16531   */\n      swap1\n      pop\n        /* \"#utility.yul\":16171:16537   */\n      swap2\n      swap1\n      pop\n      jump\t// out\n        /* \"#utility.yul\":16543:16962   */\n    tag_155:\n        /* \"#utility.yul\":16709:16713   */\n      0x00\n        /* \"#utility.yul\":16747:16749   */\n      0x20\n        /* \"#utility.yul\":16736:16745   */\n      dup3\n        /* \"#utility.yul\":16732:16750   */\n      add\n        /* \"#utility.yul\":16724:16750   */\n      swap1\n      pop\n        /* \"#utility.yul\":16796:16805   */\n      dup2\n        /* \"#utility.yul\":16790:16794   */\n      dup2\n        /* \"#utility.yul\":16786:16806   */\n      sub\n        /* \"#utility.yul\":16782:16783   */\n      0x00\n        /* \"#utility.yul\":16771:16780   */\n      dup4\n        /* \"#utility.yul\":16767:16784   */\n      add\n        /* \"#utility.yul\":16760:16807   */\n      mstore\n        /* \"#utility.yul\":16824:16955   */\n      tag_499\n        /* \"#utility.yul\":16950:16954   */\n      dup2\n        /* \"#utility.yul\":16824:16955   */\n      tag_319\n      jump\t// in\n    tag_499:\n        /* \"#utility.yul\":16816:16955   */\n      swap1\n      pop\n        /* \"#utility.yul\":16543:16962   */\n      swap2\n      swap1\n      pop\n      jump\t// out\n        /* \"#utility.yul\":16968:17147   */\n    tag_320:\n        /* \"#utility.yul\":17108:17139   */\n      0x416d6f756e74206d7573742062652067726561746572207468616e2030000000\n        /* \"#utility.yul\":17104:17105   */\n      0x00\n        /* \"#utility.yul\":17096:17102   */\n      dup3\n        /* \"#utility.yul\":17092:17106   */\n      add\n        /* \"#utility.yul\":17085:17140   */\n      mstore\n        /* \"#utility.yul\":16968:17147   */\n      pop\n      jump\t// out\n        /* \"#utility.yul\":17153:17519   */\n    tag_321:\n        /* \"#utility.yul\":17295:17298   */\n      0x00\n        /* \"#utility.yul\":17316:17383   */\n      tag_502\n        /* \"#utility.yul\":17380:17382   */\n      0x1d\n        /* \"#utility.yul\":17375:17378   */\n      dup4\n        /* \"#utility.yul\":17316:17383   */\n      tag_286\n      jump\t// in\n    tag_502:\n        /* \"#utility.yul\":17309:17383   */\n      swap2\n      pop\n        /* \"#utility.yul\":17392:17485   */\n      tag_503\n        /* \"#utility.yul\":17481:17484   */\n      dup3\n        /* \"#utility.yul\":17392:17485   */\n      tag_320\n      jump\t// in\n    tag_503:\n        /* \"#utility.yul\":17510:17512   */\n      0x20\n        /* \"#utility.yul\":17505:17508   */\n      dup3\n        /* \"#utility.yul\":17501:17513   */\n      add\n        /* \"#utility.yul\":17494:17513   */\n      swap1\n      pop\n        /* \"#utility.yul\":17153:17519   */\n      swap2\n      swap1\n      pop\n      jump\t// out\n        /* \"#utility.yul\":17525:17944   */\n    tag_158:\n        /* \"#utility.yul\":17691:17695   */\n      0x00\n        /* \"#utility.yul\":17729:17731   */\n      0x20\n        /* \"#utility.yul\":17718:17727   */\n      dup3\n        /* \"#utility.yul\":17714:17732   */\n      add\n        /* \"#utility.yul\":17706:17732   */\n      swap1\n      pop\n        /* \"#utility.yul\":17778:17787   */\n      dup2\n        /* \"#utility.yul\":17772:17776   */\n      dup2\n        /* \"#utility.yul\":17768:17788   */\n      sub\n        /* \"#utility.yul\":17764:17765   */\n      0x00\n        /* \"#utility.yul\":17753:17762   */\n      dup4\n        /* \"#utility.yul\":17749:17766   */\n      add\n        /* \"#utility.yul\":17742:17789   */\n      mstore\n        /* \"#utility.yul\":17806:17937   */\n      tag_505\n        /* \"#utility.yul\":17932:17936   */\n      dup2\n        /* \"#utility.yul\":17806:17937   */\n      tag_321\n      jump\t// in\n    tag_505:\n        /* \"#utility.yul\":17798:17937   */\n      swap1\n      pop\n        /* \"#utility.yul\":17525:17944   */\n      swap2\n      swap1\n      pop\n      jump\t// out\n        /* \"#utility.yul\":17950:18130   */\n    tag_322:\n        /* \"#utility.yul\":17998:18075   */\n      0x4e487b7100000000000000000000000000000000000000000000000000000000\n        /* \"#utility.yul\":17995:17996   */\n      0x00\n        /* \"#utility.yul\":17988:18076   */\n      mstore\n        /* \"#utility.yul\":18095:18099   */\n      0x11\n        /* \"#utility.yul\":18092:18093   */\n      0x04\n        /* \"#utility.yul\":18085:18100   */\n      mstore\n        /* \"#utility.yul\":18119:18123   */\n      0x24\n        /* \"#utility.yul\":18116:18117   */\n      0x00\n        /* \"#utility.yul\":18109:18124   */\n      revert\n        /* \"#utility.yul\":18136:18441   */\n    tag_160:\n        /* \"#utility.yul\":18176:18179   */\n      0x00\n        /* \"#utility.yul\":18195:18215   */\n      tag_508\n        /* \"#utility.yul\":18213:18214   */\n      dup3\n        /* \"#utility.yul\":18195:18215   */\n      tag_280\n      jump\t// in\n    tag_508:\n        /* \"#utility.yul\":18190:18215   */\n      swap2\n      pop\n        /* \"#utility.yul\":18229:18249   */\n      tag_509\n        /* \"#utility.yul\":18247:18248   */\n      dup4\n        /* \"#utility.yul\":18229:18249   */\n      tag_280\n      jump\t// in\n    tag_509:\n        /* \"#utility.yul\":18224:18249   */\n      swap3\n      pop\n        /* \"#utility.yul\":18383:18384   */\n      dup3\n        /* \"#utility.yul\":18315:18381   */\n      0xffffffffffffffffffffffffffffffffffffffffffffffffffffffffffffffff\n        /* \"#utility.yul\":18311:18385   */\n      sub\n        /* \"#utility.yul\":18308:18309   */\n      dup3\n        /* \"#utility.yul\":18305:18386   */\n      gt\n        /* \"#utility.yul\":18302:18409   */\n      iszero\n      tag_510\n      jumpi\n        /* \"#utility.yul\":18389:18407   */\n      tag_511\n      tag_322\n      jump\t// in\n    tag_511:\n        /* \"#utility.yul\":18302:18409   */\n    tag_510:\n        /* \"#utility.yul\":18433:18434   */\n      dup3\n        /* \"#utility.yul\":18430:18431   */\n      dup3\n        /* \"#utility.yul\":18426:18435   */\n      add\n        /* \"#utility.yul\":18419:18435   */\n      swap1\n      pop\n        /* \"#utility.yul\":18136:18441   */\n      swap3\n      swap2\n      pop\n      pop\n      jump\t// out\n        /* \"#utility.yul\":18447:18870   */\n    tag_164:\n        /* \"#utility.yul\":18588:18592   */\n      0x00\n        /* \"#utility.yul\":18626:18628   */\n      0x40\n        /* \"#utility.yul\":18615:18624   */\n      dup3\n        /* \"#utility.yul\":18611:18629   */\n      add\n        /* \"#utility.yul\":18603:18629   */\n      swap1\n      pop\n        /* \"#utility.yul\":18639:18710   */\n      tag_513\n        /* \"#utility.yul\":18707:18708   */\n      0x00\n        /* \"#utility.yul\":18696:18705   */\n      dup4\n        /* \"#utility.yul\":18692:18709   */\n      add\n        /* \"#utility.yul\":18683:18689   */\n      dup6\n        /* \"#utility.yul\":18639:18710   */\n      tag_281\n      jump\t// in\n    tag_513:\n        /* \"#utility.yul\":18757:18766   */\n      dup2\n        /* \"#utility.yul\":18751:18755   */\n      dup2\n        /* \"#utility.yul\":18747:18767   */\n      sub\n        /* \"#utility.yul\":18742:18744   */\n      0x20\n        /* \"#utility.yul\":18731:18740   */\n      dup4\n        /* \"#utility.yul\":18727:18745   */\n      add\n        /* \"#utility.yul\":18720:18768   */\n      mstore\n        /* \"#utility.yul\":18785:18863   */\n      tag_514\n        /* \"#utility.yul\":18858:18862   */\n      dup2\n        /* \"#utility.yul\":18849:18855   */\n      dup5\n        /* \"#utility.yul\":18785:18863   */\n      tag_289\n      jump\t// in\n    tag_514:\n        /* \"#utility.yul\":18777:18863   */\n      swap1\n      pop\n        /* \"#utility.yul\":18447:18870   */\n      swap4\n      swap3\n      pop\n      pop\n      pop\n      jump\t// out\n        /* \"#utility.yul\":18876:19134   */\n    tag_180:\n        /* \"#utility.yul\":18987:18991   */\n      0x00\n        /* \"#utility.yul\":19025:19027   */\n      0x20\n        /* \"#utility.yul\":19014:19023   */\n      dup3\n        /* \"#utility.yul\":19010:19028   */\n      add\n        /* \"#utility.yul\":19002:19028   */\n      swap1\n      pop\n        /* \"#utility.yul\":19038:19127   */\n      tag_516\n        /* \"#utility.yul\":19124:19125   */\n      0x00\n        /* \"#utility.yul\":19113:19122   */\n      dup4\n        /* \"#utility.yul\":19109:19126   */\n      add\n        /* \"#utility.yul\":19100:19106   */\n      dup5\n        /* \"#utility.yul\":19038:19127   */\n      tag_293\n      jump\t// in\n    tag_516:\n        /* \"#utility.yul\":18876:19134   */\n      swap3\n      swap2\n      pop\n      pop\n      jump\t// out\n        /* \"#utility.yul\":19140:19360   */\n    tag_323:\n        /* \"#utility.yul\":19280:19314   */\n      0x4f6e6c79206f776e65722063616e2063616c6c20746869732066756e6374696f\n        /* \"#utility.yul\":19276:19277   */\n      0x00\n        /* \"#utility.yul\":19268:19274   */\n      dup3\n        /* \"#utility.yul\":19264:19278   */\n      add\n        /* \"#utility.yul\":19257:19315   */\n      mstore\n        /* \"#utility.yul\":19349:19352   */\n      0x6e00000000000000000000000000000000000000000000000000000000000000\n        /* \"#utility.yul\":19344:19346   */\n      0x20\n        /* \"#utility.yul\":19336:19342   */\n      dup3\n        /* \"#utility.yul\":19332:19347   */\n      add\n        /* \"#utility.yul\":19325:19353   */\n      mstore\n        /* \"#utility.yul\":19140:19360   */\n      pop\n      jump\t// out\n        /* \"#utility.yul\":19366:19732   */\n    tag_324:\n        /* \"#utility.yul\":19508:19511   */\n      0x00\n        /* \"#utility.yul\":19529:19596   */\n      tag_519\n        /* \"#utility.yul\":19593:19595   */\n      0x21\n        /* \"#utility.yul\":19588:19591   */\n      dup4\n        /* \"#utility.yul\":19529:19596   */\n      tag_286\n      jump\t// in\n    tag_519:\n        /* \"#utility.yul\":19522:19596   */\n      swap2\n      pop\n        /* \"#utility.yul\":19605:19698   */\n      tag_520\n        /* \"#utility.yul\":19694:19697   */\n      dup3\n        /* \"#utility.yul\":19605:19698   */\n      tag_323\n      jump\t// in\n    tag_520:\n        /* \"#utility.yul\":19723:19725   */\n      0x40\n        /* \"#utility.yul\":19718:19721   */\n      dup3\n        /* \"#utility.yul\":19714:19726   */\n      add\n        /* \"#utility.yul\":19707:19726   */\n      swap1\n      pop\n        /* \"#utility.yul\":19366:19732   */\n      swap2\n      swap1\n      pop\n      jump\t// out\n        /* \"#utility.yul\":19738:20157   */\n    tag_184:\n        /* \"#utility.yul\":19904:19908   */\n      0x00\n        /* \"#utility.yul\":19942:19944   */\n      0x20\n        /* \"#utility.yul\":19931:19940   */\n      dup3\n        /* \"#utility.yul\":19927:19945   */\n      add\n        /* \"#utility.yul\":19919:19945   */\n      swap1\n      pop\n        /* \"#utility.yul\":19991:20000   */\n      dup2\n        /* \"#utility.yul\":19985:19989   */\n      dup2\n        /* \"#utility.yul\":19981:20001   */\n      sub\n        /* \"#utility.yul\":19977:19978   */\n      0x00\n        /* \"#utility.yul\":19966:19975   */\n      dup4\n        /* \"#utility.yul\":19962:19979   */\n      add\n        /* \"#utility.yul\":19955:20002   */\n      mstore\n        /* \"#utility.yul\":20019:20150   */\n      tag_522\n        /* \"#utility.yul\":20145:20149   */\n      dup2\n        /* \"#utility.yul\":20019:20150   */\n      tag_324\n      jump\t// in\n    tag_522:\n        /* \"#utility.yul\":20011:20150   */\n      swap1\n      pop\n        /* \"#utility.yul\":19738:20157   */\n      swap2\n      swap1\n      pop\n      jump\t// out\n        /* \"#utility.yul\":20163:20338   */\n    tag_325:\n        /* \"#utility.yul\":20303:20330   */\n      0x496e76616c696420726563697069656e74206164647265737300000000000000\n        /* \"#utility.yul\":20299:20300   */\n      0x00\n        /* \"#utility.yul\":20291:20297   */\n      dup3\n        /* \"#utility.yul\":20287:20301   */\n      add\n        /* \"#utility.yul\":20280:20331   */\n      mstore\n        /* \"#utility.yul\":20163:20338   */\n      pop\n      jump\t// out\n        /* \"#utility.yul\":20344:20710   */\n    tag_326:\n        /* \"#utility.yul\":20486:20489   */\n      0x00\n        /* \"#utility.yul\":20507:20574   */\n      tag_525\n        /* \"#utility.yul\":20571:20573   */\n      0x19\n        /* \"#utility.yul\":20566:20569   */\n      dup4\n        /* \"#utility.yul\":20507:20574   */\n      tag_286\n      jump\t// in\n    tag_525:\n        /* \"#utility.yul\":20500:20574   */\n      swap2\n      pop\n        /* \"#utility.yul\":20583:20676   */\n      tag_526\n        /* \"#utility.yul\":20672:20675   */\n      dup3\n        /* \"#utility.yul\":20583:20676   */\n      tag_325\n      jump\t// in\n    tag_526:\n        /* \"#utility.yul\":20701:20703   */\n      0x20\n        /* \"#utility.yul\":20696:20699   */\n      dup3\n        /* \"#utility.yul\":20692:20704   */\n      add\n        /* \"#utility.yul\":20685:20704   */\n      swap1\n      pop\n        /* \"#utility.yul\":20344:20710   */\n      swap2\n      swap1\n      pop\n      jump\t// out\n        /* \"#utility.yul\":20716:21135   */\n    tag_190:\n        /* \"#utility.yul\":20882:20886   */\n      0x00\n        /* \"#utility.yul\":20920:20922   */\n      0x20\n        /* \"#utility.yul\":20909:20918   */\n      dup3\n        /* \"#utility.yul\":20905:20923   */\n      add\n        /* \"#utility.yul\":20897:20923   */\n      swap1\n      pop\n        /* \"#utility.yul\":20969:20978   */\n      dup2\n        /* \"#utility.yul\":20963:20967   */\n      dup2\n        /* \"#utility.yul\":20959:20979   */\n      sub\n        /* \"#utility.yul\":20955:20956   */\n      0x00\n        /* \"#utility.yul\":20944:20953   */\n      dup4\n        /* \"#utility.yul\":20940:20957   */\n      add\n        /* \"#utility.yul\":20933:20980   */\n      mstore\n        /* \"#utility.yul\":20997:21128   */\n      tag_528\n        /* \"#utility.yul\":21123:21127   */\n      dup2\n        /* \"#utility.yul\":20997:21128   */\n      tag_326\n      jump\t// in\n    tag_528:\n        /* \"#utility.yul\":20989:21128   */\n      swap1\n      pop\n        /* \"#utility.yul\":20716:21135   */\n      swap2\n      swap1\n      pop\n      jump\t// out\n        /* \"#utility.yul\":21141:21311   */\n    tag_327:\n        /* \"#utility.yul\":21281:21303   */\n      0x496e73756666696369656e742062616c616e6365000000000000000000000000\n        /* \"#utility.yul\":21277:21278   */\n      0x00\n        /* \"#utility.yul\":21269:21275   */\n      dup3\n        /* \"#utility.yul\":21265:21279   */\n      add\n        /* \"#utility.yul\":21258:21304   */\n      mstore\n        /* \"#utility.yul\":21141:21311   */\n      pop\n      jump\t// out\n        /* \"#utility.yul\":21317:21683   */\n    tag_328:\n        /* \"#utility.yul\":21459:21462   */\n      0x00\n        /* \"#utility.yul\":21480:21547   */\n      tag_531\n        /* \"#utility.yul\":21544:21546   */\n      0x14\n        /* \"#utility.yul\":21539:21542   */\n      dup4\n        /* \"#utility.yul\":21480:21547   */\n      tag_286\n      jump\t// in\n    tag_531:\n        /* \"#utility.yul\":21473:21547   */\n      swap2\n      pop\n        /* \"#utility.yul\":21556:21649   */\n      tag_532\n        /* \"#utility.yul\":21645:21648   */\n      dup3\n        /* \"#utility.yul\":21556:21649   */\n      tag_327\n      jump\t// in\n    tag_532:\n        /* \"#utility.yul\":21674:21676   */\n      0x20\n        /* \"#utility.yul\":21669:21672   */\n      dup3\n        /* \"#utility.yul\":21665:21677   */\n      add\n        /* \"#utility.yul\":21658:21677   */\n      swap1\n      pop\n        /* \"#utility.yul\":21317:21683   */\n      swap2\n      swap1\n      pop\n      jump\t// out\n        /* \"#utility.yul\":21689:22108   */\n    tag_195:\n        /* \"#utility.yul\":21855:21859   */\n      0x00\n        /* \"#utility.yul\":21893:21895   */\n      0x20\n        /* \"#utility.yul\":21882:21891   */\n      dup3\n        /* \"#utility.yul\":21878:21896   */\n      add\n        /* \"#utility.yul\":21870:21896   */\n      swap1\n      pop\n        /* \"#utility.yul\":21942:21951   */\n      dup2\n        /* \"#utility.yul\":21936:21940   */\n      dup2\n        /* \"#utility.yul\":21932:21952   */\n      sub\n        /* \"#utility.yul\":21928:21929   */\n      0x00\n        /* \"#utility.yul\":21917:21926   */\n      dup4\n        /* \"#utility.yul\":21913:21930   */\n      add\n        /* \"#utility.yul\":21906:21953   */\n      mstore\n        /* \"#utility.yul\":21970:22101   */\n      tag_534\n        /* \"#utility.yul\":22096:22100   */\n      dup2\n        /* \"#utility.yul\":21970:22101   */\n      tag_328\n      jump\t// in\n    tag_534:\n        /* \"#utility.yul\":21962:22101   */\n      swap1\n      pop\n        /* \"#utility.yul\":21689:22108   */\n      swap2\n      swap1\n      pop\n      jump\t// out\n        /* \"#utility.yul\":22114:22347   */\n    tag_197:\n        /* \"#utility.yul\":22153:22156   */\n      0x00\n        /* \"#utility.yul\":22176:22200   */\n      tag_536\n        /* \"#utility.yul\":22194:22199   */\n      dup3\n        /* \"#utility.yul\":22176:22200   */\n      tag_280\n      jump\t// in\n    tag_536:\n        /* \"#utility.yul\":22167:22200   */\n      swap2\n      pop\n        /* \"#utility.yul\":22222:22288   */\n      0xffffffffffffffffffffffffffffffffffffffffffffffffffffffffffffffff\n        /* \"#utility.yul\":22215:22220   */\n      dup3\n        /* \"#utility.yul\":22212:22289   */\n      eq\n        /* \"#utility.yul\":22209:22312   */\n      iszero\n      tag_537\n      jumpi\n        /* \"#utility.yul\":22292:22310   */\n      tag_538\n      tag_322\n      jump\t// in\n    tag_538:\n        /* \"#utility.yul\":22209:22312   */\n    tag_537:\n        /* \"#utility.yul\":22339:22340   */\n      0x01\n        /* \"#utility.yul\":22332:22337   */\n      dup3\n        /* \"#utility.yul\":22328:22341   */\n      add\n        /* \"#utility.yul\":22321:22341   */\n      swap1\n      pop\n        /* \"#utility.yul\":22114:22347   */\n      swap2\n      swap1\n      pop\n      jump\t// out\n        /* \"#utility.yul\":22353:22544   */\n    tag_212:\n        /* \"#utility.yul\":22393:22397   */\n      0x00\n        /* \"#utility.yul\":22413:22433   */\n      tag_540\n        /* \"#utility.yul\":22431:22432   */\n      dup3\n        /* \"#utility.yul\":22413:22433   */\n      tag_280\n      jump\t// in\n    tag_540:\n        /* \"#utility.yul\":22408:22433   */\n      swap2\n      pop\n        /* \"#utility.yul\":22447:22467   */\n      tag_541\n        /* \"#utility.yul\":22465:22466   */\n      dup4\n        /* \"#utility.yul\":22447:22467   */\n      tag_280\n      jump\t// in\n    tag_541:\n        /* \"#utility.yul\":22442:22467   */\n      swap3\n      pop\n        /* \"#utility.yul\":22486:22487   */\n      dup3\n        /* \"#utility.yul\":22483:22484   */\n      dup3\n        /* \"#utility.yul\":22480:22488   */\n      lt\n        /* \"#utility.yul\":22477:22511   */\n      iszero\n      tag_542\n      jumpi\n        /* \"#utility.yul\":22491:22509   */\n      tag_543\n      tag_322\n      jump\t// in\n    tag_543:\n        /* \"#utility.yul\":22477:22511   */\n    tag_542:\n        /* \"#utility.yul\":22536:22537   */\n      dup3\n        /* \"#utility.yul\":22533:22534   */\n      dup3\n        /* \"#utility.yul\":22529:22538   */\n      sub\n        /* \"#utility.yul\":22521:22538   */\n      swap1\n      pop\n        /* \"#utility.yul\":22353:22544   */\n      swap3\n      swap2\n      pop\n      pop\n      jump\t// out\n        /* \"#utility.yul\":22550:22691   */\n    tag_329:\n        /* \"#utility.yul\":22599:22603   */\n      0x00\n        /* \"#utility.yul\":22622:22625   */\n      dup2\n        /* \"#utility.yul\":22614:22625   */\n      swap1\n      pop\n        /* \"#utility.yul\":22645:22648   */\n      dup2\n        /* \"#utility.yul\":22642:22643   */\n      0x00\n        /* \"#utility.yul\":22635:22649   */\n      mstore\n        /* \"#utility.yul\":22679:22683   */\n      0x20\n        /* \"#utility.yul\":22676:22677   */\n      0x00\n        /* \"#utility.yul\":22666:22684   */\n      keccak256\n        /* \"#utility.yul\":22658:22684   */\n      swap1\n      pop\n        /* \"#utility.yul\":22550:22691   */\n      swap2\n      swap1\n      pop\n      jump\t// out\n        /* \"#utility.yul\":22721:23523   */\n    tag_330:\n        /* \"#utility.yul\":22806:22809   */\n      0x00\n        /* \"#utility.yul\":22843:22848   */\n      dup2\n        /* \"#utility.yul\":22837:22849   */\n      sload\n        /* \"#utility.yul\":22872:22908   */\n      tag_546\n        /* \"#utility.yul\":22898:22907   */\n      dup2\n        /* \"#utility.yul\":22872:22908   */\n      tag_105\n      jump\t// in\n    tag_546:\n        /* \"#utility.yul\":22924:22995   */\n      tag_547\n        /* \"#utility.yul\":22988:22994   */\n      dup2\n        /* \"#utility.yul\":22983:22986   */\n      dup7\n        /* \"#utility.yul\":22924:22995   */\n      tag_286\n      jump\t// in\n    tag_547:\n        /* \"#utility.yul\":22917:22995   */\n      swap5\n      pop\n        /* \"#utility.yul\":23026:23027   */\n      0x01\n        /* \"#utility.yul\":23015:23024   */\n      dup3\n        /* \"#utility.yul\":23011:23028   */\n      and\n        /* \"#utility.yul\":23042:23043   */\n      0x00\n        /* \"#utility.yul\":23037:23172   */\n      dup2\n      eq\n      tag_549\n      jumpi\n        /* \"#utility.yul\":23186:23187   */\n      0x01\n        /* \"#utility.yul\":23181:23517   */\n      dup2\n      eq\n      tag_550\n      jumpi\n        /* \"#utility.yul\":23004:23517   */\n      jump(tag_548)\n        /* \"#utility.yul\":23037:23172   */\n    tag_549:\n        /* \"#utility.yul\":23121:23125   */\n      0xff\n        /* \"#utility.yul\":23117:23126   */\n      not\n        /* \"#utility.yul\":23106:23115   */\n      dup4\n        /* \"#utility.yul\":23102:23127   */\n      and\n        /* \"#utility.yul\":23097:23100   */\n      dup7\n        /* \"#utility.yul\":23090:23128   */\n      mstore\n        /* \"#utility.yul\":23157:23161   */\n      0x20\n        /* \"#utility.yul\":23152:23155   */\n      dup7\n        /* \"#utility.yul\":23148:23162   */\n      add\n        /* \"#utility.yul\":23141:23162   */\n      swap4\n      pop\n        /* \"#utility.yul\":23037:23172   */\n      jump(tag_548)\n        /* \"#utility.yul\":23181:23517   */\n    tag_550:\n        /* \"#utility.yul\":23248:23286   */\n      tag_551\n        /* \"#utility.yul\":23280:23285   */\n      dup6\n        /* \"#utility.yul\":23248:23286   */\n      tag_329\n      jump\t// in\n    tag_551:\n        /* \"#utility.yul\":23308:23309   */\n      0x00\n        /* \"#utility.yul\":23322:23476   */\n    tag_552:\n        /* \"#utility.yul\":23336:23342   */\n      dup4\n        /* \"#utility.yul\":23333:23334   */\n      dup2\n        /* \"#utility.yul\":23330:23343   */\n      lt\n        /* \"#utility.yul\":23322:23476   */\n      iszero\n      tag_554\n      jumpi\n        /* \"#utility.yul\":23410:23417   */\n      dup2\n        /* \"#utility.yul\":23404:23418   */\n      sload\n        /* \"#utility.yul\":23400:23401   */\n      dup2\n        /* \"#utility.yul\":23395:23398   */\n      dup10\n        /* \"#utility.yul\":23391:23402   */\n      add\n        /* \"#utility.yul\":23384:23419   */\n      mstore\n        /* \"#utility.yul\":23460:23461   */\n      0x01\n        /* \"#utility.yul\":23451:23458   */\n      dup3\n        /* \"#utility.yul\":23447:23462   */\n      add\n        /* \"#utility.yul\":23436:23462   */\n      swap2\n      pop\n        /* \"#utility.yul\":23358:23362   */\n      0x20\n        /* \"#utility.yul\":23355:23356   */\n      dup2\n        /* \"#utility.yul\":23351:23363   */\n      add\n        /* \"#utility.yul\":23346:23363   */\n      swap1\n      pop\n        /* \"#utility.yul\":23322:23476   */\n      jump(tag_552)\n    tag_554:\n        /* \"#utility.yul\":23505:23506   */\n      dup1\n        /* \"#utility.yul\":23500:23503   */\n      dup9\n        /* \"#utility.yul\":23496:23507   */\n      add\n        /* \"#utility.yul\":23489:23507   */\n      swap6\n      pop\n        /* \"#utility.yul\":23188:23517   */\n      pop\n      pop\n        /* \"#utility.yul\":23004:23517   */\n    tag_548:\n      pop\n        /* \"#utility.yul\":22810:23523   */\n      pop\n      pop\n        /* \"#utility.yul\":22721:23523   */\n      swap3\n      swap2\n      pop\n      pop\n      jump\t// out\n        /* \"#utility.yul\":23529:24460   */\n    tag_222:\n        /* \"#utility.yul\":23791:23795   */\n      0x00\n        /* \"#utility.yul\":23829:23832   */\n      0xa0\n        /* \"#utility.yul\":23818:23827   */\n      dup3\n        /* \"#utility.yul\":23814:23833   */\n      add\n        /* \"#utility.yul\":23806:23833   */\n      swap1\n      pop\n        /* \"#utility.yul\":23843:23914   */\n      tag_556\n        /* \"#utility.yul\":23911:23912   */\n      0x00\n        /* \"#utility.yul\":23900:23909   */\n      dup4\n        /* \"#utility.yul\":23896:23913   */\n      add\n        /* \"#utility.yul\":23887:23893   */\n      dup9\n        /* \"#utility.yul\":23843:23914   */\n      tag_281\n      jump\t// in\n    tag_556:\n        /* \"#utility.yul\":23961:23970   */\n      dup2\n        /* \"#utility.yul\":23955:23959   */\n      dup2\n        /* \"#utility.yul\":23951:23971   */\n      sub\n        /* \"#utility.yul\":23946:23948   */\n      0x20\n        /* \"#utility.yul\":23935:23944   */\n      dup4\n        /* \"#utility.yul\":23931:23949   */\n      add\n        /* \"#utility.yul\":23924:23972   */\n      mstore\n        /* \"#utility.yul\":23989:24064   */\n      tag_557\n        /* \"#utility.yul\":24059:24063   */\n      dup2\n        /* \"#utility.yul\":24050:24056   */\n      dup8\n        /* \"#utility.yul\":23989:24064   */\n      tag_330\n      jump\t// in\n    tag_557:\n        /* \"#utility.yul\":23981:24064   */\n      swap1\n      pop\n        /* \"#utility.yul\":24111:24120   */\n      dup2\n        /* \"#utility.yul\":24105:24109   */\n      dup2\n        /* \"#utility.yul\":24101:24121   */\n      sub\n        /* \"#utility.yul\":24096:24098   */\n      0x40\n        /* \"#utility.yul\":24085:24094   */\n      dup4\n        /* \"#utility.yul\":24081:24099   */\n      add\n        /* \"#utility.yul\":24074:24122   */\n      mstore\n        /* \"#utility.yul\":24139:24217   */\n      tag_558\n        /* \"#utility.yul\":24212:24216   */\n      dup2\n        /* \"#utility.yul\":24203:24209   */\n      dup7\n        /* \"#utility.yul\":24139:24217   */\n      tag_289\n      jump\t// in\n    tag_558:\n        /* \"#utility.yul\":24131:24217   */\n      swap1\n      pop\n        /* \"#utility.yul\":24264:24273   */\n      dup2\n        /* \"#utility.yul\":24258:24262   */\n      dup2\n        /* \"#utility.yul\":24254:24274   */\n      sub\n        /* \"#utility.yul\":24249:24251   */\n      0x60\n        /* \"#utility.yul\":24238:24247   */\n      dup4\n        /* \"#utility.yul\":24234:24252   */\n      add\n        /* \"#utility.yul\":24227:24275   */\n      mstore\n        /* \"#utility.yul\":24292:24370   */\n      tag_559\n        /* \"#utility.yul\":24365:24369   */\n      dup2\n        /* \"#utility.yul\":24356:24362   */\n      dup6\n        /* \"#utility.yul\":24292:24370   */\n      tag_289\n      jump\t// in\n    tag_559:\n        /* \"#utility.yul\":24284:24370   */\n      swap1\n      pop\n        /* \"#utility.yul\":24380:24453   */\n      tag_560\n        /* \"#utility.yul\":24448:24451   */\n      0x80\n        /* \"#utility.yul\":24437:24446   */\n      dup4\n        /* \"#utility.yul\":24433:24452   */\n      add\n        /* \"#utility.yul\":24424:24430   */\n      dup5\n        /* \"#utility.yul\":24380:24453   */\n      tag_281\n      jump\t// in\n    tag_560:\n        /* \"#utility.yul\":23529:24460   */\n      swap7\n      swap6\n      pop\n      pop\n      pop\n      pop\n      pop\n      pop\n      jump\t// out\n\n    auxdata: 0xa2646970667358221220f0f517f01134eb02dc77b2fe74fe355bf3af62346ebeaeafefe48b10d4b69fbf64736f6c634300080a0033\n}\n",
    "bytecode": {
      "linkReferences": {},
      "object": "608060405234801561001057600080fd5b5033600460006101000a81548173ffffffffffffffffffffffffffffffffffffffff021916908373ffffffffffffffffffffffffffffffffffffffff160217905550600060068190555061293d806100696000396000f3fe6080604052600436106100dd5760003560e01c8063b74825091161007f578063e9c0281511610059578063e9c02815146102e7578063ef92539914610324578063f8b2cb4f14610361578063f99185c21461039e576100dd565b8063b748250914610279578063bafbf72814610295578063c559e45d146102be576100dd565b8063392c5bd8116100bb578063392c5bd81461018f5780638da5cb5b146101cc5780639ace38c2146101f7578063a29698201461023c576100dd565b806327e235e3146100e25780632e7700f01461011f57806333ea3dc81461014a575b600080fd5b3480156100ee57600080fd5b5061010960048036038101906101049190611cb0565b6103db565b6040516101169190611cf6565b60405180910390f35b34801561012b57600080fd5b506101346103f3565b6040516101419190611cf6565b60405180910390f35b34801561015657600080fd5b50610171600480360381019061016c9190611d3d565b610400565b60405161018699989796959493929190611e89565b60405180910390f35b34801561019b57600080fd5b506101b660048036038101906101b19190611cb0565b6107b3565b6040516101c39190611f2b565b60405180910390f35b3480156101d857600080fd5b506101e1610853565b6040516101ee9190611f4d565b60405180910390f35b34801561020357600080fd5b5061021e60048036038101906102199190611d3d565b610879565b60405161023399989796959493929190611e89565b60405180910390f35b34801561024857600080fd5b50610263600480360381019061025e9190611cb0565b610abc565b6040516102709190611f83565b60405180910390f35b610293600480360381019061028e91906120d3565b610adc565b005b3480156102a157600080fd5b506102bc60048036038101906102b79190612154565b610dfc565b005b3480156102ca57600080fd5b506102e560048036038101906102e091906120d3565b610fd2565b005b3480156102f357600080fd5b5061030e60048036038101906103099190612194565b611112565b60405161031b9190611cf6565b60405180910390f35b34801561033057600080fd5b5061034b60048036038101906103469190611cb0565b61184c565b60405161035891906122f1565b60405180910390f35b34801561036d57600080fd5b5061038860048036038101906103839190611cb0565b611b3b565b6040516103959190611cf6565b60405180910390f35b3480156103aa57600080fd5b506103c560048036038101906103c09190611d3d565b611b83565b6040516103d29190611cf6565b60405180910390f35b60006020528060005260406000206000915090505481565b6000600280549050905090565b600080600080606080606060008060008a11801561042057506006548a11155b61045f576040517f08c379a00000000000000000000000000000000000000000000000000000000081526004016104569061235f565b60405180910390fd5b6000600360008c815260200190815260200160002054905060006002828154811061048d5761048c61237f565b5b906000526020600020906009020160405180610120016040529081600082015481526020016001820160009054906101000a900473ffffffffffffffffffffffffffffffffffffffff1673ffffffffffffffffffffffffffffffffffffffff1673ffffffffffffffffffffffffffffffffffffffff1681526020016002820160009054906101000a900473ffffffffffffffffffffffffffffffffffffffff1673ffffffffffffffffffffffffffffffffffffffff1673ffffffffffffffffffffffffffffffffffffffff16815260200160038201548152602001600482018054610577906123dd565b80601f01602080910402602001604051908101604052809291908181526020018280546105a3906123dd565b80156105f05780601f106105c5576101008083540402835291602001916105f0565b820191906000526020600020905b8154815290600101906020018083116105d357829003601f168201915b50505050508152602001600582018054610609906123dd565b80601f0160208091040260200160405190810160405280929190818152602001828054610635906123dd565b80156106825780601f1061065757610100808354040283529160200191610682565b820191906000526020600020905b81548152906001019060200180831161066557829003601f168201915b5050505050815260200160068201805461069b906123dd565b80601f01602080910402602001604051908101604052809291908181526020018280546106c7906123dd565b80156107145780601f106106e957610100808354040283529160200191610714565b820191906000526020600020905b8154815290600101906020018083116106f757829003601f168201915b50505050508152602001600782015481526020016008820160009054906101000a900460ff16600381111561074c5761074b611e12565b5b600381111561075e5761075d611e12565b5b815250509050806000015181602001518260400151836060015184608001518560a001518660c001518760e001518861010001519a509a509a509a509a509a509a509a509a5050509193959799909294969850565b600160205280600052604060002060009150905080546107d2906123dd565b80601f01602080910402602001604051908101604052809291908181526020018280546107fe906123dd565b801561084b5780601f106108205761010080835404028352916020019161084b565b820191906000526020600020905b81548152906001019060200180831161082e57829003601f168201915b505050505081565b600460009054906101000a900473ffffffffffffffffffffffffffffffffffffffff1681565b6002818154811061088957600080fd5b90600052602060002090600902016000915090508060000154908060010160009054906101000a900473ffffffffffffffffffffffffffffffffffffffff16908060020160009054906101000a900473ffffffffffffffffffffffffffffffffffffffff1690806003015490806004018054610904906123dd565b80601f0160208091040260200160405190810160405280929190818152602001828054610930906123dd565b801561097d5780601f106109525761010080835404028352916020019161097d565b820191906000526020600020905b81548152906001019060200180831161096057829003601f168201915b505050505090806005018054610992906123dd565b80601f01602080910402602001604051908101604052809291908181526020018280546109be906123dd565b8015610a0b5780601f106109e057610100808354040283529160200191610a0b565b820191906000526020600020905b8154815290600101906020018083116109ee57829003601f168201915b505050505090806006018054610a20906123dd565b80601f0160208091040260200160405190810160405280929190818152602001828054610a4c906123dd565b8015610a995780601f10610a6e57610100808354040283529160200191610a99565b820191906000526020600020905b815481529060010190602001808311610a7c57829003601f168201915b5050505050908060070154908060080160009054906101000a900460ff16905089565b60056020528060005260406000206000915054906101000a900460ff1681565b600560003373ffffffffffffffffffffffffffffffffffffffff1673ffffffffffffffffffffffffffffffffffffffff16815260200190815260200160002060009054906101000a900460ff1680610b815750600460009054906101000a900473ffffffffffffffffffffffffffffffffffffffff1673ffffffffffffffffffffffffffffffffffffffff163373ffffffffffffffffffffffffffffffffffffffff16145b610bc0576040517f08c379a0000000000000000000000000000000000000000000000000000000008152600401610bb79061245b565b60405180910390fd5b600073ffffffffffffffffffffffffffffffffffffffff168273ffffffffffffffffffffffffffffffffffffffff161415610c30576040517f08c379a0000000000000000000000000000000000000000000000000000000008152600401610c27906124c7565b60405180910390fd5b60003411610c73576040517f08c379a0000000000000000000000000000000000000000000000000000000008152600401610c6a90612533565b60405180910390fd5b346000808473ffffffffffffffffffffffffffffffffffffffff1673ffffffffffffffffffffffffffffffffffffffff1681526020019081526020016000206000828254610cc19190612582565b9250508190555080600160008473ffffffffffffffffffffffffffffffffffffffff1673ffffffffffffffffffffffffffffffffffffffff1681526020019081526020016000209080519060200190610d1b929190611b9b565b508173ffffffffffffffffffffffffffffffffffffffff167f643e927b32d5bfd08eccd2fcbd97057ad413850f857a2359639114e8e8dd3d7b3483604051610d649291906125d8565b60405180910390a28173ffffffffffffffffffffffffffffffffffffffff167f8ad64a0ac7700dd8425ab0499f107cb6e2cd1581d803c5b8c1c79dcb8190b1af6000808573ffffffffffffffffffffffffffffffffffffffff1673ffffffffffffffffffffffffffffffffffffffff16815260200190815260200160002054604051610df09190611cf6565b60405180910390a25050565b600560003373ffffffffffffffffffffffffffffffffffffffff1673ffffffffffffffffffffffffffffffffffffffff16815260200190815260200160002060009054906101000a900460ff1680610ea15750600460009054906101000a900473ffffffffffffffffffffffffffffffffffffffff1673ffffffffffffffffffffffffffffffffffffffff163373ffffffffffffffffffffffffffffffffffffffff16145b610ee0576040517f08c379a0000000000000000000000000000000000000000000000000000000008152600401610ed79061245b565b60405180910390fd5b600082118015610ef257506006548211155b610f31576040517f08c379a0000000000000000000000000000000000000000000000000000000008152600401610f289061235f565b60405180910390fd5b6000600360008481526020019081526020016000205490508160028281548110610f5e57610f5d61237f565b5b906000526020600020906009020160080160006101000a81548160ff02191690836003811115610f9157610f90611e12565b5b0217905550827e3013893708bd175bc8eeedd6ea1e367024bbc9bc7b110e7ed37bc77aceac5783604051610fc59190612608565b60405180910390a2505050565b600460009054906101000a900473ffffffffffffffffffffffffffffffffffffffff1673ffffffffffffffffffffffffffffffffffffffff163373ffffffffffffffffffffffffffffffffffffffff1614611062576040517f08c379a000000000000000000000000000000000000000000000000000000000815260040161105990612695565b60405180910390fd5b6001600560008473ffffffffffffffffffffffffffffffffffffffff1673ffffffffffffffffffffffffffffffffffffffff16815260200190815260200160002060006101000a81548160ff02191690831515021790555080600160008473ffffffffffffffffffffffffffffffffffffffff1673ffffffffffffffffffffffffffffffffffffffff168152602001908152602001600020908051906020019061110d929190611b9b565b505050565b60008073ffffffffffffffffffffffffffffffffffffffff168573ffffffffffffffffffffffffffffffffffffffff161415611183576040517f08c379a000000000000000000000000000000000000000000000000000000000815260040161117a90612701565b60405180910390fd5b600084116111c6576040517f08c379a00000000000000000000000000000000000000000000000000000000081526004016111bd90612533565b60405180910390fd5b836000803373ffffffffffffffffffffffffffffffffffffffff1673ffffffffffffffffffffffffffffffffffffffff168152602001908152602001600020541015611247576040517f08c379a000000000000000000000000000000000000000000000000000000000815260040161123e9061276d565b60405180910390fd5b6006600081548092919061125a9061278d565b91905055506000600654905060006040518061012001604052808381526020013373ffffffffffffffffffffffffffffffffffffffff1681526020018873ffffffffffffffffffffffffffffffffffffffff168152602001878152602001600160003373ffffffffffffffffffffffffffffffffffffffff1673ffffffffffffffffffffffffffffffffffffffff1681526020019081526020016000208054611302906123dd565b80601f016020809104026020016040519081016040528092919081815260200182805461132e906123dd565b801561137b5780601f106113505761010080835404028352916020019161137b565b820191906000526020600020905b81548152906001019060200180831161135e57829003601f168201915b50505050508152602001868152602001858152602001428152602001600060038111156113ab576113aa611e12565b5b815250905060028190806001815401808255809150506001900390600052602060002090600902016000909190919091506000820151816000015560208201518160010160006101000a81548173ffffffffffffffffffffffffffffffffffffffff021916908373ffffffffffffffffffffffffffffffffffffffff16021790555060408201518160020160006101000a81548173ffffffffffffffffffffffffffffffffffffffff021916908373ffffffffffffffffffffffffffffffffffffffff16021790555060608201518160030155608082015181600401908051906020019061149a929190611b9b565b5060a08201518160050190805190602001906114b7929190611b9b565b5060c08201518160060190805190602001906114d4929190611b9b565b5060e082015181600701556101008201518160080160006101000a81548160ff0219169083600381111561150b5761150a611e12565b5b02179055505050600160028054905061152491906127d6565b6003600084815260200190815260200160002081905550856000803373ffffffffffffffffffffffffffffffffffffffff1673ffffffffffffffffffffffffffffffffffffffff168152602001908152602001600020600082825461158991906127d6565b92505081905550856000808973ffffffffffffffffffffffffffffffffffffffff1673ffffffffffffffffffffffffffffffffffffffff16815260200190815260200160002060008282546115de9190612582565b9250508190555060028060016002805490506115fa91906127d6565b8154811061160b5761160a61237f565b5b906000526020600020906009020160080160006101000a81548160ff0219169083600381111561163e5761163d611e12565b5b02179055508673ffffffffffffffffffffffffffffffffffffffff163373ffffffffffffffffffffffffffffffffffffffff16837f82e8134a6a3a6586eab71827e213b1a1f6c8b261024adbecf466eeb0240bb91689600160003373ffffffffffffffffffffffffffffffffffffffff1673ffffffffffffffffffffffffffffffffffffffff1681526020019081526020016000208a8a426040516116e795949392919061289f565b60405180910390a4817e3013893708bd175bc8eeedd6ea1e367024bbc9bc7b110e7ed37bc77aceac57600260405161171f9190612608565b60405180910390a23373ffffffffffffffffffffffffffffffffffffffff167f8ad64a0ac7700dd8425ab0499f107cb6e2cd1581d803c5b8c1c79dcb8190b1af6000803373ffffffffffffffffffffffffffffffffffffffff1673ffffffffffffffffffffffffffffffffffffffff168152602001908152602001600020546040516117ab9190611cf6565b60405180910390a28673ffffffffffffffffffffffffffffffffffffffff167f8ad64a0ac7700dd8425ab0499f107cb6e2cd1581d803c5b8c1c79dcb8190b1af6000808a73ffffffffffffffffffffffffffffffffffffffff1673ffffffffffffffffffffffffffffffffffffffff168152602001908152602001600020546040516118379190611cf6565b60405180910390a28192505050949350505050565b60606000805b600280549050811015611975578373ffffffffffffffffffffffffffffffffffffffff166002828154811061188a5761188961237f565b5b906000526020600020906009020160010160009054906101000a900473ffffffffffffffffffffffffffffffffffffffff1673ffffffffffffffffffffffffffffffffffffffff16148061194e57508373ffffffffffffffffffffffffffffffffffffffff16600282815481106119045761190361237f565b5b906000526020600020906009020160020160009054906101000a900473ffffffffffffffffffffffffffffffffffffffff1673ffffffffffffffffffffffffffffffffffffffff16145b1561196257818061195e9061278d565b9250505b808061196d9061278d565b915050611852565b5060008167ffffffffffffffff81111561199257611991611fa8565b5b6040519080825280602002602001820160405280156119c05781602001602082028036833780820191505090505b5090506000805b600280549050811015611b2f578573ffffffffffffffffffffffffffffffffffffffff16600282815481106119ff576119fe61237f565b5b906000526020600020906009020160010160009054906101000a900473ffffffffffffffffffffffffffffffffffffffff1673ffffffffffffffffffffffffffffffffffffffff161480611ac357508573ffffffffffffffffffffffffffffffffffffffff1660028281548110611a7957611a7861237f565b5b906000526020600020906009020160020160009054906101000a900473ffffffffffffffffffffffffffffffffffffffff1673ffffffffffffffffffffffffffffffffffffffff16145b15611b1c5760028181548110611adc57611adb61237f565b5b906000526020600020906009020160000154838381518110611b0157611b0061237f565b5b6020026020010181815250508180611b189061278d565b9250505b8080611b279061278d565b9150506119c7565b50819350505050919050565b60008060008373ffffffffffffffffffffffffffffffffffffffff1673ffffffffffffffffffffffffffffffffffffffff168152602001908152602001600020549050919050565b60036020528060005260406000206000915090505481565b828054611ba7906123dd565b90600052602060002090601f016020900481019282611bc95760008555611c10565b82601f10611be257805160ff1916838001178555611c10565b82800160010185558215611c10579182015b82811115611c0f578251825591602001919060010190611bf4565b5b509050611c1d9190611c21565b5090565b5b80821115611c3a576000816000905550600101611c22565b5090565b6000604051905090565b600080fd5b600080fd5b600073ffffffffffffffffffffffffffffffffffffffff82169050919050565b6000611c7d82611c52565b9050919050565b611c8d81611c72565b8114611c9857600080fd5b50565b600081359050611caa81611c84565b92915050565b600060208284031215611cc657611cc5611c48565b5b6000611cd484828501611c9b565b91505092915050565b6000819050919050565b611cf081611cdd565b82525050565b6000602082019050611d0b6000830184611ce7565b92915050565b611d1a81611cdd565b8114611d2557600080fd5b50565b600081359050611d3781611d11565b92915050565b600060208284031215611d5357611d52611c48565b5b6000611d6184828501611d28565b91505092915050565b611d7381611c72565b82525050565b600081519050919050565b600082825260208201905092915050565b60005b83811015611db3578082015181840152602081019050611d98565b83811115611dc2576000848401525b50505050565b6000601f19601f8301169050919050565b6000611de482611d79565b611dee8185611d84565b9350611dfe818560208601611d95565b611e0781611dc8565b840191505092915050565b7f4e487b7100000000000000000000000000000000000000000000000000000000600052602160045260246000fd5b60048110611e5257611e51611e12565b5b50565b6000819050611e6382611e41565b919050565b6000611e7382611e55565b9050919050565b611e8381611e68565b82525050565b600061012082019050611e9f600083018c611ce7565b611eac602083018b611d6a565b611eb9604083018a611d6a565b611ec66060830189611ce7565b8181036080830152611ed88188611dd9565b905081810360a0830152611eec8187611dd9565b905081810360c0830152611f008186611dd9565b9050611f0f60e0830185611ce7565b611f1d610100830184611e7a565b9a9950505050505050505050565b60006020820190508181036000830152611f458184611dd9565b905092915050565b6000602082019050611f626000830184611d6a565b92915050565b60008115159050919050565b611f7d81611f68565b82525050565b6000602082019050611f986000830184611f74565b92915050565b600080fd5b600080fd5b7f4e487b7100000000000000000000000000000000000000000000000000000000600052604160045260246000fd5b611fe082611dc8565b810181811067ffffffffffffffff82111715611fff57611ffe611fa8565b5b80604052505050565b6000612012611c3e565b905061201e8282611fd7565b919050565b600067ffffffffffffffff82111561203e5761203d611fa8565b5b61204782611dc8565b9050602081019050919050565b82818337600083830152505050565b600061207661207184612023565b612008565b90508281526020810184848401111561209257612091611fa3565b5b61209d848285612054565b509392505050565b600082601f8301126120ba576120b9611f9e565b5b81356120ca848260208601612063565b91505092915050565b600080604083850312156120ea576120e9611c48565b5b60006120f885828601611c9b565b925050602083013567ffffffffffffffff81111561211957612118611c4d565b5b612125858286016120a5565b9150509250929050565b6004811061213c57600080fd5b50565b60008135905061214e8161212f565b92915050565b6000806040838503121561216b5761216a611c48565b5b600061217985828601611d28565b925050602061218a8582860161213f565b9150509250929050565b600080600080608085870312156121ae576121ad611c48565b5b60006121bc87828801611c9b565b94505060206121cd87828801611d28565b935050604085013567ffffffffffffffff8111156121ee576121ed611c4d565b5b6121fa878288016120a5565b925050606085013567ffffffffffffffff81111561221b5761221a611c4d565b5b612227878288016120a5565b91505092959194509250565b600081519050919050565b600082825260208201905092915050565b6000819050602082019050919050565b61226881611cdd565b82525050565b600061227a838361225f565b60208301905092915050565b6000602082019050919050565b600061229e82612233565b6122a8818561223e565b93506122b38361224f565b8060005b838110156122e45781516122cb888261226e565b97506122d683612286565b9250506001810190506122b7565b5085935050505092915050565b6000602082019050818103600083015261230b8184612293565b905092915050565b7f496e76616c6964207472616e73616374696f6e20494400000000000000000000600082015250565b6000612349601683611d84565b915061235482612313565b602082019050919050565b600060208201905081810360008301526123788161233c565b9050919050565b7f4e487b7100000000000000000000000000000000000000000000000000000000600052603260045260246000fd5b7f4e487b7100000000000000000000000000000000000000000000000000000000600052602260045260246000fd5b600060028204905060018216806123f557607f821691505b60208210811415612409576124086123ae565b5b50919050565b7f4e6f7420617574686f72697a6564000000000000000000000000000000000000600082015250565b6000612445600e83611d84565b91506124508261240f565b602082019050919050565b6000602082019050818103600083015261247481612438565b9050919050565b7f496e76616c696420757365722061646472657373000000000000000000000000600082015250565b60006124b1601483611d84565b91506124bc8261247b565b602082019050919050565b600060208201905081810360008301526124e0816124a4565b9050919050565b7f416d6f756e74206d7573742062652067726561746572207468616e2030000000600082015250565b600061251d601d83611d84565b9150612528826124e7565b602082019050919050565b6000602082019050818103600083015261254c81612510565b9050919050565b7f4e487b7100000000000000000000000000000000000000000000000000000000600052601160045260246000fd5b600061258d82611cdd565b915061259883611cdd565b9250827fffffffffffffffffffffffffffffffffffffffffffffffffffffffffffffffff038211156125cd576125cc612553565b5b828201905092915050565b60006040820190506125ed6000830185611ce7565b81810360208301526125ff8184611dd9565b90509392505050565b600060208201905061261d6000830184611e7a565b92915050565b7f4f6e6c79206f776e65722063616e2063616c6c20746869732066756e6374696f60008201527f6e00000000000000000000000000000000000000000000000000000000000000602082015250565b600061267f602183611d84565b915061268a82612623565b604082019050919050565b600060208201905081810360008301526126ae81612672565b9050919050565b7f496e76616c696420726563697069656e74206164647265737300000000000000600082015250565b60006126eb601983611d84565b91506126f6826126b5565b602082019050919050565b6000602082019050818103600083015261271a816126de565b9050919050565b7f496e73756666696369656e742062616c616e6365000000000000000000000000600082015250565b6000612757601483611d84565b915061276282612721565b602082019050919050565b600060208201905081810360008301526127868161274a565b9050919050565b600061279882611cdd565b91507fffffffffffffffffffffffffffffffffffffffffffffffffffffffffffffffff8214156127cb576127ca612553565b5b600182019050919050565b60006127e182611cdd565b91506127ec83611cdd565b9250828210156127ff576127fe612553565b5b828203905092915050565b60008190508160005260206000209050919050565b6000815461282c816123dd565b6128368186611d84565b94506001821660008114612851576001811461286357612896565b60ff1983168652602086019350612896565b61286c8561280a565b60005b8381101561288e5781548189015260018201915060208101905061286f565b808801955050505b50505092915050565b600060a0820190506128b46000830188611ce7565b81810360208301526128c6818761281f565b905081810360408301526128da8186611dd9565b905081810360608301526128ee8185611dd9565b90506128fd6080830184611ce7565b969550505050505056fea2646970667358221220f0f517f01134eb02dc77b2fe74fe355bf3af62346ebeaeafefe48b10d4b69fbf64736f6c634300080a0033",
      "opcodes": "PUSH1 0x80 PUSH1 0x40 MSTORE CALLVALUE DUP1 ISZERO PUSH2 0x10 JUMPI PUSH1 0x0 DUP1 REVERT JUMPDEST POP CALLER PUSH1 0x4 PUSH1 0x0 PUSH2 0x100 EXP DUP2 SLOAD DUP2 PUSH20 0xFFFFFFFFFFFFFFFFFFFFFFFFFFFFFFFFFFFFFFFF MUL NOT AND SWAP1 DUP4 PUSH20 0xFFFFFFFFFFFFFFFFFFFFFFFFFFFFFFFFFFFFFFFF AND MUL OR SWAP1 SSTORE POP PUSH1 0x0 PUSH1 0x6 DUP2 SWAP1 SSTORE POP PUSH2 0x293D DUP1 PUSH2 0x69 PUSH1 0x0 CODECOPY PUSH1 0x0 RETURN INVALID PUSH1 0x80 PUSH1 0x40 MSTORE PUSH1 0x4 CALLDATASIZE LT PUSH2 0xDD JUMPI PUSH1 0x0 CALLDATALOAD PUSH1 0xE0 SHR DUP1 PUSH4 0xB7482509 GT PUSH2 0x7F JUMPI DUP1 PUSH4 0xE9C02815 GT PUSH2 0x59 JUMPI DUP1 PUSH4 0xE9C02815 EQ PUSH2 0x2E7 JUMPI DUP1 PUSH4 0xEF925399 EQ PUSH2 0x324 JUMPI DUP1 PUSH4 0xF8B2CB4F EQ PUSH2 0x361 JUMPI DUP1 PUSH4 0xF99185C2 EQ PUSH2 0x39E JUMPI PUSH2 0xDD JUMP JUMPDEST DUP1 PUSH4 0xB7482509 EQ PUSH2 0x279 JUMPI DUP1 PUSH4 0xBAFBF728 EQ PUSH2 0x295 JUMPI DUP1 PUSH4 0xC559E45D EQ PUSH2 0x2BE JUMPI PUSH2 0xDD JUMP JUMPDEST DUP1 PUSH4 0x392C5BD8 GT PUSH2 0xBB JUMPI DUP1 PUSH4 0x392C5BD8 EQ PUSH2 0x18F JUMPI DUP1 PUSH4 0x8DA5CB5B EQ PUSH2 0x1CC JUMPI DUP1 PUSH4 0x9ACE38C2 EQ PUSH2 0x1F7 JUMPI DUP1 PUSH4 0xA2969820 EQ PUSH2 0x23C JUMPI PUSH2 0xDD JUMP JUMPDEST DUP1 PUSH4 0x27E235E3 EQ PUSH2 0xE2 JUMPI DUP1 PUSH4 0x2E7700F0 EQ PUSH2 0x11F JUMPI DUP1 PUSH4 0x33EA3DC8 EQ PUSH2 0x14A JUMPI JUMPDEST PUSH1 0x0 DUP1 REVERT JUMPDEST CALLVALUE DUP1 ISZERO PUSH2 0xEE JUMPI PUSH1 0x0 DUP1 REVERT JUMPDEST POP PUSH2 0x109 PUSH1 0x4 DUP1 CALLDATASIZE SUB DUP2 ADD SWAP1 PUSH2 0x104 SWAP2 SWAP1 PUSH2 0x1CB0 JUMP JUMPDEST PUSH2 0x3DB JUMP JUMPDEST PUSH1 0x40 MLOAD PUSH2 0x116 SWAP2 SWAP1 PUSH2 0x1CF6 JUMP JUMPDEST PUSH1 0x40 MLOAD DUP1 SWAP2 SUB SWAP1 RETURN JUMPDEST CALLVALUE DUP1 ISZERO PUSH2 0x12B JUMPI PUSH1 0x0 DUP1 REVERT JUMPDEST POP PUSH2 0x134 PUSH2 0x3F3 JUMP JUMPDEST PUSH1 0x40 MLOAD PUSH2 0x141 SWAP2 SWAP1 PUSH2 0x1CF6 JUMP JUMPDEST PUSH1 0x40 MLOAD DUP1 SWAP2 SUB SWAP1 RETURN JUMPDEST CALLVALUE DUP1 ISZERO PUSH2 0x156 JUMPI PUSH1 0x0 DUP1 REVERT JUMPDEST POP PUSH2 0x171 PUSH1 0x4 DUP1 CALLDATASIZE SUB DUP2 ADD SWAP1 PUSH2 0x16C SWAP2 SWAP1 PUSH2 0x1D3D JUMP JUMPDEST PUSH2 0x400 JUMP JUMPDEST PUSH1 0x40 MLOAD PUSH2 0x186 SWAP10 SWAP9 SWAP8 SWAP7 SWAP6 SWAP5 SWAP4 SWAP3 SWAP2 SWAP1 PUSH2 0x1E89 JUMP JUMPDEST PUSH1 0x40 MLOAD DUP1 SWAP2 SUB SWAP1 RETURN JUMPDEST CALLVALUE DUP1 ISZERO PUSH2 0x19B JUMPI PUSH1 0x0 DUP1 REVERT JUMPDEST POP PUSH2 0x1B6 PUSH1 0x4 DUP1 CALLDATASIZE SUB DUP2 ADD SWAP1 PUSH2 0x1B1 SWAP2 SWAP1 PUSH2 0x1CB0 JUMP JUMPDEST PUSH2 0x7B3 JUMP JUMPDEST PUSH1 0x40 MLOAD PUSH2 0x1C3 SWAP2 SWAP1 PUSH2 0x1F2B JUMP JUMPDEST PUSH1 0x40 MLOAD DUP1 SWAP2 SUB SWAP1 RETURN JUMPDEST CALLVALUE DUP1 ISZERO PUSH2 0x1D8 JUMPI PUSH1 0x0 DUP1 REVERT JUMPDEST POP PUSH2 0x1E1 PUSH2 0x853 JUMP JUMPDEST PUSH1 0x40 MLOAD PUSH2 0x1EE SWAP2 SWAP1 PUSH2 0x1F4D JUMP JUMPDEST PUSH1 0x40 MLOAD DUP1 SWAP2 SUB SWAP1 RETURN JUMPDEST CALLVALUE DUP1 ISZERO PUSH2 0x203 JUMPI PUSH1 0x0 DUP1 REVERT JUMPDEST POP PUSH2 0x21E PUSH1 0x4 DUP1 CALLDATASIZE SUB DUP2 ADD SWAP1 PUSH2 0x219 SWAP2 SWAP1 PUSH2 0x1D3D JUMP JUMPDEST PUSH2 0x879 JUMP JUMPDEST PUSH1 0x40 MLOAD PUSH2 0x233 SWAP10 SWAP9 SWAP8 SWAP7 SWAP6 SWAP5 SWAP4 SWAP3 SWAP2 SWAP1 PUSH2 0x1E89 JUMP JUMPDEST PUSH1 0x40 MLOAD DUP1 SWAP2 SUB SWAP1 RETURN JUMPDEST CALLVALUE DUP1 ISZERO PUSH2 0x248 JUMPI PUSH1 0x0 DUP1 REVERT JUMPDEST POP PUSH2 0x263 PUSH1 0x4 DUP1 CALLDATASIZE SUB DUP2 ADD SWAP1 PUSH2 0x25E SWAP2 SWAP1 PUSH2 0x1CB0 JUMP JUMPDEST PUSH2 0xABC JUMP JUMPDEST PUSH1 0x40 MLOAD PUSH2 0x270 SWAP2 SWAP1 PUSH2 0x1F83 JUMP JUMPDEST PUSH1 0x40 MLOAD DUP1 SWAP2 SUB SWAP1 RETURN JUMPDEST PUSH2 0x293 PUSH1 0x4 DUP1 CALLDATASIZE SUB DUP2 ADD SWAP1 PUSH2 0x28E SWAP2 SWAP1 PUSH2 0x20D3 JUMP JUMPDEST PUSH2 0xADC JUMP JUMPDEST STOP JUMPDEST CALLVALUE DUP1 ISZERO PUSH2 0x2A1 JUMPI PUSH1 0x0 DUP1 REVERT JUMPDEST POP PUSH2 0x2BC PUSH1 0x4 DUP1 CALLDATASIZE SUB DUP2 ADD SWAP1 PUSH2 0x2B7 SWAP2 SWAP1 PUSH2 0x2154 JUMP JUMPDEST PUSH2 0xDFC JUMP JUMPDEST STOP JUMPDEST CALLVALUE DUP1 ISZERO PUSH2 0x2CA JUMPI PUSH1 0x0 DUP1 REVERT JUMPDEST POP PUSH2 0x2E5 PUSH1 0x4 DUP1 CALLDATASIZE SUB DUP2 ADD SWAP1 PUSH2 0x2E0 SWAP2 SWAP1 PUSH2 0x20D3 JUMP JUMPDEST PUSH2 0xFD2 JUMP JUMPDEST STOP JUMPDEST CALLVALUE DUP1 ISZERO PUSH2 0x2F3 JUMPI PUSH1 0x0 DUP1 REVERT JUMPDEST POP PUSH2 0x30E PUSH1 0x4 DUP1 CALLDATASIZE SUB DUP2 ADD SWAP1 PUSH2 0x309 SWAP2 SWAP1 PUSH2 0x2194 JUMP JUMPDEST PUSH2 0x1112 JUMP JUMPDEST PUSH1 0x40 MLOAD PUSH2 0x31B SWAP2 SWAP1 PUSH2 0x1CF6 JUMP JUMPDEST PUSH1 0x40 MLOAD DUP1 SWAP2 SUB SWAP1 RETURN JUMPDEST CALLVALUE DUP1 ISZERO PUSH2 0x330 JUMPI PUSH1 0x0 DUP1 REVERT JUMPDEST POP PUSH2 0x34B PUSH1 0x4 DUP1 CALLDATASIZE SUB DUP2 ADD SWAP1 PUSH2 0x346 SWAP2 SWAP1 PUSH2 0x1CB0 JUMP JUMPDEST PUSH2 0x184C JUMP JUMPDEST PUSH1 0x40 MLOAD PUSH2 0x358 SWAP2 SWAP1 PUSH2 0x22F1 JUMP JUMPDEST PUSH1 0x40 MLOAD DUP1 SWAP2 SUB SWAP1 RETURN JUMPDEST CALLVALUE DUP1 ISZERO PUSH2 0x36D JUMPI PUSH1 0x0 DUP1 REVERT JUMPDEST POP PUSH2 0x388 PUSH1 0x4 DUP1 CALLDATASIZE SUB DUP2 ADD SWAP1 PUSH2 0x383 SWAP2 SWAP1 PUSH2 0x1CB0 JUMP JUMPDEST PUSH2 0x1B3B JUMP JUMPDEST PUSH1 0x40 MLOAD PUSH2 0x395 SWAP2 SWAP1 PUSH2 0x1CF6 JUMP JUMPDEST PUSH1 0x40 MLOAD DUP1 SWAP2 SUB SWAP1 RETURN JUMPDEST CALLVALUE DUP1 ISZERO PUSH2 0x3AA JUMPI PUSH1 0x0 DUP1 REVERT JUMPDEST POP PUSH2 0x3C5 PUSH1 0x4 DUP1 CALLDATASIZE SUB DUP2 ADD SWAP1 PUSH2 0x3C0 SWAP2 SWAP1 PUSH2 0x1D3D JUMP JUMPDEST PUSH2 0x1B83 JUMP JUMPDEST PUSH1 0x40 MLOAD PUSH2 0x3D2 SWAP2 SWAP1 PUSH2 0x1CF6 JUMP JUMPDEST PUSH1 0x40 MLOAD DUP1 SWAP2 SUB SWAP1 RETURN JUMPDEST PUSH1 0x0 PUSH1 0x20 MSTORE DUP1 PUSH1 0x0 MSTORE PUSH1 0x40 PUSH1 0x0 KECCAK256 PUSH1 0x0 SWAP2 POP SWAP1 POP SLOAD DUP2 JUMP JUMPDEST PUSH1 0x0 PUSH1 0x2 DUP1 SLOAD SWAP1 POP SWAP1 POP SWAP1 JUMP JUMPDEST PUSH1 0x0 DUP1 PUSH1 0x0 DUP1 PUSH1 0x60 DUP1 PUSH1 0x60 PUSH1 0x0 DUP1 PUSH1 0x0 DUP11 GT DUP1 ISZERO PUSH2 0x420 JUMPI POP PUSH1 0x6 SLOAD DUP11 GT ISZERO JUMPDEST PUSH2 0x45F JUMPI PUSH1 0x40 MLOAD PUSH32 0x8C379A000000000000000000000000000000000000000000000000000000000 DUP2 MSTORE PUSH1 0x4 ADD PUSH2 0x456 SWAP1 PUSH2 0x235F JUMP JUMPDEST PUSH1 0x40 MLOAD DUP1 SWAP2 SUB SWAP1 REVERT JUMPDEST PUSH1 0x0 PUSH1 0x3 PUSH1 0x0 DUP13 DUP2 MSTORE PUSH1 0x20 ADD SWAP1 DUP2 MSTORE PUSH1 0x20 ADD PUSH1 0x0 KECCAK256 SLOAD SWAP1 POP PUSH1 0x0 PUSH1 0x2 DUP3 DUP2 SLOAD DUP2 LT PUSH2 0x48D JUMPI PUSH2 0x48C PUSH2 0x237F JUMP JUMPDEST JUMPDEST SWAP1 PUSH1 0x0 MSTORE PUSH1 0x20 PUSH1 0x0 KECCAK256 SWAP1 PUSH1 0x9 MUL ADD PUSH1 0x40 MLOAD DUP1 PUSH2 0x120 ADD PUSH1 0x40 MSTORE SWAP1 DUP2 PUSH1 0x0 DUP3 ADD SLOAD DUP2 MSTORE PUSH1 0x20 ADD PUSH1 0x1 DUP3 ADD PUSH1 0x0 SWAP1 SLOAD SWAP1 PUSH2 0x100 EXP SWAP1 DIV PUSH20 0xFFFFFFFFFFFFFFFFFFFFFFFFFFFFFFFFFFFFFFFF AND PUSH20 0xFFFFFFFFFFFFFFFFFFFFFFFFFFFFFFFFFFFFFFFF AND PUSH20 0xFFFFFFFFFFFFFFFFFFFFFFFFFFFFFFFFFFFFFFFF AND DUP2 MSTORE PUSH1 0x20 ADD PUSH1 0x2 DUP3 ADD PUSH1 0x0 SWAP1 SLOAD SWAP1 PUSH2 0x100 EXP SWAP1 DIV PUSH20 0xFFFFFFFFFFFFFFFFFFFFFFFFFFFFFFFFFFFFFFFF AND PUSH20 0xFFFFFFFFFFFFFFFFFFFFFFFFFFFFFFFFFFFFFFFF AND PUSH20 0xFFFFFFFFFFFFFFFFFFFFFFFFFFFFFFFFFFFFFFFF AND DUP2 MSTORE PUSH1 0x20 ADD PUSH1 0x3 DUP3 ADD SLOAD DUP2 MSTORE PUSH1 0x20 ADD PUSH1 0x4 DUP3 ADD DUP1 SLOAD PUSH2 0x577 SWAP1 PUSH2 0x23DD JUMP JUMPDEST DUP1 PUSH1 0x1F ADD PUSH1 0x20 DUP1 SWAP2 DIV MUL PUSH1 0x20 ADD PUSH1 0x40 MLOAD SWAP1 DUP2 ADD PUSH1 0x40 MSTORE DUP1 SWAP3 SWAP2 SWAP1 DUP2 DUP2 MSTORE PUSH1 0x20 ADD DUP3 DUP1 SLOAD PUSH2 0x5A3 SWAP1 PUSH2 0x23DD JUMP JUMPDEST DUP1 ISZERO PUSH2 0x5F0 JUMPI DUP1 PUSH1 0x1F LT PUSH2 0x5C5 JUMPI PUSH2 0x100 DUP1 DUP4 SLOAD DIV MUL DUP4 MSTORE SWAP2 PUSH1 0x20 ADD SWAP2 PUSH2 0x5F0 JUMP JUMPDEST DUP3 ADD SWAP2 SWAP1 PUSH1 0x0 MSTORE PUSH1 0x20 PUSH1 0x0 KECCAK256 SWAP1 JUMPDEST DUP2 SLOAD DUP2 MSTORE SWAP1 PUSH1 0x1 ADD SWAP1 PUSH1 0x20 ADD DUP1 DUP4 GT PUSH2 0x5D3 JUMPI DUP3 SWAP1 SUB PUSH1 0x1F AND DUP3 ADD SWAP2 JUMPDEST POP POP POP POP POP DUP2 MSTORE PUSH1 0x20 ADD PUSH1 0x5 DUP3 ADD DUP1 SLOAD PUSH2 0x609 SWAP1 PUSH2 0x23DD JUMP JUMPDEST DUP1 PUSH1 0x1F ADD PUSH1 0x20 DUP1 SWAP2 DIV MUL PUSH1 0x20 ADD PUSH1 0x40 MLOAD SWAP1 DUP2 ADD PUSH1 0x40 MSTORE DUP1 SWAP3 SWAP2 SWAP1 DUP2 DUP2 MSTORE PUSH1 0x20 ADD DUP3 DUP1 SLOAD PUSH2 0x635 SWAP1 PUSH2 0x23DD JUMP JUMPDEST DUP1 ISZERO PUSH2 0x682 JUMPI DUP1 PUSH1 0x1F LT PUSH2 0x657 JUMPI PUSH2 0x100 DUP1 DUP4 SLOAD DIV MUL DUP4 MSTORE SWAP2 PUSH1 0x20 ADD SWAP2 PUSH2 0x682 JUMP JUMPDEST DUP3 ADD SWAP2 SWAP1 PUSH1 0x0 MSTORE PUSH1 0x20 PUSH1 0x0 KECCAK256 SWAP1 JUMPDEST DUP2 SLOAD DUP2 MSTORE SWAP1 PUSH1 0x1 ADD SWAP1 PUSH1 0x20 ADD DUP1 DUP4 GT PUSH2 0x665 JUMPI DUP3 SWAP1 SUB PUSH1 0x1F AND DUP3 ADD SWAP2 JUMPDEST POP POP POP POP POP DUP2 MSTORE PUSH1 0x20 ADD PUSH1 0x6 DUP3 ADD DUP1 SLOAD PUSH2 0x69B SWAP1 PUSH2 0x23DD JUMP JUMPDEST DUP1 PUSH1 0x1F ADD PUSH1 0x20 DUP1 SWAP2 DIV MUL PUSH1 0x20 ADD PUSH1 0x40 MLOAD SWAP1 DUP2 ADD PUSH1 0x40 MSTORE DUP1 SWAP3 SWAP2 SWAP1 DUP2 DUP2 MSTORE PUSH1 0x20 ADD DUP3 DUP1 SLOAD PUSH2 0x6C7 SWAP1 PUSH2 0x23DD JUMP JUMPDEST DUP1 ISZERO PUSH2 0x714 JUMPI DUP1 PUSH1 0x1F LT PUSH2 0x6E9 JUMPI PUSH2 0x100 DUP1 DUP4 SLOAD DIV MUL DUP4 MSTORE SWAP2 PUSH1 0x20 ADD SWAP2 PUSH2 0x714 JUMP JUMPDEST DUP3 ADD SWAP2 SWAP1 PUSH1 0x0 MSTORE PUSH1 0x20 PUSH1 0x0 KECCAK256 SWAP1 JUMPDEST DUP2 SLOAD DUP2 MSTORE SWAP1 PUSH1 0x1 ADD SWAP1 PUSH1 0x20 ADD DUP1 DUP4 GT PUSH2 0x6F7 JUMPI DUP3 SWAP1 SUB PUSH1 0x1F AND DUP3 ADD SWAP2 JUMPDEST POP POP POP POP POP DUP2 MSTORE PUSH1 0x20 ADD PUSH1 0x7 DUP3 ADD SLOAD DUP2 MSTORE PUSH1 0x20 ADD PUSH1 0x8 DUP3 ADD PUSH1 0x0 SWAP1 SLOAD SWAP1 PUSH2 0x100 EXP SWAP1 DIV PUSH1 0xFF AND PUSH1 0x3 DUP2 GT ISZERO PUSH2 0x74C JUMPI PUSH2 0x74B PUSH2 0x1E12 JUMP JUMPDEST JUMPDEST PUSH1 0x3 DUP2 GT ISZERO PUSH2 0x75E JUMPI PUSH2 0x75D PUSH2 0x1E12 JUMP JUMPDEST JUMPDEST DUP2 MSTORE POP POP SWAP1 POP DUP1 PUSH1 0x0 ADD MLOAD DUP2 PUSH1 0x20 ADD MLOAD DUP3 PUSH1 0x40 ADD MLOAD DUP4 PUSH1 0x60 ADD MLOAD DUP5 PUSH1 0x80 ADD MLOAD DUP6 PUSH1 0xA0 ADD MLOAD DUP7 PUSH1 0xC0 ADD MLOAD DUP8 PUSH1 0xE0 ADD MLOAD DUP9 PUSH2 0x100 ADD MLOAD SWAP11 POP SWAP11 POP SWAP11 POP SWAP11 POP SWAP11 POP SWAP11 POP SWAP11 POP SWAP11 POP SWAP11 POP POP POP SWAP2 SWAP4 SWAP6 SWAP8 SWAP10 SWAP1 SWAP3 SWAP5 SWAP7 SWAP9 POP JUMP JUMPDEST PUSH1 0x1 PUSH1 0x20 MSTORE DUP1 PUSH1 0x0 MSTORE PUSH1 0x40 PUSH1 0x0 KECCAK256 PUSH1 0x0 SWAP2 POP SWAP1 POP DUP1 SLOAD PUSH2 0x7D2 SWAP1 PUSH2 0x23DD JUMP JUMPDEST DUP1 PUSH1 0x1F ADD PUSH1 0x20 DUP1 SWAP2 DIV MUL PUSH1 0x20 ADD PUSH1 0x40 MLOAD SWAP1 DUP2 ADD PUSH1 0x40 MSTORE DUP1 SWAP3 SWAP2 SWAP1 DUP2 DUP2 MSTORE PUSH1 0x20 ADD DUP3 DUP1 SLOAD PUSH2 0x7FE SWAP1 PUSH2 0x23DD JUMP JUMPDEST DUP1 ISZERO PUSH2 0x84B JUMPI DUP1 PUSH1 0x1F LT PUSH2 0x820 JUMPI PUSH2 0x100 DUP1 DUP4 SLOAD DIV MUL DUP4 MSTORE SWAP2 PUSH1 0x20 ADD SWAP2 PUSH2 0x84B JUMP JUMPDEST DUP3 ADD SWAP2 SWAP1 PUSH1 0x0 MSTORE PUSH1 0x20 PUSH1 0x0 KECCAK256 SWAP1 JUMPDEST DUP2 SLOAD DUP2 MSTORE SWAP1 PUSH1 0x1 ADD SWAP1 PUSH1 0x20 ADD DUP1 DUP4 GT PUSH2 0x82E JUMPI DUP3 SWAP1 SUB PUSH1 0x1F AND DUP3 ADD SWAP2 JUMPDEST POP POP POP POP POP DUP2 JUMP JUMPDEST PUSH1 0x4 PUSH1 0x0 SWAP1 SLOAD SWAP1 PUSH2 0x100 EXP SWAP1 DIV PUSH20 0xFFFFFFFFFFFFFFFFFFFFFFFFFFFFFFFFFFFFFFFF AND DUP2 JUMP JUMPDEST PUSH1 0x2 DUP2 DUP2 SLOAD DUP2 LT PUSH2 0x889 JUMPI PUSH1 0x0 DUP1 REVERT JUMPDEST SWAP1 PUSH1 0x0 MSTORE PUSH1 0x20 PUSH1 0x0 KECCAK256 SWAP1 PUSH1 0x9 MUL ADD PUSH1 0x0 SWAP2 POP SWAP1 POP DUP1 PUSH1 0x0 ADD SLOAD SWAP1 DUP1 PUSH1 0x1 ADD PUSH1 0x0 SWAP1 SLOAD SWAP1 PUSH2 0x100 EXP SWAP1 DIV PUSH20 0xFFFFFFFFFFFFFFFFFFFFFFFFFFFFFFFFFFFFFFFF AND SWAP1 DUP1 PUSH1 0x2 ADD PUSH1 0x0 SWAP1 SLOAD SWAP1 PUSH2 0x100 EXP SWAP1 DIV PUSH20 0xFFFFFFFFFFFFFFFFFFFFFFFFFFFFFFFFFFFFFFFF AND SWAP1 DUP1 PUSH1 0x3 ADD SLOAD SWAP1 DUP1 PUSH1 0x4 ADD DUP1 SLOAD PUSH2 0x904 SWAP1 PUSH2 0x23DD JUMP JUMPDEST DUP1 PUSH1 0x1F ADD PUSH1 0x20 DUP1 SWAP2 DIV MUL PUSH1 0x20 ADD PUSH1 0x40 MLOAD SWAP1 DUP2 ADD PUSH1 0x40 MSTORE DUP1 SWAP3 SWAP2 SWAP1 DUP2 DUP2 MSTORE PUSH1 0x20 ADD DUP3 DUP1 SLOAD PUSH2 0x930 SWAP1 PUSH2 0x23DD JUMP JUMPDEST DUP1 ISZERO PUSH2 0x97D JUMPI DUP1 PUSH1 0x1F LT PUSH2 0x952 JUMPI PUSH2 0x100 DUP1 DUP4 SLOAD DIV MUL DUP4 MSTORE SWAP2 PUSH1 0x20 ADD SWAP2 PUSH2 0x97D JUMP JUMPDEST DUP3 ADD SWAP2 SWAP1 PUSH1 0x0 MSTORE PUSH1 0x20 PUSH1 0x0 KECCAK256 SWAP1 JUMPDEST DUP2 SLOAD DUP2 MSTORE SWAP1 PUSH1 0x1 ADD SWAP1 PUSH1 0x20 ADD DUP1 DUP4 GT PUSH2 0x960 JUMPI DUP3 SWAP1 SUB PUSH1 0x1F AND DUP3 ADD SWAP2 JUMPDEST POP POP POP POP POP SWAP1 DUP1 PUSH1 0x5 ADD DUP1 SLOAD PUSH2 0x992 SWAP1 PUSH2 0x23DD JUMP JUMPDEST DUP1 PUSH1 0x1F ADD PUSH1 0x20 DUP1 SWAP2 DIV MUL PUSH1 0x20 ADD PUSH1 0x40 MLOAD SWAP1 DUP2 ADD PUSH1 0x40 MSTORE DUP1 SWAP3 SWAP2 SWAP1 DUP2 DUP2 MSTORE PUSH1 0x20 ADD DUP3 DUP1 SLOAD PUSH2 0x9BE SWAP1 PUSH2 0x23DD JUMP JUMPDEST DUP1 ISZERO PUSH2 0xA0B JUMPI DUP1 PUSH1 0x1F LT PUSH2 0x9E0 JUMPI PUSH2 0x100 DUP1 DUP4 SLOAD DIV MUL DUP4 MSTORE SWAP2 PUSH1 0x20 ADD SWAP2 PUSH2 0xA0B JUMP JUMPDEST DUP3 ADD SWAP2 SWAP1 PUSH1 0x0 MSTORE PUSH1 0x20 PUSH1 0x0 KECCAK256 SWAP1 JUMPDEST DUP2 SLOAD DUP2 MSTORE SWAP1 PUSH1 0x1 ADD SWAP1 PUSH1 0x20 ADD DUP1 DUP4 GT PUSH2 0x9EE JUMPI DUP3 SWAP1 SUB PUSH1 0x1F AND DUP3 ADD SWAP2 JUMPDEST POP POP POP POP POP SWAP1 DUP1 PUSH1 0x6 ADD DUP1 SLOAD PUSH2 0xA20 SWAP1 PUSH2 0x23DD JUMP JUMPDEST DUP1 PUSH1 0x1F ADD PUSH1 0x20 DUP1 SWAP2 DIV MUL PUSH1 0x20 ADD PUSH1 0x40 MLOAD SWAP1 DUP2 ADD PUSH1 0x40 MSTORE DUP1 SWAP3 SWAP2 SWAP1 DUP2 DUP2 MSTORE PUSH1 0x20 ADD DUP3 DUP1 SLOAD PUSH2 0xA4C SWAP1 PUSH2 0x23DD JUMP JUMPDEST DUP1 ISZERO PUSH2 0xA99 JUMPI DUP1 PUSH1 0x1F LT PUSH2 0xA6E JUMPI PUSH2 0x100 DUP1 DUP4 SLOAD DIV MUL DUP4 MSTORE SWAP2 PUSH1 0x20 ADD SWAP2 PUSH2 0xA99 JUMP JUMPDEST DUP3 ADD SWAP2 SWAP1 PUSH1 0x0 MSTORE PUSH1 0x20 PUSH1 0x0 KECCAK256 SWAP1 JUMPDEST DUP2 SLOAD DUP2 MSTORE SWAP1 PUSH1 0x1 ADD SWAP1 PUSH1 0x20 ADD DUP1 DUP4 GT PUSH2 0xA7C JUMPI DUP3 SWAP1 SUB PUSH1 0x1F AND DUP3 ADD SWAP2 JUMPDEST POP POP POP POP POP SWAP1 DUP1 PUSH1 0x7 ADD SLOAD SWAP1 DUP1 PUSH1 0x8 ADD PUSH1 0x0 SWAP1 SLOAD SWAP1 PUSH2 0x100 EXP SWAP1 DIV PUSH1 0xFF AND SWAP1 POP DUP10 JUMP JUMPDEST PUSH1 0x5 PUSH1 0x20 MSTORE DUP1 PUSH1 0x0 MSTORE PUSH1 0x40 PUSH1 0x0 KECCAK256 PUSH1 0x0 SWAP2 POP SLOAD SWAP1 PUSH2 0x100 EXP SWAP1 DIV PUSH1 0xFF AND DUP2 JUMP JUMPDEST PUSH1 0x5 PUSH1 0x0 CALLER PUSH20 0xFFFFFFFFFFFFFFFFFFFFFFFFFFFFFFFFFFFFFFFF AND PUSH20 0xFFFFFFFFFFFFFFFFFFFFFFFFFFFFFFFFFFFFFFFF AND DUP2 MSTORE PUSH1 0x20 ADD SWAP1 DUP2 MSTORE PUSH1 0x20 ADD PUSH1 0x0 KECCAK256 PUSH1 0x0 SWAP1 SLOAD SWAP1 PUSH2 0x100 EXP SWAP1 DIV PUSH1 0xFF AND DUP1 PUSH2 0xB81 JUMPI POP PUSH1 0x4 PUSH1 0x0 SWAP1 SLOAD SWAP1 PUSH2 0x100 EXP SWAP1 DIV PUSH20 0xFFFFFFFFFFFFFFFFFFFFFFFFFFFFFFFFFFFFFFFF AND PUSH20 0xFFFFFFFFFFFFFFFFFFFFFFFFFFFFFFFFFFFFFFFF AND CALLER PUSH20 0xFFFFFFFFFFFFFFFFFFFFFFFFFFFFFFFFFFFFFFFF AND EQ JUMPDEST PUSH2 0xBC0 JUMPI PUSH1 0x40 MLOAD PUSH32 0x8C379A000000000000000000000000000000000000000000000000000000000 DUP2 MSTORE PUSH1 0x4 ADD PUSH2 0xBB7 SWAP1 PUSH2 0x245B JUMP JUMPDEST PUSH1 0x40 MLOAD DUP1 SWAP2 SUB SWAP1 REVERT JUMPDEST PUSH1 0x0 PUSH20 0xFFFFFFFFFFFFFFFFFFFFFFFFFFFFFFFFFFFFFFFF AND DUP3 PUSH20 0xFFFFFFFFFFFFFFFFFFFFFFFFFFFFFFFFFFFFFFFF AND EQ ISZERO PUSH2 0xC30 JUMPI PUSH1 0x40 MLOAD PUSH32 0x8C379A000000000000000000000000000000000000000000000000000000000 DUP2 MSTORE PUSH1 0x4 ADD PUSH2 0xC27 SWAP1 PUSH2 0x24C7 JUMP JUMPDEST PUSH1 0x40 MLOAD DUP1 SWAP2 SUB SWAP1 REVERT JUMPDEST PUSH1 0x0 CALLVALUE GT PUSH2 0xC73 JUMPI PUSH1 0x40 MLOAD PUSH32 0x8C379A000000000000000000000000000000000000000000000000000000000 DUP2 MSTORE PUSH1 0x4 ADD PUSH2 0xC6A SWAP1 PUSH2 0x2533 JUMP JUMPDEST PUSH1 0x40 MLOAD DUP1 SWAP2 SUB SWAP1 REVERT JUMPDEST CALLVALUE PUSH1 0x0 DUP1 DUP5 PUSH20 0xFFFFFFFFFFFFFFFFFFFFFFFFFFFFFFFFFFFFFFFF AND PUSH20 0xFFFFFFFFFFFFFFFFFFFFFFFFFFFFFFFFFFFFFFFF AND DUP2 MSTORE PUSH1 0x20 ADD SWAP1 DUP2 MSTORE PUSH1 0x20 ADD PUSH1 0x0 KECCAK256 PUSH1 0x0 DUP3 DUP3 SLOAD PUSH2 0xCC1 SWAP2 SWAP1 PUSH2 0x2582 JUMP JUMPDEST SWAP3 POP POP DUP2 SWAP1 SSTORE POP DUP1 PUSH1 0x1 PUSH1 0x0 DUP5 PUSH20 0xFFFFFFFFFFFFFFFFFFFFFFFFFFFFFFFFFFFFFFFF AND PUSH20 0xFFFFFFFFFFFFFFFFFFFFFFFFFFFFFFFFFFFFFFFF AND DUP2 MSTORE PUSH1 0x20 ADD SWAP1 DUP2 MSTORE PUSH1 0x20 ADD PUSH1 0x0 KECCAK256 SWAP1 DUP1 MLOAD SWAP1 PUSH1 0x20 ADD SWAP1 PUSH2 0xD1B SWAP3 SWAP2 SWAP1 PUSH2 0x1B9B JUMP JUMPDEST POP DUP2 PUSH20 0xFFFFFFFFFFFFFFFFFFFFFFFFFFFFFFFFFFFFFFFF AND PUSH32 0x643E927B32D5BFD08ECCD2FCBD97057AD413850F857A2359639114E8E8DD3D7B CALLVALUE DUP4 PUSH1 0x40 MLOAD PUSH2 0xD64 SWAP3 SWAP2 SWAP1 PUSH2 0x25D8 JUMP JUMPDEST PUSH1 0x40 MLOAD DUP1 SWAP2 SUB SWAP1 LOG2 DUP2 PUSH20 0xFFFFFFFFFFFFFFFFFFFFFFFFFFFFFFFFFFFFFFFF AND PUSH32 0x8AD64A0AC7700DD8425AB0499F107CB6E2CD1581D803C5B8C1C79DCB8190B1AF PUSH1 0x0 DUP1 DUP6 PUSH20 0xFFFFFFFFFFFFFFFFFFFFFFFFFFFFFFFFFFFFFFFF AND PUSH20 0xFFFFFFFFFFFFFFFFFFFFFFFFFFFFFFFFFFFFFFFF AND DUP2 MSTORE PUSH1 0x20 ADD SWAP1 DUP2 MSTORE PUSH1 0x20 ADD PUSH1 0x0 KECCAK256 SLOAD PUSH1 0x40 MLOAD PUSH2 0xDF0 SWAP2 SWAP1 PUSH2 0x1CF6 JUMP JUMPDEST PUSH1 0x40 MLOAD DUP1 SWAP2 SUB SWAP1 LOG2 POP POP JUMP JUMPDEST PUSH1 0x5 PUSH1 0x0 CALLER PUSH20 0xFFFFFFFFFFFFFFFFFFFFFFFFFFFFFFFFFFFFFFFF AND PUSH20 0xFFFFFFFFFFFFFFFFFFFFFFFFFFFFFFFFFFFFFFFF AND DUP2 MSTORE PUSH1 0x20 ADD SWAP1 DUP2 MSTORE PUSH1 0x20 ADD PUSH1 0x0 KECCAK256 PUSH1 0x0 SWAP1 SLOAD SWAP1 PUSH2 0x100 EXP SWAP1 DIV PUSH1 0xFF AND DUP1 PUSH2 0xEA1 JUMPI POP PUSH1 0x4 PUSH1 0x0 SWAP1 SLOAD SWAP1 PUSH2 0x100 EXP SWAP1 DIV PUSH20 0xFFFFFFFFFFFFFFFFFFFFFFFFFFFFFFFFFFFFFFFF AND PUSH20 0xFFFFFFFFFFFFFFFFFFFFFFFFFFFFFFFFFFFFFFFF AND CALLER PUSH20 0xFFFFFFFFFFFFFFFFFFFFFFFFFFFFFFFFFFFFFFFF AND EQ JUMPDEST PUSH2 0xEE0 JUMPI PUSH1 0x40 MLOAD PUSH32 0x8C379A000000000000000000000000000000000000000000000000000000000 DUP2 MSTORE PUSH1 0x4 ADD PUSH2 0xED7 SWAP1 PUSH2 0x245B JUMP JUMPDEST PUSH1 0x40 MLOAD DUP1 SWAP2 SUB SWAP1 REVERT JUMPDEST PUSH1 0x0 DUP3 GT DUP1 ISZERO PUSH2 0xEF2 JUMPI POP PUSH1 0x6 SLOAD DUP3 GT ISZERO JUMPDEST PUSH2 0xF31 JUMPI PUSH1 0x40 MLOAD PUSH32 0x8C379A000000000000000000000000000000000000000000000000000000000 DUP2 MSTORE PUSH1 0x4 ADD PUSH2 0xF28 SWAP1 PUSH2 0x235F JUMP JUMPDEST PUSH1 0x40 MLOAD DUP1 SWAP2 SUB SWAP1 REVERT JUMPDEST PUSH1 0x0 PUSH1 0x3 PUSH1 0x0 DUP5 DUP2 MSTORE PUSH1 0x20 ADD SWAP1 DUP2 MSTORE PUSH1 0x20 ADD PUSH1 0x0 KECCAK256 SLOAD SWAP1 POP DUP2 PUSH1 0x2 DUP3 DUP2 SLOAD DUP2 LT PUSH2 0xF5E JUMPI PUSH2 0xF5D PUSH2 0x237F JUMP JUMPDEST JUMPDEST SWAP1 PUSH1 0x0 MSTORE PUSH1 0x20 PUSH1 0x0 KECCAK256 SWAP1 PUSH1 0x9 MUL ADD PUSH1 0x8 ADD PUSH1 0x0 PUSH2 0x100 EXP DUP2 SLOAD DUP2 PUSH1 0xFF MUL NOT AND SWAP1 DUP4 PUSH1 0x3 DUP2 GT ISZERO PUSH2 0xF91 JUMPI PUSH2 0xF90 PUSH2 0x1E12 JUMP JUMPDEST JUMPDEST MUL OR SWAP1 SSTORE POP DUP3 PUSH31 0x3013893708BD175BC8EEEDD6EA1E367024BBC9BC7B110E7ED37BC77ACEAC57 DUP4 PUSH1 0x40 MLOAD PUSH2 0xFC5 SWAP2 SWAP1 PUSH2 0x2608 JUMP JUMPDEST PUSH1 0x40 MLOAD DUP1 SWAP2 SUB SWAP1 LOG2 POP POP POP JUMP JUMPDEST PUSH1 0x4 PUSH1 0x0 SWAP1 SLOAD SWAP1 PUSH2 0x100 EXP SWAP1 DIV PUSH20 0xFFFFFFFFFFFFFFFFFFFFFFFFFFFFFFFFFFFFFFFF AND PUSH20 0xFFFFFFFFFFFFFFFFFFFFFFFFFFFFFFFFFFFFFFFF AND CALLER PUSH20 0xFFFFFFFFFFFFFFFFFFFFFFFFFFFFFFFFFFFFFFFF AND EQ PUSH2 0x1062 JUMPI PUSH1 0x40 MLOAD PUSH32 0x8C379A000000000000000000000000000000000000000000000000000000000 DUP2 MSTORE PUSH1 0x4 ADD PUSH2 0x1059 SWAP1 PUSH2 0x2695 JUMP JUMPDEST PUSH1 0x40 MLOAD DUP1 SWAP2 SUB SWAP1 REVERT JUMPDEST PUSH1 0x1 PUSH1 0x5 PUSH1 0x0 DUP5 PUSH20 0xFFFFFFFFFFFFFFFFFFFFFFFFFFFFFFFFFFFFFFFF AND PUSH20 0xFFFFFFFFFFFFFFFFFFFFFFFFFFFFFFFFFFFFFFFF AND DUP2 MSTORE PUSH1 0x20 ADD SWAP1 DUP2 MSTORE PUSH1 0x20 ADD PUSH1 0x0 KECCAK256 PUSH1 0x0 PUSH2 0x100 EXP DUP2 SLOAD DUP2 PUSH1 0xFF MUL NOT AND SWAP1 DUP4 ISZERO ISZERO MUL OR SWAP1 SSTORE POP DUP1 PUSH1 0x1 PUSH1 0x0 DUP5 PUSH20 0xFFFFFFFFFFFFFFFFFFFFFFFFFFFFFFFFFFFFFFFF AND PUSH20 0xFFFFFFFFFFFFFFFFFFFFFFFFFFFFFFFFFFFFFFFF AND DUP2 MSTORE PUSH1 0x20 ADD SWAP1 DUP2 MSTORE PUSH1 0x20 ADD PUSH1 0x0 KECCAK256 SWAP1 DUP1 MLOAD SWAP1 PUSH1 0x20 ADD SWAP1 PUSH2 0x110D SWAP3 SWAP2 SWAP1 PUSH2 0x1B9B JUMP JUMPDEST POP POP POP JUMP JUMPDEST PUSH1 0x0 DUP1 PUSH20 0xFFFFFFFFFFFFFFFFFFFFFFFFFFFFFFFFFFFFFFFF AND DUP6 PUSH20 0xFFFFFFFFFFFFFFFFFFFFFFFFFFFFFFFFFFFFFFFF AND EQ ISZERO PUSH2 0x1183 JUMPI PUSH1 0x40 MLOAD PUSH32 0x8C379A000000000000000000000000000000000000000000000000000000000 DUP2 MSTORE PUSH1 0x4 ADD PUSH2 0x117A SWAP1 PUSH2 0x2701 JUMP JUMPDEST PUSH1 0x40 MLOAD DUP1 SWAP2 SUB SWAP1 REVERT JUMPDEST PUSH1 0x0 DUP5 GT PUSH2 0x11C6 JUMPI PUSH1 0x40 MLOAD PUSH32 0x8C379A000000000000000000000000000000000000000000000000000000000 DUP2 MSTORE PUSH1 0x4 ADD PUSH2 0x11BD SWAP1 PUSH2 0x2533 JUMP JUMPDEST PUSH1 0x40 MLOAD DUP1 SWAP2 SUB SWAP1 REVERT JUMPDEST DUP4 PUSH1 0x0 DUP1 CALLER PUSH20 0xFFFFFFFFFFFFFFFFFFFFFFFFFFFFFFFFFFFFFFFF AND PUSH20 0xFFFFFFFFFFFFFFFFFFFFFFFFFFFFFFFFFFFFFFFF AND DUP2 MSTORE PUSH1 0x20 ADD SWAP1 DUP2 MSTORE PUSH1 0x20 ADD PUSH1 0x0 KECCAK256 SLOAD LT ISZERO PUSH2 0x1247 JUMPI PUSH1 0x40 MLOAD PUSH32 0x8C379A000000000000000000000000000000000000000000000000000000000 DUP2 MSTORE PUSH1 0x4 ADD PUSH2 0x123E SWAP1 PUSH2 0x276D JUMP JUMPDEST PUSH1 0x40 MLOAD DUP1 SWAP2 SUB SWAP1 REVERT JUMPDEST PUSH1 0x6 PUSH1 0x0 DUP2 SLOAD DUP1 SWAP3 SWAP2 SWAP1 PUSH2 0x125A SWAP1 PUSH2 0x278D JUMP JUMPDEST SWAP2 SWAP1 POP SSTORE POP PUSH1 0x0 PUSH1 0x6 SLOAD SWAP1 POP PUSH1 0x0 PUSH1 0x40 MLOAD DUP1 PUSH2 0x120 ADD PUSH1 0x40 MSTORE DUP1 DUP4 DUP2 MSTORE PUSH1 0x20 ADD CALLER PUSH20 0xFFFFFFFFFFFFFFFFFFFFFFFFFFFFFFFFFFFFFFFF AND DUP2 MSTORE PUSH1 0x20 ADD DUP9 PUSH20 0xFFFFFFFFFFFFFFFFFFFFFFFFFFFFFFFFFFFFFFFF AND DUP2 MSTORE PUSH1 0x20 ADD DUP8 DUP2 MSTORE PUSH1 0x20 ADD PUSH1 0x1 PUSH1 0x0 CALLER PUSH20 0xFFFFFFFFFFFFFFFFFFFFFFFFFFFFFFFFFFFFFFFF AND PUSH20 0xFFFFFFFFFFFFFFFFFFFFFFFFFFFFFFFFFFFFFFFF AND DUP2 MSTORE PUSH1 0x20 ADD SWAP1 DUP2 MSTORE PUSH1 0x20 ADD PUSH1 0x0 KECCAK256 DUP1 SLOAD PUSH2 0x1302 SWAP1 PUSH2 0x23DD JUMP JUMPDEST DUP1 PUSH1 0x1F ADD PUSH1 0x20 DUP1 SWAP2 DIV MUL PUSH1 0x20 ADD PUSH1 0x40 MLOAD SWAP1 DUP2 ADD PUSH1 0x40 MSTORE DUP1 SWAP3 SWAP2 SWAP1 DUP2 DUP2 MSTORE PUSH1 0x20 ADD DUP3 DUP1 SLOAD PUSH2 0x132E SWAP1 PUSH2 0x23DD JUMP JUMPDEST DUP1 ISZERO PUSH2 0x137B JUMPI DUP1 PUSH1 0x1F LT PUSH2 0x1350 JUMPI PUSH2 0x100 DUP1 DUP4 SLOAD DIV MUL DUP4 MSTORE SWAP2 PUSH1 0x20 ADD SWAP2 PUSH2 0x137B JUMP JUMPDEST DUP3 ADD SWAP2 SWAP1 PUSH1 0x0 MSTORE PUSH1 0x20 PUSH1 0x0 KECCAK256 SWAP1 JUMPDEST DUP2 SLOAD DUP2 MSTORE SWAP1 PUSH1 0x1 ADD SWAP1 PUSH1 0x20 ADD DUP1 DUP4 GT PUSH2 0x135E JUMPI DUP3 SWAP1 SUB PUSH1 0x1F AND DUP3 ADD SWAP2 JUMPDEST POP POP POP POP POP DUP2 MSTORE PUSH1 0x20 ADD DUP7 DUP2 MSTORE PUSH1 0x20 ADD DUP6 DUP2 MSTORE PUSH1 0x20 ADD TIMESTAMP DUP2 MSTORE PUSH1 0x20 ADD PUSH1 0x0 PUSH1 0x3 DUP2 GT ISZERO PUSH2 0x13AB JUMPI PUSH2 0x13AA PUSH2 0x1E12 JUMP JUMPDEST JUMPDEST DUP2 MSTORE POP SWAP1 POP PUSH1 0x2 DUP2 SWAP1 DUP1 PUSH1 0x1 DUP2 SLOAD ADD DUP1 DUP3 SSTORE DUP1 SWAP2 POP POP PUSH1 0x1 SWAP1 SUB SWAP1 PUSH1 0x0 MSTORE PUSH1 0x20 PUSH1 0x0 KECCAK256 SWAP1 PUSH1 0x9 MUL ADD PUSH1 0x0 SWAP1 SWAP2 SWAP1 SWAP2 SWAP1 SWAP2 POP PUSH1 0x0 DUP3 ADD MLOAD DUP2 PUSH1 0x0 ADD SSTORE PUSH1 0x20 DUP3 ADD MLOAD DUP2 PUSH1 0x1 ADD PUSH1 0x0 PUSH2 0x100 EXP DUP2 SLOAD DUP2 PUSH20 0xFFFFFFFFFFFFFFFFFFFFFFFFFFFFFFFFFFFFFFFF MUL NOT AND SWAP1 DUP4 PUSH20 0xFFFFFFFFFFFFFFFFFFFFFFFFFFFFFFFFFFFFFFFF AND MUL OR SWAP1 SSTORE POP PUSH1 0x40 DUP3 ADD MLOAD DUP2 PUSH1 0x2 ADD PUSH1 0x0 PUSH2 0x100 EXP DUP2 SLOAD DUP2 PUSH20 0xFFFFFFFFFFFFFFFFFFFFFFFFFFFFFFFFFFFFFFFF MUL NOT AND SWAP1 DUP4 PUSH20 0xFFFFFFFFFFFFFFFFFFFFFFFFFFFFFFFFFFFFFFFF AND MUL OR SWAP1 SSTORE POP PUSH1 0x60 DUP3 ADD MLOAD DUP2 PUSH1 0x3 ADD SSTORE PUSH1 0x80 DUP3 ADD MLOAD DUP2 PUSH1 0x4 ADD SWAP1 DUP1 MLOAD SWAP1 PUSH1 0x20 ADD SWAP1 PUSH2 0x149A SWAP3 SWAP2 SWAP1 PUSH2 0x1B9B JUMP JUMPDEST POP PUSH1 0xA0 DUP3 ADD MLOAD DUP2 PUSH1 0x5 ADD SWAP1 DUP1 MLOAD SWAP1 PUSH1 0x20 ADD SWAP1 PUSH2 0x14B7 SWAP3 SWAP2 SWAP1 PUSH2 0x1B9B JUMP JUMPDEST POP PUSH1 0xC0 DUP3 ADD MLOAD DUP2 PUSH1 0x6 ADD SWAP1 DUP1 MLOAD SWAP1 PUSH1 0x20 ADD SWAP1 PUSH2 0x14D4 SWAP3 SWAP2 SWAP1 PUSH2 0x1B9B JUMP JUMPDEST POP PUSH1 0xE0 DUP3 ADD MLOAD DUP2 PUSH1 0x7 ADD SSTORE PUSH2 0x100 DUP3 ADD MLOAD DUP2 PUSH1 0x8 ADD PUSH1 0x0 PUSH2 0x100 EXP DUP2 SLOAD DUP2 PUSH1 0xFF MUL NOT AND SWAP1 DUP4 PUSH1 0x3 DUP2 GT ISZERO PUSH2 0x150B JUMPI PUSH2 0x150A PUSH2 0x1E12 JUMP JUMPDEST JUMPDEST MUL OR SWAP1 SSTORE POP POP POP PUSH1 0x1 PUSH1 0x2 DUP1 SLOAD SWAP1 POP PUSH2 0x1524 SWAP2 SWAP1 PUSH2 0x27D6 JUMP JUMPDEST PUSH1 0x3 PUSH1 0x0 DUP5 DUP2 MSTORE PUSH1 0x20 ADD SWAP1 DUP2 MSTORE PUSH1 0x20 ADD PUSH1 0x0 KECCAK256 DUP2 SWAP1 SSTORE POP DUP6 PUSH1 0x0 DUP1 CALLER PUSH20 0xFFFFFFFFFFFFFFFFFFFFFFFFFFFFFFFFFFFFFFFF AND PUSH20 0xFFFFFFFFFFFFFFFFFFFFFFFFFFFFFFFFFFFFFFFF AND DUP2 MSTORE PUSH1 0x20 ADD SWAP1 DUP2 MSTORE PUSH1 0x20 ADD PUSH1 0x0 KECCAK256 PUSH1 0x0 DUP3 DUP3 SLOAD PUSH2 0x1589 SWAP2 SWAP1 PUSH2 0x27D6 JUMP JUMPDEST SWAP3 POP POP DUP2 SWAP1 SSTORE POP DUP6 PUSH1 0x0 DUP1 DUP10 PUSH20 0xFFFFFFFFFFFFFFFFFFFFFFFFFFFFFFFFFFFFFFFF AND PUSH20 0xFFFFFFFFFFFFFFFFFFFFFFFFFFFFFFFFFFFFFFFF AND DUP2 MSTORE PUSH1 0x20 ADD SWAP1 DUP2 MSTORE PUSH1 0x20 ADD PUSH1 0x0 KECCAK256 PUSH1 0x0 DUP3 DUP3 SLOAD PUSH2 0x15DE SWAP2 SWAP1 PUSH2 0x2582 JUMP JUMPDEST SWAP3 POP POP DUP2 SWAP1 SSTORE POP PUSH1 0x2 DUP1 PUSH1 0x1 PUSH1 0x2 DUP1 SLOAD SWAP1 POP PUSH2 0x15FA SWAP2 SWAP1 PUSH2 0x27D6 JUMP JUMPDEST DUP2 SLOAD DUP2 LT PUSH2 0x160B JUMPI PUSH2 0x160A PUSH2 0x237F JUMP JUMPDEST JUMPDEST SWAP1 PUSH1 0x0 MSTORE PUSH1 0x20 PUSH1 0x0 KECCAK256 SWAP1 PUSH1 0x9 MUL ADD PUSH1 0x8 ADD PUSH1 0x0 PUSH2 0x100 EXP DUP2 SLOAD DUP2 PUSH1 0xFF MUL NOT AND SWAP1 DUP4 PUSH1 0x3 DUP2 GT ISZERO PUSH2 0x163E JUMPI PUSH2 0x163D PUSH2 0x1E12 JUMP JUMPDEST JUMPDEST MUL OR SWAP1 SSTORE POP DUP7 PUSH20 0xFFFFFFFFFFFFFFFFFFFFFFFFFFFFFFFFFFFFFFFF AND CALLER PUSH20 0xFFFFFFFFFFFFFFFFFFFFFFFFFFFFFFFFFFFFFFFF AND DUP4 PUSH32 0x82E8134A6A3A6586EAB71827E213B1A1F6C8B261024ADBECF466EEB0240BB916 DUP10 PUSH1 0x1 PUSH1 0x0 CALLER PUSH20 0xFFFFFFFFFFFFFFFFFFFFFFFFFFFFFFFFFFFFFFFF AND PUSH20 0xFFFFFFFFFFFFFFFFFFFFFFFFFFFFFFFFFFFFFFFF AND DUP2 MSTORE PUSH1 0x20 ADD SWAP1 DUP2 MSTORE PUSH1 0x20 ADD PUSH1 0x0 KECCAK256 DUP11 DUP11 TIMESTAMP PUSH1 0x40 MLOAD PUSH2 0x16E7 SWAP6 SWAP5 SWAP4 SWAP3 SWAP2 SWAP1 PUSH2 0x289F JUMP JUMPDEST PUSH1 0x40 MLOAD DUP1 SWAP2 SUB SWAP1 LOG4 DUP2 PUSH31 0x3013893708BD175BC8EEEDD6EA1E367024BBC9BC7B110E7ED37BC77ACEAC57 PUSH1 0x2 PUSH1 0x40 MLOAD PUSH2 0x171F SWAP2 SWAP1 PUSH2 0x2608 JUMP JUMPDEST PUSH1 0x40 MLOAD DUP1 SWAP2 SUB SWAP1 LOG2 CALLER PUSH20 0xFFFFFFFFFFFFFFFFFFFFFFFFFFFFFFFFFFFFFFFF AND PUSH32 0x8AD64A0AC7700DD8425AB0499F107CB6E2CD1581D803C5B8C1C79DCB8190B1AF PUSH1 0x0 DUP1 CALLER PUSH20 0xFFFFFFFFFFFFFFFFFFFFFFFFFFFFFFFFFFFFFFFF AND PUSH20 0xFFFFFFFFFFFFFFFFFFFFFFFFFFFFFFFFFFFFFFFF AND DUP2 MSTORE PUSH1 0x20 ADD SWAP1 DUP2 MSTORE PUSH1 0x20 ADD PUSH1 0x0 KECCAK256 SLOAD PUSH1 0x40 MLOAD PUSH2 0x17AB SWAP2 SWAP1 PUSH2 0x1CF6 JUMP JUMPDEST PUSH1 0x40 MLOAD DUP1 SWAP2 SUB SWAP1 LOG2 DUP7 PUSH20 0xFFFFFFFFFFFFFFFFFFFFFFFFFFFFFFFFFFFFFFFF AND PUSH32 0x8AD64A0AC7700DD8425AB0499F107CB6E2CD1581D803C5B8C1C79DCB8190B1AF PUSH1 0x0 DUP1 DUP11 PUSH20 0xFFFFFFFFFFFFFFFFFFFFFFFFFFFFFFFFFFFFFFFF AND PUSH20 0xFFFFFFFFFFFFFFFFFFFFFFFFFFFFFFFFFFFFFFFF AND DUP2 MSTORE PUSH1 0x20 ADD SWAP1 DUP2 MSTORE PUSH1 0x20 ADD PUSH1 0x0 KECCAK256 SLOAD PUSH1 0x40 MLOAD PUSH2 0x1837 SWAP2 SWAP1 PUSH2 0x1CF6 JUMP JUMPDEST PUSH1 0x40 MLOAD DUP1 SWAP2 SUB SWAP1 LOG2 DUP2 SWAP3 POP POP POP SWAP5 SWAP4 POP POP POP POP JUMP JUMPDEST PUSH1 0x60 PUSH1 0x0 DUP1 JUMPDEST PUSH1 0x2 DUP1 SLOAD SWAP1 POP DUP2 LT ISZERO PUSH2 0x1975 JUMPI DUP4 PUSH20 0xFFFFFFFFFFFFFFFFFFFFFFFFFFFFFFFFFFFFFFFF AND PUSH1 0x2 DUP3 DUP2 SLOAD DUP2 LT PUSH2 0x188A JUMPI PUSH2 0x1889 PUSH2 0x237F JUMP JUMPDEST JUMPDEST SWAP1 PUSH1 0x0 MSTORE PUSH1 0x20 PUSH1 0x0 KECCAK256 SWAP1 PUSH1 0x9 MUL ADD PUSH1 0x1 ADD PUSH1 0x0 SWAP1 SLOAD SWAP1 PUSH2 0x100 EXP SWAP1 DIV PUSH20 0xFFFFFFFFFFFFFFFFFFFFFFFFFFFFFFFFFFFFFFFF AND PUSH20 0xFFFFFFFFFFFFFFFFFFFFFFFFFFFFFFFFFFFFFFFF AND EQ DUP1 PUSH2 0x194E JUMPI POP DUP4 PUSH20 0xFFFFFFFFFFFFFFFFFFFFFFFFFFFFFFFFFFFFFFFF AND PUSH1 0x2 DUP3 DUP2 SLOAD DUP2 LT PUSH2 0x1904 JUMPI PUSH2 0x1903 PUSH2 0x237F JUMP JUMPDEST JUMPDEST SWAP1 PUSH1 0x0 MSTORE PUSH1 0x20 PUSH1 0x0 KECCAK256 SWAP1 PUSH1 0x9 MUL ADD PUSH1 0x2 ADD PUSH1 0x0 SWAP1 SLOAD SWAP1 PUSH2 0x100 EXP SWAP1 DIV PUSH20 0xFFFFFFFFFFFFFFFFFFFFFFFFFFFFFFFFFFFFFFFF AND PUSH20 0xFFFFFFFFFFFFFFFFFFFFFFFFFFFFFFFFFFFFFFFF AND EQ JUMPDEST ISZERO PUSH2 0x1962 JUMPI DUP2 DUP1 PUSH2 0x195E SWAP1 PUSH2 0x278D JUMP JUMPDEST SWAP3 POP POP JUMPDEST DUP1 DUP1 PUSH2 0x196D SWAP1 PUSH2 0x278D JUMP JUMPDEST SWAP2 POP POP PUSH2 0x1852 JUMP JUMPDEST POP PUSH1 0x0 DUP2 PUSH8 0xFFFFFFFFFFFFFFFF DUP2 GT ISZERO PUSH2 0x1992 JUMPI PUSH2 0x1991 PUSH2 0x1FA8 JUMP JUMPDEST JUMPDEST PUSH1 0x40 MLOAD SWAP1 DUP1 DUP3 MSTORE DUP1 PUSH1 0x20 MUL PUSH1 0x20 ADD DUP3 ADD PUSH1 0x40 MSTORE DUP1 ISZERO PUSH2 0x19C0 JUMPI DUP2 PUSH1 0x20 ADD PUSH1 0x20 DUP3 MUL DUP1 CALLDATASIZE DUP4 CALLDATACOPY DUP1 DUP3 ADD SWAP2 POP POP SWAP1 POP JUMPDEST POP SWAP1 POP PUSH1 0x0 DUP1 JUMPDEST PUSH1 0x2 DUP1 SLOAD SWAP1 POP DUP2 LT ISZERO PUSH2 0x1B2F JUMPI DUP6 PUSH20 0xFFFFFFFFFFFFFFFFFFFFFFFFFFFFFFFFFFFFFFFF AND PUSH1 0x2 DUP3 DUP2 SLOAD DUP2 LT PUSH2 0x19FF JUMPI PUSH2 0x19FE PUSH2 0x237F JUMP JUMPDEST JUMPDEST SWAP1 PUSH1 0x0 MSTORE PUSH1 0x20 PUSH1 0x0 KECCAK256 SWAP1 PUSH1 0x9 MUL ADD PUSH1 0x1 ADD PUSH1 0x0 SWAP1 SLOAD SWAP1 PUSH2 0x100 EXP SWAP1 DIV PUSH20 0xFFFFFFFFFFFFFFFFFFFFFFFFFFFFFFFFFFFFFFFF AND PUSH20 0xFFFFFFFFFFFFFFFFFFFFFFFFFFFFFFFFFFFFFFFF AND EQ DUP1 PUSH2 0x1AC3 JUMPI POP DUP6 PUSH20 0xFFFFFFFFFFFFFFFFFFFFFFFFFFFFFFFFFFFFFFFF AND PUSH1 0x2 DUP3 DUP2 SLOAD DUP2 LT PUSH2 0x1A79 JUMPI PUSH2 0x1A78 PUSH2 0x237F JUMP JUMPDEST JUMPDEST SWAP1 PUSH1 0x0 MSTORE PUSH1 0x20 PUSH1 0x0 KECCAK256 SWAP1 PUSH1 0x9 MUL ADD PUSH1 0x2 ADD PUSH1 0x0 SWAP1 SLOAD SWAP1 PUSH2 0x100 EXP SWAP1 DIV PUSH20 0xFFFFFFFFFFFFFFFFFFFFFFFFFFFFFFFFFFFFFFFF AND PUSH20 0xFFFFFFFFFFFFFFFFFFFFFFFFFFFFFFFFFFFFFFFF AND EQ JUMPDEST ISZERO PUSH2 0x1B1C JUMPI PUSH1 0x2 DUP2 DUP2 SLOAD DUP2 LT PUSH2 0x1ADC JUMPI PUSH2 0x1ADB PUSH2 0x237F JUMP JUMPDEST JUMPDEST SWAP1 PUSH1 0x0 MSTORE PUSH1 0x20 PUSH1 0x0 KECCAK256 SWAP1 PUSH1 0x9 MUL ADD PUSH1 0x0 ADD SLOAD DUP4 DUP4 DUP2 MLOAD DUP2 LT PUSH2 0x1B01 JUMPI PUSH2 0x1B00 PUSH2 0x237F JUMP JUMPDEST JUMPDEST PUSH1 0x20 MUL PUSH1 0x20 ADD ADD DUP2 DUP2 MSTORE POP POP DUP2 DUP1 PUSH2 0x1B18 SWAP1 PUSH2 0x278D JUMP JUMPDEST SWAP3 POP POP JUMPDEST DUP1 DUP1 PUSH2 0x1B27 SWAP1 PUSH2 0x278D JUMP JUMPDEST SWAP2 POP POP PUSH2 0x19C7 JUMP JUMPDEST POP DUP2 SWAP4 POP POP POP POP SWAP2 SWAP1 POP JUMP JUMPDEST PUSH1 0x0 DUP1 PUSH1 0x0 DUP4 PUSH20 0xFFFFFFFFFFFFFFFFFFFFFFFFFFFFFFFFFFFFFFFF AND PUSH20 0xFFFFFFFFFFFFFFFFFFFFFFFFFFFFFFFFFFFFFFFF AND DUP2 MSTORE PUSH1 0x20 ADD SWAP1 DUP2 MSTORE PUSH1 0x20 ADD PUSH1 0x0 KECCAK256 SLOAD SWAP1 POP SWAP2 SWAP1 POP JUMP JUMPDEST PUSH1 0x3 PUSH1 0x20 MSTORE DUP1 PUSH1 0x0 MSTORE PUSH1 0x40 PUSH1 0x0 KECCAK256 PUSH1 0x0 SWAP2 POP SWAP1 POP SLOAD DUP2 JUMP JUMPDEST DUP3 DUP1 SLOAD PUSH2 0x1BA7 SWAP1 PUSH2 0x23DD JUMP JUMPDEST SWAP1 PUSH1 0x0 MSTORE PUSH1 0x20 PUSH1 0x0 KECCAK256 SWAP1 PUSH1 0x1F ADD PUSH1 0x20 SWAP1 DIV DUP2 ADD SWAP3 DUP3 PUSH2 0x1BC9 JUMPI PUSH1 0x0 DUP6 SSTORE PUSH2 0x1C10 JUMP JUMPDEST DUP3 PUSH1 0x1F LT PUSH2 0x1BE2 JUMPI DUP1 MLOAD PUSH1 0xFF NOT AND DUP4 DUP1 ADD OR DUP6 SSTORE PUSH2 0x1C10 JUMP JUMPDEST DUP3 DUP1 ADD PUSH1 0x1 ADD DUP6 SSTORE DUP3 ISZERO PUSH2 0x1C10 JUMPI SWAP2 DUP3 ADD JUMPDEST DUP3 DUP2 GT ISZERO PUSH2 0x1C0F JUMPI DUP3 MLOAD DUP3 SSTORE SWAP2 PUSH1 0x20 ADD SWAP2 SWAP1 PUSH1 0x1 ADD SWAP1 PUSH2 0x1BF4 JUMP JUMPDEST JUMPDEST POP SWAP1 POP PUSH2 0x1C1D SWAP2 SWAP1 PUSH2 0x1C21 JUMP JUMPDEST POP SWAP1 JUMP JUMPDEST JUMPDEST DUP1 DUP3 GT ISZERO PUSH2 0x1C3A JUMPI PUSH1 0x0 DUP2 PUSH1 0x0 SWAP1 SSTORE POP PUSH1 0x1 ADD PUSH2 0x1C22 JUMP JUMPDEST POP SWAP1 JUMP JUMPDEST PUSH1 0x0 PUSH1 0x40 MLOAD SWAP1 POP SWAP1 JUMP JUMPDEST PUSH1 0x0 DUP1 REVERT JUMPDEST PUSH1 0x0 DUP1 REVERT JUMPDEST PUSH1 0x0 PUSH20 0xFFFFFFFFFFFFFFFFFFFFFFFFFFFFFFFFFFFFFFFF DUP3 AND SWAP1 POP SWAP2 SWAP1 POP JUMP JUMPDEST PUSH1 0x0 PUSH2 0x1C7D DUP3 PUSH2 0x1C52 JUMP JUMPDEST SWAP1 POP SWAP2 SWAP1 POP JUMP JUMPDEST PUSH2 0x1C8D DUP2 PUSH2 0x1C72 JUMP JUMPDEST DUP2 EQ PUSH2 0x1C98 JUMPI PUSH1 0x0 DUP1 REVERT JUMPDEST POP JUMP JUMPDEST PUSH1 0x0 DUP2 CALLDATALOAD SWAP1 POP PUSH2 0x1CAA DUP2 PUSH2 0x1C84 JUMP JUMPDEST SWAP3 SWAP2 POP POP JUMP JUMPDEST PUSH1 0x0 PUSH1 0x20 DUP3 DUP5 SUB SLT ISZERO PUSH2 0x1CC6 JUMPI PUSH2 0x1CC5 PUSH2 0x1C48 JUMP JUMPDEST JUMPDEST PUSH1 0x0 PUSH2 0x1CD4 DUP5 DUP3 DUP6 ADD PUSH2 0x1C9B JUMP JUMPDEST SWAP2 POP POP SWAP3 SWAP2 POP POP JUMP JUMPDEST PUSH1 0x0 DUP2 SWAP1 POP SWAP2 SWAP1 POP JUMP JUMPDEST PUSH2 0x1CF0 DUP2 PUSH2 0x1CDD JUMP JUMPDEST DUP3 MSTORE POP POP JUMP JUMPDEST PUSH1 0x0 PUSH1 0x20 DUP3 ADD SWAP1 POP PUSH2 0x1D0B PUSH1 0x0 DUP4 ADD DUP5 PUSH2 0x1CE7 JUMP JUMPDEST SWAP3 SWAP2 POP POP JUMP JUMPDEST PUSH2 0x1D1A DUP2 PUSH2 0x1CDD JUMP JUMPDEST DUP2 EQ PUSH2 0x1D25 JUMPI PUSH1 0x0 DUP1 REVERT JUMPDEST POP JUMP JUMPDEST PUSH1 0x0 DUP2 CALLDATALOAD SWAP1 POP PUSH2 0x1D37 DUP2 PUSH2 0x1D11 JUMP JUMPDEST SWAP3 SWAP2 POP POP JUMP JUMPDEST PUSH1 0x0 PUSH1 0x20 DUP3 DUP5 SUB SLT ISZERO PUSH2 0x1D53 JUMPI PUSH2 0x1D52 PUSH2 0x1C48 JUMP JUMPDEST JUMPDEST PUSH1 0x0 PUSH2 0x1D61 DUP5 DUP3 DUP6 ADD PUSH2 0x1D28 JUMP JUMPDEST SWAP2 POP POP SWAP3 SWAP2 POP POP JUMP JUMPDEST PUSH2 0x1D73 DUP2 PUSH2 0x1C72 JUMP JUMPDEST DUP3 MSTORE POP POP JUMP JUMPDEST PUSH1 0x0 DUP2 MLOAD SWAP1 POP SWAP2 SWAP1 POP JUMP JUMPDEST PUSH1 0x0 DUP3 DUP3 MSTORE PUSH1 0x20 DUP3 ADD SWAP1 POP SWAP3 SWAP2 POP POP JUMP JUMPDEST PUSH1 0x0 JUMPDEST DUP4 DUP2 LT ISZERO PUSH2 0x1DB3 JUMPI DUP1 DUP3 ADD MLOAD DUP2 DUP5 ADD MSTORE PUSH1 0x20 DUP2 ADD SWAP1 POP PUSH2 0x1D98 JUMP JUMPDEST DUP4 DUP2 GT ISZERO PUSH2 0x1DC2 JUMPI PUSH1 0x0 DUP5 DUP5 ADD MSTORE JUMPDEST POP POP POP POP JUMP JUMPDEST PUSH1 0x0 PUSH1 0x1F NOT PUSH1 0x1F DUP4 ADD AND SWAP1 POP SWAP2 SWAP1 POP JUMP JUMPDEST PUSH1 0x0 PUSH2 0x1DE4 DUP3 PUSH2 0x1D79 JUMP JUMPDEST PUSH2 0x1DEE DUP2 DUP6 PUSH2 0x1D84 JUMP JUMPDEST SWAP4 POP PUSH2 0x1DFE DUP2 DUP6 PUSH1 0x20 DUP7 ADD PUSH2 0x1D95 JUMP JUMPDEST PUSH2 0x1E07 DUP2 PUSH2 0x1DC8 JUMP JUMPDEST DUP5 ADD SWAP2 POP POP SWAP3 SWAP2 POP POP JUMP JUMPDEST PUSH32 0x4E487B7100000000000000000000000000000000000000000000000000000000 PUSH1 0x0 MSTORE PUSH1 0x21 PUSH1 0x4 MSTORE PUSH1 0x24 PUSH1 0x0 REVERT JUMPDEST PUSH1 0x4 DUP2 LT PUSH2 0x1E52 JUMPI PUSH2 0x1E51 PUSH2 0x1E12 JUMP JUMPDEST JUMPDEST POP JUMP JUMPDEST PUSH1 0x0 DUP2 SWAP1 POP PUSH2 0x1E63 DUP3 PUSH2 0x1E41 JUMP JUMPDEST SWAP2 SWAP1 POP JUMP JUMPDEST PUSH1 0x0 PUSH2 0x1E73 DUP3 PUSH2 0x1E55 JUMP JUMPDEST SWAP1 POP SWAP2 SWAP1 POP JUMP JUMPDEST PUSH2 0x1E83 DUP2 PUSH2 0x1E68 JUMP JUMPDEST DUP3 MSTORE POP POP JUMP JUMPDEST PUSH1 0x0 PUSH2 0x120 DUP3 ADD SWAP1 POP PUSH2 0x1E9F PUSH1 0x0 DUP4 ADD DUP13 PUSH2 0x1CE7 JUMP JUMPDEST PUSH2 0x1EAC PUSH1 0x20 DUP4 ADD DUP12 PUSH2 0x1D6A JUMP JUMPDEST PUSH2 0x1EB9 PUSH1 0x40 DUP4 ADD DUP11 PUSH2 0x1D6A JUMP JUMPDEST PUSH2 0x1EC6 PUSH1 0x60 DUP4 ADD DUP10 PUSH2 0x1CE7 JUMP JUMPDEST DUP2 DUP2 SUB PUSH1 0x80 DUP4 ADD MSTORE PUSH2 0x1ED8 DUP2 DUP9 PUSH2 0x1DD9 JUMP JUMPDEST SWAP1 POP DUP2 DUP2 SUB PUSH1 0xA0 DUP4 ADD MSTORE PUSH2 0x1EEC DUP2 DUP8 PUSH2 0x1DD9 JUMP JUMPDEST SWAP1 POP DUP2 DUP2 SUB PUSH1 0xC0 DUP4 ADD MSTORE PUSH2 0x1F00 DUP2 DUP7 PUSH2 0x1DD9 JUMP JUMPDEST SWAP1 POP PUSH2 0x1F0F PUSH1 0xE0 DUP4 ADD DUP6 PUSH2 0x1CE7 JUMP JUMPDEST PUSH2 0x1F1D PUSH2 0x100 DUP4 ADD DUP5 PUSH2 0x1E7A JUMP JUMPDEST SWAP11 SWAP10 POP POP POP POP POP POP POP POP POP POP JUMP JUMPDEST PUSH1 0x0 PUSH1 0x20 DUP3 ADD SWAP1 POP DUP2 DUP2 SUB PUSH1 0x0 DUP4 ADD MSTORE PUSH2 0x1F45 DUP2 DUP5 PUSH2 0x1DD9 JUMP JUMPDEST SWAP1 POP SWAP3 SWAP2 POP POP JUMP JUMPDEST PUSH1 0x0 PUSH1 0x20 DUP3 ADD SWAP1 POP PUSH2 0x1F62 PUSH1 0x0 DUP4 ADD DUP5 PUSH2 0x1D6A JUMP JUMPDEST SWAP3 SWAP2 POP POP JUMP JUMPDEST PUSH1 0x0 DUP2 ISZERO ISZERO SWAP1 POP SWAP2 SWAP1 POP JUMP JUMPDEST PUSH2 0x1F7D DUP2 PUSH2 0x1F68 JUMP JUMPDEST DUP3 MSTORE POP POP JUMP JUMPDEST PUSH1 0x0 PUSH1 0x20 DUP3 ADD SWAP1 POP PUSH2 0x1F98 PUSH1 0x0 DUP4 ADD DUP5 PUSH2 0x1F74 JUMP JUMPDEST SWAP3 SWAP2 POP POP JUMP JUMPDEST PUSH1 0x0 DUP1 REVERT JUMPDEST PUSH1 0x0 DUP1 REVERT JUMPDEST PUSH32 0x4E487B7100000000000000000000000000000000000000000000000000000000 PUSH1 0x0 MSTORE PUSH1 0x41 PUSH1 0x4 MSTORE PUSH1 0x24 PUSH1 0x0 REVERT JUMPDEST PUSH2 0x1FE0 DUP3 PUSH2 0x1DC8 JUMP JUMPDEST DUP2 ADD DUP2 DUP2 LT PUSH8 0xFFFFFFFFFFFFFFFF DUP3 GT OR ISZERO PUSH2 0x1FFF JUMPI PUSH2 0x1FFE PUSH2 0x1FA8 JUMP JUMPDEST JUMPDEST DUP1 PUSH1 0x40 MSTORE POP POP POP JUMP JUMPDEST PUSH1 0x0 PUSH2 0x2012 PUSH2 0x1C3E JUMP JUMPDEST SWAP1 POP PUSH2 0x201E DUP3 DUP3 PUSH2 0x1FD7 JUMP JUMPDEST SWAP2 SWAP1 POP JUMP JUMPDEST PUSH1 0x0 PUSH8 0xFFFFFFFFFFFFFFFF DUP3 GT ISZERO PUSH2 0x203E JUMPI PUSH2 0x203D PUSH2 0x1FA8 JUMP JUMPDEST JUMPDEST PUSH2 0x2047 DUP3 PUSH2 0x1DC8 JUMP JUMPDEST SWAP1 POP PUSH1 0x20 DUP2 ADD SWAP1 POP SWAP2 SWAP1 POP JUMP JUMPDEST DUP3 DUP2 DUP4 CALLDATACOPY PUSH1 0x0 DUP4 DUP4 ADD MSTORE POP POP POP JUMP JUMPDEST PUSH1 0x0 PUSH2 0x2076 PUSH2 0x2071 DUP5 PUSH2 0x2023 JUMP JUMPDEST PUSH2 0x2008 JUMP JUMPDEST SWAP1 POP DUP3 DUP2 MSTORE PUSH1 0x20 DUP2 ADD DUP5 DUP5 DUP5 ADD GT ISZERO PUSH2 0x2092 JUMPI PUSH2 0x2091 PUSH2 0x1FA3 JUMP JUMPDEST JUMPDEST PUSH2 0x209D DUP5 DUP3 DUP6 PUSH2 0x2054 JUMP JUMPDEST POP SWAP4 SWAP3 POP POP POP JUMP JUMPDEST PUSH1 0x0 DUP3 PUSH1 0x1F DUP4 ADD SLT PUSH2 0x20BA JUMPI PUSH2 0x20B9 PUSH2 0x1F9E JUMP JUMPDEST JUMPDEST DUP2 CALLDATALOAD PUSH2 0x20CA DUP5 DUP3 PUSH1 0x20 DUP7 ADD PUSH2 0x2063 JUMP JUMPDEST SWAP2 POP POP SWAP3 SWAP2 POP POP JUMP JUMPDEST PUSH1 0x0 DUP1 PUSH1 0x40 DUP4 DUP6 SUB SLT ISZERO PUSH2 0x20EA JUMPI PUSH2 0x20E9 PUSH2 0x1C48 JUMP JUMPDEST JUMPDEST PUSH1 0x0 PUSH2 0x20F8 DUP6 DUP3 DUP7 ADD PUSH2 0x1C9B JUMP JUMPDEST SWAP3 POP POP PUSH1 0x20 DUP4 ADD CALLDATALOAD PUSH8 0xFFFFFFFFFFFFFFFF DUP2 GT ISZERO PUSH2 0x2119 JUMPI PUSH2 0x2118 PUSH2 0x1C4D JUMP JUMPDEST JUMPDEST PUSH2 0x2125 DUP6 DUP3 DUP7 ADD PUSH2 0x20A5 JUMP JUMPDEST SWAP2 POP POP SWAP3 POP SWAP3 SWAP1 POP JUMP JUMPDEST PUSH1 0x4 DUP2 LT PUSH2 0x213C JUMPI PUSH1 0x0 DUP1 REVERT JUMPDEST POP JUMP JUMPDEST PUSH1 0x0 DUP2 CALLDATALOAD SWAP1 POP PUSH2 0x214E DUP2 PUSH2 0x212F JUMP JUMPDEST SWAP3 SWAP2 POP POP JUMP JUMPDEST PUSH1 0x0 DUP1 PUSH1 0x40 DUP4 DUP6 SUB SLT ISZERO PUSH2 0x216B JUMPI PUSH2 0x216A PUSH2 0x1C48 JUMP JUMPDEST JUMPDEST PUSH1 0x0 PUSH2 0x2179 DUP6 DUP3 DUP7 ADD PUSH2 0x1D28 JUMP JUMPDEST SWAP3 POP POP PUSH1 0x20 PUSH2 0x218A DUP6 DUP3 DUP7 ADD PUSH2 0x213F JUMP JUMPDEST SWAP2 POP POP SWAP3 POP SWAP3 SWAP1 POP JUMP JUMPDEST PUSH1 0x0 DUP1 PUSH1 0x0 DUP1 PUSH1 0x80 DUP6 DUP8 SUB SLT ISZERO PUSH2 0x21AE JUMPI PUSH2 0x21AD PUSH2 0x1C48 JUMP JUMPDEST JUMPDEST PUSH1 0x0 PUSH2 0x21BC DUP8 DUP3 DUP9 ADD PUSH2 0x1C9B JUMP JUMPDEST SWAP5 POP POP PUSH1 0x20 PUSH2 0x21CD DUP8 DUP3 DUP9 ADD PUSH2 0x1D28 JUMP JUMPDEST SWAP4 POP POP PUSH1 0x40 DUP6 ADD CALLDATALOAD PUSH8 0xFFFFFFFFFFFFFFFF DUP2 GT ISZERO PUSH2 0x21EE JUMPI PUSH2 0x21ED PUSH2 0x1C4D JUMP JUMPDEST JUMPDEST PUSH2 0x21FA DUP8 DUP3 DUP9 ADD PUSH2 0x20A5 JUMP JUMPDEST SWAP3 POP POP PUSH1 0x60 DUP6 ADD CALLDATALOAD PUSH8 0xFFFFFFFFFFFFFFFF DUP2 GT ISZERO PUSH2 0x221B JUMPI PUSH2 0x221A PUSH2 0x1C4D JUMP JUMPDEST JUMPDEST PUSH2 0x2227 DUP8 DUP3 DUP9 ADD PUSH2 0x20A5 JUMP JUMPDEST SWAP2 POP POP SWAP3 SWAP6 SWAP2 SWAP5 POP SWAP3 POP JUMP JUMPDEST PUSH1 0x0 DUP2 MLOAD SWAP1 POP SWAP2 SWAP1 POP JUMP JUMPDEST PUSH1 0x0 DUP3 DUP3 MSTORE PUSH1 0x20 DUP3 ADD SWAP1 POP SWAP3 SWAP2 POP POP JUMP JUMPDEST PUSH1 0x0 DUP2 SWAP1 POP PUSH1 0x20 DUP3 ADD SWAP1 POP SWAP2 SWAP1 POP JUMP JUMPDEST PUSH2 0x2268 DUP2 PUSH2 0x1CDD JUMP JUMPDEST DUP3 MSTORE POP POP JUMP JUMPDEST PUSH1 0x0 PUSH2 0x227A DUP4 DUP4 PUSH2 0x225F JUMP JUMPDEST PUSH1 0x20 DUP4 ADD SWAP1 POP SWAP3 SWAP2 POP POP JUMP JUMPDEST PUSH1 0x0 PUSH1 0x20 DUP3 ADD SWAP1 POP SWAP2 SWAP1 POP JUMP JUMPDEST PUSH1 0x0 PUSH2 0x229E DUP3 PUSH2 0x2233 JUMP JUMPDEST PUSH2 0x22A8 DUP2 DUP6 PUSH2 0x223E JUMP JUMPDEST SWAP4 POP PUSH2 0x22B3 DUP4 PUSH2 0x224F JUMP JUMPDEST DUP1 PUSH1 0x0 JUMPDEST DUP4 DUP2 LT ISZERO PUSH2 0x22E4 JUMPI DUP2 MLOAD PUSH2 0x22CB DUP9 DUP3 PUSH2 0x226E JUMP JUMPDEST SWAP8 POP PUSH2 0x22D6 DUP4 PUSH2 0x2286 JUMP JUMPDEST SWAP3 POP POP PUSH1 0x1 DUP2 ADD SWAP1 POP PUSH2 0x22B7 JUMP JUMPDEST POP DUP6 SWAP4 POP POP POP POP SWAP3 SWAP2 POP POP JUMP JUMPDEST PUSH1 0x0 PUSH1 0x20 DUP3 ADD SWAP1 POP DUP2 DUP2 SUB PUSH1 0x0 DUP4 ADD MSTORE PUSH2 0x230B DUP2 DUP5 PUSH2 0x2293 JUMP JUMPDEST SWAP1 POP SWAP3 SWAP2 POP POP JUMP JUMPDEST PUSH32 0x496E76616C6964207472616E73616374696F6E20494400000000000000000000 PUSH1 0x0 DUP3 ADD MSTORE POP JUMP JUMPDEST PUSH1 0x0 PUSH2 0x2349 PUSH1 0x16 DUP4 PUSH2 0x1D84 JUMP JUMPDEST SWAP2 POP PUSH2 0x2354 DUP3 PUSH2 0x2313 JUMP JUMPDEST PUSH1 0x20 DUP3 ADD SWAP1 POP SWAP2 SWAP1 POP JUMP JUMPDEST PUSH1 0x0 PUSH1 0x20 DUP3 ADD SWAP1 POP DUP2 DUP2 SUB PUSH1 0x0 DUP4 ADD MSTORE PUSH2 0x2378 DUP2 PUSH2 0x233C JUMP JUMPDEST SWAP1 POP SWAP2 SWAP1 POP JUMP JUMPDEST PUSH32 0x4E487B7100000000000000000000000000000000000000000000000000000000 PUSH1 0x0 MSTORE PUSH1 0x32 PUSH1 0x4 MSTORE PUSH1 0x24 PUSH1 0x0 REVERT JUMPDEST PUSH32 0x4E487B7100000000000000000000000000000000000000000000000000000000 PUSH1 0x0 MSTORE PUSH1 0x22 PUSH1 0x4 MSTORE PUSH1 0x24 PUSH1 0x0 REVERT JUMPDEST PUSH1 0x0 PUSH1 0x2 DUP3 DIV SWAP1 POP PUSH1 0x1 DUP3 AND DUP1 PUSH2 0x23F5 JUMPI PUSH1 0x7F DUP3 AND SWAP2 POP JUMPDEST PUSH1 0x20 DUP3 LT DUP2 EQ ISZERO PUSH2 0x2409 JUMPI PUSH2 0x2408 PUSH2 0x23AE JUMP JUMPDEST JUMPDEST POP SWAP2 SWAP1 POP JUMP JUMPDEST PUSH32 0x4E6F7420617574686F72697A6564000000000000000000000000000000000000 PUSH1 0x0 DUP3 ADD MSTORE POP JUMP JUMPDEST PUSH1 0x0 PUSH2 0x2445 PUSH1 0xE DUP4 PUSH2 0x1D84 JUMP JUMPDEST SWAP2 POP PUSH2 0x2450 DUP3 PUSH2 0x240F JUMP JUMPDEST PUSH1 0x20 DUP3 ADD SWAP1 POP SWAP2 SWAP1 POP JUMP JUMPDEST PUSH1 0x0 PUSH1 0x20 DUP3 ADD SWAP1 POP DUP2 DUP2 SUB PUSH1 0x0 DUP4 ADD MSTORE PUSH2 0x2474 DUP2 PUSH2 0x2438 JUMP JUMPDEST SWAP1 POP SWAP2 SWAP1 POP JUMP JUMPDEST PUSH32 0x496E76616C696420757365722061646472657373000000000000000000000000 PUSH1 0x0 DUP3 ADD MSTORE POP JUMP JUMPDEST PUSH1 0x0 PUSH2 0x24B1 PUSH1 0x14 DUP4 PUSH2 0x1D84 JUMP JUMPDEST SWAP2 POP PUSH2 0x24BC DUP3 PUSH2 0x247B JUMP JUMPDEST PUSH1 0x20 DUP3 ADD SWAP1 POP SWAP2 SWAP1 POP JUMP JUMPDEST PUSH1 0x0 PUSH1 0x20 DUP3 ADD SWAP1 POP DUP2 DUP2 SUB PUSH1 0x0 DUP4 ADD MSTORE PUSH2 0x24E0 DUP2 PUSH2 0x24A4 JUMP JUMPDEST SWAP1 POP SWAP2 SWAP1 POP JUMP JUMPDEST PUSH32 0x416D6F756E74206D7573742062652067726561746572207468616E2030000000 PUSH1 0x0 DUP3 ADD MSTORE POP JUMP JUMPDEST PUSH1 0x0 PUSH2 0x251D PUSH1 0x1D DUP4 PUSH2 0x1D84 JUMP JUMPDEST SWAP2 POP PUSH2 0x2528 DUP3 PUSH2 0x24E7 JUMP JUMPDEST PUSH1 0x20 DUP3 ADD SWAP1 POP SWAP2 SWAP1 POP JUMP JUMPDEST PUSH1 0x0 PUSH1 0x20 DUP3 ADD SWAP1 POP DUP2 DUP2 SUB PUSH1 0x0 DUP4 ADD MSTORE PUSH2 0x254C DUP2 PUSH2 0x2510 JUMP JUMPDEST SWAP1 POP SWAP2 SWAP1 POP JUMP JUMPDEST PUSH32 0x4E487B7100000000000000000000000000000000000000000000000000000000 PUSH1 0x0 MSTORE PUSH1 0x11 PUSH1 0x4 MSTORE PUSH1 0x24 PUSH1 0x0 REVERT JUMPDEST PUSH1 0x0 PUSH2 0x258D DUP3 PUSH2 0x1CDD JUMP JUMPDEST SWAP2 POP PUSH2 0x2598 DUP4 PUSH2 0x1CDD JUMP JUMPDEST SWAP3 POP DUP3 PUSH32 0xFFFFFFFFFFFFFFFFFFFFFFFFFFFFFFFFFFFFFFFFFFFFFFFFFFFFFFFFFFFFFFFF SUB DUP3 GT ISZERO PUSH2 0x25CD JUMPI PUSH2 0x25CC PUSH2 0x2553 JUMP JUMPDEST JUMPDEST DUP3 DUP3 ADD SWAP1 POP SWAP3 SWAP2 POP POP JUMP JUMPDEST PUSH1 0x0 PUSH1 0x40 DUP3 ADD SWAP1 POP PUSH2 0x25ED PUSH1 0x0 DUP4 ADD DUP6 PUSH2 0x1CE7 JUMP JUMPDEST DUP2 DUP2 SUB PUSH1 0x20 DUP4 ADD MSTORE PUSH2 0x25FF DUP2 DUP5 PUSH2 0x1DD9 JUMP JUMPDEST SWAP1 POP SWAP4 SWAP3 POP POP POP JUMP JUMPDEST PUSH1 0x0 PUSH1 0x20 DUP3 ADD SWAP1 POP PUSH2 0x261D PUSH1 0x0 DUP4 ADD DUP5 PUSH2 0x1E7A JUMP JUMPDEST SWAP3 SWAP2 POP POP JUMP JUMPDEST PUSH32 0x4F6E6C79206F776E65722063616E2063616C6C20746869732066756E6374696F PUSH1 0x0 DUP3 ADD MSTORE PUSH32 0x6E00000000000000000000000000000000000000000000000000000000000000 PUSH1 0x20 DUP3 ADD MSTORE POP JUMP JUMPDEST PUSH1 0x0 PUSH2 0x267F PUSH1 0x21 DUP4 PUSH2 0x1D84 JUMP JUMPDEST SWAP2 POP PUSH2 0x268A DUP3 PUSH2 0x2623 JUMP JUMPDEST PUSH1 0x40 DUP3 ADD SWAP1 POP SWAP2 SWAP1 POP JUMP JUMPDEST PUSH1 0x0 PUSH1 0x20 DUP3 ADD SWAP1 POP DUP2 DUP2 SUB PUSH1 0x0 DUP4 ADD MSTORE PUSH2 0x26AE DUP2 PUSH2 0x2672 JUMP JUMPDEST SWAP1 POP SWAP2 SWAP1 POP JUMP JUMPDEST PUSH32 0x496E76616C696420726563697069656E74206164647265737300000000000000 PUSH1 0x0 DUP3 ADD MSTORE POP JUMP JUMPDEST PUSH1 0x0 PUSH2 0x26EB PUSH1 0x19 DUP4 PUSH2 0x1D84 JUMP JUMPDEST SWAP2 POP PUSH2 0x26F6 DUP3 PUSH2 0x26B5 JUMP JUMPDEST PUSH1 0x20 DUP3 ADD SWAP1 POP SWAP2 SWAP1 POP JUMP JUMPDEST PUSH1 0x0 PUSH1 0x20 DUP3 ADD SWAP1 POP DUP2 DUP2 SUB PUSH1 0x0 DUP4 ADD MSTORE PUSH2 0x271A DUP2 PUSH2 0x26DE JUMP JUMPDEST SWAP1 POP SWAP2 SWAP1 POP JUMP JUMPDEST PUSH32 0x496E73756666696369656E742062616C616E6365000000000000000000000000 PUSH1 0x0 DUP3 ADD MSTORE POP JUMP JUMPDEST PUSH1 0x0 PUSH2 0x2757 PUSH1 0x14 DUP4 PUSH2 0x1D84 JUMP JUMPDEST SWAP2 POP PUSH2 0x2762 DUP3 PUSH2 0x2721 JUMP JUMPDEST PUSH1 0x20 DUP3 ADD SWAP1 POP SWAP2 SWAP1 POP JUMP JUMPDEST PUSH1 0x0 PUSH1 0x20 DUP3 ADD SWAP1 POP DUP2 DUP2 SUB PUSH1 0x0 DUP4 ADD MSTORE PUSH2 0x2786 DUP2 PUSH2 0x274A JUMP JUMPDEST SWAP1 POP SWAP2 SWAP1 POP JUMP JUMPDEST PUSH1 0x0 PUSH2 0x2798 DUP3 PUSH2 0x1CDD JUMP JUMPDEST SWAP2 POP PUSH32 0xFFFFFFFFFFFFFFFFFFFFFFFFFFFFFFFFFFFFFFFFFFFFFFFFFFFFFFFFFFFFFFFF DUP3 EQ ISZERO PUSH2 0x27CB JUMPI PUSH2 0x27CA PUSH2 0x2553 JUMP JUMPDEST JUMPDEST PUSH1 0x1 DUP3 ADD SWAP1 POP SWAP2 SWAP1 POP JUMP JUMPDEST PUSH1 0x0 PUSH2 0x27E1 DUP3 PUSH2 0x1CDD JUMP JUMPDEST SWAP2 POP PUSH2 0x27EC DUP4 PUSH2 0x1CDD JUMP JUMPDEST SWAP3 POP DUP3 DUP3 LT ISZERO PUSH2 0x27FF JUMPI PUSH2 0x27FE PUSH2 0x2553 JUMP JUMPDEST JUMPDEST DUP3 DUP3 SUB SWAP1 POP SWAP3 SWAP2 POP POP JUMP JUMPDEST PUSH1 0x0 DUP2 SWAP1 POP DUP2 PUSH1 0x0 MSTORE PUSH1 0x20 PUSH1 0x0 KECCAK256 SWAP1 POP SWAP2 SWAP1 POP JUMP JUMPDEST PUSH1 0x0 DUP2 SLOAD PUSH2 0x282C DUP2 PUSH2 0x23DD JUMP JUMPDEST PUSH2 0x2836 DUP2 DUP7 PUSH2 0x1D84 JUMP JUMPDEST SWAP5 POP PUSH1 0x1 DUP3 AND PUSH1 0x0 DUP2 EQ PUSH2 0x2851 JUMPI PUSH1 0x1 DUP2 EQ PUSH2 0x2863 JUMPI PUSH2 0x2896 JUMP JUMPDEST PUSH1 0xFF NOT DUP4 AND DUP7 MSTORE PUSH1 0x20 DUP7 ADD SWAP4 POP PUSH2 0x2896 JUMP JUMPDEST PUSH2 0x286C DUP6 PUSH2 0x280A JUMP JUMPDEST PUSH1 0x0 JUMPDEST DUP4 DUP2 LT ISZERO PUSH2 0x288E JUMPI DUP2 SLOAD DUP2 DUP10 ADD MSTORE PUSH1 0x1 DUP3 ADD SWAP2 POP PUSH1 0x20 DUP2 ADD SWAP1 POP PUSH2 0x286F JUMP JUMPDEST DUP1 DUP9 ADD SWAP6 POP POP POP JUMPDEST POP POP POP SWAP3 SWAP2 POP POP JUMP JUMPDEST PUSH1 0x0 PUSH1 0xA0 DUP3 ADD SWAP1 POP PUSH2 0x28B4 PUSH1 0x0 DUP4 ADD DUP9 PUSH2 0x1CE7 JUMP JUMPDEST DUP2 DUP2 SUB PUSH1 0x20 DUP4 ADD MSTORE PUSH2 0x28C6 DUP2 DUP8 PUSH2 0x281F JUMP JUMPDEST SWAP1 POP DUP2 DUP2 SUB PUSH1 0x40 DUP4 ADD MSTORE PUSH2 0x28DA DUP2 DUP7 PUSH2 0x1DD9 JUMP JUMPDEST SWAP1 POP DUP2 DUP2 SUB PUSH1 0x60 DUP4 ADD MSTORE PUSH2 0x28EE DUP2 DUP6 PUSH2 0x1DD9 JUMP JUMPDEST SWAP1 POP PUSH2 0x28FD PUSH1 0x80 DUP4 ADD DUP5 PUSH2 0x1CE7 JUMP JUMPDEST SWAP7 SWAP6 POP POP POP POP POP POP JUMP INVALID LOG2 PUSH5 0x6970667358 0x22 SLT KECCAK256 CREATE CREATE2 OR CREATE GT CALLVALUE 0xEB MUL 0xDC PUSH24 0xB2FE74FE355BF3AF62346EBEAEAFEFE48B10D4B69FBF6473 PUSH16 0x6C634300080A00330000000000000000 "
    },
    "gasEstimates": {
      "creation": {
        "codeDepositCost": "2111400",
        "executionCost": "31523",
        "totalCost": "2142923"
      },
      "external": {
        "addAuthorizedBank(address,string)": "infinite",
        "authorizedBanks(address)": "2934",
        "balances(address)": "2838",
        "bankCodes(address)": "infinite",
        "deposit(address,string)": "infinite",
        "getBalance(address)": "2907",
        "getTransaction(uint256)": "infinite",
        "getTransactionCount()": "2491",
        "getUserTransactions(address)": "infinite",
        "owner()": "2559",
        "transactionIndex(uint256)": "infinite",
        "transactions(uint256)": "infinite",
        "transfer(address,uint256,string,string)": "infinite",
        "updateTransactionStatus(uint256,uint8)": "37494"
      }
    },
    "methodIdentifiers": {
      "addAuthorizedBank(address,string)": "c559e45d",
      "authorizedBanks(address)": "a2969820",
      "balances(address)": "27e235e3",
      "bankCodes(address)": "392c5bd8",
      "deposit(address,string)": "b7482509",
      "getBalance(address)": "f8b2cb4f",
      "getTransaction(uint256)": "33ea3dc8",
      "getTransactionCount()": "2e7700f0",
      "getUserTransactions(address)": "ef925399",
      "owner()": "8da5cb5b",
      "transactionIndex(uint256)": "f99185c2",
      "transactions(uint256)": "9ace38c2",
      "transfer(address,uint256,string,string)": "e9c02815",
      "updateTransactionStatus(uint256,uint8)": "bafbf728"
    }
  },
  "storageLayout": {
    "storage": [
      {
        "astId": 36,
        "contract": "InterbankTransfer.sol:InterbankTransfer",
        "label": "balances",
        "offset": 0,
        "slot": "0",
        "type": "t_mapping(t_address,t_uint256)"
      },
      {
        "astId": 40,
        "contract": "InterbankTransfer.sol:InterbankTransfer",
        "label": "bankCodes",
        "offset": 0,
        "slot": "1",
        "type": "t_mapping(t_address,t_string_storage)"
      },
      {
        "astId": 69,
        "contract": "InterbankTransfer.sol:InterbankTransfer",
        "label": "transactions",
        "offset": 0,
        "slot": "2",
        "type": "t_array(t_struct(Transaction)60_storage)dyn_storage"
      },
      {
        "astId": 73,
        "contract": "InterbankTransfer.sol:InterbankTransfer",
        "label": "transactionIndex",
        "offset": 0,
        "slot": "3",
        "type": "t_mapping(t_uint256,t_uint256)"
      },
      {
        "astId": 114,
        "contract": "InterbankTransfer.sol:InterbankTransfer",
        "label": "owner",
        "offset": 0,
        "slot": "4",
        "type": "t_address"
      },
      {
        "astId": 118,
        "contract": "InterbankTransfer.sol:InterbankTransfer",
        "label": "authorizedBanks",
        "offset": 0,
        "slot": "5",
        "type": "t_mapping(t_address,t_bool)"
      },
      {
        "astId": 120,
        "contract": "InterbankTransfer.sol:InterbankTransfer",
        "label": "transactionCounter",
        "offset": 0,
        "slot": "6",
        "type": "t_uint256"
      }
    ],
    "types": {
      "t_address": {
        "encoding": "inplace",
        "label": "address",
        "numberOfBytes": "20"
      },
      "t_array(t_struct(Transaction)60_storage)dyn_storage": {
        "base": "t_struct(Transaction)60_storage",
        "encoding": "dynamic_array",
        "label": "struct InterbankTransfer.Transaction[]",
        "numberOfBytes": "32"
      },
      "t_bool": {
        "encoding": "inplace",
        "label": "bool",
        "numberOfBytes": "1"
      },
      "t_enum(TransactionStatus)65": {
        "encoding": "inplace",
        "label": "enum InterbankTransfer.TransactionStatus",
        "numberOfBytes": "1"
      },
      "t_mapping(t_address,t_bool)": {
        "encoding": "mapping",
        "key": "t_address",
        "label": "mapping(address => bool)",
        "numberOfBytes": "32",
        "value": "t_bool"
      },
      "t_mapping(t_address,t_string_storage)": {
        "encoding": "mapping",
        "key": "t_address",
        "label": "mapping(address => string)",
        "numberOfBytes": "32",
        "value": "t_string_storage"
      },
      "t_mapping(t_address,t_uint256)": {
        "encoding": "mapping",
        "key": "t_address",
        "label": "mapping(address => uint256)",
        "numberOfBytes": "32",
        "value": "t_uint256"
      },
      "t_mapping(t_uint256,t_uint256)": {
        "encoding": "mapping",
        "key": "t_uint256",
        "label": "mapping(uint256 => uint256)",
        "numberOfBytes": "32",
        "value": "t_uint256"
      },
      "t_string_storage": {
        "encoding": "bytes",
        "label": "string",
        "numberOfBytes": "32"
      },
      "t_struct(Transaction)60_storage": {
        "encoding": "inplace",
        "label": "struct InterbankTransfer.Transaction",
        "members": [
          {
            "astId": 42,
            "contract": "InterbankTransfer.sol:InterbankTransfer",
            "label": "id",
            "offset": 0,
            "slot": "0",
            "type": "t_uint256"
          },
          {
            "astId": 44,
            "contract": "InterbankTransfer.sol:InterbankTransfer",
            "label": "from",
            "offset": 0,
            "slot": "1",
            "type": "t_address"
          },
          {
            "astId": 46,
            "contract": "InterbankTransfer.sol:InterbankTransfer",
            "label": "to",
            "offset": 0,
            "slot": "2",
            "type": "t_address"
          },
          {
            "astId": 48,
            "contract": "InterbankTransfer.sol:InterbankTransfer",
            "label": "amount",
            "offset": 0,
            "slot": "3",
            "type": "t_uint256"
          },
          {
            "astId": 50,
            "contract": "InterbankTransfer.sol:InterbankTransfer",
            "label": "fromBank",
            "offset": 0,
            "slot": "4",
            "type": "t_string_storage"
          },
          {
            "astId": 52,
            "contract": "InterbankTransfer.sol:InterbankTransfer",
            "label": "toBank",
            "offset": 0,
            "slot": "5",
            "type": "t_string_storage"
          },
          {
            "astId": 54,
            "contract": "InterbankTransfer.sol:InterbankTransfer",
            "label": "description",
            "offset": 0,
            "slot": "6",
            "type": "t_string_storage"
          },
          {
            "astId": 56,
            "contract": "InterbankTransfer.sol:InterbankTransfer",
            "label": "timestamp",
            "offset": 0,
            "slot": "7",
            "type": "t_uint256"
          },
          {
            "astId": 59,
            "contract": "InterbankTransfer.sol:InterbankTransfer",
            "label": "status",
            "offset": 0,
            "slot": "8",
            "type": "t_enum(TransactionStatus)65"
          }
        ],
        "numberOfBytes": "288"
      },
      "t_uint256": {
        "encoding": "inplace",
        "label": "uint256",
        "numberOfBytes": "32"
      }
    }
  },
  "userdoc": {
    "kind": "user",
    "methods": {},
    "version": 1
  }
}